{"contracts/AdminCandidates.sol":{"AdminCandidates":{"abi":[{"inputs":[],"stateMutability":"nonpayable","type":"constructor"},{"anonymous":false,"inputs":[],"name":"CandidatesReset","type":"event"},{"anonymous":false,"inputs":[],"name":"CandidatesSubmitted","type":"event"},{"anonymous":false,"inputs":[{"indexed":false,"internalType":"string","name":"position","type":"string"},{"indexed":false,"internalType":"string","name":"name","type":"string"},{"indexed":false,"internalType":"string","name":"voterHash","type":"string"}],"name":"VoteSubmitted","type":"event"},{"inputs":[],"name":"admin","outputs":[{"internalType":"address","name":"","type":"address"}],"stateMutability":"view","type":"function"},{"inputs":[{"internalType":"string[]","name":"_positions","type":"string[]"},{"internalType":"uint256[]","name":"_indices","type":"uint256[]"},{"internalType":"string","name":"_voterHash","type":"string"}],"name":"batchVote","outputs":[],"stateMutability":"nonpayable","type":"function"},{"inputs":[{"internalType":"string","name":"_position","type":"string"}],"name":"getCandidates","outputs":[{"components":[{"internalType":"string","name":"name","type":"string"},{"internalType":"string","name":"party","type":"string"},{"internalType":"string","name":"position","type":"string"},{"internalType":"uint256","name":"votes","type":"uint256"},{"internalType":"string[]","name":"voterHashes","type":"string[]"}],"internalType":"struct AdminCandidates.Candidate[]","name":"","type":"tuple[]"}],"stateMutability":"view","type":"function"},{"inputs":[],"name":"getVoteCounts","outputs":[{"components":[{"internalType":"string","name":"name","type":"string"},{"internalType":"string","name":"party","type":"string"},{"internalType":"string","name":"position","type":"string"},{"internalType":"uint256","name":"votes","type":"uint256"},{"internalType":"string[]","name":"voterHashes","type":"string[]"}],"internalType":"struct AdminCandidates.Candidate[]","name":"","type":"tuple[]"}],"stateMutability":"view","type":"function"},{"inputs":[],"name":"isFinalized","outputs":[{"internalType":"bool","name":"","type":"bool"}],"stateMutability":"view","type":"function"},{"inputs":[],"name":"resetCandidates","outputs":[],"stateMutability":"nonpayable","type":"function"},{"inputs":[{"internalType":"string[]","name":"_positions","type":"string[]"},{"internalType":"string[][]","name":"_names","type":"string[][]"},{"internalType":"string[][]","name":"_parties","type":"string[][]"}],"name":"submitCandidates","outputs":[],"stateMutability":"nonpayable","type":"function"}],"evm":{"bytecode":{"linkReferences":{},"object":"60806040526000600360146101000a81548160ff02191690831515021790555034801561002b57600080fd5b5033600360006101000a81548173ffffffffffffffffffffffffffffffffffffffff021916908373ffffffffffffffffffffffffffffffffffffffff1602179055506125378061007c6000396000f3fe608060405234801561001057600080fd5b506004361061007d5760003560e01c80638d4e40831161005b5780638d4e4083146100d857806395dbea06146100f6578063f851a44014610112578063ffc97b20146101305761007d565b80634340bcaa14610082578063455347631461009e5780637718d9f3146100ce575b600080fd5b61009c600480360381019061009791906116eb565b61014e565b005b6100b860048036038101906100b39190611792565b6104e6565b6040516100c59190611a78565b60405180910390f35b6100d66107fc565b005b6100e061094e565b6040516100ed9190611ab5565b60405180910390f35b610110600480360381019061010b9190611bb1565b610961565b005b61011a610d8f565b6040516101279190611c99565b60405180910390f35b610138610db5565b6040516101459190611a78565b60405180910390f35b600360149054906101000a900460ff1661019d576040517f08c379a000000000000000000000000000000000000000000000000000000000815260040161019490611d37565b60405180910390fd5b600160003373ffffffffffffffffffffffffffffffffffffffff1673ffffffffffffffffffffffffffffffffffffffff16815260200190815260200160002060009054906101000a900460ff161561022a576040517f08c379a000000000000000000000000000000000000000000000000000000000815260040161022190611da3565b60405180910390fd5b815183511461026e576040517f08c379a000000000000000000000000000000000000000000000000000000000815260040161026590611e0f565b60405180910390fd5b60005b835181101561048957600084828151811061028f5761028e611e2f565b5b60200260200101516040516102a49190611e9a565b90815260200160405180910390208382815181106102c5576102c4611e2f565b5b6020026020010151815481106102de576102dd611e2f565b5b9060005260206000209060050201600301600081548092919061030090611ee0565b9190505550600084828151811061031a57610319611e2f565b5b602002602001015160405161032f9190611e9a565b90815260200160405180910390208382815181106103505761034f611e2f565b5b60200260200101518154811061036957610368611e2f565b5b9060005260206000209060050201600401829080600181540180825580915050600190039060005260206000200160009091909190915090816103ac9190612134565b507f1f7f8725181cda830ea2a022bbcb3eb478be4b2cd519ed2288edcdd16484d9cc8482815181106103e1576103e0611e2f565b5b602002602001015160008684815181106103fe576103fd611e2f565b5b60200260200101516040516104139190611e9a565b908152602001604051809103902085848151811061043457610433611e2f565b5b60200260200101518154811061044d5761044c611e2f565b5b90600052602060002090600502016000018460405161046e939291906122c3565b60405180910390a1808061048190611ee0565b915050610271565b5060018060003373ffffffffffffffffffffffffffffffffffffffff1673ffffffffffffffffffffffffffffffffffffffff16815260200190815260200160002060006101000a81548160ff021916908315150217905550505050565b60606000826040516104f89190611e9a565b9081526020016040518091039020805480602002602001604051908101604052809291908181526020016000905b828210156107f157838290600052602060002090600502016040518060a001604052908160008201805461055990611f57565b80601f016020809104026020016040519081016040528092919081815260200182805461058590611f57565b80156105d25780601f106105a7576101008083540402835291602001916105d2565b820191906000526020600020905b8154815290600101906020018083116105b557829003601f168201915b505050505081526020016001820180546105eb90611f57565b80601f016020809104026020016040519081016040528092919081815260200182805461061790611f57565b80156106645780601f1061063957610100808354040283529160200191610664565b820191906000526020600020905b81548152906001019060200180831161064757829003601f168201915b5050505050815260200160028201805461067d90611f57565b80601f01602080910402602001604051908101604052809291908181526020018280546106a990611f57565b80156106f65780601f106106cb576101008083540402835291602001916106f6565b820191906000526020600020905b8154815290600101906020018083116106d957829003601f168201915b505050505081526020016003820154815260200160048201805480602002602001604051908101604052809291908181526020016000905b828210156107da57838290600052602060002001805461074d90611f57565b80601f016020809104026020016040519081016040528092919081815260200182805461077990611f57565b80156107c65780601f1061079b576101008083540402835291602001916107c6565b820191906000526020600020905b8154815290600101906020018083116107a957829003601f168201915b50505050508152602001906001019061072e565b505050508152505081526020019060010190610526565b505050509050919050565b600360009054906101000a900473ffffffffffffffffffffffffffffffffffffffff1673ffffffffffffffffffffffffffffffffffffffff163373ffffffffffffffffffffffffffffffffffffffff161461088c576040517f08c379a000000000000000000000000000000000000000000000000000000000815260040161088390612381565b60405180910390fd5b60005b6002805490508110156108f6576000600282815481106108b2576108b1611e2f565b5b906000526020600020016040516108c99190612424565b908152602001604051809103902060006108e39190611205565b80806108ee90611ee0565b91505061088f565b50600260006109059190611229565b6000600360146101000a81548160ff0219169083151502179055507f800bdaa40887ccfd790fdc79f47cf3acbb2a1ecf28b3bccb67e3719009c1bab260405160405180910390a1565b600360149054906101000a900460ff1681565b600360009054906101000a900473ffffffffffffffffffffffffffffffffffffffff1673ffffffffffffffffffffffffffffffffffffffff163373ffffffffffffffffffffffffffffffffffffffff16146109f1576040517f08c379a00000000000000000000000000000000000000000000000000000000081526004016109e890612381565b60405180910390fd5b600360149054906101000a900460ff1615610a41576040517f08c379a0000000000000000000000000000000000000000000000000000000008152600401610a38906124ad565b60405180910390fd5b60026000610a4f9190611229565b60005b8351811015610d4257600080858381518110610a7157610a70611e2f565b5b6020026020010151604051610a869190611e9a565b90815260200160405180910390208054905003610aed576002848281518110610ab257610ab1611e2f565b5b6020026020010151908060018154018082558091505060019003906000526020600020016000909190919091509081610aeb9190612134565b505b6000848281518110610b0257610b01611e2f565b5b6020026020010151604051610b179190611e9a565b90815260200160405180910390206000610b319190611205565b60005b838281518110610b4757610b46611e2f565b5b602002602001015151811015610d2e576000858381518110610b6c57610b6b611e2f565b5b6020026020010151604051610b819190611e9a565b90815260200160405180910390206040518060a00160405280868581518110610bad57610bac611e2f565b5b60200260200101518481518110610bc757610bc6611e2f565b5b60200260200101518152602001858581518110610be757610be6611e2f565b5b60200260200101518481518110610c0157610c00611e2f565b5b60200260200101518152602001878581518110610c2157610c20611e2f565b5b6020026020010151815260200160008152602001600067ffffffffffffffff811115610c5057610c4f6113dc565b5b604051908082528060200260200182016040528015610c8357816020015b6060815260200190600190039081610c6e5790505b5081525090806001815401808255809150506001900390600052602060002090600502016000909190919091506000820151816000019081610cc59190612134565b506020820151816001019081610cdb9190612134565b506040820151816002019081610cf19190612134565b50606082015181600301556080820151816004019080519060200190610d1892919061124a565b5050508080610d2690611ee0565b915050610b34565b508080610d3a90611ee0565b915050610a52565b506001600360146101000a81548160ff0219169083151502179055507f86825b43264ca968e676c45c8e05cc56965ff5938ed49dcf636c61acb7070bd760405160405180910390a1505050565b600360009054906101000a900473ffffffffffffffffffffffffffffffffffffffff1681565b6060600080600090505b600280549050811015610e2b57600060028281548110610de257610de1611e2f565b5b90600052602060002001604051610df99190612424565b90815260200160405180910390208054905082610e1691906124cd565b91508080610e2390611ee0565b915050610dbf565b5060008167ffffffffffffffff811115610e4857610e476113dc565b5b604051908082528060200260200182016040528015610e8157816020015b610e6e6112a3565b815260200190600190039081610e665790505b5090506000805b6002805490508110156111fb5760008060028381548110610eac57610eab611e2f565b5b90600052602060002001604051610ec39190612424565b9081526020016040518091039020905060005b81805490508110156111e657818181548110610ef557610ef4611e2f565b5b90600052602060002090600502016040518060a0016040529081600082018054610f1e90611f57565b80601f0160208091040260200160405190810160405280929190818152602001828054610f4a90611f57565b8015610f975780601f10610f6c57610100808354040283529160200191610f97565b820191906000526020600020905b815481529060010190602001808311610f7a57829003601f168201915b50505050508152602001600182018054610fb090611f57565b80601f0160208091040260200160405190810160405280929190818152602001828054610fdc90611f57565b80156110295780601f10610ffe57610100808354040283529160200191611029565b820191906000526020600020905b81548152906001019060200180831161100c57829003601f168201915b5050505050815260200160028201805461104290611f57565b80601f016020809104026020016040519081016040528092919081815260200182805461106e90611f57565b80156110bb5780601f10611090576101008083540402835291602001916110bb565b820191906000526020600020905b81548152906001019060200180831161109e57829003601f168201915b505050505081526020016003820154815260200160048201805480602002602001604051908101604052809291908181526020016000905b8282101561119f57838290600052602060002001805461111290611f57565b80601f016020809104026020016040519081016040528092919081815260200182805461113e90611f57565b801561118b5780601f106111605761010080835404028352916020019161118b565b820191906000526020600020905b81548152906001019060200180831161116e57829003601f168201915b5050505050815260200190600101906110f3565b50505050815250508585815181106111ba576111b9611e2f565b5b602002602001018190525083806111d090611ee0565b94505080806111de90611ee0565b915050610ed6565b505080806111f390611ee0565b915050610e88565b5081935050505090565b508054600082556005029060005260206000209081019061122691906112d2565b50565b50805460008255906000526020600020908101906112479190611331565b50565b828054828255906000526020600020908101928215611292579160200282015b828111156112915782518290816112819190612134565b509160200191906001019061126a565b5b50905061129f9190611331565b5090565b6040518060a0016040528060608152602001606081526020016060815260200160008152602001606081525090565b5b8082111561132d57600080820160006112ec9190611355565b6001820160006112fc9190611355565b60028201600061130c9190611355565b60038201600090556004820160006113249190611229565b506005016112d3565b5090565b5b8082111561135157600081816113489190611355565b50600101611332565b5090565b50805461136190611f57565b6000825580601f106113735750611392565b601f0160209004906000526020600020908101906113919190611395565b5b50565b5b808211156113ae576000816000905550600101611396565b5090565b6000604051905090565b600080fd5b600080fd5b600080fd5b6000601f19601f8301169050919050565b7f4e487b7100000000000000000000000000000000000000000000000000000000600052604160045260246000fd5b611414826113cb565b810181811067ffffffffffffffff82111715611433576114326113dc565b5b80604052505050565b60006114466113b2565b9050611452828261140b565b919050565b600067ffffffffffffffff821115611472576114716113dc565b5b602082029050602081019050919050565b600080fd5b600080fd5b600067ffffffffffffffff8211156114a8576114a76113dc565b5b6114b1826113cb565b9050602081019050919050565b82818337600083830152505050565b60006114e06114db8461148d565b61143c565b9050828152602081018484840111156114fc576114fb611488565b5b6115078482856114be565b509392505050565b600082601f830112611524576115236113c6565b5b81356115348482602086016114cd565b91505092915050565b600061155061154b84611457565b61143c565b9050808382526020820190506020840283018581111561157357611572611483565b5b835b818110156115ba57803567ffffffffffffffff811115611598576115976113c6565b5b8086016115a5898261150f565b85526020850194505050602081019050611575565b5050509392505050565b600082601f8301126115d9576115d86113c6565b5b81356115e984826020860161153d565b91505092915050565b600067ffffffffffffffff82111561160d5761160c6113dc565b5b602082029050602081019050919050565b6000819050919050565b6116318161161e565b811461163c57600080fd5b50565b60008135905061164e81611628565b92915050565b6000611667611662846115f2565b61143c565b9050808382526020820190506020840283018581111561168a57611689611483565b5b835b818110156116b3578061169f888261163f565b84526020840193505060208101905061168c565b5050509392505050565b600082601f8301126116d2576116d16113c6565b5b81356116e2848260208601611654565b91505092915050565b600080600060608486031215611704576117036113bc565b5b600084013567ffffffffffffffff811115611722576117216113c1565b5b61172e868287016115c4565b935050602084013567ffffffffffffffff81111561174f5761174e6113c1565b5b61175b868287016116bd565b925050604084013567ffffffffffffffff81111561177c5761177b6113c1565b5b6117888682870161150f565b9150509250925092565b6000602082840312156117a8576117a76113bc565b5b600082013567ffffffffffffffff8111156117c6576117c56113c1565b5b6117d28482850161150f565b91505092915050565b600081519050919050565b600082825260208201905092915050565b6000819050602082019050919050565b600081519050919050565b600082825260208201905092915050565b60005b83811015611841578082015181840152602081019050611826565b60008484015250505050565b600061185882611807565b6118628185611812565b9350611872818560208601611823565b61187b816113cb565b840191505092915050565b61188f8161161e565b82525050565b600081519050919050565b600082825260208201905092915050565b6000819050602082019050919050565b60006118cd838361184d565b905092915050565b6000602082019050919050565b60006118ed82611895565b6118f781856118a0565b935083602082028501611909856118b1565b8060005b85811015611945578484038952815161192685826118c1565b9450611931836118d5565b925060208a0199505060018101905061190d565b50829750879550505050505092915050565b600060a0830160008301518482036000860152611974828261184d565b9150506020830151848203602086015261198e828261184d565b915050604083015184820360408601526119a8828261184d565b91505060608301516119bd6060860182611886565b50608083015184820360808601526119d582826118e2565b9150508091505092915050565b60006119ee8383611957565b905092915050565b6000602082019050919050565b6000611a0e826117db565b611a1881856117e6565b935083602082028501611a2a856117f7565b8060005b85811015611a665784840389528151611a4785826119e2565b9450611a52836119f6565b925060208a01995050600181019050611a2e565b50829750879550505050505092915050565b60006020820190508181036000830152611a928184611a03565b905092915050565b60008115159050919050565b611aaf81611a9a565b82525050565b6000602082019050611aca6000830184611aa6565b92915050565b600067ffffffffffffffff821115611aeb57611aea6113dc565b5b602082029050602081019050919050565b6000611b0f611b0a84611ad0565b61143c565b90508083825260208201905060208402830185811115611b3257611b31611483565b5b835b81811015611b7957803567ffffffffffffffff811115611b5757611b566113c6565b5b808601611b6489826115c4565b85526020850194505050602081019050611b34565b5050509392505050565b600082601f830112611b9857611b976113c6565b5b8135611ba8848260208601611afc565b91505092915050565b600080600060608486031215611bca57611bc96113bc565b5b600084013567ffffffffffffffff811115611be857611be76113c1565b5b611bf4868287016115c4565b935050602084013567ffffffffffffffff811115611c1557611c146113c1565b5b611c2186828701611b83565b925050604084013567ffffffffffffffff811115611c4257611c416113c1565b5b611c4e86828701611b83565b9150509250925092565b600073ffffffffffffffffffffffffffffffffffffffff82169050919050565b6000611c8382611c58565b9050919050565b611c9381611c78565b82525050565b6000602082019050611cae6000830184611c8a565b92915050565b600082825260208201905092915050565b7f566f74696e672063616e6e6f7420737461727420756e74696c2063616e64696460008201527f61746573206172652066696e616c697a65642100000000000000000000000000602082015250565b6000611d21603383611cb4565b9150611d2c82611cc5565b604082019050919050565b60006020820190508181036000830152611d5081611d14565b9050919050565b7f596f75206861766520616c726561647920766f74656421000000000000000000600082015250565b6000611d8d601783611cb4565b9150611d9882611d57565b602082019050919050565b60006020820190508181036000830152611dbc81611d80565b9050919050565b7f4d69736d61746368656420696e707574206c656e677468730000000000000000600082015250565b6000611df9601883611cb4565b9150611e0482611dc3565b602082019050919050565b60006020820190508181036000830152611e2881611dec565b9050919050565b7f4e487b7100000000000000000000000000000000000000000000000000000000600052603260045260246000fd5b600081905092915050565b6000611e7482611807565b611e7e8185611e5e565b9350611e8e818560208601611823565b80840191505092915050565b6000611ea68284611e69565b915081905092915050565b7f4e487b7100000000000000000000000000000000000000000000000000000000600052601160045260246000fd5b6000611eeb8261161e565b91507fffffffffffffffffffffffffffffffffffffffffffffffffffffffffffffffff8203611f1d57611f1c611eb1565b5b600182019050919050565b7f4e487b7100000000000000000000000000000000000000000000000000000000600052602260045260246000fd5b60006002820490506001821680611f6f57607f821691505b602082108103611f8257611f81611f28565b5b50919050565b60008190508160005260206000209050919050565b60006020601f8301049050919050565b600082821b905092915050565b600060088302611fea7fffffffffffffffffffffffffffffffffffffffffffffffffffffffffffffffff82611fad565b611ff48683611fad565b95508019841693508086168417925050509392505050565b6000819050919050565b600061203161202c6120278461161e565b61200c565b61161e565b9050919050565b6000819050919050565b61204b83612016565b61205f61205782612038565b848454611fba565b825550505050565b600090565b612074612067565b61207f818484612042565b505050565b5b818110156120a35761209860008261206c565b600181019050612085565b5050565b601f8211156120e8576120b981611f88565b6120c284611f9d565b810160208510156120d1578190505b6120e56120dd85611f9d565b830182612084565b50505b505050565b600082821c905092915050565b600061210b600019846008026120ed565b1980831691505092915050565b600061212483836120fa565b9150826002028217905092915050565b61213d82611807565b67ffffffffffffffff811115612156576121556113dc565b5b6121608254611f57565b61216b8282856120a7565b600060209050601f83116001811461219e576000841561218c578287015190505b6121968582612118565b8655506121fe565b601f1984166121ac86611f88565b60005b828110156121d4578489015182556001820191506020850194506020810190506121af565b868310156121f157848901516121ed601f8916826120fa565b8355505b6001600288020188555050505b505050505050565b600061221182611807565b61221b8185611cb4565b935061222b818560208601611823565b612234816113cb565b840191505092915050565b6000815461224c81611f57565b6122568186611cb4565b945060018216600081146122715760018114612287576122ba565b60ff1983168652811515602002860193506122ba565b61229085611f88565b60005b838110156122b257815481890152600182019150602081019050612293565b808801955050505b50505092915050565b600060608201905081810360008301526122dd8186612206565b905081810360208301526122f1818561223f565b905081810360408301526123058184612206565b9050949350505050565b7f4f6e6c792061646d696e2063616e20706572666f726d2074686973206163746960008201527f6f6e000000000000000000000000000000000000000000000000000000000000602082015250565b600061236b602283611cb4565b91506123768261230f565b604082019050919050565b6000602082019050818103600083015261239a8161235e565b9050919050565b600081546123ae81611f57565b6123b88186611e5e565b945060018216600081146123d357600181146123e85761241b565b60ff198316865281151582028601935061241b565b6123f185611f88565b60005b83811015612413578154818901526001820191506020810190506123f4565b838801955050505b50505092915050565b600061243082846123a1565b915081905092915050565b7f43616e646964617465732061726520616c72656164792066696e616c697a656460008201527f2100000000000000000000000000000000000000000000000000000000000000602082015250565b6000612497602183611cb4565b91506124a28261243b565b604082019050919050565b600060208201905081810360008301526124c68161248a565b9050919050565b60006124d88261161e565b91506124e38361161e565b92508282019050808211156124fb576124fa611eb1565b5b9291505056fea2646970667358221220cab8219b00235180858451f5b6caf77323ecaab71d07013ce828f5998ecf3e9d64736f6c63430008150033","opcodes":"PUSH1 0x80 PUSH1 0x40 MSTORE PUSH1 0x0 PUSH1 0x3 PUSH1 0x14 PUSH2 0x100 EXP DUP2 SLOAD DUP2 PUSH1 0xFF MUL NOT AND SWAP1 DUP4 ISZERO ISZERO MUL OR SWAP1 SSTORE POP CALLVALUE DUP1 ISZERO PUSH2 0x2B JUMPI PUSH1 0x0 DUP1 REVERT JUMPDEST POP CALLER PUSH1 0x3 PUSH1 0x0 PUSH2 0x100 EXP DUP2 SLOAD DUP2 PUSH20 0xFFFFFFFFFFFFFFFFFFFFFFFFFFFFFFFFFFFFFFFF MUL NOT AND SWAP1 DUP4 PUSH20 0xFFFFFFFFFFFFFFFFFFFFFFFFFFFFFFFFFFFFFFFF AND MUL OR SWAP1 SSTORE POP PUSH2 0x2537 DUP1 PUSH2 0x7C PUSH1 0x0 CODECOPY PUSH1 0x0 RETURN INVALID PUSH1 0x80 PUSH1 0x40 MSTORE CALLVALUE DUP1 ISZERO PUSH2 0x10 JUMPI PUSH1 0x0 DUP1 REVERT JUMPDEST POP PUSH1 0x4 CALLDATASIZE LT PUSH2 0x7D JUMPI PUSH1 0x0 CALLDATALOAD PUSH1 0xE0 SHR DUP1 PUSH4 0x8D4E4083 GT PUSH2 0x5B JUMPI DUP1 PUSH4 0x8D4E4083 EQ PUSH2 0xD8 JUMPI DUP1 PUSH4 0x95DBEA06 EQ PUSH2 0xF6 JUMPI DUP1 PUSH4 0xF851A440 EQ PUSH2 0x112 JUMPI DUP1 PUSH4 0xFFC97B20 EQ PUSH2 0x130 JUMPI PUSH2 0x7D JUMP JUMPDEST DUP1 PUSH4 0x4340BCAA EQ PUSH2 0x82 JUMPI DUP1 PUSH4 0x45534763 EQ PUSH2 0x9E JUMPI DUP1 PUSH4 0x7718D9F3 EQ PUSH2 0xCE JUMPI JUMPDEST PUSH1 0x0 DUP1 REVERT JUMPDEST PUSH2 0x9C PUSH1 0x4 DUP1 CALLDATASIZE SUB DUP2 ADD SWAP1 PUSH2 0x97 SWAP2 SWAP1 PUSH2 0x16EB JUMP JUMPDEST PUSH2 0x14E JUMP JUMPDEST STOP JUMPDEST PUSH2 0xB8 PUSH1 0x4 DUP1 CALLDATASIZE SUB DUP2 ADD SWAP1 PUSH2 0xB3 SWAP2 SWAP1 PUSH2 0x1792 JUMP JUMPDEST PUSH2 0x4E6 JUMP JUMPDEST PUSH1 0x40 MLOAD PUSH2 0xC5 SWAP2 SWAP1 PUSH2 0x1A78 JUMP JUMPDEST PUSH1 0x40 MLOAD DUP1 SWAP2 SUB SWAP1 RETURN JUMPDEST PUSH2 0xD6 PUSH2 0x7FC JUMP JUMPDEST STOP JUMPDEST PUSH2 0xE0 PUSH2 0x94E JUMP JUMPDEST PUSH1 0x40 MLOAD PUSH2 0xED SWAP2 SWAP1 PUSH2 0x1AB5 JUMP JUMPDEST PUSH1 0x40 MLOAD DUP1 SWAP2 SUB SWAP1 RETURN JUMPDEST PUSH2 0x110 PUSH1 0x4 DUP1 CALLDATASIZE SUB DUP2 ADD SWAP1 PUSH2 0x10B SWAP2 SWAP1 PUSH2 0x1BB1 JUMP JUMPDEST PUSH2 0x961 JUMP JUMPDEST STOP JUMPDEST PUSH2 0x11A PUSH2 0xD8F JUMP JUMPDEST PUSH1 0x40 MLOAD PUSH2 0x127 SWAP2 SWAP1 PUSH2 0x1C99 JUMP JUMPDEST PUSH1 0x40 MLOAD DUP1 SWAP2 SUB SWAP1 RETURN JUMPDEST PUSH2 0x138 PUSH2 0xDB5 JUMP JUMPDEST PUSH1 0x40 MLOAD PUSH2 0x145 SWAP2 SWAP1 PUSH2 0x1A78 JUMP JUMPDEST PUSH1 0x40 MLOAD DUP1 SWAP2 SUB SWAP1 RETURN JUMPDEST PUSH1 0x3 PUSH1 0x14 SWAP1 SLOAD SWAP1 PUSH2 0x100 EXP SWAP1 DIV PUSH1 0xFF AND PUSH2 0x19D JUMPI PUSH1 0x40 MLOAD PUSH32 0x8C379A000000000000000000000000000000000000000000000000000000000 DUP2 MSTORE PUSH1 0x4 ADD PUSH2 0x194 SWAP1 PUSH2 0x1D37 JUMP JUMPDEST PUSH1 0x40 MLOAD DUP1 SWAP2 SUB SWAP1 REVERT JUMPDEST PUSH1 0x1 PUSH1 0x0 CALLER PUSH20 0xFFFFFFFFFFFFFFFFFFFFFFFFFFFFFFFFFFFFFFFF AND PUSH20 0xFFFFFFFFFFFFFFFFFFFFFFFFFFFFFFFFFFFFFFFF AND DUP2 MSTORE PUSH1 0x20 ADD SWAP1 DUP2 MSTORE PUSH1 0x20 ADD PUSH1 0x0 KECCAK256 PUSH1 0x0 SWAP1 SLOAD SWAP1 PUSH2 0x100 EXP SWAP1 DIV PUSH1 0xFF AND ISZERO PUSH2 0x22A JUMPI PUSH1 0x40 MLOAD PUSH32 0x8C379A000000000000000000000000000000000000000000000000000000000 DUP2 MSTORE PUSH1 0x4 ADD PUSH2 0x221 SWAP1 PUSH2 0x1DA3 JUMP JUMPDEST PUSH1 0x40 MLOAD DUP1 SWAP2 SUB SWAP1 REVERT JUMPDEST DUP2 MLOAD DUP4 MLOAD EQ PUSH2 0x26E JUMPI PUSH1 0x40 MLOAD PUSH32 0x8C379A000000000000000000000000000000000000000000000000000000000 DUP2 MSTORE PUSH1 0x4 ADD PUSH2 0x265 SWAP1 PUSH2 0x1E0F JUMP JUMPDEST PUSH1 0x40 MLOAD DUP1 SWAP2 SUB SWAP1 REVERT JUMPDEST PUSH1 0x0 JUMPDEST DUP4 MLOAD DUP2 LT ISZERO PUSH2 0x489 JUMPI PUSH1 0x0 DUP5 DUP3 DUP2 MLOAD DUP2 LT PUSH2 0x28F JUMPI PUSH2 0x28E PUSH2 0x1E2F JUMP JUMPDEST JUMPDEST PUSH1 0x20 MUL PUSH1 0x20 ADD ADD MLOAD PUSH1 0x40 MLOAD PUSH2 0x2A4 SWAP2 SWAP1 PUSH2 0x1E9A JUMP JUMPDEST SWAP1 DUP2 MSTORE PUSH1 0x20 ADD PUSH1 0x40 MLOAD DUP1 SWAP2 SUB SWAP1 KECCAK256 DUP4 DUP3 DUP2 MLOAD DUP2 LT PUSH2 0x2C5 JUMPI PUSH2 0x2C4 PUSH2 0x1E2F JUMP JUMPDEST JUMPDEST PUSH1 0x20 MUL PUSH1 0x20 ADD ADD MLOAD DUP2 SLOAD DUP2 LT PUSH2 0x2DE JUMPI PUSH2 0x2DD PUSH2 0x1E2F JUMP JUMPDEST JUMPDEST SWAP1 PUSH1 0x0 MSTORE PUSH1 0x20 PUSH1 0x0 KECCAK256 SWAP1 PUSH1 0x5 MUL ADD PUSH1 0x3 ADD PUSH1 0x0 DUP2 SLOAD DUP1 SWAP3 SWAP2 SWAP1 PUSH2 0x300 SWAP1 PUSH2 0x1EE0 JUMP JUMPDEST SWAP2 SWAP1 POP SSTORE POP PUSH1 0x0 DUP5 DUP3 DUP2 MLOAD DUP2 LT PUSH2 0x31A JUMPI PUSH2 0x319 PUSH2 0x1E2F JUMP JUMPDEST JUMPDEST PUSH1 0x20 MUL PUSH1 0x20 ADD ADD MLOAD PUSH1 0x40 MLOAD PUSH2 0x32F SWAP2 SWAP1 PUSH2 0x1E9A JUMP JUMPDEST SWAP1 DUP2 MSTORE PUSH1 0x20 ADD PUSH1 0x40 MLOAD DUP1 SWAP2 SUB SWAP1 KECCAK256 DUP4 DUP3 DUP2 MLOAD DUP2 LT PUSH2 0x350 JUMPI PUSH2 0x34F PUSH2 0x1E2F JUMP JUMPDEST JUMPDEST PUSH1 0x20 MUL PUSH1 0x20 ADD ADD MLOAD DUP2 SLOAD DUP2 LT PUSH2 0x369 JUMPI PUSH2 0x368 PUSH2 0x1E2F JUMP JUMPDEST JUMPDEST SWAP1 PUSH1 0x0 MSTORE PUSH1 0x20 PUSH1 0x0 KECCAK256 SWAP1 PUSH1 0x5 MUL ADD PUSH1 0x4 ADD DUP3 SWAP1 DUP1 PUSH1 0x1 DUP2 SLOAD ADD DUP1 DUP3 SSTORE DUP1 SWAP2 POP POP PUSH1 0x1 SWAP1 SUB SWAP1 PUSH1 0x0 MSTORE PUSH1 0x20 PUSH1 0x0 KECCAK256 ADD PUSH1 0x0 SWAP1 SWAP2 SWAP1 SWAP2 SWAP1 SWAP2 POP SWAP1 DUP2 PUSH2 0x3AC SWAP2 SWAP1 PUSH2 0x2134 JUMP JUMPDEST POP PUSH32 0x1F7F8725181CDA830EA2A022BBCB3EB478BE4B2CD519ED2288EDCDD16484D9CC DUP5 DUP3 DUP2 MLOAD DUP2 LT PUSH2 0x3E1 JUMPI PUSH2 0x3E0 PUSH2 0x1E2F JUMP JUMPDEST JUMPDEST PUSH1 0x20 MUL PUSH1 0x20 ADD ADD MLOAD PUSH1 0x0 DUP7 DUP5 DUP2 MLOAD DUP2 LT PUSH2 0x3FE JUMPI PUSH2 0x3FD PUSH2 0x1E2F JUMP JUMPDEST JUMPDEST PUSH1 0x20 MUL PUSH1 0x20 ADD ADD MLOAD PUSH1 0x40 MLOAD PUSH2 0x413 SWAP2 SWAP1 PUSH2 0x1E9A JUMP JUMPDEST SWAP1 DUP2 MSTORE PUSH1 0x20 ADD PUSH1 0x40 MLOAD DUP1 SWAP2 SUB SWAP1 KECCAK256 DUP6 DUP5 DUP2 MLOAD DUP2 LT PUSH2 0x434 JUMPI PUSH2 0x433 PUSH2 0x1E2F JUMP JUMPDEST JUMPDEST PUSH1 0x20 MUL PUSH1 0x20 ADD ADD MLOAD DUP2 SLOAD DUP2 LT PUSH2 0x44D JUMPI PUSH2 0x44C PUSH2 0x1E2F JUMP JUMPDEST JUMPDEST SWAP1 PUSH1 0x0 MSTORE PUSH1 0x20 PUSH1 0x0 KECCAK256 SWAP1 PUSH1 0x5 MUL ADD PUSH1 0x0 ADD DUP5 PUSH1 0x40 MLOAD PUSH2 0x46E SWAP4 SWAP3 SWAP2 SWAP1 PUSH2 0x22C3 JUMP JUMPDEST PUSH1 0x40 MLOAD DUP1 SWAP2 SUB SWAP1 LOG1 DUP1 DUP1 PUSH2 0x481 SWAP1 PUSH2 0x1EE0 JUMP JUMPDEST SWAP2 POP POP PUSH2 0x271 JUMP JUMPDEST POP PUSH1 0x1 DUP1 PUSH1 0x0 CALLER PUSH20 0xFFFFFFFFFFFFFFFFFFFFFFFFFFFFFFFFFFFFFFFF AND PUSH20 0xFFFFFFFFFFFFFFFFFFFFFFFFFFFFFFFFFFFFFFFF AND DUP2 MSTORE PUSH1 0x20 ADD SWAP1 DUP2 MSTORE PUSH1 0x20 ADD PUSH1 0x0 KECCAK256 PUSH1 0x0 PUSH2 0x100 EXP DUP2 SLOAD DUP2 PUSH1 0xFF MUL NOT AND SWAP1 DUP4 ISZERO ISZERO MUL OR SWAP1 SSTORE POP POP POP POP JUMP JUMPDEST PUSH1 0x60 PUSH1 0x0 DUP3 PUSH1 0x40 MLOAD PUSH2 0x4F8 SWAP2 SWAP1 PUSH2 0x1E9A JUMP JUMPDEST SWAP1 DUP2 MSTORE PUSH1 0x20 ADD PUSH1 0x40 MLOAD DUP1 SWAP2 SUB SWAP1 KECCAK256 DUP1 SLOAD DUP1 PUSH1 0x20 MUL PUSH1 0x20 ADD PUSH1 0x40 MLOAD SWAP1 DUP2 ADD PUSH1 0x40 MSTORE DUP1 SWAP3 SWAP2 SWAP1 DUP2 DUP2 MSTORE PUSH1 0x20 ADD PUSH1 0x0 SWAP1 JUMPDEST DUP3 DUP3 LT ISZERO PUSH2 0x7F1 JUMPI DUP4 DUP3 SWAP1 PUSH1 0x0 MSTORE PUSH1 0x20 PUSH1 0x0 KECCAK256 SWAP1 PUSH1 0x5 MUL ADD PUSH1 0x40 MLOAD DUP1 PUSH1 0xA0 ADD PUSH1 0x40 MSTORE SWAP1 DUP2 PUSH1 0x0 DUP3 ADD DUP1 SLOAD PUSH2 0x559 SWAP1 PUSH2 0x1F57 JUMP JUMPDEST DUP1 PUSH1 0x1F ADD PUSH1 0x20 DUP1 SWAP2 DIV MUL PUSH1 0x20 ADD PUSH1 0x40 MLOAD SWAP1 DUP2 ADD PUSH1 0x40 MSTORE DUP1 SWAP3 SWAP2 SWAP1 DUP2 DUP2 MSTORE PUSH1 0x20 ADD DUP3 DUP1 SLOAD PUSH2 0x585 SWAP1 PUSH2 0x1F57 JUMP JUMPDEST DUP1 ISZERO PUSH2 0x5D2 JUMPI DUP1 PUSH1 0x1F LT PUSH2 0x5A7 JUMPI PUSH2 0x100 DUP1 DUP4 SLOAD DIV MUL DUP4 MSTORE SWAP2 PUSH1 0x20 ADD SWAP2 PUSH2 0x5D2 JUMP JUMPDEST DUP3 ADD SWAP2 SWAP1 PUSH1 0x0 MSTORE PUSH1 0x20 PUSH1 0x0 KECCAK256 SWAP1 JUMPDEST DUP2 SLOAD DUP2 MSTORE SWAP1 PUSH1 0x1 ADD SWAP1 PUSH1 0x20 ADD DUP1 DUP4 GT PUSH2 0x5B5 JUMPI DUP3 SWAP1 SUB PUSH1 0x1F AND DUP3 ADD SWAP2 JUMPDEST POP POP POP POP POP DUP2 MSTORE PUSH1 0x20 ADD PUSH1 0x1 DUP3 ADD DUP1 SLOAD PUSH2 0x5EB SWAP1 PUSH2 0x1F57 JUMP JUMPDEST DUP1 PUSH1 0x1F ADD PUSH1 0x20 DUP1 SWAP2 DIV MUL PUSH1 0x20 ADD PUSH1 0x40 MLOAD SWAP1 DUP2 ADD PUSH1 0x40 MSTORE DUP1 SWAP3 SWAP2 SWAP1 DUP2 DUP2 MSTORE PUSH1 0x20 ADD DUP3 DUP1 SLOAD PUSH2 0x617 SWAP1 PUSH2 0x1F57 JUMP JUMPDEST DUP1 ISZERO PUSH2 0x664 JUMPI DUP1 PUSH1 0x1F LT PUSH2 0x639 JUMPI PUSH2 0x100 DUP1 DUP4 SLOAD DIV MUL DUP4 MSTORE SWAP2 PUSH1 0x20 ADD SWAP2 PUSH2 0x664 JUMP JUMPDEST DUP3 ADD SWAP2 SWAP1 PUSH1 0x0 MSTORE PUSH1 0x20 PUSH1 0x0 KECCAK256 SWAP1 JUMPDEST DUP2 SLOAD DUP2 MSTORE SWAP1 PUSH1 0x1 ADD SWAP1 PUSH1 0x20 ADD DUP1 DUP4 GT PUSH2 0x647 JUMPI DUP3 SWAP1 SUB PUSH1 0x1F AND DUP3 ADD SWAP2 JUMPDEST POP POP POP POP POP DUP2 MSTORE PUSH1 0x20 ADD PUSH1 0x2 DUP3 ADD DUP1 SLOAD PUSH2 0x67D SWAP1 PUSH2 0x1F57 JUMP JUMPDEST DUP1 PUSH1 0x1F ADD PUSH1 0x20 DUP1 SWAP2 DIV MUL PUSH1 0x20 ADD PUSH1 0x40 MLOAD SWAP1 DUP2 ADD PUSH1 0x40 MSTORE DUP1 SWAP3 SWAP2 SWAP1 DUP2 DUP2 MSTORE PUSH1 0x20 ADD DUP3 DUP1 SLOAD PUSH2 0x6A9 SWAP1 PUSH2 0x1F57 JUMP JUMPDEST DUP1 ISZERO PUSH2 0x6F6 JUMPI DUP1 PUSH1 0x1F LT PUSH2 0x6CB JUMPI PUSH2 0x100 DUP1 DUP4 SLOAD DIV MUL DUP4 MSTORE SWAP2 PUSH1 0x20 ADD SWAP2 PUSH2 0x6F6 JUMP JUMPDEST DUP3 ADD SWAP2 SWAP1 PUSH1 0x0 MSTORE PUSH1 0x20 PUSH1 0x0 KECCAK256 SWAP1 JUMPDEST DUP2 SLOAD DUP2 MSTORE SWAP1 PUSH1 0x1 ADD SWAP1 PUSH1 0x20 ADD DUP1 DUP4 GT PUSH2 0x6D9 JUMPI DUP3 SWAP1 SUB PUSH1 0x1F AND DUP3 ADD SWAP2 JUMPDEST POP POP POP POP POP DUP2 MSTORE PUSH1 0x20 ADD PUSH1 0x3 DUP3 ADD SLOAD DUP2 MSTORE PUSH1 0x20 ADD PUSH1 0x4 DUP3 ADD DUP1 SLOAD DUP1 PUSH1 0x20 MUL PUSH1 0x20 ADD PUSH1 0x40 MLOAD SWAP1 DUP2 ADD PUSH1 0x40 MSTORE DUP1 SWAP3 SWAP2 SWAP1 DUP2 DUP2 MSTORE PUSH1 0x20 ADD PUSH1 0x0 SWAP1 JUMPDEST DUP3 DUP3 LT ISZERO PUSH2 0x7DA JUMPI DUP4 DUP3 SWAP1 PUSH1 0x0 MSTORE PUSH1 0x20 PUSH1 0x0 KECCAK256 ADD DUP1 SLOAD PUSH2 0x74D SWAP1 PUSH2 0x1F57 JUMP JUMPDEST DUP1 PUSH1 0x1F ADD PUSH1 0x20 DUP1 SWAP2 DIV MUL PUSH1 0x20 ADD PUSH1 0x40 MLOAD SWAP1 DUP2 ADD PUSH1 0x40 MSTORE DUP1 SWAP3 SWAP2 SWAP1 DUP2 DUP2 MSTORE PUSH1 0x20 ADD DUP3 DUP1 SLOAD PUSH2 0x779 SWAP1 PUSH2 0x1F57 JUMP JUMPDEST DUP1 ISZERO PUSH2 0x7C6 JUMPI DUP1 PUSH1 0x1F LT PUSH2 0x79B JUMPI PUSH2 0x100 DUP1 DUP4 SLOAD DIV MUL DUP4 MSTORE SWAP2 PUSH1 0x20 ADD SWAP2 PUSH2 0x7C6 JUMP JUMPDEST DUP3 ADD SWAP2 SWAP1 PUSH1 0x0 MSTORE PUSH1 0x20 PUSH1 0x0 KECCAK256 SWAP1 JUMPDEST DUP2 SLOAD DUP2 MSTORE SWAP1 PUSH1 0x1 ADD SWAP1 PUSH1 0x20 ADD DUP1 DUP4 GT PUSH2 0x7A9 JUMPI DUP3 SWAP1 SUB PUSH1 0x1F AND DUP3 ADD SWAP2 JUMPDEST POP POP POP POP POP DUP2 MSTORE PUSH1 0x20 ADD SWAP1 PUSH1 0x1 ADD SWAP1 PUSH2 0x72E JUMP JUMPDEST POP POP POP POP DUP2 MSTORE POP POP DUP2 MSTORE PUSH1 0x20 ADD SWAP1 PUSH1 0x1 ADD SWAP1 PUSH2 0x526 JUMP JUMPDEST POP POP POP POP SWAP1 POP SWAP2 SWAP1 POP JUMP JUMPDEST PUSH1 0x3 PUSH1 0x0 SWAP1 SLOAD SWAP1 PUSH2 0x100 EXP SWAP1 DIV PUSH20 0xFFFFFFFFFFFFFFFFFFFFFFFFFFFFFFFFFFFFFFFF AND PUSH20 0xFFFFFFFFFFFFFFFFFFFFFFFFFFFFFFFFFFFFFFFF AND CALLER PUSH20 0xFFFFFFFFFFFFFFFFFFFFFFFFFFFFFFFFFFFFFFFF AND EQ PUSH2 0x88C JUMPI PUSH1 0x40 MLOAD PUSH32 0x8C379A000000000000000000000000000000000000000000000000000000000 DUP2 MSTORE PUSH1 0x4 ADD PUSH2 0x883 SWAP1 PUSH2 0x2381 JUMP JUMPDEST PUSH1 0x40 MLOAD DUP1 SWAP2 SUB SWAP1 REVERT JUMPDEST PUSH1 0x0 JUMPDEST PUSH1 0x2 DUP1 SLOAD SWAP1 POP DUP2 LT ISZERO PUSH2 0x8F6 JUMPI PUSH1 0x0 PUSH1 0x2 DUP3 DUP2 SLOAD DUP2 LT PUSH2 0x8B2 JUMPI PUSH2 0x8B1 PUSH2 0x1E2F JUMP JUMPDEST JUMPDEST SWAP1 PUSH1 0x0 MSTORE PUSH1 0x20 PUSH1 0x0 KECCAK256 ADD PUSH1 0x40 MLOAD PUSH2 0x8C9 SWAP2 SWAP1 PUSH2 0x2424 JUMP JUMPDEST SWAP1 DUP2 MSTORE PUSH1 0x20 ADD PUSH1 0x40 MLOAD DUP1 SWAP2 SUB SWAP1 KECCAK256 PUSH1 0x0 PUSH2 0x8E3 SWAP2 SWAP1 PUSH2 0x1205 JUMP JUMPDEST DUP1 DUP1 PUSH2 0x8EE SWAP1 PUSH2 0x1EE0 JUMP JUMPDEST SWAP2 POP POP PUSH2 0x88F JUMP JUMPDEST POP PUSH1 0x2 PUSH1 0x0 PUSH2 0x905 SWAP2 SWAP1 PUSH2 0x1229 JUMP JUMPDEST PUSH1 0x0 PUSH1 0x3 PUSH1 0x14 PUSH2 0x100 EXP DUP2 SLOAD DUP2 PUSH1 0xFF MUL NOT AND SWAP1 DUP4 ISZERO ISZERO MUL OR SWAP1 SSTORE POP PUSH32 0x800BDAA40887CCFD790FDC79F47CF3ACBB2A1ECF28B3BCCB67E3719009C1BAB2 PUSH1 0x40 MLOAD PUSH1 0x40 MLOAD DUP1 SWAP2 SUB SWAP1 LOG1 JUMP JUMPDEST PUSH1 0x3 PUSH1 0x14 SWAP1 SLOAD SWAP1 PUSH2 0x100 EXP SWAP1 DIV PUSH1 0xFF AND DUP2 JUMP JUMPDEST PUSH1 0x3 PUSH1 0x0 SWAP1 SLOAD SWAP1 PUSH2 0x100 EXP SWAP1 DIV PUSH20 0xFFFFFFFFFFFFFFFFFFFFFFFFFFFFFFFFFFFFFFFF AND PUSH20 0xFFFFFFFFFFFFFFFFFFFFFFFFFFFFFFFFFFFFFFFF AND CALLER PUSH20 0xFFFFFFFFFFFFFFFFFFFFFFFFFFFFFFFFFFFFFFFF AND EQ PUSH2 0x9F1 JUMPI PUSH1 0x40 MLOAD PUSH32 0x8C379A000000000000000000000000000000000000000000000000000000000 DUP2 MSTORE PUSH1 0x4 ADD PUSH2 0x9E8 SWAP1 PUSH2 0x2381 JUMP JUMPDEST PUSH1 0x40 MLOAD DUP1 SWAP2 SUB SWAP1 REVERT JUMPDEST PUSH1 0x3 PUSH1 0x14 SWAP1 SLOAD SWAP1 PUSH2 0x100 EXP SWAP1 DIV PUSH1 0xFF AND ISZERO PUSH2 0xA41 JUMPI PUSH1 0x40 MLOAD PUSH32 0x8C379A000000000000000000000000000000000000000000000000000000000 DUP2 MSTORE PUSH1 0x4 ADD PUSH2 0xA38 SWAP1 PUSH2 0x24AD JUMP JUMPDEST PUSH1 0x40 MLOAD DUP1 SWAP2 SUB SWAP1 REVERT JUMPDEST PUSH1 0x2 PUSH1 0x0 PUSH2 0xA4F SWAP2 SWAP1 PUSH2 0x1229 JUMP JUMPDEST PUSH1 0x0 JUMPDEST DUP4 MLOAD DUP2 LT ISZERO PUSH2 0xD42 JUMPI PUSH1 0x0 DUP1 DUP6 DUP4 DUP2 MLOAD DUP2 LT PUSH2 0xA71 JUMPI PUSH2 0xA70 PUSH2 0x1E2F JUMP JUMPDEST JUMPDEST PUSH1 0x20 MUL PUSH1 0x20 ADD ADD MLOAD PUSH1 0x40 MLOAD PUSH2 0xA86 SWAP2 SWAP1 PUSH2 0x1E9A JUMP JUMPDEST SWAP1 DUP2 MSTORE PUSH1 0x20 ADD PUSH1 0x40 MLOAD DUP1 SWAP2 SUB SWAP1 KECCAK256 DUP1 SLOAD SWAP1 POP SUB PUSH2 0xAED JUMPI PUSH1 0x2 DUP5 DUP3 DUP2 MLOAD DUP2 LT PUSH2 0xAB2 JUMPI PUSH2 0xAB1 PUSH2 0x1E2F JUMP JUMPDEST JUMPDEST PUSH1 0x20 MUL PUSH1 0x20 ADD ADD MLOAD SWAP1 DUP1 PUSH1 0x1 DUP2 SLOAD ADD DUP1 DUP3 SSTORE DUP1 SWAP2 POP POP PUSH1 0x1 SWAP1 SUB SWAP1 PUSH1 0x0 MSTORE PUSH1 0x20 PUSH1 0x0 KECCAK256 ADD PUSH1 0x0 SWAP1 SWAP2 SWAP1 SWAP2 SWAP1 SWAP2 POP SWAP1 DUP2 PUSH2 0xAEB SWAP2 SWAP1 PUSH2 0x2134 JUMP JUMPDEST POP JUMPDEST PUSH1 0x0 DUP5 DUP3 DUP2 MLOAD DUP2 LT PUSH2 0xB02 JUMPI PUSH2 0xB01 PUSH2 0x1E2F JUMP JUMPDEST JUMPDEST PUSH1 0x20 MUL PUSH1 0x20 ADD ADD MLOAD PUSH1 0x40 MLOAD PUSH2 0xB17 SWAP2 SWAP1 PUSH2 0x1E9A JUMP JUMPDEST SWAP1 DUP2 MSTORE PUSH1 0x20 ADD PUSH1 0x40 MLOAD DUP1 SWAP2 SUB SWAP1 KECCAK256 PUSH1 0x0 PUSH2 0xB31 SWAP2 SWAP1 PUSH2 0x1205 JUMP JUMPDEST PUSH1 0x0 JUMPDEST DUP4 DUP3 DUP2 MLOAD DUP2 LT PUSH2 0xB47 JUMPI PUSH2 0xB46 PUSH2 0x1E2F JUMP JUMPDEST JUMPDEST PUSH1 0x20 MUL PUSH1 0x20 ADD ADD MLOAD MLOAD DUP2 LT ISZERO PUSH2 0xD2E JUMPI PUSH1 0x0 DUP6 DUP4 DUP2 MLOAD DUP2 LT PUSH2 0xB6C JUMPI PUSH2 0xB6B PUSH2 0x1E2F JUMP JUMPDEST JUMPDEST PUSH1 0x20 MUL PUSH1 0x20 ADD ADD MLOAD PUSH1 0x40 MLOAD PUSH2 0xB81 SWAP2 SWAP1 PUSH2 0x1E9A JUMP JUMPDEST SWAP1 DUP2 MSTORE PUSH1 0x20 ADD PUSH1 0x40 MLOAD DUP1 SWAP2 SUB SWAP1 KECCAK256 PUSH1 0x40 MLOAD DUP1 PUSH1 0xA0 ADD PUSH1 0x40 MSTORE DUP1 DUP7 DUP6 DUP2 MLOAD DUP2 LT PUSH2 0xBAD JUMPI PUSH2 0xBAC PUSH2 0x1E2F JUMP JUMPDEST JUMPDEST PUSH1 0x20 MUL PUSH1 0x20 ADD ADD MLOAD DUP5 DUP2 MLOAD DUP2 LT PUSH2 0xBC7 JUMPI PUSH2 0xBC6 PUSH2 0x1E2F JUMP JUMPDEST JUMPDEST PUSH1 0x20 MUL PUSH1 0x20 ADD ADD MLOAD DUP2 MSTORE PUSH1 0x20 ADD DUP6 DUP6 DUP2 MLOAD DUP2 LT PUSH2 0xBE7 JUMPI PUSH2 0xBE6 PUSH2 0x1E2F JUMP JUMPDEST JUMPDEST PUSH1 0x20 MUL PUSH1 0x20 ADD ADD MLOAD DUP5 DUP2 MLOAD DUP2 LT PUSH2 0xC01 JUMPI PUSH2 0xC00 PUSH2 0x1E2F JUMP JUMPDEST JUMPDEST PUSH1 0x20 MUL PUSH1 0x20 ADD ADD MLOAD DUP2 MSTORE PUSH1 0x20 ADD DUP8 DUP6 DUP2 MLOAD DUP2 LT PUSH2 0xC21 JUMPI PUSH2 0xC20 PUSH2 0x1E2F JUMP JUMPDEST JUMPDEST PUSH1 0x20 MUL PUSH1 0x20 ADD ADD MLOAD DUP2 MSTORE PUSH1 0x20 ADD PUSH1 0x0 DUP2 MSTORE PUSH1 0x20 ADD PUSH1 0x0 PUSH8 0xFFFFFFFFFFFFFFFF DUP2 GT ISZERO PUSH2 0xC50 JUMPI PUSH2 0xC4F PUSH2 0x13DC JUMP JUMPDEST JUMPDEST PUSH1 0x40 MLOAD SWAP1 DUP1 DUP3 MSTORE DUP1 PUSH1 0x20 MUL PUSH1 0x20 ADD DUP3 ADD PUSH1 0x40 MSTORE DUP1 ISZERO PUSH2 0xC83 JUMPI DUP2 PUSH1 0x20 ADD JUMPDEST PUSH1 0x60 DUP2 MSTORE PUSH1 0x20 ADD SWAP1 PUSH1 0x1 SWAP1 SUB SWAP1 DUP2 PUSH2 0xC6E JUMPI SWAP1 POP JUMPDEST POP DUP2 MSTORE POP SWAP1 DUP1 PUSH1 0x1 DUP2 SLOAD ADD DUP1 DUP3 SSTORE DUP1 SWAP2 POP POP PUSH1 0x1 SWAP1 SUB SWAP1 PUSH1 0x0 MSTORE PUSH1 0x20 PUSH1 0x0 KECCAK256 SWAP1 PUSH1 0x5 MUL ADD PUSH1 0x0 SWAP1 SWAP2 SWAP1 SWAP2 SWAP1 SWAP2 POP PUSH1 0x0 DUP3 ADD MLOAD DUP2 PUSH1 0x0 ADD SWAP1 DUP2 PUSH2 0xCC5 SWAP2 SWAP1 PUSH2 0x2134 JUMP JUMPDEST POP PUSH1 0x20 DUP3 ADD MLOAD DUP2 PUSH1 0x1 ADD SWAP1 DUP2 PUSH2 0xCDB SWAP2 SWAP1 PUSH2 0x2134 JUMP JUMPDEST POP PUSH1 0x40 DUP3 ADD MLOAD DUP2 PUSH1 0x2 ADD SWAP1 DUP2 PUSH2 0xCF1 SWAP2 SWAP1 PUSH2 0x2134 JUMP JUMPDEST POP PUSH1 0x60 DUP3 ADD MLOAD DUP2 PUSH1 0x3 ADD SSTORE PUSH1 0x80 DUP3 ADD MLOAD DUP2 PUSH1 0x4 ADD SWAP1 DUP1 MLOAD SWAP1 PUSH1 0x20 ADD SWAP1 PUSH2 0xD18 SWAP3 SWAP2 SWAP1 PUSH2 0x124A JUMP JUMPDEST POP POP POP DUP1 DUP1 PUSH2 0xD26 SWAP1 PUSH2 0x1EE0 JUMP JUMPDEST SWAP2 POP POP PUSH2 0xB34 JUMP JUMPDEST POP DUP1 DUP1 PUSH2 0xD3A SWAP1 PUSH2 0x1EE0 JUMP JUMPDEST SWAP2 POP POP PUSH2 0xA52 JUMP JUMPDEST POP PUSH1 0x1 PUSH1 0x3 PUSH1 0x14 PUSH2 0x100 EXP DUP2 SLOAD DUP2 PUSH1 0xFF MUL NOT AND SWAP1 DUP4 ISZERO ISZERO MUL OR SWAP1 SSTORE POP PUSH32 0x86825B43264CA968E676C45C8E05CC56965FF5938ED49DCF636C61ACB7070BD7 PUSH1 0x40 MLOAD PUSH1 0x40 MLOAD DUP1 SWAP2 SUB SWAP1 LOG1 POP POP POP JUMP JUMPDEST PUSH1 0x3 PUSH1 0x0 SWAP1 SLOAD SWAP1 PUSH2 0x100 EXP SWAP1 DIV PUSH20 0xFFFFFFFFFFFFFFFFFFFFFFFFFFFFFFFFFFFFFFFF AND DUP2 JUMP JUMPDEST PUSH1 0x60 PUSH1 0x0 DUP1 PUSH1 0x0 SWAP1 POP JUMPDEST PUSH1 0x2 DUP1 SLOAD SWAP1 POP DUP2 LT ISZERO PUSH2 0xE2B JUMPI PUSH1 0x0 PUSH1 0x2 DUP3 DUP2 SLOAD DUP2 LT PUSH2 0xDE2 JUMPI PUSH2 0xDE1 PUSH2 0x1E2F JUMP JUMPDEST JUMPDEST SWAP1 PUSH1 0x0 MSTORE PUSH1 0x20 PUSH1 0x0 KECCAK256 ADD PUSH1 0x40 MLOAD PUSH2 0xDF9 SWAP2 SWAP1 PUSH2 0x2424 JUMP JUMPDEST SWAP1 DUP2 MSTORE PUSH1 0x20 ADD PUSH1 0x40 MLOAD DUP1 SWAP2 SUB SWAP1 KECCAK256 DUP1 SLOAD SWAP1 POP DUP3 PUSH2 0xE16 SWAP2 SWAP1 PUSH2 0x24CD JUMP JUMPDEST SWAP2 POP DUP1 DUP1 PUSH2 0xE23 SWAP1 PUSH2 0x1EE0 JUMP JUMPDEST SWAP2 POP POP PUSH2 0xDBF JUMP JUMPDEST POP PUSH1 0x0 DUP2 PUSH8 0xFFFFFFFFFFFFFFFF DUP2 GT ISZERO PUSH2 0xE48 JUMPI PUSH2 0xE47 PUSH2 0x13DC JUMP JUMPDEST JUMPDEST PUSH1 0x40 MLOAD SWAP1 DUP1 DUP3 MSTORE DUP1 PUSH1 0x20 MUL PUSH1 0x20 ADD DUP3 ADD PUSH1 0x40 MSTORE DUP1 ISZERO PUSH2 0xE81 JUMPI DUP2 PUSH1 0x20 ADD JUMPDEST PUSH2 0xE6E PUSH2 0x12A3 JUMP JUMPDEST DUP2 MSTORE PUSH1 0x20 ADD SWAP1 PUSH1 0x1 SWAP1 SUB SWAP1 DUP2 PUSH2 0xE66 JUMPI SWAP1 POP JUMPDEST POP SWAP1 POP PUSH1 0x0 DUP1 JUMPDEST PUSH1 0x2 DUP1 SLOAD SWAP1 POP DUP2 LT ISZERO PUSH2 0x11FB JUMPI PUSH1 0x0 DUP1 PUSH1 0x2 DUP4 DUP2 SLOAD DUP2 LT PUSH2 0xEAC JUMPI PUSH2 0xEAB PUSH2 0x1E2F JUMP JUMPDEST JUMPDEST SWAP1 PUSH1 0x0 MSTORE PUSH1 0x20 PUSH1 0x0 KECCAK256 ADD PUSH1 0x40 MLOAD PUSH2 0xEC3 SWAP2 SWAP1 PUSH2 0x2424 JUMP JUMPDEST SWAP1 DUP2 MSTORE PUSH1 0x20 ADD PUSH1 0x40 MLOAD DUP1 SWAP2 SUB SWAP1 KECCAK256 SWAP1 POP PUSH1 0x0 JUMPDEST DUP2 DUP1 SLOAD SWAP1 POP DUP2 LT ISZERO PUSH2 0x11E6 JUMPI DUP2 DUP2 DUP2 SLOAD DUP2 LT PUSH2 0xEF5 JUMPI PUSH2 0xEF4 PUSH2 0x1E2F JUMP JUMPDEST JUMPDEST SWAP1 PUSH1 0x0 MSTORE PUSH1 0x20 PUSH1 0x0 KECCAK256 SWAP1 PUSH1 0x5 MUL ADD PUSH1 0x40 MLOAD DUP1 PUSH1 0xA0 ADD PUSH1 0x40 MSTORE SWAP1 DUP2 PUSH1 0x0 DUP3 ADD DUP1 SLOAD PUSH2 0xF1E SWAP1 PUSH2 0x1F57 JUMP JUMPDEST DUP1 PUSH1 0x1F ADD PUSH1 0x20 DUP1 SWAP2 DIV MUL PUSH1 0x20 ADD PUSH1 0x40 MLOAD SWAP1 DUP2 ADD PUSH1 0x40 MSTORE DUP1 SWAP3 SWAP2 SWAP1 DUP2 DUP2 MSTORE PUSH1 0x20 ADD DUP3 DUP1 SLOAD PUSH2 0xF4A SWAP1 PUSH2 0x1F57 JUMP JUMPDEST DUP1 ISZERO PUSH2 0xF97 JUMPI DUP1 PUSH1 0x1F LT PUSH2 0xF6C JUMPI PUSH2 0x100 DUP1 DUP4 SLOAD DIV MUL DUP4 MSTORE SWAP2 PUSH1 0x20 ADD SWAP2 PUSH2 0xF97 JUMP JUMPDEST DUP3 ADD SWAP2 SWAP1 PUSH1 0x0 MSTORE PUSH1 0x20 PUSH1 0x0 KECCAK256 SWAP1 JUMPDEST DUP2 SLOAD DUP2 MSTORE SWAP1 PUSH1 0x1 ADD SWAP1 PUSH1 0x20 ADD DUP1 DUP4 GT PUSH2 0xF7A JUMPI DUP3 SWAP1 SUB PUSH1 0x1F AND DUP3 ADD SWAP2 JUMPDEST POP POP POP POP POP DUP2 MSTORE PUSH1 0x20 ADD PUSH1 0x1 DUP3 ADD DUP1 SLOAD PUSH2 0xFB0 SWAP1 PUSH2 0x1F57 JUMP JUMPDEST DUP1 PUSH1 0x1F ADD PUSH1 0x20 DUP1 SWAP2 DIV MUL PUSH1 0x20 ADD PUSH1 0x40 MLOAD SWAP1 DUP2 ADD PUSH1 0x40 MSTORE DUP1 SWAP3 SWAP2 SWAP1 DUP2 DUP2 MSTORE PUSH1 0x20 ADD DUP3 DUP1 SLOAD PUSH2 0xFDC SWAP1 PUSH2 0x1F57 JUMP JUMPDEST DUP1 ISZERO PUSH2 0x1029 JUMPI DUP1 PUSH1 0x1F LT PUSH2 0xFFE JUMPI PUSH2 0x100 DUP1 DUP4 SLOAD DIV MUL DUP4 MSTORE SWAP2 PUSH1 0x20 ADD SWAP2 PUSH2 0x1029 JUMP JUMPDEST DUP3 ADD SWAP2 SWAP1 PUSH1 0x0 MSTORE PUSH1 0x20 PUSH1 0x0 KECCAK256 SWAP1 JUMPDEST DUP2 SLOAD DUP2 MSTORE SWAP1 PUSH1 0x1 ADD SWAP1 PUSH1 0x20 ADD DUP1 DUP4 GT PUSH2 0x100C JUMPI DUP3 SWAP1 SUB PUSH1 0x1F AND DUP3 ADD SWAP2 JUMPDEST POP POP POP POP POP DUP2 MSTORE PUSH1 0x20 ADD PUSH1 0x2 DUP3 ADD DUP1 SLOAD PUSH2 0x1042 SWAP1 PUSH2 0x1F57 JUMP JUMPDEST DUP1 PUSH1 0x1F ADD PUSH1 0x20 DUP1 SWAP2 DIV MUL PUSH1 0x20 ADD PUSH1 0x40 MLOAD SWAP1 DUP2 ADD PUSH1 0x40 MSTORE DUP1 SWAP3 SWAP2 SWAP1 DUP2 DUP2 MSTORE PUSH1 0x20 ADD DUP3 DUP1 SLOAD PUSH2 0x106E SWAP1 PUSH2 0x1F57 JUMP JUMPDEST DUP1 ISZERO PUSH2 0x10BB JUMPI DUP1 PUSH1 0x1F LT PUSH2 0x1090 JUMPI PUSH2 0x100 DUP1 DUP4 SLOAD DIV MUL DUP4 MSTORE SWAP2 PUSH1 0x20 ADD SWAP2 PUSH2 0x10BB JUMP JUMPDEST DUP3 ADD SWAP2 SWAP1 PUSH1 0x0 MSTORE PUSH1 0x20 PUSH1 0x0 KECCAK256 SWAP1 JUMPDEST DUP2 SLOAD DUP2 MSTORE SWAP1 PUSH1 0x1 ADD SWAP1 PUSH1 0x20 ADD DUP1 DUP4 GT PUSH2 0x109E JUMPI DUP3 SWAP1 SUB PUSH1 0x1F AND DUP3 ADD SWAP2 JUMPDEST POP POP POP POP POP DUP2 MSTORE PUSH1 0x20 ADD PUSH1 0x3 DUP3 ADD SLOAD DUP2 MSTORE PUSH1 0x20 ADD PUSH1 0x4 DUP3 ADD DUP1 SLOAD DUP1 PUSH1 0x20 MUL PUSH1 0x20 ADD PUSH1 0x40 MLOAD SWAP1 DUP2 ADD PUSH1 0x40 MSTORE DUP1 SWAP3 SWAP2 SWAP1 DUP2 DUP2 MSTORE PUSH1 0x20 ADD PUSH1 0x0 SWAP1 JUMPDEST DUP3 DUP3 LT ISZERO PUSH2 0x119F JUMPI DUP4 DUP3 SWAP1 PUSH1 0x0 MSTORE PUSH1 0x20 PUSH1 0x0 KECCAK256 ADD DUP1 SLOAD PUSH2 0x1112 SWAP1 PUSH2 0x1F57 JUMP JUMPDEST DUP1 PUSH1 0x1F ADD PUSH1 0x20 DUP1 SWAP2 DIV MUL PUSH1 0x20 ADD PUSH1 0x40 MLOAD SWAP1 DUP2 ADD PUSH1 0x40 MSTORE DUP1 SWAP3 SWAP2 SWAP1 DUP2 DUP2 MSTORE PUSH1 0x20 ADD DUP3 DUP1 SLOAD PUSH2 0x113E SWAP1 PUSH2 0x1F57 JUMP JUMPDEST DUP1 ISZERO PUSH2 0x118B JUMPI DUP1 PUSH1 0x1F LT PUSH2 0x1160 JUMPI PUSH2 0x100 DUP1 DUP4 SLOAD DIV MUL DUP4 MSTORE SWAP2 PUSH1 0x20 ADD SWAP2 PUSH2 0x118B JUMP JUMPDEST DUP3 ADD SWAP2 SWAP1 PUSH1 0x0 MSTORE PUSH1 0x20 PUSH1 0x0 KECCAK256 SWAP1 JUMPDEST DUP2 SLOAD DUP2 MSTORE SWAP1 PUSH1 0x1 ADD SWAP1 PUSH1 0x20 ADD DUP1 DUP4 GT PUSH2 0x116E JUMPI DUP3 SWAP1 SUB PUSH1 0x1F AND DUP3 ADD SWAP2 JUMPDEST POP POP POP POP POP DUP2 MSTORE PUSH1 0x20 ADD SWAP1 PUSH1 0x1 ADD SWAP1 PUSH2 0x10F3 JUMP JUMPDEST POP POP POP POP DUP2 MSTORE POP POP DUP6 DUP6 DUP2 MLOAD DUP2 LT PUSH2 0x11BA JUMPI PUSH2 0x11B9 PUSH2 0x1E2F JUMP JUMPDEST JUMPDEST PUSH1 0x20 MUL PUSH1 0x20 ADD ADD DUP2 SWAP1 MSTORE POP DUP4 DUP1 PUSH2 0x11D0 SWAP1 PUSH2 0x1EE0 JUMP JUMPDEST SWAP5 POP POP DUP1 DUP1 PUSH2 0x11DE SWAP1 PUSH2 0x1EE0 JUMP JUMPDEST SWAP2 POP POP PUSH2 0xED6 JUMP JUMPDEST POP POP DUP1 DUP1 PUSH2 0x11F3 SWAP1 PUSH2 0x1EE0 JUMP JUMPDEST SWAP2 POP POP PUSH2 0xE88 JUMP JUMPDEST POP DUP2 SWAP4 POP POP POP POP SWAP1 JUMP JUMPDEST POP DUP1 SLOAD PUSH1 0x0 DUP3 SSTORE PUSH1 0x5 MUL SWAP1 PUSH1 0x0 MSTORE PUSH1 0x20 PUSH1 0x0 KECCAK256 SWAP1 DUP2 ADD SWAP1 PUSH2 0x1226 SWAP2 SWAP1 PUSH2 0x12D2 JUMP JUMPDEST POP JUMP JUMPDEST POP DUP1 SLOAD PUSH1 0x0 DUP3 SSTORE SWAP1 PUSH1 0x0 MSTORE PUSH1 0x20 PUSH1 0x0 KECCAK256 SWAP1 DUP2 ADD SWAP1 PUSH2 0x1247 SWAP2 SWAP1 PUSH2 0x1331 JUMP JUMPDEST POP JUMP JUMPDEST DUP3 DUP1 SLOAD DUP3 DUP3 SSTORE SWAP1 PUSH1 0x0 MSTORE PUSH1 0x20 PUSH1 0x0 KECCAK256 SWAP1 DUP2 ADD SWAP3 DUP3 ISZERO PUSH2 0x1292 JUMPI SWAP2 PUSH1 0x20 MUL DUP3 ADD JUMPDEST DUP3 DUP2 GT ISZERO PUSH2 0x1291 JUMPI DUP3 MLOAD DUP3 SWAP1 DUP2 PUSH2 0x1281 SWAP2 SWAP1 PUSH2 0x2134 JUMP JUMPDEST POP SWAP2 PUSH1 0x20 ADD SWAP2 SWAP1 PUSH1 0x1 ADD SWAP1 PUSH2 0x126A JUMP JUMPDEST JUMPDEST POP SWAP1 POP PUSH2 0x129F SWAP2 SWAP1 PUSH2 0x1331 JUMP JUMPDEST POP SWAP1 JUMP JUMPDEST PUSH1 0x40 MLOAD DUP1 PUSH1 0xA0 ADD PUSH1 0x40 MSTORE DUP1 PUSH1 0x60 DUP2 MSTORE PUSH1 0x20 ADD PUSH1 0x60 DUP2 MSTORE PUSH1 0x20 ADD PUSH1 0x60 DUP2 MSTORE PUSH1 0x20 ADD PUSH1 0x0 DUP2 MSTORE PUSH1 0x20 ADD PUSH1 0x60 DUP2 MSTORE POP SWAP1 JUMP JUMPDEST JUMPDEST DUP1 DUP3 GT ISZERO PUSH2 0x132D JUMPI PUSH1 0x0 DUP1 DUP3 ADD PUSH1 0x0 PUSH2 0x12EC SWAP2 SWAP1 PUSH2 0x1355 JUMP JUMPDEST PUSH1 0x1 DUP3 ADD PUSH1 0x0 PUSH2 0x12FC SWAP2 SWAP1 PUSH2 0x1355 JUMP JUMPDEST PUSH1 0x2 DUP3 ADD PUSH1 0x0 PUSH2 0x130C SWAP2 SWAP1 PUSH2 0x1355 JUMP JUMPDEST PUSH1 0x3 DUP3 ADD PUSH1 0x0 SWAP1 SSTORE PUSH1 0x4 DUP3 ADD PUSH1 0x0 PUSH2 0x1324 SWAP2 SWAP1 PUSH2 0x1229 JUMP JUMPDEST POP PUSH1 0x5 ADD PUSH2 0x12D3 JUMP JUMPDEST POP SWAP1 JUMP JUMPDEST JUMPDEST DUP1 DUP3 GT ISZERO PUSH2 0x1351 JUMPI PUSH1 0x0 DUP2 DUP2 PUSH2 0x1348 SWAP2 SWAP1 PUSH2 0x1355 JUMP JUMPDEST POP PUSH1 0x1 ADD PUSH2 0x1332 JUMP JUMPDEST POP SWAP1 JUMP JUMPDEST POP DUP1 SLOAD PUSH2 0x1361 SWAP1 PUSH2 0x1F57 JUMP JUMPDEST PUSH1 0x0 DUP3 SSTORE DUP1 PUSH1 0x1F LT PUSH2 0x1373 JUMPI POP PUSH2 0x1392 JUMP JUMPDEST PUSH1 0x1F ADD PUSH1 0x20 SWAP1 DIV SWAP1 PUSH1 0x0 MSTORE PUSH1 0x20 PUSH1 0x0 KECCAK256 SWAP1 DUP2 ADD SWAP1 PUSH2 0x1391 SWAP2 SWAP1 PUSH2 0x1395 JUMP JUMPDEST JUMPDEST POP JUMP JUMPDEST JUMPDEST DUP1 DUP3 GT ISZERO PUSH2 0x13AE JUMPI PUSH1 0x0 DUP2 PUSH1 0x0 SWAP1 SSTORE POP PUSH1 0x1 ADD PUSH2 0x1396 JUMP JUMPDEST POP SWAP1 JUMP JUMPDEST PUSH1 0x0 PUSH1 0x40 MLOAD SWAP1 POP SWAP1 JUMP JUMPDEST PUSH1 0x0 DUP1 REVERT JUMPDEST PUSH1 0x0 DUP1 REVERT JUMPDEST PUSH1 0x0 DUP1 REVERT JUMPDEST PUSH1 0x0 PUSH1 0x1F NOT PUSH1 0x1F DUP4 ADD AND SWAP1 POP SWAP2 SWAP1 POP JUMP JUMPDEST PUSH32 0x4E487B7100000000000000000000000000000000000000000000000000000000 PUSH1 0x0 MSTORE PUSH1 0x41 PUSH1 0x4 MSTORE PUSH1 0x24 PUSH1 0x0 REVERT JUMPDEST PUSH2 0x1414 DUP3 PUSH2 0x13CB JUMP JUMPDEST DUP2 ADD DUP2 DUP2 LT PUSH8 0xFFFFFFFFFFFFFFFF DUP3 GT OR ISZERO PUSH2 0x1433 JUMPI PUSH2 0x1432 PUSH2 0x13DC JUMP JUMPDEST JUMPDEST DUP1 PUSH1 0x40 MSTORE POP POP POP JUMP JUMPDEST PUSH1 0x0 PUSH2 0x1446 PUSH2 0x13B2 JUMP JUMPDEST SWAP1 POP PUSH2 0x1452 DUP3 DUP3 PUSH2 0x140B JUMP JUMPDEST SWAP2 SWAP1 POP JUMP JUMPDEST PUSH1 0x0 PUSH8 0xFFFFFFFFFFFFFFFF DUP3 GT ISZERO PUSH2 0x1472 JUMPI PUSH2 0x1471 PUSH2 0x13DC JUMP JUMPDEST JUMPDEST PUSH1 0x20 DUP3 MUL SWAP1 POP PUSH1 0x20 DUP2 ADD SWAP1 POP SWAP2 SWAP1 POP JUMP JUMPDEST PUSH1 0x0 DUP1 REVERT JUMPDEST PUSH1 0x0 DUP1 REVERT JUMPDEST PUSH1 0x0 PUSH8 0xFFFFFFFFFFFFFFFF DUP3 GT ISZERO PUSH2 0x14A8 JUMPI PUSH2 0x14A7 PUSH2 0x13DC JUMP JUMPDEST JUMPDEST PUSH2 0x14B1 DUP3 PUSH2 0x13CB JUMP JUMPDEST SWAP1 POP PUSH1 0x20 DUP2 ADD SWAP1 POP SWAP2 SWAP1 POP JUMP JUMPDEST DUP3 DUP2 DUP4 CALLDATACOPY PUSH1 0x0 DUP4 DUP4 ADD MSTORE POP POP POP JUMP JUMPDEST PUSH1 0x0 PUSH2 0x14E0 PUSH2 0x14DB DUP5 PUSH2 0x148D JUMP JUMPDEST PUSH2 0x143C JUMP JUMPDEST SWAP1 POP DUP3 DUP2 MSTORE PUSH1 0x20 DUP2 ADD DUP5 DUP5 DUP5 ADD GT ISZERO PUSH2 0x14FC JUMPI PUSH2 0x14FB PUSH2 0x1488 JUMP JUMPDEST JUMPDEST PUSH2 0x1507 DUP5 DUP3 DUP6 PUSH2 0x14BE JUMP JUMPDEST POP SWAP4 SWAP3 POP POP POP JUMP JUMPDEST PUSH1 0x0 DUP3 PUSH1 0x1F DUP4 ADD SLT PUSH2 0x1524 JUMPI PUSH2 0x1523 PUSH2 0x13C6 JUMP JUMPDEST JUMPDEST DUP2 CALLDATALOAD PUSH2 0x1534 DUP5 DUP3 PUSH1 0x20 DUP7 ADD PUSH2 0x14CD JUMP JUMPDEST SWAP2 POP POP SWAP3 SWAP2 POP POP JUMP JUMPDEST PUSH1 0x0 PUSH2 0x1550 PUSH2 0x154B DUP5 PUSH2 0x1457 JUMP JUMPDEST PUSH2 0x143C JUMP JUMPDEST SWAP1 POP DUP1 DUP4 DUP3 MSTORE PUSH1 0x20 DUP3 ADD SWAP1 POP PUSH1 0x20 DUP5 MUL DUP4 ADD DUP6 DUP2 GT ISZERO PUSH2 0x1573 JUMPI PUSH2 0x1572 PUSH2 0x1483 JUMP JUMPDEST JUMPDEST DUP4 JUMPDEST DUP2 DUP2 LT ISZERO PUSH2 0x15BA JUMPI DUP1 CALLDATALOAD PUSH8 0xFFFFFFFFFFFFFFFF DUP2 GT ISZERO PUSH2 0x1598 JUMPI PUSH2 0x1597 PUSH2 0x13C6 JUMP JUMPDEST JUMPDEST DUP1 DUP7 ADD PUSH2 0x15A5 DUP10 DUP3 PUSH2 0x150F JUMP JUMPDEST DUP6 MSTORE PUSH1 0x20 DUP6 ADD SWAP5 POP POP POP PUSH1 0x20 DUP2 ADD SWAP1 POP PUSH2 0x1575 JUMP JUMPDEST POP POP POP SWAP4 SWAP3 POP POP POP JUMP JUMPDEST PUSH1 0x0 DUP3 PUSH1 0x1F DUP4 ADD SLT PUSH2 0x15D9 JUMPI PUSH2 0x15D8 PUSH2 0x13C6 JUMP JUMPDEST JUMPDEST DUP2 CALLDATALOAD PUSH2 0x15E9 DUP5 DUP3 PUSH1 0x20 DUP7 ADD PUSH2 0x153D JUMP JUMPDEST SWAP2 POP POP SWAP3 SWAP2 POP POP JUMP JUMPDEST PUSH1 0x0 PUSH8 0xFFFFFFFFFFFFFFFF DUP3 GT ISZERO PUSH2 0x160D JUMPI PUSH2 0x160C PUSH2 0x13DC JUMP JUMPDEST JUMPDEST PUSH1 0x20 DUP3 MUL SWAP1 POP PUSH1 0x20 DUP2 ADD SWAP1 POP SWAP2 SWAP1 POP JUMP JUMPDEST PUSH1 0x0 DUP2 SWAP1 POP SWAP2 SWAP1 POP JUMP JUMPDEST PUSH2 0x1631 DUP2 PUSH2 0x161E JUMP JUMPDEST DUP2 EQ PUSH2 0x163C JUMPI PUSH1 0x0 DUP1 REVERT JUMPDEST POP JUMP JUMPDEST PUSH1 0x0 DUP2 CALLDATALOAD SWAP1 POP PUSH2 0x164E DUP2 PUSH2 0x1628 JUMP JUMPDEST SWAP3 SWAP2 POP POP JUMP JUMPDEST PUSH1 0x0 PUSH2 0x1667 PUSH2 0x1662 DUP5 PUSH2 0x15F2 JUMP JUMPDEST PUSH2 0x143C JUMP JUMPDEST SWAP1 POP DUP1 DUP4 DUP3 MSTORE PUSH1 0x20 DUP3 ADD SWAP1 POP PUSH1 0x20 DUP5 MUL DUP4 ADD DUP6 DUP2 GT ISZERO PUSH2 0x168A JUMPI PUSH2 0x1689 PUSH2 0x1483 JUMP JUMPDEST JUMPDEST DUP4 JUMPDEST DUP2 DUP2 LT ISZERO PUSH2 0x16B3 JUMPI DUP1 PUSH2 0x169F DUP9 DUP3 PUSH2 0x163F JUMP JUMPDEST DUP5 MSTORE PUSH1 0x20 DUP5 ADD SWAP4 POP POP PUSH1 0x20 DUP2 ADD SWAP1 POP PUSH2 0x168C JUMP JUMPDEST POP POP POP SWAP4 SWAP3 POP POP POP JUMP JUMPDEST PUSH1 0x0 DUP3 PUSH1 0x1F DUP4 ADD SLT PUSH2 0x16D2 JUMPI PUSH2 0x16D1 PUSH2 0x13C6 JUMP JUMPDEST JUMPDEST DUP2 CALLDATALOAD PUSH2 0x16E2 DUP5 DUP3 PUSH1 0x20 DUP7 ADD PUSH2 0x1654 JUMP JUMPDEST SWAP2 POP POP SWAP3 SWAP2 POP POP JUMP JUMPDEST PUSH1 0x0 DUP1 PUSH1 0x0 PUSH1 0x60 DUP5 DUP7 SUB SLT ISZERO PUSH2 0x1704 JUMPI PUSH2 0x1703 PUSH2 0x13BC JUMP JUMPDEST JUMPDEST PUSH1 0x0 DUP5 ADD CALLDATALOAD PUSH8 0xFFFFFFFFFFFFFFFF DUP2 GT ISZERO PUSH2 0x1722 JUMPI PUSH2 0x1721 PUSH2 0x13C1 JUMP JUMPDEST JUMPDEST PUSH2 0x172E DUP7 DUP3 DUP8 ADD PUSH2 0x15C4 JUMP JUMPDEST SWAP4 POP POP PUSH1 0x20 DUP5 ADD CALLDATALOAD PUSH8 0xFFFFFFFFFFFFFFFF DUP2 GT ISZERO PUSH2 0x174F JUMPI PUSH2 0x174E PUSH2 0x13C1 JUMP JUMPDEST JUMPDEST PUSH2 0x175B DUP7 DUP3 DUP8 ADD PUSH2 0x16BD JUMP JUMPDEST SWAP3 POP POP PUSH1 0x40 DUP5 ADD CALLDATALOAD PUSH8 0xFFFFFFFFFFFFFFFF DUP2 GT ISZERO PUSH2 0x177C JUMPI PUSH2 0x177B PUSH2 0x13C1 JUMP JUMPDEST JUMPDEST PUSH2 0x1788 DUP7 DUP3 DUP8 ADD PUSH2 0x150F JUMP JUMPDEST SWAP2 POP POP SWAP3 POP SWAP3 POP SWAP3 JUMP JUMPDEST PUSH1 0x0 PUSH1 0x20 DUP3 DUP5 SUB SLT ISZERO PUSH2 0x17A8 JUMPI PUSH2 0x17A7 PUSH2 0x13BC JUMP JUMPDEST JUMPDEST PUSH1 0x0 DUP3 ADD CALLDATALOAD PUSH8 0xFFFFFFFFFFFFFFFF DUP2 GT ISZERO PUSH2 0x17C6 JUMPI PUSH2 0x17C5 PUSH2 0x13C1 JUMP JUMPDEST JUMPDEST PUSH2 0x17D2 DUP5 DUP3 DUP6 ADD PUSH2 0x150F JUMP JUMPDEST SWAP2 POP POP SWAP3 SWAP2 POP POP JUMP JUMPDEST PUSH1 0x0 DUP2 MLOAD SWAP1 POP SWAP2 SWAP1 POP JUMP JUMPDEST PUSH1 0x0 DUP3 DUP3 MSTORE PUSH1 0x20 DUP3 ADD SWAP1 POP SWAP3 SWAP2 POP POP JUMP JUMPDEST PUSH1 0x0 DUP2 SWAP1 POP PUSH1 0x20 DUP3 ADD SWAP1 POP SWAP2 SWAP1 POP JUMP JUMPDEST PUSH1 0x0 DUP2 MLOAD SWAP1 POP SWAP2 SWAP1 POP JUMP JUMPDEST PUSH1 0x0 DUP3 DUP3 MSTORE PUSH1 0x20 DUP3 ADD SWAP1 POP SWAP3 SWAP2 POP POP JUMP JUMPDEST PUSH1 0x0 JUMPDEST DUP4 DUP2 LT ISZERO PUSH2 0x1841 JUMPI DUP1 DUP3 ADD MLOAD DUP2 DUP5 ADD MSTORE PUSH1 0x20 DUP2 ADD SWAP1 POP PUSH2 0x1826 JUMP JUMPDEST PUSH1 0x0 DUP5 DUP5 ADD MSTORE POP POP POP POP JUMP JUMPDEST PUSH1 0x0 PUSH2 0x1858 DUP3 PUSH2 0x1807 JUMP JUMPDEST PUSH2 0x1862 DUP2 DUP6 PUSH2 0x1812 JUMP JUMPDEST SWAP4 POP PUSH2 0x1872 DUP2 DUP6 PUSH1 0x20 DUP7 ADD PUSH2 0x1823 JUMP JUMPDEST PUSH2 0x187B DUP2 PUSH2 0x13CB JUMP JUMPDEST DUP5 ADD SWAP2 POP POP SWAP3 SWAP2 POP POP JUMP JUMPDEST PUSH2 0x188F DUP2 PUSH2 0x161E JUMP JUMPDEST DUP3 MSTORE POP POP JUMP JUMPDEST PUSH1 0x0 DUP2 MLOAD SWAP1 POP SWAP2 SWAP1 POP JUMP JUMPDEST PUSH1 0x0 DUP3 DUP3 MSTORE PUSH1 0x20 DUP3 ADD SWAP1 POP SWAP3 SWAP2 POP POP JUMP JUMPDEST PUSH1 0x0 DUP2 SWAP1 POP PUSH1 0x20 DUP3 ADD SWAP1 POP SWAP2 SWAP1 POP JUMP JUMPDEST PUSH1 0x0 PUSH2 0x18CD DUP4 DUP4 PUSH2 0x184D JUMP JUMPDEST SWAP1 POP SWAP3 SWAP2 POP POP JUMP JUMPDEST PUSH1 0x0 PUSH1 0x20 DUP3 ADD SWAP1 POP SWAP2 SWAP1 POP JUMP JUMPDEST PUSH1 0x0 PUSH2 0x18ED DUP3 PUSH2 0x1895 JUMP JUMPDEST PUSH2 0x18F7 DUP2 DUP6 PUSH2 0x18A0 JUMP JUMPDEST SWAP4 POP DUP4 PUSH1 0x20 DUP3 MUL DUP6 ADD PUSH2 0x1909 DUP6 PUSH2 0x18B1 JUMP JUMPDEST DUP1 PUSH1 0x0 JUMPDEST DUP6 DUP2 LT ISZERO PUSH2 0x1945 JUMPI DUP5 DUP5 SUB DUP10 MSTORE DUP2 MLOAD PUSH2 0x1926 DUP6 DUP3 PUSH2 0x18C1 JUMP JUMPDEST SWAP5 POP PUSH2 0x1931 DUP4 PUSH2 0x18D5 JUMP JUMPDEST SWAP3 POP PUSH1 0x20 DUP11 ADD SWAP10 POP POP PUSH1 0x1 DUP2 ADD SWAP1 POP PUSH2 0x190D JUMP JUMPDEST POP DUP3 SWAP8 POP DUP8 SWAP6 POP POP POP POP POP POP SWAP3 SWAP2 POP POP JUMP JUMPDEST PUSH1 0x0 PUSH1 0xA0 DUP4 ADD PUSH1 0x0 DUP4 ADD MLOAD DUP5 DUP3 SUB PUSH1 0x0 DUP7 ADD MSTORE PUSH2 0x1974 DUP3 DUP3 PUSH2 0x184D JUMP JUMPDEST SWAP2 POP POP PUSH1 0x20 DUP4 ADD MLOAD DUP5 DUP3 SUB PUSH1 0x20 DUP7 ADD MSTORE PUSH2 0x198E DUP3 DUP3 PUSH2 0x184D JUMP JUMPDEST SWAP2 POP POP PUSH1 0x40 DUP4 ADD MLOAD DUP5 DUP3 SUB PUSH1 0x40 DUP7 ADD MSTORE PUSH2 0x19A8 DUP3 DUP3 PUSH2 0x184D JUMP JUMPDEST SWAP2 POP POP PUSH1 0x60 DUP4 ADD MLOAD PUSH2 0x19BD PUSH1 0x60 DUP7 ADD DUP3 PUSH2 0x1886 JUMP JUMPDEST POP PUSH1 0x80 DUP4 ADD MLOAD DUP5 DUP3 SUB PUSH1 0x80 DUP7 ADD MSTORE PUSH2 0x19D5 DUP3 DUP3 PUSH2 0x18E2 JUMP JUMPDEST SWAP2 POP POP DUP1 SWAP2 POP POP SWAP3 SWAP2 POP POP JUMP JUMPDEST PUSH1 0x0 PUSH2 0x19EE DUP4 DUP4 PUSH2 0x1957 JUMP JUMPDEST SWAP1 POP SWAP3 SWAP2 POP POP JUMP JUMPDEST PUSH1 0x0 PUSH1 0x20 DUP3 ADD SWAP1 POP SWAP2 SWAP1 POP JUMP JUMPDEST PUSH1 0x0 PUSH2 0x1A0E DUP3 PUSH2 0x17DB JUMP JUMPDEST PUSH2 0x1A18 DUP2 DUP6 PUSH2 0x17E6 JUMP JUMPDEST SWAP4 POP DUP4 PUSH1 0x20 DUP3 MUL DUP6 ADD PUSH2 0x1A2A DUP6 PUSH2 0x17F7 JUMP JUMPDEST DUP1 PUSH1 0x0 JUMPDEST DUP6 DUP2 LT ISZERO PUSH2 0x1A66 JUMPI DUP5 DUP5 SUB DUP10 MSTORE DUP2 MLOAD PUSH2 0x1A47 DUP6 DUP3 PUSH2 0x19E2 JUMP JUMPDEST SWAP5 POP PUSH2 0x1A52 DUP4 PUSH2 0x19F6 JUMP JUMPDEST SWAP3 POP PUSH1 0x20 DUP11 ADD SWAP10 POP POP PUSH1 0x1 DUP2 ADD SWAP1 POP PUSH2 0x1A2E JUMP JUMPDEST POP DUP3 SWAP8 POP DUP8 SWAP6 POP POP POP POP POP POP SWAP3 SWAP2 POP POP JUMP JUMPDEST PUSH1 0x0 PUSH1 0x20 DUP3 ADD SWAP1 POP DUP2 DUP2 SUB PUSH1 0x0 DUP4 ADD MSTORE PUSH2 0x1A92 DUP2 DUP5 PUSH2 0x1A03 JUMP JUMPDEST SWAP1 POP SWAP3 SWAP2 POP POP JUMP JUMPDEST PUSH1 0x0 DUP2 ISZERO ISZERO SWAP1 POP SWAP2 SWAP1 POP JUMP JUMPDEST PUSH2 0x1AAF DUP2 PUSH2 0x1A9A JUMP JUMPDEST DUP3 MSTORE POP POP JUMP JUMPDEST PUSH1 0x0 PUSH1 0x20 DUP3 ADD SWAP1 POP PUSH2 0x1ACA PUSH1 0x0 DUP4 ADD DUP5 PUSH2 0x1AA6 JUMP JUMPDEST SWAP3 SWAP2 POP POP JUMP JUMPDEST PUSH1 0x0 PUSH8 0xFFFFFFFFFFFFFFFF DUP3 GT ISZERO PUSH2 0x1AEB JUMPI PUSH2 0x1AEA PUSH2 0x13DC JUMP JUMPDEST JUMPDEST PUSH1 0x20 DUP3 MUL SWAP1 POP PUSH1 0x20 DUP2 ADD SWAP1 POP SWAP2 SWAP1 POP JUMP JUMPDEST PUSH1 0x0 PUSH2 0x1B0F PUSH2 0x1B0A DUP5 PUSH2 0x1AD0 JUMP JUMPDEST PUSH2 0x143C JUMP JUMPDEST SWAP1 POP DUP1 DUP4 DUP3 MSTORE PUSH1 0x20 DUP3 ADD SWAP1 POP PUSH1 0x20 DUP5 MUL DUP4 ADD DUP6 DUP2 GT ISZERO PUSH2 0x1B32 JUMPI PUSH2 0x1B31 PUSH2 0x1483 JUMP JUMPDEST JUMPDEST DUP4 JUMPDEST DUP2 DUP2 LT ISZERO PUSH2 0x1B79 JUMPI DUP1 CALLDATALOAD PUSH8 0xFFFFFFFFFFFFFFFF DUP2 GT ISZERO PUSH2 0x1B57 JUMPI PUSH2 0x1B56 PUSH2 0x13C6 JUMP JUMPDEST JUMPDEST DUP1 DUP7 ADD PUSH2 0x1B64 DUP10 DUP3 PUSH2 0x15C4 JUMP JUMPDEST DUP6 MSTORE PUSH1 0x20 DUP6 ADD SWAP5 POP POP POP PUSH1 0x20 DUP2 ADD SWAP1 POP PUSH2 0x1B34 JUMP JUMPDEST POP POP POP SWAP4 SWAP3 POP POP POP JUMP JUMPDEST PUSH1 0x0 DUP3 PUSH1 0x1F DUP4 ADD SLT PUSH2 0x1B98 JUMPI PUSH2 0x1B97 PUSH2 0x13C6 JUMP JUMPDEST JUMPDEST DUP2 CALLDATALOAD PUSH2 0x1BA8 DUP5 DUP3 PUSH1 0x20 DUP7 ADD PUSH2 0x1AFC JUMP JUMPDEST SWAP2 POP POP SWAP3 SWAP2 POP POP JUMP JUMPDEST PUSH1 0x0 DUP1 PUSH1 0x0 PUSH1 0x60 DUP5 DUP7 SUB SLT ISZERO PUSH2 0x1BCA JUMPI PUSH2 0x1BC9 PUSH2 0x13BC JUMP JUMPDEST JUMPDEST PUSH1 0x0 DUP5 ADD CALLDATALOAD PUSH8 0xFFFFFFFFFFFFFFFF DUP2 GT ISZERO PUSH2 0x1BE8 JUMPI PUSH2 0x1BE7 PUSH2 0x13C1 JUMP JUMPDEST JUMPDEST PUSH2 0x1BF4 DUP7 DUP3 DUP8 ADD PUSH2 0x15C4 JUMP JUMPDEST SWAP4 POP POP PUSH1 0x20 DUP5 ADD CALLDATALOAD PUSH8 0xFFFFFFFFFFFFFFFF DUP2 GT ISZERO PUSH2 0x1C15 JUMPI PUSH2 0x1C14 PUSH2 0x13C1 JUMP JUMPDEST JUMPDEST PUSH2 0x1C21 DUP7 DUP3 DUP8 ADD PUSH2 0x1B83 JUMP JUMPDEST SWAP3 POP POP PUSH1 0x40 DUP5 ADD CALLDATALOAD PUSH8 0xFFFFFFFFFFFFFFFF DUP2 GT ISZERO PUSH2 0x1C42 JUMPI PUSH2 0x1C41 PUSH2 0x13C1 JUMP JUMPDEST JUMPDEST PUSH2 0x1C4E DUP7 DUP3 DUP8 ADD PUSH2 0x1B83 JUMP JUMPDEST SWAP2 POP POP SWAP3 POP SWAP3 POP SWAP3 JUMP JUMPDEST PUSH1 0x0 PUSH20 0xFFFFFFFFFFFFFFFFFFFFFFFFFFFFFFFFFFFFFFFF DUP3 AND SWAP1 POP SWAP2 SWAP1 POP JUMP JUMPDEST PUSH1 0x0 PUSH2 0x1C83 DUP3 PUSH2 0x1C58 JUMP JUMPDEST SWAP1 POP SWAP2 SWAP1 POP JUMP JUMPDEST PUSH2 0x1C93 DUP2 PUSH2 0x1C78 JUMP JUMPDEST DUP3 MSTORE POP POP JUMP JUMPDEST PUSH1 0x0 PUSH1 0x20 DUP3 ADD SWAP1 POP PUSH2 0x1CAE PUSH1 0x0 DUP4 ADD DUP5 PUSH2 0x1C8A JUMP JUMPDEST SWAP3 SWAP2 POP POP JUMP JUMPDEST PUSH1 0x0 DUP3 DUP3 MSTORE PUSH1 0x20 DUP3 ADD SWAP1 POP SWAP3 SWAP2 POP POP JUMP JUMPDEST PUSH32 0x566F74696E672063616E6E6F7420737461727420756E74696C2063616E646964 PUSH1 0x0 DUP3 ADD MSTORE PUSH32 0x61746573206172652066696E616C697A65642100000000000000000000000000 PUSH1 0x20 DUP3 ADD MSTORE POP JUMP JUMPDEST PUSH1 0x0 PUSH2 0x1D21 PUSH1 0x33 DUP4 PUSH2 0x1CB4 JUMP JUMPDEST SWAP2 POP PUSH2 0x1D2C DUP3 PUSH2 0x1CC5 JUMP JUMPDEST PUSH1 0x40 DUP3 ADD SWAP1 POP SWAP2 SWAP1 POP JUMP JUMPDEST PUSH1 0x0 PUSH1 0x20 DUP3 ADD SWAP1 POP DUP2 DUP2 SUB PUSH1 0x0 DUP4 ADD MSTORE PUSH2 0x1D50 DUP2 PUSH2 0x1D14 JUMP JUMPDEST SWAP1 POP SWAP2 SWAP1 POP JUMP JUMPDEST PUSH32 0x596F75206861766520616C726561647920766F74656421000000000000000000 PUSH1 0x0 DUP3 ADD MSTORE POP JUMP JUMPDEST PUSH1 0x0 PUSH2 0x1D8D PUSH1 0x17 DUP4 PUSH2 0x1CB4 JUMP JUMPDEST SWAP2 POP PUSH2 0x1D98 DUP3 PUSH2 0x1D57 JUMP JUMPDEST PUSH1 0x20 DUP3 ADD SWAP1 POP SWAP2 SWAP1 POP JUMP JUMPDEST PUSH1 0x0 PUSH1 0x20 DUP3 ADD SWAP1 POP DUP2 DUP2 SUB PUSH1 0x0 DUP4 ADD MSTORE PUSH2 0x1DBC DUP2 PUSH2 0x1D80 JUMP JUMPDEST SWAP1 POP SWAP2 SWAP1 POP JUMP JUMPDEST PUSH32 0x4D69736D61746368656420696E707574206C656E677468730000000000000000 PUSH1 0x0 DUP3 ADD MSTORE POP JUMP JUMPDEST PUSH1 0x0 PUSH2 0x1DF9 PUSH1 0x18 DUP4 PUSH2 0x1CB4 JUMP JUMPDEST SWAP2 POP PUSH2 0x1E04 DUP3 PUSH2 0x1DC3 JUMP JUMPDEST PUSH1 0x20 DUP3 ADD SWAP1 POP SWAP2 SWAP1 POP JUMP JUMPDEST PUSH1 0x0 PUSH1 0x20 DUP3 ADD SWAP1 POP DUP2 DUP2 SUB PUSH1 0x0 DUP4 ADD MSTORE PUSH2 0x1E28 DUP2 PUSH2 0x1DEC JUMP JUMPDEST SWAP1 POP SWAP2 SWAP1 POP JUMP JUMPDEST PUSH32 0x4E487B7100000000000000000000000000000000000000000000000000000000 PUSH1 0x0 MSTORE PUSH1 0x32 PUSH1 0x4 MSTORE PUSH1 0x24 PUSH1 0x0 REVERT JUMPDEST PUSH1 0x0 DUP2 SWAP1 POP SWAP3 SWAP2 POP POP JUMP JUMPDEST PUSH1 0x0 PUSH2 0x1E74 DUP3 PUSH2 0x1807 JUMP JUMPDEST PUSH2 0x1E7E DUP2 DUP6 PUSH2 0x1E5E JUMP JUMPDEST SWAP4 POP PUSH2 0x1E8E DUP2 DUP6 PUSH1 0x20 DUP7 ADD PUSH2 0x1823 JUMP JUMPDEST DUP1 DUP5 ADD SWAP2 POP POP SWAP3 SWAP2 POP POP JUMP JUMPDEST PUSH1 0x0 PUSH2 0x1EA6 DUP3 DUP5 PUSH2 0x1E69 JUMP JUMPDEST SWAP2 POP DUP2 SWAP1 POP SWAP3 SWAP2 POP POP JUMP JUMPDEST PUSH32 0x4E487B7100000000000000000000000000000000000000000000000000000000 PUSH1 0x0 MSTORE PUSH1 0x11 PUSH1 0x4 MSTORE PUSH1 0x24 PUSH1 0x0 REVERT JUMPDEST PUSH1 0x0 PUSH2 0x1EEB DUP3 PUSH2 0x161E JUMP JUMPDEST SWAP2 POP PUSH32 0xFFFFFFFFFFFFFFFFFFFFFFFFFFFFFFFFFFFFFFFFFFFFFFFFFFFFFFFFFFFFFFFF DUP3 SUB PUSH2 0x1F1D JUMPI PUSH2 0x1F1C PUSH2 0x1EB1 JUMP JUMPDEST JUMPDEST PUSH1 0x1 DUP3 ADD SWAP1 POP SWAP2 SWAP1 POP JUMP JUMPDEST PUSH32 0x4E487B7100000000000000000000000000000000000000000000000000000000 PUSH1 0x0 MSTORE PUSH1 0x22 PUSH1 0x4 MSTORE PUSH1 0x24 PUSH1 0x0 REVERT JUMPDEST PUSH1 0x0 PUSH1 0x2 DUP3 DIV SWAP1 POP PUSH1 0x1 DUP3 AND DUP1 PUSH2 0x1F6F JUMPI PUSH1 0x7F DUP3 AND SWAP2 POP JUMPDEST PUSH1 0x20 DUP3 LT DUP2 SUB PUSH2 0x1F82 JUMPI PUSH2 0x1F81 PUSH2 0x1F28 JUMP JUMPDEST JUMPDEST POP SWAP2 SWAP1 POP JUMP JUMPDEST PUSH1 0x0 DUP2 SWAP1 POP DUP2 PUSH1 0x0 MSTORE PUSH1 0x20 PUSH1 0x0 KECCAK256 SWAP1 POP SWAP2 SWAP1 POP JUMP JUMPDEST PUSH1 0x0 PUSH1 0x20 PUSH1 0x1F DUP4 ADD DIV SWAP1 POP SWAP2 SWAP1 POP JUMP JUMPDEST PUSH1 0x0 DUP3 DUP3 SHL SWAP1 POP SWAP3 SWAP2 POP POP JUMP JUMPDEST PUSH1 0x0 PUSH1 0x8 DUP4 MUL PUSH2 0x1FEA PUSH32 0xFFFFFFFFFFFFFFFFFFFFFFFFFFFFFFFFFFFFFFFFFFFFFFFFFFFFFFFFFFFFFFFF DUP3 PUSH2 0x1FAD JUMP JUMPDEST PUSH2 0x1FF4 DUP7 DUP4 PUSH2 0x1FAD JUMP JUMPDEST SWAP6 POP DUP1 NOT DUP5 AND SWAP4 POP DUP1 DUP7 AND DUP5 OR SWAP3 POP POP POP SWAP4 SWAP3 POP POP POP JUMP JUMPDEST PUSH1 0x0 DUP2 SWAP1 POP SWAP2 SWAP1 POP JUMP JUMPDEST PUSH1 0x0 PUSH2 0x2031 PUSH2 0x202C PUSH2 0x2027 DUP5 PUSH2 0x161E JUMP JUMPDEST PUSH2 0x200C JUMP JUMPDEST PUSH2 0x161E JUMP JUMPDEST SWAP1 POP SWAP2 SWAP1 POP JUMP JUMPDEST PUSH1 0x0 DUP2 SWAP1 POP SWAP2 SWAP1 POP JUMP JUMPDEST PUSH2 0x204B DUP4 PUSH2 0x2016 JUMP JUMPDEST PUSH2 0x205F PUSH2 0x2057 DUP3 PUSH2 0x2038 JUMP JUMPDEST DUP5 DUP5 SLOAD PUSH2 0x1FBA JUMP JUMPDEST DUP3 SSTORE POP POP POP POP JUMP JUMPDEST PUSH1 0x0 SWAP1 JUMP JUMPDEST PUSH2 0x2074 PUSH2 0x2067 JUMP JUMPDEST PUSH2 0x207F DUP2 DUP5 DUP5 PUSH2 0x2042 JUMP JUMPDEST POP POP POP JUMP JUMPDEST JUMPDEST DUP2 DUP2 LT ISZERO PUSH2 0x20A3 JUMPI PUSH2 0x2098 PUSH1 0x0 DUP3 PUSH2 0x206C JUMP JUMPDEST PUSH1 0x1 DUP2 ADD SWAP1 POP PUSH2 0x2085 JUMP JUMPDEST POP POP JUMP JUMPDEST PUSH1 0x1F DUP3 GT ISZERO PUSH2 0x20E8 JUMPI PUSH2 0x20B9 DUP2 PUSH2 0x1F88 JUMP JUMPDEST PUSH2 0x20C2 DUP5 PUSH2 0x1F9D JUMP JUMPDEST DUP2 ADD PUSH1 0x20 DUP6 LT ISZERO PUSH2 0x20D1 JUMPI DUP2 SWAP1 POP JUMPDEST PUSH2 0x20E5 PUSH2 0x20DD DUP6 PUSH2 0x1F9D JUMP JUMPDEST DUP4 ADD DUP3 PUSH2 0x2084 JUMP JUMPDEST POP POP JUMPDEST POP POP POP JUMP JUMPDEST PUSH1 0x0 DUP3 DUP3 SHR SWAP1 POP SWAP3 SWAP2 POP POP JUMP JUMPDEST PUSH1 0x0 PUSH2 0x210B PUSH1 0x0 NOT DUP5 PUSH1 0x8 MUL PUSH2 0x20ED JUMP JUMPDEST NOT DUP1 DUP4 AND SWAP2 POP POP SWAP3 SWAP2 POP POP JUMP JUMPDEST PUSH1 0x0 PUSH2 0x2124 DUP4 DUP4 PUSH2 0x20FA JUMP JUMPDEST SWAP2 POP DUP3 PUSH1 0x2 MUL DUP3 OR SWAP1 POP SWAP3 SWAP2 POP POP JUMP JUMPDEST PUSH2 0x213D DUP3 PUSH2 0x1807 JUMP JUMPDEST PUSH8 0xFFFFFFFFFFFFFFFF DUP2 GT ISZERO PUSH2 0x2156 JUMPI PUSH2 0x2155 PUSH2 0x13DC JUMP JUMPDEST JUMPDEST PUSH2 0x2160 DUP3 SLOAD PUSH2 0x1F57 JUMP JUMPDEST PUSH2 0x216B DUP3 DUP3 DUP6 PUSH2 0x20A7 JUMP JUMPDEST PUSH1 0x0 PUSH1 0x20 SWAP1 POP PUSH1 0x1F DUP4 GT PUSH1 0x1 DUP2 EQ PUSH2 0x219E JUMPI PUSH1 0x0 DUP5 ISZERO PUSH2 0x218C JUMPI DUP3 DUP8 ADD MLOAD SWAP1 POP JUMPDEST PUSH2 0x2196 DUP6 DUP3 PUSH2 0x2118 JUMP JUMPDEST DUP7 SSTORE POP PUSH2 0x21FE JUMP JUMPDEST PUSH1 0x1F NOT DUP5 AND PUSH2 0x21AC DUP7 PUSH2 0x1F88 JUMP JUMPDEST PUSH1 0x0 JUMPDEST DUP3 DUP2 LT ISZERO PUSH2 0x21D4 JUMPI DUP5 DUP10 ADD MLOAD DUP3 SSTORE PUSH1 0x1 DUP3 ADD SWAP2 POP PUSH1 0x20 DUP6 ADD SWAP5 POP PUSH1 0x20 DUP2 ADD SWAP1 POP PUSH2 0x21AF JUMP JUMPDEST DUP7 DUP4 LT ISZERO PUSH2 0x21F1 JUMPI DUP5 DUP10 ADD MLOAD PUSH2 0x21ED PUSH1 0x1F DUP10 AND DUP3 PUSH2 0x20FA JUMP JUMPDEST DUP4 SSTORE POP JUMPDEST PUSH1 0x1 PUSH1 0x2 DUP9 MUL ADD DUP9 SSTORE POP POP POP JUMPDEST POP POP POP POP POP POP JUMP JUMPDEST PUSH1 0x0 PUSH2 0x2211 DUP3 PUSH2 0x1807 JUMP JUMPDEST PUSH2 0x221B DUP2 DUP6 PUSH2 0x1CB4 JUMP JUMPDEST SWAP4 POP PUSH2 0x222B DUP2 DUP6 PUSH1 0x20 DUP7 ADD PUSH2 0x1823 JUMP JUMPDEST PUSH2 0x2234 DUP2 PUSH2 0x13CB JUMP JUMPDEST DUP5 ADD SWAP2 POP POP SWAP3 SWAP2 POP POP JUMP JUMPDEST PUSH1 0x0 DUP2 SLOAD PUSH2 0x224C DUP2 PUSH2 0x1F57 JUMP JUMPDEST PUSH2 0x2256 DUP2 DUP7 PUSH2 0x1CB4 JUMP JUMPDEST SWAP5 POP PUSH1 0x1 DUP3 AND PUSH1 0x0 DUP2 EQ PUSH2 0x2271 JUMPI PUSH1 0x1 DUP2 EQ PUSH2 0x2287 JUMPI PUSH2 0x22BA JUMP JUMPDEST PUSH1 0xFF NOT DUP4 AND DUP7 MSTORE DUP2 ISZERO ISZERO PUSH1 0x20 MUL DUP7 ADD SWAP4 POP PUSH2 0x22BA JUMP JUMPDEST PUSH2 0x2290 DUP6 PUSH2 0x1F88 JUMP JUMPDEST PUSH1 0x0 JUMPDEST DUP4 DUP2 LT ISZERO PUSH2 0x22B2 JUMPI DUP2 SLOAD DUP2 DUP10 ADD MSTORE PUSH1 0x1 DUP3 ADD SWAP2 POP PUSH1 0x20 DUP2 ADD SWAP1 POP PUSH2 0x2293 JUMP JUMPDEST DUP1 DUP9 ADD SWAP6 POP POP POP JUMPDEST POP POP POP SWAP3 SWAP2 POP POP JUMP JUMPDEST PUSH1 0x0 PUSH1 0x60 DUP3 ADD SWAP1 POP DUP2 DUP2 SUB PUSH1 0x0 DUP4 ADD MSTORE PUSH2 0x22DD DUP2 DUP7 PUSH2 0x2206 JUMP JUMPDEST SWAP1 POP DUP2 DUP2 SUB PUSH1 0x20 DUP4 ADD MSTORE PUSH2 0x22F1 DUP2 DUP6 PUSH2 0x223F JUMP JUMPDEST SWAP1 POP DUP2 DUP2 SUB PUSH1 0x40 DUP4 ADD MSTORE PUSH2 0x2305 DUP2 DUP5 PUSH2 0x2206 JUMP JUMPDEST SWAP1 POP SWAP5 SWAP4 POP POP POP POP JUMP JUMPDEST PUSH32 0x4F6E6C792061646D696E2063616E20706572666F726D20746869732061637469 PUSH1 0x0 DUP3 ADD MSTORE PUSH32 0x6F6E000000000000000000000000000000000000000000000000000000000000 PUSH1 0x20 DUP3 ADD MSTORE POP JUMP JUMPDEST PUSH1 0x0 PUSH2 0x236B PUSH1 0x22 DUP4 PUSH2 0x1CB4 JUMP JUMPDEST SWAP2 POP PUSH2 0x2376 DUP3 PUSH2 0x230F JUMP JUMPDEST PUSH1 0x40 DUP3 ADD SWAP1 POP SWAP2 SWAP1 POP JUMP JUMPDEST PUSH1 0x0 PUSH1 0x20 DUP3 ADD SWAP1 POP DUP2 DUP2 SUB PUSH1 0x0 DUP4 ADD MSTORE PUSH2 0x239A DUP2 PUSH2 0x235E JUMP JUMPDEST SWAP1 POP SWAP2 SWAP1 POP JUMP JUMPDEST PUSH1 0x0 DUP2 SLOAD PUSH2 0x23AE DUP2 PUSH2 0x1F57 JUMP JUMPDEST PUSH2 0x23B8 DUP2 DUP7 PUSH2 0x1E5E JUMP JUMPDEST SWAP5 POP PUSH1 0x1 DUP3 AND PUSH1 0x0 DUP2 EQ PUSH2 0x23D3 JUMPI PUSH1 0x1 DUP2 EQ PUSH2 0x23E8 JUMPI PUSH2 0x241B JUMP JUMPDEST PUSH1 0xFF NOT DUP4 AND DUP7 MSTORE DUP2 ISZERO ISZERO DUP3 MUL DUP7 ADD SWAP4 POP PUSH2 0x241B JUMP JUMPDEST PUSH2 0x23F1 DUP6 PUSH2 0x1F88 JUMP JUMPDEST PUSH1 0x0 JUMPDEST DUP4 DUP2 LT ISZERO PUSH2 0x2413 JUMPI DUP2 SLOAD DUP2 DUP10 ADD MSTORE PUSH1 0x1 DUP3 ADD SWAP2 POP PUSH1 0x20 DUP2 ADD SWAP1 POP PUSH2 0x23F4 JUMP JUMPDEST DUP4 DUP9 ADD SWAP6 POP POP POP JUMPDEST POP POP POP SWAP3 SWAP2 POP POP JUMP JUMPDEST PUSH1 0x0 PUSH2 0x2430 DUP3 DUP5 PUSH2 0x23A1 JUMP JUMPDEST SWAP2 POP DUP2 SWAP1 POP SWAP3 SWAP2 POP POP JUMP JUMPDEST PUSH32 0x43616E646964617465732061726520616C72656164792066696E616C697A6564 PUSH1 0x0 DUP3 ADD MSTORE PUSH32 0x2100000000000000000000000000000000000000000000000000000000000000 PUSH1 0x20 DUP3 ADD MSTORE POP JUMP JUMPDEST PUSH1 0x0 PUSH2 0x2497 PUSH1 0x21 DUP4 PUSH2 0x1CB4 JUMP JUMPDEST SWAP2 POP PUSH2 0x24A2 DUP3 PUSH2 0x243B JUMP JUMPDEST PUSH1 0x40 DUP3 ADD SWAP1 POP SWAP2 SWAP1 POP JUMP JUMPDEST PUSH1 0x0 PUSH1 0x20 DUP3 ADD SWAP1 POP DUP2 DUP2 SUB PUSH1 0x0 DUP4 ADD MSTORE PUSH2 0x24C6 DUP2 PUSH2 0x248A JUMP JUMPDEST SWAP1 POP SWAP2 SWAP1 POP JUMP JUMPDEST PUSH1 0x0 PUSH2 0x24D8 DUP3 PUSH2 0x161E JUMP JUMPDEST SWAP2 POP PUSH2 0x24E3 DUP4 PUSH2 0x161E JUMP JUMPDEST SWAP3 POP DUP3 DUP3 ADD SWAP1 POP DUP1 DUP3 GT ISZERO PUSH2 0x24FB JUMPI PUSH2 0x24FA PUSH2 0x1EB1 JUMP JUMPDEST JUMPDEST SWAP3 SWAP2 POP POP JUMP INVALID LOG2 PUSH5 0x6970667358 0x22 SLT KECCAK256 0xCA 0xB8 0x21 SWAP12 STOP 0x23 MLOAD DUP1 DUP6 DUP5 MLOAD CREATE2 0xB6 0xCA 0xF7 PUSH20 0x23ECAAB71D07013CE828F5998ECF3E9D64736F6C PUSH4 0x43000815 STOP CALLER "},"methodIdentifiers":{"admin()":"f851a440","batchVote(string[],uint256[],string)":"4340bcaa","getCandidates(string)":"45534763","getVoteCounts()":"ffc97b20","isFinalized()":"8d4e4083","resetCandidates()":"7718d9f3","submitCandidates(string[],string[][],string[][])":"95dbea06"}}}}}