{"contracts/AdminCandidates.sol":{"AdminCandidates":{"abi":[{"inputs":[],"stateMutability":"nonpayable","type":"constructor"},{"anonymous":false,"inputs":[],"name":"CandidatesReset","type":"event"},{"anonymous":false,"inputs":[],"name":"CandidatesSubmitted","type":"event"},{"anonymous":false,"inputs":[{"indexed":false,"internalType":"string","name":"position","type":"string"},{"indexed":false,"internalType":"string","name":"name","type":"string"}],"name":"VoteSubmitted","type":"event"},{"inputs":[],"name":"admin","outputs":[{"internalType":"address","name":"","type":"address"}],"stateMutability":"view","type":"function"},{"inputs":[{"internalType":"string[]","name":"_positions","type":"string[]"},{"internalType":"uint256[]","name":"_indices","type":"uint256[]"}],"name":"batchVote","outputs":[],"stateMutability":"nonpayable","type":"function"},{"inputs":[{"internalType":"string","name":"_position","type":"string"}],"name":"getCandidates","outputs":[{"components":[{"internalType":"string","name":"name","type":"string"},{"internalType":"string","name":"party","type":"string"},{"internalType":"string","name":"position","type":"string"},{"internalType":"uint256","name":"votes","type":"uint256"}],"internalType":"struct AdminCandidates.Candidate[]","name":"","type":"tuple[]"}],"stateMutability":"view","type":"function"},{"inputs":[],"name":"getVoteCounts","outputs":[{"components":[{"internalType":"string","name":"name","type":"string"},{"internalType":"string","name":"party","type":"string"},{"internalType":"string","name":"position","type":"string"},{"internalType":"uint256","name":"votes","type":"uint256"}],"internalType":"struct AdminCandidates.Candidate[]","name":"","type":"tuple[]"}],"stateMutability":"view","type":"function"},{"inputs":[],"name":"isFinalized","outputs":[{"internalType":"bool","name":"","type":"bool"}],"stateMutability":"view","type":"function"},{"inputs":[],"name":"resetCandidates","outputs":[],"stateMutability":"nonpayable","type":"function"},{"inputs":[{"internalType":"string[]","name":"_positions","type":"string[]"},{"internalType":"string[][]","name":"_names","type":"string[][]"},{"internalType":"string[][]","name":"_parties","type":"string[][]"}],"name":"submitCandidates","outputs":[],"stateMutability":"nonpayable","type":"function"}],"evm":{"bytecode":{"linkReferences":{},"object":"60806040526000600260146101000a81548160ff02191690831515021790555034801561002b57600080fd5b5033600260006101000a81548173ffffffffffffffffffffffffffffffffffffffff021916908373ffffffffffffffffffffffffffffffffffffffff1602179055506120388061007c6000396000f3fe608060405234801561001057600080fd5b506004361061007d5760003560e01c80638d4e40831161005b5780638d4e4083146100d857806395dbea06146100f6578063f851a44014610112578063ffc97b20146101305761007d565b8063455347631461008257806351094c53146100b25780637718d9f3146100ce575b600080fd5b61009c60048036038101906100979190611148565b61014e565b6040516100a99190611371565b60405180910390f35b6100cc60048036038101906100c7919061143f565b61038e565b005b6100d66105bc565b005b6100e061070c565b6040516100ed91906114db565b60405180910390f35b610110600480360381019061010b919061154c565b61071f565b005b61011a610c14565b6040516101279190611641565b60405180910390f35b610138610c3a565b6040516101459190611371565b60405180910390f35b60606000838360405161016292919061169b565b9081526020016040518091039020805480602002602001604051908101604052809291908181526020016000905b8282101561038257838290600052602060002090600402016040518060800160405290816000820180546101c3906116e3565b80601f01602080910402602001604051908101604052809291908181526020018280546101ef906116e3565b801561023c5780601f106102115761010080835404028352916020019161023c565b820191906000526020600020905b81548152906001019060200180831161021f57829003601f168201915b50505050508152602001600182018054610255906116e3565b80601f0160208091040260200160405190810160405280929190818152602001828054610281906116e3565b80156102ce5780601f106102a3576101008083540402835291602001916102ce565b820191906000526020600020905b8154815290600101906020018083116102b157829003601f168201915b505050505081526020016002820180546102e7906116e3565b80601f0160208091040260200160405190810160405280929190818152602001828054610313906116e3565b80156103605780601f1061033557610100808354040283529160200191610360565b820191906000526020600020905b81548152906001019060200180831161034357829003601f168201915b5050505050815260200160038201548152505081526020019060010190610190565b50505050905092915050565b600260149054906101000a900460ff166103dd576040517f08c379a00000000000000000000000000000000000000000000000000000000081526004016103d490611797565b60405180910390fd5b818190508484905014610425576040517f08c379a000000000000000000000000000000000000000000000000000000000815260040161041c90611803565b60405180910390fd5b600084849050905060005b818110156105b457600086868381811061044d5761044c611823565b5b905060200281019061045f9190611861565b60405161046d92919061169b565b908152602001604051809103902084848381811061048e5761048d611823565b5b90506020020135815481106104a6576104a5611823565b5b906000526020600020906004020160030160008154809291906104c8906118f3565b91905055507f85d62c20b605c73f13ec5d41dc1af86f969090592554aaf95b60b58adf0f105f86868381811061050157610500611823565b5b90506020028101906105139190611861565b600089898681811061052857610527611823565b5b905060200281019061053a9190611861565b60405161054892919061169b565b908152602001604051809103902087878681811061056957610568611823565b5b905060200201358154811061058157610580611823565b5b90600052602060002090600402016000016040516105a193929190611a01565b60405180910390a1806001019050610430565b505050505050565b600260009054906101000a900473ffffffffffffffffffffffffffffffffffffffff1673ffffffffffffffffffffffffffffffffffffffff163373ffffffffffffffffffffffffffffffffffffffff161461064c576040517f08c379a000000000000000000000000000000000000000000000000000000000815260040161064390611aac565b60405180910390fd5b6000600180549050905060005b818110156106b35760006001828154811061067757610676611823565b5b9060005260206000200160405161068e9190611b4f565b908152602001604051809103902060006106a89190610f9c565b806001019050610659565b50600160006106c29190610fc0565b6000600260146101000a81548160ff0219169083151502179055507f800bdaa40887ccfd790fdc79f47cf3acbb2a1ecf28b3bccb67e3719009c1bab260405160405180910390a150565b600260149054906101000a900460ff1681565b600260009054906101000a900473ffffffffffffffffffffffffffffffffffffffff1673ffffffffffffffffffffffffffffffffffffffff163373ffffffffffffffffffffffffffffffffffffffff16146107af576040517f08c379a00000000000000000000000000000000000000000000000000000000081526004016107a690611aac565b60405180910390fd5b600260149054906101000a900460ff16156107ff576040517f08c379a00000000000000000000000000000000000000000000000000000000081526004016107f690611bd8565b60405180910390fd5b6001600061080d9190610fc0565b600086869050905060005b81811015610bc35760008089898481811061083657610835611823565b5b90506020028101906108489190611861565b60405161085692919061169b565b908152602001604051809103902080549050036108cf57600188888381811061088257610881611823565b5b90506020028101906108949190611861565b909180600181540180825580915050600190039060005260206000200160009091929091929091929091925091826108cd929190611dc9565b505b60008888838181106108e4576108e3611823565b5b90506020028101906108f69190611861565b60405161090492919061169b565b9081526020016040518091039020600061091e9190610f9c565b600086868381811061093357610932611823565b5b90506020028101906109459190611e99565b9050905060005b81811015610bb65760008a8a8581811061096957610968611823565b5b905060200281019061097b9190611861565b60405161098992919061169b565b908152602001604051809103902060405180608001604052808a8a878181106109b5576109b4611823565b5b90506020028101906109c79190611e99565b858181106109d8576109d7611823565b5b90506020028101906109ea9190611861565b8080601f016020809104026020016040519081016040528093929190818152602001838380828437600081840152601f19601f820116905080830192505050505050508152602001888887818110610a4557610a44611823565b5b9050602002810190610a579190611e99565b85818110610a6857610a67611823565b5b9050602002810190610a7a9190611861565b8080601f016020809104026020016040519081016040528093929190818152602001838380828437600081840152601f19601f8201169050808301925050505050505081526020018c8c87818110610ad557610ad4611823565b5b9050602002810190610ae79190611861565b8080601f016020809104026020016040519081016040528093929190818152602001838380828437600081840152601f19601f820116905080830192505050505050508152602001600081525090806001815401808255809150506001900390600052602060002090600402016000909190919091506000820151816000019081610b729190611efc565b506020820151816001019081610b889190611efc565b506040820151816002019081610b9e9190611efc565b5060608201518160030155505080600101905061094c565b5081600101915050610818565b506001600260146101000a81548160ff0219169083151502179055507f86825b43264ca968e676c45c8e05cc56965ff5938ed49dcf636c61acb7070bd760405160405180910390a150505050505050565b600260009054906101000a900473ffffffffffffffffffffffffffffffffffffffff1681565b6060600080600180549050905060005b81811015610ca957600060018281548110610c6857610c67611823565b5b90600052602060002001604051610c7f9190611b4f565b90815260200160405180910390208054905083610c9c9190611fce565b9250806001019050610c4a565b5060008267ffffffffffffffff811115610cc657610cc5611c03565b5b604051908082528060200260200182016040528015610cff57816020015b610cec610fe1565b815260200190600190039081610ce45790505b5090506000805b83811015610f915760008060018381548110610d2557610d24611823565b5b90600052602060002001604051610d3c9190611b4f565b9081526020016040518091039020905060008180549050905060005b81811015610f8357828181548110610d7357610d72611823565b5b9060005260206000209060040201604051806080016040529081600082018054610d9c906116e3565b80601f0160208091040260200160405190810160405280929190818152602001828054610dc8906116e3565b8015610e155780601f10610dea57610100808354040283529160200191610e15565b820191906000526020600020905b815481529060010190602001808311610df857829003601f168201915b50505050508152602001600182018054610e2e906116e3565b80601f0160208091040260200160405190810160405280929190818152602001828054610e5a906116e3565b8015610ea75780601f10610e7c57610100808354040283529160200191610ea7565b820191906000526020600020905b815481529060010190602001808311610e8a57829003601f168201915b50505050508152602001600282018054610ec0906116e3565b80601f0160208091040260200160405190810160405280929190818152602001828054610eec906116e3565b8015610f395780601f10610f0e57610100808354040283529160200191610f39565b820191906000526020600020905b815481529060010190602001808311610f1c57829003601f168201915b50505050508152602001600382015481525050868681518110610f5f57610f5e611823565b5b60200260200101819052508480610f75906118f3565b955050806001019050610d58565b508260010192505050610d06565b508194505050505090565b5080546000825560040290600052602060002090810190610fbd9190611009565b50565b5080546000825590600052602060002090810190610fde9190611058565b50565b6040518060800160405280606081526020016060815260200160608152602001600081525090565b5b808211156110545760008082016000611023919061107c565b600182016000611033919061107c565b600282016000611043919061107c565b60038201600090555060040161100a565b5090565b5b80821115611078576000818161106f919061107c565b50600101611059565b5090565b508054611088906116e3565b6000825580601f1061109a57506110b9565b601f0160209004906000526020600020908101906110b891906110bc565b5b50565b5b808211156110d55760008160009055506001016110bd565b5090565b600080fd5b600080fd5b600080fd5b600080fd5b600080fd5b60008083601f840112611108576111076110e3565b5b8235905067ffffffffffffffff811115611125576111246110e8565b5b602083019150836001820283011115611141576111406110ed565b5b9250929050565b6000806020838503121561115f5761115e6110d9565b5b600083013567ffffffffffffffff81111561117d5761117c6110de565b5b611189858286016110f2565b92509250509250929050565b600081519050919050565b600082825260208201905092915050565b6000819050602082019050919050565b600081519050919050565b600082825260208201905092915050565b60005b838110156111fb5780820151818401526020810190506111e0565b60008484015250505050565b6000601f19601f8301169050919050565b6000611223826111c1565b61122d81856111cc565b935061123d8185602086016111dd565b61124681611207565b840191505092915050565b6000819050919050565b61126481611251565b82525050565b600060808301600083015184820360008601526112878282611218565b915050602083015184820360208601526112a18282611218565b915050604083015184820360408601526112bb8282611218565b91505060608301516112d0606086018261125b565b508091505092915050565b60006112e7838361126a565b905092915050565b6000602082019050919050565b600061130782611195565b61131181856111a0565b935083602082028501611323856111b1565b8060005b8581101561135f578484038952815161134085826112db565b945061134b836112ef565b925060208a01995050600181019050611327565b50829750879550505050505092915050565b6000602082019050818103600083015261138b81846112fc565b905092915050565b60008083601f8401126113a9576113a86110e3565b5b8235905067ffffffffffffffff8111156113c6576113c56110e8565b5b6020830191508360208202830111156113e2576113e16110ed565b5b9250929050565b60008083601f8401126113ff576113fe6110e3565b5b8235905067ffffffffffffffff81111561141c5761141b6110e8565b5b602083019150836020820283011115611438576114376110ed565b5b9250929050565b60008060008060408587031215611459576114586110d9565b5b600085013567ffffffffffffffff811115611477576114766110de565b5b61148387828801611393565b9450945050602085013567ffffffffffffffff8111156114a6576114a56110de565b5b6114b2878288016113e9565b925092505092959194509250565b60008115159050919050565b6114d5816114c0565b82525050565b60006020820190506114f060008301846114cc565b92915050565b60008083601f84011261150c5761150b6110e3565b5b8235905067ffffffffffffffff811115611529576115286110e8565b5b602083019150836020820283011115611545576115446110ed565b5b9250929050565b60008060008060008060608789031215611569576115686110d9565b5b600087013567ffffffffffffffff811115611587576115866110de565b5b61159389828a01611393565b9650965050602087013567ffffffffffffffff8111156115b6576115b56110de565b5b6115c289828a016114f6565b9450945050604087013567ffffffffffffffff8111156115e5576115e46110de565b5b6115f189828a016114f6565b92509250509295509295509295565b600073ffffffffffffffffffffffffffffffffffffffff82169050919050565b600061162b82611600565b9050919050565b61163b81611620565b82525050565b60006020820190506116566000830184611632565b92915050565b600081905092915050565b82818337600083830152505050565b6000611682838561165c565b935061168f838584611667565b82840190509392505050565b60006116a8828486611676565b91508190509392505050565b7f4e487b7100000000000000000000000000000000000000000000000000000000600052602260045260246000fd5b600060028204905060018216806116fb57607f821691505b60208210810361170e5761170d6116b4565b5b50919050565b600082825260208201905092915050565b7f566f74696e672063616e6e6f7420737461727420756e74696c2063616e64696460008201527f61746573206172652066696e616c697a65642100000000000000000000000000602082015250565b6000611781603383611714565b915061178c82611725565b604082019050919050565b600060208201905081810360008301526117b081611774565b9050919050565b7f4d69736d61746368656420696e707574206c656e677468730000000000000000600082015250565b60006117ed601883611714565b91506117f8826117b7565b602082019050919050565b6000602082019050818103600083015261181c816117e0565b9050919050565b7f4e487b7100000000000000000000000000000000000000000000000000000000600052603260045260246000fd5b600080fd5b600080fd5b600080fd5b6000808335600160200384360303811261187e5761187d611852565b5b80840192508235915067ffffffffffffffff8211156118a05761189f611857565b5b6020830192506001820236038313156118bc576118bb61185c565b5b509250929050565b7f4e487b7100000000000000000000000000000000000000000000000000000000600052601160045260246000fd5b60006118fe82611251565b91507fffffffffffffffffffffffffffffffffffffffffffffffffffffffffffffffff82036119305761192f6118c4565b5b600182019050919050565b60006119478385611714565b9350611954838584611667565b61195d83611207565b840190509392505050565b60008190508160005260206000209050919050565b6000815461198a816116e3565b6119948186611714565b945060018216600081146119af57600181146119c5576119f8565b60ff1983168652811515602002860193506119f8565b6119ce85611968565b60005b838110156119f0578154818901526001820191506020810190506119d1565b808801955050505b50505092915050565b60006040820190508181036000830152611a1c81858761193b565b90508181036020830152611a30818461197d565b9050949350505050565b7f4f6e6c792061646d696e2063616e20706572666f726d2074686973206163746960008201527f6f6e000000000000000000000000000000000000000000000000000000000000602082015250565b6000611a96602283611714565b9150611aa182611a3a565b604082019050919050565b60006020820190508181036000830152611ac581611a89565b9050919050565b60008154611ad9816116e3565b611ae3818661165c565b94506001821660008114611afe5760018114611b1357611b46565b60ff1983168652811515820286019350611b46565b611b1c85611968565b60005b83811015611b3e57815481890152600182019150602081019050611b1f565b838801955050505b50505092915050565b6000611b5b8284611acc565b915081905092915050565b7f43616e646964617465732061726520616c72656164792066696e616c697a656460008201527f2100000000000000000000000000000000000000000000000000000000000000602082015250565b6000611bc2602183611714565b9150611bcd82611b66565b604082019050919050565b60006020820190508181036000830152611bf181611bb5565b9050919050565b600082905092915050565b7f4e487b7100000000000000000000000000000000000000000000000000000000600052604160045260246000fd5b60006020601f8301049050919050565b600082821b905092915050565b600060088302611c7f7fffffffffffffffffffffffffffffffffffffffffffffffffffffffffffffffff82611c42565b611c898683611c42565b95508019841693508086168417925050509392505050565b6000819050919050565b6000611cc6611cc1611cbc84611251565b611ca1565b611251565b9050919050565b6000819050919050565b611ce083611cab565b611cf4611cec82611ccd565b848454611c4f565b825550505050565b600090565b611d09611cfc565b611d14818484611cd7565b505050565b5b81811015611d3857611d2d600082611d01565b600181019050611d1a565b5050565b601f821115611d7d57611d4e81611968565b611d5784611c32565b81016020851015611d66578190505b611d7a611d7285611c32565b830182611d19565b50505b505050565b600082821c905092915050565b6000611da060001984600802611d82565b1980831691505092915050565b6000611db98383611d8f565b9150826002028217905092915050565b611dd38383611bf8565b67ffffffffffffffff811115611dec57611deb611c03565b5b611df682546116e3565b611e01828285611d3c565b6000601f831160018114611e305760008415611e1e578287013590505b611e288582611dad565b865550611e90565b601f198416611e3e86611968565b60005b82811015611e6657848901358255600182019150602085019450602081019050611e41565b86831015611e835784890135611e7f601f891682611d8f565b8355505b6001600288020188555050505b50505050505050565b60008083356001602003843603038112611eb657611eb5611852565b5b80840192508235915067ffffffffffffffff821115611ed857611ed7611857565b5b602083019250602082023603831315611ef457611ef361185c565b5b509250929050565b611f05826111c1565b67ffffffffffffffff811115611f1e57611f1d611c03565b5b611f2882546116e3565b611f33828285611d3c565b600060209050601f831160018114611f665760008415611f54578287015190505b611f5e8582611dad565b865550611fc6565b601f198416611f7486611968565b60005b82811015611f9c57848901518255600182019150602085019450602081019050611f77565b86831015611fb95784890151611fb5601f891682611d8f565b8355505b6001600288020188555050505b505050505050565b6000611fd982611251565b9150611fe483611251565b9250828201905080821115611ffc57611ffb6118c4565b5b9291505056fea2646970667358221220fac2fe057dbbb2c2a7823362ab7d712183c4ac98df0743dd845a45dcbb30acb064736f6c63430008150033","opcodes":"PUSH1 0x80 PUSH1 0x40 MSTORE PUSH1 0x0 PUSH1 0x2 PUSH1 0x14 PUSH2 0x100 EXP DUP2 SLOAD DUP2 PUSH1 0xFF MUL NOT AND SWAP1 DUP4 ISZERO ISZERO MUL OR SWAP1 SSTORE POP CALLVALUE DUP1 ISZERO PUSH2 0x2B JUMPI PUSH1 0x0 DUP1 REVERT JUMPDEST POP CALLER PUSH1 0x2 PUSH1 0x0 PUSH2 0x100 EXP DUP2 SLOAD DUP2 PUSH20 0xFFFFFFFFFFFFFFFFFFFFFFFFFFFFFFFFFFFFFFFF MUL NOT AND SWAP1 DUP4 PUSH20 0xFFFFFFFFFFFFFFFFFFFFFFFFFFFFFFFFFFFFFFFF AND MUL OR SWAP1 SSTORE POP PUSH2 0x2038 DUP1 PUSH2 0x7C PUSH1 0x0 CODECOPY PUSH1 0x0 RETURN INVALID PUSH1 0x80 PUSH1 0x40 MSTORE CALLVALUE DUP1 ISZERO PUSH2 0x10 JUMPI PUSH1 0x0 DUP1 REVERT JUMPDEST POP PUSH1 0x4 CALLDATASIZE LT PUSH2 0x7D JUMPI PUSH1 0x0 CALLDATALOAD PUSH1 0xE0 SHR DUP1 PUSH4 0x8D4E4083 GT PUSH2 0x5B JUMPI DUP1 PUSH4 0x8D4E4083 EQ PUSH2 0xD8 JUMPI DUP1 PUSH4 0x95DBEA06 EQ PUSH2 0xF6 JUMPI DUP1 PUSH4 0xF851A440 EQ PUSH2 0x112 JUMPI DUP1 PUSH4 0xFFC97B20 EQ PUSH2 0x130 JUMPI PUSH2 0x7D JUMP JUMPDEST DUP1 PUSH4 0x45534763 EQ PUSH2 0x82 JUMPI DUP1 PUSH4 0x51094C53 EQ PUSH2 0xB2 JUMPI DUP1 PUSH4 0x7718D9F3 EQ PUSH2 0xCE JUMPI JUMPDEST PUSH1 0x0 DUP1 REVERT JUMPDEST PUSH2 0x9C PUSH1 0x4 DUP1 CALLDATASIZE SUB DUP2 ADD SWAP1 PUSH2 0x97 SWAP2 SWAP1 PUSH2 0x1148 JUMP JUMPDEST PUSH2 0x14E JUMP JUMPDEST PUSH1 0x40 MLOAD PUSH2 0xA9 SWAP2 SWAP1 PUSH2 0x1371 JUMP JUMPDEST PUSH1 0x40 MLOAD DUP1 SWAP2 SUB SWAP1 RETURN JUMPDEST PUSH2 0xCC PUSH1 0x4 DUP1 CALLDATASIZE SUB DUP2 ADD SWAP1 PUSH2 0xC7 SWAP2 SWAP1 PUSH2 0x143F JUMP JUMPDEST PUSH2 0x38E JUMP JUMPDEST STOP JUMPDEST PUSH2 0xD6 PUSH2 0x5BC JUMP JUMPDEST STOP JUMPDEST PUSH2 0xE0 PUSH2 0x70C JUMP JUMPDEST PUSH1 0x40 MLOAD PUSH2 0xED SWAP2 SWAP1 PUSH2 0x14DB JUMP JUMPDEST PUSH1 0x40 MLOAD DUP1 SWAP2 SUB SWAP1 RETURN JUMPDEST PUSH2 0x110 PUSH1 0x4 DUP1 CALLDATASIZE SUB DUP2 ADD SWAP1 PUSH2 0x10B SWAP2 SWAP1 PUSH2 0x154C JUMP JUMPDEST PUSH2 0x71F JUMP JUMPDEST STOP JUMPDEST PUSH2 0x11A PUSH2 0xC14 JUMP JUMPDEST PUSH1 0x40 MLOAD PUSH2 0x127 SWAP2 SWAP1 PUSH2 0x1641 JUMP JUMPDEST PUSH1 0x40 MLOAD DUP1 SWAP2 SUB SWAP1 RETURN JUMPDEST PUSH2 0x138 PUSH2 0xC3A JUMP JUMPDEST PUSH1 0x40 MLOAD PUSH2 0x145 SWAP2 SWAP1 PUSH2 0x1371 JUMP JUMPDEST PUSH1 0x40 MLOAD DUP1 SWAP2 SUB SWAP1 RETURN JUMPDEST PUSH1 0x60 PUSH1 0x0 DUP4 DUP4 PUSH1 0x40 MLOAD PUSH2 0x162 SWAP3 SWAP2 SWAP1 PUSH2 0x169B JUMP JUMPDEST SWAP1 DUP2 MSTORE PUSH1 0x20 ADD PUSH1 0x40 MLOAD DUP1 SWAP2 SUB SWAP1 KECCAK256 DUP1 SLOAD DUP1 PUSH1 0x20 MUL PUSH1 0x20 ADD PUSH1 0x40 MLOAD SWAP1 DUP2 ADD PUSH1 0x40 MSTORE DUP1 SWAP3 SWAP2 SWAP1 DUP2 DUP2 MSTORE PUSH1 0x20 ADD PUSH1 0x0 SWAP1 JUMPDEST DUP3 DUP3 LT ISZERO PUSH2 0x382 JUMPI DUP4 DUP3 SWAP1 PUSH1 0x0 MSTORE PUSH1 0x20 PUSH1 0x0 KECCAK256 SWAP1 PUSH1 0x4 MUL ADD PUSH1 0x40 MLOAD DUP1 PUSH1 0x80 ADD PUSH1 0x40 MSTORE SWAP1 DUP2 PUSH1 0x0 DUP3 ADD DUP1 SLOAD PUSH2 0x1C3 SWAP1 PUSH2 0x16E3 JUMP JUMPDEST DUP1 PUSH1 0x1F ADD PUSH1 0x20 DUP1 SWAP2 DIV MUL PUSH1 0x20 ADD PUSH1 0x40 MLOAD SWAP1 DUP2 ADD PUSH1 0x40 MSTORE DUP1 SWAP3 SWAP2 SWAP1 DUP2 DUP2 MSTORE PUSH1 0x20 ADD DUP3 DUP1 SLOAD PUSH2 0x1EF SWAP1 PUSH2 0x16E3 JUMP JUMPDEST DUP1 ISZERO PUSH2 0x23C JUMPI DUP1 PUSH1 0x1F LT PUSH2 0x211 JUMPI PUSH2 0x100 DUP1 DUP4 SLOAD DIV MUL DUP4 MSTORE SWAP2 PUSH1 0x20 ADD SWAP2 PUSH2 0x23C JUMP JUMPDEST DUP3 ADD SWAP2 SWAP1 PUSH1 0x0 MSTORE PUSH1 0x20 PUSH1 0x0 KECCAK256 SWAP1 JUMPDEST DUP2 SLOAD DUP2 MSTORE SWAP1 PUSH1 0x1 ADD SWAP1 PUSH1 0x20 ADD DUP1 DUP4 GT PUSH2 0x21F JUMPI DUP3 SWAP1 SUB PUSH1 0x1F AND DUP3 ADD SWAP2 JUMPDEST POP POP POP POP POP DUP2 MSTORE PUSH1 0x20 ADD PUSH1 0x1 DUP3 ADD DUP1 SLOAD PUSH2 0x255 SWAP1 PUSH2 0x16E3 JUMP JUMPDEST DUP1 PUSH1 0x1F ADD PUSH1 0x20 DUP1 SWAP2 DIV MUL PUSH1 0x20 ADD PUSH1 0x40 MLOAD SWAP1 DUP2 ADD PUSH1 0x40 MSTORE DUP1 SWAP3 SWAP2 SWAP1 DUP2 DUP2 MSTORE PUSH1 0x20 ADD DUP3 DUP1 SLOAD PUSH2 0x281 SWAP1 PUSH2 0x16E3 JUMP JUMPDEST DUP1 ISZERO PUSH2 0x2CE JUMPI DUP1 PUSH1 0x1F LT PUSH2 0x2A3 JUMPI PUSH2 0x100 DUP1 DUP4 SLOAD DIV MUL DUP4 MSTORE SWAP2 PUSH1 0x20 ADD SWAP2 PUSH2 0x2CE JUMP JUMPDEST DUP3 ADD SWAP2 SWAP1 PUSH1 0x0 MSTORE PUSH1 0x20 PUSH1 0x0 KECCAK256 SWAP1 JUMPDEST DUP2 SLOAD DUP2 MSTORE SWAP1 PUSH1 0x1 ADD SWAP1 PUSH1 0x20 ADD DUP1 DUP4 GT PUSH2 0x2B1 JUMPI DUP3 SWAP1 SUB PUSH1 0x1F AND DUP3 ADD SWAP2 JUMPDEST POP POP POP POP POP DUP2 MSTORE PUSH1 0x20 ADD PUSH1 0x2 DUP3 ADD DUP1 SLOAD PUSH2 0x2E7 SWAP1 PUSH2 0x16E3 JUMP JUMPDEST DUP1 PUSH1 0x1F ADD PUSH1 0x20 DUP1 SWAP2 DIV MUL PUSH1 0x20 ADD PUSH1 0x40 MLOAD SWAP1 DUP2 ADD PUSH1 0x40 MSTORE DUP1 SWAP3 SWAP2 SWAP1 DUP2 DUP2 MSTORE PUSH1 0x20 ADD DUP3 DUP1 SLOAD PUSH2 0x313 SWAP1 PUSH2 0x16E3 JUMP JUMPDEST DUP1 ISZERO PUSH2 0x360 JUMPI DUP1 PUSH1 0x1F LT PUSH2 0x335 JUMPI PUSH2 0x100 DUP1 DUP4 SLOAD DIV MUL DUP4 MSTORE SWAP2 PUSH1 0x20 ADD SWAP2 PUSH2 0x360 JUMP JUMPDEST DUP3 ADD SWAP2 SWAP1 PUSH1 0x0 MSTORE PUSH1 0x20 PUSH1 0x0 KECCAK256 SWAP1 JUMPDEST DUP2 SLOAD DUP2 MSTORE SWAP1 PUSH1 0x1 ADD SWAP1 PUSH1 0x20 ADD DUP1 DUP4 GT PUSH2 0x343 JUMPI DUP3 SWAP1 SUB PUSH1 0x1F AND DUP3 ADD SWAP2 JUMPDEST POP POP POP POP POP DUP2 MSTORE PUSH1 0x20 ADD PUSH1 0x3 DUP3 ADD SLOAD DUP2 MSTORE POP POP DUP2 MSTORE PUSH1 0x20 ADD SWAP1 PUSH1 0x1 ADD SWAP1 PUSH2 0x190 JUMP JUMPDEST POP POP POP POP SWAP1 POP SWAP3 SWAP2 POP POP JUMP JUMPDEST PUSH1 0x2 PUSH1 0x14 SWAP1 SLOAD SWAP1 PUSH2 0x100 EXP SWAP1 DIV PUSH1 0xFF AND PUSH2 0x3DD JUMPI PUSH1 0x40 MLOAD PUSH32 0x8C379A000000000000000000000000000000000000000000000000000000000 DUP2 MSTORE PUSH1 0x4 ADD PUSH2 0x3D4 SWAP1 PUSH2 0x1797 JUMP JUMPDEST PUSH1 0x40 MLOAD DUP1 SWAP2 SUB SWAP1 REVERT JUMPDEST DUP2 DUP2 SWAP1 POP DUP5 DUP5 SWAP1 POP EQ PUSH2 0x425 JUMPI PUSH1 0x40 MLOAD PUSH32 0x8C379A000000000000000000000000000000000000000000000000000000000 DUP2 MSTORE PUSH1 0x4 ADD PUSH2 0x41C SWAP1 PUSH2 0x1803 JUMP JUMPDEST PUSH1 0x40 MLOAD DUP1 SWAP2 SUB SWAP1 REVERT JUMPDEST PUSH1 0x0 DUP5 DUP5 SWAP1 POP SWAP1 POP PUSH1 0x0 JUMPDEST DUP2 DUP2 LT ISZERO PUSH2 0x5B4 JUMPI PUSH1 0x0 DUP7 DUP7 DUP4 DUP2 DUP2 LT PUSH2 0x44D JUMPI PUSH2 0x44C PUSH2 0x1823 JUMP JUMPDEST JUMPDEST SWAP1 POP PUSH1 0x20 MUL DUP2 ADD SWAP1 PUSH2 0x45F SWAP2 SWAP1 PUSH2 0x1861 JUMP JUMPDEST PUSH1 0x40 MLOAD PUSH2 0x46D SWAP3 SWAP2 SWAP1 PUSH2 0x169B JUMP JUMPDEST SWAP1 DUP2 MSTORE PUSH1 0x20 ADD PUSH1 0x40 MLOAD DUP1 SWAP2 SUB SWAP1 KECCAK256 DUP5 DUP5 DUP4 DUP2 DUP2 LT PUSH2 0x48E JUMPI PUSH2 0x48D PUSH2 0x1823 JUMP JUMPDEST JUMPDEST SWAP1 POP PUSH1 0x20 MUL ADD CALLDATALOAD DUP2 SLOAD DUP2 LT PUSH2 0x4A6 JUMPI PUSH2 0x4A5 PUSH2 0x1823 JUMP JUMPDEST JUMPDEST SWAP1 PUSH1 0x0 MSTORE PUSH1 0x20 PUSH1 0x0 KECCAK256 SWAP1 PUSH1 0x4 MUL ADD PUSH1 0x3 ADD PUSH1 0x0 DUP2 SLOAD DUP1 SWAP3 SWAP2 SWAP1 PUSH2 0x4C8 SWAP1 PUSH2 0x18F3 JUMP JUMPDEST SWAP2 SWAP1 POP SSTORE POP PUSH32 0x85D62C20B605C73F13EC5D41DC1AF86F969090592554AAF95B60B58ADF0F105F DUP7 DUP7 DUP4 DUP2 DUP2 LT PUSH2 0x501 JUMPI PUSH2 0x500 PUSH2 0x1823 JUMP JUMPDEST JUMPDEST SWAP1 POP PUSH1 0x20 MUL DUP2 ADD SWAP1 PUSH2 0x513 SWAP2 SWAP1 PUSH2 0x1861 JUMP JUMPDEST PUSH1 0x0 DUP10 DUP10 DUP7 DUP2 DUP2 LT PUSH2 0x528 JUMPI PUSH2 0x527 PUSH2 0x1823 JUMP JUMPDEST JUMPDEST SWAP1 POP PUSH1 0x20 MUL DUP2 ADD SWAP1 PUSH2 0x53A SWAP2 SWAP1 PUSH2 0x1861 JUMP JUMPDEST PUSH1 0x40 MLOAD PUSH2 0x548 SWAP3 SWAP2 SWAP1 PUSH2 0x169B JUMP JUMPDEST SWAP1 DUP2 MSTORE PUSH1 0x20 ADD PUSH1 0x40 MLOAD DUP1 SWAP2 SUB SWAP1 KECCAK256 DUP8 DUP8 DUP7 DUP2 DUP2 LT PUSH2 0x569 JUMPI PUSH2 0x568 PUSH2 0x1823 JUMP JUMPDEST JUMPDEST SWAP1 POP PUSH1 0x20 MUL ADD CALLDATALOAD DUP2 SLOAD DUP2 LT PUSH2 0x581 JUMPI PUSH2 0x580 PUSH2 0x1823 JUMP JUMPDEST JUMPDEST SWAP1 PUSH1 0x0 MSTORE PUSH1 0x20 PUSH1 0x0 KECCAK256 SWAP1 PUSH1 0x4 MUL ADD PUSH1 0x0 ADD PUSH1 0x40 MLOAD PUSH2 0x5A1 SWAP4 SWAP3 SWAP2 SWAP1 PUSH2 0x1A01 JUMP JUMPDEST PUSH1 0x40 MLOAD DUP1 SWAP2 SUB SWAP1 LOG1 DUP1 PUSH1 0x1 ADD SWAP1 POP PUSH2 0x430 JUMP JUMPDEST POP POP POP POP POP POP JUMP JUMPDEST PUSH1 0x2 PUSH1 0x0 SWAP1 SLOAD SWAP1 PUSH2 0x100 EXP SWAP1 DIV PUSH20 0xFFFFFFFFFFFFFFFFFFFFFFFFFFFFFFFFFFFFFFFF AND PUSH20 0xFFFFFFFFFFFFFFFFFFFFFFFFFFFFFFFFFFFFFFFF AND CALLER PUSH20 0xFFFFFFFFFFFFFFFFFFFFFFFFFFFFFFFFFFFFFFFF AND EQ PUSH2 0x64C JUMPI PUSH1 0x40 MLOAD PUSH32 0x8C379A000000000000000000000000000000000000000000000000000000000 DUP2 MSTORE PUSH1 0x4 ADD PUSH2 0x643 SWAP1 PUSH2 0x1AAC JUMP JUMPDEST PUSH1 0x40 MLOAD DUP1 SWAP2 SUB SWAP1 REVERT JUMPDEST PUSH1 0x0 PUSH1 0x1 DUP1 SLOAD SWAP1 POP SWAP1 POP PUSH1 0x0 JUMPDEST DUP2 DUP2 LT ISZERO PUSH2 0x6B3 JUMPI PUSH1 0x0 PUSH1 0x1 DUP3 DUP2 SLOAD DUP2 LT PUSH2 0x677 JUMPI PUSH2 0x676 PUSH2 0x1823 JUMP JUMPDEST JUMPDEST SWAP1 PUSH1 0x0 MSTORE PUSH1 0x20 PUSH1 0x0 KECCAK256 ADD PUSH1 0x40 MLOAD PUSH2 0x68E SWAP2 SWAP1 PUSH2 0x1B4F JUMP JUMPDEST SWAP1 DUP2 MSTORE PUSH1 0x20 ADD PUSH1 0x40 MLOAD DUP1 SWAP2 SUB SWAP1 KECCAK256 PUSH1 0x0 PUSH2 0x6A8 SWAP2 SWAP1 PUSH2 0xF9C JUMP JUMPDEST DUP1 PUSH1 0x1 ADD SWAP1 POP PUSH2 0x659 JUMP JUMPDEST POP PUSH1 0x1 PUSH1 0x0 PUSH2 0x6C2 SWAP2 SWAP1 PUSH2 0xFC0 JUMP JUMPDEST PUSH1 0x0 PUSH1 0x2 PUSH1 0x14 PUSH2 0x100 EXP DUP2 SLOAD DUP2 PUSH1 0xFF MUL NOT AND SWAP1 DUP4 ISZERO ISZERO MUL OR SWAP1 SSTORE POP PUSH32 0x800BDAA40887CCFD790FDC79F47CF3ACBB2A1ECF28B3BCCB67E3719009C1BAB2 PUSH1 0x40 MLOAD PUSH1 0x40 MLOAD DUP1 SWAP2 SUB SWAP1 LOG1 POP JUMP JUMPDEST PUSH1 0x2 PUSH1 0x14 SWAP1 SLOAD SWAP1 PUSH2 0x100 EXP SWAP1 DIV PUSH1 0xFF AND DUP2 JUMP JUMPDEST PUSH1 0x2 PUSH1 0x0 SWAP1 SLOAD SWAP1 PUSH2 0x100 EXP SWAP1 DIV PUSH20 0xFFFFFFFFFFFFFFFFFFFFFFFFFFFFFFFFFFFFFFFF AND PUSH20 0xFFFFFFFFFFFFFFFFFFFFFFFFFFFFFFFFFFFFFFFF AND CALLER PUSH20 0xFFFFFFFFFFFFFFFFFFFFFFFFFFFFFFFFFFFFFFFF AND EQ PUSH2 0x7AF JUMPI PUSH1 0x40 MLOAD PUSH32 0x8C379A000000000000000000000000000000000000000000000000000000000 DUP2 MSTORE PUSH1 0x4 ADD PUSH2 0x7A6 SWAP1 PUSH2 0x1AAC JUMP JUMPDEST PUSH1 0x40 MLOAD DUP1 SWAP2 SUB SWAP1 REVERT JUMPDEST PUSH1 0x2 PUSH1 0x14 SWAP1 SLOAD SWAP1 PUSH2 0x100 EXP SWAP1 DIV PUSH1 0xFF AND ISZERO PUSH2 0x7FF JUMPI PUSH1 0x40 MLOAD PUSH32 0x8C379A000000000000000000000000000000000000000000000000000000000 DUP2 MSTORE PUSH1 0x4 ADD PUSH2 0x7F6 SWAP1 PUSH2 0x1BD8 JUMP JUMPDEST PUSH1 0x40 MLOAD DUP1 SWAP2 SUB SWAP1 REVERT JUMPDEST PUSH1 0x1 PUSH1 0x0 PUSH2 0x80D SWAP2 SWAP1 PUSH2 0xFC0 JUMP JUMPDEST PUSH1 0x0 DUP7 DUP7 SWAP1 POP SWAP1 POP PUSH1 0x0 JUMPDEST DUP2 DUP2 LT ISZERO PUSH2 0xBC3 JUMPI PUSH1 0x0 DUP1 DUP10 DUP10 DUP5 DUP2 DUP2 LT PUSH2 0x836 JUMPI PUSH2 0x835 PUSH2 0x1823 JUMP JUMPDEST JUMPDEST SWAP1 POP PUSH1 0x20 MUL DUP2 ADD SWAP1 PUSH2 0x848 SWAP2 SWAP1 PUSH2 0x1861 JUMP JUMPDEST PUSH1 0x40 MLOAD PUSH2 0x856 SWAP3 SWAP2 SWAP1 PUSH2 0x169B JUMP JUMPDEST SWAP1 DUP2 MSTORE PUSH1 0x20 ADD PUSH1 0x40 MLOAD DUP1 SWAP2 SUB SWAP1 KECCAK256 DUP1 SLOAD SWAP1 POP SUB PUSH2 0x8CF JUMPI PUSH1 0x1 DUP9 DUP9 DUP4 DUP2 DUP2 LT PUSH2 0x882 JUMPI PUSH2 0x881 PUSH2 0x1823 JUMP JUMPDEST JUMPDEST SWAP1 POP PUSH1 0x20 MUL DUP2 ADD SWAP1 PUSH2 0x894 SWAP2 SWAP1 PUSH2 0x1861 JUMP JUMPDEST SWAP1 SWAP2 DUP1 PUSH1 0x1 DUP2 SLOAD ADD DUP1 DUP3 SSTORE DUP1 SWAP2 POP POP PUSH1 0x1 SWAP1 SUB SWAP1 PUSH1 0x0 MSTORE PUSH1 0x20 PUSH1 0x0 KECCAK256 ADD PUSH1 0x0 SWAP1 SWAP2 SWAP3 SWAP1 SWAP2 SWAP3 SWAP1 SWAP2 SWAP3 SWAP1 SWAP2 SWAP3 POP SWAP2 DUP3 PUSH2 0x8CD SWAP3 SWAP2 SWAP1 PUSH2 0x1DC9 JUMP JUMPDEST POP JUMPDEST PUSH1 0x0 DUP9 DUP9 DUP4 DUP2 DUP2 LT PUSH2 0x8E4 JUMPI PUSH2 0x8E3 PUSH2 0x1823 JUMP JUMPDEST JUMPDEST SWAP1 POP PUSH1 0x20 MUL DUP2 ADD SWAP1 PUSH2 0x8F6 SWAP2 SWAP1 PUSH2 0x1861 JUMP JUMPDEST PUSH1 0x40 MLOAD PUSH2 0x904 SWAP3 SWAP2 SWAP1 PUSH2 0x169B JUMP JUMPDEST SWAP1 DUP2 MSTORE PUSH1 0x20 ADD PUSH1 0x40 MLOAD DUP1 SWAP2 SUB SWAP1 KECCAK256 PUSH1 0x0 PUSH2 0x91E SWAP2 SWAP1 PUSH2 0xF9C JUMP JUMPDEST PUSH1 0x0 DUP7 DUP7 DUP4 DUP2 DUP2 LT PUSH2 0x933 JUMPI PUSH2 0x932 PUSH2 0x1823 JUMP JUMPDEST JUMPDEST SWAP1 POP PUSH1 0x20 MUL DUP2 ADD SWAP1 PUSH2 0x945 SWAP2 SWAP1 PUSH2 0x1E99 JUMP JUMPDEST SWAP1 POP SWAP1 POP PUSH1 0x0 JUMPDEST DUP2 DUP2 LT ISZERO PUSH2 0xBB6 JUMPI PUSH1 0x0 DUP11 DUP11 DUP6 DUP2 DUP2 LT PUSH2 0x969 JUMPI PUSH2 0x968 PUSH2 0x1823 JUMP JUMPDEST JUMPDEST SWAP1 POP PUSH1 0x20 MUL DUP2 ADD SWAP1 PUSH2 0x97B SWAP2 SWAP1 PUSH2 0x1861 JUMP JUMPDEST PUSH1 0x40 MLOAD PUSH2 0x989 SWAP3 SWAP2 SWAP1 PUSH2 0x169B JUMP JUMPDEST SWAP1 DUP2 MSTORE PUSH1 0x20 ADD PUSH1 0x40 MLOAD DUP1 SWAP2 SUB SWAP1 KECCAK256 PUSH1 0x40 MLOAD DUP1 PUSH1 0x80 ADD PUSH1 0x40 MSTORE DUP1 DUP11 DUP11 DUP8 DUP2 DUP2 LT PUSH2 0x9B5 JUMPI PUSH2 0x9B4 PUSH2 0x1823 JUMP JUMPDEST JUMPDEST SWAP1 POP PUSH1 0x20 MUL DUP2 ADD SWAP1 PUSH2 0x9C7 SWAP2 SWAP1 PUSH2 0x1E99 JUMP JUMPDEST DUP6 DUP2 DUP2 LT PUSH2 0x9D8 JUMPI PUSH2 0x9D7 PUSH2 0x1823 JUMP JUMPDEST JUMPDEST SWAP1 POP PUSH1 0x20 MUL DUP2 ADD SWAP1 PUSH2 0x9EA SWAP2 SWAP1 PUSH2 0x1861 JUMP JUMPDEST DUP1 DUP1 PUSH1 0x1F ADD PUSH1 0x20 DUP1 SWAP2 DIV MUL PUSH1 0x20 ADD PUSH1 0x40 MLOAD SWAP1 DUP2 ADD PUSH1 0x40 MSTORE DUP1 SWAP4 SWAP3 SWAP2 SWAP1 DUP2 DUP2 MSTORE PUSH1 0x20 ADD DUP4 DUP4 DUP1 DUP3 DUP5 CALLDATACOPY PUSH1 0x0 DUP2 DUP5 ADD MSTORE PUSH1 0x1F NOT PUSH1 0x1F DUP3 ADD AND SWAP1 POP DUP1 DUP4 ADD SWAP3 POP POP POP POP POP POP POP DUP2 MSTORE PUSH1 0x20 ADD DUP9 DUP9 DUP8 DUP2 DUP2 LT PUSH2 0xA45 JUMPI PUSH2 0xA44 PUSH2 0x1823 JUMP JUMPDEST JUMPDEST SWAP1 POP PUSH1 0x20 MUL DUP2 ADD SWAP1 PUSH2 0xA57 SWAP2 SWAP1 PUSH2 0x1E99 JUMP JUMPDEST DUP6 DUP2 DUP2 LT PUSH2 0xA68 JUMPI PUSH2 0xA67 PUSH2 0x1823 JUMP JUMPDEST JUMPDEST SWAP1 POP PUSH1 0x20 MUL DUP2 ADD SWAP1 PUSH2 0xA7A SWAP2 SWAP1 PUSH2 0x1861 JUMP JUMPDEST DUP1 DUP1 PUSH1 0x1F ADD PUSH1 0x20 DUP1 SWAP2 DIV MUL PUSH1 0x20 ADD PUSH1 0x40 MLOAD SWAP1 DUP2 ADD PUSH1 0x40 MSTORE DUP1 SWAP4 SWAP3 SWAP2 SWAP1 DUP2 DUP2 MSTORE PUSH1 0x20 ADD DUP4 DUP4 DUP1 DUP3 DUP5 CALLDATACOPY PUSH1 0x0 DUP2 DUP5 ADD MSTORE PUSH1 0x1F NOT PUSH1 0x1F DUP3 ADD AND SWAP1 POP DUP1 DUP4 ADD SWAP3 POP POP POP POP POP POP POP DUP2 MSTORE PUSH1 0x20 ADD DUP13 DUP13 DUP8 DUP2 DUP2 LT PUSH2 0xAD5 JUMPI PUSH2 0xAD4 PUSH2 0x1823 JUMP JUMPDEST JUMPDEST SWAP1 POP PUSH1 0x20 MUL DUP2 ADD SWAP1 PUSH2 0xAE7 SWAP2 SWAP1 PUSH2 0x1861 JUMP JUMPDEST DUP1 DUP1 PUSH1 0x1F ADD PUSH1 0x20 DUP1 SWAP2 DIV MUL PUSH1 0x20 ADD PUSH1 0x40 MLOAD SWAP1 DUP2 ADD PUSH1 0x40 MSTORE DUP1 SWAP4 SWAP3 SWAP2 SWAP1 DUP2 DUP2 MSTORE PUSH1 0x20 ADD DUP4 DUP4 DUP1 DUP3 DUP5 CALLDATACOPY PUSH1 0x0 DUP2 DUP5 ADD MSTORE PUSH1 0x1F NOT PUSH1 0x1F DUP3 ADD AND SWAP1 POP DUP1 DUP4 ADD SWAP3 POP POP POP POP POP POP POP DUP2 MSTORE PUSH1 0x20 ADD PUSH1 0x0 DUP2 MSTORE POP SWAP1 DUP1 PUSH1 0x1 DUP2 SLOAD ADD DUP1 DUP3 SSTORE DUP1 SWAP2 POP POP PUSH1 0x1 SWAP1 SUB SWAP1 PUSH1 0x0 MSTORE PUSH1 0x20 PUSH1 0x0 KECCAK256 SWAP1 PUSH1 0x4 MUL ADD PUSH1 0x0 SWAP1 SWAP2 SWAP1 SWAP2 SWAP1 SWAP2 POP PUSH1 0x0 DUP3 ADD MLOAD DUP2 PUSH1 0x0 ADD SWAP1 DUP2 PUSH2 0xB72 SWAP2 SWAP1 PUSH2 0x1EFC JUMP JUMPDEST POP PUSH1 0x20 DUP3 ADD MLOAD DUP2 PUSH1 0x1 ADD SWAP1 DUP2 PUSH2 0xB88 SWAP2 SWAP1 PUSH2 0x1EFC JUMP JUMPDEST POP PUSH1 0x40 DUP3 ADD MLOAD DUP2 PUSH1 0x2 ADD SWAP1 DUP2 PUSH2 0xB9E SWAP2 SWAP1 PUSH2 0x1EFC JUMP JUMPDEST POP PUSH1 0x60 DUP3 ADD MLOAD DUP2 PUSH1 0x3 ADD SSTORE POP POP DUP1 PUSH1 0x1 ADD SWAP1 POP PUSH2 0x94C JUMP JUMPDEST POP DUP2 PUSH1 0x1 ADD SWAP2 POP POP PUSH2 0x818 JUMP JUMPDEST POP PUSH1 0x1 PUSH1 0x2 PUSH1 0x14 PUSH2 0x100 EXP DUP2 SLOAD DUP2 PUSH1 0xFF MUL NOT AND SWAP1 DUP4 ISZERO ISZERO MUL OR SWAP1 SSTORE POP PUSH32 0x86825B43264CA968E676C45C8E05CC56965FF5938ED49DCF636C61ACB7070BD7 PUSH1 0x40 MLOAD PUSH1 0x40 MLOAD DUP1 SWAP2 SUB SWAP1 LOG1 POP POP POP POP POP POP POP JUMP JUMPDEST PUSH1 0x2 PUSH1 0x0 SWAP1 SLOAD SWAP1 PUSH2 0x100 EXP SWAP1 DIV PUSH20 0xFFFFFFFFFFFFFFFFFFFFFFFFFFFFFFFFFFFFFFFF AND DUP2 JUMP JUMPDEST PUSH1 0x60 PUSH1 0x0 DUP1 PUSH1 0x1 DUP1 SLOAD SWAP1 POP SWAP1 POP PUSH1 0x0 JUMPDEST DUP2 DUP2 LT ISZERO PUSH2 0xCA9 JUMPI PUSH1 0x0 PUSH1 0x1 DUP3 DUP2 SLOAD DUP2 LT PUSH2 0xC68 JUMPI PUSH2 0xC67 PUSH2 0x1823 JUMP JUMPDEST JUMPDEST SWAP1 PUSH1 0x0 MSTORE PUSH1 0x20 PUSH1 0x0 KECCAK256 ADD PUSH1 0x40 MLOAD PUSH2 0xC7F SWAP2 SWAP1 PUSH2 0x1B4F JUMP JUMPDEST SWAP1 DUP2 MSTORE PUSH1 0x20 ADD PUSH1 0x40 MLOAD DUP1 SWAP2 SUB SWAP1 KECCAK256 DUP1 SLOAD SWAP1 POP DUP4 PUSH2 0xC9C SWAP2 SWAP1 PUSH2 0x1FCE JUMP JUMPDEST SWAP3 POP DUP1 PUSH1 0x1 ADD SWAP1 POP PUSH2 0xC4A JUMP JUMPDEST POP PUSH1 0x0 DUP3 PUSH8 0xFFFFFFFFFFFFFFFF DUP2 GT ISZERO PUSH2 0xCC6 JUMPI PUSH2 0xCC5 PUSH2 0x1C03 JUMP JUMPDEST JUMPDEST PUSH1 0x40 MLOAD SWAP1 DUP1 DUP3 MSTORE DUP1 PUSH1 0x20 MUL PUSH1 0x20 ADD DUP3 ADD PUSH1 0x40 MSTORE DUP1 ISZERO PUSH2 0xCFF JUMPI DUP2 PUSH1 0x20 ADD JUMPDEST PUSH2 0xCEC PUSH2 0xFE1 JUMP JUMPDEST DUP2 MSTORE PUSH1 0x20 ADD SWAP1 PUSH1 0x1 SWAP1 SUB SWAP1 DUP2 PUSH2 0xCE4 JUMPI SWAP1 POP JUMPDEST POP SWAP1 POP PUSH1 0x0 DUP1 JUMPDEST DUP4 DUP2 LT ISZERO PUSH2 0xF91 JUMPI PUSH1 0x0 DUP1 PUSH1 0x1 DUP4 DUP2 SLOAD DUP2 LT PUSH2 0xD25 JUMPI PUSH2 0xD24 PUSH2 0x1823 JUMP JUMPDEST JUMPDEST SWAP1 PUSH1 0x0 MSTORE PUSH1 0x20 PUSH1 0x0 KECCAK256 ADD PUSH1 0x40 MLOAD PUSH2 0xD3C SWAP2 SWAP1 PUSH2 0x1B4F JUMP JUMPDEST SWAP1 DUP2 MSTORE PUSH1 0x20 ADD PUSH1 0x40 MLOAD DUP1 SWAP2 SUB SWAP1 KECCAK256 SWAP1 POP PUSH1 0x0 DUP2 DUP1 SLOAD SWAP1 POP SWAP1 POP PUSH1 0x0 JUMPDEST DUP2 DUP2 LT ISZERO PUSH2 0xF83 JUMPI DUP3 DUP2 DUP2 SLOAD DUP2 LT PUSH2 0xD73 JUMPI PUSH2 0xD72 PUSH2 0x1823 JUMP JUMPDEST JUMPDEST SWAP1 PUSH1 0x0 MSTORE PUSH1 0x20 PUSH1 0x0 KECCAK256 SWAP1 PUSH1 0x4 MUL ADD PUSH1 0x40 MLOAD DUP1 PUSH1 0x80 ADD PUSH1 0x40 MSTORE SWAP1 DUP2 PUSH1 0x0 DUP3 ADD DUP1 SLOAD PUSH2 0xD9C SWAP1 PUSH2 0x16E3 JUMP JUMPDEST DUP1 PUSH1 0x1F ADD PUSH1 0x20 DUP1 SWAP2 DIV MUL PUSH1 0x20 ADD PUSH1 0x40 MLOAD SWAP1 DUP2 ADD PUSH1 0x40 MSTORE DUP1 SWAP3 SWAP2 SWAP1 DUP2 DUP2 MSTORE PUSH1 0x20 ADD DUP3 DUP1 SLOAD PUSH2 0xDC8 SWAP1 PUSH2 0x16E3 JUMP JUMPDEST DUP1 ISZERO PUSH2 0xE15 JUMPI DUP1 PUSH1 0x1F LT PUSH2 0xDEA JUMPI PUSH2 0x100 DUP1 DUP4 SLOAD DIV MUL DUP4 MSTORE SWAP2 PUSH1 0x20 ADD SWAP2 PUSH2 0xE15 JUMP JUMPDEST DUP3 ADD SWAP2 SWAP1 PUSH1 0x0 MSTORE PUSH1 0x20 PUSH1 0x0 KECCAK256 SWAP1 JUMPDEST DUP2 SLOAD DUP2 MSTORE SWAP1 PUSH1 0x1 ADD SWAP1 PUSH1 0x20 ADD DUP1 DUP4 GT PUSH2 0xDF8 JUMPI DUP3 SWAP1 SUB PUSH1 0x1F AND DUP3 ADD SWAP2 JUMPDEST POP POP POP POP POP DUP2 MSTORE PUSH1 0x20 ADD PUSH1 0x1 DUP3 ADD DUP1 SLOAD PUSH2 0xE2E SWAP1 PUSH2 0x16E3 JUMP JUMPDEST DUP1 PUSH1 0x1F ADD PUSH1 0x20 DUP1 SWAP2 DIV MUL PUSH1 0x20 ADD PUSH1 0x40 MLOAD SWAP1 DUP2 ADD PUSH1 0x40 MSTORE DUP1 SWAP3 SWAP2 SWAP1 DUP2 DUP2 MSTORE PUSH1 0x20 ADD DUP3 DUP1 SLOAD PUSH2 0xE5A SWAP1 PUSH2 0x16E3 JUMP JUMPDEST DUP1 ISZERO PUSH2 0xEA7 JUMPI DUP1 PUSH1 0x1F LT PUSH2 0xE7C JUMPI PUSH2 0x100 DUP1 DUP4 SLOAD DIV MUL DUP4 MSTORE SWAP2 PUSH1 0x20 ADD SWAP2 PUSH2 0xEA7 JUMP JUMPDEST DUP3 ADD SWAP2 SWAP1 PUSH1 0x0 MSTORE PUSH1 0x20 PUSH1 0x0 KECCAK256 SWAP1 JUMPDEST DUP2 SLOAD DUP2 MSTORE SWAP1 PUSH1 0x1 ADD SWAP1 PUSH1 0x20 ADD DUP1 DUP4 GT PUSH2 0xE8A JUMPI DUP3 SWAP1 SUB PUSH1 0x1F AND DUP3 ADD SWAP2 JUMPDEST POP POP POP POP POP DUP2 MSTORE PUSH1 0x20 ADD PUSH1 0x2 DUP3 ADD DUP1 SLOAD PUSH2 0xEC0 SWAP1 PUSH2 0x16E3 JUMP JUMPDEST DUP1 PUSH1 0x1F ADD PUSH1 0x20 DUP1 SWAP2 DIV MUL PUSH1 0x20 ADD PUSH1 0x40 MLOAD SWAP1 DUP2 ADD PUSH1 0x40 MSTORE DUP1 SWAP3 SWAP2 SWAP1 DUP2 DUP2 MSTORE PUSH1 0x20 ADD DUP3 DUP1 SLOAD PUSH2 0xEEC SWAP1 PUSH2 0x16E3 JUMP JUMPDEST DUP1 ISZERO PUSH2 0xF39 JUMPI DUP1 PUSH1 0x1F LT PUSH2 0xF0E JUMPI PUSH2 0x100 DUP1 DUP4 SLOAD DIV MUL DUP4 MSTORE SWAP2 PUSH1 0x20 ADD SWAP2 PUSH2 0xF39 JUMP JUMPDEST DUP3 ADD SWAP2 SWAP1 PUSH1 0x0 MSTORE PUSH1 0x20 PUSH1 0x0 KECCAK256 SWAP1 JUMPDEST DUP2 SLOAD DUP2 MSTORE SWAP1 PUSH1 0x1 ADD SWAP1 PUSH1 0x20 ADD DUP1 DUP4 GT PUSH2 0xF1C JUMPI DUP3 SWAP1 SUB PUSH1 0x1F AND DUP3 ADD SWAP2 JUMPDEST POP POP POP POP POP DUP2 MSTORE PUSH1 0x20 ADD PUSH1 0x3 DUP3 ADD SLOAD DUP2 MSTORE POP POP DUP7 DUP7 DUP2 MLOAD DUP2 LT PUSH2 0xF5F JUMPI PUSH2 0xF5E PUSH2 0x1823 JUMP JUMPDEST JUMPDEST PUSH1 0x20 MUL PUSH1 0x20 ADD ADD DUP2 SWAP1 MSTORE POP DUP5 DUP1 PUSH2 0xF75 SWAP1 PUSH2 0x18F3 JUMP JUMPDEST SWAP6 POP POP DUP1 PUSH1 0x1 ADD SWAP1 POP PUSH2 0xD58 JUMP JUMPDEST POP DUP3 PUSH1 0x1 ADD SWAP3 POP POP POP PUSH2 0xD06 JUMP JUMPDEST POP DUP2 SWAP5 POP POP POP POP POP SWAP1 JUMP JUMPDEST POP DUP1 SLOAD PUSH1 0x0 DUP3 SSTORE PUSH1 0x4 MUL SWAP1 PUSH1 0x0 MSTORE PUSH1 0x20 PUSH1 0x0 KECCAK256 SWAP1 DUP2 ADD SWAP1 PUSH2 0xFBD SWAP2 SWAP1 PUSH2 0x1009 JUMP JUMPDEST POP JUMP JUMPDEST POP DUP1 SLOAD PUSH1 0x0 DUP3 SSTORE SWAP1 PUSH1 0x0 MSTORE PUSH1 0x20 PUSH1 0x0 KECCAK256 SWAP1 DUP2 ADD SWAP1 PUSH2 0xFDE SWAP2 SWAP1 PUSH2 0x1058 JUMP JUMPDEST POP JUMP JUMPDEST PUSH1 0x40 MLOAD DUP1 PUSH1 0x80 ADD PUSH1 0x40 MSTORE DUP1 PUSH1 0x60 DUP2 MSTORE PUSH1 0x20 ADD PUSH1 0x60 DUP2 MSTORE PUSH1 0x20 ADD PUSH1 0x60 DUP2 MSTORE PUSH1 0x20 ADD PUSH1 0x0 DUP2 MSTORE POP SWAP1 JUMP JUMPDEST JUMPDEST DUP1 DUP3 GT ISZERO PUSH2 0x1054 JUMPI PUSH1 0x0 DUP1 DUP3 ADD PUSH1 0x0 PUSH2 0x1023 SWAP2 SWAP1 PUSH2 0x107C JUMP JUMPDEST PUSH1 0x1 DUP3 ADD PUSH1 0x0 PUSH2 0x1033 SWAP2 SWAP1 PUSH2 0x107C JUMP JUMPDEST PUSH1 0x2 DUP3 ADD PUSH1 0x0 PUSH2 0x1043 SWAP2 SWAP1 PUSH2 0x107C JUMP JUMPDEST PUSH1 0x3 DUP3 ADD PUSH1 0x0 SWAP1 SSTORE POP PUSH1 0x4 ADD PUSH2 0x100A JUMP JUMPDEST POP SWAP1 JUMP JUMPDEST JUMPDEST DUP1 DUP3 GT ISZERO PUSH2 0x1078 JUMPI PUSH1 0x0 DUP2 DUP2 PUSH2 0x106F SWAP2 SWAP1 PUSH2 0x107C JUMP JUMPDEST POP PUSH1 0x1 ADD PUSH2 0x1059 JUMP JUMPDEST POP SWAP1 JUMP JUMPDEST POP DUP1 SLOAD PUSH2 0x1088 SWAP1 PUSH2 0x16E3 JUMP JUMPDEST PUSH1 0x0 DUP3 SSTORE DUP1 PUSH1 0x1F LT PUSH2 0x109A JUMPI POP PUSH2 0x10B9 JUMP JUMPDEST PUSH1 0x1F ADD PUSH1 0x20 SWAP1 DIV SWAP1 PUSH1 0x0 MSTORE PUSH1 0x20 PUSH1 0x0 KECCAK256 SWAP1 DUP2 ADD SWAP1 PUSH2 0x10B8 SWAP2 SWAP1 PUSH2 0x10BC JUMP JUMPDEST JUMPDEST POP JUMP JUMPDEST JUMPDEST DUP1 DUP3 GT ISZERO PUSH2 0x10D5 JUMPI PUSH1 0x0 DUP2 PUSH1 0x0 SWAP1 SSTORE POP PUSH1 0x1 ADD PUSH2 0x10BD JUMP JUMPDEST POP SWAP1 JUMP JUMPDEST PUSH1 0x0 DUP1 REVERT JUMPDEST PUSH1 0x0 DUP1 REVERT JUMPDEST PUSH1 0x0 DUP1 REVERT JUMPDEST PUSH1 0x0 DUP1 REVERT JUMPDEST PUSH1 0x0 DUP1 REVERT JUMPDEST PUSH1 0x0 DUP1 DUP4 PUSH1 0x1F DUP5 ADD SLT PUSH2 0x1108 JUMPI PUSH2 0x1107 PUSH2 0x10E3 JUMP JUMPDEST JUMPDEST DUP3 CALLDATALOAD SWAP1 POP PUSH8 0xFFFFFFFFFFFFFFFF DUP2 GT ISZERO PUSH2 0x1125 JUMPI PUSH2 0x1124 PUSH2 0x10E8 JUMP JUMPDEST JUMPDEST PUSH1 0x20 DUP4 ADD SWAP2 POP DUP4 PUSH1 0x1 DUP3 MUL DUP4 ADD GT ISZERO PUSH2 0x1141 JUMPI PUSH2 0x1140 PUSH2 0x10ED JUMP JUMPDEST JUMPDEST SWAP3 POP SWAP3 SWAP1 POP JUMP JUMPDEST PUSH1 0x0 DUP1 PUSH1 0x20 DUP4 DUP6 SUB SLT ISZERO PUSH2 0x115F JUMPI PUSH2 0x115E PUSH2 0x10D9 JUMP JUMPDEST JUMPDEST PUSH1 0x0 DUP4 ADD CALLDATALOAD PUSH8 0xFFFFFFFFFFFFFFFF DUP2 GT ISZERO PUSH2 0x117D JUMPI PUSH2 0x117C PUSH2 0x10DE JUMP JUMPDEST JUMPDEST PUSH2 0x1189 DUP6 DUP3 DUP7 ADD PUSH2 0x10F2 JUMP JUMPDEST SWAP3 POP SWAP3 POP POP SWAP3 POP SWAP3 SWAP1 POP JUMP JUMPDEST PUSH1 0x0 DUP2 MLOAD SWAP1 POP SWAP2 SWAP1 POP JUMP JUMPDEST PUSH1 0x0 DUP3 DUP3 MSTORE PUSH1 0x20 DUP3 ADD SWAP1 POP SWAP3 SWAP2 POP POP JUMP JUMPDEST PUSH1 0x0 DUP2 SWAP1 POP PUSH1 0x20 DUP3 ADD SWAP1 POP SWAP2 SWAP1 POP JUMP JUMPDEST PUSH1 0x0 DUP2 MLOAD SWAP1 POP SWAP2 SWAP1 POP JUMP JUMPDEST PUSH1 0x0 DUP3 DUP3 MSTORE PUSH1 0x20 DUP3 ADD SWAP1 POP SWAP3 SWAP2 POP POP JUMP JUMPDEST PUSH1 0x0 JUMPDEST DUP4 DUP2 LT ISZERO PUSH2 0x11FB JUMPI DUP1 DUP3 ADD MLOAD DUP2 DUP5 ADD MSTORE PUSH1 0x20 DUP2 ADD SWAP1 POP PUSH2 0x11E0 JUMP JUMPDEST PUSH1 0x0 DUP5 DUP5 ADD MSTORE POP POP POP POP JUMP JUMPDEST PUSH1 0x0 PUSH1 0x1F NOT PUSH1 0x1F DUP4 ADD AND SWAP1 POP SWAP2 SWAP1 POP JUMP JUMPDEST PUSH1 0x0 PUSH2 0x1223 DUP3 PUSH2 0x11C1 JUMP JUMPDEST PUSH2 0x122D DUP2 DUP6 PUSH2 0x11CC JUMP JUMPDEST SWAP4 POP PUSH2 0x123D DUP2 DUP6 PUSH1 0x20 DUP7 ADD PUSH2 0x11DD JUMP JUMPDEST PUSH2 0x1246 DUP2 PUSH2 0x1207 JUMP JUMPDEST DUP5 ADD SWAP2 POP POP SWAP3 SWAP2 POP POP JUMP JUMPDEST PUSH1 0x0 DUP2 SWAP1 POP SWAP2 SWAP1 POP JUMP JUMPDEST PUSH2 0x1264 DUP2 PUSH2 0x1251 JUMP JUMPDEST DUP3 MSTORE POP POP JUMP JUMPDEST PUSH1 0x0 PUSH1 0x80 DUP4 ADD PUSH1 0x0 DUP4 ADD MLOAD DUP5 DUP3 SUB PUSH1 0x0 DUP7 ADD MSTORE PUSH2 0x1287 DUP3 DUP3 PUSH2 0x1218 JUMP JUMPDEST SWAP2 POP POP PUSH1 0x20 DUP4 ADD MLOAD DUP5 DUP3 SUB PUSH1 0x20 DUP7 ADD MSTORE PUSH2 0x12A1 DUP3 DUP3 PUSH2 0x1218 JUMP JUMPDEST SWAP2 POP POP PUSH1 0x40 DUP4 ADD MLOAD DUP5 DUP3 SUB PUSH1 0x40 DUP7 ADD MSTORE PUSH2 0x12BB DUP3 DUP3 PUSH2 0x1218 JUMP JUMPDEST SWAP2 POP POP PUSH1 0x60 DUP4 ADD MLOAD PUSH2 0x12D0 PUSH1 0x60 DUP7 ADD DUP3 PUSH2 0x125B JUMP JUMPDEST POP DUP1 SWAP2 POP POP SWAP3 SWAP2 POP POP JUMP JUMPDEST PUSH1 0x0 PUSH2 0x12E7 DUP4 DUP4 PUSH2 0x126A JUMP JUMPDEST SWAP1 POP SWAP3 SWAP2 POP POP JUMP JUMPDEST PUSH1 0x0 PUSH1 0x20 DUP3 ADD SWAP1 POP SWAP2 SWAP1 POP JUMP JUMPDEST PUSH1 0x0 PUSH2 0x1307 DUP3 PUSH2 0x1195 JUMP JUMPDEST PUSH2 0x1311 DUP2 DUP6 PUSH2 0x11A0 JUMP JUMPDEST SWAP4 POP DUP4 PUSH1 0x20 DUP3 MUL DUP6 ADD PUSH2 0x1323 DUP6 PUSH2 0x11B1 JUMP JUMPDEST DUP1 PUSH1 0x0 JUMPDEST DUP6 DUP2 LT ISZERO PUSH2 0x135F JUMPI DUP5 DUP5 SUB DUP10 MSTORE DUP2 MLOAD PUSH2 0x1340 DUP6 DUP3 PUSH2 0x12DB JUMP JUMPDEST SWAP5 POP PUSH2 0x134B DUP4 PUSH2 0x12EF JUMP JUMPDEST SWAP3 POP PUSH1 0x20 DUP11 ADD SWAP10 POP POP PUSH1 0x1 DUP2 ADD SWAP1 POP PUSH2 0x1327 JUMP JUMPDEST POP DUP3 SWAP8 POP DUP8 SWAP6 POP POP POP POP POP POP SWAP3 SWAP2 POP POP JUMP JUMPDEST PUSH1 0x0 PUSH1 0x20 DUP3 ADD SWAP1 POP DUP2 DUP2 SUB PUSH1 0x0 DUP4 ADD MSTORE PUSH2 0x138B DUP2 DUP5 PUSH2 0x12FC JUMP JUMPDEST SWAP1 POP SWAP3 SWAP2 POP POP JUMP JUMPDEST PUSH1 0x0 DUP1 DUP4 PUSH1 0x1F DUP5 ADD SLT PUSH2 0x13A9 JUMPI PUSH2 0x13A8 PUSH2 0x10E3 JUMP JUMPDEST JUMPDEST DUP3 CALLDATALOAD SWAP1 POP PUSH8 0xFFFFFFFFFFFFFFFF DUP2 GT ISZERO PUSH2 0x13C6 JUMPI PUSH2 0x13C5 PUSH2 0x10E8 JUMP JUMPDEST JUMPDEST PUSH1 0x20 DUP4 ADD SWAP2 POP DUP4 PUSH1 0x20 DUP3 MUL DUP4 ADD GT ISZERO PUSH2 0x13E2 JUMPI PUSH2 0x13E1 PUSH2 0x10ED JUMP JUMPDEST JUMPDEST SWAP3 POP SWAP3 SWAP1 POP JUMP JUMPDEST PUSH1 0x0 DUP1 DUP4 PUSH1 0x1F DUP5 ADD SLT PUSH2 0x13FF JUMPI PUSH2 0x13FE PUSH2 0x10E3 JUMP JUMPDEST JUMPDEST DUP3 CALLDATALOAD SWAP1 POP PUSH8 0xFFFFFFFFFFFFFFFF DUP2 GT ISZERO PUSH2 0x141C JUMPI PUSH2 0x141B PUSH2 0x10E8 JUMP JUMPDEST JUMPDEST PUSH1 0x20 DUP4 ADD SWAP2 POP DUP4 PUSH1 0x20 DUP3 MUL DUP4 ADD GT ISZERO PUSH2 0x1438 JUMPI PUSH2 0x1437 PUSH2 0x10ED JUMP JUMPDEST JUMPDEST SWAP3 POP SWAP3 SWAP1 POP JUMP JUMPDEST PUSH1 0x0 DUP1 PUSH1 0x0 DUP1 PUSH1 0x40 DUP6 DUP8 SUB SLT ISZERO PUSH2 0x1459 JUMPI PUSH2 0x1458 PUSH2 0x10D9 JUMP JUMPDEST JUMPDEST PUSH1 0x0 DUP6 ADD CALLDATALOAD PUSH8 0xFFFFFFFFFFFFFFFF DUP2 GT ISZERO PUSH2 0x1477 JUMPI PUSH2 0x1476 PUSH2 0x10DE JUMP JUMPDEST JUMPDEST PUSH2 0x1483 DUP8 DUP3 DUP9 ADD PUSH2 0x1393 JUMP JUMPDEST SWAP5 POP SWAP5 POP POP PUSH1 0x20 DUP6 ADD CALLDATALOAD PUSH8 0xFFFFFFFFFFFFFFFF DUP2 GT ISZERO PUSH2 0x14A6 JUMPI PUSH2 0x14A5 PUSH2 0x10DE JUMP JUMPDEST JUMPDEST PUSH2 0x14B2 DUP8 DUP3 DUP9 ADD PUSH2 0x13E9 JUMP JUMPDEST SWAP3 POP SWAP3 POP POP SWAP3 SWAP6 SWAP2 SWAP5 POP SWAP3 POP JUMP JUMPDEST PUSH1 0x0 DUP2 ISZERO ISZERO SWAP1 POP SWAP2 SWAP1 POP JUMP JUMPDEST PUSH2 0x14D5 DUP2 PUSH2 0x14C0 JUMP JUMPDEST DUP3 MSTORE POP POP JUMP JUMPDEST PUSH1 0x0 PUSH1 0x20 DUP3 ADD SWAP1 POP PUSH2 0x14F0 PUSH1 0x0 DUP4 ADD DUP5 PUSH2 0x14CC JUMP JUMPDEST SWAP3 SWAP2 POP POP JUMP JUMPDEST PUSH1 0x0 DUP1 DUP4 PUSH1 0x1F DUP5 ADD SLT PUSH2 0x150C JUMPI PUSH2 0x150B PUSH2 0x10E3 JUMP JUMPDEST JUMPDEST DUP3 CALLDATALOAD SWAP1 POP PUSH8 0xFFFFFFFFFFFFFFFF DUP2 GT ISZERO PUSH2 0x1529 JUMPI PUSH2 0x1528 PUSH2 0x10E8 JUMP JUMPDEST JUMPDEST PUSH1 0x20 DUP4 ADD SWAP2 POP DUP4 PUSH1 0x20 DUP3 MUL DUP4 ADD GT ISZERO PUSH2 0x1545 JUMPI PUSH2 0x1544 PUSH2 0x10ED JUMP JUMPDEST JUMPDEST SWAP3 POP SWAP3 SWAP1 POP JUMP JUMPDEST PUSH1 0x0 DUP1 PUSH1 0x0 DUP1 PUSH1 0x0 DUP1 PUSH1 0x60 DUP8 DUP10 SUB SLT ISZERO PUSH2 0x1569 JUMPI PUSH2 0x1568 PUSH2 0x10D9 JUMP JUMPDEST JUMPDEST PUSH1 0x0 DUP8 ADD CALLDATALOAD PUSH8 0xFFFFFFFFFFFFFFFF DUP2 GT ISZERO PUSH2 0x1587 JUMPI PUSH2 0x1586 PUSH2 0x10DE JUMP JUMPDEST JUMPDEST PUSH2 0x1593 DUP10 DUP3 DUP11 ADD PUSH2 0x1393 JUMP JUMPDEST SWAP7 POP SWAP7 POP POP PUSH1 0x20 DUP8 ADD CALLDATALOAD PUSH8 0xFFFFFFFFFFFFFFFF DUP2 GT ISZERO PUSH2 0x15B6 JUMPI PUSH2 0x15B5 PUSH2 0x10DE JUMP JUMPDEST JUMPDEST PUSH2 0x15C2 DUP10 DUP3 DUP11 ADD PUSH2 0x14F6 JUMP JUMPDEST SWAP5 POP SWAP5 POP POP PUSH1 0x40 DUP8 ADD CALLDATALOAD PUSH8 0xFFFFFFFFFFFFFFFF DUP2 GT ISZERO PUSH2 0x15E5 JUMPI PUSH2 0x15E4 PUSH2 0x10DE JUMP JUMPDEST JUMPDEST PUSH2 0x15F1 DUP10 DUP3 DUP11 ADD PUSH2 0x14F6 JUMP JUMPDEST SWAP3 POP SWAP3 POP POP SWAP3 SWAP6 POP SWAP3 SWAP6 POP SWAP3 SWAP6 JUMP JUMPDEST PUSH1 0x0 PUSH20 0xFFFFFFFFFFFFFFFFFFFFFFFFFFFFFFFFFFFFFFFF DUP3 AND SWAP1 POP SWAP2 SWAP1 POP JUMP JUMPDEST PUSH1 0x0 PUSH2 0x162B DUP3 PUSH2 0x1600 JUMP JUMPDEST SWAP1 POP SWAP2 SWAP1 POP JUMP JUMPDEST PUSH2 0x163B DUP2 PUSH2 0x1620 JUMP JUMPDEST DUP3 MSTORE POP POP JUMP JUMPDEST PUSH1 0x0 PUSH1 0x20 DUP3 ADD SWAP1 POP PUSH2 0x1656 PUSH1 0x0 DUP4 ADD DUP5 PUSH2 0x1632 JUMP JUMPDEST SWAP3 SWAP2 POP POP JUMP JUMPDEST PUSH1 0x0 DUP2 SWAP1 POP SWAP3 SWAP2 POP POP JUMP JUMPDEST DUP3 DUP2 DUP4 CALLDATACOPY PUSH1 0x0 DUP4 DUP4 ADD MSTORE POP POP POP JUMP JUMPDEST PUSH1 0x0 PUSH2 0x1682 DUP4 DUP6 PUSH2 0x165C JUMP JUMPDEST SWAP4 POP PUSH2 0x168F DUP4 DUP6 DUP5 PUSH2 0x1667 JUMP JUMPDEST DUP3 DUP5 ADD SWAP1 POP SWAP4 SWAP3 POP POP POP JUMP JUMPDEST PUSH1 0x0 PUSH2 0x16A8 DUP3 DUP5 DUP7 PUSH2 0x1676 JUMP JUMPDEST SWAP2 POP DUP2 SWAP1 POP SWAP4 SWAP3 POP POP POP JUMP JUMPDEST PUSH32 0x4E487B7100000000000000000000000000000000000000000000000000000000 PUSH1 0x0 MSTORE PUSH1 0x22 PUSH1 0x4 MSTORE PUSH1 0x24 PUSH1 0x0 REVERT JUMPDEST PUSH1 0x0 PUSH1 0x2 DUP3 DIV SWAP1 POP PUSH1 0x1 DUP3 AND DUP1 PUSH2 0x16FB JUMPI PUSH1 0x7F DUP3 AND SWAP2 POP JUMPDEST PUSH1 0x20 DUP3 LT DUP2 SUB PUSH2 0x170E JUMPI PUSH2 0x170D PUSH2 0x16B4 JUMP JUMPDEST JUMPDEST POP SWAP2 SWAP1 POP JUMP JUMPDEST PUSH1 0x0 DUP3 DUP3 MSTORE PUSH1 0x20 DUP3 ADD SWAP1 POP SWAP3 SWAP2 POP POP JUMP JUMPDEST PUSH32 0x566F74696E672063616E6E6F7420737461727420756E74696C2063616E646964 PUSH1 0x0 DUP3 ADD MSTORE PUSH32 0x61746573206172652066696E616C697A65642100000000000000000000000000 PUSH1 0x20 DUP3 ADD MSTORE POP JUMP JUMPDEST PUSH1 0x0 PUSH2 0x1781 PUSH1 0x33 DUP4 PUSH2 0x1714 JUMP JUMPDEST SWAP2 POP PUSH2 0x178C DUP3 PUSH2 0x1725 JUMP JUMPDEST PUSH1 0x40 DUP3 ADD SWAP1 POP SWAP2 SWAP1 POP JUMP JUMPDEST PUSH1 0x0 PUSH1 0x20 DUP3 ADD SWAP1 POP DUP2 DUP2 SUB PUSH1 0x0 DUP4 ADD MSTORE PUSH2 0x17B0 DUP2 PUSH2 0x1774 JUMP JUMPDEST SWAP1 POP SWAP2 SWAP1 POP JUMP JUMPDEST PUSH32 0x4D69736D61746368656420696E707574206C656E677468730000000000000000 PUSH1 0x0 DUP3 ADD MSTORE POP JUMP JUMPDEST PUSH1 0x0 PUSH2 0x17ED PUSH1 0x18 DUP4 PUSH2 0x1714 JUMP JUMPDEST SWAP2 POP PUSH2 0x17F8 DUP3 PUSH2 0x17B7 JUMP JUMPDEST PUSH1 0x20 DUP3 ADD SWAP1 POP SWAP2 SWAP1 POP JUMP JUMPDEST PUSH1 0x0 PUSH1 0x20 DUP3 ADD SWAP1 POP DUP2 DUP2 SUB PUSH1 0x0 DUP4 ADD MSTORE PUSH2 0x181C DUP2 PUSH2 0x17E0 JUMP JUMPDEST SWAP1 POP SWAP2 SWAP1 POP JUMP JUMPDEST PUSH32 0x4E487B7100000000000000000000000000000000000000000000000000000000 PUSH1 0x0 MSTORE PUSH1 0x32 PUSH1 0x4 MSTORE PUSH1 0x24 PUSH1 0x0 REVERT JUMPDEST PUSH1 0x0 DUP1 REVERT JUMPDEST PUSH1 0x0 DUP1 REVERT JUMPDEST PUSH1 0x0 DUP1 REVERT JUMPDEST PUSH1 0x0 DUP1 DUP4 CALLDATALOAD PUSH1 0x1 PUSH1 0x20 SUB DUP5 CALLDATASIZE SUB SUB DUP2 SLT PUSH2 0x187E JUMPI PUSH2 0x187D PUSH2 0x1852 JUMP JUMPDEST JUMPDEST DUP1 DUP5 ADD SWAP3 POP DUP3 CALLDATALOAD SWAP2 POP PUSH8 0xFFFFFFFFFFFFFFFF DUP3 GT ISZERO PUSH2 0x18A0 JUMPI PUSH2 0x189F PUSH2 0x1857 JUMP JUMPDEST JUMPDEST PUSH1 0x20 DUP4 ADD SWAP3 POP PUSH1 0x1 DUP3 MUL CALLDATASIZE SUB DUP4 SGT ISZERO PUSH2 0x18BC JUMPI PUSH2 0x18BB PUSH2 0x185C JUMP JUMPDEST JUMPDEST POP SWAP3 POP SWAP3 SWAP1 POP JUMP JUMPDEST PUSH32 0x4E487B7100000000000000000000000000000000000000000000000000000000 PUSH1 0x0 MSTORE PUSH1 0x11 PUSH1 0x4 MSTORE PUSH1 0x24 PUSH1 0x0 REVERT JUMPDEST PUSH1 0x0 PUSH2 0x18FE DUP3 PUSH2 0x1251 JUMP JUMPDEST SWAP2 POP PUSH32 0xFFFFFFFFFFFFFFFFFFFFFFFFFFFFFFFFFFFFFFFFFFFFFFFFFFFFFFFFFFFFFFFF DUP3 SUB PUSH2 0x1930 JUMPI PUSH2 0x192F PUSH2 0x18C4 JUMP JUMPDEST JUMPDEST PUSH1 0x1 DUP3 ADD SWAP1 POP SWAP2 SWAP1 POP JUMP JUMPDEST PUSH1 0x0 PUSH2 0x1947 DUP4 DUP6 PUSH2 0x1714 JUMP JUMPDEST SWAP4 POP PUSH2 0x1954 DUP4 DUP6 DUP5 PUSH2 0x1667 JUMP JUMPDEST PUSH2 0x195D DUP4 PUSH2 0x1207 JUMP JUMPDEST DUP5 ADD SWAP1 POP SWAP4 SWAP3 POP POP POP JUMP JUMPDEST PUSH1 0x0 DUP2 SWAP1 POP DUP2 PUSH1 0x0 MSTORE PUSH1 0x20 PUSH1 0x0 KECCAK256 SWAP1 POP SWAP2 SWAP1 POP JUMP JUMPDEST PUSH1 0x0 DUP2 SLOAD PUSH2 0x198A DUP2 PUSH2 0x16E3 JUMP JUMPDEST PUSH2 0x1994 DUP2 DUP7 PUSH2 0x1714 JUMP JUMPDEST SWAP5 POP PUSH1 0x1 DUP3 AND PUSH1 0x0 DUP2 EQ PUSH2 0x19AF JUMPI PUSH1 0x1 DUP2 EQ PUSH2 0x19C5 JUMPI PUSH2 0x19F8 JUMP JUMPDEST PUSH1 0xFF NOT DUP4 AND DUP7 MSTORE DUP2 ISZERO ISZERO PUSH1 0x20 MUL DUP7 ADD SWAP4 POP PUSH2 0x19F8 JUMP JUMPDEST PUSH2 0x19CE DUP6 PUSH2 0x1968 JUMP JUMPDEST PUSH1 0x0 JUMPDEST DUP4 DUP2 LT ISZERO PUSH2 0x19F0 JUMPI DUP2 SLOAD DUP2 DUP10 ADD MSTORE PUSH1 0x1 DUP3 ADD SWAP2 POP PUSH1 0x20 DUP2 ADD SWAP1 POP PUSH2 0x19D1 JUMP JUMPDEST DUP1 DUP9 ADD SWAP6 POP POP POP JUMPDEST POP POP POP SWAP3 SWAP2 POP POP JUMP JUMPDEST PUSH1 0x0 PUSH1 0x40 DUP3 ADD SWAP1 POP DUP2 DUP2 SUB PUSH1 0x0 DUP4 ADD MSTORE PUSH2 0x1A1C DUP2 DUP6 DUP8 PUSH2 0x193B JUMP JUMPDEST SWAP1 POP DUP2 DUP2 SUB PUSH1 0x20 DUP4 ADD MSTORE PUSH2 0x1A30 DUP2 DUP5 PUSH2 0x197D JUMP JUMPDEST SWAP1 POP SWAP5 SWAP4 POP POP POP POP JUMP JUMPDEST PUSH32 0x4F6E6C792061646D696E2063616E20706572666F726D20746869732061637469 PUSH1 0x0 DUP3 ADD MSTORE PUSH32 0x6F6E000000000000000000000000000000000000000000000000000000000000 PUSH1 0x20 DUP3 ADD MSTORE POP JUMP JUMPDEST PUSH1 0x0 PUSH2 0x1A96 PUSH1 0x22 DUP4 PUSH2 0x1714 JUMP JUMPDEST SWAP2 POP PUSH2 0x1AA1 DUP3 PUSH2 0x1A3A JUMP JUMPDEST PUSH1 0x40 DUP3 ADD SWAP1 POP SWAP2 SWAP1 POP JUMP JUMPDEST PUSH1 0x0 PUSH1 0x20 DUP3 ADD SWAP1 POP DUP2 DUP2 SUB PUSH1 0x0 DUP4 ADD MSTORE PUSH2 0x1AC5 DUP2 PUSH2 0x1A89 JUMP JUMPDEST SWAP1 POP SWAP2 SWAP1 POP JUMP JUMPDEST PUSH1 0x0 DUP2 SLOAD PUSH2 0x1AD9 DUP2 PUSH2 0x16E3 JUMP JUMPDEST PUSH2 0x1AE3 DUP2 DUP7 PUSH2 0x165C JUMP JUMPDEST SWAP5 POP PUSH1 0x1 DUP3 AND PUSH1 0x0 DUP2 EQ PUSH2 0x1AFE JUMPI PUSH1 0x1 DUP2 EQ PUSH2 0x1B13 JUMPI PUSH2 0x1B46 JUMP JUMPDEST PUSH1 0xFF NOT DUP4 AND DUP7 MSTORE DUP2 ISZERO ISZERO DUP3 MUL DUP7 ADD SWAP4 POP PUSH2 0x1B46 JUMP JUMPDEST PUSH2 0x1B1C DUP6 PUSH2 0x1968 JUMP JUMPDEST PUSH1 0x0 JUMPDEST DUP4 DUP2 LT ISZERO PUSH2 0x1B3E JUMPI DUP2 SLOAD DUP2 DUP10 ADD MSTORE PUSH1 0x1 DUP3 ADD SWAP2 POP PUSH1 0x20 DUP2 ADD SWAP1 POP PUSH2 0x1B1F JUMP JUMPDEST DUP4 DUP9 ADD SWAP6 POP POP POP JUMPDEST POP POP POP SWAP3 SWAP2 POP POP JUMP JUMPDEST PUSH1 0x0 PUSH2 0x1B5B DUP3 DUP5 PUSH2 0x1ACC JUMP JUMPDEST SWAP2 POP DUP2 SWAP1 POP SWAP3 SWAP2 POP POP JUMP JUMPDEST PUSH32 0x43616E646964617465732061726520616C72656164792066696E616C697A6564 PUSH1 0x0 DUP3 ADD MSTORE PUSH32 0x2100000000000000000000000000000000000000000000000000000000000000 PUSH1 0x20 DUP3 ADD MSTORE POP JUMP JUMPDEST PUSH1 0x0 PUSH2 0x1BC2 PUSH1 0x21 DUP4 PUSH2 0x1714 JUMP JUMPDEST SWAP2 POP PUSH2 0x1BCD DUP3 PUSH2 0x1B66 JUMP JUMPDEST PUSH1 0x40 DUP3 ADD SWAP1 POP SWAP2 SWAP1 POP JUMP JUMPDEST PUSH1 0x0 PUSH1 0x20 DUP3 ADD SWAP1 POP DUP2 DUP2 SUB PUSH1 0x0 DUP4 ADD MSTORE PUSH2 0x1BF1 DUP2 PUSH2 0x1BB5 JUMP JUMPDEST SWAP1 POP SWAP2 SWAP1 POP JUMP JUMPDEST PUSH1 0x0 DUP3 SWAP1 POP SWAP3 SWAP2 POP POP JUMP JUMPDEST PUSH32 0x4E487B7100000000000000000000000000000000000000000000000000000000 PUSH1 0x0 MSTORE PUSH1 0x41 PUSH1 0x4 MSTORE PUSH1 0x24 PUSH1 0x0 REVERT JUMPDEST PUSH1 0x0 PUSH1 0x20 PUSH1 0x1F DUP4 ADD DIV SWAP1 POP SWAP2 SWAP1 POP JUMP JUMPDEST PUSH1 0x0 DUP3 DUP3 SHL SWAP1 POP SWAP3 SWAP2 POP POP JUMP JUMPDEST PUSH1 0x0 PUSH1 0x8 DUP4 MUL PUSH2 0x1C7F PUSH32 0xFFFFFFFFFFFFFFFFFFFFFFFFFFFFFFFFFFFFFFFFFFFFFFFFFFFFFFFFFFFFFFFF DUP3 PUSH2 0x1C42 JUMP JUMPDEST PUSH2 0x1C89 DUP7 DUP4 PUSH2 0x1C42 JUMP JUMPDEST SWAP6 POP DUP1 NOT DUP5 AND SWAP4 POP DUP1 DUP7 AND DUP5 OR SWAP3 POP POP POP SWAP4 SWAP3 POP POP POP JUMP JUMPDEST PUSH1 0x0 DUP2 SWAP1 POP SWAP2 SWAP1 POP JUMP JUMPDEST PUSH1 0x0 PUSH2 0x1CC6 PUSH2 0x1CC1 PUSH2 0x1CBC DUP5 PUSH2 0x1251 JUMP JUMPDEST PUSH2 0x1CA1 JUMP JUMPDEST PUSH2 0x1251 JUMP JUMPDEST SWAP1 POP SWAP2 SWAP1 POP JUMP JUMPDEST PUSH1 0x0 DUP2 SWAP1 POP SWAP2 SWAP1 POP JUMP JUMPDEST PUSH2 0x1CE0 DUP4 PUSH2 0x1CAB JUMP JUMPDEST PUSH2 0x1CF4 PUSH2 0x1CEC DUP3 PUSH2 0x1CCD JUMP JUMPDEST DUP5 DUP5 SLOAD PUSH2 0x1C4F JUMP JUMPDEST DUP3 SSTORE POP POP POP POP JUMP JUMPDEST PUSH1 0x0 SWAP1 JUMP JUMPDEST PUSH2 0x1D09 PUSH2 0x1CFC JUMP JUMPDEST PUSH2 0x1D14 DUP2 DUP5 DUP5 PUSH2 0x1CD7 JUMP JUMPDEST POP POP POP JUMP JUMPDEST JUMPDEST DUP2 DUP2 LT ISZERO PUSH2 0x1D38 JUMPI PUSH2 0x1D2D PUSH1 0x0 DUP3 PUSH2 0x1D01 JUMP JUMPDEST PUSH1 0x1 DUP2 ADD SWAP1 POP PUSH2 0x1D1A JUMP JUMPDEST POP POP JUMP JUMPDEST PUSH1 0x1F DUP3 GT ISZERO PUSH2 0x1D7D JUMPI PUSH2 0x1D4E DUP2 PUSH2 0x1968 JUMP JUMPDEST PUSH2 0x1D57 DUP5 PUSH2 0x1C32 JUMP JUMPDEST DUP2 ADD PUSH1 0x20 DUP6 LT ISZERO PUSH2 0x1D66 JUMPI DUP2 SWAP1 POP JUMPDEST PUSH2 0x1D7A PUSH2 0x1D72 DUP6 PUSH2 0x1C32 JUMP JUMPDEST DUP4 ADD DUP3 PUSH2 0x1D19 JUMP JUMPDEST POP POP JUMPDEST POP POP POP JUMP JUMPDEST PUSH1 0x0 DUP3 DUP3 SHR SWAP1 POP SWAP3 SWAP2 POP POP JUMP JUMPDEST PUSH1 0x0 PUSH2 0x1DA0 PUSH1 0x0 NOT DUP5 PUSH1 0x8 MUL PUSH2 0x1D82 JUMP JUMPDEST NOT DUP1 DUP4 AND SWAP2 POP POP SWAP3 SWAP2 POP POP JUMP JUMPDEST PUSH1 0x0 PUSH2 0x1DB9 DUP4 DUP4 PUSH2 0x1D8F JUMP JUMPDEST SWAP2 POP DUP3 PUSH1 0x2 MUL DUP3 OR SWAP1 POP SWAP3 SWAP2 POP POP JUMP JUMPDEST PUSH2 0x1DD3 DUP4 DUP4 PUSH2 0x1BF8 JUMP JUMPDEST PUSH8 0xFFFFFFFFFFFFFFFF DUP2 GT ISZERO PUSH2 0x1DEC JUMPI PUSH2 0x1DEB PUSH2 0x1C03 JUMP JUMPDEST JUMPDEST PUSH2 0x1DF6 DUP3 SLOAD PUSH2 0x16E3 JUMP JUMPDEST PUSH2 0x1E01 DUP3 DUP3 DUP6 PUSH2 0x1D3C JUMP JUMPDEST PUSH1 0x0 PUSH1 0x1F DUP4 GT PUSH1 0x1 DUP2 EQ PUSH2 0x1E30 JUMPI PUSH1 0x0 DUP5 ISZERO PUSH2 0x1E1E JUMPI DUP3 DUP8 ADD CALLDATALOAD SWAP1 POP JUMPDEST PUSH2 0x1E28 DUP6 DUP3 PUSH2 0x1DAD JUMP JUMPDEST DUP7 SSTORE POP PUSH2 0x1E90 JUMP JUMPDEST PUSH1 0x1F NOT DUP5 AND PUSH2 0x1E3E DUP7 PUSH2 0x1968 JUMP JUMPDEST PUSH1 0x0 JUMPDEST DUP3 DUP2 LT ISZERO PUSH2 0x1E66 JUMPI DUP5 DUP10 ADD CALLDATALOAD DUP3 SSTORE PUSH1 0x1 DUP3 ADD SWAP2 POP PUSH1 0x20 DUP6 ADD SWAP5 POP PUSH1 0x20 DUP2 ADD SWAP1 POP PUSH2 0x1E41 JUMP JUMPDEST DUP7 DUP4 LT ISZERO PUSH2 0x1E83 JUMPI DUP5 DUP10 ADD CALLDATALOAD PUSH2 0x1E7F PUSH1 0x1F DUP10 AND DUP3 PUSH2 0x1D8F JUMP JUMPDEST DUP4 SSTORE POP JUMPDEST PUSH1 0x1 PUSH1 0x2 DUP9 MUL ADD DUP9 SSTORE POP POP POP JUMPDEST POP POP POP POP POP POP POP JUMP JUMPDEST PUSH1 0x0 DUP1 DUP4 CALLDATALOAD PUSH1 0x1 PUSH1 0x20 SUB DUP5 CALLDATASIZE SUB SUB DUP2 SLT PUSH2 0x1EB6 JUMPI PUSH2 0x1EB5 PUSH2 0x1852 JUMP JUMPDEST JUMPDEST DUP1 DUP5 ADD SWAP3 POP DUP3 CALLDATALOAD SWAP2 POP PUSH8 0xFFFFFFFFFFFFFFFF DUP3 GT ISZERO PUSH2 0x1ED8 JUMPI PUSH2 0x1ED7 PUSH2 0x1857 JUMP JUMPDEST JUMPDEST PUSH1 0x20 DUP4 ADD SWAP3 POP PUSH1 0x20 DUP3 MUL CALLDATASIZE SUB DUP4 SGT ISZERO PUSH2 0x1EF4 JUMPI PUSH2 0x1EF3 PUSH2 0x185C JUMP JUMPDEST JUMPDEST POP SWAP3 POP SWAP3 SWAP1 POP JUMP JUMPDEST PUSH2 0x1F05 DUP3 PUSH2 0x11C1 JUMP JUMPDEST PUSH8 0xFFFFFFFFFFFFFFFF DUP2 GT ISZERO PUSH2 0x1F1E JUMPI PUSH2 0x1F1D PUSH2 0x1C03 JUMP JUMPDEST JUMPDEST PUSH2 0x1F28 DUP3 SLOAD PUSH2 0x16E3 JUMP JUMPDEST PUSH2 0x1F33 DUP3 DUP3 DUP6 PUSH2 0x1D3C JUMP JUMPDEST PUSH1 0x0 PUSH1 0x20 SWAP1 POP PUSH1 0x1F DUP4 GT PUSH1 0x1 DUP2 EQ PUSH2 0x1F66 JUMPI PUSH1 0x0 DUP5 ISZERO PUSH2 0x1F54 JUMPI DUP3 DUP8 ADD MLOAD SWAP1 POP JUMPDEST PUSH2 0x1F5E DUP6 DUP3 PUSH2 0x1DAD JUMP JUMPDEST DUP7 SSTORE POP PUSH2 0x1FC6 JUMP JUMPDEST PUSH1 0x1F NOT DUP5 AND PUSH2 0x1F74 DUP7 PUSH2 0x1968 JUMP JUMPDEST PUSH1 0x0 JUMPDEST DUP3 DUP2 LT ISZERO PUSH2 0x1F9C JUMPI DUP5 DUP10 ADD MLOAD DUP3 SSTORE PUSH1 0x1 DUP3 ADD SWAP2 POP PUSH1 0x20 DUP6 ADD SWAP5 POP PUSH1 0x20 DUP2 ADD SWAP1 POP PUSH2 0x1F77 JUMP JUMPDEST DUP7 DUP4 LT ISZERO PUSH2 0x1FB9 JUMPI DUP5 DUP10 ADD MLOAD PUSH2 0x1FB5 PUSH1 0x1F DUP10 AND DUP3 PUSH2 0x1D8F JUMP JUMPDEST DUP4 SSTORE POP JUMPDEST PUSH1 0x1 PUSH1 0x2 DUP9 MUL ADD DUP9 SSTORE POP POP POP JUMPDEST POP POP POP POP POP POP JUMP JUMPDEST PUSH1 0x0 PUSH2 0x1FD9 DUP3 PUSH2 0x1251 JUMP JUMPDEST SWAP2 POP PUSH2 0x1FE4 DUP4 PUSH2 0x1251 JUMP JUMPDEST SWAP3 POP DUP3 DUP3 ADD SWAP1 POP DUP1 DUP3 GT ISZERO PUSH2 0x1FFC JUMPI PUSH2 0x1FFB PUSH2 0x18C4 JUMP JUMPDEST JUMPDEST SWAP3 SWAP2 POP POP JUMP INVALID LOG2 PUSH5 0x6970667358 0x22 SLT KECCAK256 STATICCALL 0xC2 INVALID SDIV PUSH30 0xBBB2C2A7823362AB7D712183C4AC98DF0743DD845A45DCBB30ACB064736F PUSH13 0x63430008150033000000000000 "},"methodIdentifiers":{"admin()":"f851a440","batchVote(string[],uint256[])":"51094c53","getCandidates(string)":"45534763","getVoteCounts()":"ffc97b20","isFinalized()":"8d4e4083","resetCandidates()":"7718d9f3","submitCandidates(string[],string[][],string[][])":"95dbea06"}}}}}