{"contracts/AdminCandidates.sol":{"AdminCandidates":{"abi":[{"inputs":[],"stateMutability":"nonpayable","type":"constructor"},{"anonymous":false,"inputs":[],"name":"CandidatesSubmitted","type":"event"},{"anonymous":false,"inputs":[{"indexed":false,"internalType":"string","name":"position","type":"string"},{"indexed":false,"internalType":"string","name":"name","type":"string"},{"indexed":false,"internalType":"address","name":"voter","type":"address"}],"name":"VoteSubmitted","type":"event"},{"inputs":[],"name":"admin","outputs":[{"internalType":"address","name":"","type":"address"}],"stateMutability":"view","type":"function"},{"inputs":[{"internalType":"string","name":"_position","type":"string"}],"name":"getCandidates","outputs":[{"components":[{"internalType":"string","name":"name","type":"string"},{"internalType":"string","name":"party","type":"string"},{"internalType":"string","name":"position","type":"string"},{"internalType":"uint256","name":"votes","type":"uint256"}],"internalType":"struct AdminCandidates.Candidate[]","name":"","type":"tuple[]"}],"stateMutability":"view","type":"function"},{"inputs":[],"name":"getVoteCounts","outputs":[{"components":[{"internalType":"string","name":"name","type":"string"},{"internalType":"string","name":"party","type":"string"},{"internalType":"string","name":"position","type":"string"},{"internalType":"uint256","name":"votes","type":"uint256"}],"internalType":"struct AdminCandidates.Candidate[]","name":"","type":"tuple[]"}],"stateMutability":"view","type":"function"},{"inputs":[],"name":"isFinalized","outputs":[{"internalType":"bool","name":"","type":"bool"}],"stateMutability":"view","type":"function"},{"inputs":[{"internalType":"string[]","name":"_positions","type":"string[]"},{"internalType":"string[][]","name":"_names","type":"string[][]"},{"internalType":"string[][]","name":"_parties","type":"string[][]"}],"name":"submitCandidates","outputs":[],"stateMutability":"nonpayable","type":"function"},{"inputs":[{"internalType":"string","name":"_position","type":"string"},{"internalType":"uint256","name":"_index","type":"uint256"}],"name":"vote","outputs":[],"stateMutability":"nonpayable","type":"function"}],"evm":{"bytecode":{"linkReferences":{},"object":"60806040526000600360146101000a81548160ff02191690831515021790555034801561002b57600080fd5b5033600360006101000a81548173ffffffffffffffffffffffffffffffffffffffff021916908373ffffffffffffffffffffffffffffffffffffffff160217905550611bf18061007c6000396000f3fe608060405234801561001057600080fd5b50600436106100625760003560e01c806345534763146100675780638d4e40831461009757806395dbea06146100b5578063a6385803146100d1578063f851a440146100ed578063ffc97b201461010b575b600080fd5b610081600480360381019061007c9190610e8f565b610129565b60405161008e91906110a3565b60405180910390f35b61009f610366565b6040516100ac91906110e0565b60405180910390f35b6100cf60048036038101906100ca91906112c2565b610379565b005b6100eb60048036038101906100e69190611395565b610736565b005b6100f561085b565b6040516101029190611432565b60405180910390f35b610113610881565b60405161012091906110a3565b60405180910390f35b606060008260405161013b9190611489565b9081526020016040518091039020805480602002602001604051908101604052809291908181526020016000905b8282101561035b578382906000526020600020906004020160405180608001604052908160008201805461019c906114cf565b80601f01602080910402602001604051908101604052809291908181526020018280546101c8906114cf565b80156102155780601f106101ea57610100808354040283529160200191610215565b820191906000526020600020905b8154815290600101906020018083116101f857829003601f168201915b5050505050815260200160018201805461022e906114cf565b80601f016020809104026020016040519081016040528092919081815260200182805461025a906114cf565b80156102a75780601f1061027c576101008083540402835291602001916102a7565b820191906000526020600020905b81548152906001019060200180831161028a57829003601f168201915b505050505081526020016002820180546102c0906114cf565b80601f01602080910402602001604051908101604052809291908181526020018280546102ec906114cf565b80156103395780601f1061030e57610100808354040283529160200191610339565b820191906000526020600020905b81548152906001019060200180831161031c57829003601f168201915b5050505050815260200160038201548152505081526020019060010190610169565b505050509050919050565b600360149054906101000a900460ff1681565b600360009054906101000a900473ffffffffffffffffffffffffffffffffffffffff1673ffffffffffffffffffffffffffffffffffffffff163373ffffffffffffffffffffffffffffffffffffffff1614610409576040517f08c379a000000000000000000000000000000000000000000000000000000000815260040161040090611583565b60405180910390fd5b600360149054906101000a900460ff1615610459576040517f08c379a000000000000000000000000000000000000000000000000000000000815260040161045090611615565b60405180910390fd5b600260006104679190610bf8565b60005b83518110156106e95760008085838151811061048957610488611635565b5b602002602001015160405161049e9190611489565b908152602001604051809103902080549050036105055760028482815181106104ca576104c9611635565b5b60200260200101519080600181540180825580915050600190039060005260206000200160009091909190915090816105039190611810565b505b600084828151811061051a57610519611635565b5b602002602001015160405161052f9190611489565b908152602001604051809103902060006105499190610c19565b60005b83828151811061055f5761055e611635565b5b6020026020010151518110156106d557600085838151811061058457610583611635565b5b60200260200101516040516105999190611489565b908152602001604051809103902060405180608001604052808685815181106105c5576105c4611635565b5b602002602001015184815181106105df576105de611635565b5b602002602001015181526020018585815181106105ff576105fe611635565b5b6020026020010151848151811061061957610618611635565b5b6020026020010151815260200187858151811061063957610638611635565b5b602002602001015181526020016000815250908060018154018082558091505060019003906000526020600020906004020160009091909190915060008201518160000190816106899190611810565b50602082015181600101908161069f9190611810565b5060408201518160020190816106b59190611810565b5060608201518160030155505080806106cd90611911565b91505061054c565b5080806106e190611911565b91505061046a565b506001600360146101000a81548160ff0219169083151502179055507f86825b43264ca968e676c45c8e05cc56965ff5938ed49dcf636c61acb7070bd760405160405180910390a1505050565b600360149054906101000a900460ff16610785576040517f08c379a000000000000000000000000000000000000000000000000000000000815260040161077c906119cb565b60405180910390fd5b6000826040516107959190611489565b908152602001604051809103902081815481106107b5576107b4611635565b5b906000526020600020906004020160030160008154809291906107d790611911565b91905055507f1b381b38c380bfb906cc626e80fedde86905216a4d956a279df2e37802d3316e8260008460405161080e9190611489565b9081526020016040518091039020838154811061082e5761082d611635565b5b90600052602060002090600402016000013360405161084f93929190611aa8565b60405180910390a15050565b600360009054906101000a900473ffffffffffffffffffffffffffffffffffffffff1681565b6060600080600090505b6002805490508110156108f7576000600282815481106108ae576108ad611635565b5b906000526020600020016040516108c59190611b70565b908152602001604051809103902080549050826108e29190611b87565b915080806108ef90611911565b91505061088b565b5060008167ffffffffffffffff81111561091457610913610d64565b5b60405190808252806020026020018201604052801561094d57816020015b61093a610c3d565b8152602001906001900390816109325790505b5090506000805b600280549050811015610bee576000806002838154811061097857610977611635565b5b9060005260206000200160405161098f9190611b70565b9081526020016040518091039020905060005b8180549050811015610bd9578181815481106109c1576109c0611635565b5b90600052602060002090600402016040518060800160405290816000820180546109ea906114cf565b80601f0160208091040260200160405190810160405280929190818152602001828054610a16906114cf565b8015610a635780601f10610a3857610100808354040283529160200191610a63565b820191906000526020600020905b815481529060010190602001808311610a4657829003601f168201915b50505050508152602001600182018054610a7c906114cf565b80601f0160208091040260200160405190810160405280929190818152602001828054610aa8906114cf565b8015610af55780601f10610aca57610100808354040283529160200191610af5565b820191906000526020600020905b815481529060010190602001808311610ad857829003601f168201915b50505050508152602001600282018054610b0e906114cf565b80601f0160208091040260200160405190810160405280929190818152602001828054610b3a906114cf565b8015610b875780601f10610b5c57610100808354040283529160200191610b87565b820191906000526020600020905b815481529060010190602001808311610b6a57829003601f168201915b50505050508152602001600382015481525050858581518110610bad57610bac611635565b5b60200260200101819052508380610bc390611911565b9450508080610bd190611911565b9150506109a2565b50508080610be690611911565b915050610954565b5081935050505090565b5080546000825590600052602060002090810190610c169190610c65565b50565b5080546000825560040290600052602060002090810190610c3a9190610c89565b50565b6040518060800160405280606081526020016060815260200160608152602001600081525090565b5b80821115610c855760008181610c7c9190610cd8565b50600101610c66565b5090565b5b80821115610cd45760008082016000610ca39190610cd8565b600182016000610cb39190610cd8565b600282016000610cc39190610cd8565b600382016000905550600401610c8a565b5090565b508054610ce4906114cf565b6000825580601f10610cf65750610d15565b601f016020900490600052602060002090810190610d149190610d18565b5b50565b5b80821115610d31576000816000905550600101610d19565b5090565b6000604051905090565b600080fd5b600080fd5b600080fd5b600080fd5b6000601f19601f8301169050919050565b7f4e487b7100000000000000000000000000000000000000000000000000000000600052604160045260246000fd5b610d9c82610d53565b810181811067ffffffffffffffff82111715610dbb57610dba610d64565b5b80604052505050565b6000610dce610d35565b9050610dda8282610d93565b919050565b600067ffffffffffffffff821115610dfa57610df9610d64565b5b610e0382610d53565b9050602081019050919050565b82818337600083830152505050565b6000610e32610e2d84610ddf565b610dc4565b905082815260208101848484011115610e4e57610e4d610d4e565b5b610e59848285610e10565b509392505050565b600082601f830112610e7657610e75610d49565b5b8135610e86848260208601610e1f565b91505092915050565b600060208284031215610ea557610ea4610d3f565b5b600082013567ffffffffffffffff811115610ec357610ec2610d44565b5b610ecf84828501610e61565b91505092915050565b600081519050919050565b600082825260208201905092915050565b6000819050602082019050919050565b600081519050919050565b600082825260208201905092915050565b60005b83811015610f3e578082015181840152602081019050610f23565b60008484015250505050565b6000610f5582610f04565b610f5f8185610f0f565b9350610f6f818560208601610f20565b610f7881610d53565b840191505092915050565b6000819050919050565b610f9681610f83565b82525050565b60006080830160008301518482036000860152610fb98282610f4a565b91505060208301518482036020860152610fd38282610f4a565b91505060408301518482036040860152610fed8282610f4a565b91505060608301516110026060860182610f8d565b508091505092915050565b60006110198383610f9c565b905092915050565b6000602082019050919050565b600061103982610ed8565b6110438185610ee3565b93508360208202850161105585610ef4565b8060005b858110156110915784840389528151611072858261100d565b945061107d83611021565b925060208a01995050600181019050611059565b50829750879550505050505092915050565b600060208201905081810360008301526110bd818461102e565b905092915050565b60008115159050919050565b6110da816110c5565b82525050565b60006020820190506110f560008301846110d1565b92915050565b600067ffffffffffffffff82111561111657611115610d64565b5b602082029050602081019050919050565b600080fd5b600061113f61113a846110fb565b610dc4565b9050808382526020820190506020840283018581111561116257611161611127565b5b835b818110156111a957803567ffffffffffffffff81111561118757611186610d49565b5b8086016111948982610e61565b85526020850194505050602081019050611164565b5050509392505050565b600082601f8301126111c8576111c7610d49565b5b81356111d884826020860161112c565b91505092915050565b600067ffffffffffffffff8211156111fc576111fb610d64565b5b602082029050602081019050919050565b600061122061121b846111e1565b610dc4565b9050808382526020820190506020840283018581111561124357611242611127565b5b835b8181101561128a57803567ffffffffffffffff81111561126857611267610d49565b5b80860161127589826111b3565b85526020850194505050602081019050611245565b5050509392505050565b600082601f8301126112a9576112a8610d49565b5b81356112b984826020860161120d565b91505092915050565b6000806000606084860312156112db576112da610d3f565b5b600084013567ffffffffffffffff8111156112f9576112f8610d44565b5b611305868287016111b3565b935050602084013567ffffffffffffffff81111561132657611325610d44565b5b61133286828701611294565b925050604084013567ffffffffffffffff81111561135357611352610d44565b5b61135f86828701611294565b9150509250925092565b61137281610f83565b811461137d57600080fd5b50565b60008135905061138f81611369565b92915050565b600080604083850312156113ac576113ab610d3f565b5b600083013567ffffffffffffffff8111156113ca576113c9610d44565b5b6113d685828601610e61565b92505060206113e785828601611380565b9150509250929050565b600073ffffffffffffffffffffffffffffffffffffffff82169050919050565b600061141c826113f1565b9050919050565b61142c81611411565b82525050565b60006020820190506114476000830184611423565b92915050565b600081905092915050565b600061146382610f04565b61146d818561144d565b935061147d818560208601610f20565b80840191505092915050565b60006114958284611458565b915081905092915050565b7f4e487b7100000000000000000000000000000000000000000000000000000000600052602260045260246000fd5b600060028204905060018216806114e757607f821691505b6020821081036114fa576114f96114a0565b5b50919050565b600082825260208201905092915050565b7f4f6e6c792061646d696e2063616e20706572666f726d2074686973206163746960008201527f6f6e000000000000000000000000000000000000000000000000000000000000602082015250565b600061156d602283611500565b915061157882611511565b604082019050919050565b6000602082019050818103600083015261159c81611560565b9050919050565b7f43616e646964617465732061726520616c72656164792066696e616c697a656460008201527f2100000000000000000000000000000000000000000000000000000000000000602082015250565b60006115ff602183611500565b915061160a826115a3565b604082019050919050565b6000602082019050818103600083015261162e816115f2565b9050919050565b7f4e487b7100000000000000000000000000000000000000000000000000000000600052603260045260246000fd5b60008190508160005260206000209050919050565b60006020601f8301049050919050565b600082821b905092915050565b6000600883026116c67fffffffffffffffffffffffffffffffffffffffffffffffffffffffffffffffff82611689565b6116d08683611689565b95508019841693508086168417925050509392505050565b6000819050919050565b600061170d61170861170384610f83565b6116e8565b610f83565b9050919050565b6000819050919050565b611727836116f2565b61173b61173382611714565b848454611696565b825550505050565b600090565b611750611743565b61175b81848461171e565b505050565b5b8181101561177f57611774600082611748565b600181019050611761565b5050565b601f8211156117c45761179581611664565b61179e84611679565b810160208510156117ad578190505b6117c16117b985611679565b830182611760565b50505b505050565b600082821c905092915050565b60006117e7600019846008026117c9565b1980831691505092915050565b600061180083836117d6565b9150826002028217905092915050565b61181982610f04565b67ffffffffffffffff81111561183257611831610d64565b5b61183c82546114cf565b611847828285611783565b600060209050601f83116001811461187a5760008415611868578287015190505b61187285826117f4565b8655506118da565b601f19841661188886611664565b60005b828110156118b05784890151825560018201915060208501945060208101905061188b565b868310156118cd57848901516118c9601f8916826117d6565b8355505b6001600288020188555050505b505050505050565b7f4e487b7100000000000000000000000000000000000000000000000000000000600052601160045260246000fd5b600061191c82610f83565b91507fffffffffffffffffffffffffffffffffffffffffffffffffffffffffffffffff820361194e5761194d6118e2565b5b600182019050919050565b7f566f74696e672063616e6e6f7420737461727420756e74696c2063616e64696460008201527f61746573206172652066696e616c697a65642100000000000000000000000000602082015250565b60006119b5603383611500565b91506119c082611959565b604082019050919050565b600060208201905081810360008301526119e4816119a8565b9050919050565b60006119f682610f04565b611a008185611500565b9350611a10818560208601610f20565b611a1981610d53565b840191505092915050565b60008154611a31816114cf565b611a3b8186611500565b94506001821660008114611a565760018114611a6c57611a9f565b60ff198316865281151560200286019350611a9f565b611a7585611664565b60005b83811015611a9757815481890152600182019150602081019050611a78565b808801955050505b50505092915050565b60006060820190508181036000830152611ac281866119eb565b90508181036020830152611ad68185611a24565b9050611ae56040830184611423565b949350505050565b60008154611afa816114cf565b611b04818661144d565b94506001821660008114611b1f5760018114611b3457611b67565b60ff1983168652811515820286019350611b67565b611b3d85611664565b60005b83811015611b5f57815481890152600182019150602081019050611b40565b838801955050505b50505092915050565b6000611b7c8284611aed565b915081905092915050565b6000611b9282610f83565b9150611b9d83610f83565b9250828201905080821115611bb557611bb46118e2565b5b9291505056fea2646970667358221220b2fab77f29aace6622e81f2a049ae65b36c7ee33d9b9b263a82a4854ee4cf61364736f6c63430008150033","opcodes":"PUSH1 0x80 PUSH1 0x40 MSTORE PUSH1 0x0 PUSH1 0x3 PUSH1 0x14 PUSH2 0x100 EXP DUP2 SLOAD DUP2 PUSH1 0xFF MUL NOT AND SWAP1 DUP4 ISZERO ISZERO MUL OR SWAP1 SSTORE POP CALLVALUE DUP1 ISZERO PUSH2 0x2B JUMPI PUSH1 0x0 DUP1 REVERT JUMPDEST POP CALLER PUSH1 0x3 PUSH1 0x0 PUSH2 0x100 EXP DUP2 SLOAD DUP2 PUSH20 0xFFFFFFFFFFFFFFFFFFFFFFFFFFFFFFFFFFFFFFFF MUL NOT AND SWAP1 DUP4 PUSH20 0xFFFFFFFFFFFFFFFFFFFFFFFFFFFFFFFFFFFFFFFF AND MUL OR SWAP1 SSTORE POP PUSH2 0x1BF1 DUP1 PUSH2 0x7C PUSH1 0x0 CODECOPY PUSH1 0x0 RETURN INVALID PUSH1 0x80 PUSH1 0x40 MSTORE CALLVALUE DUP1 ISZERO PUSH2 0x10 JUMPI PUSH1 0x0 DUP1 REVERT JUMPDEST POP PUSH1 0x4 CALLDATASIZE LT PUSH2 0x62 JUMPI PUSH1 0x0 CALLDATALOAD PUSH1 0xE0 SHR DUP1 PUSH4 0x45534763 EQ PUSH2 0x67 JUMPI DUP1 PUSH4 0x8D4E4083 EQ PUSH2 0x97 JUMPI DUP1 PUSH4 0x95DBEA06 EQ PUSH2 0xB5 JUMPI DUP1 PUSH4 0xA6385803 EQ PUSH2 0xD1 JUMPI DUP1 PUSH4 0xF851A440 EQ PUSH2 0xED JUMPI DUP1 PUSH4 0xFFC97B20 EQ PUSH2 0x10B JUMPI JUMPDEST PUSH1 0x0 DUP1 REVERT JUMPDEST PUSH2 0x81 PUSH1 0x4 DUP1 CALLDATASIZE SUB DUP2 ADD SWAP1 PUSH2 0x7C SWAP2 SWAP1 PUSH2 0xE8F JUMP JUMPDEST PUSH2 0x129 JUMP JUMPDEST PUSH1 0x40 MLOAD PUSH2 0x8E SWAP2 SWAP1 PUSH2 0x10A3 JUMP JUMPDEST PUSH1 0x40 MLOAD DUP1 SWAP2 SUB SWAP1 RETURN JUMPDEST PUSH2 0x9F PUSH2 0x366 JUMP JUMPDEST PUSH1 0x40 MLOAD PUSH2 0xAC SWAP2 SWAP1 PUSH2 0x10E0 JUMP JUMPDEST PUSH1 0x40 MLOAD DUP1 SWAP2 SUB SWAP1 RETURN JUMPDEST PUSH2 0xCF PUSH1 0x4 DUP1 CALLDATASIZE SUB DUP2 ADD SWAP1 PUSH2 0xCA SWAP2 SWAP1 PUSH2 0x12C2 JUMP JUMPDEST PUSH2 0x379 JUMP JUMPDEST STOP JUMPDEST PUSH2 0xEB PUSH1 0x4 DUP1 CALLDATASIZE SUB DUP2 ADD SWAP1 PUSH2 0xE6 SWAP2 SWAP1 PUSH2 0x1395 JUMP JUMPDEST PUSH2 0x736 JUMP JUMPDEST STOP JUMPDEST PUSH2 0xF5 PUSH2 0x85B JUMP JUMPDEST PUSH1 0x40 MLOAD PUSH2 0x102 SWAP2 SWAP1 PUSH2 0x1432 JUMP JUMPDEST PUSH1 0x40 MLOAD DUP1 SWAP2 SUB SWAP1 RETURN JUMPDEST PUSH2 0x113 PUSH2 0x881 JUMP JUMPDEST PUSH1 0x40 MLOAD PUSH2 0x120 SWAP2 SWAP1 PUSH2 0x10A3 JUMP JUMPDEST PUSH1 0x40 MLOAD DUP1 SWAP2 SUB SWAP1 RETURN JUMPDEST PUSH1 0x60 PUSH1 0x0 DUP3 PUSH1 0x40 MLOAD PUSH2 0x13B SWAP2 SWAP1 PUSH2 0x1489 JUMP JUMPDEST SWAP1 DUP2 MSTORE PUSH1 0x20 ADD PUSH1 0x40 MLOAD DUP1 SWAP2 SUB SWAP1 KECCAK256 DUP1 SLOAD DUP1 PUSH1 0x20 MUL PUSH1 0x20 ADD PUSH1 0x40 MLOAD SWAP1 DUP2 ADD PUSH1 0x40 MSTORE DUP1 SWAP3 SWAP2 SWAP1 DUP2 DUP2 MSTORE PUSH1 0x20 ADD PUSH1 0x0 SWAP1 JUMPDEST DUP3 DUP3 LT ISZERO PUSH2 0x35B JUMPI DUP4 DUP3 SWAP1 PUSH1 0x0 MSTORE PUSH1 0x20 PUSH1 0x0 KECCAK256 SWAP1 PUSH1 0x4 MUL ADD PUSH1 0x40 MLOAD DUP1 PUSH1 0x80 ADD PUSH1 0x40 MSTORE SWAP1 DUP2 PUSH1 0x0 DUP3 ADD DUP1 SLOAD PUSH2 0x19C SWAP1 PUSH2 0x14CF JUMP JUMPDEST DUP1 PUSH1 0x1F ADD PUSH1 0x20 DUP1 SWAP2 DIV MUL PUSH1 0x20 ADD PUSH1 0x40 MLOAD SWAP1 DUP2 ADD PUSH1 0x40 MSTORE DUP1 SWAP3 SWAP2 SWAP1 DUP2 DUP2 MSTORE PUSH1 0x20 ADD DUP3 DUP1 SLOAD PUSH2 0x1C8 SWAP1 PUSH2 0x14CF JUMP JUMPDEST DUP1 ISZERO PUSH2 0x215 JUMPI DUP1 PUSH1 0x1F LT PUSH2 0x1EA JUMPI PUSH2 0x100 DUP1 DUP4 SLOAD DIV MUL DUP4 MSTORE SWAP2 PUSH1 0x20 ADD SWAP2 PUSH2 0x215 JUMP JUMPDEST DUP3 ADD SWAP2 SWAP1 PUSH1 0x0 MSTORE PUSH1 0x20 PUSH1 0x0 KECCAK256 SWAP1 JUMPDEST DUP2 SLOAD DUP2 MSTORE SWAP1 PUSH1 0x1 ADD SWAP1 PUSH1 0x20 ADD DUP1 DUP4 GT PUSH2 0x1F8 JUMPI DUP3 SWAP1 SUB PUSH1 0x1F AND DUP3 ADD SWAP2 JUMPDEST POP POP POP POP POP DUP2 MSTORE PUSH1 0x20 ADD PUSH1 0x1 DUP3 ADD DUP1 SLOAD PUSH2 0x22E SWAP1 PUSH2 0x14CF JUMP JUMPDEST DUP1 PUSH1 0x1F ADD PUSH1 0x20 DUP1 SWAP2 DIV MUL PUSH1 0x20 ADD PUSH1 0x40 MLOAD SWAP1 DUP2 ADD PUSH1 0x40 MSTORE DUP1 SWAP3 SWAP2 SWAP1 DUP2 DUP2 MSTORE PUSH1 0x20 ADD DUP3 DUP1 SLOAD PUSH2 0x25A SWAP1 PUSH2 0x14CF JUMP JUMPDEST DUP1 ISZERO PUSH2 0x2A7 JUMPI DUP1 PUSH1 0x1F LT PUSH2 0x27C JUMPI PUSH2 0x100 DUP1 DUP4 SLOAD DIV MUL DUP4 MSTORE SWAP2 PUSH1 0x20 ADD SWAP2 PUSH2 0x2A7 JUMP JUMPDEST DUP3 ADD SWAP2 SWAP1 PUSH1 0x0 MSTORE PUSH1 0x20 PUSH1 0x0 KECCAK256 SWAP1 JUMPDEST DUP2 SLOAD DUP2 MSTORE SWAP1 PUSH1 0x1 ADD SWAP1 PUSH1 0x20 ADD DUP1 DUP4 GT PUSH2 0x28A JUMPI DUP3 SWAP1 SUB PUSH1 0x1F AND DUP3 ADD SWAP2 JUMPDEST POP POP POP POP POP DUP2 MSTORE PUSH1 0x20 ADD PUSH1 0x2 DUP3 ADD DUP1 SLOAD PUSH2 0x2C0 SWAP1 PUSH2 0x14CF JUMP JUMPDEST DUP1 PUSH1 0x1F ADD PUSH1 0x20 DUP1 SWAP2 DIV MUL PUSH1 0x20 ADD PUSH1 0x40 MLOAD SWAP1 DUP2 ADD PUSH1 0x40 MSTORE DUP1 SWAP3 SWAP2 SWAP1 DUP2 DUP2 MSTORE PUSH1 0x20 ADD DUP3 DUP1 SLOAD PUSH2 0x2EC SWAP1 PUSH2 0x14CF JUMP JUMPDEST DUP1 ISZERO PUSH2 0x339 JUMPI DUP1 PUSH1 0x1F LT PUSH2 0x30E JUMPI PUSH2 0x100 DUP1 DUP4 SLOAD DIV MUL DUP4 MSTORE SWAP2 PUSH1 0x20 ADD SWAP2 PUSH2 0x339 JUMP JUMPDEST DUP3 ADD SWAP2 SWAP1 PUSH1 0x0 MSTORE PUSH1 0x20 PUSH1 0x0 KECCAK256 SWAP1 JUMPDEST DUP2 SLOAD DUP2 MSTORE SWAP1 PUSH1 0x1 ADD SWAP1 PUSH1 0x20 ADD DUP1 DUP4 GT PUSH2 0x31C JUMPI DUP3 SWAP1 SUB PUSH1 0x1F AND DUP3 ADD SWAP2 JUMPDEST POP POP POP POP POP DUP2 MSTORE PUSH1 0x20 ADD PUSH1 0x3 DUP3 ADD SLOAD DUP2 MSTORE POP POP DUP2 MSTORE PUSH1 0x20 ADD SWAP1 PUSH1 0x1 ADD SWAP1 PUSH2 0x169 JUMP JUMPDEST POP POP POP POP SWAP1 POP SWAP2 SWAP1 POP JUMP JUMPDEST PUSH1 0x3 PUSH1 0x14 SWAP1 SLOAD SWAP1 PUSH2 0x100 EXP SWAP1 DIV PUSH1 0xFF AND DUP2 JUMP JUMPDEST PUSH1 0x3 PUSH1 0x0 SWAP1 SLOAD SWAP1 PUSH2 0x100 EXP SWAP1 DIV PUSH20 0xFFFFFFFFFFFFFFFFFFFFFFFFFFFFFFFFFFFFFFFF AND PUSH20 0xFFFFFFFFFFFFFFFFFFFFFFFFFFFFFFFFFFFFFFFF AND CALLER PUSH20 0xFFFFFFFFFFFFFFFFFFFFFFFFFFFFFFFFFFFFFFFF AND EQ PUSH2 0x409 JUMPI PUSH1 0x40 MLOAD PUSH32 0x8C379A000000000000000000000000000000000000000000000000000000000 DUP2 MSTORE PUSH1 0x4 ADD PUSH2 0x400 SWAP1 PUSH2 0x1583 JUMP JUMPDEST PUSH1 0x40 MLOAD DUP1 SWAP2 SUB SWAP1 REVERT JUMPDEST PUSH1 0x3 PUSH1 0x14 SWAP1 SLOAD SWAP1 PUSH2 0x100 EXP SWAP1 DIV PUSH1 0xFF AND ISZERO PUSH2 0x459 JUMPI PUSH1 0x40 MLOAD PUSH32 0x8C379A000000000000000000000000000000000000000000000000000000000 DUP2 MSTORE PUSH1 0x4 ADD PUSH2 0x450 SWAP1 PUSH2 0x1615 JUMP JUMPDEST PUSH1 0x40 MLOAD DUP1 SWAP2 SUB SWAP1 REVERT JUMPDEST PUSH1 0x2 PUSH1 0x0 PUSH2 0x467 SWAP2 SWAP1 PUSH2 0xBF8 JUMP JUMPDEST PUSH1 0x0 JUMPDEST DUP4 MLOAD DUP2 LT ISZERO PUSH2 0x6E9 JUMPI PUSH1 0x0 DUP1 DUP6 DUP4 DUP2 MLOAD DUP2 LT PUSH2 0x489 JUMPI PUSH2 0x488 PUSH2 0x1635 JUMP JUMPDEST JUMPDEST PUSH1 0x20 MUL PUSH1 0x20 ADD ADD MLOAD PUSH1 0x40 MLOAD PUSH2 0x49E SWAP2 SWAP1 PUSH2 0x1489 JUMP JUMPDEST SWAP1 DUP2 MSTORE PUSH1 0x20 ADD PUSH1 0x40 MLOAD DUP1 SWAP2 SUB SWAP1 KECCAK256 DUP1 SLOAD SWAP1 POP SUB PUSH2 0x505 JUMPI PUSH1 0x2 DUP5 DUP3 DUP2 MLOAD DUP2 LT PUSH2 0x4CA JUMPI PUSH2 0x4C9 PUSH2 0x1635 JUMP JUMPDEST JUMPDEST PUSH1 0x20 MUL PUSH1 0x20 ADD ADD MLOAD SWAP1 DUP1 PUSH1 0x1 DUP2 SLOAD ADD DUP1 DUP3 SSTORE DUP1 SWAP2 POP POP PUSH1 0x1 SWAP1 SUB SWAP1 PUSH1 0x0 MSTORE PUSH1 0x20 PUSH1 0x0 KECCAK256 ADD PUSH1 0x0 SWAP1 SWAP2 SWAP1 SWAP2 SWAP1 SWAP2 POP SWAP1 DUP2 PUSH2 0x503 SWAP2 SWAP1 PUSH2 0x1810 JUMP JUMPDEST POP JUMPDEST PUSH1 0x0 DUP5 DUP3 DUP2 MLOAD DUP2 LT PUSH2 0x51A JUMPI PUSH2 0x519 PUSH2 0x1635 JUMP JUMPDEST JUMPDEST PUSH1 0x20 MUL PUSH1 0x20 ADD ADD MLOAD PUSH1 0x40 MLOAD PUSH2 0x52F SWAP2 SWAP1 PUSH2 0x1489 JUMP JUMPDEST SWAP1 DUP2 MSTORE PUSH1 0x20 ADD PUSH1 0x40 MLOAD DUP1 SWAP2 SUB SWAP1 KECCAK256 PUSH1 0x0 PUSH2 0x549 SWAP2 SWAP1 PUSH2 0xC19 JUMP JUMPDEST PUSH1 0x0 JUMPDEST DUP4 DUP3 DUP2 MLOAD DUP2 LT PUSH2 0x55F JUMPI PUSH2 0x55E PUSH2 0x1635 JUMP JUMPDEST JUMPDEST PUSH1 0x20 MUL PUSH1 0x20 ADD ADD MLOAD MLOAD DUP2 LT ISZERO PUSH2 0x6D5 JUMPI PUSH1 0x0 DUP6 DUP4 DUP2 MLOAD DUP2 LT PUSH2 0x584 JUMPI PUSH2 0x583 PUSH2 0x1635 JUMP JUMPDEST JUMPDEST PUSH1 0x20 MUL PUSH1 0x20 ADD ADD MLOAD PUSH1 0x40 MLOAD PUSH2 0x599 SWAP2 SWAP1 PUSH2 0x1489 JUMP JUMPDEST SWAP1 DUP2 MSTORE PUSH1 0x20 ADD PUSH1 0x40 MLOAD DUP1 SWAP2 SUB SWAP1 KECCAK256 PUSH1 0x40 MLOAD DUP1 PUSH1 0x80 ADD PUSH1 0x40 MSTORE DUP1 DUP7 DUP6 DUP2 MLOAD DUP2 LT PUSH2 0x5C5 JUMPI PUSH2 0x5C4 PUSH2 0x1635 JUMP JUMPDEST JUMPDEST PUSH1 0x20 MUL PUSH1 0x20 ADD ADD MLOAD DUP5 DUP2 MLOAD DUP2 LT PUSH2 0x5DF JUMPI PUSH2 0x5DE PUSH2 0x1635 JUMP JUMPDEST JUMPDEST PUSH1 0x20 MUL PUSH1 0x20 ADD ADD MLOAD DUP2 MSTORE PUSH1 0x20 ADD DUP6 DUP6 DUP2 MLOAD DUP2 LT PUSH2 0x5FF JUMPI PUSH2 0x5FE PUSH2 0x1635 JUMP JUMPDEST JUMPDEST PUSH1 0x20 MUL PUSH1 0x20 ADD ADD MLOAD DUP5 DUP2 MLOAD DUP2 LT PUSH2 0x619 JUMPI PUSH2 0x618 PUSH2 0x1635 JUMP JUMPDEST JUMPDEST PUSH1 0x20 MUL PUSH1 0x20 ADD ADD MLOAD DUP2 MSTORE PUSH1 0x20 ADD DUP8 DUP6 DUP2 MLOAD DUP2 LT PUSH2 0x639 JUMPI PUSH2 0x638 PUSH2 0x1635 JUMP JUMPDEST JUMPDEST PUSH1 0x20 MUL PUSH1 0x20 ADD ADD MLOAD DUP2 MSTORE PUSH1 0x20 ADD PUSH1 0x0 DUP2 MSTORE POP SWAP1 DUP1 PUSH1 0x1 DUP2 SLOAD ADD DUP1 DUP3 SSTORE DUP1 SWAP2 POP POP PUSH1 0x1 SWAP1 SUB SWAP1 PUSH1 0x0 MSTORE PUSH1 0x20 PUSH1 0x0 KECCAK256 SWAP1 PUSH1 0x4 MUL ADD PUSH1 0x0 SWAP1 SWAP2 SWAP1 SWAP2 SWAP1 SWAP2 POP PUSH1 0x0 DUP3 ADD MLOAD DUP2 PUSH1 0x0 ADD SWAP1 DUP2 PUSH2 0x689 SWAP2 SWAP1 PUSH2 0x1810 JUMP JUMPDEST POP PUSH1 0x20 DUP3 ADD MLOAD DUP2 PUSH1 0x1 ADD SWAP1 DUP2 PUSH2 0x69F SWAP2 SWAP1 PUSH2 0x1810 JUMP JUMPDEST POP PUSH1 0x40 DUP3 ADD MLOAD DUP2 PUSH1 0x2 ADD SWAP1 DUP2 PUSH2 0x6B5 SWAP2 SWAP1 PUSH2 0x1810 JUMP JUMPDEST POP PUSH1 0x60 DUP3 ADD MLOAD DUP2 PUSH1 0x3 ADD SSTORE POP POP DUP1 DUP1 PUSH2 0x6CD SWAP1 PUSH2 0x1911 JUMP JUMPDEST SWAP2 POP POP PUSH2 0x54C JUMP JUMPDEST POP DUP1 DUP1 PUSH2 0x6E1 SWAP1 PUSH2 0x1911 JUMP JUMPDEST SWAP2 POP POP PUSH2 0x46A JUMP JUMPDEST POP PUSH1 0x1 PUSH1 0x3 PUSH1 0x14 PUSH2 0x100 EXP DUP2 SLOAD DUP2 PUSH1 0xFF MUL NOT AND SWAP1 DUP4 ISZERO ISZERO MUL OR SWAP1 SSTORE POP PUSH32 0x86825B43264CA968E676C45C8E05CC56965FF5938ED49DCF636C61ACB7070BD7 PUSH1 0x40 MLOAD PUSH1 0x40 MLOAD DUP1 SWAP2 SUB SWAP1 LOG1 POP POP POP JUMP JUMPDEST PUSH1 0x3 PUSH1 0x14 SWAP1 SLOAD SWAP1 PUSH2 0x100 EXP SWAP1 DIV PUSH1 0xFF AND PUSH2 0x785 JUMPI PUSH1 0x40 MLOAD PUSH32 0x8C379A000000000000000000000000000000000000000000000000000000000 DUP2 MSTORE PUSH1 0x4 ADD PUSH2 0x77C SWAP1 PUSH2 0x19CB JUMP JUMPDEST PUSH1 0x40 MLOAD DUP1 SWAP2 SUB SWAP1 REVERT JUMPDEST PUSH1 0x0 DUP3 PUSH1 0x40 MLOAD PUSH2 0x795 SWAP2 SWAP1 PUSH2 0x1489 JUMP JUMPDEST SWAP1 DUP2 MSTORE PUSH1 0x20 ADD PUSH1 0x40 MLOAD DUP1 SWAP2 SUB SWAP1 KECCAK256 DUP2 DUP2 SLOAD DUP2 LT PUSH2 0x7B5 JUMPI PUSH2 0x7B4 PUSH2 0x1635 JUMP JUMPDEST JUMPDEST SWAP1 PUSH1 0x0 MSTORE PUSH1 0x20 PUSH1 0x0 KECCAK256 SWAP1 PUSH1 0x4 MUL ADD PUSH1 0x3 ADD PUSH1 0x0 DUP2 SLOAD DUP1 SWAP3 SWAP2 SWAP1 PUSH2 0x7D7 SWAP1 PUSH2 0x1911 JUMP JUMPDEST SWAP2 SWAP1 POP SSTORE POP PUSH32 0x1B381B38C380BFB906CC626E80FEDDE86905216A4D956A279DF2E37802D3316E DUP3 PUSH1 0x0 DUP5 PUSH1 0x40 MLOAD PUSH2 0x80E SWAP2 SWAP1 PUSH2 0x1489 JUMP JUMPDEST SWAP1 DUP2 MSTORE PUSH1 0x20 ADD PUSH1 0x40 MLOAD DUP1 SWAP2 SUB SWAP1 KECCAK256 DUP4 DUP2 SLOAD DUP2 LT PUSH2 0x82E JUMPI PUSH2 0x82D PUSH2 0x1635 JUMP JUMPDEST JUMPDEST SWAP1 PUSH1 0x0 MSTORE PUSH1 0x20 PUSH1 0x0 KECCAK256 SWAP1 PUSH1 0x4 MUL ADD PUSH1 0x0 ADD CALLER PUSH1 0x40 MLOAD PUSH2 0x84F SWAP4 SWAP3 SWAP2 SWAP1 PUSH2 0x1AA8 JUMP JUMPDEST PUSH1 0x40 MLOAD DUP1 SWAP2 SUB SWAP1 LOG1 POP POP JUMP JUMPDEST PUSH1 0x3 PUSH1 0x0 SWAP1 SLOAD SWAP1 PUSH2 0x100 EXP SWAP1 DIV PUSH20 0xFFFFFFFFFFFFFFFFFFFFFFFFFFFFFFFFFFFFFFFF AND DUP2 JUMP JUMPDEST PUSH1 0x60 PUSH1 0x0 DUP1 PUSH1 0x0 SWAP1 POP JUMPDEST PUSH1 0x2 DUP1 SLOAD SWAP1 POP DUP2 LT ISZERO PUSH2 0x8F7 JUMPI PUSH1 0x0 PUSH1 0x2 DUP3 DUP2 SLOAD DUP2 LT PUSH2 0x8AE JUMPI PUSH2 0x8AD PUSH2 0x1635 JUMP JUMPDEST JUMPDEST SWAP1 PUSH1 0x0 MSTORE PUSH1 0x20 PUSH1 0x0 KECCAK256 ADD PUSH1 0x40 MLOAD PUSH2 0x8C5 SWAP2 SWAP1 PUSH2 0x1B70 JUMP JUMPDEST SWAP1 DUP2 MSTORE PUSH1 0x20 ADD PUSH1 0x40 MLOAD DUP1 SWAP2 SUB SWAP1 KECCAK256 DUP1 SLOAD SWAP1 POP DUP3 PUSH2 0x8E2 SWAP2 SWAP1 PUSH2 0x1B87 JUMP JUMPDEST SWAP2 POP DUP1 DUP1 PUSH2 0x8EF SWAP1 PUSH2 0x1911 JUMP JUMPDEST SWAP2 POP POP PUSH2 0x88B JUMP JUMPDEST POP PUSH1 0x0 DUP2 PUSH8 0xFFFFFFFFFFFFFFFF DUP2 GT ISZERO PUSH2 0x914 JUMPI PUSH2 0x913 PUSH2 0xD64 JUMP JUMPDEST JUMPDEST PUSH1 0x40 MLOAD SWAP1 DUP1 DUP3 MSTORE DUP1 PUSH1 0x20 MUL PUSH1 0x20 ADD DUP3 ADD PUSH1 0x40 MSTORE DUP1 ISZERO PUSH2 0x94D JUMPI DUP2 PUSH1 0x20 ADD JUMPDEST PUSH2 0x93A PUSH2 0xC3D JUMP JUMPDEST DUP2 MSTORE PUSH1 0x20 ADD SWAP1 PUSH1 0x1 SWAP1 SUB SWAP1 DUP2 PUSH2 0x932 JUMPI SWAP1 POP JUMPDEST POP SWAP1 POP PUSH1 0x0 DUP1 JUMPDEST PUSH1 0x2 DUP1 SLOAD SWAP1 POP DUP2 LT ISZERO PUSH2 0xBEE JUMPI PUSH1 0x0 DUP1 PUSH1 0x2 DUP4 DUP2 SLOAD DUP2 LT PUSH2 0x978 JUMPI PUSH2 0x977 PUSH2 0x1635 JUMP JUMPDEST JUMPDEST SWAP1 PUSH1 0x0 MSTORE PUSH1 0x20 PUSH1 0x0 KECCAK256 ADD PUSH1 0x40 MLOAD PUSH2 0x98F SWAP2 SWAP1 PUSH2 0x1B70 JUMP JUMPDEST SWAP1 DUP2 MSTORE PUSH1 0x20 ADD PUSH1 0x40 MLOAD DUP1 SWAP2 SUB SWAP1 KECCAK256 SWAP1 POP PUSH1 0x0 JUMPDEST DUP2 DUP1 SLOAD SWAP1 POP DUP2 LT ISZERO PUSH2 0xBD9 JUMPI DUP2 DUP2 DUP2 SLOAD DUP2 LT PUSH2 0x9C1 JUMPI PUSH2 0x9C0 PUSH2 0x1635 JUMP JUMPDEST JUMPDEST SWAP1 PUSH1 0x0 MSTORE PUSH1 0x20 PUSH1 0x0 KECCAK256 SWAP1 PUSH1 0x4 MUL ADD PUSH1 0x40 MLOAD DUP1 PUSH1 0x80 ADD PUSH1 0x40 MSTORE SWAP1 DUP2 PUSH1 0x0 DUP3 ADD DUP1 SLOAD PUSH2 0x9EA SWAP1 PUSH2 0x14CF JUMP JUMPDEST DUP1 PUSH1 0x1F ADD PUSH1 0x20 DUP1 SWAP2 DIV MUL PUSH1 0x20 ADD PUSH1 0x40 MLOAD SWAP1 DUP2 ADD PUSH1 0x40 MSTORE DUP1 SWAP3 SWAP2 SWAP1 DUP2 DUP2 MSTORE PUSH1 0x20 ADD DUP3 DUP1 SLOAD PUSH2 0xA16 SWAP1 PUSH2 0x14CF JUMP JUMPDEST DUP1 ISZERO PUSH2 0xA63 JUMPI DUP1 PUSH1 0x1F LT PUSH2 0xA38 JUMPI PUSH2 0x100 DUP1 DUP4 SLOAD DIV MUL DUP4 MSTORE SWAP2 PUSH1 0x20 ADD SWAP2 PUSH2 0xA63 JUMP JUMPDEST DUP3 ADD SWAP2 SWAP1 PUSH1 0x0 MSTORE PUSH1 0x20 PUSH1 0x0 KECCAK256 SWAP1 JUMPDEST DUP2 SLOAD DUP2 MSTORE SWAP1 PUSH1 0x1 ADD SWAP1 PUSH1 0x20 ADD DUP1 DUP4 GT PUSH2 0xA46 JUMPI DUP3 SWAP1 SUB PUSH1 0x1F AND DUP3 ADD SWAP2 JUMPDEST POP POP POP POP POP DUP2 MSTORE PUSH1 0x20 ADD PUSH1 0x1 DUP3 ADD DUP1 SLOAD PUSH2 0xA7C SWAP1 PUSH2 0x14CF JUMP JUMPDEST DUP1 PUSH1 0x1F ADD PUSH1 0x20 DUP1 SWAP2 DIV MUL PUSH1 0x20 ADD PUSH1 0x40 MLOAD SWAP1 DUP2 ADD PUSH1 0x40 MSTORE DUP1 SWAP3 SWAP2 SWAP1 DUP2 DUP2 MSTORE PUSH1 0x20 ADD DUP3 DUP1 SLOAD PUSH2 0xAA8 SWAP1 PUSH2 0x14CF JUMP JUMPDEST DUP1 ISZERO PUSH2 0xAF5 JUMPI DUP1 PUSH1 0x1F LT PUSH2 0xACA JUMPI PUSH2 0x100 DUP1 DUP4 SLOAD DIV MUL DUP4 MSTORE SWAP2 PUSH1 0x20 ADD SWAP2 PUSH2 0xAF5 JUMP JUMPDEST DUP3 ADD SWAP2 SWAP1 PUSH1 0x0 MSTORE PUSH1 0x20 PUSH1 0x0 KECCAK256 SWAP1 JUMPDEST DUP2 SLOAD DUP2 MSTORE SWAP1 PUSH1 0x1 ADD SWAP1 PUSH1 0x20 ADD DUP1 DUP4 GT PUSH2 0xAD8 JUMPI DUP3 SWAP1 SUB PUSH1 0x1F AND DUP3 ADD SWAP2 JUMPDEST POP POP POP POP POP DUP2 MSTORE PUSH1 0x20 ADD PUSH1 0x2 DUP3 ADD DUP1 SLOAD PUSH2 0xB0E SWAP1 PUSH2 0x14CF JUMP JUMPDEST DUP1 PUSH1 0x1F ADD PUSH1 0x20 DUP1 SWAP2 DIV MUL PUSH1 0x20 ADD PUSH1 0x40 MLOAD SWAP1 DUP2 ADD PUSH1 0x40 MSTORE DUP1 SWAP3 SWAP2 SWAP1 DUP2 DUP2 MSTORE PUSH1 0x20 ADD DUP3 DUP1 SLOAD PUSH2 0xB3A SWAP1 PUSH2 0x14CF JUMP JUMPDEST DUP1 ISZERO PUSH2 0xB87 JUMPI DUP1 PUSH1 0x1F LT PUSH2 0xB5C JUMPI PUSH2 0x100 DUP1 DUP4 SLOAD DIV MUL DUP4 MSTORE SWAP2 PUSH1 0x20 ADD SWAP2 PUSH2 0xB87 JUMP JUMPDEST DUP3 ADD SWAP2 SWAP1 PUSH1 0x0 MSTORE PUSH1 0x20 PUSH1 0x0 KECCAK256 SWAP1 JUMPDEST DUP2 SLOAD DUP2 MSTORE SWAP1 PUSH1 0x1 ADD SWAP1 PUSH1 0x20 ADD DUP1 DUP4 GT PUSH2 0xB6A JUMPI DUP3 SWAP1 SUB PUSH1 0x1F AND DUP3 ADD SWAP2 JUMPDEST POP POP POP POP POP DUP2 MSTORE PUSH1 0x20 ADD PUSH1 0x3 DUP3 ADD SLOAD DUP2 MSTORE POP POP DUP6 DUP6 DUP2 MLOAD DUP2 LT PUSH2 0xBAD JUMPI PUSH2 0xBAC PUSH2 0x1635 JUMP JUMPDEST JUMPDEST PUSH1 0x20 MUL PUSH1 0x20 ADD ADD DUP2 SWAP1 MSTORE POP DUP4 DUP1 PUSH2 0xBC3 SWAP1 PUSH2 0x1911 JUMP JUMPDEST SWAP5 POP POP DUP1 DUP1 PUSH2 0xBD1 SWAP1 PUSH2 0x1911 JUMP JUMPDEST SWAP2 POP POP PUSH2 0x9A2 JUMP JUMPDEST POP POP DUP1 DUP1 PUSH2 0xBE6 SWAP1 PUSH2 0x1911 JUMP JUMPDEST SWAP2 POP POP PUSH2 0x954 JUMP JUMPDEST POP DUP2 SWAP4 POP POP POP POP SWAP1 JUMP JUMPDEST POP DUP1 SLOAD PUSH1 0x0 DUP3 SSTORE SWAP1 PUSH1 0x0 MSTORE PUSH1 0x20 PUSH1 0x0 KECCAK256 SWAP1 DUP2 ADD SWAP1 PUSH2 0xC16 SWAP2 SWAP1 PUSH2 0xC65 JUMP JUMPDEST POP JUMP JUMPDEST POP DUP1 SLOAD PUSH1 0x0 DUP3 SSTORE PUSH1 0x4 MUL SWAP1 PUSH1 0x0 MSTORE PUSH1 0x20 PUSH1 0x0 KECCAK256 SWAP1 DUP2 ADD SWAP1 PUSH2 0xC3A SWAP2 SWAP1 PUSH2 0xC89 JUMP JUMPDEST POP JUMP JUMPDEST PUSH1 0x40 MLOAD DUP1 PUSH1 0x80 ADD PUSH1 0x40 MSTORE DUP1 PUSH1 0x60 DUP2 MSTORE PUSH1 0x20 ADD PUSH1 0x60 DUP2 MSTORE PUSH1 0x20 ADD PUSH1 0x60 DUP2 MSTORE PUSH1 0x20 ADD PUSH1 0x0 DUP2 MSTORE POP SWAP1 JUMP JUMPDEST JUMPDEST DUP1 DUP3 GT ISZERO PUSH2 0xC85 JUMPI PUSH1 0x0 DUP2 DUP2 PUSH2 0xC7C SWAP2 SWAP1 PUSH2 0xCD8 JUMP JUMPDEST POP PUSH1 0x1 ADD PUSH2 0xC66 JUMP JUMPDEST POP SWAP1 JUMP JUMPDEST JUMPDEST DUP1 DUP3 GT ISZERO PUSH2 0xCD4 JUMPI PUSH1 0x0 DUP1 DUP3 ADD PUSH1 0x0 PUSH2 0xCA3 SWAP2 SWAP1 PUSH2 0xCD8 JUMP JUMPDEST PUSH1 0x1 DUP3 ADD PUSH1 0x0 PUSH2 0xCB3 SWAP2 SWAP1 PUSH2 0xCD8 JUMP JUMPDEST PUSH1 0x2 DUP3 ADD PUSH1 0x0 PUSH2 0xCC3 SWAP2 SWAP1 PUSH2 0xCD8 JUMP JUMPDEST PUSH1 0x3 DUP3 ADD PUSH1 0x0 SWAP1 SSTORE POP PUSH1 0x4 ADD PUSH2 0xC8A JUMP JUMPDEST POP SWAP1 JUMP JUMPDEST POP DUP1 SLOAD PUSH2 0xCE4 SWAP1 PUSH2 0x14CF JUMP JUMPDEST PUSH1 0x0 DUP3 SSTORE DUP1 PUSH1 0x1F LT PUSH2 0xCF6 JUMPI POP PUSH2 0xD15 JUMP JUMPDEST PUSH1 0x1F ADD PUSH1 0x20 SWAP1 DIV SWAP1 PUSH1 0x0 MSTORE PUSH1 0x20 PUSH1 0x0 KECCAK256 SWAP1 DUP2 ADD SWAP1 PUSH2 0xD14 SWAP2 SWAP1 PUSH2 0xD18 JUMP JUMPDEST JUMPDEST POP JUMP JUMPDEST JUMPDEST DUP1 DUP3 GT ISZERO PUSH2 0xD31 JUMPI PUSH1 0x0 DUP2 PUSH1 0x0 SWAP1 SSTORE POP PUSH1 0x1 ADD PUSH2 0xD19 JUMP JUMPDEST POP SWAP1 JUMP JUMPDEST PUSH1 0x0 PUSH1 0x40 MLOAD SWAP1 POP SWAP1 JUMP JUMPDEST PUSH1 0x0 DUP1 REVERT JUMPDEST PUSH1 0x0 DUP1 REVERT JUMPDEST PUSH1 0x0 DUP1 REVERT JUMPDEST PUSH1 0x0 DUP1 REVERT JUMPDEST PUSH1 0x0 PUSH1 0x1F NOT PUSH1 0x1F DUP4 ADD AND SWAP1 POP SWAP2 SWAP1 POP JUMP JUMPDEST PUSH32 0x4E487B7100000000000000000000000000000000000000000000000000000000 PUSH1 0x0 MSTORE PUSH1 0x41 PUSH1 0x4 MSTORE PUSH1 0x24 PUSH1 0x0 REVERT JUMPDEST PUSH2 0xD9C DUP3 PUSH2 0xD53 JUMP JUMPDEST DUP2 ADD DUP2 DUP2 LT PUSH8 0xFFFFFFFFFFFFFFFF DUP3 GT OR ISZERO PUSH2 0xDBB JUMPI PUSH2 0xDBA PUSH2 0xD64 JUMP JUMPDEST JUMPDEST DUP1 PUSH1 0x40 MSTORE POP POP POP JUMP JUMPDEST PUSH1 0x0 PUSH2 0xDCE PUSH2 0xD35 JUMP JUMPDEST SWAP1 POP PUSH2 0xDDA DUP3 DUP3 PUSH2 0xD93 JUMP JUMPDEST SWAP2 SWAP1 POP JUMP JUMPDEST PUSH1 0x0 PUSH8 0xFFFFFFFFFFFFFFFF DUP3 GT ISZERO PUSH2 0xDFA JUMPI PUSH2 0xDF9 PUSH2 0xD64 JUMP JUMPDEST JUMPDEST PUSH2 0xE03 DUP3 PUSH2 0xD53 JUMP JUMPDEST SWAP1 POP PUSH1 0x20 DUP2 ADD SWAP1 POP SWAP2 SWAP1 POP JUMP JUMPDEST DUP3 DUP2 DUP4 CALLDATACOPY PUSH1 0x0 DUP4 DUP4 ADD MSTORE POP POP POP JUMP JUMPDEST PUSH1 0x0 PUSH2 0xE32 PUSH2 0xE2D DUP5 PUSH2 0xDDF JUMP JUMPDEST PUSH2 0xDC4 JUMP JUMPDEST SWAP1 POP DUP3 DUP2 MSTORE PUSH1 0x20 DUP2 ADD DUP5 DUP5 DUP5 ADD GT ISZERO PUSH2 0xE4E JUMPI PUSH2 0xE4D PUSH2 0xD4E JUMP JUMPDEST JUMPDEST PUSH2 0xE59 DUP5 DUP3 DUP6 PUSH2 0xE10 JUMP JUMPDEST POP SWAP4 SWAP3 POP POP POP JUMP JUMPDEST PUSH1 0x0 DUP3 PUSH1 0x1F DUP4 ADD SLT PUSH2 0xE76 JUMPI PUSH2 0xE75 PUSH2 0xD49 JUMP JUMPDEST JUMPDEST DUP2 CALLDATALOAD PUSH2 0xE86 DUP5 DUP3 PUSH1 0x20 DUP7 ADD PUSH2 0xE1F JUMP JUMPDEST SWAP2 POP POP SWAP3 SWAP2 POP POP JUMP JUMPDEST PUSH1 0x0 PUSH1 0x20 DUP3 DUP5 SUB SLT ISZERO PUSH2 0xEA5 JUMPI PUSH2 0xEA4 PUSH2 0xD3F JUMP JUMPDEST JUMPDEST PUSH1 0x0 DUP3 ADD CALLDATALOAD PUSH8 0xFFFFFFFFFFFFFFFF DUP2 GT ISZERO PUSH2 0xEC3 JUMPI PUSH2 0xEC2 PUSH2 0xD44 JUMP JUMPDEST JUMPDEST PUSH2 0xECF DUP5 DUP3 DUP6 ADD PUSH2 0xE61 JUMP JUMPDEST SWAP2 POP POP SWAP3 SWAP2 POP POP JUMP JUMPDEST PUSH1 0x0 DUP2 MLOAD SWAP1 POP SWAP2 SWAP1 POP JUMP JUMPDEST PUSH1 0x0 DUP3 DUP3 MSTORE PUSH1 0x20 DUP3 ADD SWAP1 POP SWAP3 SWAP2 POP POP JUMP JUMPDEST PUSH1 0x0 DUP2 SWAP1 POP PUSH1 0x20 DUP3 ADD SWAP1 POP SWAP2 SWAP1 POP JUMP JUMPDEST PUSH1 0x0 DUP2 MLOAD SWAP1 POP SWAP2 SWAP1 POP JUMP JUMPDEST PUSH1 0x0 DUP3 DUP3 MSTORE PUSH1 0x20 DUP3 ADD SWAP1 POP SWAP3 SWAP2 POP POP JUMP JUMPDEST PUSH1 0x0 JUMPDEST DUP4 DUP2 LT ISZERO PUSH2 0xF3E JUMPI DUP1 DUP3 ADD MLOAD DUP2 DUP5 ADD MSTORE PUSH1 0x20 DUP2 ADD SWAP1 POP PUSH2 0xF23 JUMP JUMPDEST PUSH1 0x0 DUP5 DUP5 ADD MSTORE POP POP POP POP JUMP JUMPDEST PUSH1 0x0 PUSH2 0xF55 DUP3 PUSH2 0xF04 JUMP JUMPDEST PUSH2 0xF5F DUP2 DUP6 PUSH2 0xF0F JUMP JUMPDEST SWAP4 POP PUSH2 0xF6F DUP2 DUP6 PUSH1 0x20 DUP7 ADD PUSH2 0xF20 JUMP JUMPDEST PUSH2 0xF78 DUP2 PUSH2 0xD53 JUMP JUMPDEST DUP5 ADD SWAP2 POP POP SWAP3 SWAP2 POP POP JUMP JUMPDEST PUSH1 0x0 DUP2 SWAP1 POP SWAP2 SWAP1 POP JUMP JUMPDEST PUSH2 0xF96 DUP2 PUSH2 0xF83 JUMP JUMPDEST DUP3 MSTORE POP POP JUMP JUMPDEST PUSH1 0x0 PUSH1 0x80 DUP4 ADD PUSH1 0x0 DUP4 ADD MLOAD DUP5 DUP3 SUB PUSH1 0x0 DUP7 ADD MSTORE PUSH2 0xFB9 DUP3 DUP3 PUSH2 0xF4A JUMP JUMPDEST SWAP2 POP POP PUSH1 0x20 DUP4 ADD MLOAD DUP5 DUP3 SUB PUSH1 0x20 DUP7 ADD MSTORE PUSH2 0xFD3 DUP3 DUP3 PUSH2 0xF4A JUMP JUMPDEST SWAP2 POP POP PUSH1 0x40 DUP4 ADD MLOAD DUP5 DUP3 SUB PUSH1 0x40 DUP7 ADD MSTORE PUSH2 0xFED DUP3 DUP3 PUSH2 0xF4A JUMP JUMPDEST SWAP2 POP POP PUSH1 0x60 DUP4 ADD MLOAD PUSH2 0x1002 PUSH1 0x60 DUP7 ADD DUP3 PUSH2 0xF8D JUMP JUMPDEST POP DUP1 SWAP2 POP POP SWAP3 SWAP2 POP POP JUMP JUMPDEST PUSH1 0x0 PUSH2 0x1019 DUP4 DUP4 PUSH2 0xF9C JUMP JUMPDEST SWAP1 POP SWAP3 SWAP2 POP POP JUMP JUMPDEST PUSH1 0x0 PUSH1 0x20 DUP3 ADD SWAP1 POP SWAP2 SWAP1 POP JUMP JUMPDEST PUSH1 0x0 PUSH2 0x1039 DUP3 PUSH2 0xED8 JUMP JUMPDEST PUSH2 0x1043 DUP2 DUP6 PUSH2 0xEE3 JUMP JUMPDEST SWAP4 POP DUP4 PUSH1 0x20 DUP3 MUL DUP6 ADD PUSH2 0x1055 DUP6 PUSH2 0xEF4 JUMP JUMPDEST DUP1 PUSH1 0x0 JUMPDEST DUP6 DUP2 LT ISZERO PUSH2 0x1091 JUMPI DUP5 DUP5 SUB DUP10 MSTORE DUP2 MLOAD PUSH2 0x1072 DUP6 DUP3 PUSH2 0x100D JUMP JUMPDEST SWAP5 POP PUSH2 0x107D DUP4 PUSH2 0x1021 JUMP JUMPDEST SWAP3 POP PUSH1 0x20 DUP11 ADD SWAP10 POP POP PUSH1 0x1 DUP2 ADD SWAP1 POP PUSH2 0x1059 JUMP JUMPDEST POP DUP3 SWAP8 POP DUP8 SWAP6 POP POP POP POP POP POP SWAP3 SWAP2 POP POP JUMP JUMPDEST PUSH1 0x0 PUSH1 0x20 DUP3 ADD SWAP1 POP DUP2 DUP2 SUB PUSH1 0x0 DUP4 ADD MSTORE PUSH2 0x10BD DUP2 DUP5 PUSH2 0x102E JUMP JUMPDEST SWAP1 POP SWAP3 SWAP2 POP POP JUMP JUMPDEST PUSH1 0x0 DUP2 ISZERO ISZERO SWAP1 POP SWAP2 SWAP1 POP JUMP JUMPDEST PUSH2 0x10DA DUP2 PUSH2 0x10C5 JUMP JUMPDEST DUP3 MSTORE POP POP JUMP JUMPDEST PUSH1 0x0 PUSH1 0x20 DUP3 ADD SWAP1 POP PUSH2 0x10F5 PUSH1 0x0 DUP4 ADD DUP5 PUSH2 0x10D1 JUMP JUMPDEST SWAP3 SWAP2 POP POP JUMP JUMPDEST PUSH1 0x0 PUSH8 0xFFFFFFFFFFFFFFFF DUP3 GT ISZERO PUSH2 0x1116 JUMPI PUSH2 0x1115 PUSH2 0xD64 JUMP JUMPDEST JUMPDEST PUSH1 0x20 DUP3 MUL SWAP1 POP PUSH1 0x20 DUP2 ADD SWAP1 POP SWAP2 SWAP1 POP JUMP JUMPDEST PUSH1 0x0 DUP1 REVERT JUMPDEST PUSH1 0x0 PUSH2 0x113F PUSH2 0x113A DUP5 PUSH2 0x10FB JUMP JUMPDEST PUSH2 0xDC4 JUMP JUMPDEST SWAP1 POP DUP1 DUP4 DUP3 MSTORE PUSH1 0x20 DUP3 ADD SWAP1 POP PUSH1 0x20 DUP5 MUL DUP4 ADD DUP6 DUP2 GT ISZERO PUSH2 0x1162 JUMPI PUSH2 0x1161 PUSH2 0x1127 JUMP JUMPDEST JUMPDEST DUP4 JUMPDEST DUP2 DUP2 LT ISZERO PUSH2 0x11A9 JUMPI DUP1 CALLDATALOAD PUSH8 0xFFFFFFFFFFFFFFFF DUP2 GT ISZERO PUSH2 0x1187 JUMPI PUSH2 0x1186 PUSH2 0xD49 JUMP JUMPDEST JUMPDEST DUP1 DUP7 ADD PUSH2 0x1194 DUP10 DUP3 PUSH2 0xE61 JUMP JUMPDEST DUP6 MSTORE PUSH1 0x20 DUP6 ADD SWAP5 POP POP POP PUSH1 0x20 DUP2 ADD SWAP1 POP PUSH2 0x1164 JUMP JUMPDEST POP POP POP SWAP4 SWAP3 POP POP POP JUMP JUMPDEST PUSH1 0x0 DUP3 PUSH1 0x1F DUP4 ADD SLT PUSH2 0x11C8 JUMPI PUSH2 0x11C7 PUSH2 0xD49 JUMP JUMPDEST JUMPDEST DUP2 CALLDATALOAD PUSH2 0x11D8 DUP5 DUP3 PUSH1 0x20 DUP7 ADD PUSH2 0x112C JUMP JUMPDEST SWAP2 POP POP SWAP3 SWAP2 POP POP JUMP JUMPDEST PUSH1 0x0 PUSH8 0xFFFFFFFFFFFFFFFF DUP3 GT ISZERO PUSH2 0x11FC JUMPI PUSH2 0x11FB PUSH2 0xD64 JUMP JUMPDEST JUMPDEST PUSH1 0x20 DUP3 MUL SWAP1 POP PUSH1 0x20 DUP2 ADD SWAP1 POP SWAP2 SWAP1 POP JUMP JUMPDEST PUSH1 0x0 PUSH2 0x1220 PUSH2 0x121B DUP5 PUSH2 0x11E1 JUMP JUMPDEST PUSH2 0xDC4 JUMP JUMPDEST SWAP1 POP DUP1 DUP4 DUP3 MSTORE PUSH1 0x20 DUP3 ADD SWAP1 POP PUSH1 0x20 DUP5 MUL DUP4 ADD DUP6 DUP2 GT ISZERO PUSH2 0x1243 JUMPI PUSH2 0x1242 PUSH2 0x1127 JUMP JUMPDEST JUMPDEST DUP4 JUMPDEST DUP2 DUP2 LT ISZERO PUSH2 0x128A JUMPI DUP1 CALLDATALOAD PUSH8 0xFFFFFFFFFFFFFFFF DUP2 GT ISZERO PUSH2 0x1268 JUMPI PUSH2 0x1267 PUSH2 0xD49 JUMP JUMPDEST JUMPDEST DUP1 DUP7 ADD PUSH2 0x1275 DUP10 DUP3 PUSH2 0x11B3 JUMP JUMPDEST DUP6 MSTORE PUSH1 0x20 DUP6 ADD SWAP5 POP POP POP PUSH1 0x20 DUP2 ADD SWAP1 POP PUSH2 0x1245 JUMP JUMPDEST POP POP POP SWAP4 SWAP3 POP POP POP JUMP JUMPDEST PUSH1 0x0 DUP3 PUSH1 0x1F DUP4 ADD SLT PUSH2 0x12A9 JUMPI PUSH2 0x12A8 PUSH2 0xD49 JUMP JUMPDEST JUMPDEST DUP2 CALLDATALOAD PUSH2 0x12B9 DUP5 DUP3 PUSH1 0x20 DUP7 ADD PUSH2 0x120D JUMP JUMPDEST SWAP2 POP POP SWAP3 SWAP2 POP POP JUMP JUMPDEST PUSH1 0x0 DUP1 PUSH1 0x0 PUSH1 0x60 DUP5 DUP7 SUB SLT ISZERO PUSH2 0x12DB JUMPI PUSH2 0x12DA PUSH2 0xD3F JUMP JUMPDEST JUMPDEST PUSH1 0x0 DUP5 ADD CALLDATALOAD PUSH8 0xFFFFFFFFFFFFFFFF DUP2 GT ISZERO PUSH2 0x12F9 JUMPI PUSH2 0x12F8 PUSH2 0xD44 JUMP JUMPDEST JUMPDEST PUSH2 0x1305 DUP7 DUP3 DUP8 ADD PUSH2 0x11B3 JUMP JUMPDEST SWAP4 POP POP PUSH1 0x20 DUP5 ADD CALLDATALOAD PUSH8 0xFFFFFFFFFFFFFFFF DUP2 GT ISZERO PUSH2 0x1326 JUMPI PUSH2 0x1325 PUSH2 0xD44 JUMP JUMPDEST JUMPDEST PUSH2 0x1332 DUP7 DUP3 DUP8 ADD PUSH2 0x1294 JUMP JUMPDEST SWAP3 POP POP PUSH1 0x40 DUP5 ADD CALLDATALOAD PUSH8 0xFFFFFFFFFFFFFFFF DUP2 GT ISZERO PUSH2 0x1353 JUMPI PUSH2 0x1352 PUSH2 0xD44 JUMP JUMPDEST JUMPDEST PUSH2 0x135F DUP7 DUP3 DUP8 ADD PUSH2 0x1294 JUMP JUMPDEST SWAP2 POP POP SWAP3 POP SWAP3 POP SWAP3 JUMP JUMPDEST PUSH2 0x1372 DUP2 PUSH2 0xF83 JUMP JUMPDEST DUP2 EQ PUSH2 0x137D JUMPI PUSH1 0x0 DUP1 REVERT JUMPDEST POP JUMP JUMPDEST PUSH1 0x0 DUP2 CALLDATALOAD SWAP1 POP PUSH2 0x138F DUP2 PUSH2 0x1369 JUMP JUMPDEST SWAP3 SWAP2 POP POP JUMP JUMPDEST PUSH1 0x0 DUP1 PUSH1 0x40 DUP4 DUP6 SUB SLT ISZERO PUSH2 0x13AC JUMPI PUSH2 0x13AB PUSH2 0xD3F JUMP JUMPDEST JUMPDEST PUSH1 0x0 DUP4 ADD CALLDATALOAD PUSH8 0xFFFFFFFFFFFFFFFF DUP2 GT ISZERO PUSH2 0x13CA JUMPI PUSH2 0x13C9 PUSH2 0xD44 JUMP JUMPDEST JUMPDEST PUSH2 0x13D6 DUP6 DUP3 DUP7 ADD PUSH2 0xE61 JUMP JUMPDEST SWAP3 POP POP PUSH1 0x20 PUSH2 0x13E7 DUP6 DUP3 DUP7 ADD PUSH2 0x1380 JUMP JUMPDEST SWAP2 POP POP SWAP3 POP SWAP3 SWAP1 POP JUMP JUMPDEST PUSH1 0x0 PUSH20 0xFFFFFFFFFFFFFFFFFFFFFFFFFFFFFFFFFFFFFFFF DUP3 AND SWAP1 POP SWAP2 SWAP1 POP JUMP JUMPDEST PUSH1 0x0 PUSH2 0x141C DUP3 PUSH2 0x13F1 JUMP JUMPDEST SWAP1 POP SWAP2 SWAP1 POP JUMP JUMPDEST PUSH2 0x142C DUP2 PUSH2 0x1411 JUMP JUMPDEST DUP3 MSTORE POP POP JUMP JUMPDEST PUSH1 0x0 PUSH1 0x20 DUP3 ADD SWAP1 POP PUSH2 0x1447 PUSH1 0x0 DUP4 ADD DUP5 PUSH2 0x1423 JUMP JUMPDEST SWAP3 SWAP2 POP POP JUMP JUMPDEST PUSH1 0x0 DUP2 SWAP1 POP SWAP3 SWAP2 POP POP JUMP JUMPDEST PUSH1 0x0 PUSH2 0x1463 DUP3 PUSH2 0xF04 JUMP JUMPDEST PUSH2 0x146D DUP2 DUP6 PUSH2 0x144D JUMP JUMPDEST SWAP4 POP PUSH2 0x147D DUP2 DUP6 PUSH1 0x20 DUP7 ADD PUSH2 0xF20 JUMP JUMPDEST DUP1 DUP5 ADD SWAP2 POP POP SWAP3 SWAP2 POP POP JUMP JUMPDEST PUSH1 0x0 PUSH2 0x1495 DUP3 DUP5 PUSH2 0x1458 JUMP JUMPDEST SWAP2 POP DUP2 SWAP1 POP SWAP3 SWAP2 POP POP JUMP JUMPDEST PUSH32 0x4E487B7100000000000000000000000000000000000000000000000000000000 PUSH1 0x0 MSTORE PUSH1 0x22 PUSH1 0x4 MSTORE PUSH1 0x24 PUSH1 0x0 REVERT JUMPDEST PUSH1 0x0 PUSH1 0x2 DUP3 DIV SWAP1 POP PUSH1 0x1 DUP3 AND DUP1 PUSH2 0x14E7 JUMPI PUSH1 0x7F DUP3 AND SWAP2 POP JUMPDEST PUSH1 0x20 DUP3 LT DUP2 SUB PUSH2 0x14FA JUMPI PUSH2 0x14F9 PUSH2 0x14A0 JUMP JUMPDEST JUMPDEST POP SWAP2 SWAP1 POP JUMP JUMPDEST PUSH1 0x0 DUP3 DUP3 MSTORE PUSH1 0x20 DUP3 ADD SWAP1 POP SWAP3 SWAP2 POP POP JUMP JUMPDEST PUSH32 0x4F6E6C792061646D696E2063616E20706572666F726D20746869732061637469 PUSH1 0x0 DUP3 ADD MSTORE PUSH32 0x6F6E000000000000000000000000000000000000000000000000000000000000 PUSH1 0x20 DUP3 ADD MSTORE POP JUMP JUMPDEST PUSH1 0x0 PUSH2 0x156D PUSH1 0x22 DUP4 PUSH2 0x1500 JUMP JUMPDEST SWAP2 POP PUSH2 0x1578 DUP3 PUSH2 0x1511 JUMP JUMPDEST PUSH1 0x40 DUP3 ADD SWAP1 POP SWAP2 SWAP1 POP JUMP JUMPDEST PUSH1 0x0 PUSH1 0x20 DUP3 ADD SWAP1 POP DUP2 DUP2 SUB PUSH1 0x0 DUP4 ADD MSTORE PUSH2 0x159C DUP2 PUSH2 0x1560 JUMP JUMPDEST SWAP1 POP SWAP2 SWAP1 POP JUMP JUMPDEST PUSH32 0x43616E646964617465732061726520616C72656164792066696E616C697A6564 PUSH1 0x0 DUP3 ADD MSTORE PUSH32 0x2100000000000000000000000000000000000000000000000000000000000000 PUSH1 0x20 DUP3 ADD MSTORE POP JUMP JUMPDEST PUSH1 0x0 PUSH2 0x15FF PUSH1 0x21 DUP4 PUSH2 0x1500 JUMP JUMPDEST SWAP2 POP PUSH2 0x160A DUP3 PUSH2 0x15A3 JUMP JUMPDEST PUSH1 0x40 DUP3 ADD SWAP1 POP SWAP2 SWAP1 POP JUMP JUMPDEST PUSH1 0x0 PUSH1 0x20 DUP3 ADD SWAP1 POP DUP2 DUP2 SUB PUSH1 0x0 DUP4 ADD MSTORE PUSH2 0x162E DUP2 PUSH2 0x15F2 JUMP JUMPDEST SWAP1 POP SWAP2 SWAP1 POP JUMP JUMPDEST PUSH32 0x4E487B7100000000000000000000000000000000000000000000000000000000 PUSH1 0x0 MSTORE PUSH1 0x32 PUSH1 0x4 MSTORE PUSH1 0x24 PUSH1 0x0 REVERT JUMPDEST PUSH1 0x0 DUP2 SWAP1 POP DUP2 PUSH1 0x0 MSTORE PUSH1 0x20 PUSH1 0x0 KECCAK256 SWAP1 POP SWAP2 SWAP1 POP JUMP JUMPDEST PUSH1 0x0 PUSH1 0x20 PUSH1 0x1F DUP4 ADD DIV SWAP1 POP SWAP2 SWAP1 POP JUMP JUMPDEST PUSH1 0x0 DUP3 DUP3 SHL SWAP1 POP SWAP3 SWAP2 POP POP JUMP JUMPDEST PUSH1 0x0 PUSH1 0x8 DUP4 MUL PUSH2 0x16C6 PUSH32 0xFFFFFFFFFFFFFFFFFFFFFFFFFFFFFFFFFFFFFFFFFFFFFFFFFFFFFFFFFFFFFFFF DUP3 PUSH2 0x1689 JUMP JUMPDEST PUSH2 0x16D0 DUP7 DUP4 PUSH2 0x1689 JUMP JUMPDEST SWAP6 POP DUP1 NOT DUP5 AND SWAP4 POP DUP1 DUP7 AND DUP5 OR SWAP3 POP POP POP SWAP4 SWAP3 POP POP POP JUMP JUMPDEST PUSH1 0x0 DUP2 SWAP1 POP SWAP2 SWAP1 POP JUMP JUMPDEST PUSH1 0x0 PUSH2 0x170D PUSH2 0x1708 PUSH2 0x1703 DUP5 PUSH2 0xF83 JUMP JUMPDEST PUSH2 0x16E8 JUMP JUMPDEST PUSH2 0xF83 JUMP JUMPDEST SWAP1 POP SWAP2 SWAP1 POP JUMP JUMPDEST PUSH1 0x0 DUP2 SWAP1 POP SWAP2 SWAP1 POP JUMP JUMPDEST PUSH2 0x1727 DUP4 PUSH2 0x16F2 JUMP JUMPDEST PUSH2 0x173B PUSH2 0x1733 DUP3 PUSH2 0x1714 JUMP JUMPDEST DUP5 DUP5 SLOAD PUSH2 0x1696 JUMP JUMPDEST DUP3 SSTORE POP POP POP POP JUMP JUMPDEST PUSH1 0x0 SWAP1 JUMP JUMPDEST PUSH2 0x1750 PUSH2 0x1743 JUMP JUMPDEST PUSH2 0x175B DUP2 DUP5 DUP5 PUSH2 0x171E JUMP JUMPDEST POP POP POP JUMP JUMPDEST JUMPDEST DUP2 DUP2 LT ISZERO PUSH2 0x177F JUMPI PUSH2 0x1774 PUSH1 0x0 DUP3 PUSH2 0x1748 JUMP JUMPDEST PUSH1 0x1 DUP2 ADD SWAP1 POP PUSH2 0x1761 JUMP JUMPDEST POP POP JUMP JUMPDEST PUSH1 0x1F DUP3 GT ISZERO PUSH2 0x17C4 JUMPI PUSH2 0x1795 DUP2 PUSH2 0x1664 JUMP JUMPDEST PUSH2 0x179E DUP5 PUSH2 0x1679 JUMP JUMPDEST DUP2 ADD PUSH1 0x20 DUP6 LT ISZERO PUSH2 0x17AD JUMPI DUP2 SWAP1 POP JUMPDEST PUSH2 0x17C1 PUSH2 0x17B9 DUP6 PUSH2 0x1679 JUMP JUMPDEST DUP4 ADD DUP3 PUSH2 0x1760 JUMP JUMPDEST POP POP JUMPDEST POP POP POP JUMP JUMPDEST PUSH1 0x0 DUP3 DUP3 SHR SWAP1 POP SWAP3 SWAP2 POP POP JUMP JUMPDEST PUSH1 0x0 PUSH2 0x17E7 PUSH1 0x0 NOT DUP5 PUSH1 0x8 MUL PUSH2 0x17C9 JUMP JUMPDEST NOT DUP1 DUP4 AND SWAP2 POP POP SWAP3 SWAP2 POP POP JUMP JUMPDEST PUSH1 0x0 PUSH2 0x1800 DUP4 DUP4 PUSH2 0x17D6 JUMP JUMPDEST SWAP2 POP DUP3 PUSH1 0x2 MUL DUP3 OR SWAP1 POP SWAP3 SWAP2 POP POP JUMP JUMPDEST PUSH2 0x1819 DUP3 PUSH2 0xF04 JUMP JUMPDEST PUSH8 0xFFFFFFFFFFFFFFFF DUP2 GT ISZERO PUSH2 0x1832 JUMPI PUSH2 0x1831 PUSH2 0xD64 JUMP JUMPDEST JUMPDEST PUSH2 0x183C DUP3 SLOAD PUSH2 0x14CF JUMP JUMPDEST PUSH2 0x1847 DUP3 DUP3 DUP6 PUSH2 0x1783 JUMP JUMPDEST PUSH1 0x0 PUSH1 0x20 SWAP1 POP PUSH1 0x1F DUP4 GT PUSH1 0x1 DUP2 EQ PUSH2 0x187A JUMPI PUSH1 0x0 DUP5 ISZERO PUSH2 0x1868 JUMPI DUP3 DUP8 ADD MLOAD SWAP1 POP JUMPDEST PUSH2 0x1872 DUP6 DUP3 PUSH2 0x17F4 JUMP JUMPDEST DUP7 SSTORE POP PUSH2 0x18DA JUMP JUMPDEST PUSH1 0x1F NOT DUP5 AND PUSH2 0x1888 DUP7 PUSH2 0x1664 JUMP JUMPDEST PUSH1 0x0 JUMPDEST DUP3 DUP2 LT ISZERO PUSH2 0x18B0 JUMPI DUP5 DUP10 ADD MLOAD DUP3 SSTORE PUSH1 0x1 DUP3 ADD SWAP2 POP PUSH1 0x20 DUP6 ADD SWAP5 POP PUSH1 0x20 DUP2 ADD SWAP1 POP PUSH2 0x188B JUMP JUMPDEST DUP7 DUP4 LT ISZERO PUSH2 0x18CD JUMPI DUP5 DUP10 ADD MLOAD PUSH2 0x18C9 PUSH1 0x1F DUP10 AND DUP3 PUSH2 0x17D6 JUMP JUMPDEST DUP4 SSTORE POP JUMPDEST PUSH1 0x1 PUSH1 0x2 DUP9 MUL ADD DUP9 SSTORE POP POP POP JUMPDEST POP POP POP POP POP POP JUMP JUMPDEST PUSH32 0x4E487B7100000000000000000000000000000000000000000000000000000000 PUSH1 0x0 MSTORE PUSH1 0x11 PUSH1 0x4 MSTORE PUSH1 0x24 PUSH1 0x0 REVERT JUMPDEST PUSH1 0x0 PUSH2 0x191C DUP3 PUSH2 0xF83 JUMP JUMPDEST SWAP2 POP PUSH32 0xFFFFFFFFFFFFFFFFFFFFFFFFFFFFFFFFFFFFFFFFFFFFFFFFFFFFFFFFFFFFFFFF DUP3 SUB PUSH2 0x194E JUMPI PUSH2 0x194D PUSH2 0x18E2 JUMP JUMPDEST JUMPDEST PUSH1 0x1 DUP3 ADD SWAP1 POP SWAP2 SWAP1 POP JUMP JUMPDEST PUSH32 0x566F74696E672063616E6E6F7420737461727420756E74696C2063616E646964 PUSH1 0x0 DUP3 ADD MSTORE PUSH32 0x61746573206172652066696E616C697A65642100000000000000000000000000 PUSH1 0x20 DUP3 ADD MSTORE POP JUMP JUMPDEST PUSH1 0x0 PUSH2 0x19B5 PUSH1 0x33 DUP4 PUSH2 0x1500 JUMP JUMPDEST SWAP2 POP PUSH2 0x19C0 DUP3 PUSH2 0x1959 JUMP JUMPDEST PUSH1 0x40 DUP3 ADD SWAP1 POP SWAP2 SWAP1 POP JUMP JUMPDEST PUSH1 0x0 PUSH1 0x20 DUP3 ADD SWAP1 POP DUP2 DUP2 SUB PUSH1 0x0 DUP4 ADD MSTORE PUSH2 0x19E4 DUP2 PUSH2 0x19A8 JUMP JUMPDEST SWAP1 POP SWAP2 SWAP1 POP JUMP JUMPDEST PUSH1 0x0 PUSH2 0x19F6 DUP3 PUSH2 0xF04 JUMP JUMPDEST PUSH2 0x1A00 DUP2 DUP6 PUSH2 0x1500 JUMP JUMPDEST SWAP4 POP PUSH2 0x1A10 DUP2 DUP6 PUSH1 0x20 DUP7 ADD PUSH2 0xF20 JUMP JUMPDEST PUSH2 0x1A19 DUP2 PUSH2 0xD53 JUMP JUMPDEST DUP5 ADD SWAP2 POP POP SWAP3 SWAP2 POP POP JUMP JUMPDEST PUSH1 0x0 DUP2 SLOAD PUSH2 0x1A31 DUP2 PUSH2 0x14CF JUMP JUMPDEST PUSH2 0x1A3B DUP2 DUP7 PUSH2 0x1500 JUMP JUMPDEST SWAP5 POP PUSH1 0x1 DUP3 AND PUSH1 0x0 DUP2 EQ PUSH2 0x1A56 JUMPI PUSH1 0x1 DUP2 EQ PUSH2 0x1A6C JUMPI PUSH2 0x1A9F JUMP JUMPDEST PUSH1 0xFF NOT DUP4 AND DUP7 MSTORE DUP2 ISZERO ISZERO PUSH1 0x20 MUL DUP7 ADD SWAP4 POP PUSH2 0x1A9F JUMP JUMPDEST PUSH2 0x1A75 DUP6 PUSH2 0x1664 JUMP JUMPDEST PUSH1 0x0 JUMPDEST DUP4 DUP2 LT ISZERO PUSH2 0x1A97 JUMPI DUP2 SLOAD DUP2 DUP10 ADD MSTORE PUSH1 0x1 DUP3 ADD SWAP2 POP PUSH1 0x20 DUP2 ADD SWAP1 POP PUSH2 0x1A78 JUMP JUMPDEST DUP1 DUP9 ADD SWAP6 POP POP POP JUMPDEST POP POP POP SWAP3 SWAP2 POP POP JUMP JUMPDEST PUSH1 0x0 PUSH1 0x60 DUP3 ADD SWAP1 POP DUP2 DUP2 SUB PUSH1 0x0 DUP4 ADD MSTORE PUSH2 0x1AC2 DUP2 DUP7 PUSH2 0x19EB JUMP JUMPDEST SWAP1 POP DUP2 DUP2 SUB PUSH1 0x20 DUP4 ADD MSTORE PUSH2 0x1AD6 DUP2 DUP6 PUSH2 0x1A24 JUMP JUMPDEST SWAP1 POP PUSH2 0x1AE5 PUSH1 0x40 DUP4 ADD DUP5 PUSH2 0x1423 JUMP JUMPDEST SWAP5 SWAP4 POP POP POP POP JUMP JUMPDEST PUSH1 0x0 DUP2 SLOAD PUSH2 0x1AFA DUP2 PUSH2 0x14CF JUMP JUMPDEST PUSH2 0x1B04 DUP2 DUP7 PUSH2 0x144D JUMP JUMPDEST SWAP5 POP PUSH1 0x1 DUP3 AND PUSH1 0x0 DUP2 EQ PUSH2 0x1B1F JUMPI PUSH1 0x1 DUP2 EQ PUSH2 0x1B34 JUMPI PUSH2 0x1B67 JUMP JUMPDEST PUSH1 0xFF NOT DUP4 AND DUP7 MSTORE DUP2 ISZERO ISZERO DUP3 MUL DUP7 ADD SWAP4 POP PUSH2 0x1B67 JUMP JUMPDEST PUSH2 0x1B3D DUP6 PUSH2 0x1664 JUMP JUMPDEST PUSH1 0x0 JUMPDEST DUP4 DUP2 LT ISZERO PUSH2 0x1B5F JUMPI DUP2 SLOAD DUP2 DUP10 ADD MSTORE PUSH1 0x1 DUP3 ADD SWAP2 POP PUSH1 0x20 DUP2 ADD SWAP1 POP PUSH2 0x1B40 JUMP JUMPDEST DUP4 DUP9 ADD SWAP6 POP POP POP JUMPDEST POP POP POP SWAP3 SWAP2 POP POP JUMP JUMPDEST PUSH1 0x0 PUSH2 0x1B7C DUP3 DUP5 PUSH2 0x1AED JUMP JUMPDEST SWAP2 POP DUP2 SWAP1 POP SWAP3 SWAP2 POP POP JUMP JUMPDEST PUSH1 0x0 PUSH2 0x1B92 DUP3 PUSH2 0xF83 JUMP JUMPDEST SWAP2 POP PUSH2 0x1B9D DUP4 PUSH2 0xF83 JUMP JUMPDEST SWAP3 POP DUP3 DUP3 ADD SWAP1 POP DUP1 DUP3 GT ISZERO PUSH2 0x1BB5 JUMPI PUSH2 0x1BB4 PUSH2 0x18E2 JUMP JUMPDEST JUMPDEST SWAP3 SWAP2 POP POP JUMP INVALID LOG2 PUSH5 0x6970667358 0x22 SLT KECCAK256 0xB2 STATICCALL 0xB7 PUSH32 0x29AACE6622E81F2A049AE65B36C7EE33D9B9B263A82A4854EE4CF61364736F6C PUSH4 0x43000815 STOP CALLER "},"methodIdentifiers":{"admin()":"f851a440","getCandidates(string)":"45534763","getVoteCounts()":"ffc97b20","isFinalized()":"8d4e4083","submitCandidates(string[],string[][],string[][])":"95dbea06","vote(string,uint256)":"a6385803"}}}}}