{"contracts/AdminCandidates.sol":{"AdminCandidates":{"abi":[{"inputs":[],"stateMutability":"nonpayable","type":"constructor"},{"anonymous":false,"inputs":[],"name":"CandidatesReset","type":"event"},{"anonymous":false,"inputs":[],"name":"CandidatesSubmitted","type":"event"},{"anonymous":false,"inputs":[{"indexed":false,"internalType":"bytes32","name":"position","type":"bytes32"},{"indexed":false,"internalType":"bytes32","name":"candidateId","type":"bytes32"},{"indexed":false,"internalType":"bytes32","name":"voterHash","type":"bytes32"}],"name":"VoteSubmitted","type":"event"},{"inputs":[],"name":"admin","outputs":[{"internalType":"address","name":"","type":"address"}],"stateMutability":"view","type":"function"},{"inputs":[{"internalType":"bytes32[]","name":"_positions","type":"bytes32[]"},{"internalType":"bytes32[]","name":"_candidateIds","type":"bytes32[]"},{"internalType":"bytes32","name":"_voterHash","type":"bytes32"}],"name":"batchVote","outputs":[],"stateMutability":"nonpayable","type":"function"},{"inputs":[{"internalType":"bytes32","name":"","type":"bytes32"}],"name":"boardMemberProgramIDs","outputs":[{"internalType":"bytes32","name":"","type":"bytes32"}],"stateMutability":"view","type":"function"},{"inputs":[{"internalType":"bytes32","name":"_position","type":"bytes32"}],"name":"getCandidates","outputs":[{"components":[{"internalType":"bytes32","name":"candidateId","type":"bytes32"},{"internalType":"bytes32","name":"name","type":"bytes32"},{"internalType":"bytes32","name":"party","type":"bytes32"}],"internalType":"struct AdminCandidates.CandidateEntry[]","name":"","type":"tuple[]"}],"stateMutability":"view","type":"function"},{"inputs":[],"name":"getPositionList","outputs":[{"internalType":"bytes32[]","name":"","type":"bytes32[]"}],"stateMutability":"view","type":"function"},{"inputs":[],"name":"getVoteCounts","outputs":[{"components":[{"internalType":"bytes32","name":"candidateId","type":"bytes32"},{"internalType":"bytes32","name":"name","type":"bytes32"},{"internalType":"bytes32","name":"party","type":"bytes32"}],"internalType":"struct AdminCandidates.CandidateEntry[]","name":"","type":"tuple[]"},{"internalType":"uint256[]","name":"","type":"uint256[]"}],"stateMutability":"view","type":"function"},{"inputs":[{"internalType":"bytes32","name":"_position","type":"bytes32"},{"internalType":"uint256","name":"_index","type":"uint256"}],"name":"getVoterHashes","outputs":[{"internalType":"bytes32[]","name":"","type":"bytes32[]"}],"stateMutability":"view","type":"function"},{"inputs":[],"name":"getWinners","outputs":[{"components":[{"internalType":"bytes32","name":"position","type":"bytes32"},{"internalType":"bytes32","name":"name","type":"bytes32"},{"internalType":"bytes32","name":"party","type":"bytes32"},{"internalType":"uint256","name":"votes","type":"uint256"}],"internalType":"struct AdminCandidates.Winner[]","name":"","type":"tuple[]"}],"stateMutability":"view","type":"function"},{"inputs":[],"name":"isFinalized","outputs":[{"internalType":"bool","name":"","type":"bool"}],"stateMutability":"view","type":"function"},{"inputs":[],"name":"resetCandidates","outputs":[],"stateMutability":"nonpayable","type":"function"},{"inputs":[{"internalType":"bytes32[]","name":"_positions","type":"bytes32[]"},{"components":[{"internalType":"bytes32","name":"candidateId","type":"bytes32"},{"internalType":"bytes32","name":"name","type":"bytes32"},{"internalType":"bytes32","name":"party","type":"bytes32"}],"internalType":"struct AdminCandidates.CandidateEntry[][]","name":"_candidates","type":"tuple[][]"},{"internalType":"bytes32[]","name":"_boardMemberProgramIDs","type":"bytes32[]"}],"name":"submitCandidates","outputs":[],"stateMutability":"nonpayable","type":"function"}],"evm":{"bytecode":{"linkReferences":{},"object":"60806040526000600560146101000a81548160ff02191690831515021790555034801561002b57600080fd5b5033600560006101000a81548173ffffffffffffffffffffffffffffffffffffffff021916908373ffffffffffffffffffffffffffffffffffffffff16021790555061240c8061007c6000396000f3fe608060405234801561001057600080fd5b50600436106100a95760003560e01c806385b923ca1161007157806385b923ca146101505780638d4e408314610180578063a5d3157e1461019e578063df15c37e146101bc578063f851a440146101da578063ffc97b20146101f8576100a9565b806307f1db5b146100ae5780633b06843b146100ca57806356fc64f8146100e657806370918ce3146101165780637718d9f314610146575b600080fd5b6100c860048036038101906100c391906118e7565b610217565b005b6100e460048036038101906100df919061198e565b610666565b005b61010060048036038101906100fb9190611a19565b610980565b60405161010d9190611a55565b60405180910390f35b610130600480360381019061012b9190611aa6565b610998565b60405161013d9190611ba4565b60405180910390f35b61014e610a15565b005b61016a60048036038101906101659190611a19565b610b62565b6040516101779190611cb7565b60405180910390f35b610188610ca8565b6040516101959190611cf4565b60405180910390f35b6101a6610cbb565b6040516101b39190611ba4565b60405180910390f35b6101c4610d13565b6040516101d19190611e22565b60405180910390f35b6101e2610eee565b6040516101ef9190611e85565b60405180910390f35b610200610f14565b60405161020e929190611f4f565b60405180910390f35b600560009054906101000a900473ffffffffffffffffffffffffffffffffffffffff1673ffffffffffffffffffffffffffffffffffffffff163373ffffffffffffffffffffffffffffffffffffffff16146102a7576040517f08c379a000000000000000000000000000000000000000000000000000000000815260040161029e90612009565b60405180910390fd5b600560149054906101000a900460ff16156102f7576040517f08c379a00000000000000000000000000000000000000000000000000000000081526004016102ee9061209b565b60405180910390fd5b600360006103059190611443565b60005b8351811015610619576000806000868481518110610329576103286120bb565b5b60200260200101518152602001908152602001600020805490500361038c57600384828151811061035d5761035c6120bb565b5b602002602001015190806001815401808255809150506001900390600052602060002001600090919091909150555b6000808583815181106103a2576103a16120bb565b5b6020026020010151815260200190815260200160002060006103c49190611464565b60005b8382815181106103da576103d96120bb565b5b60200260200101515181101561059057600080868481518110610400576103ff6120bb565b5b602002602001015181526020019081526020016000206040518060800160405280868581518110610434576104336120bb565b5b6020026020010151848151811061044e5761044d6120bb565b5b6020026020010151600001518152602001868581518110610472576104716120bb565b5b6020026020010151848151811061048c5761048b6120bb565b5b60200260200101516020015181526020018685815181106104b0576104af6120bb565b5b602002602001015184815181106104ca576104c96120bb565b5b6020026020010151604001518152602001600081525090806001815401808255809150506001900390600052602060002090600402016000909190919091506000820151816000015560208201518160010155604082015181600201556060820151816003015550506001600086848151811061054a576105496120bb565b5b602002602001015181526020019081526020016000206000828152602001908152602001600020600061057d9190611443565b808061058890612119565b9150506103c7565b506105b48482815181106105a7576105a66120bb565b5b602002602001015161119e565b15610606578181815181106105cc576105cb6120bb565b5b6020026020010151600460008684815181106105eb576105ea6120bb565b5b60200260200101518152602001908152602001600020819055505b808061061190612119565b915050610308565b506001600560146101000a81548160ff0219169083151502179055507f86825b43264ca968e676c45c8e05cc56965ff5938ed49dcf636c61acb7070bd760405160405180910390a1505050565b600560149054906101000a900460ff166106b5576040517f08c379a00000000000000000000000000000000000000000000000000000000081526004016106ac906121d3565b60405180910390fd5b81518351146106f9576040517f08c379a00000000000000000000000000000000000000000000000000000000081526004016106f09061223f565b60405180910390fd5b6002600082815260200190815260200160002060009054906101000a900460ff161561075a576040517f08c379a0000000000000000000000000000000000000000000000000000000008152600401610751906122ab565b60405180910390fd5b60016002600083815260200190815260200160002060006101000a81548160ff02191690831515021790555060005b835181101561097a5760008482815181106107a7576107a66120bb565b5b6020026020010151905060008483815181106107c6576107c56120bb565b5b6020026020010151905060008080600090505b600080868152602001908152602001600020805490508110156108515783600080878152602001908152602001600020828154811061081b5761081a6120bb565b5b9060005260206000209060040201600001540361083e5760019250809150610851565b808061084990612119565b9150506107d9565b5081610892576040517f08c379a000000000000000000000000000000000000000000000000000000000815260040161088990612317565b60405180910390fd5b60008085815260200190815260200160002081815481106108b6576108b56120bb565b5b906000526020600020906004020160030160008154809291906108d890612119565b91905055506001600085815260200190815260200160002060008281526020019081526020016000208690806001815401808255809150506001900390600052602060002001600090919091909150557f178e76faa844f1c429cbe43bb805a70530f990ef2acc87f8f626ac80ff48490984848860405161095b93929190612337565b60405180910390a150505050808061097290612119565b915050610789565b50505050565b60046020528060005260406000206000915090505481565b6060600160008481526020019081526020016000206000838152602001908152602001600020805480602002602001604051908101604052809291908181526020018280548015610a0857602002820191906000526020600020905b8154815260200190600101908083116109f4575b5050505050905092915050565b600560009054906101000a900473ffffffffffffffffffffffffffffffffffffffff1673ffffffffffffffffffffffffffffffffffffffff163373ffffffffffffffffffffffffffffffffffffffff1614610aa5576040517f08c379a0000000000000000000000000000000000000000000000000000000008152600401610a9c90612009565b60405180910390fd5b60005b600380549050811015610b0a57600060038281548110610acb57610aca6120bb565b5b906000526020600020015490506000808281526020019081526020016000206000610af69190611464565b508080610b0290612119565b915050610aa8565b5060036000610b199190611443565b6000600560146101000a81548160ff0219169083151502179055507f800bdaa40887ccfd790fdc79f47cf3acbb2a1ecf28b3bccb67e3719009c1bab260405160405180910390a1565b6060600080600084815260200190815260200160002090506000818054905067ffffffffffffffff811115610b9a57610b99611561565b5b604051908082528060200260200182016040528015610bd357816020015b610bc0611488565b815260200190600190039081610bb85790505b50905060005b8280549050811015610c9d576040518060600160405280848381548110610c0357610c026120bb565b5b9060005260206000209060040201600001548152602001848381548110610c2d57610c2c6120bb565b5b9060005260206000209060040201600101548152602001848381548110610c5757610c566120bb565b5b906000526020600020906004020160020154815250828281518110610c7f57610c7e6120bb565b5b60200260200101819052508080610c9590612119565b915050610bd9565b508092505050919050565b600560149054906101000a900460ff1681565b60606003805480602002602001604051908101604052809291908181526020018280548015610d0957602002820191906000526020600020905b815481526020019060010190808311610cf5575b5050505050905090565b60606000600380549050905060008167ffffffffffffffff811115610d3b57610d3a611561565b5b604051908082528060200260200182016040528015610d7457816020015b610d616114b2565b815260200190600190039081610d595790505b50905060005b82811015610ee557600060038281548110610d9857610d976120bb565b5b90600052602060002001549050600080600083815260200190815260200160002090506000806000805b8480549050811015610e4557811580610dfe575083858281548110610dea57610de96120bb565b5b906000526020600020906004020160030154115b15610e3257848181548110610e1657610e156120bb565b5b9060005260206000209060040201600301549350809250600191505b8080610e3d90612119565b915050610dc2565b506040518060800160405280868152602001858481548110610e6a57610e696120bb565b5b9060005260206000209060040201600101548152602001858481548110610e9457610e936120bb565b5b906000526020600020906004020160020154815260200184815250878781518110610ec257610ec16120bb565b5b602002602001018190525050505050508080610edd90612119565b915050610d7a565b50809250505090565b600560009054906101000a900473ffffffffffffffffffffffffffffffffffffffff1681565b6060806000805b600380549050811015610f7c5760008060038381548110610f3f57610f3e6120bb565b5b906000526020600020015481526020019081526020016000208054905082610f67919061236e565b91508080610f7490612119565b915050610f1b565b5060008167ffffffffffffffff811115610f9957610f98611561565b5b604051908082528060200260200182016040528015610fd257816020015b610fbf611488565b815260200190600190039081610fb75790505b50905060008267ffffffffffffffff811115610ff157610ff0611561565b5b60405190808252806020026020018201604052801561101f5781602001602082028036833780820191505090505b5090506000805b60038054905081101561118f5760008060006003848154811061104c5761104b6120bb565b5b90600052602060002001548152602001908152602001600020905060005b818054905081101561117a576040518060600160405280838381548110611094576110936120bb565b5b90600052602060002090600402016000015481526020018383815481106110be576110bd6120bb565b5b90600052602060002090600402016001015481526020018383815481106110e8576110e76120bb565b5b9060005260206000209060040201600201548152508685815181106111105761110f6120bb565b5b602002602001018190525081818154811061112e5761112d6120bb565b5b906000526020600020906004020160030154858581518110611153576111526120bb565b5b6020026020010181815250508380600101945050808061117290612119565b91505061106a565b5050808061118790612119565b915050611026565b50828295509550505050509091565b6000806111aa8361130d565b9050600081905060006040518060400160405280600c81526020017f426f617264204d656d626572000000000000000000000000000000000000000081525090508051825110156112015760009350505050611308565b60005b8151835161121291906123a2565b81116112ff5760006001905060005b83518110156112d65783818151811061123d5761123c6120bb565b5b602001015160f81c60f81b7effffffffffffffffffffffffffffffffffffffffffffffffffffffffffffff1916858285611277919061236e565b81518110611288576112876120bb565b5b602001015160f81c60f81b7effffffffffffffffffffffffffffffffffffffffffffffffffffffffffffff1916146112c357600091506112d6565b80806112ce90612119565b915050611221565b5080156112eb57600195505050505050611308565b5080806112f790612119565b915050611204565b50600093505050505b919050565b606060005b60208110801561135e5750600060f81b838260208110611335576113346120bb565b5b1a60f81b7effffffffffffffffffffffffffffffffffffffffffffffffffffffffffffff191614155b15611370578080600101915050611312565b60008167ffffffffffffffff81111561138c5761138b611561565b5b6040519080825280601f01601f1916602001820160405280156113be5781602001600182028036833780820191505090505b50905060005b82811015611438578481602081106113df576113de6120bb565b5b1a60f81b8282815181106113f6576113f56120bb565b5b60200101907effffffffffffffffffffffffffffffffffffffffffffffffffffffffffffff1916908160001a905350808061143090612119565b9150506113c4565b508092505050919050565b508054600082559060005260206000209081019061146191906114e3565b50565b50805460008255600402906000526020600020908101906114859190611500565b50565b60405180606001604052806000801916815260200160008019168152602001600080191681525090565b6040518060800160405280600080191681526020016000801916815260200160008019168152602001600081525090565b5b808211156114fc5760008160009055506001016114e4565b5090565b5b808211156115335760008082016000905560018201600090556002820160009055600382016000905550600401611501565b5090565b6000604051905090565b600080fd5b600080fd5b600080fd5b6000601f19601f8301169050919050565b7f4e487b7100000000000000000000000000000000000000000000000000000000600052604160045260246000fd5b61159982611550565b810181811067ffffffffffffffff821117156115b8576115b7611561565b5b80604052505050565b60006115cb611537565b90506115d78282611590565b919050565b600067ffffffffffffffff8211156115f7576115f6611561565b5b602082029050602081019050919050565b600080fd5b6000819050919050565b6116208161160d565b811461162b57600080fd5b50565b60008135905061163d81611617565b92915050565b6000611656611651846115dc565b6115c1565b9050808382526020820190506020840283018581111561167957611678611608565b5b835b818110156116a2578061168e888261162e565b84526020840193505060208101905061167b565b5050509392505050565b600082601f8301126116c1576116c061154b565b5b81356116d1848260208601611643565b91505092915050565b600067ffffffffffffffff8211156116f5576116f4611561565b5b602082029050602081019050919050565b600067ffffffffffffffff82111561172157611720611561565b5b602082029050602081019050919050565b600080fd5b60006060828403121561174d5761174c611732565b5b61175760606115c1565b905060006117678482850161162e565b600083015250602061177b8482850161162e565b602083015250604061178f8482850161162e565b60408301525092915050565b60006117ae6117a984611706565b6115c1565b905080838252602082019050606084028301858111156117d1576117d0611608565b5b835b818110156117fa57806117e68882611737565b8452602084019350506060810190506117d3565b5050509392505050565b600082601f8301126118195761181861154b565b5b813561182984826020860161179b565b91505092915050565b6000611845611840846116da565b6115c1565b9050808382526020820190506020840283018581111561186857611867611608565b5b835b818110156118af57803567ffffffffffffffff81111561188d5761188c61154b565b5b80860161189a8982611804565b8552602085019450505060208101905061186a565b5050509392505050565b600082601f8301126118ce576118cd61154b565b5b81356118de848260208601611832565b91505092915050565b600080600060608486031215611900576118ff611541565b5b600084013567ffffffffffffffff81111561191e5761191d611546565b5b61192a868287016116ac565b935050602084013567ffffffffffffffff81111561194b5761194a611546565b5b611957868287016118b9565b925050604084013567ffffffffffffffff81111561197857611977611546565b5b611984868287016116ac565b9150509250925092565b6000806000606084860312156119a7576119a6611541565b5b600084013567ffffffffffffffff8111156119c5576119c4611546565b5b6119d1868287016116ac565b935050602084013567ffffffffffffffff8111156119f2576119f1611546565b5b6119fe868287016116ac565b9250506040611a0f8682870161162e565b9150509250925092565b600060208284031215611a2f57611a2e611541565b5b6000611a3d8482850161162e565b91505092915050565b611a4f8161160d565b82525050565b6000602082019050611a6a6000830184611a46565b92915050565b6000819050919050565b611a8381611a70565b8114611a8e57600080fd5b50565b600081359050611aa081611a7a565b92915050565b60008060408385031215611abd57611abc611541565b5b6000611acb8582860161162e565b9250506020611adc85828601611a91565b9150509250929050565b600081519050919050565b600082825260208201905092915050565b6000819050602082019050919050565b611b1b8161160d565b82525050565b6000611b2d8383611b12565b60208301905092915050565b6000602082019050919050565b6000611b5182611ae6565b611b5b8185611af1565b9350611b6683611b02565b8060005b83811015611b97578151611b7e8882611b21565b9750611b8983611b39565b925050600181019050611b6a565b5085935050505092915050565b60006020820190508181036000830152611bbe8184611b46565b905092915050565b600081519050919050565b600082825260208201905092915050565b6000819050602082019050919050565b606082016000820151611c086000850182611b12565b506020820151611c1b6020850182611b12565b506040820151611c2e6040850182611b12565b50505050565b6000611c408383611bf2565b60608301905092915050565b6000602082019050919050565b6000611c6482611bc6565b611c6e8185611bd1565b9350611c7983611be2565b8060005b83811015611caa578151611c918882611c34565b9750611c9c83611c4c565b925050600181019050611c7d565b5085935050505092915050565b60006020820190508181036000830152611cd18184611c59565b905092915050565b60008115159050919050565b611cee81611cd9565b82525050565b6000602082019050611d096000830184611ce5565b92915050565b600081519050919050565b600082825260208201905092915050565b6000819050602082019050919050565b611d4481611a70565b82525050565b608082016000820151611d606000850182611b12565b506020820151611d736020850182611b12565b506040820151611d866040850182611b12565b506060820151611d996060850182611d3b565b50505050565b6000611dab8383611d4a565b60808301905092915050565b6000602082019050919050565b6000611dcf82611d0f565b611dd98185611d1a565b9350611de483611d2b565b8060005b83811015611e15578151611dfc8882611d9f565b9750611e0783611db7565b925050600181019050611de8565b5085935050505092915050565b60006020820190508181036000830152611e3c8184611dc4565b905092915050565b600073ffffffffffffffffffffffffffffffffffffffff82169050919050565b6000611e6f82611e44565b9050919050565b611e7f81611e64565b82525050565b6000602082019050611e9a6000830184611e76565b92915050565b600081519050919050565b600082825260208201905092915050565b6000819050602082019050919050565b6000611ed88383611d3b565b60208301905092915050565b6000602082019050919050565b6000611efc82611ea0565b611f068185611eab565b9350611f1183611ebc565b8060005b83811015611f42578151611f298882611ecc565b9750611f3483611ee4565b925050600181019050611f15565b5085935050505092915050565b60006040820190508181036000830152611f698185611c59565b90508181036020830152611f7d8184611ef1565b90509392505050565b600082825260208201905092915050565b7f4f6e6c792061646d696e2063616e20706572666f726d2074686973206163746960008201527f6f6e000000000000000000000000000000000000000000000000000000000000602082015250565b6000611ff3602283611f86565b9150611ffe82611f97565b604082019050919050565b6000602082019050818103600083015261202281611fe6565b9050919050565b7f43616e646964617465732061726520616c72656164792066696e616c697a656460008201527f2100000000000000000000000000000000000000000000000000000000000000602082015250565b6000612085602183611f86565b915061209082612029565b604082019050919050565b600060208201905081810360008301526120b481612078565b9050919050565b7f4e487b7100000000000000000000000000000000000000000000000000000000600052603260045260246000fd5b7f4e487b7100000000000000000000000000000000000000000000000000000000600052601160045260246000fd5b600061212482611a70565b91507fffffffffffffffffffffffffffffffffffffffffffffffffffffffffffffffff8203612156576121556120ea565b5b600182019050919050565b7f566f74696e672063616e6e6f7420737461727420756e74696c2063616e64696460008201527f61746573206172652066696e616c697a65642100000000000000000000000000602082015250565b60006121bd603383611f86565b91506121c882612161565b604082019050919050565b600060208201905081810360008301526121ec816121b0565b9050919050565b7f4d69736d61746368656420696e707574206c656e677468730000000000000000600082015250565b6000612229601883611f86565b9150612234826121f3565b602082019050919050565b600060208201905081810360008301526122588161221c565b9050919050565b7f566f7465722068617320616c726561647920766f746564000000000000000000600082015250565b6000612295601783611f86565b91506122a08261225f565b602082019050919050565b600060208201905081810360008301526122c481612288565b9050919050565b7f496e76616c69642063616e646964617465206964000000000000000000000000600082015250565b6000612301601483611f86565b915061230c826122cb565b602082019050919050565b60006020820190508181036000830152612330816122f4565b9050919050565b600060608201905061234c6000830186611a46565b6123596020830185611a46565b6123666040830184611a46565b949350505050565b600061237982611a70565b915061238483611a70565b925082820190508082111561239c5761239b6120ea565b5b92915050565b60006123ad82611a70565b91506123b883611a70565b92508282039050818111156123d0576123cf6120ea565b5b9291505056fea2646970667358221220f96ff35815f2b52226f87cb7045f845995d88778e09cb600c146ffd7c3f2342b64736f6c63430008150033","opcodes":"PUSH1 0x80 PUSH1 0x40 MSTORE PUSH1 0x0 PUSH1 0x5 PUSH1 0x14 PUSH2 0x100 EXP DUP2 SLOAD DUP2 PUSH1 0xFF MUL NOT AND SWAP1 DUP4 ISZERO ISZERO MUL OR SWAP1 SSTORE POP CALLVALUE DUP1 ISZERO PUSH2 0x2B JUMPI PUSH1 0x0 DUP1 REVERT JUMPDEST POP CALLER PUSH1 0x5 PUSH1 0x0 PUSH2 0x100 EXP DUP2 SLOAD DUP2 PUSH20 0xFFFFFFFFFFFFFFFFFFFFFFFFFFFFFFFFFFFFFFFF MUL NOT AND SWAP1 DUP4 PUSH20 0xFFFFFFFFFFFFFFFFFFFFFFFFFFFFFFFFFFFFFFFF AND MUL OR SWAP1 SSTORE POP PUSH2 0x240C DUP1 PUSH2 0x7C PUSH1 0x0 CODECOPY PUSH1 0x0 RETURN INVALID PUSH1 0x80 PUSH1 0x40 MSTORE CALLVALUE DUP1 ISZERO PUSH2 0x10 JUMPI PUSH1 0x0 DUP1 REVERT JUMPDEST POP PUSH1 0x4 CALLDATASIZE LT PUSH2 0xA9 JUMPI PUSH1 0x0 CALLDATALOAD PUSH1 0xE0 SHR DUP1 PUSH4 0x85B923CA GT PUSH2 0x71 JUMPI DUP1 PUSH4 0x85B923CA EQ PUSH2 0x150 JUMPI DUP1 PUSH4 0x8D4E4083 EQ PUSH2 0x180 JUMPI DUP1 PUSH4 0xA5D3157E EQ PUSH2 0x19E JUMPI DUP1 PUSH4 0xDF15C37E EQ PUSH2 0x1BC JUMPI DUP1 PUSH4 0xF851A440 EQ PUSH2 0x1DA JUMPI DUP1 PUSH4 0xFFC97B20 EQ PUSH2 0x1F8 JUMPI PUSH2 0xA9 JUMP JUMPDEST DUP1 PUSH4 0x7F1DB5B EQ PUSH2 0xAE JUMPI DUP1 PUSH4 0x3B06843B EQ PUSH2 0xCA JUMPI DUP1 PUSH4 0x56FC64F8 EQ PUSH2 0xE6 JUMPI DUP1 PUSH4 0x70918CE3 EQ PUSH2 0x116 JUMPI DUP1 PUSH4 0x7718D9F3 EQ PUSH2 0x146 JUMPI JUMPDEST PUSH1 0x0 DUP1 REVERT JUMPDEST PUSH2 0xC8 PUSH1 0x4 DUP1 CALLDATASIZE SUB DUP2 ADD SWAP1 PUSH2 0xC3 SWAP2 SWAP1 PUSH2 0x18E7 JUMP JUMPDEST PUSH2 0x217 JUMP JUMPDEST STOP JUMPDEST PUSH2 0xE4 PUSH1 0x4 DUP1 CALLDATASIZE SUB DUP2 ADD SWAP1 PUSH2 0xDF SWAP2 SWAP1 PUSH2 0x198E JUMP JUMPDEST PUSH2 0x666 JUMP JUMPDEST STOP JUMPDEST PUSH2 0x100 PUSH1 0x4 DUP1 CALLDATASIZE SUB DUP2 ADD SWAP1 PUSH2 0xFB SWAP2 SWAP1 PUSH2 0x1A19 JUMP JUMPDEST PUSH2 0x980 JUMP JUMPDEST PUSH1 0x40 MLOAD PUSH2 0x10D SWAP2 SWAP1 PUSH2 0x1A55 JUMP JUMPDEST PUSH1 0x40 MLOAD DUP1 SWAP2 SUB SWAP1 RETURN JUMPDEST PUSH2 0x130 PUSH1 0x4 DUP1 CALLDATASIZE SUB DUP2 ADD SWAP1 PUSH2 0x12B SWAP2 SWAP1 PUSH2 0x1AA6 JUMP JUMPDEST PUSH2 0x998 JUMP JUMPDEST PUSH1 0x40 MLOAD PUSH2 0x13D SWAP2 SWAP1 PUSH2 0x1BA4 JUMP JUMPDEST PUSH1 0x40 MLOAD DUP1 SWAP2 SUB SWAP1 RETURN JUMPDEST PUSH2 0x14E PUSH2 0xA15 JUMP JUMPDEST STOP JUMPDEST PUSH2 0x16A PUSH1 0x4 DUP1 CALLDATASIZE SUB DUP2 ADD SWAP1 PUSH2 0x165 SWAP2 SWAP1 PUSH2 0x1A19 JUMP JUMPDEST PUSH2 0xB62 JUMP JUMPDEST PUSH1 0x40 MLOAD PUSH2 0x177 SWAP2 SWAP1 PUSH2 0x1CB7 JUMP JUMPDEST PUSH1 0x40 MLOAD DUP1 SWAP2 SUB SWAP1 RETURN JUMPDEST PUSH2 0x188 PUSH2 0xCA8 JUMP JUMPDEST PUSH1 0x40 MLOAD PUSH2 0x195 SWAP2 SWAP1 PUSH2 0x1CF4 JUMP JUMPDEST PUSH1 0x40 MLOAD DUP1 SWAP2 SUB SWAP1 RETURN JUMPDEST PUSH2 0x1A6 PUSH2 0xCBB JUMP JUMPDEST PUSH1 0x40 MLOAD PUSH2 0x1B3 SWAP2 SWAP1 PUSH2 0x1BA4 JUMP JUMPDEST PUSH1 0x40 MLOAD DUP1 SWAP2 SUB SWAP1 RETURN JUMPDEST PUSH2 0x1C4 PUSH2 0xD13 JUMP JUMPDEST PUSH1 0x40 MLOAD PUSH2 0x1D1 SWAP2 SWAP1 PUSH2 0x1E22 JUMP JUMPDEST PUSH1 0x40 MLOAD DUP1 SWAP2 SUB SWAP1 RETURN JUMPDEST PUSH2 0x1E2 PUSH2 0xEEE JUMP JUMPDEST PUSH1 0x40 MLOAD PUSH2 0x1EF SWAP2 SWAP1 PUSH2 0x1E85 JUMP JUMPDEST PUSH1 0x40 MLOAD DUP1 SWAP2 SUB SWAP1 RETURN JUMPDEST PUSH2 0x200 PUSH2 0xF14 JUMP JUMPDEST PUSH1 0x40 MLOAD PUSH2 0x20E SWAP3 SWAP2 SWAP1 PUSH2 0x1F4F JUMP JUMPDEST PUSH1 0x40 MLOAD DUP1 SWAP2 SUB SWAP1 RETURN JUMPDEST PUSH1 0x5 PUSH1 0x0 SWAP1 SLOAD SWAP1 PUSH2 0x100 EXP SWAP1 DIV PUSH20 0xFFFFFFFFFFFFFFFFFFFFFFFFFFFFFFFFFFFFFFFF AND PUSH20 0xFFFFFFFFFFFFFFFFFFFFFFFFFFFFFFFFFFFFFFFF AND CALLER PUSH20 0xFFFFFFFFFFFFFFFFFFFFFFFFFFFFFFFFFFFFFFFF AND EQ PUSH2 0x2A7 JUMPI PUSH1 0x40 MLOAD PUSH32 0x8C379A000000000000000000000000000000000000000000000000000000000 DUP2 MSTORE PUSH1 0x4 ADD PUSH2 0x29E SWAP1 PUSH2 0x2009 JUMP JUMPDEST PUSH1 0x40 MLOAD DUP1 SWAP2 SUB SWAP1 REVERT JUMPDEST PUSH1 0x5 PUSH1 0x14 SWAP1 SLOAD SWAP1 PUSH2 0x100 EXP SWAP1 DIV PUSH1 0xFF AND ISZERO PUSH2 0x2F7 JUMPI PUSH1 0x40 MLOAD PUSH32 0x8C379A000000000000000000000000000000000000000000000000000000000 DUP2 MSTORE PUSH1 0x4 ADD PUSH2 0x2EE SWAP1 PUSH2 0x209B JUMP JUMPDEST PUSH1 0x40 MLOAD DUP1 SWAP2 SUB SWAP1 REVERT JUMPDEST PUSH1 0x3 PUSH1 0x0 PUSH2 0x305 SWAP2 SWAP1 PUSH2 0x1443 JUMP JUMPDEST PUSH1 0x0 JUMPDEST DUP4 MLOAD DUP2 LT ISZERO PUSH2 0x619 JUMPI PUSH1 0x0 DUP1 PUSH1 0x0 DUP7 DUP5 DUP2 MLOAD DUP2 LT PUSH2 0x329 JUMPI PUSH2 0x328 PUSH2 0x20BB JUMP JUMPDEST JUMPDEST PUSH1 0x20 MUL PUSH1 0x20 ADD ADD MLOAD DUP2 MSTORE PUSH1 0x20 ADD SWAP1 DUP2 MSTORE PUSH1 0x20 ADD PUSH1 0x0 KECCAK256 DUP1 SLOAD SWAP1 POP SUB PUSH2 0x38C JUMPI PUSH1 0x3 DUP5 DUP3 DUP2 MLOAD DUP2 LT PUSH2 0x35D JUMPI PUSH2 0x35C PUSH2 0x20BB JUMP JUMPDEST JUMPDEST PUSH1 0x20 MUL PUSH1 0x20 ADD ADD MLOAD SWAP1 DUP1 PUSH1 0x1 DUP2 SLOAD ADD DUP1 DUP3 SSTORE DUP1 SWAP2 POP POP PUSH1 0x1 SWAP1 SUB SWAP1 PUSH1 0x0 MSTORE PUSH1 0x20 PUSH1 0x0 KECCAK256 ADD PUSH1 0x0 SWAP1 SWAP2 SWAP1 SWAP2 SWAP1 SWAP2 POP SSTORE JUMPDEST PUSH1 0x0 DUP1 DUP6 DUP4 DUP2 MLOAD DUP2 LT PUSH2 0x3A2 JUMPI PUSH2 0x3A1 PUSH2 0x20BB JUMP JUMPDEST JUMPDEST PUSH1 0x20 MUL PUSH1 0x20 ADD ADD MLOAD DUP2 MSTORE PUSH1 0x20 ADD SWAP1 DUP2 MSTORE PUSH1 0x20 ADD PUSH1 0x0 KECCAK256 PUSH1 0x0 PUSH2 0x3C4 SWAP2 SWAP1 PUSH2 0x1464 JUMP JUMPDEST PUSH1 0x0 JUMPDEST DUP4 DUP3 DUP2 MLOAD DUP2 LT PUSH2 0x3DA JUMPI PUSH2 0x3D9 PUSH2 0x20BB JUMP JUMPDEST JUMPDEST PUSH1 0x20 MUL PUSH1 0x20 ADD ADD MLOAD MLOAD DUP2 LT ISZERO PUSH2 0x590 JUMPI PUSH1 0x0 DUP1 DUP7 DUP5 DUP2 MLOAD DUP2 LT PUSH2 0x400 JUMPI PUSH2 0x3FF PUSH2 0x20BB JUMP JUMPDEST JUMPDEST PUSH1 0x20 MUL PUSH1 0x20 ADD ADD MLOAD DUP2 MSTORE PUSH1 0x20 ADD SWAP1 DUP2 MSTORE PUSH1 0x20 ADD PUSH1 0x0 KECCAK256 PUSH1 0x40 MLOAD DUP1 PUSH1 0x80 ADD PUSH1 0x40 MSTORE DUP1 DUP7 DUP6 DUP2 MLOAD DUP2 LT PUSH2 0x434 JUMPI PUSH2 0x433 PUSH2 0x20BB JUMP JUMPDEST JUMPDEST PUSH1 0x20 MUL PUSH1 0x20 ADD ADD MLOAD DUP5 DUP2 MLOAD DUP2 LT PUSH2 0x44E JUMPI PUSH2 0x44D PUSH2 0x20BB JUMP JUMPDEST JUMPDEST PUSH1 0x20 MUL PUSH1 0x20 ADD ADD MLOAD PUSH1 0x0 ADD MLOAD DUP2 MSTORE PUSH1 0x20 ADD DUP7 DUP6 DUP2 MLOAD DUP2 LT PUSH2 0x472 JUMPI PUSH2 0x471 PUSH2 0x20BB JUMP JUMPDEST JUMPDEST PUSH1 0x20 MUL PUSH1 0x20 ADD ADD MLOAD DUP5 DUP2 MLOAD DUP2 LT PUSH2 0x48C JUMPI PUSH2 0x48B PUSH2 0x20BB JUMP JUMPDEST JUMPDEST PUSH1 0x20 MUL PUSH1 0x20 ADD ADD MLOAD PUSH1 0x20 ADD MLOAD DUP2 MSTORE PUSH1 0x20 ADD DUP7 DUP6 DUP2 MLOAD DUP2 LT PUSH2 0x4B0 JUMPI PUSH2 0x4AF PUSH2 0x20BB JUMP JUMPDEST JUMPDEST PUSH1 0x20 MUL PUSH1 0x20 ADD ADD MLOAD DUP5 DUP2 MLOAD DUP2 LT PUSH2 0x4CA JUMPI PUSH2 0x4C9 PUSH2 0x20BB JUMP JUMPDEST JUMPDEST PUSH1 0x20 MUL PUSH1 0x20 ADD ADD MLOAD PUSH1 0x40 ADD MLOAD DUP2 MSTORE PUSH1 0x20 ADD PUSH1 0x0 DUP2 MSTORE POP SWAP1 DUP1 PUSH1 0x1 DUP2 SLOAD ADD DUP1 DUP3 SSTORE DUP1 SWAP2 POP POP PUSH1 0x1 SWAP1 SUB SWAP1 PUSH1 0x0 MSTORE PUSH1 0x20 PUSH1 0x0 KECCAK256 SWAP1 PUSH1 0x4 MUL ADD PUSH1 0x0 SWAP1 SWAP2 SWAP1 SWAP2 SWAP1 SWAP2 POP PUSH1 0x0 DUP3 ADD MLOAD DUP2 PUSH1 0x0 ADD SSTORE PUSH1 0x20 DUP3 ADD MLOAD DUP2 PUSH1 0x1 ADD SSTORE PUSH1 0x40 DUP3 ADD MLOAD DUP2 PUSH1 0x2 ADD SSTORE PUSH1 0x60 DUP3 ADD MLOAD DUP2 PUSH1 0x3 ADD SSTORE POP POP PUSH1 0x1 PUSH1 0x0 DUP7 DUP5 DUP2 MLOAD DUP2 LT PUSH2 0x54A JUMPI PUSH2 0x549 PUSH2 0x20BB JUMP JUMPDEST JUMPDEST PUSH1 0x20 MUL PUSH1 0x20 ADD ADD MLOAD DUP2 MSTORE PUSH1 0x20 ADD SWAP1 DUP2 MSTORE PUSH1 0x20 ADD PUSH1 0x0 KECCAK256 PUSH1 0x0 DUP3 DUP2 MSTORE PUSH1 0x20 ADD SWAP1 DUP2 MSTORE PUSH1 0x20 ADD PUSH1 0x0 KECCAK256 PUSH1 0x0 PUSH2 0x57D SWAP2 SWAP1 PUSH2 0x1443 JUMP JUMPDEST DUP1 DUP1 PUSH2 0x588 SWAP1 PUSH2 0x2119 JUMP JUMPDEST SWAP2 POP POP PUSH2 0x3C7 JUMP JUMPDEST POP PUSH2 0x5B4 DUP5 DUP3 DUP2 MLOAD DUP2 LT PUSH2 0x5A7 JUMPI PUSH2 0x5A6 PUSH2 0x20BB JUMP JUMPDEST JUMPDEST PUSH1 0x20 MUL PUSH1 0x20 ADD ADD MLOAD PUSH2 0x119E JUMP JUMPDEST ISZERO PUSH2 0x606 JUMPI DUP2 DUP2 DUP2 MLOAD DUP2 LT PUSH2 0x5CC JUMPI PUSH2 0x5CB PUSH2 0x20BB JUMP JUMPDEST JUMPDEST PUSH1 0x20 MUL PUSH1 0x20 ADD ADD MLOAD PUSH1 0x4 PUSH1 0x0 DUP7 DUP5 DUP2 MLOAD DUP2 LT PUSH2 0x5EB JUMPI PUSH2 0x5EA PUSH2 0x20BB JUMP JUMPDEST JUMPDEST PUSH1 0x20 MUL PUSH1 0x20 ADD ADD MLOAD DUP2 MSTORE PUSH1 0x20 ADD SWAP1 DUP2 MSTORE PUSH1 0x20 ADD PUSH1 0x0 KECCAK256 DUP2 SWAP1 SSTORE POP JUMPDEST DUP1 DUP1 PUSH2 0x611 SWAP1 PUSH2 0x2119 JUMP JUMPDEST SWAP2 POP POP PUSH2 0x308 JUMP JUMPDEST POP PUSH1 0x1 PUSH1 0x5 PUSH1 0x14 PUSH2 0x100 EXP DUP2 SLOAD DUP2 PUSH1 0xFF MUL NOT AND SWAP1 DUP4 ISZERO ISZERO MUL OR SWAP1 SSTORE POP PUSH32 0x86825B43264CA968E676C45C8E05CC56965FF5938ED49DCF636C61ACB7070BD7 PUSH1 0x40 MLOAD PUSH1 0x40 MLOAD DUP1 SWAP2 SUB SWAP1 LOG1 POP POP POP JUMP JUMPDEST PUSH1 0x5 PUSH1 0x14 SWAP1 SLOAD SWAP1 PUSH2 0x100 EXP SWAP1 DIV PUSH1 0xFF AND PUSH2 0x6B5 JUMPI PUSH1 0x40 MLOAD PUSH32 0x8C379A000000000000000000000000000000000000000000000000000000000 DUP2 MSTORE PUSH1 0x4 ADD PUSH2 0x6AC SWAP1 PUSH2 0x21D3 JUMP JUMPDEST PUSH1 0x40 MLOAD DUP1 SWAP2 SUB SWAP1 REVERT JUMPDEST DUP2 MLOAD DUP4 MLOAD EQ PUSH2 0x6F9 JUMPI PUSH1 0x40 MLOAD PUSH32 0x8C379A000000000000000000000000000000000000000000000000000000000 DUP2 MSTORE PUSH1 0x4 ADD PUSH2 0x6F0 SWAP1 PUSH2 0x223F JUMP JUMPDEST PUSH1 0x40 MLOAD DUP1 SWAP2 SUB SWAP1 REVERT JUMPDEST PUSH1 0x2 PUSH1 0x0 DUP3 DUP2 MSTORE PUSH1 0x20 ADD SWAP1 DUP2 MSTORE PUSH1 0x20 ADD PUSH1 0x0 KECCAK256 PUSH1 0x0 SWAP1 SLOAD SWAP1 PUSH2 0x100 EXP SWAP1 DIV PUSH1 0xFF AND ISZERO PUSH2 0x75A JUMPI PUSH1 0x40 MLOAD PUSH32 0x8C379A000000000000000000000000000000000000000000000000000000000 DUP2 MSTORE PUSH1 0x4 ADD PUSH2 0x751 SWAP1 PUSH2 0x22AB JUMP JUMPDEST PUSH1 0x40 MLOAD DUP1 SWAP2 SUB SWAP1 REVERT JUMPDEST PUSH1 0x1 PUSH1 0x2 PUSH1 0x0 DUP4 DUP2 MSTORE PUSH1 0x20 ADD SWAP1 DUP2 MSTORE PUSH1 0x20 ADD PUSH1 0x0 KECCAK256 PUSH1 0x0 PUSH2 0x100 EXP DUP2 SLOAD DUP2 PUSH1 0xFF MUL NOT AND SWAP1 DUP4 ISZERO ISZERO MUL OR SWAP1 SSTORE POP PUSH1 0x0 JUMPDEST DUP4 MLOAD DUP2 LT ISZERO PUSH2 0x97A JUMPI PUSH1 0x0 DUP5 DUP3 DUP2 MLOAD DUP2 LT PUSH2 0x7A7 JUMPI PUSH2 0x7A6 PUSH2 0x20BB JUMP JUMPDEST JUMPDEST PUSH1 0x20 MUL PUSH1 0x20 ADD ADD MLOAD SWAP1 POP PUSH1 0x0 DUP5 DUP4 DUP2 MLOAD DUP2 LT PUSH2 0x7C6 JUMPI PUSH2 0x7C5 PUSH2 0x20BB JUMP JUMPDEST JUMPDEST PUSH1 0x20 MUL PUSH1 0x20 ADD ADD MLOAD SWAP1 POP PUSH1 0x0 DUP1 DUP1 PUSH1 0x0 SWAP1 POP JUMPDEST PUSH1 0x0 DUP1 DUP7 DUP2 MSTORE PUSH1 0x20 ADD SWAP1 DUP2 MSTORE PUSH1 0x20 ADD PUSH1 0x0 KECCAK256 DUP1 SLOAD SWAP1 POP DUP2 LT ISZERO PUSH2 0x851 JUMPI DUP4 PUSH1 0x0 DUP1 DUP8 DUP2 MSTORE PUSH1 0x20 ADD SWAP1 DUP2 MSTORE PUSH1 0x20 ADD PUSH1 0x0 KECCAK256 DUP3 DUP2 SLOAD DUP2 LT PUSH2 0x81B JUMPI PUSH2 0x81A PUSH2 0x20BB JUMP JUMPDEST JUMPDEST SWAP1 PUSH1 0x0 MSTORE PUSH1 0x20 PUSH1 0x0 KECCAK256 SWAP1 PUSH1 0x4 MUL ADD PUSH1 0x0 ADD SLOAD SUB PUSH2 0x83E JUMPI PUSH1 0x1 SWAP3 POP DUP1 SWAP2 POP PUSH2 0x851 JUMP JUMPDEST DUP1 DUP1 PUSH2 0x849 SWAP1 PUSH2 0x2119 JUMP JUMPDEST SWAP2 POP POP PUSH2 0x7D9 JUMP JUMPDEST POP DUP2 PUSH2 0x892 JUMPI PUSH1 0x40 MLOAD PUSH32 0x8C379A000000000000000000000000000000000000000000000000000000000 DUP2 MSTORE PUSH1 0x4 ADD PUSH2 0x889 SWAP1 PUSH2 0x2317 JUMP JUMPDEST PUSH1 0x40 MLOAD DUP1 SWAP2 SUB SWAP1 REVERT JUMPDEST PUSH1 0x0 DUP1 DUP6 DUP2 MSTORE PUSH1 0x20 ADD SWAP1 DUP2 MSTORE PUSH1 0x20 ADD PUSH1 0x0 KECCAK256 DUP2 DUP2 SLOAD DUP2 LT PUSH2 0x8B6 JUMPI PUSH2 0x8B5 PUSH2 0x20BB JUMP JUMPDEST JUMPDEST SWAP1 PUSH1 0x0 MSTORE PUSH1 0x20 PUSH1 0x0 KECCAK256 SWAP1 PUSH1 0x4 MUL ADD PUSH1 0x3 ADD PUSH1 0x0 DUP2 SLOAD DUP1 SWAP3 SWAP2 SWAP1 PUSH2 0x8D8 SWAP1 PUSH2 0x2119 JUMP JUMPDEST SWAP2 SWAP1 POP SSTORE POP PUSH1 0x1 PUSH1 0x0 DUP6 DUP2 MSTORE PUSH1 0x20 ADD SWAP1 DUP2 MSTORE PUSH1 0x20 ADD PUSH1 0x0 KECCAK256 PUSH1 0x0 DUP3 DUP2 MSTORE PUSH1 0x20 ADD SWAP1 DUP2 MSTORE PUSH1 0x20 ADD PUSH1 0x0 KECCAK256 DUP7 SWAP1 DUP1 PUSH1 0x1 DUP2 SLOAD ADD DUP1 DUP3 SSTORE DUP1 SWAP2 POP POP PUSH1 0x1 SWAP1 SUB SWAP1 PUSH1 0x0 MSTORE PUSH1 0x20 PUSH1 0x0 KECCAK256 ADD PUSH1 0x0 SWAP1 SWAP2 SWAP1 SWAP2 SWAP1 SWAP2 POP SSTORE PUSH32 0x178E76FAA844F1C429CBE43BB805A70530F990EF2ACC87F8F626AC80FF484909 DUP5 DUP5 DUP9 PUSH1 0x40 MLOAD PUSH2 0x95B SWAP4 SWAP3 SWAP2 SWAP1 PUSH2 0x2337 JUMP JUMPDEST PUSH1 0x40 MLOAD DUP1 SWAP2 SUB SWAP1 LOG1 POP POP POP POP DUP1 DUP1 PUSH2 0x972 SWAP1 PUSH2 0x2119 JUMP JUMPDEST SWAP2 POP POP PUSH2 0x789 JUMP JUMPDEST POP POP POP POP JUMP JUMPDEST PUSH1 0x4 PUSH1 0x20 MSTORE DUP1 PUSH1 0x0 MSTORE PUSH1 0x40 PUSH1 0x0 KECCAK256 PUSH1 0x0 SWAP2 POP SWAP1 POP SLOAD DUP2 JUMP JUMPDEST PUSH1 0x60 PUSH1 0x1 PUSH1 0x0 DUP5 DUP2 MSTORE PUSH1 0x20 ADD SWAP1 DUP2 MSTORE PUSH1 0x20 ADD PUSH1 0x0 KECCAK256 PUSH1 0x0 DUP4 DUP2 MSTORE PUSH1 0x20 ADD SWAP1 DUP2 MSTORE PUSH1 0x20 ADD PUSH1 0x0 KECCAK256 DUP1 SLOAD DUP1 PUSH1 0x20 MUL PUSH1 0x20 ADD PUSH1 0x40 MLOAD SWAP1 DUP2 ADD PUSH1 0x40 MSTORE DUP1 SWAP3 SWAP2 SWAP1 DUP2 DUP2 MSTORE PUSH1 0x20 ADD DUP3 DUP1 SLOAD DUP1 ISZERO PUSH2 0xA08 JUMPI PUSH1 0x20 MUL DUP3 ADD SWAP2 SWAP1 PUSH1 0x0 MSTORE PUSH1 0x20 PUSH1 0x0 KECCAK256 SWAP1 JUMPDEST DUP2 SLOAD DUP2 MSTORE PUSH1 0x20 ADD SWAP1 PUSH1 0x1 ADD SWAP1 DUP1 DUP4 GT PUSH2 0x9F4 JUMPI JUMPDEST POP POP POP POP POP SWAP1 POP SWAP3 SWAP2 POP POP JUMP JUMPDEST PUSH1 0x5 PUSH1 0x0 SWAP1 SLOAD SWAP1 PUSH2 0x100 EXP SWAP1 DIV PUSH20 0xFFFFFFFFFFFFFFFFFFFFFFFFFFFFFFFFFFFFFFFF AND PUSH20 0xFFFFFFFFFFFFFFFFFFFFFFFFFFFFFFFFFFFFFFFF AND CALLER PUSH20 0xFFFFFFFFFFFFFFFFFFFFFFFFFFFFFFFFFFFFFFFF AND EQ PUSH2 0xAA5 JUMPI PUSH1 0x40 MLOAD PUSH32 0x8C379A000000000000000000000000000000000000000000000000000000000 DUP2 MSTORE PUSH1 0x4 ADD PUSH2 0xA9C SWAP1 PUSH2 0x2009 JUMP JUMPDEST PUSH1 0x40 MLOAD DUP1 SWAP2 SUB SWAP1 REVERT JUMPDEST PUSH1 0x0 JUMPDEST PUSH1 0x3 DUP1 SLOAD SWAP1 POP DUP2 LT ISZERO PUSH2 0xB0A JUMPI PUSH1 0x0 PUSH1 0x3 DUP3 DUP2 SLOAD DUP2 LT PUSH2 0xACB JUMPI PUSH2 0xACA PUSH2 0x20BB JUMP JUMPDEST JUMPDEST SWAP1 PUSH1 0x0 MSTORE PUSH1 0x20 PUSH1 0x0 KECCAK256 ADD SLOAD SWAP1 POP PUSH1 0x0 DUP1 DUP3 DUP2 MSTORE PUSH1 0x20 ADD SWAP1 DUP2 MSTORE PUSH1 0x20 ADD PUSH1 0x0 KECCAK256 PUSH1 0x0 PUSH2 0xAF6 SWAP2 SWAP1 PUSH2 0x1464 JUMP JUMPDEST POP DUP1 DUP1 PUSH2 0xB02 SWAP1 PUSH2 0x2119 JUMP JUMPDEST SWAP2 POP POP PUSH2 0xAA8 JUMP JUMPDEST POP PUSH1 0x3 PUSH1 0x0 PUSH2 0xB19 SWAP2 SWAP1 PUSH2 0x1443 JUMP JUMPDEST PUSH1 0x0 PUSH1 0x5 PUSH1 0x14 PUSH2 0x100 EXP DUP2 SLOAD DUP2 PUSH1 0xFF MUL NOT AND SWAP1 DUP4 ISZERO ISZERO MUL OR SWAP1 SSTORE POP PUSH32 0x800BDAA40887CCFD790FDC79F47CF3ACBB2A1ECF28B3BCCB67E3719009C1BAB2 PUSH1 0x40 MLOAD PUSH1 0x40 MLOAD DUP1 SWAP2 SUB SWAP1 LOG1 JUMP JUMPDEST PUSH1 0x60 PUSH1 0x0 DUP1 PUSH1 0x0 DUP5 DUP2 MSTORE PUSH1 0x20 ADD SWAP1 DUP2 MSTORE PUSH1 0x20 ADD PUSH1 0x0 KECCAK256 SWAP1 POP PUSH1 0x0 DUP2 DUP1 SLOAD SWAP1 POP PUSH8 0xFFFFFFFFFFFFFFFF DUP2 GT ISZERO PUSH2 0xB9A JUMPI PUSH2 0xB99 PUSH2 0x1561 JUMP JUMPDEST JUMPDEST PUSH1 0x40 MLOAD SWAP1 DUP1 DUP3 MSTORE DUP1 PUSH1 0x20 MUL PUSH1 0x20 ADD DUP3 ADD PUSH1 0x40 MSTORE DUP1 ISZERO PUSH2 0xBD3 JUMPI DUP2 PUSH1 0x20 ADD JUMPDEST PUSH2 0xBC0 PUSH2 0x1488 JUMP JUMPDEST DUP2 MSTORE PUSH1 0x20 ADD SWAP1 PUSH1 0x1 SWAP1 SUB SWAP1 DUP2 PUSH2 0xBB8 JUMPI SWAP1 POP JUMPDEST POP SWAP1 POP PUSH1 0x0 JUMPDEST DUP3 DUP1 SLOAD SWAP1 POP DUP2 LT ISZERO PUSH2 0xC9D JUMPI PUSH1 0x40 MLOAD DUP1 PUSH1 0x60 ADD PUSH1 0x40 MSTORE DUP1 DUP5 DUP4 DUP2 SLOAD DUP2 LT PUSH2 0xC03 JUMPI PUSH2 0xC02 PUSH2 0x20BB JUMP JUMPDEST JUMPDEST SWAP1 PUSH1 0x0 MSTORE PUSH1 0x20 PUSH1 0x0 KECCAK256 SWAP1 PUSH1 0x4 MUL ADD PUSH1 0x0 ADD SLOAD DUP2 MSTORE PUSH1 0x20 ADD DUP5 DUP4 DUP2 SLOAD DUP2 LT PUSH2 0xC2D JUMPI PUSH2 0xC2C PUSH2 0x20BB JUMP JUMPDEST JUMPDEST SWAP1 PUSH1 0x0 MSTORE PUSH1 0x20 PUSH1 0x0 KECCAK256 SWAP1 PUSH1 0x4 MUL ADD PUSH1 0x1 ADD SLOAD DUP2 MSTORE PUSH1 0x20 ADD DUP5 DUP4 DUP2 SLOAD DUP2 LT PUSH2 0xC57 JUMPI PUSH2 0xC56 PUSH2 0x20BB JUMP JUMPDEST JUMPDEST SWAP1 PUSH1 0x0 MSTORE PUSH1 0x20 PUSH1 0x0 KECCAK256 SWAP1 PUSH1 0x4 MUL ADD PUSH1 0x2 ADD SLOAD DUP2 MSTORE POP DUP3 DUP3 DUP2 MLOAD DUP2 LT PUSH2 0xC7F JUMPI PUSH2 0xC7E PUSH2 0x20BB JUMP JUMPDEST JUMPDEST PUSH1 0x20 MUL PUSH1 0x20 ADD ADD DUP2 SWAP1 MSTORE POP DUP1 DUP1 PUSH2 0xC95 SWAP1 PUSH2 0x2119 JUMP JUMPDEST SWAP2 POP POP PUSH2 0xBD9 JUMP JUMPDEST POP DUP1 SWAP3 POP POP POP SWAP2 SWAP1 POP JUMP JUMPDEST PUSH1 0x5 PUSH1 0x14 SWAP1 SLOAD SWAP1 PUSH2 0x100 EXP SWAP1 DIV PUSH1 0xFF AND DUP2 JUMP JUMPDEST PUSH1 0x60 PUSH1 0x3 DUP1 SLOAD DUP1 PUSH1 0x20 MUL PUSH1 0x20 ADD PUSH1 0x40 MLOAD SWAP1 DUP2 ADD PUSH1 0x40 MSTORE DUP1 SWAP3 SWAP2 SWAP1 DUP2 DUP2 MSTORE PUSH1 0x20 ADD DUP3 DUP1 SLOAD DUP1 ISZERO PUSH2 0xD09 JUMPI PUSH1 0x20 MUL DUP3 ADD SWAP2 SWAP1 PUSH1 0x0 MSTORE PUSH1 0x20 PUSH1 0x0 KECCAK256 SWAP1 JUMPDEST DUP2 SLOAD DUP2 MSTORE PUSH1 0x20 ADD SWAP1 PUSH1 0x1 ADD SWAP1 DUP1 DUP4 GT PUSH2 0xCF5 JUMPI JUMPDEST POP POP POP POP POP SWAP1 POP SWAP1 JUMP JUMPDEST PUSH1 0x60 PUSH1 0x0 PUSH1 0x3 DUP1 SLOAD SWAP1 POP SWAP1 POP PUSH1 0x0 DUP2 PUSH8 0xFFFFFFFFFFFFFFFF DUP2 GT ISZERO PUSH2 0xD3B JUMPI PUSH2 0xD3A PUSH2 0x1561 JUMP JUMPDEST JUMPDEST PUSH1 0x40 MLOAD SWAP1 DUP1 DUP3 MSTORE DUP1 PUSH1 0x20 MUL PUSH1 0x20 ADD DUP3 ADD PUSH1 0x40 MSTORE DUP1 ISZERO PUSH2 0xD74 JUMPI DUP2 PUSH1 0x20 ADD JUMPDEST PUSH2 0xD61 PUSH2 0x14B2 JUMP JUMPDEST DUP2 MSTORE PUSH1 0x20 ADD SWAP1 PUSH1 0x1 SWAP1 SUB SWAP1 DUP2 PUSH2 0xD59 JUMPI SWAP1 POP JUMPDEST POP SWAP1 POP PUSH1 0x0 JUMPDEST DUP3 DUP2 LT ISZERO PUSH2 0xEE5 JUMPI PUSH1 0x0 PUSH1 0x3 DUP3 DUP2 SLOAD DUP2 LT PUSH2 0xD98 JUMPI PUSH2 0xD97 PUSH2 0x20BB JUMP JUMPDEST JUMPDEST SWAP1 PUSH1 0x0 MSTORE PUSH1 0x20 PUSH1 0x0 KECCAK256 ADD SLOAD SWAP1 POP PUSH1 0x0 DUP1 PUSH1 0x0 DUP4 DUP2 MSTORE PUSH1 0x20 ADD SWAP1 DUP2 MSTORE PUSH1 0x20 ADD PUSH1 0x0 KECCAK256 SWAP1 POP PUSH1 0x0 DUP1 PUSH1 0x0 DUP1 JUMPDEST DUP5 DUP1 SLOAD SWAP1 POP DUP2 LT ISZERO PUSH2 0xE45 JUMPI DUP2 ISZERO DUP1 PUSH2 0xDFE JUMPI POP DUP4 DUP6 DUP3 DUP2 SLOAD DUP2 LT PUSH2 0xDEA JUMPI PUSH2 0xDE9 PUSH2 0x20BB JUMP JUMPDEST JUMPDEST SWAP1 PUSH1 0x0 MSTORE PUSH1 0x20 PUSH1 0x0 KECCAK256 SWAP1 PUSH1 0x4 MUL ADD PUSH1 0x3 ADD SLOAD GT JUMPDEST ISZERO PUSH2 0xE32 JUMPI DUP5 DUP2 DUP2 SLOAD DUP2 LT PUSH2 0xE16 JUMPI PUSH2 0xE15 PUSH2 0x20BB JUMP JUMPDEST JUMPDEST SWAP1 PUSH1 0x0 MSTORE PUSH1 0x20 PUSH1 0x0 KECCAK256 SWAP1 PUSH1 0x4 MUL ADD PUSH1 0x3 ADD SLOAD SWAP4 POP DUP1 SWAP3 POP PUSH1 0x1 SWAP2 POP JUMPDEST DUP1 DUP1 PUSH2 0xE3D SWAP1 PUSH2 0x2119 JUMP JUMPDEST SWAP2 POP POP PUSH2 0xDC2 JUMP JUMPDEST POP PUSH1 0x40 MLOAD DUP1 PUSH1 0x80 ADD PUSH1 0x40 MSTORE DUP1 DUP7 DUP2 MSTORE PUSH1 0x20 ADD DUP6 DUP5 DUP2 SLOAD DUP2 LT PUSH2 0xE6A JUMPI PUSH2 0xE69 PUSH2 0x20BB JUMP JUMPDEST JUMPDEST SWAP1 PUSH1 0x0 MSTORE PUSH1 0x20 PUSH1 0x0 KECCAK256 SWAP1 PUSH1 0x4 MUL ADD PUSH1 0x1 ADD SLOAD DUP2 MSTORE PUSH1 0x20 ADD DUP6 DUP5 DUP2 SLOAD DUP2 LT PUSH2 0xE94 JUMPI PUSH2 0xE93 PUSH2 0x20BB JUMP JUMPDEST JUMPDEST SWAP1 PUSH1 0x0 MSTORE PUSH1 0x20 PUSH1 0x0 KECCAK256 SWAP1 PUSH1 0x4 MUL ADD PUSH1 0x2 ADD SLOAD DUP2 MSTORE PUSH1 0x20 ADD DUP5 DUP2 MSTORE POP DUP8 DUP8 DUP2 MLOAD DUP2 LT PUSH2 0xEC2 JUMPI PUSH2 0xEC1 PUSH2 0x20BB JUMP JUMPDEST JUMPDEST PUSH1 0x20 MUL PUSH1 0x20 ADD ADD DUP2 SWAP1 MSTORE POP POP POP POP POP POP DUP1 DUP1 PUSH2 0xEDD SWAP1 PUSH2 0x2119 JUMP JUMPDEST SWAP2 POP POP PUSH2 0xD7A JUMP JUMPDEST POP DUP1 SWAP3 POP POP POP SWAP1 JUMP JUMPDEST PUSH1 0x5 PUSH1 0x0 SWAP1 SLOAD SWAP1 PUSH2 0x100 EXP SWAP1 DIV PUSH20 0xFFFFFFFFFFFFFFFFFFFFFFFFFFFFFFFFFFFFFFFF AND DUP2 JUMP JUMPDEST PUSH1 0x60 DUP1 PUSH1 0x0 DUP1 JUMPDEST PUSH1 0x3 DUP1 SLOAD SWAP1 POP DUP2 LT ISZERO PUSH2 0xF7C JUMPI PUSH1 0x0 DUP1 PUSH1 0x3 DUP4 DUP2 SLOAD DUP2 LT PUSH2 0xF3F JUMPI PUSH2 0xF3E PUSH2 0x20BB JUMP JUMPDEST JUMPDEST SWAP1 PUSH1 0x0 MSTORE PUSH1 0x20 PUSH1 0x0 KECCAK256 ADD SLOAD DUP2 MSTORE PUSH1 0x20 ADD SWAP1 DUP2 MSTORE PUSH1 0x20 ADD PUSH1 0x0 KECCAK256 DUP1 SLOAD SWAP1 POP DUP3 PUSH2 0xF67 SWAP2 SWAP1 PUSH2 0x236E JUMP JUMPDEST SWAP2 POP DUP1 DUP1 PUSH2 0xF74 SWAP1 PUSH2 0x2119 JUMP JUMPDEST SWAP2 POP POP PUSH2 0xF1B JUMP JUMPDEST POP PUSH1 0x0 DUP2 PUSH8 0xFFFFFFFFFFFFFFFF DUP2 GT ISZERO PUSH2 0xF99 JUMPI PUSH2 0xF98 PUSH2 0x1561 JUMP JUMPDEST JUMPDEST PUSH1 0x40 MLOAD SWAP1 DUP1 DUP3 MSTORE DUP1 PUSH1 0x20 MUL PUSH1 0x20 ADD DUP3 ADD PUSH1 0x40 MSTORE DUP1 ISZERO PUSH2 0xFD2 JUMPI DUP2 PUSH1 0x20 ADD JUMPDEST PUSH2 0xFBF PUSH2 0x1488 JUMP JUMPDEST DUP2 MSTORE PUSH1 0x20 ADD SWAP1 PUSH1 0x1 SWAP1 SUB SWAP1 DUP2 PUSH2 0xFB7 JUMPI SWAP1 POP JUMPDEST POP SWAP1 POP PUSH1 0x0 DUP3 PUSH8 0xFFFFFFFFFFFFFFFF DUP2 GT ISZERO PUSH2 0xFF1 JUMPI PUSH2 0xFF0 PUSH2 0x1561 JUMP JUMPDEST JUMPDEST PUSH1 0x40 MLOAD SWAP1 DUP1 DUP3 MSTORE DUP1 PUSH1 0x20 MUL PUSH1 0x20 ADD DUP3 ADD PUSH1 0x40 MSTORE DUP1 ISZERO PUSH2 0x101F JUMPI DUP2 PUSH1 0x20 ADD PUSH1 0x20 DUP3 MUL DUP1 CALLDATASIZE DUP4 CALLDATACOPY DUP1 DUP3 ADD SWAP2 POP POP SWAP1 POP JUMPDEST POP SWAP1 POP PUSH1 0x0 DUP1 JUMPDEST PUSH1 0x3 DUP1 SLOAD SWAP1 POP DUP2 LT ISZERO PUSH2 0x118F JUMPI PUSH1 0x0 DUP1 PUSH1 0x0 PUSH1 0x3 DUP5 DUP2 SLOAD DUP2 LT PUSH2 0x104C JUMPI PUSH2 0x104B PUSH2 0x20BB JUMP JUMPDEST JUMPDEST SWAP1 PUSH1 0x0 MSTORE PUSH1 0x20 PUSH1 0x0 KECCAK256 ADD SLOAD DUP2 MSTORE PUSH1 0x20 ADD SWAP1 DUP2 MSTORE PUSH1 0x20 ADD PUSH1 0x0 KECCAK256 SWAP1 POP PUSH1 0x0 JUMPDEST DUP2 DUP1 SLOAD SWAP1 POP DUP2 LT ISZERO PUSH2 0x117A JUMPI PUSH1 0x40 MLOAD DUP1 PUSH1 0x60 ADD PUSH1 0x40 MSTORE DUP1 DUP4 DUP4 DUP2 SLOAD DUP2 LT PUSH2 0x1094 JUMPI PUSH2 0x1093 PUSH2 0x20BB JUMP JUMPDEST JUMPDEST SWAP1 PUSH1 0x0 MSTORE PUSH1 0x20 PUSH1 0x0 KECCAK256 SWAP1 PUSH1 0x4 MUL ADD PUSH1 0x0 ADD SLOAD DUP2 MSTORE PUSH1 0x20 ADD DUP4 DUP4 DUP2 SLOAD DUP2 LT PUSH2 0x10BE JUMPI PUSH2 0x10BD PUSH2 0x20BB JUMP JUMPDEST JUMPDEST SWAP1 PUSH1 0x0 MSTORE PUSH1 0x20 PUSH1 0x0 KECCAK256 SWAP1 PUSH1 0x4 MUL ADD PUSH1 0x1 ADD SLOAD DUP2 MSTORE PUSH1 0x20 ADD DUP4 DUP4 DUP2 SLOAD DUP2 LT PUSH2 0x10E8 JUMPI PUSH2 0x10E7 PUSH2 0x20BB JUMP JUMPDEST JUMPDEST SWAP1 PUSH1 0x0 MSTORE PUSH1 0x20 PUSH1 0x0 KECCAK256 SWAP1 PUSH1 0x4 MUL ADD PUSH1 0x2 ADD SLOAD DUP2 MSTORE POP DUP7 DUP6 DUP2 MLOAD DUP2 LT PUSH2 0x1110 JUMPI PUSH2 0x110F PUSH2 0x20BB JUMP JUMPDEST JUMPDEST PUSH1 0x20 MUL PUSH1 0x20 ADD ADD DUP2 SWAP1 MSTORE POP DUP2 DUP2 DUP2 SLOAD DUP2 LT PUSH2 0x112E JUMPI PUSH2 0x112D PUSH2 0x20BB JUMP JUMPDEST JUMPDEST SWAP1 PUSH1 0x0 MSTORE PUSH1 0x20 PUSH1 0x0 KECCAK256 SWAP1 PUSH1 0x4 MUL ADD PUSH1 0x3 ADD SLOAD DUP6 DUP6 DUP2 MLOAD DUP2 LT PUSH2 0x1153 JUMPI PUSH2 0x1152 PUSH2 0x20BB JUMP JUMPDEST JUMPDEST PUSH1 0x20 MUL PUSH1 0x20 ADD ADD DUP2 DUP2 MSTORE POP POP DUP4 DUP1 PUSH1 0x1 ADD SWAP5 POP POP DUP1 DUP1 PUSH2 0x1172 SWAP1 PUSH2 0x2119 JUMP JUMPDEST SWAP2 POP POP PUSH2 0x106A JUMP JUMPDEST POP POP DUP1 DUP1 PUSH2 0x1187 SWAP1 PUSH2 0x2119 JUMP JUMPDEST SWAP2 POP POP PUSH2 0x1026 JUMP JUMPDEST POP DUP3 DUP3 SWAP6 POP SWAP6 POP POP POP POP POP SWAP1 SWAP2 JUMP JUMPDEST PUSH1 0x0 DUP1 PUSH2 0x11AA DUP4 PUSH2 0x130D JUMP JUMPDEST SWAP1 POP PUSH1 0x0 DUP2 SWAP1 POP PUSH1 0x0 PUSH1 0x40 MLOAD DUP1 PUSH1 0x40 ADD PUSH1 0x40 MSTORE DUP1 PUSH1 0xC DUP2 MSTORE PUSH1 0x20 ADD PUSH32 0x426F617264204D656D6265720000000000000000000000000000000000000000 DUP2 MSTORE POP SWAP1 POP DUP1 MLOAD DUP3 MLOAD LT ISZERO PUSH2 0x1201 JUMPI PUSH1 0x0 SWAP4 POP POP POP POP PUSH2 0x1308 JUMP JUMPDEST PUSH1 0x0 JUMPDEST DUP2 MLOAD DUP4 MLOAD PUSH2 0x1212 SWAP2 SWAP1 PUSH2 0x23A2 JUMP JUMPDEST DUP2 GT PUSH2 0x12FF JUMPI PUSH1 0x0 PUSH1 0x1 SWAP1 POP PUSH1 0x0 JUMPDEST DUP4 MLOAD DUP2 LT ISZERO PUSH2 0x12D6 JUMPI DUP4 DUP2 DUP2 MLOAD DUP2 LT PUSH2 0x123D JUMPI PUSH2 0x123C PUSH2 0x20BB JUMP JUMPDEST JUMPDEST PUSH1 0x20 ADD ADD MLOAD PUSH1 0xF8 SHR PUSH1 0xF8 SHL PUSH31 0xFFFFFFFFFFFFFFFFFFFFFFFFFFFFFFFFFFFFFFFFFFFFFFFFFFFFFFFFFFFFFF NOT AND DUP6 DUP3 DUP6 PUSH2 0x1277 SWAP2 SWAP1 PUSH2 0x236E JUMP JUMPDEST DUP2 MLOAD DUP2 LT PUSH2 0x1288 JUMPI PUSH2 0x1287 PUSH2 0x20BB JUMP JUMPDEST JUMPDEST PUSH1 0x20 ADD ADD MLOAD PUSH1 0xF8 SHR PUSH1 0xF8 SHL PUSH31 0xFFFFFFFFFFFFFFFFFFFFFFFFFFFFFFFFFFFFFFFFFFFFFFFFFFFFFFFFFFFFFF NOT AND EQ PUSH2 0x12C3 JUMPI PUSH1 0x0 SWAP2 POP PUSH2 0x12D6 JUMP JUMPDEST DUP1 DUP1 PUSH2 0x12CE SWAP1 PUSH2 0x2119 JUMP JUMPDEST SWAP2 POP POP PUSH2 0x1221 JUMP JUMPDEST POP DUP1 ISZERO PUSH2 0x12EB JUMPI PUSH1 0x1 SWAP6 POP POP POP POP POP POP PUSH2 0x1308 JUMP JUMPDEST POP DUP1 DUP1 PUSH2 0x12F7 SWAP1 PUSH2 0x2119 JUMP JUMPDEST SWAP2 POP POP PUSH2 0x1204 JUMP JUMPDEST POP PUSH1 0x0 SWAP4 POP POP POP POP JUMPDEST SWAP2 SWAP1 POP JUMP JUMPDEST PUSH1 0x60 PUSH1 0x0 JUMPDEST PUSH1 0x20 DUP2 LT DUP1 ISZERO PUSH2 0x135E JUMPI POP PUSH1 0x0 PUSH1 0xF8 SHL DUP4 DUP3 PUSH1 0x20 DUP2 LT PUSH2 0x1335 JUMPI PUSH2 0x1334 PUSH2 0x20BB JUMP JUMPDEST JUMPDEST BYTE PUSH1 0xF8 SHL PUSH31 0xFFFFFFFFFFFFFFFFFFFFFFFFFFFFFFFFFFFFFFFFFFFFFFFFFFFFFFFFFFFFFF NOT AND EQ ISZERO JUMPDEST ISZERO PUSH2 0x1370 JUMPI DUP1 DUP1 PUSH1 0x1 ADD SWAP2 POP POP PUSH2 0x1312 JUMP JUMPDEST PUSH1 0x0 DUP2 PUSH8 0xFFFFFFFFFFFFFFFF DUP2 GT ISZERO PUSH2 0x138C JUMPI PUSH2 0x138B PUSH2 0x1561 JUMP JUMPDEST JUMPDEST PUSH1 0x40 MLOAD SWAP1 DUP1 DUP3 MSTORE DUP1 PUSH1 0x1F ADD PUSH1 0x1F NOT AND PUSH1 0x20 ADD DUP3 ADD PUSH1 0x40 MSTORE DUP1 ISZERO PUSH2 0x13BE JUMPI DUP2 PUSH1 0x20 ADD PUSH1 0x1 DUP3 MUL DUP1 CALLDATASIZE DUP4 CALLDATACOPY DUP1 DUP3 ADD SWAP2 POP POP SWAP1 POP JUMPDEST POP SWAP1 POP PUSH1 0x0 JUMPDEST DUP3 DUP2 LT ISZERO PUSH2 0x1438 JUMPI DUP5 DUP2 PUSH1 0x20 DUP2 LT PUSH2 0x13DF JUMPI PUSH2 0x13DE PUSH2 0x20BB JUMP JUMPDEST JUMPDEST BYTE PUSH1 0xF8 SHL DUP3 DUP3 DUP2 MLOAD DUP2 LT PUSH2 0x13F6 JUMPI PUSH2 0x13F5 PUSH2 0x20BB JUMP JUMPDEST JUMPDEST PUSH1 0x20 ADD ADD SWAP1 PUSH31 0xFFFFFFFFFFFFFFFFFFFFFFFFFFFFFFFFFFFFFFFFFFFFFFFFFFFFFFFFFFFFFF NOT AND SWAP1 DUP2 PUSH1 0x0 BYTE SWAP1 MSTORE8 POP DUP1 DUP1 PUSH2 0x1430 SWAP1 PUSH2 0x2119 JUMP JUMPDEST SWAP2 POP POP PUSH2 0x13C4 JUMP JUMPDEST POP DUP1 SWAP3 POP POP POP SWAP2 SWAP1 POP JUMP JUMPDEST POP DUP1 SLOAD PUSH1 0x0 DUP3 SSTORE SWAP1 PUSH1 0x0 MSTORE PUSH1 0x20 PUSH1 0x0 KECCAK256 SWAP1 DUP2 ADD SWAP1 PUSH2 0x1461 SWAP2 SWAP1 PUSH2 0x14E3 JUMP JUMPDEST POP JUMP JUMPDEST POP DUP1 SLOAD PUSH1 0x0 DUP3 SSTORE PUSH1 0x4 MUL SWAP1 PUSH1 0x0 MSTORE PUSH1 0x20 PUSH1 0x0 KECCAK256 SWAP1 DUP2 ADD SWAP1 PUSH2 0x1485 SWAP2 SWAP1 PUSH2 0x1500 JUMP JUMPDEST POP JUMP JUMPDEST PUSH1 0x40 MLOAD DUP1 PUSH1 0x60 ADD PUSH1 0x40 MSTORE DUP1 PUSH1 0x0 DUP1 NOT AND DUP2 MSTORE PUSH1 0x20 ADD PUSH1 0x0 DUP1 NOT AND DUP2 MSTORE PUSH1 0x20 ADD PUSH1 0x0 DUP1 NOT AND DUP2 MSTORE POP SWAP1 JUMP JUMPDEST PUSH1 0x40 MLOAD DUP1 PUSH1 0x80 ADD PUSH1 0x40 MSTORE DUP1 PUSH1 0x0 DUP1 NOT AND DUP2 MSTORE PUSH1 0x20 ADD PUSH1 0x0 DUP1 NOT AND DUP2 MSTORE PUSH1 0x20 ADD PUSH1 0x0 DUP1 NOT AND DUP2 MSTORE PUSH1 0x20 ADD PUSH1 0x0 DUP2 MSTORE POP SWAP1 JUMP JUMPDEST JUMPDEST DUP1 DUP3 GT ISZERO PUSH2 0x14FC JUMPI PUSH1 0x0 DUP2 PUSH1 0x0 SWAP1 SSTORE POP PUSH1 0x1 ADD PUSH2 0x14E4 JUMP JUMPDEST POP SWAP1 JUMP JUMPDEST JUMPDEST DUP1 DUP3 GT ISZERO PUSH2 0x1533 JUMPI PUSH1 0x0 DUP1 DUP3 ADD PUSH1 0x0 SWAP1 SSTORE PUSH1 0x1 DUP3 ADD PUSH1 0x0 SWAP1 SSTORE PUSH1 0x2 DUP3 ADD PUSH1 0x0 SWAP1 SSTORE PUSH1 0x3 DUP3 ADD PUSH1 0x0 SWAP1 SSTORE POP PUSH1 0x4 ADD PUSH2 0x1501 JUMP JUMPDEST POP SWAP1 JUMP JUMPDEST PUSH1 0x0 PUSH1 0x40 MLOAD SWAP1 POP SWAP1 JUMP JUMPDEST PUSH1 0x0 DUP1 REVERT JUMPDEST PUSH1 0x0 DUP1 REVERT JUMPDEST PUSH1 0x0 DUP1 REVERT JUMPDEST PUSH1 0x0 PUSH1 0x1F NOT PUSH1 0x1F DUP4 ADD AND SWAP1 POP SWAP2 SWAP1 POP JUMP JUMPDEST PUSH32 0x4E487B7100000000000000000000000000000000000000000000000000000000 PUSH1 0x0 MSTORE PUSH1 0x41 PUSH1 0x4 MSTORE PUSH1 0x24 PUSH1 0x0 REVERT JUMPDEST PUSH2 0x1599 DUP3 PUSH2 0x1550 JUMP JUMPDEST DUP2 ADD DUP2 DUP2 LT PUSH8 0xFFFFFFFFFFFFFFFF DUP3 GT OR ISZERO PUSH2 0x15B8 JUMPI PUSH2 0x15B7 PUSH2 0x1561 JUMP JUMPDEST JUMPDEST DUP1 PUSH1 0x40 MSTORE POP POP POP JUMP JUMPDEST PUSH1 0x0 PUSH2 0x15CB PUSH2 0x1537 JUMP JUMPDEST SWAP1 POP PUSH2 0x15D7 DUP3 DUP3 PUSH2 0x1590 JUMP JUMPDEST SWAP2 SWAP1 POP JUMP JUMPDEST PUSH1 0x0 PUSH8 0xFFFFFFFFFFFFFFFF DUP3 GT ISZERO PUSH2 0x15F7 JUMPI PUSH2 0x15F6 PUSH2 0x1561 JUMP JUMPDEST JUMPDEST PUSH1 0x20 DUP3 MUL SWAP1 POP PUSH1 0x20 DUP2 ADD SWAP1 POP SWAP2 SWAP1 POP JUMP JUMPDEST PUSH1 0x0 DUP1 REVERT JUMPDEST PUSH1 0x0 DUP2 SWAP1 POP SWAP2 SWAP1 POP JUMP JUMPDEST PUSH2 0x1620 DUP2 PUSH2 0x160D JUMP JUMPDEST DUP2 EQ PUSH2 0x162B JUMPI PUSH1 0x0 DUP1 REVERT JUMPDEST POP JUMP JUMPDEST PUSH1 0x0 DUP2 CALLDATALOAD SWAP1 POP PUSH2 0x163D DUP2 PUSH2 0x1617 JUMP JUMPDEST SWAP3 SWAP2 POP POP JUMP JUMPDEST PUSH1 0x0 PUSH2 0x1656 PUSH2 0x1651 DUP5 PUSH2 0x15DC JUMP JUMPDEST PUSH2 0x15C1 JUMP JUMPDEST SWAP1 POP DUP1 DUP4 DUP3 MSTORE PUSH1 0x20 DUP3 ADD SWAP1 POP PUSH1 0x20 DUP5 MUL DUP4 ADD DUP6 DUP2 GT ISZERO PUSH2 0x1679 JUMPI PUSH2 0x1678 PUSH2 0x1608 JUMP JUMPDEST JUMPDEST DUP4 JUMPDEST DUP2 DUP2 LT ISZERO PUSH2 0x16A2 JUMPI DUP1 PUSH2 0x168E DUP9 DUP3 PUSH2 0x162E JUMP JUMPDEST DUP5 MSTORE PUSH1 0x20 DUP5 ADD SWAP4 POP POP PUSH1 0x20 DUP2 ADD SWAP1 POP PUSH2 0x167B JUMP JUMPDEST POP POP POP SWAP4 SWAP3 POP POP POP JUMP JUMPDEST PUSH1 0x0 DUP3 PUSH1 0x1F DUP4 ADD SLT PUSH2 0x16C1 JUMPI PUSH2 0x16C0 PUSH2 0x154B JUMP JUMPDEST JUMPDEST DUP2 CALLDATALOAD PUSH2 0x16D1 DUP5 DUP3 PUSH1 0x20 DUP7 ADD PUSH2 0x1643 JUMP JUMPDEST SWAP2 POP POP SWAP3 SWAP2 POP POP JUMP JUMPDEST PUSH1 0x0 PUSH8 0xFFFFFFFFFFFFFFFF DUP3 GT ISZERO PUSH2 0x16F5 JUMPI PUSH2 0x16F4 PUSH2 0x1561 JUMP JUMPDEST JUMPDEST PUSH1 0x20 DUP3 MUL SWAP1 POP PUSH1 0x20 DUP2 ADD SWAP1 POP SWAP2 SWAP1 POP JUMP JUMPDEST PUSH1 0x0 PUSH8 0xFFFFFFFFFFFFFFFF DUP3 GT ISZERO PUSH2 0x1721 JUMPI PUSH2 0x1720 PUSH2 0x1561 JUMP JUMPDEST JUMPDEST PUSH1 0x20 DUP3 MUL SWAP1 POP PUSH1 0x20 DUP2 ADD SWAP1 POP SWAP2 SWAP1 POP JUMP JUMPDEST PUSH1 0x0 DUP1 REVERT JUMPDEST PUSH1 0x0 PUSH1 0x60 DUP3 DUP5 SUB SLT ISZERO PUSH2 0x174D JUMPI PUSH2 0x174C PUSH2 0x1732 JUMP JUMPDEST JUMPDEST PUSH2 0x1757 PUSH1 0x60 PUSH2 0x15C1 JUMP JUMPDEST SWAP1 POP PUSH1 0x0 PUSH2 0x1767 DUP5 DUP3 DUP6 ADD PUSH2 0x162E JUMP JUMPDEST PUSH1 0x0 DUP4 ADD MSTORE POP PUSH1 0x20 PUSH2 0x177B DUP5 DUP3 DUP6 ADD PUSH2 0x162E JUMP JUMPDEST PUSH1 0x20 DUP4 ADD MSTORE POP PUSH1 0x40 PUSH2 0x178F DUP5 DUP3 DUP6 ADD PUSH2 0x162E JUMP JUMPDEST PUSH1 0x40 DUP4 ADD MSTORE POP SWAP3 SWAP2 POP POP JUMP JUMPDEST PUSH1 0x0 PUSH2 0x17AE PUSH2 0x17A9 DUP5 PUSH2 0x1706 JUMP JUMPDEST PUSH2 0x15C1 JUMP JUMPDEST SWAP1 POP DUP1 DUP4 DUP3 MSTORE PUSH1 0x20 DUP3 ADD SWAP1 POP PUSH1 0x60 DUP5 MUL DUP4 ADD DUP6 DUP2 GT ISZERO PUSH2 0x17D1 JUMPI PUSH2 0x17D0 PUSH2 0x1608 JUMP JUMPDEST JUMPDEST DUP4 JUMPDEST DUP2 DUP2 LT ISZERO PUSH2 0x17FA JUMPI DUP1 PUSH2 0x17E6 DUP9 DUP3 PUSH2 0x1737 JUMP JUMPDEST DUP5 MSTORE PUSH1 0x20 DUP5 ADD SWAP4 POP POP PUSH1 0x60 DUP2 ADD SWAP1 POP PUSH2 0x17D3 JUMP JUMPDEST POP POP POP SWAP4 SWAP3 POP POP POP JUMP JUMPDEST PUSH1 0x0 DUP3 PUSH1 0x1F DUP4 ADD SLT PUSH2 0x1819 JUMPI PUSH2 0x1818 PUSH2 0x154B JUMP JUMPDEST JUMPDEST DUP2 CALLDATALOAD PUSH2 0x1829 DUP5 DUP3 PUSH1 0x20 DUP7 ADD PUSH2 0x179B JUMP JUMPDEST SWAP2 POP POP SWAP3 SWAP2 POP POP JUMP JUMPDEST PUSH1 0x0 PUSH2 0x1845 PUSH2 0x1840 DUP5 PUSH2 0x16DA JUMP JUMPDEST PUSH2 0x15C1 JUMP JUMPDEST SWAP1 POP DUP1 DUP4 DUP3 MSTORE PUSH1 0x20 DUP3 ADD SWAP1 POP PUSH1 0x20 DUP5 MUL DUP4 ADD DUP6 DUP2 GT ISZERO PUSH2 0x1868 JUMPI PUSH2 0x1867 PUSH2 0x1608 JUMP JUMPDEST JUMPDEST DUP4 JUMPDEST DUP2 DUP2 LT ISZERO PUSH2 0x18AF JUMPI DUP1 CALLDATALOAD PUSH8 0xFFFFFFFFFFFFFFFF DUP2 GT ISZERO PUSH2 0x188D JUMPI PUSH2 0x188C PUSH2 0x154B JUMP JUMPDEST JUMPDEST DUP1 DUP7 ADD PUSH2 0x189A DUP10 DUP3 PUSH2 0x1804 JUMP JUMPDEST DUP6 MSTORE PUSH1 0x20 DUP6 ADD SWAP5 POP POP POP PUSH1 0x20 DUP2 ADD SWAP1 POP PUSH2 0x186A JUMP JUMPDEST POP POP POP SWAP4 SWAP3 POP POP POP JUMP JUMPDEST PUSH1 0x0 DUP3 PUSH1 0x1F DUP4 ADD SLT PUSH2 0x18CE JUMPI PUSH2 0x18CD PUSH2 0x154B JUMP JUMPDEST JUMPDEST DUP2 CALLDATALOAD PUSH2 0x18DE DUP5 DUP3 PUSH1 0x20 DUP7 ADD PUSH2 0x1832 JUMP JUMPDEST SWAP2 POP POP SWAP3 SWAP2 POP POP JUMP JUMPDEST PUSH1 0x0 DUP1 PUSH1 0x0 PUSH1 0x60 DUP5 DUP7 SUB SLT ISZERO PUSH2 0x1900 JUMPI PUSH2 0x18FF PUSH2 0x1541 JUMP JUMPDEST JUMPDEST PUSH1 0x0 DUP5 ADD CALLDATALOAD PUSH8 0xFFFFFFFFFFFFFFFF DUP2 GT ISZERO PUSH2 0x191E JUMPI PUSH2 0x191D PUSH2 0x1546 JUMP JUMPDEST JUMPDEST PUSH2 0x192A DUP7 DUP3 DUP8 ADD PUSH2 0x16AC JUMP JUMPDEST SWAP4 POP POP PUSH1 0x20 DUP5 ADD CALLDATALOAD PUSH8 0xFFFFFFFFFFFFFFFF DUP2 GT ISZERO PUSH2 0x194B JUMPI PUSH2 0x194A PUSH2 0x1546 JUMP JUMPDEST JUMPDEST PUSH2 0x1957 DUP7 DUP3 DUP8 ADD PUSH2 0x18B9 JUMP JUMPDEST SWAP3 POP POP PUSH1 0x40 DUP5 ADD CALLDATALOAD PUSH8 0xFFFFFFFFFFFFFFFF DUP2 GT ISZERO PUSH2 0x1978 JUMPI PUSH2 0x1977 PUSH2 0x1546 JUMP JUMPDEST JUMPDEST PUSH2 0x1984 DUP7 DUP3 DUP8 ADD PUSH2 0x16AC JUMP JUMPDEST SWAP2 POP POP SWAP3 POP SWAP3 POP SWAP3 JUMP JUMPDEST PUSH1 0x0 DUP1 PUSH1 0x0 PUSH1 0x60 DUP5 DUP7 SUB SLT ISZERO PUSH2 0x19A7 JUMPI PUSH2 0x19A6 PUSH2 0x1541 JUMP JUMPDEST JUMPDEST PUSH1 0x0 DUP5 ADD CALLDATALOAD PUSH8 0xFFFFFFFFFFFFFFFF DUP2 GT ISZERO PUSH2 0x19C5 JUMPI PUSH2 0x19C4 PUSH2 0x1546 JUMP JUMPDEST JUMPDEST PUSH2 0x19D1 DUP7 DUP3 DUP8 ADD PUSH2 0x16AC JUMP JUMPDEST SWAP4 POP POP PUSH1 0x20 DUP5 ADD CALLDATALOAD PUSH8 0xFFFFFFFFFFFFFFFF DUP2 GT ISZERO PUSH2 0x19F2 JUMPI PUSH2 0x19F1 PUSH2 0x1546 JUMP JUMPDEST JUMPDEST PUSH2 0x19FE DUP7 DUP3 DUP8 ADD PUSH2 0x16AC JUMP JUMPDEST SWAP3 POP POP PUSH1 0x40 PUSH2 0x1A0F DUP7 DUP3 DUP8 ADD PUSH2 0x162E JUMP JUMPDEST SWAP2 POP POP SWAP3 POP SWAP3 POP SWAP3 JUMP JUMPDEST PUSH1 0x0 PUSH1 0x20 DUP3 DUP5 SUB SLT ISZERO PUSH2 0x1A2F JUMPI PUSH2 0x1A2E PUSH2 0x1541 JUMP JUMPDEST JUMPDEST PUSH1 0x0 PUSH2 0x1A3D DUP5 DUP3 DUP6 ADD PUSH2 0x162E JUMP JUMPDEST SWAP2 POP POP SWAP3 SWAP2 POP POP JUMP JUMPDEST PUSH2 0x1A4F DUP2 PUSH2 0x160D JUMP JUMPDEST DUP3 MSTORE POP POP JUMP JUMPDEST PUSH1 0x0 PUSH1 0x20 DUP3 ADD SWAP1 POP PUSH2 0x1A6A PUSH1 0x0 DUP4 ADD DUP5 PUSH2 0x1A46 JUMP JUMPDEST SWAP3 SWAP2 POP POP JUMP JUMPDEST PUSH1 0x0 DUP2 SWAP1 POP SWAP2 SWAP1 POP JUMP JUMPDEST PUSH2 0x1A83 DUP2 PUSH2 0x1A70 JUMP JUMPDEST DUP2 EQ PUSH2 0x1A8E JUMPI PUSH1 0x0 DUP1 REVERT JUMPDEST POP JUMP JUMPDEST PUSH1 0x0 DUP2 CALLDATALOAD SWAP1 POP PUSH2 0x1AA0 DUP2 PUSH2 0x1A7A JUMP JUMPDEST SWAP3 SWAP2 POP POP JUMP JUMPDEST PUSH1 0x0 DUP1 PUSH1 0x40 DUP4 DUP6 SUB SLT ISZERO PUSH2 0x1ABD JUMPI PUSH2 0x1ABC PUSH2 0x1541 JUMP JUMPDEST JUMPDEST PUSH1 0x0 PUSH2 0x1ACB DUP6 DUP3 DUP7 ADD PUSH2 0x162E JUMP JUMPDEST SWAP3 POP POP PUSH1 0x20 PUSH2 0x1ADC DUP6 DUP3 DUP7 ADD PUSH2 0x1A91 JUMP JUMPDEST SWAP2 POP POP SWAP3 POP SWAP3 SWAP1 POP JUMP JUMPDEST PUSH1 0x0 DUP2 MLOAD SWAP1 POP SWAP2 SWAP1 POP JUMP JUMPDEST PUSH1 0x0 DUP3 DUP3 MSTORE PUSH1 0x20 DUP3 ADD SWAP1 POP SWAP3 SWAP2 POP POP JUMP JUMPDEST PUSH1 0x0 DUP2 SWAP1 POP PUSH1 0x20 DUP3 ADD SWAP1 POP SWAP2 SWAP1 POP JUMP JUMPDEST PUSH2 0x1B1B DUP2 PUSH2 0x160D JUMP JUMPDEST DUP3 MSTORE POP POP JUMP JUMPDEST PUSH1 0x0 PUSH2 0x1B2D DUP4 DUP4 PUSH2 0x1B12 JUMP JUMPDEST PUSH1 0x20 DUP4 ADD SWAP1 POP SWAP3 SWAP2 POP POP JUMP JUMPDEST PUSH1 0x0 PUSH1 0x20 DUP3 ADD SWAP1 POP SWAP2 SWAP1 POP JUMP JUMPDEST PUSH1 0x0 PUSH2 0x1B51 DUP3 PUSH2 0x1AE6 JUMP JUMPDEST PUSH2 0x1B5B DUP2 DUP6 PUSH2 0x1AF1 JUMP JUMPDEST SWAP4 POP PUSH2 0x1B66 DUP4 PUSH2 0x1B02 JUMP JUMPDEST DUP1 PUSH1 0x0 JUMPDEST DUP4 DUP2 LT ISZERO PUSH2 0x1B97 JUMPI DUP2 MLOAD PUSH2 0x1B7E DUP9 DUP3 PUSH2 0x1B21 JUMP JUMPDEST SWAP8 POP PUSH2 0x1B89 DUP4 PUSH2 0x1B39 JUMP JUMPDEST SWAP3 POP POP PUSH1 0x1 DUP2 ADD SWAP1 POP PUSH2 0x1B6A JUMP JUMPDEST POP DUP6 SWAP4 POP POP POP POP SWAP3 SWAP2 POP POP JUMP JUMPDEST PUSH1 0x0 PUSH1 0x20 DUP3 ADD SWAP1 POP DUP2 DUP2 SUB PUSH1 0x0 DUP4 ADD MSTORE PUSH2 0x1BBE DUP2 DUP5 PUSH2 0x1B46 JUMP JUMPDEST SWAP1 POP SWAP3 SWAP2 POP POP JUMP JUMPDEST PUSH1 0x0 DUP2 MLOAD SWAP1 POP SWAP2 SWAP1 POP JUMP JUMPDEST PUSH1 0x0 DUP3 DUP3 MSTORE PUSH1 0x20 DUP3 ADD SWAP1 POP SWAP3 SWAP2 POP POP JUMP JUMPDEST PUSH1 0x0 DUP2 SWAP1 POP PUSH1 0x20 DUP3 ADD SWAP1 POP SWAP2 SWAP1 POP JUMP JUMPDEST PUSH1 0x60 DUP3 ADD PUSH1 0x0 DUP3 ADD MLOAD PUSH2 0x1C08 PUSH1 0x0 DUP6 ADD DUP3 PUSH2 0x1B12 JUMP JUMPDEST POP PUSH1 0x20 DUP3 ADD MLOAD PUSH2 0x1C1B PUSH1 0x20 DUP6 ADD DUP3 PUSH2 0x1B12 JUMP JUMPDEST POP PUSH1 0x40 DUP3 ADD MLOAD PUSH2 0x1C2E PUSH1 0x40 DUP6 ADD DUP3 PUSH2 0x1B12 JUMP JUMPDEST POP POP POP POP JUMP JUMPDEST PUSH1 0x0 PUSH2 0x1C40 DUP4 DUP4 PUSH2 0x1BF2 JUMP JUMPDEST PUSH1 0x60 DUP4 ADD SWAP1 POP SWAP3 SWAP2 POP POP JUMP JUMPDEST PUSH1 0x0 PUSH1 0x20 DUP3 ADD SWAP1 POP SWAP2 SWAP1 POP JUMP JUMPDEST PUSH1 0x0 PUSH2 0x1C64 DUP3 PUSH2 0x1BC6 JUMP JUMPDEST PUSH2 0x1C6E DUP2 DUP6 PUSH2 0x1BD1 JUMP JUMPDEST SWAP4 POP PUSH2 0x1C79 DUP4 PUSH2 0x1BE2 JUMP JUMPDEST DUP1 PUSH1 0x0 JUMPDEST DUP4 DUP2 LT ISZERO PUSH2 0x1CAA JUMPI DUP2 MLOAD PUSH2 0x1C91 DUP9 DUP3 PUSH2 0x1C34 JUMP JUMPDEST SWAP8 POP PUSH2 0x1C9C DUP4 PUSH2 0x1C4C JUMP JUMPDEST SWAP3 POP POP PUSH1 0x1 DUP2 ADD SWAP1 POP PUSH2 0x1C7D JUMP JUMPDEST POP DUP6 SWAP4 POP POP POP POP SWAP3 SWAP2 POP POP JUMP JUMPDEST PUSH1 0x0 PUSH1 0x20 DUP3 ADD SWAP1 POP DUP2 DUP2 SUB PUSH1 0x0 DUP4 ADD MSTORE PUSH2 0x1CD1 DUP2 DUP5 PUSH2 0x1C59 JUMP JUMPDEST SWAP1 POP SWAP3 SWAP2 POP POP JUMP JUMPDEST PUSH1 0x0 DUP2 ISZERO ISZERO SWAP1 POP SWAP2 SWAP1 POP JUMP JUMPDEST PUSH2 0x1CEE DUP2 PUSH2 0x1CD9 JUMP JUMPDEST DUP3 MSTORE POP POP JUMP JUMPDEST PUSH1 0x0 PUSH1 0x20 DUP3 ADD SWAP1 POP PUSH2 0x1D09 PUSH1 0x0 DUP4 ADD DUP5 PUSH2 0x1CE5 JUMP JUMPDEST SWAP3 SWAP2 POP POP JUMP JUMPDEST PUSH1 0x0 DUP2 MLOAD SWAP1 POP SWAP2 SWAP1 POP JUMP JUMPDEST PUSH1 0x0 DUP3 DUP3 MSTORE PUSH1 0x20 DUP3 ADD SWAP1 POP SWAP3 SWAP2 POP POP JUMP JUMPDEST PUSH1 0x0 DUP2 SWAP1 POP PUSH1 0x20 DUP3 ADD SWAP1 POP SWAP2 SWAP1 POP JUMP JUMPDEST PUSH2 0x1D44 DUP2 PUSH2 0x1A70 JUMP JUMPDEST DUP3 MSTORE POP POP JUMP JUMPDEST PUSH1 0x80 DUP3 ADD PUSH1 0x0 DUP3 ADD MLOAD PUSH2 0x1D60 PUSH1 0x0 DUP6 ADD DUP3 PUSH2 0x1B12 JUMP JUMPDEST POP PUSH1 0x20 DUP3 ADD MLOAD PUSH2 0x1D73 PUSH1 0x20 DUP6 ADD DUP3 PUSH2 0x1B12 JUMP JUMPDEST POP PUSH1 0x40 DUP3 ADD MLOAD PUSH2 0x1D86 PUSH1 0x40 DUP6 ADD DUP3 PUSH2 0x1B12 JUMP JUMPDEST POP PUSH1 0x60 DUP3 ADD MLOAD PUSH2 0x1D99 PUSH1 0x60 DUP6 ADD DUP3 PUSH2 0x1D3B JUMP JUMPDEST POP POP POP POP JUMP JUMPDEST PUSH1 0x0 PUSH2 0x1DAB DUP4 DUP4 PUSH2 0x1D4A JUMP JUMPDEST PUSH1 0x80 DUP4 ADD SWAP1 POP SWAP3 SWAP2 POP POP JUMP JUMPDEST PUSH1 0x0 PUSH1 0x20 DUP3 ADD SWAP1 POP SWAP2 SWAP1 POP JUMP JUMPDEST PUSH1 0x0 PUSH2 0x1DCF DUP3 PUSH2 0x1D0F JUMP JUMPDEST PUSH2 0x1DD9 DUP2 DUP6 PUSH2 0x1D1A JUMP JUMPDEST SWAP4 POP PUSH2 0x1DE4 DUP4 PUSH2 0x1D2B JUMP JUMPDEST DUP1 PUSH1 0x0 JUMPDEST DUP4 DUP2 LT ISZERO PUSH2 0x1E15 JUMPI DUP2 MLOAD PUSH2 0x1DFC DUP9 DUP3 PUSH2 0x1D9F JUMP JUMPDEST SWAP8 POP PUSH2 0x1E07 DUP4 PUSH2 0x1DB7 JUMP JUMPDEST SWAP3 POP POP PUSH1 0x1 DUP2 ADD SWAP1 POP PUSH2 0x1DE8 JUMP JUMPDEST POP DUP6 SWAP4 POP POP POP POP SWAP3 SWAP2 POP POP JUMP JUMPDEST PUSH1 0x0 PUSH1 0x20 DUP3 ADD SWAP1 POP DUP2 DUP2 SUB PUSH1 0x0 DUP4 ADD MSTORE PUSH2 0x1E3C DUP2 DUP5 PUSH2 0x1DC4 JUMP JUMPDEST SWAP1 POP SWAP3 SWAP2 POP POP JUMP JUMPDEST PUSH1 0x0 PUSH20 0xFFFFFFFFFFFFFFFFFFFFFFFFFFFFFFFFFFFFFFFF DUP3 AND SWAP1 POP SWAP2 SWAP1 POP JUMP JUMPDEST PUSH1 0x0 PUSH2 0x1E6F DUP3 PUSH2 0x1E44 JUMP JUMPDEST SWAP1 POP SWAP2 SWAP1 POP JUMP JUMPDEST PUSH2 0x1E7F DUP2 PUSH2 0x1E64 JUMP JUMPDEST DUP3 MSTORE POP POP JUMP JUMPDEST PUSH1 0x0 PUSH1 0x20 DUP3 ADD SWAP1 POP PUSH2 0x1E9A PUSH1 0x0 DUP4 ADD DUP5 PUSH2 0x1E76 JUMP JUMPDEST SWAP3 SWAP2 POP POP JUMP JUMPDEST PUSH1 0x0 DUP2 MLOAD SWAP1 POP SWAP2 SWAP1 POP JUMP JUMPDEST PUSH1 0x0 DUP3 DUP3 MSTORE PUSH1 0x20 DUP3 ADD SWAP1 POP SWAP3 SWAP2 POP POP JUMP JUMPDEST PUSH1 0x0 DUP2 SWAP1 POP PUSH1 0x20 DUP3 ADD SWAP1 POP SWAP2 SWAP1 POP JUMP JUMPDEST PUSH1 0x0 PUSH2 0x1ED8 DUP4 DUP4 PUSH2 0x1D3B JUMP JUMPDEST PUSH1 0x20 DUP4 ADD SWAP1 POP SWAP3 SWAP2 POP POP JUMP JUMPDEST PUSH1 0x0 PUSH1 0x20 DUP3 ADD SWAP1 POP SWAP2 SWAP1 POP JUMP JUMPDEST PUSH1 0x0 PUSH2 0x1EFC DUP3 PUSH2 0x1EA0 JUMP JUMPDEST PUSH2 0x1F06 DUP2 DUP6 PUSH2 0x1EAB JUMP JUMPDEST SWAP4 POP PUSH2 0x1F11 DUP4 PUSH2 0x1EBC JUMP JUMPDEST DUP1 PUSH1 0x0 JUMPDEST DUP4 DUP2 LT ISZERO PUSH2 0x1F42 JUMPI DUP2 MLOAD PUSH2 0x1F29 DUP9 DUP3 PUSH2 0x1ECC JUMP JUMPDEST SWAP8 POP PUSH2 0x1F34 DUP4 PUSH2 0x1EE4 JUMP JUMPDEST SWAP3 POP POP PUSH1 0x1 DUP2 ADD SWAP1 POP PUSH2 0x1F15 JUMP JUMPDEST POP DUP6 SWAP4 POP POP POP POP SWAP3 SWAP2 POP POP JUMP JUMPDEST PUSH1 0x0 PUSH1 0x40 DUP3 ADD SWAP1 POP DUP2 DUP2 SUB PUSH1 0x0 DUP4 ADD MSTORE PUSH2 0x1F69 DUP2 DUP6 PUSH2 0x1C59 JUMP JUMPDEST SWAP1 POP DUP2 DUP2 SUB PUSH1 0x20 DUP4 ADD MSTORE PUSH2 0x1F7D DUP2 DUP5 PUSH2 0x1EF1 JUMP JUMPDEST SWAP1 POP SWAP4 SWAP3 POP POP POP JUMP JUMPDEST PUSH1 0x0 DUP3 DUP3 MSTORE PUSH1 0x20 DUP3 ADD SWAP1 POP SWAP3 SWAP2 POP POP JUMP JUMPDEST PUSH32 0x4F6E6C792061646D696E2063616E20706572666F726D20746869732061637469 PUSH1 0x0 DUP3 ADD MSTORE PUSH32 0x6F6E000000000000000000000000000000000000000000000000000000000000 PUSH1 0x20 DUP3 ADD MSTORE POP JUMP JUMPDEST PUSH1 0x0 PUSH2 0x1FF3 PUSH1 0x22 DUP4 PUSH2 0x1F86 JUMP JUMPDEST SWAP2 POP PUSH2 0x1FFE DUP3 PUSH2 0x1F97 JUMP JUMPDEST PUSH1 0x40 DUP3 ADD SWAP1 POP SWAP2 SWAP1 POP JUMP JUMPDEST PUSH1 0x0 PUSH1 0x20 DUP3 ADD SWAP1 POP DUP2 DUP2 SUB PUSH1 0x0 DUP4 ADD MSTORE PUSH2 0x2022 DUP2 PUSH2 0x1FE6 JUMP JUMPDEST SWAP1 POP SWAP2 SWAP1 POP JUMP JUMPDEST PUSH32 0x43616E646964617465732061726520616C72656164792066696E616C697A6564 PUSH1 0x0 DUP3 ADD MSTORE PUSH32 0x2100000000000000000000000000000000000000000000000000000000000000 PUSH1 0x20 DUP3 ADD MSTORE POP JUMP JUMPDEST PUSH1 0x0 PUSH2 0x2085 PUSH1 0x21 DUP4 PUSH2 0x1F86 JUMP JUMPDEST SWAP2 POP PUSH2 0x2090 DUP3 PUSH2 0x2029 JUMP JUMPDEST PUSH1 0x40 DUP3 ADD SWAP1 POP SWAP2 SWAP1 POP JUMP JUMPDEST PUSH1 0x0 PUSH1 0x20 DUP3 ADD SWAP1 POP DUP2 DUP2 SUB PUSH1 0x0 DUP4 ADD MSTORE PUSH2 0x20B4 DUP2 PUSH2 0x2078 JUMP JUMPDEST SWAP1 POP SWAP2 SWAP1 POP JUMP JUMPDEST PUSH32 0x4E487B7100000000000000000000000000000000000000000000000000000000 PUSH1 0x0 MSTORE PUSH1 0x32 PUSH1 0x4 MSTORE PUSH1 0x24 PUSH1 0x0 REVERT JUMPDEST PUSH32 0x4E487B7100000000000000000000000000000000000000000000000000000000 PUSH1 0x0 MSTORE PUSH1 0x11 PUSH1 0x4 MSTORE PUSH1 0x24 PUSH1 0x0 REVERT JUMPDEST PUSH1 0x0 PUSH2 0x2124 DUP3 PUSH2 0x1A70 JUMP JUMPDEST SWAP2 POP PUSH32 0xFFFFFFFFFFFFFFFFFFFFFFFFFFFFFFFFFFFFFFFFFFFFFFFFFFFFFFFFFFFFFFFF DUP3 SUB PUSH2 0x2156 JUMPI PUSH2 0x2155 PUSH2 0x20EA JUMP JUMPDEST JUMPDEST PUSH1 0x1 DUP3 ADD SWAP1 POP SWAP2 SWAP1 POP JUMP JUMPDEST PUSH32 0x566F74696E672063616E6E6F7420737461727420756E74696C2063616E646964 PUSH1 0x0 DUP3 ADD MSTORE PUSH32 0x61746573206172652066696E616C697A65642100000000000000000000000000 PUSH1 0x20 DUP3 ADD MSTORE POP JUMP JUMPDEST PUSH1 0x0 PUSH2 0x21BD PUSH1 0x33 DUP4 PUSH2 0x1F86 JUMP JUMPDEST SWAP2 POP PUSH2 0x21C8 DUP3 PUSH2 0x2161 JUMP JUMPDEST PUSH1 0x40 DUP3 ADD SWAP1 POP SWAP2 SWAP1 POP JUMP JUMPDEST PUSH1 0x0 PUSH1 0x20 DUP3 ADD SWAP1 POP DUP2 DUP2 SUB PUSH1 0x0 DUP4 ADD MSTORE PUSH2 0x21EC DUP2 PUSH2 0x21B0 JUMP JUMPDEST SWAP1 POP SWAP2 SWAP1 POP JUMP JUMPDEST PUSH32 0x4D69736D61746368656420696E707574206C656E677468730000000000000000 PUSH1 0x0 DUP3 ADD MSTORE POP JUMP JUMPDEST PUSH1 0x0 PUSH2 0x2229 PUSH1 0x18 DUP4 PUSH2 0x1F86 JUMP JUMPDEST SWAP2 POP PUSH2 0x2234 DUP3 PUSH2 0x21F3 JUMP JUMPDEST PUSH1 0x20 DUP3 ADD SWAP1 POP SWAP2 SWAP1 POP JUMP JUMPDEST PUSH1 0x0 PUSH1 0x20 DUP3 ADD SWAP1 POP DUP2 DUP2 SUB PUSH1 0x0 DUP4 ADD MSTORE PUSH2 0x2258 DUP2 PUSH2 0x221C JUMP JUMPDEST SWAP1 POP SWAP2 SWAP1 POP JUMP JUMPDEST PUSH32 0x566F7465722068617320616C726561647920766F746564000000000000000000 PUSH1 0x0 DUP3 ADD MSTORE POP JUMP JUMPDEST PUSH1 0x0 PUSH2 0x2295 PUSH1 0x17 DUP4 PUSH2 0x1F86 JUMP JUMPDEST SWAP2 POP PUSH2 0x22A0 DUP3 PUSH2 0x225F JUMP JUMPDEST PUSH1 0x20 DUP3 ADD SWAP1 POP SWAP2 SWAP1 POP JUMP JUMPDEST PUSH1 0x0 PUSH1 0x20 DUP3 ADD SWAP1 POP DUP2 DUP2 SUB PUSH1 0x0 DUP4 ADD MSTORE PUSH2 0x22C4 DUP2 PUSH2 0x2288 JUMP JUMPDEST SWAP1 POP SWAP2 SWAP1 POP JUMP JUMPDEST PUSH32 0x496E76616C69642063616E646964617465206964000000000000000000000000 PUSH1 0x0 DUP3 ADD MSTORE POP JUMP JUMPDEST PUSH1 0x0 PUSH2 0x2301 PUSH1 0x14 DUP4 PUSH2 0x1F86 JUMP JUMPDEST SWAP2 POP PUSH2 0x230C DUP3 PUSH2 0x22CB JUMP JUMPDEST PUSH1 0x20 DUP3 ADD SWAP1 POP SWAP2 SWAP1 POP JUMP JUMPDEST PUSH1 0x0 PUSH1 0x20 DUP3 ADD SWAP1 POP DUP2 DUP2 SUB PUSH1 0x0 DUP4 ADD MSTORE PUSH2 0x2330 DUP2 PUSH2 0x22F4 JUMP JUMPDEST SWAP1 POP SWAP2 SWAP1 POP JUMP JUMPDEST PUSH1 0x0 PUSH1 0x60 DUP3 ADD SWAP1 POP PUSH2 0x234C PUSH1 0x0 DUP4 ADD DUP7 PUSH2 0x1A46 JUMP JUMPDEST PUSH2 0x2359 PUSH1 0x20 DUP4 ADD DUP6 PUSH2 0x1A46 JUMP JUMPDEST PUSH2 0x2366 PUSH1 0x40 DUP4 ADD DUP5 PUSH2 0x1A46 JUMP JUMPDEST SWAP5 SWAP4 POP POP POP POP JUMP JUMPDEST PUSH1 0x0 PUSH2 0x2379 DUP3 PUSH2 0x1A70 JUMP JUMPDEST SWAP2 POP PUSH2 0x2384 DUP4 PUSH2 0x1A70 JUMP JUMPDEST SWAP3 POP DUP3 DUP3 ADD SWAP1 POP DUP1 DUP3 GT ISZERO PUSH2 0x239C JUMPI PUSH2 0x239B PUSH2 0x20EA JUMP JUMPDEST JUMPDEST SWAP3 SWAP2 POP POP JUMP JUMPDEST PUSH1 0x0 PUSH2 0x23AD DUP3 PUSH2 0x1A70 JUMP JUMPDEST SWAP2 POP PUSH2 0x23B8 DUP4 PUSH2 0x1A70 JUMP JUMPDEST SWAP3 POP DUP3 DUP3 SUB SWAP1 POP DUP2 DUP2 GT ISZERO PUSH2 0x23D0 JUMPI PUSH2 0x23CF PUSH2 0x20EA JUMP JUMPDEST JUMPDEST SWAP3 SWAP2 POP POP JUMP INVALID LOG2 PUSH5 0x6970667358 0x22 SLT KECCAK256 0xF9 PUSH16 0xF35815F2B52226F87CB7045F845995D8 DUP8 PUSH25 0xE09CB600C146FFD7C3F2342B64736F6C634300081500330000 "},"methodIdentifiers":{"admin()":"f851a440","batchVote(bytes32[],bytes32[],bytes32)":"3b06843b","boardMemberProgramIDs(bytes32)":"56fc64f8","getCandidates(bytes32)":"85b923ca","getPositionList()":"a5d3157e","getVoteCounts()":"ffc97b20","getVoterHashes(bytes32,uint256)":"70918ce3","getWinners()":"df15c37e","isFinalized()":"8d4e4083","resetCandidates()":"7718d9f3","submitCandidates(bytes32[],(bytes32,bytes32,bytes32)[][],bytes32[])":"07f1db5b"}}}}}