{"contracts/AdminCandidates.sol":{"AdminCandidates":{"abi":[{"inputs":[],"stateMutability":"nonpayable","type":"constructor"},{"anonymous":false,"inputs":[],"name":"CandidatesSubmitted","type":"event"},{"inputs":[],"name":"admin","outputs":[{"internalType":"address","name":"","type":"address"}],"stateMutability":"view","type":"function"},{"inputs":[{"internalType":"string","name":"_position","type":"string"}],"name":"getCandidates","outputs":[{"components":[{"internalType":"string","name":"name","type":"string"},{"internalType":"string","name":"party","type":"string"},{"internalType":"string","name":"position","type":"string"}],"internalType":"struct AdminCandidates.Candidate[]","name":"","type":"tuple[]"}],"stateMutability":"view","type":"function"},{"inputs":[],"name":"isFinalized","outputs":[{"internalType":"bool","name":"","type":"bool"}],"stateMutability":"view","type":"function"},{"inputs":[],"name":"resetCandidates","outputs":[],"stateMutability":"nonpayable","type":"function"},{"inputs":[{"internalType":"string[]","name":"_positions","type":"string[]"},{"internalType":"string[][]","name":"_names","type":"string[][]"},{"internalType":"string[][]","name":"_parties","type":"string[][]"}],"name":"submitCandidates","outputs":[],"stateMutability":"nonpayable","type":"function"}],"evm":{"bytecode":{"linkReferences":{},"object":"60806040526000600160146101000a81548160ff02191690831515021790555034801561002b57600080fd5b5033600160006101000a81548173ffffffffffffffffffffffffffffffffffffffff021916908373ffffffffffffffffffffffffffffffffffffffff16021790555061138a8061007c6000396000f3fe608060405234801561001057600080fd5b50600436106100575760003560e01c8063455347631461005c5780637718d9f31461008c5780638d4e40831461009657806395dbea06146100b4578063f851a440146100d0575b600080fd5b61007660048036038101906100719190610934565b6100ee565b6040516100839190610b1c565b60405180910390f35b610094610321565b005b61009e6103ce565b6040516100ab9190610b59565b60405180910390f35b6100ce60048036038101906100c99190610d3b565b6103e1565b005b6100d86106ec565b6040516100e59190610e23565b60405180910390f35b60606000826040516101009190610e7a565b9081526020016040518091039020805480602002602001604051908101604052809291908181526020016000905b82821015610316578382906000526020600020906003020160405180606001604052908160008201805461016190610ec0565b80601f016020809104026020016040519081016040528092919081815260200182805461018d90610ec0565b80156101da5780601f106101af576101008083540402835291602001916101da565b820191906000526020600020905b8154815290600101906020018083116101bd57829003601f168201915b505050505081526020016001820180546101f390610ec0565b80601f016020809104026020016040519081016040528092919081815260200182805461021f90610ec0565b801561026c5780601f106102415761010080835404028352916020019161026c565b820191906000526020600020905b81548152906001019060200180831161024f57829003601f168201915b5050505050815260200160028201805461028590610ec0565b80601f01602080910402602001604051908101604052809291908181526020018280546102b190610ec0565b80156102fe5780601f106102d3576101008083540402835291602001916102fe565b820191906000526020600020905b8154815290600101906020018083116102e157829003601f168201915b5050505050815250508152602001906001019061012e565b505050509050919050565b600160009054906101000a900473ffffffffffffffffffffffffffffffffffffffff1673ffffffffffffffffffffffffffffffffffffffff163373ffffffffffffffffffffffffffffffffffffffff16146103b1576040517f08c379a00000000000000000000000000000000000000000000000000000000081526004016103a890610f74565b60405180910390fd5b6000600160146101000a81548160ff021916908315150217905550565b600160149054906101000a900460ff1681565b600160009054906101000a900473ffffffffffffffffffffffffffffffffffffffff1673ffffffffffffffffffffffffffffffffffffffff163373ffffffffffffffffffffffffffffffffffffffff1614610471576040517f08c379a000000000000000000000000000000000000000000000000000000000815260040161046890610f74565b60405180910390fd5b600160149054906101000a900460ff16156104c1576040517f08c379a00000000000000000000000000000000000000000000000000000000081526004016104b890611006565b60405180910390fd5b60005b83518110156106a05760008482815181106104e2576104e1611026565b5b60200260200101516040516104f79190610e7a565b908152602001604051809103902060006105119190610712565b60005b83828151811061052757610526611026565b5b60200260200101515181101561068c57600085838151811061054c5761054b611026565b5b60200260200101516040516105619190610e7a565b9081526020016040518091039020604051806060016040528086858151811061058d5761058c611026565b5b602002602001015184815181106105a7576105a6611026565b5b602002602001015181526020018585815181106105c7576105c6611026565b5b602002602001015184815181106105e1576105e0611026565b5b6020026020010151815260200187858151811061060157610600611026565b5b60200260200101518152509080600181540180825580915050600190039060005260206000209060030201600090919091909150600082015181600001908161064a919061120b565b506020820151816001019081610660919061120b565b506040820151816002019081610676919061120b565b50505080806106849061130c565b915050610514565b5080806106989061130c565b9150506104c4565b5060018060146101000a81548160ff0219169083151502179055507f86825b43264ca968e676c45c8e05cc56965ff5938ed49dcf636c61acb7070bd760405160405180910390a1505050565b600160009054906101000a900473ffffffffffffffffffffffffffffffffffffffff1681565b50805460008255600302906000526020600020908101906107339190610736565b50565b5b808211156107795760008082016000610750919061077d565b600182016000610760919061077d565b600282016000610770919061077d565b50600301610737565b5090565b50805461078990610ec0565b6000825580601f1061079b57506107ba565b601f0160209004906000526020600020908101906107b991906107bd565b5b50565b5b808211156107d65760008160009055506001016107be565b5090565b6000604051905090565b600080fd5b600080fd5b600080fd5b600080fd5b6000601f19601f8301169050919050565b7f4e487b7100000000000000000000000000000000000000000000000000000000600052604160045260246000fd5b610841826107f8565b810181811067ffffffffffffffff821117156108605761085f610809565b5b80604052505050565b60006108736107da565b905061087f8282610838565b919050565b600067ffffffffffffffff82111561089f5761089e610809565b5b6108a8826107f8565b9050602081019050919050565b82818337600083830152505050565b60006108d76108d284610884565b610869565b9050828152602081018484840111156108f3576108f26107f3565b5b6108fe8482856108b5565b509392505050565b600082601f83011261091b5761091a6107ee565b5b813561092b8482602086016108c4565b91505092915050565b60006020828403121561094a576109496107e4565b5b600082013567ffffffffffffffff811115610968576109676107e9565b5b61097484828501610906565b91505092915050565b600081519050919050565b600082825260208201905092915050565b6000819050602082019050919050565b600081519050919050565b600082825260208201905092915050565b60005b838110156109e35780820151818401526020810190506109c8565b60008484015250505050565b60006109fa826109a9565b610a0481856109b4565b9350610a148185602086016109c5565b610a1d816107f8565b840191505092915050565b60006060830160008301518482036000860152610a4582826109ef565b91505060208301518482036020860152610a5f82826109ef565b91505060408301518482036040860152610a7982826109ef565b9150508091505092915050565b6000610a928383610a28565b905092915050565b6000602082019050919050565b6000610ab28261097d565b610abc8185610988565b935083602082028501610ace85610999565b8060005b85811015610b0a5784840389528151610aeb8582610a86565b9450610af683610a9a565b925060208a01995050600181019050610ad2565b50829750879550505050505092915050565b60006020820190508181036000830152610b368184610aa7565b905092915050565b60008115159050919050565b610b5381610b3e565b82525050565b6000602082019050610b6e6000830184610b4a565b92915050565b600067ffffffffffffffff821115610b8f57610b8e610809565b5b602082029050602081019050919050565b600080fd5b6000610bb8610bb384610b74565b610869565b90508083825260208201905060208402830185811115610bdb57610bda610ba0565b5b835b81811015610c2257803567ffffffffffffffff811115610c0057610bff6107ee565b5b808601610c0d8982610906565b85526020850194505050602081019050610bdd565b5050509392505050565b600082601f830112610c4157610c406107ee565b5b8135610c51848260208601610ba5565b91505092915050565b600067ffffffffffffffff821115610c7557610c74610809565b5b602082029050602081019050919050565b6000610c99610c9484610c5a565b610869565b90508083825260208201905060208402830185811115610cbc57610cbb610ba0565b5b835b81811015610d0357803567ffffffffffffffff811115610ce157610ce06107ee565b5b808601610cee8982610c2c565b85526020850194505050602081019050610cbe565b5050509392505050565b600082601f830112610d2257610d216107ee565b5b8135610d32848260208601610c86565b91505092915050565b600080600060608486031215610d5457610d536107e4565b5b600084013567ffffffffffffffff811115610d7257610d716107e9565b5b610d7e86828701610c2c565b935050602084013567ffffffffffffffff811115610d9f57610d9e6107e9565b5b610dab86828701610d0d565b925050604084013567ffffffffffffffff811115610dcc57610dcb6107e9565b5b610dd886828701610d0d565b9150509250925092565b600073ffffffffffffffffffffffffffffffffffffffff82169050919050565b6000610e0d82610de2565b9050919050565b610e1d81610e02565b82525050565b6000602082019050610e386000830184610e14565b92915050565b600081905092915050565b6000610e54826109a9565b610e5e8185610e3e565b9350610e6e8185602086016109c5565b80840191505092915050565b6000610e868284610e49565b915081905092915050565b7f4e487b7100000000000000000000000000000000000000000000000000000000600052602260045260246000fd5b60006002820490506001821680610ed857607f821691505b602082108103610eeb57610eea610e91565b5b50919050565b600082825260208201905092915050565b7f4f6e6c792061646d696e2063616e20706572666f726d2074686973206163746960008201527f6f6e000000000000000000000000000000000000000000000000000000000000602082015250565b6000610f5e602283610ef1565b9150610f6982610f02565b604082019050919050565b60006020820190508181036000830152610f8d81610f51565b9050919050565b7f43616e646964617465732061726520616c72656164792066696e616c697a656460008201527f2100000000000000000000000000000000000000000000000000000000000000602082015250565b6000610ff0602183610ef1565b9150610ffb82610f94565b604082019050919050565b6000602082019050818103600083015261101f81610fe3565b9050919050565b7f4e487b7100000000000000000000000000000000000000000000000000000000600052603260045260246000fd5b60008190508160005260206000209050919050565b60006020601f8301049050919050565b600082821b905092915050565b6000600883026110b77fffffffffffffffffffffffffffffffffffffffffffffffffffffffffffffffff8261107a565b6110c1868361107a565b95508019841693508086168417925050509392505050565b6000819050919050565b6000819050919050565b60006111086111036110fe846110d9565b6110e3565b6110d9565b9050919050565b6000819050919050565b611122836110ed565b61113661112e8261110f565b848454611087565b825550505050565b600090565b61114b61113e565b611156818484611119565b505050565b5b8181101561117a5761116f600082611143565b60018101905061115c565b5050565b601f8211156111bf5761119081611055565b6111998461106a565b810160208510156111a8578190505b6111bc6111b48561106a565b83018261115b565b50505b505050565b600082821c905092915050565b60006111e2600019846008026111c4565b1980831691505092915050565b60006111fb83836111d1565b9150826002028217905092915050565b611214826109a9565b67ffffffffffffffff81111561122d5761122c610809565b5b6112378254610ec0565b61124282828561117e565b600060209050601f8311600181146112755760008415611263578287015190505b61126d85826111ef565b8655506112d5565b601f19841661128386611055565b60005b828110156112ab57848901518255600182019150602085019450602081019050611286565b868310156112c857848901516112c4601f8916826111d1565b8355505b6001600288020188555050505b505050505050565b7f4e487b7100000000000000000000000000000000000000000000000000000000600052601160045260246000fd5b6000611317826110d9565b91507fffffffffffffffffffffffffffffffffffffffffffffffffffffffffffffffff8203611349576113486112dd565b5b60018201905091905056fea2646970667358221220ba02837e6fc49495895507fb73283d0e60183033fc6a206fe1e4d327ba8826cd64736f6c63430008150033","opcodes":"PUSH1 0x80 PUSH1 0x40 MSTORE PUSH1 0x0 PUSH1 0x1 PUSH1 0x14 PUSH2 0x100 EXP DUP2 SLOAD DUP2 PUSH1 0xFF MUL NOT AND SWAP1 DUP4 ISZERO ISZERO MUL OR SWAP1 SSTORE POP CALLVALUE DUP1 ISZERO PUSH2 0x2B JUMPI PUSH1 0x0 DUP1 REVERT JUMPDEST POP CALLER PUSH1 0x1 PUSH1 0x0 PUSH2 0x100 EXP DUP2 SLOAD DUP2 PUSH20 0xFFFFFFFFFFFFFFFFFFFFFFFFFFFFFFFFFFFFFFFF MUL NOT AND SWAP1 DUP4 PUSH20 0xFFFFFFFFFFFFFFFFFFFFFFFFFFFFFFFFFFFFFFFF AND MUL OR SWAP1 SSTORE POP PUSH2 0x138A DUP1 PUSH2 0x7C PUSH1 0x0 CODECOPY PUSH1 0x0 RETURN INVALID PUSH1 0x80 PUSH1 0x40 MSTORE CALLVALUE DUP1 ISZERO PUSH2 0x10 JUMPI PUSH1 0x0 DUP1 REVERT JUMPDEST POP PUSH1 0x4 CALLDATASIZE LT PUSH2 0x57 JUMPI PUSH1 0x0 CALLDATALOAD PUSH1 0xE0 SHR DUP1 PUSH4 0x45534763 EQ PUSH2 0x5C JUMPI DUP1 PUSH4 0x7718D9F3 EQ PUSH2 0x8C JUMPI DUP1 PUSH4 0x8D4E4083 EQ PUSH2 0x96 JUMPI DUP1 PUSH4 0x95DBEA06 EQ PUSH2 0xB4 JUMPI DUP1 PUSH4 0xF851A440 EQ PUSH2 0xD0 JUMPI JUMPDEST PUSH1 0x0 DUP1 REVERT JUMPDEST PUSH2 0x76 PUSH1 0x4 DUP1 CALLDATASIZE SUB DUP2 ADD SWAP1 PUSH2 0x71 SWAP2 SWAP1 PUSH2 0x934 JUMP JUMPDEST PUSH2 0xEE JUMP JUMPDEST PUSH1 0x40 MLOAD PUSH2 0x83 SWAP2 SWAP1 PUSH2 0xB1C JUMP JUMPDEST PUSH1 0x40 MLOAD DUP1 SWAP2 SUB SWAP1 RETURN JUMPDEST PUSH2 0x94 PUSH2 0x321 JUMP JUMPDEST STOP JUMPDEST PUSH2 0x9E PUSH2 0x3CE JUMP JUMPDEST PUSH1 0x40 MLOAD PUSH2 0xAB SWAP2 SWAP1 PUSH2 0xB59 JUMP JUMPDEST PUSH1 0x40 MLOAD DUP1 SWAP2 SUB SWAP1 RETURN JUMPDEST PUSH2 0xCE PUSH1 0x4 DUP1 CALLDATASIZE SUB DUP2 ADD SWAP1 PUSH2 0xC9 SWAP2 SWAP1 PUSH2 0xD3B JUMP JUMPDEST PUSH2 0x3E1 JUMP JUMPDEST STOP JUMPDEST PUSH2 0xD8 PUSH2 0x6EC JUMP JUMPDEST PUSH1 0x40 MLOAD PUSH2 0xE5 SWAP2 SWAP1 PUSH2 0xE23 JUMP JUMPDEST PUSH1 0x40 MLOAD DUP1 SWAP2 SUB SWAP1 RETURN JUMPDEST PUSH1 0x60 PUSH1 0x0 DUP3 PUSH1 0x40 MLOAD PUSH2 0x100 SWAP2 SWAP1 PUSH2 0xE7A JUMP JUMPDEST SWAP1 DUP2 MSTORE PUSH1 0x20 ADD PUSH1 0x40 MLOAD DUP1 SWAP2 SUB SWAP1 KECCAK256 DUP1 SLOAD DUP1 PUSH1 0x20 MUL PUSH1 0x20 ADD PUSH1 0x40 MLOAD SWAP1 DUP2 ADD PUSH1 0x40 MSTORE DUP1 SWAP3 SWAP2 SWAP1 DUP2 DUP2 MSTORE PUSH1 0x20 ADD PUSH1 0x0 SWAP1 JUMPDEST DUP3 DUP3 LT ISZERO PUSH2 0x316 JUMPI DUP4 DUP3 SWAP1 PUSH1 0x0 MSTORE PUSH1 0x20 PUSH1 0x0 KECCAK256 SWAP1 PUSH1 0x3 MUL ADD PUSH1 0x40 MLOAD DUP1 PUSH1 0x60 ADD PUSH1 0x40 MSTORE SWAP1 DUP2 PUSH1 0x0 DUP3 ADD DUP1 SLOAD PUSH2 0x161 SWAP1 PUSH2 0xEC0 JUMP JUMPDEST DUP1 PUSH1 0x1F ADD PUSH1 0x20 DUP1 SWAP2 DIV MUL PUSH1 0x20 ADD PUSH1 0x40 MLOAD SWAP1 DUP2 ADD PUSH1 0x40 MSTORE DUP1 SWAP3 SWAP2 SWAP1 DUP2 DUP2 MSTORE PUSH1 0x20 ADD DUP3 DUP1 SLOAD PUSH2 0x18D SWAP1 PUSH2 0xEC0 JUMP JUMPDEST DUP1 ISZERO PUSH2 0x1DA JUMPI DUP1 PUSH1 0x1F LT PUSH2 0x1AF JUMPI PUSH2 0x100 DUP1 DUP4 SLOAD DIV MUL DUP4 MSTORE SWAP2 PUSH1 0x20 ADD SWAP2 PUSH2 0x1DA JUMP JUMPDEST DUP3 ADD SWAP2 SWAP1 PUSH1 0x0 MSTORE PUSH1 0x20 PUSH1 0x0 KECCAK256 SWAP1 JUMPDEST DUP2 SLOAD DUP2 MSTORE SWAP1 PUSH1 0x1 ADD SWAP1 PUSH1 0x20 ADD DUP1 DUP4 GT PUSH2 0x1BD JUMPI DUP3 SWAP1 SUB PUSH1 0x1F AND DUP3 ADD SWAP2 JUMPDEST POP POP POP POP POP DUP2 MSTORE PUSH1 0x20 ADD PUSH1 0x1 DUP3 ADD DUP1 SLOAD PUSH2 0x1F3 SWAP1 PUSH2 0xEC0 JUMP JUMPDEST DUP1 PUSH1 0x1F ADD PUSH1 0x20 DUP1 SWAP2 DIV MUL PUSH1 0x20 ADD PUSH1 0x40 MLOAD SWAP1 DUP2 ADD PUSH1 0x40 MSTORE DUP1 SWAP3 SWAP2 SWAP1 DUP2 DUP2 MSTORE PUSH1 0x20 ADD DUP3 DUP1 SLOAD PUSH2 0x21F SWAP1 PUSH2 0xEC0 JUMP JUMPDEST DUP1 ISZERO PUSH2 0x26C JUMPI DUP1 PUSH1 0x1F LT PUSH2 0x241 JUMPI PUSH2 0x100 DUP1 DUP4 SLOAD DIV MUL DUP4 MSTORE SWAP2 PUSH1 0x20 ADD SWAP2 PUSH2 0x26C JUMP JUMPDEST DUP3 ADD SWAP2 SWAP1 PUSH1 0x0 MSTORE PUSH1 0x20 PUSH1 0x0 KECCAK256 SWAP1 JUMPDEST DUP2 SLOAD DUP2 MSTORE SWAP1 PUSH1 0x1 ADD SWAP1 PUSH1 0x20 ADD DUP1 DUP4 GT PUSH2 0x24F JUMPI DUP3 SWAP1 SUB PUSH1 0x1F AND DUP3 ADD SWAP2 JUMPDEST POP POP POP POP POP DUP2 MSTORE PUSH1 0x20 ADD PUSH1 0x2 DUP3 ADD DUP1 SLOAD PUSH2 0x285 SWAP1 PUSH2 0xEC0 JUMP JUMPDEST DUP1 PUSH1 0x1F ADD PUSH1 0x20 DUP1 SWAP2 DIV MUL PUSH1 0x20 ADD PUSH1 0x40 MLOAD SWAP1 DUP2 ADD PUSH1 0x40 MSTORE DUP1 SWAP3 SWAP2 SWAP1 DUP2 DUP2 MSTORE PUSH1 0x20 ADD DUP3 DUP1 SLOAD PUSH2 0x2B1 SWAP1 PUSH2 0xEC0 JUMP JUMPDEST DUP1 ISZERO PUSH2 0x2FE JUMPI DUP1 PUSH1 0x1F LT PUSH2 0x2D3 JUMPI PUSH2 0x100 DUP1 DUP4 SLOAD DIV MUL DUP4 MSTORE SWAP2 PUSH1 0x20 ADD SWAP2 PUSH2 0x2FE JUMP JUMPDEST DUP3 ADD SWAP2 SWAP1 PUSH1 0x0 MSTORE PUSH1 0x20 PUSH1 0x0 KECCAK256 SWAP1 JUMPDEST DUP2 SLOAD DUP2 MSTORE SWAP1 PUSH1 0x1 ADD SWAP1 PUSH1 0x20 ADD DUP1 DUP4 GT PUSH2 0x2E1 JUMPI DUP3 SWAP1 SUB PUSH1 0x1F AND DUP3 ADD SWAP2 JUMPDEST POP POP POP POP POP DUP2 MSTORE POP POP DUP2 MSTORE PUSH1 0x20 ADD SWAP1 PUSH1 0x1 ADD SWAP1 PUSH2 0x12E JUMP JUMPDEST POP POP POP POP SWAP1 POP SWAP2 SWAP1 POP JUMP JUMPDEST PUSH1 0x1 PUSH1 0x0 SWAP1 SLOAD SWAP1 PUSH2 0x100 EXP SWAP1 DIV PUSH20 0xFFFFFFFFFFFFFFFFFFFFFFFFFFFFFFFFFFFFFFFF AND PUSH20 0xFFFFFFFFFFFFFFFFFFFFFFFFFFFFFFFFFFFFFFFF AND CALLER PUSH20 0xFFFFFFFFFFFFFFFFFFFFFFFFFFFFFFFFFFFFFFFF AND EQ PUSH2 0x3B1 JUMPI PUSH1 0x40 MLOAD PUSH32 0x8C379A000000000000000000000000000000000000000000000000000000000 DUP2 MSTORE PUSH1 0x4 ADD PUSH2 0x3A8 SWAP1 PUSH2 0xF74 JUMP JUMPDEST PUSH1 0x40 MLOAD DUP1 SWAP2 SUB SWAP1 REVERT JUMPDEST PUSH1 0x0 PUSH1 0x1 PUSH1 0x14 PUSH2 0x100 EXP DUP2 SLOAD DUP2 PUSH1 0xFF MUL NOT AND SWAP1 DUP4 ISZERO ISZERO MUL OR SWAP1 SSTORE POP JUMP JUMPDEST PUSH1 0x1 PUSH1 0x14 SWAP1 SLOAD SWAP1 PUSH2 0x100 EXP SWAP1 DIV PUSH1 0xFF AND DUP2 JUMP JUMPDEST PUSH1 0x1 PUSH1 0x0 SWAP1 SLOAD SWAP1 PUSH2 0x100 EXP SWAP1 DIV PUSH20 0xFFFFFFFFFFFFFFFFFFFFFFFFFFFFFFFFFFFFFFFF AND PUSH20 0xFFFFFFFFFFFFFFFFFFFFFFFFFFFFFFFFFFFFFFFF AND CALLER PUSH20 0xFFFFFFFFFFFFFFFFFFFFFFFFFFFFFFFFFFFFFFFF AND EQ PUSH2 0x471 JUMPI PUSH1 0x40 MLOAD PUSH32 0x8C379A000000000000000000000000000000000000000000000000000000000 DUP2 MSTORE PUSH1 0x4 ADD PUSH2 0x468 SWAP1 PUSH2 0xF74 JUMP JUMPDEST PUSH1 0x40 MLOAD DUP1 SWAP2 SUB SWAP1 REVERT JUMPDEST PUSH1 0x1 PUSH1 0x14 SWAP1 SLOAD SWAP1 PUSH2 0x100 EXP SWAP1 DIV PUSH1 0xFF AND ISZERO PUSH2 0x4C1 JUMPI PUSH1 0x40 MLOAD PUSH32 0x8C379A000000000000000000000000000000000000000000000000000000000 DUP2 MSTORE PUSH1 0x4 ADD PUSH2 0x4B8 SWAP1 PUSH2 0x1006 JUMP JUMPDEST PUSH1 0x40 MLOAD DUP1 SWAP2 SUB SWAP1 REVERT JUMPDEST PUSH1 0x0 JUMPDEST DUP4 MLOAD DUP2 LT ISZERO PUSH2 0x6A0 JUMPI PUSH1 0x0 DUP5 DUP3 DUP2 MLOAD DUP2 LT PUSH2 0x4E2 JUMPI PUSH2 0x4E1 PUSH2 0x1026 JUMP JUMPDEST JUMPDEST PUSH1 0x20 MUL PUSH1 0x20 ADD ADD MLOAD PUSH1 0x40 MLOAD PUSH2 0x4F7 SWAP2 SWAP1 PUSH2 0xE7A JUMP JUMPDEST SWAP1 DUP2 MSTORE PUSH1 0x20 ADD PUSH1 0x40 MLOAD DUP1 SWAP2 SUB SWAP1 KECCAK256 PUSH1 0x0 PUSH2 0x511 SWAP2 SWAP1 PUSH2 0x712 JUMP JUMPDEST PUSH1 0x0 JUMPDEST DUP4 DUP3 DUP2 MLOAD DUP2 LT PUSH2 0x527 JUMPI PUSH2 0x526 PUSH2 0x1026 JUMP JUMPDEST JUMPDEST PUSH1 0x20 MUL PUSH1 0x20 ADD ADD MLOAD MLOAD DUP2 LT ISZERO PUSH2 0x68C JUMPI PUSH1 0x0 DUP6 DUP4 DUP2 MLOAD DUP2 LT PUSH2 0x54C JUMPI PUSH2 0x54B PUSH2 0x1026 JUMP JUMPDEST JUMPDEST PUSH1 0x20 MUL PUSH1 0x20 ADD ADD MLOAD PUSH1 0x40 MLOAD PUSH2 0x561 SWAP2 SWAP1 PUSH2 0xE7A JUMP JUMPDEST SWAP1 DUP2 MSTORE PUSH1 0x20 ADD PUSH1 0x40 MLOAD DUP1 SWAP2 SUB SWAP1 KECCAK256 PUSH1 0x40 MLOAD DUP1 PUSH1 0x60 ADD PUSH1 0x40 MSTORE DUP1 DUP7 DUP6 DUP2 MLOAD DUP2 LT PUSH2 0x58D JUMPI PUSH2 0x58C PUSH2 0x1026 JUMP JUMPDEST JUMPDEST PUSH1 0x20 MUL PUSH1 0x20 ADD ADD MLOAD DUP5 DUP2 MLOAD DUP2 LT PUSH2 0x5A7 JUMPI PUSH2 0x5A6 PUSH2 0x1026 JUMP JUMPDEST JUMPDEST PUSH1 0x20 MUL PUSH1 0x20 ADD ADD MLOAD DUP2 MSTORE PUSH1 0x20 ADD DUP6 DUP6 DUP2 MLOAD DUP2 LT PUSH2 0x5C7 JUMPI PUSH2 0x5C6 PUSH2 0x1026 JUMP JUMPDEST JUMPDEST PUSH1 0x20 MUL PUSH1 0x20 ADD ADD MLOAD DUP5 DUP2 MLOAD DUP2 LT PUSH2 0x5E1 JUMPI PUSH2 0x5E0 PUSH2 0x1026 JUMP JUMPDEST JUMPDEST PUSH1 0x20 MUL PUSH1 0x20 ADD ADD MLOAD DUP2 MSTORE PUSH1 0x20 ADD DUP8 DUP6 DUP2 MLOAD DUP2 LT PUSH2 0x601 JUMPI PUSH2 0x600 PUSH2 0x1026 JUMP JUMPDEST JUMPDEST PUSH1 0x20 MUL PUSH1 0x20 ADD ADD MLOAD DUP2 MSTORE POP SWAP1 DUP1 PUSH1 0x1 DUP2 SLOAD ADD DUP1 DUP3 SSTORE DUP1 SWAP2 POP POP PUSH1 0x1 SWAP1 SUB SWAP1 PUSH1 0x0 MSTORE PUSH1 0x20 PUSH1 0x0 KECCAK256 SWAP1 PUSH1 0x3 MUL ADD PUSH1 0x0 SWAP1 SWAP2 SWAP1 SWAP2 SWAP1 SWAP2 POP PUSH1 0x0 DUP3 ADD MLOAD DUP2 PUSH1 0x0 ADD SWAP1 DUP2 PUSH2 0x64A SWAP2 SWAP1 PUSH2 0x120B JUMP JUMPDEST POP PUSH1 0x20 DUP3 ADD MLOAD DUP2 PUSH1 0x1 ADD SWAP1 DUP2 PUSH2 0x660 SWAP2 SWAP1 PUSH2 0x120B JUMP JUMPDEST POP PUSH1 0x40 DUP3 ADD MLOAD DUP2 PUSH1 0x2 ADD SWAP1 DUP2 PUSH2 0x676 SWAP2 SWAP1 PUSH2 0x120B JUMP JUMPDEST POP POP POP DUP1 DUP1 PUSH2 0x684 SWAP1 PUSH2 0x130C JUMP JUMPDEST SWAP2 POP POP PUSH2 0x514 JUMP JUMPDEST POP DUP1 DUP1 PUSH2 0x698 SWAP1 PUSH2 0x130C JUMP JUMPDEST SWAP2 POP POP PUSH2 0x4C4 JUMP JUMPDEST POP PUSH1 0x1 DUP1 PUSH1 0x14 PUSH2 0x100 EXP DUP2 SLOAD DUP2 PUSH1 0xFF MUL NOT AND SWAP1 DUP4 ISZERO ISZERO MUL OR SWAP1 SSTORE POP PUSH32 0x86825B43264CA968E676C45C8E05CC56965FF5938ED49DCF636C61ACB7070BD7 PUSH1 0x40 MLOAD PUSH1 0x40 MLOAD DUP1 SWAP2 SUB SWAP1 LOG1 POP POP POP JUMP JUMPDEST PUSH1 0x1 PUSH1 0x0 SWAP1 SLOAD SWAP1 PUSH2 0x100 EXP SWAP1 DIV PUSH20 0xFFFFFFFFFFFFFFFFFFFFFFFFFFFFFFFFFFFFFFFF AND DUP2 JUMP JUMPDEST POP DUP1 SLOAD PUSH1 0x0 DUP3 SSTORE PUSH1 0x3 MUL SWAP1 PUSH1 0x0 MSTORE PUSH1 0x20 PUSH1 0x0 KECCAK256 SWAP1 DUP2 ADD SWAP1 PUSH2 0x733 SWAP2 SWAP1 PUSH2 0x736 JUMP JUMPDEST POP JUMP JUMPDEST JUMPDEST DUP1 DUP3 GT ISZERO PUSH2 0x779 JUMPI PUSH1 0x0 DUP1 DUP3 ADD PUSH1 0x0 PUSH2 0x750 SWAP2 SWAP1 PUSH2 0x77D JUMP JUMPDEST PUSH1 0x1 DUP3 ADD PUSH1 0x0 PUSH2 0x760 SWAP2 SWAP1 PUSH2 0x77D JUMP JUMPDEST PUSH1 0x2 DUP3 ADD PUSH1 0x0 PUSH2 0x770 SWAP2 SWAP1 PUSH2 0x77D JUMP JUMPDEST POP PUSH1 0x3 ADD PUSH2 0x737 JUMP JUMPDEST POP SWAP1 JUMP JUMPDEST POP DUP1 SLOAD PUSH2 0x789 SWAP1 PUSH2 0xEC0 JUMP JUMPDEST PUSH1 0x0 DUP3 SSTORE DUP1 PUSH1 0x1F LT PUSH2 0x79B JUMPI POP PUSH2 0x7BA JUMP JUMPDEST PUSH1 0x1F ADD PUSH1 0x20 SWAP1 DIV SWAP1 PUSH1 0x0 MSTORE PUSH1 0x20 PUSH1 0x0 KECCAK256 SWAP1 DUP2 ADD SWAP1 PUSH2 0x7B9 SWAP2 SWAP1 PUSH2 0x7BD JUMP JUMPDEST JUMPDEST POP JUMP JUMPDEST JUMPDEST DUP1 DUP3 GT ISZERO PUSH2 0x7D6 JUMPI PUSH1 0x0 DUP2 PUSH1 0x0 SWAP1 SSTORE POP PUSH1 0x1 ADD PUSH2 0x7BE JUMP JUMPDEST POP SWAP1 JUMP JUMPDEST PUSH1 0x0 PUSH1 0x40 MLOAD SWAP1 POP SWAP1 JUMP JUMPDEST PUSH1 0x0 DUP1 REVERT JUMPDEST PUSH1 0x0 DUP1 REVERT JUMPDEST PUSH1 0x0 DUP1 REVERT JUMPDEST PUSH1 0x0 DUP1 REVERT JUMPDEST PUSH1 0x0 PUSH1 0x1F NOT PUSH1 0x1F DUP4 ADD AND SWAP1 POP SWAP2 SWAP1 POP JUMP JUMPDEST PUSH32 0x4E487B7100000000000000000000000000000000000000000000000000000000 PUSH1 0x0 MSTORE PUSH1 0x41 PUSH1 0x4 MSTORE PUSH1 0x24 PUSH1 0x0 REVERT JUMPDEST PUSH2 0x841 DUP3 PUSH2 0x7F8 JUMP JUMPDEST DUP2 ADD DUP2 DUP2 LT PUSH8 0xFFFFFFFFFFFFFFFF DUP3 GT OR ISZERO PUSH2 0x860 JUMPI PUSH2 0x85F PUSH2 0x809 JUMP JUMPDEST JUMPDEST DUP1 PUSH1 0x40 MSTORE POP POP POP JUMP JUMPDEST PUSH1 0x0 PUSH2 0x873 PUSH2 0x7DA JUMP JUMPDEST SWAP1 POP PUSH2 0x87F DUP3 DUP3 PUSH2 0x838 JUMP JUMPDEST SWAP2 SWAP1 POP JUMP JUMPDEST PUSH1 0x0 PUSH8 0xFFFFFFFFFFFFFFFF DUP3 GT ISZERO PUSH2 0x89F JUMPI PUSH2 0x89E PUSH2 0x809 JUMP JUMPDEST JUMPDEST PUSH2 0x8A8 DUP3 PUSH2 0x7F8 JUMP JUMPDEST SWAP1 POP PUSH1 0x20 DUP2 ADD SWAP1 POP SWAP2 SWAP1 POP JUMP JUMPDEST DUP3 DUP2 DUP4 CALLDATACOPY PUSH1 0x0 DUP4 DUP4 ADD MSTORE POP POP POP JUMP JUMPDEST PUSH1 0x0 PUSH2 0x8D7 PUSH2 0x8D2 DUP5 PUSH2 0x884 JUMP JUMPDEST PUSH2 0x869 JUMP JUMPDEST SWAP1 POP DUP3 DUP2 MSTORE PUSH1 0x20 DUP2 ADD DUP5 DUP5 DUP5 ADD GT ISZERO PUSH2 0x8F3 JUMPI PUSH2 0x8F2 PUSH2 0x7F3 JUMP JUMPDEST JUMPDEST PUSH2 0x8FE DUP5 DUP3 DUP6 PUSH2 0x8B5 JUMP JUMPDEST POP SWAP4 SWAP3 POP POP POP JUMP JUMPDEST PUSH1 0x0 DUP3 PUSH1 0x1F DUP4 ADD SLT PUSH2 0x91B JUMPI PUSH2 0x91A PUSH2 0x7EE JUMP JUMPDEST JUMPDEST DUP2 CALLDATALOAD PUSH2 0x92B DUP5 DUP3 PUSH1 0x20 DUP7 ADD PUSH2 0x8C4 JUMP JUMPDEST SWAP2 POP POP SWAP3 SWAP2 POP POP JUMP JUMPDEST PUSH1 0x0 PUSH1 0x20 DUP3 DUP5 SUB SLT ISZERO PUSH2 0x94A JUMPI PUSH2 0x949 PUSH2 0x7E4 JUMP JUMPDEST JUMPDEST PUSH1 0x0 DUP3 ADD CALLDATALOAD PUSH8 0xFFFFFFFFFFFFFFFF DUP2 GT ISZERO PUSH2 0x968 JUMPI PUSH2 0x967 PUSH2 0x7E9 JUMP JUMPDEST JUMPDEST PUSH2 0x974 DUP5 DUP3 DUP6 ADD PUSH2 0x906 JUMP JUMPDEST SWAP2 POP POP SWAP3 SWAP2 POP POP JUMP JUMPDEST PUSH1 0x0 DUP2 MLOAD SWAP1 POP SWAP2 SWAP1 POP JUMP JUMPDEST PUSH1 0x0 DUP3 DUP3 MSTORE PUSH1 0x20 DUP3 ADD SWAP1 POP SWAP3 SWAP2 POP POP JUMP JUMPDEST PUSH1 0x0 DUP2 SWAP1 POP PUSH1 0x20 DUP3 ADD SWAP1 POP SWAP2 SWAP1 POP JUMP JUMPDEST PUSH1 0x0 DUP2 MLOAD SWAP1 POP SWAP2 SWAP1 POP JUMP JUMPDEST PUSH1 0x0 DUP3 DUP3 MSTORE PUSH1 0x20 DUP3 ADD SWAP1 POP SWAP3 SWAP2 POP POP JUMP JUMPDEST PUSH1 0x0 JUMPDEST DUP4 DUP2 LT ISZERO PUSH2 0x9E3 JUMPI DUP1 DUP3 ADD MLOAD DUP2 DUP5 ADD MSTORE PUSH1 0x20 DUP2 ADD SWAP1 POP PUSH2 0x9C8 JUMP JUMPDEST PUSH1 0x0 DUP5 DUP5 ADD MSTORE POP POP POP POP JUMP JUMPDEST PUSH1 0x0 PUSH2 0x9FA DUP3 PUSH2 0x9A9 JUMP JUMPDEST PUSH2 0xA04 DUP2 DUP6 PUSH2 0x9B4 JUMP JUMPDEST SWAP4 POP PUSH2 0xA14 DUP2 DUP6 PUSH1 0x20 DUP7 ADD PUSH2 0x9C5 JUMP JUMPDEST PUSH2 0xA1D DUP2 PUSH2 0x7F8 JUMP JUMPDEST DUP5 ADD SWAP2 POP POP SWAP3 SWAP2 POP POP JUMP JUMPDEST PUSH1 0x0 PUSH1 0x60 DUP4 ADD PUSH1 0x0 DUP4 ADD MLOAD DUP5 DUP3 SUB PUSH1 0x0 DUP7 ADD MSTORE PUSH2 0xA45 DUP3 DUP3 PUSH2 0x9EF JUMP JUMPDEST SWAP2 POP POP PUSH1 0x20 DUP4 ADD MLOAD DUP5 DUP3 SUB PUSH1 0x20 DUP7 ADD MSTORE PUSH2 0xA5F DUP3 DUP3 PUSH2 0x9EF JUMP JUMPDEST SWAP2 POP POP PUSH1 0x40 DUP4 ADD MLOAD DUP5 DUP3 SUB PUSH1 0x40 DUP7 ADD MSTORE PUSH2 0xA79 DUP3 DUP3 PUSH2 0x9EF JUMP JUMPDEST SWAP2 POP POP DUP1 SWAP2 POP POP SWAP3 SWAP2 POP POP JUMP JUMPDEST PUSH1 0x0 PUSH2 0xA92 DUP4 DUP4 PUSH2 0xA28 JUMP JUMPDEST SWAP1 POP SWAP3 SWAP2 POP POP JUMP JUMPDEST PUSH1 0x0 PUSH1 0x20 DUP3 ADD SWAP1 POP SWAP2 SWAP1 POP JUMP JUMPDEST PUSH1 0x0 PUSH2 0xAB2 DUP3 PUSH2 0x97D JUMP JUMPDEST PUSH2 0xABC DUP2 DUP6 PUSH2 0x988 JUMP JUMPDEST SWAP4 POP DUP4 PUSH1 0x20 DUP3 MUL DUP6 ADD PUSH2 0xACE DUP6 PUSH2 0x999 JUMP JUMPDEST DUP1 PUSH1 0x0 JUMPDEST DUP6 DUP2 LT ISZERO PUSH2 0xB0A JUMPI DUP5 DUP5 SUB DUP10 MSTORE DUP2 MLOAD PUSH2 0xAEB DUP6 DUP3 PUSH2 0xA86 JUMP JUMPDEST SWAP5 POP PUSH2 0xAF6 DUP4 PUSH2 0xA9A JUMP JUMPDEST SWAP3 POP PUSH1 0x20 DUP11 ADD SWAP10 POP POP PUSH1 0x1 DUP2 ADD SWAP1 POP PUSH2 0xAD2 JUMP JUMPDEST POP DUP3 SWAP8 POP DUP8 SWAP6 POP POP POP POP POP POP SWAP3 SWAP2 POP POP JUMP JUMPDEST PUSH1 0x0 PUSH1 0x20 DUP3 ADD SWAP1 POP DUP2 DUP2 SUB PUSH1 0x0 DUP4 ADD MSTORE PUSH2 0xB36 DUP2 DUP5 PUSH2 0xAA7 JUMP JUMPDEST SWAP1 POP SWAP3 SWAP2 POP POP JUMP JUMPDEST PUSH1 0x0 DUP2 ISZERO ISZERO SWAP1 POP SWAP2 SWAP1 POP JUMP JUMPDEST PUSH2 0xB53 DUP2 PUSH2 0xB3E JUMP JUMPDEST DUP3 MSTORE POP POP JUMP JUMPDEST PUSH1 0x0 PUSH1 0x20 DUP3 ADD SWAP1 POP PUSH2 0xB6E PUSH1 0x0 DUP4 ADD DUP5 PUSH2 0xB4A JUMP JUMPDEST SWAP3 SWAP2 POP POP JUMP JUMPDEST PUSH1 0x0 PUSH8 0xFFFFFFFFFFFFFFFF DUP3 GT ISZERO PUSH2 0xB8F JUMPI PUSH2 0xB8E PUSH2 0x809 JUMP JUMPDEST JUMPDEST PUSH1 0x20 DUP3 MUL SWAP1 POP PUSH1 0x20 DUP2 ADD SWAP1 POP SWAP2 SWAP1 POP JUMP JUMPDEST PUSH1 0x0 DUP1 REVERT JUMPDEST PUSH1 0x0 PUSH2 0xBB8 PUSH2 0xBB3 DUP5 PUSH2 0xB74 JUMP JUMPDEST PUSH2 0x869 JUMP JUMPDEST SWAP1 POP DUP1 DUP4 DUP3 MSTORE PUSH1 0x20 DUP3 ADD SWAP1 POP PUSH1 0x20 DUP5 MUL DUP4 ADD DUP6 DUP2 GT ISZERO PUSH2 0xBDB JUMPI PUSH2 0xBDA PUSH2 0xBA0 JUMP JUMPDEST JUMPDEST DUP4 JUMPDEST DUP2 DUP2 LT ISZERO PUSH2 0xC22 JUMPI DUP1 CALLDATALOAD PUSH8 0xFFFFFFFFFFFFFFFF DUP2 GT ISZERO PUSH2 0xC00 JUMPI PUSH2 0xBFF PUSH2 0x7EE JUMP JUMPDEST JUMPDEST DUP1 DUP7 ADD PUSH2 0xC0D DUP10 DUP3 PUSH2 0x906 JUMP JUMPDEST DUP6 MSTORE PUSH1 0x20 DUP6 ADD SWAP5 POP POP POP PUSH1 0x20 DUP2 ADD SWAP1 POP PUSH2 0xBDD JUMP JUMPDEST POP POP POP SWAP4 SWAP3 POP POP POP JUMP JUMPDEST PUSH1 0x0 DUP3 PUSH1 0x1F DUP4 ADD SLT PUSH2 0xC41 JUMPI PUSH2 0xC40 PUSH2 0x7EE JUMP JUMPDEST JUMPDEST DUP2 CALLDATALOAD PUSH2 0xC51 DUP5 DUP3 PUSH1 0x20 DUP7 ADD PUSH2 0xBA5 JUMP JUMPDEST SWAP2 POP POP SWAP3 SWAP2 POP POP JUMP JUMPDEST PUSH1 0x0 PUSH8 0xFFFFFFFFFFFFFFFF DUP3 GT ISZERO PUSH2 0xC75 JUMPI PUSH2 0xC74 PUSH2 0x809 JUMP JUMPDEST JUMPDEST PUSH1 0x20 DUP3 MUL SWAP1 POP PUSH1 0x20 DUP2 ADD SWAP1 POP SWAP2 SWAP1 POP JUMP JUMPDEST PUSH1 0x0 PUSH2 0xC99 PUSH2 0xC94 DUP5 PUSH2 0xC5A JUMP JUMPDEST PUSH2 0x869 JUMP JUMPDEST SWAP1 POP DUP1 DUP4 DUP3 MSTORE PUSH1 0x20 DUP3 ADD SWAP1 POP PUSH1 0x20 DUP5 MUL DUP4 ADD DUP6 DUP2 GT ISZERO PUSH2 0xCBC JUMPI PUSH2 0xCBB PUSH2 0xBA0 JUMP JUMPDEST JUMPDEST DUP4 JUMPDEST DUP2 DUP2 LT ISZERO PUSH2 0xD03 JUMPI DUP1 CALLDATALOAD PUSH8 0xFFFFFFFFFFFFFFFF DUP2 GT ISZERO PUSH2 0xCE1 JUMPI PUSH2 0xCE0 PUSH2 0x7EE JUMP JUMPDEST JUMPDEST DUP1 DUP7 ADD PUSH2 0xCEE DUP10 DUP3 PUSH2 0xC2C JUMP JUMPDEST DUP6 MSTORE PUSH1 0x20 DUP6 ADD SWAP5 POP POP POP PUSH1 0x20 DUP2 ADD SWAP1 POP PUSH2 0xCBE JUMP JUMPDEST POP POP POP SWAP4 SWAP3 POP POP POP JUMP JUMPDEST PUSH1 0x0 DUP3 PUSH1 0x1F DUP4 ADD SLT PUSH2 0xD22 JUMPI PUSH2 0xD21 PUSH2 0x7EE JUMP JUMPDEST JUMPDEST DUP2 CALLDATALOAD PUSH2 0xD32 DUP5 DUP3 PUSH1 0x20 DUP7 ADD PUSH2 0xC86 JUMP JUMPDEST SWAP2 POP POP SWAP3 SWAP2 POP POP JUMP JUMPDEST PUSH1 0x0 DUP1 PUSH1 0x0 PUSH1 0x60 DUP5 DUP7 SUB SLT ISZERO PUSH2 0xD54 JUMPI PUSH2 0xD53 PUSH2 0x7E4 JUMP JUMPDEST JUMPDEST PUSH1 0x0 DUP5 ADD CALLDATALOAD PUSH8 0xFFFFFFFFFFFFFFFF DUP2 GT ISZERO PUSH2 0xD72 JUMPI PUSH2 0xD71 PUSH2 0x7E9 JUMP JUMPDEST JUMPDEST PUSH2 0xD7E DUP7 DUP3 DUP8 ADD PUSH2 0xC2C JUMP JUMPDEST SWAP4 POP POP PUSH1 0x20 DUP5 ADD CALLDATALOAD PUSH8 0xFFFFFFFFFFFFFFFF DUP2 GT ISZERO PUSH2 0xD9F JUMPI PUSH2 0xD9E PUSH2 0x7E9 JUMP JUMPDEST JUMPDEST PUSH2 0xDAB DUP7 DUP3 DUP8 ADD PUSH2 0xD0D JUMP JUMPDEST SWAP3 POP POP PUSH1 0x40 DUP5 ADD CALLDATALOAD PUSH8 0xFFFFFFFFFFFFFFFF DUP2 GT ISZERO PUSH2 0xDCC JUMPI PUSH2 0xDCB PUSH2 0x7E9 JUMP JUMPDEST JUMPDEST PUSH2 0xDD8 DUP7 DUP3 DUP8 ADD PUSH2 0xD0D JUMP JUMPDEST SWAP2 POP POP SWAP3 POP SWAP3 POP SWAP3 JUMP JUMPDEST PUSH1 0x0 PUSH20 0xFFFFFFFFFFFFFFFFFFFFFFFFFFFFFFFFFFFFFFFF DUP3 AND SWAP1 POP SWAP2 SWAP1 POP JUMP JUMPDEST PUSH1 0x0 PUSH2 0xE0D DUP3 PUSH2 0xDE2 JUMP JUMPDEST SWAP1 POP SWAP2 SWAP1 POP JUMP JUMPDEST PUSH2 0xE1D DUP2 PUSH2 0xE02 JUMP JUMPDEST DUP3 MSTORE POP POP JUMP JUMPDEST PUSH1 0x0 PUSH1 0x20 DUP3 ADD SWAP1 POP PUSH2 0xE38 PUSH1 0x0 DUP4 ADD DUP5 PUSH2 0xE14 JUMP JUMPDEST SWAP3 SWAP2 POP POP JUMP JUMPDEST PUSH1 0x0 DUP2 SWAP1 POP SWAP3 SWAP2 POP POP JUMP JUMPDEST PUSH1 0x0 PUSH2 0xE54 DUP3 PUSH2 0x9A9 JUMP JUMPDEST PUSH2 0xE5E DUP2 DUP6 PUSH2 0xE3E JUMP JUMPDEST SWAP4 POP PUSH2 0xE6E DUP2 DUP6 PUSH1 0x20 DUP7 ADD PUSH2 0x9C5 JUMP JUMPDEST DUP1 DUP5 ADD SWAP2 POP POP SWAP3 SWAP2 POP POP JUMP JUMPDEST PUSH1 0x0 PUSH2 0xE86 DUP3 DUP5 PUSH2 0xE49 JUMP JUMPDEST SWAP2 POP DUP2 SWAP1 POP SWAP3 SWAP2 POP POP JUMP JUMPDEST PUSH32 0x4E487B7100000000000000000000000000000000000000000000000000000000 PUSH1 0x0 MSTORE PUSH1 0x22 PUSH1 0x4 MSTORE PUSH1 0x24 PUSH1 0x0 REVERT JUMPDEST PUSH1 0x0 PUSH1 0x2 DUP3 DIV SWAP1 POP PUSH1 0x1 DUP3 AND DUP1 PUSH2 0xED8 JUMPI PUSH1 0x7F DUP3 AND SWAP2 POP JUMPDEST PUSH1 0x20 DUP3 LT DUP2 SUB PUSH2 0xEEB JUMPI PUSH2 0xEEA PUSH2 0xE91 JUMP JUMPDEST JUMPDEST POP SWAP2 SWAP1 POP JUMP JUMPDEST PUSH1 0x0 DUP3 DUP3 MSTORE PUSH1 0x20 DUP3 ADD SWAP1 POP SWAP3 SWAP2 POP POP JUMP JUMPDEST PUSH32 0x4F6E6C792061646D696E2063616E20706572666F726D20746869732061637469 PUSH1 0x0 DUP3 ADD MSTORE PUSH32 0x6F6E000000000000000000000000000000000000000000000000000000000000 PUSH1 0x20 DUP3 ADD MSTORE POP JUMP JUMPDEST PUSH1 0x0 PUSH2 0xF5E PUSH1 0x22 DUP4 PUSH2 0xEF1 JUMP JUMPDEST SWAP2 POP PUSH2 0xF69 DUP3 PUSH2 0xF02 JUMP JUMPDEST PUSH1 0x40 DUP3 ADD SWAP1 POP SWAP2 SWAP1 POP JUMP JUMPDEST PUSH1 0x0 PUSH1 0x20 DUP3 ADD SWAP1 POP DUP2 DUP2 SUB PUSH1 0x0 DUP4 ADD MSTORE PUSH2 0xF8D DUP2 PUSH2 0xF51 JUMP JUMPDEST SWAP1 POP SWAP2 SWAP1 POP JUMP JUMPDEST PUSH32 0x43616E646964617465732061726520616C72656164792066696E616C697A6564 PUSH1 0x0 DUP3 ADD MSTORE PUSH32 0x2100000000000000000000000000000000000000000000000000000000000000 PUSH1 0x20 DUP3 ADD MSTORE POP JUMP JUMPDEST PUSH1 0x0 PUSH2 0xFF0 PUSH1 0x21 DUP4 PUSH2 0xEF1 JUMP JUMPDEST SWAP2 POP PUSH2 0xFFB DUP3 PUSH2 0xF94 JUMP JUMPDEST PUSH1 0x40 DUP3 ADD SWAP1 POP SWAP2 SWAP1 POP JUMP JUMPDEST PUSH1 0x0 PUSH1 0x20 DUP3 ADD SWAP1 POP DUP2 DUP2 SUB PUSH1 0x0 DUP4 ADD MSTORE PUSH2 0x101F DUP2 PUSH2 0xFE3 JUMP JUMPDEST SWAP1 POP SWAP2 SWAP1 POP JUMP JUMPDEST PUSH32 0x4E487B7100000000000000000000000000000000000000000000000000000000 PUSH1 0x0 MSTORE PUSH1 0x32 PUSH1 0x4 MSTORE PUSH1 0x24 PUSH1 0x0 REVERT JUMPDEST PUSH1 0x0 DUP2 SWAP1 POP DUP2 PUSH1 0x0 MSTORE PUSH1 0x20 PUSH1 0x0 KECCAK256 SWAP1 POP SWAP2 SWAP1 POP JUMP JUMPDEST PUSH1 0x0 PUSH1 0x20 PUSH1 0x1F DUP4 ADD DIV SWAP1 POP SWAP2 SWAP1 POP JUMP JUMPDEST PUSH1 0x0 DUP3 DUP3 SHL SWAP1 POP SWAP3 SWAP2 POP POP JUMP JUMPDEST PUSH1 0x0 PUSH1 0x8 DUP4 MUL PUSH2 0x10B7 PUSH32 0xFFFFFFFFFFFFFFFFFFFFFFFFFFFFFFFFFFFFFFFFFFFFFFFFFFFFFFFFFFFFFFFF DUP3 PUSH2 0x107A JUMP JUMPDEST PUSH2 0x10C1 DUP7 DUP4 PUSH2 0x107A JUMP JUMPDEST SWAP6 POP DUP1 NOT DUP5 AND SWAP4 POP DUP1 DUP7 AND DUP5 OR SWAP3 POP POP POP SWAP4 SWAP3 POP POP POP JUMP JUMPDEST PUSH1 0x0 DUP2 SWAP1 POP SWAP2 SWAP1 POP JUMP JUMPDEST PUSH1 0x0 DUP2 SWAP1 POP SWAP2 SWAP1 POP JUMP JUMPDEST PUSH1 0x0 PUSH2 0x1108 PUSH2 0x1103 PUSH2 0x10FE DUP5 PUSH2 0x10D9 JUMP JUMPDEST PUSH2 0x10E3 JUMP JUMPDEST PUSH2 0x10D9 JUMP JUMPDEST SWAP1 POP SWAP2 SWAP1 POP JUMP JUMPDEST PUSH1 0x0 DUP2 SWAP1 POP SWAP2 SWAP1 POP JUMP JUMPDEST PUSH2 0x1122 DUP4 PUSH2 0x10ED JUMP JUMPDEST PUSH2 0x1136 PUSH2 0x112E DUP3 PUSH2 0x110F JUMP JUMPDEST DUP5 DUP5 SLOAD PUSH2 0x1087 JUMP JUMPDEST DUP3 SSTORE POP POP POP POP JUMP JUMPDEST PUSH1 0x0 SWAP1 JUMP JUMPDEST PUSH2 0x114B PUSH2 0x113E JUMP JUMPDEST PUSH2 0x1156 DUP2 DUP5 DUP5 PUSH2 0x1119 JUMP JUMPDEST POP POP POP JUMP JUMPDEST JUMPDEST DUP2 DUP2 LT ISZERO PUSH2 0x117A JUMPI PUSH2 0x116F PUSH1 0x0 DUP3 PUSH2 0x1143 JUMP JUMPDEST PUSH1 0x1 DUP2 ADD SWAP1 POP PUSH2 0x115C JUMP JUMPDEST POP POP JUMP JUMPDEST PUSH1 0x1F DUP3 GT ISZERO PUSH2 0x11BF JUMPI PUSH2 0x1190 DUP2 PUSH2 0x1055 JUMP JUMPDEST PUSH2 0x1199 DUP5 PUSH2 0x106A JUMP JUMPDEST DUP2 ADD PUSH1 0x20 DUP6 LT ISZERO PUSH2 0x11A8 JUMPI DUP2 SWAP1 POP JUMPDEST PUSH2 0x11BC PUSH2 0x11B4 DUP6 PUSH2 0x106A JUMP JUMPDEST DUP4 ADD DUP3 PUSH2 0x115B JUMP JUMPDEST POP POP JUMPDEST POP POP POP JUMP JUMPDEST PUSH1 0x0 DUP3 DUP3 SHR SWAP1 POP SWAP3 SWAP2 POP POP JUMP JUMPDEST PUSH1 0x0 PUSH2 0x11E2 PUSH1 0x0 NOT DUP5 PUSH1 0x8 MUL PUSH2 0x11C4 JUMP JUMPDEST NOT DUP1 DUP4 AND SWAP2 POP POP SWAP3 SWAP2 POP POP JUMP JUMPDEST PUSH1 0x0 PUSH2 0x11FB DUP4 DUP4 PUSH2 0x11D1 JUMP JUMPDEST SWAP2 POP DUP3 PUSH1 0x2 MUL DUP3 OR SWAP1 POP SWAP3 SWAP2 POP POP JUMP JUMPDEST PUSH2 0x1214 DUP3 PUSH2 0x9A9 JUMP JUMPDEST PUSH8 0xFFFFFFFFFFFFFFFF DUP2 GT ISZERO PUSH2 0x122D JUMPI PUSH2 0x122C PUSH2 0x809 JUMP JUMPDEST JUMPDEST PUSH2 0x1237 DUP3 SLOAD PUSH2 0xEC0 JUMP JUMPDEST PUSH2 0x1242 DUP3 DUP3 DUP6 PUSH2 0x117E JUMP JUMPDEST PUSH1 0x0 PUSH1 0x20 SWAP1 POP PUSH1 0x1F DUP4 GT PUSH1 0x1 DUP2 EQ PUSH2 0x1275 JUMPI PUSH1 0x0 DUP5 ISZERO PUSH2 0x1263 JUMPI DUP3 DUP8 ADD MLOAD SWAP1 POP JUMPDEST PUSH2 0x126D DUP6 DUP3 PUSH2 0x11EF JUMP JUMPDEST DUP7 SSTORE POP PUSH2 0x12D5 JUMP JUMPDEST PUSH1 0x1F NOT DUP5 AND PUSH2 0x1283 DUP7 PUSH2 0x1055 JUMP JUMPDEST PUSH1 0x0 JUMPDEST DUP3 DUP2 LT ISZERO PUSH2 0x12AB JUMPI DUP5 DUP10 ADD MLOAD DUP3 SSTORE PUSH1 0x1 DUP3 ADD SWAP2 POP PUSH1 0x20 DUP6 ADD SWAP5 POP PUSH1 0x20 DUP2 ADD SWAP1 POP PUSH2 0x1286 JUMP JUMPDEST DUP7 DUP4 LT ISZERO PUSH2 0x12C8 JUMPI DUP5 DUP10 ADD MLOAD PUSH2 0x12C4 PUSH1 0x1F DUP10 AND DUP3 PUSH2 0x11D1 JUMP JUMPDEST DUP4 SSTORE POP JUMPDEST PUSH1 0x1 PUSH1 0x2 DUP9 MUL ADD DUP9 SSTORE POP POP POP JUMPDEST POP POP POP POP POP POP JUMP JUMPDEST PUSH32 0x4E487B7100000000000000000000000000000000000000000000000000000000 PUSH1 0x0 MSTORE PUSH1 0x11 PUSH1 0x4 MSTORE PUSH1 0x24 PUSH1 0x0 REVERT JUMPDEST PUSH1 0x0 PUSH2 0x1317 DUP3 PUSH2 0x10D9 JUMP JUMPDEST SWAP2 POP PUSH32 0xFFFFFFFFFFFFFFFFFFFFFFFFFFFFFFFFFFFFFFFFFFFFFFFFFFFFFFFFFFFFFFFF DUP3 SUB PUSH2 0x1349 JUMPI PUSH2 0x1348 PUSH2 0x12DD JUMP JUMPDEST JUMPDEST PUSH1 0x1 DUP3 ADD SWAP1 POP SWAP2 SWAP1 POP JUMP INVALID LOG2 PUSH5 0x6970667358 0x22 SLT KECCAK256 0xBA MUL DUP4 PUSH31 0x6FC49495895507FB73283D0E60183033FC6A206FE1E4D327BA8826CD64736F PUSH13 0x63430008150033000000000000 "},"methodIdentifiers":{"admin()":"f851a440","getCandidates(string)":"45534763","isFinalized()":"8d4e4083","resetCandidates()":"7718d9f3","submitCandidates(string[],string[][],string[][])":"95dbea06"}}}}}