{"contracts/AdminCandidates.sol":{"AdminCandidates":{"abi":[{"anonymous":false,"inputs":[{"indexed":false,"internalType":"bytes32","name":"candidateId","type":"bytes32"}],"name":"CandidateRegistered","type":"event"},{"anonymous":false,"inputs":[{"indexed":false,"internalType":"bytes32","name":"candidateId","type":"bytes32"},{"indexed":false,"internalType":"uint256","name":"newVoteCount","type":"uint256"}],"name":"VoteCasted","type":"event"},{"inputs":[{"internalType":"uint256","name":"","type":"uint256"}],"name":"candidateList","outputs":[{"internalType":"bytes32","name":"","type":"bytes32"}],"stateMutability":"view","type":"function"},{"inputs":[{"internalType":"bytes32","name":"","type":"bytes32"}],"name":"candidateVotes","outputs":[{"internalType":"uint256","name":"","type":"uint256"}],"stateMutability":"view","type":"function"},{"inputs":[],"name":"getCandidateCount","outputs":[{"internalType":"uint256","name":"","type":"uint256"}],"stateMutability":"view","type":"function"},{"inputs":[],"name":"getCandidateDetails","outputs":[{"internalType":"bytes32[]","name":"","type":"bytes32[]"},{"internalType":"uint256[]","name":"","type":"uint256[]"}],"stateMutability":"view","type":"function"},{"inputs":[{"internalType":"bytes32","name":"","type":"bytes32"}],"name":"isRegistered","outputs":[{"internalType":"bool","name":"","type":"bool"}],"stateMutability":"view","type":"function"},{"inputs":[{"internalType":"bytes32[]","name":"candidateIds","type":"bytes32[]"}],"name":"registerCandidates","outputs":[],"stateMutability":"nonpayable","type":"function"},{"inputs":[{"internalType":"bytes32[]","name":"candidateIds","type":"bytes32[]"}],"name":"voteForCandidates","outputs":[],"stateMutability":"nonpayable","type":"function"}],"evm":{"bytecode":{"linkReferences":{},"object":"608060405234801561001057600080fd5b50610ab0806100206000396000f3fe608060405234801561001057600080fd5b506004361061007d5760003560e01c80635a2608761161005b5780635a26087614610100578063af6cb7551461011f578063b13c744b1461013b578063e17b240a1461016b5761007d565b806327258b22146100825780632f1fdc2a146100b257806330a56347146100e2575b600080fd5b61009c60048036038101906100979190610580565b610187565b6040516100a991906105c8565b60405180910390f35b6100cc60048036038101906100c79190610580565b6101a7565b6040516100d991906105fc565b60405180910390f35b6100ea6101bf565b6040516100f791906105fc565b60405180910390f35b6101086101cc565b604051610116929190610793565b60405180910390f35b6101396004803603810190610134919061082f565b6102f5565b005b610155600480360381019061015091906108a8565b610403565b60405161016291906108e4565b60405180910390f35b6101856004803603810190610180919061082f565b610427565b005b60006020528060005260406000206000915054906101000a900460ff1681565b60016020528060005260406000206000915090505481565b6000600280549050905090565b6060806000600280549050905060008167ffffffffffffffff8111156101f5576101f46108ff565b5b6040519080825280602002602001820160405280156102235781602001602082028036833780820191505090505b50905060005b828110156102955760016000600283815481106102495761024861092e565b5b90600052602060002001548152602001908152602001600020548282815181106102765761027561092e565b5b602002602001018181525050808061028d9061098c565b915050610229565b50600281818054806020026020016040519081016040528092919081815260200182805480156102e457602002820191906000526020600020905b8154815260200190600101908083116102d0575b505050505091509350935050509091565b60005b828290508110156103fe5760008383838181106103185761031761092e565b5b90506020020135905060008082815260200190815260200160002060009054906101000a900460ff166103ea57600160008083815260200190815260200160002060006101000a81548160ff0219169083151502179055506000600160008381526020019081526020016000208190555060028190806001815401808255809150506001900390600052602060002001600090919091909150557ff6a6be64dd96964e37d70b178d6036e4cdbb7959eeab696bf22f270225145db2816040516103e191906108e4565b60405180910390a15b5080806103f69061098c565b9150506102f8565b505050565b6002818154811061041357600080fd5b906000526020600020016000915090505481565b60005b8282905081101561053b57600083838381811061044a5761044961092e565b5b90506020020135905060008082815260200190815260200160002060009054906101000a900460ff166104b2576040517f08c379a00000000000000000000000000000000000000000000000000000000081526004016104a990610a31565b60405180910390fd5b6001600082815260200190815260200160002060008154809291906104d69061098c565b91905055507fbf8e3be76511fbc133be248f8ea28794eaaec7574547d2ce1a374f36a1674aa281600160008481526020019081526020016000205460405161051f929190610a51565b60405180910390a15080806105339061098c565b91505061042a565b505050565b600080fd5b600080fd5b6000819050919050565b61055d8161054a565b811461056857600080fd5b50565b60008135905061057a81610554565b92915050565b60006020828403121561059657610595610540565b5b60006105a48482850161056b565b91505092915050565b60008115159050919050565b6105c2816105ad565b82525050565b60006020820190506105dd60008301846105b9565b92915050565b6000819050919050565b6105f6816105e3565b82525050565b600060208201905061061160008301846105ed565b92915050565b600081519050919050565b600082825260208201905092915050565b6000819050602082019050919050565b61064c8161054a565b82525050565b600061065e8383610643565b60208301905092915050565b6000602082019050919050565b600061068282610617565b61068c8185610622565b935061069783610633565b8060005b838110156106c85781516106af8882610652565b97506106ba8361066a565b92505060018101905061069b565b5085935050505092915050565b600081519050919050565b600082825260208201905092915050565b6000819050602082019050919050565b61070a816105e3565b82525050565b600061071c8383610701565b60208301905092915050565b6000602082019050919050565b6000610740826106d5565b61074a81856106e0565b9350610755836106f1565b8060005b8381101561078657815161076d8882610710565b975061077883610728565b925050600181019050610759565b5085935050505092915050565b600060408201905081810360008301526107ad8185610677565b905081810360208301526107c18184610735565b90509392505050565b600080fd5b600080fd5b600080fd5b60008083601f8401126107ef576107ee6107ca565b5b8235905067ffffffffffffffff81111561080c5761080b6107cf565b5b602083019150836020820283011115610828576108276107d4565b5b9250929050565b6000806020838503121561084657610845610540565b5b600083013567ffffffffffffffff81111561086457610863610545565b5b610870858286016107d9565b92509250509250929050565b610885816105e3565b811461089057600080fd5b50565b6000813590506108a28161087c565b92915050565b6000602082840312156108be576108bd610540565b5b60006108cc84828501610893565b91505092915050565b6108de8161054a565b82525050565b60006020820190506108f960008301846108d5565b92915050565b7f4e487b7100000000000000000000000000000000000000000000000000000000600052604160045260246000fd5b7f4e487b7100000000000000000000000000000000000000000000000000000000600052603260045260246000fd5b7f4e487b7100000000000000000000000000000000000000000000000000000000600052601160045260246000fd5b6000610997826105e3565b91507fffffffffffffffffffffffffffffffffffffffffffffffffffffffffffffffff82036109c9576109c861095d565b5b600182019050919050565b600082825260208201905092915050565b7f43616e646964617465206e6f7420726567697374657265640000000000000000600082015250565b6000610a1b6018836109d4565b9150610a26826109e5565b602082019050919050565b60006020820190508181036000830152610a4a81610a0e565b9050919050565b6000604082019050610a6660008301856108d5565b610a7360208301846105ed565b939250505056fea2646970667358221220c5089c1b89e63276aa830c633400f5068e8c14100285f842785a44ae400ec6b564736f6c63430008150033","opcodes":"PUSH1 0x80 PUSH1 0x40 MSTORE CALLVALUE DUP1 ISZERO PUSH2 0x10 JUMPI PUSH1 0x0 DUP1 REVERT JUMPDEST POP PUSH2 0xAB0 DUP1 PUSH2 0x20 PUSH1 0x0 CODECOPY PUSH1 0x0 RETURN INVALID PUSH1 0x80 PUSH1 0x40 MSTORE CALLVALUE DUP1 ISZERO PUSH2 0x10 JUMPI PUSH1 0x0 DUP1 REVERT JUMPDEST POP PUSH1 0x4 CALLDATASIZE LT PUSH2 0x7D JUMPI PUSH1 0x0 CALLDATALOAD PUSH1 0xE0 SHR DUP1 PUSH4 0x5A260876 GT PUSH2 0x5B JUMPI DUP1 PUSH4 0x5A260876 EQ PUSH2 0x100 JUMPI DUP1 PUSH4 0xAF6CB755 EQ PUSH2 0x11F JUMPI DUP1 PUSH4 0xB13C744B EQ PUSH2 0x13B JUMPI DUP1 PUSH4 0xE17B240A EQ PUSH2 0x16B JUMPI PUSH2 0x7D JUMP JUMPDEST DUP1 PUSH4 0x27258B22 EQ PUSH2 0x82 JUMPI DUP1 PUSH4 0x2F1FDC2A EQ PUSH2 0xB2 JUMPI DUP1 PUSH4 0x30A56347 EQ PUSH2 0xE2 JUMPI JUMPDEST PUSH1 0x0 DUP1 REVERT JUMPDEST PUSH2 0x9C PUSH1 0x4 DUP1 CALLDATASIZE SUB DUP2 ADD SWAP1 PUSH2 0x97 SWAP2 SWAP1 PUSH2 0x580 JUMP JUMPDEST PUSH2 0x187 JUMP JUMPDEST PUSH1 0x40 MLOAD PUSH2 0xA9 SWAP2 SWAP1 PUSH2 0x5C8 JUMP JUMPDEST PUSH1 0x40 MLOAD DUP1 SWAP2 SUB SWAP1 RETURN JUMPDEST PUSH2 0xCC PUSH1 0x4 DUP1 CALLDATASIZE SUB DUP2 ADD SWAP1 PUSH2 0xC7 SWAP2 SWAP1 PUSH2 0x580 JUMP JUMPDEST PUSH2 0x1A7 JUMP JUMPDEST PUSH1 0x40 MLOAD PUSH2 0xD9 SWAP2 SWAP1 PUSH2 0x5FC JUMP JUMPDEST PUSH1 0x40 MLOAD DUP1 SWAP2 SUB SWAP1 RETURN JUMPDEST PUSH2 0xEA PUSH2 0x1BF JUMP JUMPDEST PUSH1 0x40 MLOAD PUSH2 0xF7 SWAP2 SWAP1 PUSH2 0x5FC JUMP JUMPDEST PUSH1 0x40 MLOAD DUP1 SWAP2 SUB SWAP1 RETURN JUMPDEST PUSH2 0x108 PUSH2 0x1CC JUMP JUMPDEST PUSH1 0x40 MLOAD PUSH2 0x116 SWAP3 SWAP2 SWAP1 PUSH2 0x793 JUMP JUMPDEST PUSH1 0x40 MLOAD DUP1 SWAP2 SUB SWAP1 RETURN JUMPDEST PUSH2 0x139 PUSH1 0x4 DUP1 CALLDATASIZE SUB DUP2 ADD SWAP1 PUSH2 0x134 SWAP2 SWAP1 PUSH2 0x82F JUMP JUMPDEST PUSH2 0x2F5 JUMP JUMPDEST STOP JUMPDEST PUSH2 0x155 PUSH1 0x4 DUP1 CALLDATASIZE SUB DUP2 ADD SWAP1 PUSH2 0x150 SWAP2 SWAP1 PUSH2 0x8A8 JUMP JUMPDEST PUSH2 0x403 JUMP JUMPDEST PUSH1 0x40 MLOAD PUSH2 0x162 SWAP2 SWAP1 PUSH2 0x8E4 JUMP JUMPDEST PUSH1 0x40 MLOAD DUP1 SWAP2 SUB SWAP1 RETURN JUMPDEST PUSH2 0x185 PUSH1 0x4 DUP1 CALLDATASIZE SUB DUP2 ADD SWAP1 PUSH2 0x180 SWAP2 SWAP1 PUSH2 0x82F JUMP JUMPDEST PUSH2 0x427 JUMP JUMPDEST STOP JUMPDEST PUSH1 0x0 PUSH1 0x20 MSTORE DUP1 PUSH1 0x0 MSTORE PUSH1 0x40 PUSH1 0x0 KECCAK256 PUSH1 0x0 SWAP2 POP SLOAD SWAP1 PUSH2 0x100 EXP SWAP1 DIV PUSH1 0xFF AND DUP2 JUMP JUMPDEST PUSH1 0x1 PUSH1 0x20 MSTORE DUP1 PUSH1 0x0 MSTORE PUSH1 0x40 PUSH1 0x0 KECCAK256 PUSH1 0x0 SWAP2 POP SWAP1 POP SLOAD DUP2 JUMP JUMPDEST PUSH1 0x0 PUSH1 0x2 DUP1 SLOAD SWAP1 POP SWAP1 POP SWAP1 JUMP JUMPDEST PUSH1 0x60 DUP1 PUSH1 0x0 PUSH1 0x2 DUP1 SLOAD SWAP1 POP SWAP1 POP PUSH1 0x0 DUP2 PUSH8 0xFFFFFFFFFFFFFFFF DUP2 GT ISZERO PUSH2 0x1F5 JUMPI PUSH2 0x1F4 PUSH2 0x8FF JUMP JUMPDEST JUMPDEST PUSH1 0x40 MLOAD SWAP1 DUP1 DUP3 MSTORE DUP1 PUSH1 0x20 MUL PUSH1 0x20 ADD DUP3 ADD PUSH1 0x40 MSTORE DUP1 ISZERO PUSH2 0x223 JUMPI DUP2 PUSH1 0x20 ADD PUSH1 0x20 DUP3 MUL DUP1 CALLDATASIZE DUP4 CALLDATACOPY DUP1 DUP3 ADD SWAP2 POP POP SWAP1 POP JUMPDEST POP SWAP1 POP PUSH1 0x0 JUMPDEST DUP3 DUP2 LT ISZERO PUSH2 0x295 JUMPI PUSH1 0x1 PUSH1 0x0 PUSH1 0x2 DUP4 DUP2 SLOAD DUP2 LT PUSH2 0x249 JUMPI PUSH2 0x248 PUSH2 0x92E JUMP JUMPDEST JUMPDEST SWAP1 PUSH1 0x0 MSTORE PUSH1 0x20 PUSH1 0x0 KECCAK256 ADD SLOAD DUP2 MSTORE PUSH1 0x20 ADD SWAP1 DUP2 MSTORE PUSH1 0x20 ADD PUSH1 0x0 KECCAK256 SLOAD DUP3 DUP3 DUP2 MLOAD DUP2 LT PUSH2 0x276 JUMPI PUSH2 0x275 PUSH2 0x92E JUMP JUMPDEST JUMPDEST PUSH1 0x20 MUL PUSH1 0x20 ADD ADD DUP2 DUP2 MSTORE POP POP DUP1 DUP1 PUSH2 0x28D SWAP1 PUSH2 0x98C JUMP JUMPDEST SWAP2 POP POP PUSH2 0x229 JUMP JUMPDEST POP PUSH1 0x2 DUP2 DUP2 DUP1 SLOAD DUP1 PUSH1 0x20 MUL PUSH1 0x20 ADD PUSH1 0x40 MLOAD SWAP1 DUP2 ADD PUSH1 0x40 MSTORE DUP1 SWAP3 SWAP2 SWAP1 DUP2 DUP2 MSTORE PUSH1 0x20 ADD DUP3 DUP1 SLOAD DUP1 ISZERO PUSH2 0x2E4 JUMPI PUSH1 0x20 MUL DUP3 ADD SWAP2 SWAP1 PUSH1 0x0 MSTORE PUSH1 0x20 PUSH1 0x0 KECCAK256 SWAP1 JUMPDEST DUP2 SLOAD DUP2 MSTORE PUSH1 0x20 ADD SWAP1 PUSH1 0x1 ADD SWAP1 DUP1 DUP4 GT PUSH2 0x2D0 JUMPI JUMPDEST POP POP POP POP POP SWAP2 POP SWAP4 POP SWAP4 POP POP POP SWAP1 SWAP2 JUMP JUMPDEST PUSH1 0x0 JUMPDEST DUP3 DUP3 SWAP1 POP DUP2 LT ISZERO PUSH2 0x3FE JUMPI PUSH1 0x0 DUP4 DUP4 DUP4 DUP2 DUP2 LT PUSH2 0x318 JUMPI PUSH2 0x317 PUSH2 0x92E JUMP JUMPDEST JUMPDEST SWAP1 POP PUSH1 0x20 MUL ADD CALLDATALOAD SWAP1 POP PUSH1 0x0 DUP1 DUP3 DUP2 MSTORE PUSH1 0x20 ADD SWAP1 DUP2 MSTORE PUSH1 0x20 ADD PUSH1 0x0 KECCAK256 PUSH1 0x0 SWAP1 SLOAD SWAP1 PUSH2 0x100 EXP SWAP1 DIV PUSH1 0xFF AND PUSH2 0x3EA JUMPI PUSH1 0x1 PUSH1 0x0 DUP1 DUP4 DUP2 MSTORE PUSH1 0x20 ADD SWAP1 DUP2 MSTORE PUSH1 0x20 ADD PUSH1 0x0 KECCAK256 PUSH1 0x0 PUSH2 0x100 EXP DUP2 SLOAD DUP2 PUSH1 0xFF MUL NOT AND SWAP1 DUP4 ISZERO ISZERO MUL OR SWAP1 SSTORE POP PUSH1 0x0 PUSH1 0x1 PUSH1 0x0 DUP4 DUP2 MSTORE PUSH1 0x20 ADD SWAP1 DUP2 MSTORE PUSH1 0x20 ADD PUSH1 0x0 KECCAK256 DUP2 SWAP1 SSTORE POP PUSH1 0x2 DUP2 SWAP1 DUP1 PUSH1 0x1 DUP2 SLOAD ADD DUP1 DUP3 SSTORE DUP1 SWAP2 POP POP PUSH1 0x1 SWAP1 SUB SWAP1 PUSH1 0x0 MSTORE PUSH1 0x20 PUSH1 0x0 KECCAK256 ADD PUSH1 0x0 SWAP1 SWAP2 SWAP1 SWAP2 SWAP1 SWAP2 POP SSTORE PUSH32 0xF6A6BE64DD96964E37D70B178D6036E4CDBB7959EEAB696BF22F270225145DB2 DUP2 PUSH1 0x40 MLOAD PUSH2 0x3E1 SWAP2 SWAP1 PUSH2 0x8E4 JUMP JUMPDEST PUSH1 0x40 MLOAD DUP1 SWAP2 SUB SWAP1 LOG1 JUMPDEST POP DUP1 DUP1 PUSH2 0x3F6 SWAP1 PUSH2 0x98C JUMP JUMPDEST SWAP2 POP POP PUSH2 0x2F8 JUMP JUMPDEST POP POP POP JUMP JUMPDEST PUSH1 0x2 DUP2 DUP2 SLOAD DUP2 LT PUSH2 0x413 JUMPI PUSH1 0x0 DUP1 REVERT JUMPDEST SWAP1 PUSH1 0x0 MSTORE PUSH1 0x20 PUSH1 0x0 KECCAK256 ADD PUSH1 0x0 SWAP2 POP SWAP1 POP SLOAD DUP2 JUMP JUMPDEST PUSH1 0x0 JUMPDEST DUP3 DUP3 SWAP1 POP DUP2 LT ISZERO PUSH2 0x53B JUMPI PUSH1 0x0 DUP4 DUP4 DUP4 DUP2 DUP2 LT PUSH2 0x44A JUMPI PUSH2 0x449 PUSH2 0x92E JUMP JUMPDEST JUMPDEST SWAP1 POP PUSH1 0x20 MUL ADD CALLDATALOAD SWAP1 POP PUSH1 0x0 DUP1 DUP3 DUP2 MSTORE PUSH1 0x20 ADD SWAP1 DUP2 MSTORE PUSH1 0x20 ADD PUSH1 0x0 KECCAK256 PUSH1 0x0 SWAP1 SLOAD SWAP1 PUSH2 0x100 EXP SWAP1 DIV PUSH1 0xFF AND PUSH2 0x4B2 JUMPI PUSH1 0x40 MLOAD PUSH32 0x8C379A000000000000000000000000000000000000000000000000000000000 DUP2 MSTORE PUSH1 0x4 ADD PUSH2 0x4A9 SWAP1 PUSH2 0xA31 JUMP JUMPDEST PUSH1 0x40 MLOAD DUP1 SWAP2 SUB SWAP1 REVERT JUMPDEST PUSH1 0x1 PUSH1 0x0 DUP3 DUP2 MSTORE PUSH1 0x20 ADD SWAP1 DUP2 MSTORE PUSH1 0x20 ADD PUSH1 0x0 KECCAK256 PUSH1 0x0 DUP2 SLOAD DUP1 SWAP3 SWAP2 SWAP1 PUSH2 0x4D6 SWAP1 PUSH2 0x98C JUMP JUMPDEST SWAP2 SWAP1 POP SSTORE POP PUSH32 0xBF8E3BE76511FBC133BE248F8EA28794EAAEC7574547D2CE1A374F36A1674AA2 DUP2 PUSH1 0x1 PUSH1 0x0 DUP5 DUP2 MSTORE PUSH1 0x20 ADD SWAP1 DUP2 MSTORE PUSH1 0x20 ADD PUSH1 0x0 KECCAK256 SLOAD PUSH1 0x40 MLOAD PUSH2 0x51F SWAP3 SWAP2 SWAP1 PUSH2 0xA51 JUMP JUMPDEST PUSH1 0x40 MLOAD DUP1 SWAP2 SUB SWAP1 LOG1 POP DUP1 DUP1 PUSH2 0x533 SWAP1 PUSH2 0x98C JUMP JUMPDEST SWAP2 POP POP PUSH2 0x42A JUMP JUMPDEST POP POP POP JUMP JUMPDEST PUSH1 0x0 DUP1 REVERT JUMPDEST PUSH1 0x0 DUP1 REVERT JUMPDEST PUSH1 0x0 DUP2 SWAP1 POP SWAP2 SWAP1 POP JUMP JUMPDEST PUSH2 0x55D DUP2 PUSH2 0x54A JUMP JUMPDEST DUP2 EQ PUSH2 0x568 JUMPI PUSH1 0x0 DUP1 REVERT JUMPDEST POP JUMP JUMPDEST PUSH1 0x0 DUP2 CALLDATALOAD SWAP1 POP PUSH2 0x57A DUP2 PUSH2 0x554 JUMP JUMPDEST SWAP3 SWAP2 POP POP JUMP JUMPDEST PUSH1 0x0 PUSH1 0x20 DUP3 DUP5 SUB SLT ISZERO PUSH2 0x596 JUMPI PUSH2 0x595 PUSH2 0x540 JUMP JUMPDEST JUMPDEST PUSH1 0x0 PUSH2 0x5A4 DUP5 DUP3 DUP6 ADD PUSH2 0x56B JUMP JUMPDEST SWAP2 POP POP SWAP3 SWAP2 POP POP JUMP JUMPDEST PUSH1 0x0 DUP2 ISZERO ISZERO SWAP1 POP SWAP2 SWAP1 POP JUMP JUMPDEST PUSH2 0x5C2 DUP2 PUSH2 0x5AD JUMP JUMPDEST DUP3 MSTORE POP POP JUMP JUMPDEST PUSH1 0x0 PUSH1 0x20 DUP3 ADD SWAP1 POP PUSH2 0x5DD PUSH1 0x0 DUP4 ADD DUP5 PUSH2 0x5B9 JUMP JUMPDEST SWAP3 SWAP2 POP POP JUMP JUMPDEST PUSH1 0x0 DUP2 SWAP1 POP SWAP2 SWAP1 POP JUMP JUMPDEST PUSH2 0x5F6 DUP2 PUSH2 0x5E3 JUMP JUMPDEST DUP3 MSTORE POP POP JUMP JUMPDEST PUSH1 0x0 PUSH1 0x20 DUP3 ADD SWAP1 POP PUSH2 0x611 PUSH1 0x0 DUP4 ADD DUP5 PUSH2 0x5ED JUMP JUMPDEST SWAP3 SWAP2 POP POP JUMP JUMPDEST PUSH1 0x0 DUP2 MLOAD SWAP1 POP SWAP2 SWAP1 POP JUMP JUMPDEST PUSH1 0x0 DUP3 DUP3 MSTORE PUSH1 0x20 DUP3 ADD SWAP1 POP SWAP3 SWAP2 POP POP JUMP JUMPDEST PUSH1 0x0 DUP2 SWAP1 POP PUSH1 0x20 DUP3 ADD SWAP1 POP SWAP2 SWAP1 POP JUMP JUMPDEST PUSH2 0x64C DUP2 PUSH2 0x54A JUMP JUMPDEST DUP3 MSTORE POP POP JUMP JUMPDEST PUSH1 0x0 PUSH2 0x65E DUP4 DUP4 PUSH2 0x643 JUMP JUMPDEST PUSH1 0x20 DUP4 ADD SWAP1 POP SWAP3 SWAP2 POP POP JUMP JUMPDEST PUSH1 0x0 PUSH1 0x20 DUP3 ADD SWAP1 POP SWAP2 SWAP1 POP JUMP JUMPDEST PUSH1 0x0 PUSH2 0x682 DUP3 PUSH2 0x617 JUMP JUMPDEST PUSH2 0x68C DUP2 DUP6 PUSH2 0x622 JUMP JUMPDEST SWAP4 POP PUSH2 0x697 DUP4 PUSH2 0x633 JUMP JUMPDEST DUP1 PUSH1 0x0 JUMPDEST DUP4 DUP2 LT ISZERO PUSH2 0x6C8 JUMPI DUP2 MLOAD PUSH2 0x6AF DUP9 DUP3 PUSH2 0x652 JUMP JUMPDEST SWAP8 POP PUSH2 0x6BA DUP4 PUSH2 0x66A JUMP JUMPDEST SWAP3 POP POP PUSH1 0x1 DUP2 ADD SWAP1 POP PUSH2 0x69B JUMP JUMPDEST POP DUP6 SWAP4 POP POP POP POP SWAP3 SWAP2 POP POP JUMP JUMPDEST PUSH1 0x0 DUP2 MLOAD SWAP1 POP SWAP2 SWAP1 POP JUMP JUMPDEST PUSH1 0x0 DUP3 DUP3 MSTORE PUSH1 0x20 DUP3 ADD SWAP1 POP SWAP3 SWAP2 POP POP JUMP JUMPDEST PUSH1 0x0 DUP2 SWAP1 POP PUSH1 0x20 DUP3 ADD SWAP1 POP SWAP2 SWAP1 POP JUMP JUMPDEST PUSH2 0x70A DUP2 PUSH2 0x5E3 JUMP JUMPDEST DUP3 MSTORE POP POP JUMP JUMPDEST PUSH1 0x0 PUSH2 0x71C DUP4 DUP4 PUSH2 0x701 JUMP JUMPDEST PUSH1 0x20 DUP4 ADD SWAP1 POP SWAP3 SWAP2 POP POP JUMP JUMPDEST PUSH1 0x0 PUSH1 0x20 DUP3 ADD SWAP1 POP SWAP2 SWAP1 POP JUMP JUMPDEST PUSH1 0x0 PUSH2 0x740 DUP3 PUSH2 0x6D5 JUMP JUMPDEST PUSH2 0x74A DUP2 DUP6 PUSH2 0x6E0 JUMP JUMPDEST SWAP4 POP PUSH2 0x755 DUP4 PUSH2 0x6F1 JUMP JUMPDEST DUP1 PUSH1 0x0 JUMPDEST DUP4 DUP2 LT ISZERO PUSH2 0x786 JUMPI DUP2 MLOAD PUSH2 0x76D DUP9 DUP3 PUSH2 0x710 JUMP JUMPDEST SWAP8 POP PUSH2 0x778 DUP4 PUSH2 0x728 JUMP JUMPDEST SWAP3 POP POP PUSH1 0x1 DUP2 ADD SWAP1 POP PUSH2 0x759 JUMP JUMPDEST POP DUP6 SWAP4 POP POP POP POP SWAP3 SWAP2 POP POP JUMP JUMPDEST PUSH1 0x0 PUSH1 0x40 DUP3 ADD SWAP1 POP DUP2 DUP2 SUB PUSH1 0x0 DUP4 ADD MSTORE PUSH2 0x7AD DUP2 DUP6 PUSH2 0x677 JUMP JUMPDEST SWAP1 POP DUP2 DUP2 SUB PUSH1 0x20 DUP4 ADD MSTORE PUSH2 0x7C1 DUP2 DUP5 PUSH2 0x735 JUMP JUMPDEST SWAP1 POP SWAP4 SWAP3 POP POP POP JUMP JUMPDEST PUSH1 0x0 DUP1 REVERT JUMPDEST PUSH1 0x0 DUP1 REVERT JUMPDEST PUSH1 0x0 DUP1 REVERT JUMPDEST PUSH1 0x0 DUP1 DUP4 PUSH1 0x1F DUP5 ADD SLT PUSH2 0x7EF JUMPI PUSH2 0x7EE PUSH2 0x7CA JUMP JUMPDEST JUMPDEST DUP3 CALLDATALOAD SWAP1 POP PUSH8 0xFFFFFFFFFFFFFFFF DUP2 GT ISZERO PUSH2 0x80C JUMPI PUSH2 0x80B PUSH2 0x7CF JUMP JUMPDEST JUMPDEST PUSH1 0x20 DUP4 ADD SWAP2 POP DUP4 PUSH1 0x20 DUP3 MUL DUP4 ADD GT ISZERO PUSH2 0x828 JUMPI PUSH2 0x827 PUSH2 0x7D4 JUMP JUMPDEST JUMPDEST SWAP3 POP SWAP3 SWAP1 POP JUMP JUMPDEST PUSH1 0x0 DUP1 PUSH1 0x20 DUP4 DUP6 SUB SLT ISZERO PUSH2 0x846 JUMPI PUSH2 0x845 PUSH2 0x540 JUMP JUMPDEST JUMPDEST PUSH1 0x0 DUP4 ADD CALLDATALOAD PUSH8 0xFFFFFFFFFFFFFFFF DUP2 GT ISZERO PUSH2 0x864 JUMPI PUSH2 0x863 PUSH2 0x545 JUMP JUMPDEST JUMPDEST PUSH2 0x870 DUP6 DUP3 DUP7 ADD PUSH2 0x7D9 JUMP JUMPDEST SWAP3 POP SWAP3 POP POP SWAP3 POP SWAP3 SWAP1 POP JUMP JUMPDEST PUSH2 0x885 DUP2 PUSH2 0x5E3 JUMP JUMPDEST DUP2 EQ PUSH2 0x890 JUMPI PUSH1 0x0 DUP1 REVERT JUMPDEST POP JUMP JUMPDEST PUSH1 0x0 DUP2 CALLDATALOAD SWAP1 POP PUSH2 0x8A2 DUP2 PUSH2 0x87C JUMP JUMPDEST SWAP3 SWAP2 POP POP JUMP JUMPDEST PUSH1 0x0 PUSH1 0x20 DUP3 DUP5 SUB SLT ISZERO PUSH2 0x8BE JUMPI PUSH2 0x8BD PUSH2 0x540 JUMP JUMPDEST JUMPDEST PUSH1 0x0 PUSH2 0x8CC DUP5 DUP3 DUP6 ADD PUSH2 0x893 JUMP JUMPDEST SWAP2 POP POP SWAP3 SWAP2 POP POP JUMP JUMPDEST PUSH2 0x8DE DUP2 PUSH2 0x54A JUMP JUMPDEST DUP3 MSTORE POP POP JUMP JUMPDEST PUSH1 0x0 PUSH1 0x20 DUP3 ADD SWAP1 POP PUSH2 0x8F9 PUSH1 0x0 DUP4 ADD DUP5 PUSH2 0x8D5 JUMP JUMPDEST SWAP3 SWAP2 POP POP JUMP JUMPDEST PUSH32 0x4E487B7100000000000000000000000000000000000000000000000000000000 PUSH1 0x0 MSTORE PUSH1 0x41 PUSH1 0x4 MSTORE PUSH1 0x24 PUSH1 0x0 REVERT JUMPDEST PUSH32 0x4E487B7100000000000000000000000000000000000000000000000000000000 PUSH1 0x0 MSTORE PUSH1 0x32 PUSH1 0x4 MSTORE PUSH1 0x24 PUSH1 0x0 REVERT JUMPDEST PUSH32 0x4E487B7100000000000000000000000000000000000000000000000000000000 PUSH1 0x0 MSTORE PUSH1 0x11 PUSH1 0x4 MSTORE PUSH1 0x24 PUSH1 0x0 REVERT JUMPDEST PUSH1 0x0 PUSH2 0x997 DUP3 PUSH2 0x5E3 JUMP JUMPDEST SWAP2 POP PUSH32 0xFFFFFFFFFFFFFFFFFFFFFFFFFFFFFFFFFFFFFFFFFFFFFFFFFFFFFFFFFFFFFFFF DUP3 SUB PUSH2 0x9C9 JUMPI PUSH2 0x9C8 PUSH2 0x95D JUMP JUMPDEST JUMPDEST PUSH1 0x1 DUP3 ADD SWAP1 POP SWAP2 SWAP1 POP JUMP JUMPDEST PUSH1 0x0 DUP3 DUP3 MSTORE PUSH1 0x20 DUP3 ADD SWAP1 POP SWAP3 SWAP2 POP POP JUMP JUMPDEST PUSH32 0x43616E646964617465206E6F7420726567697374657265640000000000000000 PUSH1 0x0 DUP3 ADD MSTORE POP JUMP JUMPDEST PUSH1 0x0 PUSH2 0xA1B PUSH1 0x18 DUP4 PUSH2 0x9D4 JUMP JUMPDEST SWAP2 POP PUSH2 0xA26 DUP3 PUSH2 0x9E5 JUMP JUMPDEST PUSH1 0x20 DUP3 ADD SWAP1 POP SWAP2 SWAP1 POP JUMP JUMPDEST PUSH1 0x0 PUSH1 0x20 DUP3 ADD SWAP1 POP DUP2 DUP2 SUB PUSH1 0x0 DUP4 ADD MSTORE PUSH2 0xA4A DUP2 PUSH2 0xA0E JUMP JUMPDEST SWAP1 POP SWAP2 SWAP1 POP JUMP JUMPDEST PUSH1 0x0 PUSH1 0x40 DUP3 ADD SWAP1 POP PUSH2 0xA66 PUSH1 0x0 DUP4 ADD DUP6 PUSH2 0x8D5 JUMP JUMPDEST PUSH2 0xA73 PUSH1 0x20 DUP4 ADD DUP5 PUSH2 0x5ED JUMP JUMPDEST SWAP4 SWAP3 POP POP POP JUMP INVALID LOG2 PUSH5 0x6970667358 0x22 SLT KECCAK256 0xC5 ADDMOD SWAP13 SHL DUP10 0xE6 ORIGIN PUSH23 0xAA830C633400F5068E8C14100285F842785A44AE400EC6 0xB5 PUSH5 0x736F6C6343 STOP ADDMOD ISZERO STOP CALLER "},"methodIdentifiers":{"candidateList(uint256)":"b13c744b","candidateVotes(bytes32)":"2f1fdc2a","getCandidateCount()":"30a56347","getCandidateDetails()":"5a260876","isRegistered(bytes32)":"27258b22","registerCandidates(bytes32[])":"af6cb755","voteForCandidates(bytes32[])":"e17b240a"}}}}}