{"contracts/AdminCandidates.sol":{"AdminCandidates":{"abi":[{"inputs":[],"stateMutability":"nonpayable","type":"constructor"},{"anonymous":false,"inputs":[],"name":"CandidatesReset","type":"event"},{"anonymous":false,"inputs":[],"name":"CandidatesSubmitted","type":"event"},{"anonymous":false,"inputs":[{"indexed":false,"internalType":"bytes32","name":"position","type":"bytes32"},{"indexed":false,"internalType":"bytes32","name":"name","type":"bytes32"},{"indexed":false,"internalType":"bytes32","name":"voterHash","type":"bytes32"}],"name":"VoteSubmitted","type":"event"},{"inputs":[],"name":"admin","outputs":[{"internalType":"address","name":"","type":"address"}],"stateMutability":"view","type":"function"},{"inputs":[{"internalType":"bytes32[]","name":"_positions","type":"bytes32[]"},{"internalType":"uint256[]","name":"_indices","type":"uint256[]"},{"internalType":"bytes32","name":"_voterHash","type":"bytes32"}],"name":"batchVote","outputs":[],"stateMutability":"nonpayable","type":"function"},{"inputs":[{"internalType":"bytes32","name":"_position","type":"bytes32"}],"name":"getCandidates","outputs":[{"components":[{"internalType":"bytes32","name":"name","type":"bytes32"},{"internalType":"bytes32","name":"party","type":"bytes32"}],"internalType":"struct AdminCandidates.CandidateEntry[]","name":"","type":"tuple[]"}],"stateMutability":"view","type":"function"},{"inputs":[],"name":"getPositionList","outputs":[{"internalType":"bytes32[]","name":"","type":"bytes32[]"}],"stateMutability":"view","type":"function"},{"inputs":[],"name":"getVoteCounts","outputs":[{"components":[{"internalType":"bytes32","name":"name","type":"bytes32"},{"internalType":"bytes32","name":"party","type":"bytes32"}],"internalType":"struct AdminCandidates.CandidateEntry[]","name":"","type":"tuple[]"},{"internalType":"uint256[]","name":"","type":"uint256[]"}],"stateMutability":"view","type":"function"},{"inputs":[{"internalType":"bytes32","name":"_position","type":"bytes32"},{"internalType":"uint256","name":"_index","type":"uint256"}],"name":"getVoterHashes","outputs":[{"internalType":"bytes32[]","name":"","type":"bytes32[]"}],"stateMutability":"view","type":"function"},{"inputs":[],"name":"getWinners","outputs":[{"components":[{"internalType":"bytes32","name":"position","type":"bytes32"},{"internalType":"bytes32","name":"name","type":"bytes32"},{"internalType":"bytes32","name":"party","type":"bytes32"},{"internalType":"uint256","name":"votes","type":"uint256"}],"internalType":"struct AdminCandidates.Winner[]","name":"","type":"tuple[]"}],"stateMutability":"view","type":"function"},{"inputs":[],"name":"isFinalized","outputs":[{"internalType":"bool","name":"","type":"bool"}],"stateMutability":"view","type":"function"},{"inputs":[],"name":"resetCandidates","outputs":[],"stateMutability":"nonpayable","type":"function"},{"inputs":[{"internalType":"bytes32[]","name":"_positions","type":"bytes32[]"},{"components":[{"internalType":"bytes32","name":"name","type":"bytes32"},{"internalType":"bytes32","name":"party","type":"bytes32"}],"internalType":"struct AdminCandidates.CandidateEntry[][]","name":"_candidates","type":"tuple[][]"}],"name":"submitCandidates","outputs":[],"stateMutability":"nonpayable","type":"function"}],"evm":{"bytecode":{"linkReferences":{},"object":"60806040526000600460146101000a81548160ff02191690831515021790555034801561002b57600080fd5b5033600460006101000a81548173ffffffffffffffffffffffffffffffffffffffff021916908373ffffffffffffffffffffffffffffffffffffffff160217905550611fe08061007c6000396000f3fe608060405234801561001057600080fd5b506004361061009e5760003560e01c8063df15c37e11610066578063df15c37e14610149578063e7d8e8ad14610167578063ebd7d41f14610183578063f851a4401461019f578063ffc97b20146101bd5761009e565b806370918ce3146100a35780637718d9f3146100d357806385b923ca146100dd5780638d4e40831461010d578063a5d3157e1461012b575b600080fd5b6100bd60048036038101906100b8919061116d565b6101dc565b6040516100ca919061126b565b60405180910390f35b6100db610259565b005b6100f760048036038101906100f2919061128d565b6103a6565b6040516101049190611398565b60405180910390f35b6101156104c2565b60405161012291906113d5565b60405180910390f35b6101336104d5565b604051610140919061126b565b60405180910390f35b61015161052d565b60405161015e9190611503565b60405180910390f35b610181600480360381019061017c9190611741565b610708565b005b61019d600480360381019061019891906119c5565b6109ea565b005b6101a7610d7b565b6040516101b49190611a7e565b60405180910390f35b6101c5610da1565b6040516101d3929190611b48565b60405180910390f35b606060016000848152602001908152602001600020600083815260200190815260200160002080548060200260200160405190810160405280929190818152602001828054801561024c57602002820191906000526020600020905b815481526020019060010190808311610238575b5050505050905092915050565b600460009054906101000a900473ffffffffffffffffffffffffffffffffffffffff1673ffffffffffffffffffffffffffffffffffffffff163373ffffffffffffffffffffffffffffffffffffffff16146102e9576040517f08c379a00000000000000000000000000000000000000000000000000000000081526004016102e090611c02565b60405180910390fd5b60005b60038054905081101561034e5760006003828154811061030f5761030e611c22565b5b90600052602060002001549050600080828152602001908152602001600020600061033a919061100b565b50808061034690611c80565b9150506102ec565b506003600061035d919061102f565b6000600460146101000a81548160ff0219169083151502179055507f800bdaa40887ccfd790fdc79f47cf3acbb2a1ecf28b3bccb67e3719009c1bab260405160405180910390a1565b6060600080600084815260200190815260200160002090506000818054905067ffffffffffffffff8111156103de576103dd61153b565b5b60405190808252806020026020018201604052801561041757816020015b610404611050565b8152602001906001900390816103fc5790505b50905060005b82805490508110156104b757604051806040016040528084838154811061044757610446611c22565b5b906000526020600020906003020160000154815260200184838154811061047157610470611c22565b5b90600052602060002090600302016001015481525082828151811061049957610498611c22565b5b602002602001018190525080806104af90611c80565b91505061041d565b508092505050919050565b600460149054906101000a900460ff1681565b6060600380548060200260200160405190810160405280929190818152602001828054801561052357602002820191906000526020600020905b81548152602001906001019080831161050f575b5050505050905090565b60606000600380549050905060008167ffffffffffffffff8111156105555761055461153b565b5b60405190808252806020026020018201604052801561058e57816020015b61057b611070565b8152602001906001900390816105735790505b50905060005b828110156106ff576000600382815481106105b2576105b1611c22565b5b90600052602060002001549050600080600083815260200190815260200160002090506000806000805b848054905081101561065f5781158061061857508385828154811061060457610603611c22565b5b906000526020600020906003020160020154115b1561064c578481815481106106305761062f611c22565b5b9060005260206000209060030201600201549350809250600191505b808061065790611c80565b9150506105dc565b50604051806080016040528086815260200185848154811061068457610683611c22565b5b90600052602060002090600302016000015481526020018584815481106106ae576106ad611c22565b5b9060005260206000209060030201600101548152602001848152508787815181106106dc576106db611c22565b5b6020026020010181905250505050505080806106f790611c80565b915050610594565b50809250505090565b600460149054906101000a900460ff16610757576040517f08c379a000000000000000000000000000000000000000000000000000000000815260040161074e90611d3a565b60405180910390fd5b815183511461079b576040517f08c379a000000000000000000000000000000000000000000000000000000000815260040161079290611da6565b60405180910390fd5b6002600082815260200190815260200160002060009054906101000a900460ff16156107fc576040517f08c379a00000000000000000000000000000000000000000000000000000000081526004016107f390611e12565b60405180910390fd5b60016002600083815260200190815260200160002060006101000a81548160ff02191690831515021790555060005b83518110156109e457600084828151811061084957610848611c22565b5b60200260200101519050600084838151811061086857610867611c22565b5b602002602001015190506000808381526020019081526020016000208054905081106108c9576040517f08c379a00000000000000000000000000000000000000000000000000000000081526004016108c090611e7e565b60405180910390fd5b60008083815260200190815260200160002081815481106108ed576108ec611c22565b5b9060005260206000209060030201600201600081548092919061090f90611c80565b91905055506001600083815260200190815260200160002060008281526020019081526020016000208490806001815401808255809150506001900390600052602060002001600090919091909150557f178e76faa844f1c429cbe43bb805a70530f990ef2acc87f8f626ac80ff4849098260008085815260200190815260200160002083815481106109a5576109a4611c22565b5b906000526020600020906003020160000154866040516109c793929190611ead565b60405180910390a1505080806109dc90611c80565b91505061082b565b50505050565b600460009054906101000a900473ffffffffffffffffffffffffffffffffffffffff1673ffffffffffffffffffffffffffffffffffffffff163373ffffffffffffffffffffffffffffffffffffffff1614610a7a576040517f08c379a0000000000000000000000000000000000000000000000000000000008152600401610a7190611c02565b60405180910390fd5b600460149054906101000a900460ff1615610aca576040517f08c379a0000000000000000000000000000000000000000000000000000000008152600401610ac190611f56565b60405180910390fd5b60036000610ad8919061102f565b60005b8251811015610d2f576000806000858481518110610afc57610afb611c22565b5b602002602001015181526020019081526020016000208054905003610b5f576003838281518110610b3057610b2f611c22565b5b602002602001015190806001815401808255809150506001900390600052602060002001600090919091909150555b600080848381518110610b7557610b74611c22565b5b602002602001015181526020019081526020016000206000610b97919061100b565b60005b828281518110610bad57610bac611c22565b5b602002602001015151811015610d1b57600080858481518110610bd357610bd2611c22565b5b602002602001015181526020019081526020016000206040518060600160405280858581518110610c0757610c06611c22565b5b60200260200101518481518110610c2157610c20611c22565b5b6020026020010151600001518152602001858581518110610c4557610c44611c22565b5b60200260200101518481518110610c5f57610c5e611c22565b5b602002602001015160200151815260200160008152509080600181540180825580915050600190039060005260206000209060030201600090919091909150600082015181600001556020820151816001015560408201518160020155505060016000858481518110610cd557610cd4611c22565b5b6020026020010151815260200190815260200160002060008281526020019081526020016000206000610d08919061102f565b8080610d1390611c80565b915050610b9a565b508080610d2790611c80565b915050610adb565b506001600460146101000a81548160ff0219169083151502179055507f86825b43264ca968e676c45c8e05cc56965ff5938ed49dcf636c61acb7070bd760405160405180910390a15050565b600460009054906101000a900473ffffffffffffffffffffffffffffffffffffffff1681565b606080600080600090505b600380549050811015610e0d5760008060038381548110610dd057610dcf611c22565b5b906000526020600020015481526020019081526020016000208054905082610df89190611f76565b91508080610e0590611c80565b915050610dac565b5060008167ffffffffffffffff811115610e2a57610e2961153b565b5b604051908082528060200260200182016040528015610e6357816020015b610e50611050565b815260200190600190039081610e485790505b50905060008267ffffffffffffffff811115610e8257610e8161153b565b5b604051908082528060200260200182016040528015610eb05781602001602082028036833780820191505090505b5090506000805b600380549050811015610ffc57600080600060038481548110610edd57610edc611c22565b5b90600052602060002001548152602001908152602001600020905060005b8180549050811015610fe7576040518060400160405280838381548110610f2557610f24611c22565b5b9060005260206000209060030201600001548152602001838381548110610f4f57610f4e611c22565b5b906000526020600020906003020160010154815250868581518110610f7757610f76611c22565b5b6020026020010181905250818181548110610f9557610f94611c22565b5b906000526020600020906003020160020154858581518110610fba57610fb9611c22565b5b6020026020010181815250508380610fd190611c80565b9450508080610fdf90611c80565b915050610efb565b50508080610ff490611c80565b915050610eb7565b50828295509550505050509091565b508054600082556003029060005260206000209081019061102c91906110a1565b50565b508054600082559060005260206000209081019061104d91906110d0565b50565b604051806040016040528060008019168152602001600080191681525090565b6040518060800160405280600080191681526020016000801916815260200160008019168152602001600081525090565b5b808211156110cc5760008082016000905560018201600090556002820160009055506003016110a2565b5090565b5b808211156110e95760008160009055506001016110d1565b5090565b6000604051905090565b600080fd5b600080fd5b6000819050919050565b61111481611101565b811461111f57600080fd5b50565b6000813590506111318161110b565b92915050565b6000819050919050565b61114a81611137565b811461115557600080fd5b50565b60008135905061116781611141565b92915050565b60008060408385031215611184576111836110f7565b5b600061119285828601611122565b92505060206111a385828601611158565b9150509250929050565b600081519050919050565b600082825260208201905092915050565b6000819050602082019050919050565b6111e281611101565b82525050565b60006111f483836111d9565b60208301905092915050565b6000602082019050919050565b6000611218826111ad565b61122281856111b8565b935061122d836111c9565b8060005b8381101561125e57815161124588826111e8565b975061125083611200565b925050600181019050611231565b5085935050505092915050565b60006020820190508181036000830152611285818461120d565b905092915050565b6000602082840312156112a3576112a26110f7565b5b60006112b184828501611122565b91505092915050565b600081519050919050565b600082825260208201905092915050565b6000819050602082019050919050565b6040820160008201516112fc60008501826111d9565b50602082015161130f60208501826111d9565b50505050565b600061132183836112e6565b60408301905092915050565b6000602082019050919050565b6000611345826112ba565b61134f81856112c5565b935061135a836112d6565b8060005b8381101561138b5781516113728882611315565b975061137d8361132d565b92505060018101905061135e565b5085935050505092915050565b600060208201905081810360008301526113b2818461133a565b905092915050565b60008115159050919050565b6113cf816113ba565b82525050565b60006020820190506113ea60008301846113c6565b92915050565b600081519050919050565b600082825260208201905092915050565b6000819050602082019050919050565b61142581611137565b82525050565b60808201600082015161144160008501826111d9565b50602082015161145460208501826111d9565b50604082015161146760408501826111d9565b50606082015161147a606085018261141c565b50505050565b600061148c838361142b565b60808301905092915050565b6000602082019050919050565b60006114b0826113f0565b6114ba81856113fb565b93506114c58361140c565b8060005b838110156114f65781516114dd8882611480565b97506114e883611498565b9250506001810190506114c9565b5085935050505092915050565b6000602082019050818103600083015261151d81846114a5565b905092915050565b600080fd5b6000601f19601f8301169050919050565b7f4e487b7100000000000000000000000000000000000000000000000000000000600052604160045260246000fd5b6115738261152a565b810181811067ffffffffffffffff821117156115925761159161153b565b5b80604052505050565b60006115a56110ed565b90506115b1828261156a565b919050565b600067ffffffffffffffff8211156115d1576115d061153b565b5b602082029050602081019050919050565b600080fd5b60006115fa6115f5846115b6565b61159b565b9050808382526020820190506020840283018581111561161d5761161c6115e2565b5b835b8181101561164657806116328882611122565b84526020840193505060208101905061161f565b5050509392505050565b600082601f83011261166557611664611525565b5b81356116758482602086016115e7565b91505092915050565b600067ffffffffffffffff8211156116995761169861153b565b5b602082029050602081019050919050565b60006116bd6116b88461167e565b61159b565b905080838252602082019050602084028301858111156116e0576116df6115e2565b5b835b8181101561170957806116f58882611158565b8452602084019350506020810190506116e2565b5050509392505050565b600082601f83011261172857611727611525565b5b81356117388482602086016116aa565b91505092915050565b60008060006060848603121561175a576117596110f7565b5b600084013567ffffffffffffffff811115611778576117776110fc565b5b61178486828701611650565b935050602084013567ffffffffffffffff8111156117a5576117a46110fc565b5b6117b186828701611713565b92505060406117c286828701611122565b9150509250925092565b600067ffffffffffffffff8211156117e7576117e661153b565b5b602082029050602081019050919050565b600067ffffffffffffffff8211156118135761181261153b565b5b602082029050602081019050919050565b600080fd5b60006040828403121561183f5761183e611824565b5b611849604061159b565b9050600061185984828501611122565b600083015250602061186d84828501611122565b60208301525092915050565b600061188c611887846117f8565b61159b565b905080838252602082019050604084028301858111156118af576118ae6115e2565b5b835b818110156118d857806118c48882611829565b8452602084019350506040810190506118b1565b5050509392505050565b600082601f8301126118f7576118f6611525565b5b8135611907848260208601611879565b91505092915050565b600061192361191e846117cc565b61159b565b90508083825260208201905060208402830185811115611946576119456115e2565b5b835b8181101561198d57803567ffffffffffffffff81111561196b5761196a611525565b5b80860161197889826118e2565b85526020850194505050602081019050611948565b5050509392505050565b600082601f8301126119ac576119ab611525565b5b81356119bc848260208601611910565b91505092915050565b600080604083850312156119dc576119db6110f7565b5b600083013567ffffffffffffffff8111156119fa576119f96110fc565b5b611a0685828601611650565b925050602083013567ffffffffffffffff811115611a2757611a266110fc565b5b611a3385828601611997565b9150509250929050565b600073ffffffffffffffffffffffffffffffffffffffff82169050919050565b6000611a6882611a3d565b9050919050565b611a7881611a5d565b82525050565b6000602082019050611a936000830184611a6f565b92915050565b600081519050919050565b600082825260208201905092915050565b6000819050602082019050919050565b6000611ad1838361141c565b60208301905092915050565b6000602082019050919050565b6000611af582611a99565b611aff8185611aa4565b9350611b0a83611ab5565b8060005b83811015611b3b578151611b228882611ac5565b9750611b2d83611add565b925050600181019050611b0e565b5085935050505092915050565b60006040820190508181036000830152611b62818561133a565b90508181036020830152611b768184611aea565b90509392505050565b600082825260208201905092915050565b7f4f6e6c792061646d696e2063616e20706572666f726d2074686973206163746960008201527f6f6e000000000000000000000000000000000000000000000000000000000000602082015250565b6000611bec602283611b7f565b9150611bf782611b90565b604082019050919050565b60006020820190508181036000830152611c1b81611bdf565b9050919050565b7f4e487b7100000000000000000000000000000000000000000000000000000000600052603260045260246000fd5b7f4e487b7100000000000000000000000000000000000000000000000000000000600052601160045260246000fd5b6000611c8b82611137565b91507fffffffffffffffffffffffffffffffffffffffffffffffffffffffffffffffff8203611cbd57611cbc611c51565b5b600182019050919050565b7f566f74696e672063616e6e6f7420737461727420756e74696c2063616e64696460008201527f61746573206172652066696e616c697a65642100000000000000000000000000602082015250565b6000611d24603383611b7f565b9150611d2f82611cc8565b604082019050919050565b60006020820190508181036000830152611d5381611d17565b9050919050565b7f4d69736d61746368656420696e707574206c656e677468730000000000000000600082015250565b6000611d90601883611b7f565b9150611d9b82611d5a565b602082019050919050565b60006020820190508181036000830152611dbf81611d83565b9050919050565b7f566f7465722068617320616c726561647920766f746564000000000000000000600082015250565b6000611dfc601783611b7f565b9150611e0782611dc6565b602082019050919050565b60006020820190508181036000830152611e2b81611def565b9050919050565b7f496e76616c69642063616e64696461746520696e646578000000000000000000600082015250565b6000611e68601783611b7f565b9150611e7382611e32565b602082019050919050565b60006020820190508181036000830152611e9781611e5b565b9050919050565b611ea781611101565b82525050565b6000606082019050611ec26000830186611e9e565b611ecf6020830185611e9e565b611edc6040830184611e9e565b949350505050565b7f43616e646964617465732061726520616c72656164792066696e616c697a656460008201527f2100000000000000000000000000000000000000000000000000000000000000602082015250565b6000611f40602183611b7f565b9150611f4b82611ee4565b604082019050919050565b60006020820190508181036000830152611f6f81611f33565b9050919050565b6000611f8182611137565b9150611f8c83611137565b9250828201905080821115611fa457611fa3611c51565b5b9291505056fea26469706673582212204ccec065f7248dcfcf44c8753b388fe109e1bf25e037e718c533f747b286af6e64736f6c63430008150033","opcodes":"PUSH1 0x80 PUSH1 0x40 MSTORE PUSH1 0x0 PUSH1 0x4 PUSH1 0x14 PUSH2 0x100 EXP DUP2 SLOAD DUP2 PUSH1 0xFF MUL NOT AND SWAP1 DUP4 ISZERO ISZERO MUL OR SWAP1 SSTORE POP CALLVALUE DUP1 ISZERO PUSH2 0x2B JUMPI PUSH1 0x0 DUP1 REVERT JUMPDEST POP CALLER PUSH1 0x4 PUSH1 0x0 PUSH2 0x100 EXP DUP2 SLOAD DUP2 PUSH20 0xFFFFFFFFFFFFFFFFFFFFFFFFFFFFFFFFFFFFFFFF MUL NOT AND SWAP1 DUP4 PUSH20 0xFFFFFFFFFFFFFFFFFFFFFFFFFFFFFFFFFFFFFFFF AND MUL OR SWAP1 SSTORE POP PUSH2 0x1FE0 DUP1 PUSH2 0x7C PUSH1 0x0 CODECOPY PUSH1 0x0 RETURN INVALID PUSH1 0x80 PUSH1 0x40 MSTORE CALLVALUE DUP1 ISZERO PUSH2 0x10 JUMPI PUSH1 0x0 DUP1 REVERT JUMPDEST POP PUSH1 0x4 CALLDATASIZE LT PUSH2 0x9E JUMPI PUSH1 0x0 CALLDATALOAD PUSH1 0xE0 SHR DUP1 PUSH4 0xDF15C37E GT PUSH2 0x66 JUMPI DUP1 PUSH4 0xDF15C37E EQ PUSH2 0x149 JUMPI DUP1 PUSH4 0xE7D8E8AD EQ PUSH2 0x167 JUMPI DUP1 PUSH4 0xEBD7D41F EQ PUSH2 0x183 JUMPI DUP1 PUSH4 0xF851A440 EQ PUSH2 0x19F JUMPI DUP1 PUSH4 0xFFC97B20 EQ PUSH2 0x1BD JUMPI PUSH2 0x9E JUMP JUMPDEST DUP1 PUSH4 0x70918CE3 EQ PUSH2 0xA3 JUMPI DUP1 PUSH4 0x7718D9F3 EQ PUSH2 0xD3 JUMPI DUP1 PUSH4 0x85B923CA EQ PUSH2 0xDD JUMPI DUP1 PUSH4 0x8D4E4083 EQ PUSH2 0x10D JUMPI DUP1 PUSH4 0xA5D3157E EQ PUSH2 0x12B JUMPI JUMPDEST PUSH1 0x0 DUP1 REVERT JUMPDEST PUSH2 0xBD PUSH1 0x4 DUP1 CALLDATASIZE SUB DUP2 ADD SWAP1 PUSH2 0xB8 SWAP2 SWAP1 PUSH2 0x116D JUMP JUMPDEST PUSH2 0x1DC JUMP JUMPDEST PUSH1 0x40 MLOAD PUSH2 0xCA SWAP2 SWAP1 PUSH2 0x126B JUMP JUMPDEST PUSH1 0x40 MLOAD DUP1 SWAP2 SUB SWAP1 RETURN JUMPDEST PUSH2 0xDB PUSH2 0x259 JUMP JUMPDEST STOP JUMPDEST PUSH2 0xF7 PUSH1 0x4 DUP1 CALLDATASIZE SUB DUP2 ADD SWAP1 PUSH2 0xF2 SWAP2 SWAP1 PUSH2 0x128D JUMP JUMPDEST PUSH2 0x3A6 JUMP JUMPDEST PUSH1 0x40 MLOAD PUSH2 0x104 SWAP2 SWAP1 PUSH2 0x1398 JUMP JUMPDEST PUSH1 0x40 MLOAD DUP1 SWAP2 SUB SWAP1 RETURN JUMPDEST PUSH2 0x115 PUSH2 0x4C2 JUMP JUMPDEST PUSH1 0x40 MLOAD PUSH2 0x122 SWAP2 SWAP1 PUSH2 0x13D5 JUMP JUMPDEST PUSH1 0x40 MLOAD DUP1 SWAP2 SUB SWAP1 RETURN JUMPDEST PUSH2 0x133 PUSH2 0x4D5 JUMP JUMPDEST PUSH1 0x40 MLOAD PUSH2 0x140 SWAP2 SWAP1 PUSH2 0x126B JUMP JUMPDEST PUSH1 0x40 MLOAD DUP1 SWAP2 SUB SWAP1 RETURN JUMPDEST PUSH2 0x151 PUSH2 0x52D JUMP JUMPDEST PUSH1 0x40 MLOAD PUSH2 0x15E SWAP2 SWAP1 PUSH2 0x1503 JUMP JUMPDEST PUSH1 0x40 MLOAD DUP1 SWAP2 SUB SWAP1 RETURN JUMPDEST PUSH2 0x181 PUSH1 0x4 DUP1 CALLDATASIZE SUB DUP2 ADD SWAP1 PUSH2 0x17C SWAP2 SWAP1 PUSH2 0x1741 JUMP JUMPDEST PUSH2 0x708 JUMP JUMPDEST STOP JUMPDEST PUSH2 0x19D PUSH1 0x4 DUP1 CALLDATASIZE SUB DUP2 ADD SWAP1 PUSH2 0x198 SWAP2 SWAP1 PUSH2 0x19C5 JUMP JUMPDEST PUSH2 0x9EA JUMP JUMPDEST STOP JUMPDEST PUSH2 0x1A7 PUSH2 0xD7B JUMP JUMPDEST PUSH1 0x40 MLOAD PUSH2 0x1B4 SWAP2 SWAP1 PUSH2 0x1A7E JUMP JUMPDEST PUSH1 0x40 MLOAD DUP1 SWAP2 SUB SWAP1 RETURN JUMPDEST PUSH2 0x1C5 PUSH2 0xDA1 JUMP JUMPDEST PUSH1 0x40 MLOAD PUSH2 0x1D3 SWAP3 SWAP2 SWAP1 PUSH2 0x1B48 JUMP JUMPDEST PUSH1 0x40 MLOAD DUP1 SWAP2 SUB SWAP1 RETURN JUMPDEST PUSH1 0x60 PUSH1 0x1 PUSH1 0x0 DUP5 DUP2 MSTORE PUSH1 0x20 ADD SWAP1 DUP2 MSTORE PUSH1 0x20 ADD PUSH1 0x0 KECCAK256 PUSH1 0x0 DUP4 DUP2 MSTORE PUSH1 0x20 ADD SWAP1 DUP2 MSTORE PUSH1 0x20 ADD PUSH1 0x0 KECCAK256 DUP1 SLOAD DUP1 PUSH1 0x20 MUL PUSH1 0x20 ADD PUSH1 0x40 MLOAD SWAP1 DUP2 ADD PUSH1 0x40 MSTORE DUP1 SWAP3 SWAP2 SWAP1 DUP2 DUP2 MSTORE PUSH1 0x20 ADD DUP3 DUP1 SLOAD DUP1 ISZERO PUSH2 0x24C JUMPI PUSH1 0x20 MUL DUP3 ADD SWAP2 SWAP1 PUSH1 0x0 MSTORE PUSH1 0x20 PUSH1 0x0 KECCAK256 SWAP1 JUMPDEST DUP2 SLOAD DUP2 MSTORE PUSH1 0x20 ADD SWAP1 PUSH1 0x1 ADD SWAP1 DUP1 DUP4 GT PUSH2 0x238 JUMPI JUMPDEST POP POP POP POP POP SWAP1 POP SWAP3 SWAP2 POP POP JUMP JUMPDEST PUSH1 0x4 PUSH1 0x0 SWAP1 SLOAD SWAP1 PUSH2 0x100 EXP SWAP1 DIV PUSH20 0xFFFFFFFFFFFFFFFFFFFFFFFFFFFFFFFFFFFFFFFF AND PUSH20 0xFFFFFFFFFFFFFFFFFFFFFFFFFFFFFFFFFFFFFFFF AND CALLER PUSH20 0xFFFFFFFFFFFFFFFFFFFFFFFFFFFFFFFFFFFFFFFF AND EQ PUSH2 0x2E9 JUMPI PUSH1 0x40 MLOAD PUSH32 0x8C379A000000000000000000000000000000000000000000000000000000000 DUP2 MSTORE PUSH1 0x4 ADD PUSH2 0x2E0 SWAP1 PUSH2 0x1C02 JUMP JUMPDEST PUSH1 0x40 MLOAD DUP1 SWAP2 SUB SWAP1 REVERT JUMPDEST PUSH1 0x0 JUMPDEST PUSH1 0x3 DUP1 SLOAD SWAP1 POP DUP2 LT ISZERO PUSH2 0x34E JUMPI PUSH1 0x0 PUSH1 0x3 DUP3 DUP2 SLOAD DUP2 LT PUSH2 0x30F JUMPI PUSH2 0x30E PUSH2 0x1C22 JUMP JUMPDEST JUMPDEST SWAP1 PUSH1 0x0 MSTORE PUSH1 0x20 PUSH1 0x0 KECCAK256 ADD SLOAD SWAP1 POP PUSH1 0x0 DUP1 DUP3 DUP2 MSTORE PUSH1 0x20 ADD SWAP1 DUP2 MSTORE PUSH1 0x20 ADD PUSH1 0x0 KECCAK256 PUSH1 0x0 PUSH2 0x33A SWAP2 SWAP1 PUSH2 0x100B JUMP JUMPDEST POP DUP1 DUP1 PUSH2 0x346 SWAP1 PUSH2 0x1C80 JUMP JUMPDEST SWAP2 POP POP PUSH2 0x2EC JUMP JUMPDEST POP PUSH1 0x3 PUSH1 0x0 PUSH2 0x35D SWAP2 SWAP1 PUSH2 0x102F JUMP JUMPDEST PUSH1 0x0 PUSH1 0x4 PUSH1 0x14 PUSH2 0x100 EXP DUP2 SLOAD DUP2 PUSH1 0xFF MUL NOT AND SWAP1 DUP4 ISZERO ISZERO MUL OR SWAP1 SSTORE POP PUSH32 0x800BDAA40887CCFD790FDC79F47CF3ACBB2A1ECF28B3BCCB67E3719009C1BAB2 PUSH1 0x40 MLOAD PUSH1 0x40 MLOAD DUP1 SWAP2 SUB SWAP1 LOG1 JUMP JUMPDEST PUSH1 0x60 PUSH1 0x0 DUP1 PUSH1 0x0 DUP5 DUP2 MSTORE PUSH1 0x20 ADD SWAP1 DUP2 MSTORE PUSH1 0x20 ADD PUSH1 0x0 KECCAK256 SWAP1 POP PUSH1 0x0 DUP2 DUP1 SLOAD SWAP1 POP PUSH8 0xFFFFFFFFFFFFFFFF DUP2 GT ISZERO PUSH2 0x3DE JUMPI PUSH2 0x3DD PUSH2 0x153B JUMP JUMPDEST JUMPDEST PUSH1 0x40 MLOAD SWAP1 DUP1 DUP3 MSTORE DUP1 PUSH1 0x20 MUL PUSH1 0x20 ADD DUP3 ADD PUSH1 0x40 MSTORE DUP1 ISZERO PUSH2 0x417 JUMPI DUP2 PUSH1 0x20 ADD JUMPDEST PUSH2 0x404 PUSH2 0x1050 JUMP JUMPDEST DUP2 MSTORE PUSH1 0x20 ADD SWAP1 PUSH1 0x1 SWAP1 SUB SWAP1 DUP2 PUSH2 0x3FC JUMPI SWAP1 POP JUMPDEST POP SWAP1 POP PUSH1 0x0 JUMPDEST DUP3 DUP1 SLOAD SWAP1 POP DUP2 LT ISZERO PUSH2 0x4B7 JUMPI PUSH1 0x40 MLOAD DUP1 PUSH1 0x40 ADD PUSH1 0x40 MSTORE DUP1 DUP5 DUP4 DUP2 SLOAD DUP2 LT PUSH2 0x447 JUMPI PUSH2 0x446 PUSH2 0x1C22 JUMP JUMPDEST JUMPDEST SWAP1 PUSH1 0x0 MSTORE PUSH1 0x20 PUSH1 0x0 KECCAK256 SWAP1 PUSH1 0x3 MUL ADD PUSH1 0x0 ADD SLOAD DUP2 MSTORE PUSH1 0x20 ADD DUP5 DUP4 DUP2 SLOAD DUP2 LT PUSH2 0x471 JUMPI PUSH2 0x470 PUSH2 0x1C22 JUMP JUMPDEST JUMPDEST SWAP1 PUSH1 0x0 MSTORE PUSH1 0x20 PUSH1 0x0 KECCAK256 SWAP1 PUSH1 0x3 MUL ADD PUSH1 0x1 ADD SLOAD DUP2 MSTORE POP DUP3 DUP3 DUP2 MLOAD DUP2 LT PUSH2 0x499 JUMPI PUSH2 0x498 PUSH2 0x1C22 JUMP JUMPDEST JUMPDEST PUSH1 0x20 MUL PUSH1 0x20 ADD ADD DUP2 SWAP1 MSTORE POP DUP1 DUP1 PUSH2 0x4AF SWAP1 PUSH2 0x1C80 JUMP JUMPDEST SWAP2 POP POP PUSH2 0x41D JUMP JUMPDEST POP DUP1 SWAP3 POP POP POP SWAP2 SWAP1 POP JUMP JUMPDEST PUSH1 0x4 PUSH1 0x14 SWAP1 SLOAD SWAP1 PUSH2 0x100 EXP SWAP1 DIV PUSH1 0xFF AND DUP2 JUMP JUMPDEST PUSH1 0x60 PUSH1 0x3 DUP1 SLOAD DUP1 PUSH1 0x20 MUL PUSH1 0x20 ADD PUSH1 0x40 MLOAD SWAP1 DUP2 ADD PUSH1 0x40 MSTORE DUP1 SWAP3 SWAP2 SWAP1 DUP2 DUP2 MSTORE PUSH1 0x20 ADD DUP3 DUP1 SLOAD DUP1 ISZERO PUSH2 0x523 JUMPI PUSH1 0x20 MUL DUP3 ADD SWAP2 SWAP1 PUSH1 0x0 MSTORE PUSH1 0x20 PUSH1 0x0 KECCAK256 SWAP1 JUMPDEST DUP2 SLOAD DUP2 MSTORE PUSH1 0x20 ADD SWAP1 PUSH1 0x1 ADD SWAP1 DUP1 DUP4 GT PUSH2 0x50F JUMPI JUMPDEST POP POP POP POP POP SWAP1 POP SWAP1 JUMP JUMPDEST PUSH1 0x60 PUSH1 0x0 PUSH1 0x3 DUP1 SLOAD SWAP1 POP SWAP1 POP PUSH1 0x0 DUP2 PUSH8 0xFFFFFFFFFFFFFFFF DUP2 GT ISZERO PUSH2 0x555 JUMPI PUSH2 0x554 PUSH2 0x153B JUMP JUMPDEST JUMPDEST PUSH1 0x40 MLOAD SWAP1 DUP1 DUP3 MSTORE DUP1 PUSH1 0x20 MUL PUSH1 0x20 ADD DUP3 ADD PUSH1 0x40 MSTORE DUP1 ISZERO PUSH2 0x58E JUMPI DUP2 PUSH1 0x20 ADD JUMPDEST PUSH2 0x57B PUSH2 0x1070 JUMP JUMPDEST DUP2 MSTORE PUSH1 0x20 ADD SWAP1 PUSH1 0x1 SWAP1 SUB SWAP1 DUP2 PUSH2 0x573 JUMPI SWAP1 POP JUMPDEST POP SWAP1 POP PUSH1 0x0 JUMPDEST DUP3 DUP2 LT ISZERO PUSH2 0x6FF JUMPI PUSH1 0x0 PUSH1 0x3 DUP3 DUP2 SLOAD DUP2 LT PUSH2 0x5B2 JUMPI PUSH2 0x5B1 PUSH2 0x1C22 JUMP JUMPDEST JUMPDEST SWAP1 PUSH1 0x0 MSTORE PUSH1 0x20 PUSH1 0x0 KECCAK256 ADD SLOAD SWAP1 POP PUSH1 0x0 DUP1 PUSH1 0x0 DUP4 DUP2 MSTORE PUSH1 0x20 ADD SWAP1 DUP2 MSTORE PUSH1 0x20 ADD PUSH1 0x0 KECCAK256 SWAP1 POP PUSH1 0x0 DUP1 PUSH1 0x0 DUP1 JUMPDEST DUP5 DUP1 SLOAD SWAP1 POP DUP2 LT ISZERO PUSH2 0x65F JUMPI DUP2 ISZERO DUP1 PUSH2 0x618 JUMPI POP DUP4 DUP6 DUP3 DUP2 SLOAD DUP2 LT PUSH2 0x604 JUMPI PUSH2 0x603 PUSH2 0x1C22 JUMP JUMPDEST JUMPDEST SWAP1 PUSH1 0x0 MSTORE PUSH1 0x20 PUSH1 0x0 KECCAK256 SWAP1 PUSH1 0x3 MUL ADD PUSH1 0x2 ADD SLOAD GT JUMPDEST ISZERO PUSH2 0x64C JUMPI DUP5 DUP2 DUP2 SLOAD DUP2 LT PUSH2 0x630 JUMPI PUSH2 0x62F PUSH2 0x1C22 JUMP JUMPDEST JUMPDEST SWAP1 PUSH1 0x0 MSTORE PUSH1 0x20 PUSH1 0x0 KECCAK256 SWAP1 PUSH1 0x3 MUL ADD PUSH1 0x2 ADD SLOAD SWAP4 POP DUP1 SWAP3 POP PUSH1 0x1 SWAP2 POP JUMPDEST DUP1 DUP1 PUSH2 0x657 SWAP1 PUSH2 0x1C80 JUMP JUMPDEST SWAP2 POP POP PUSH2 0x5DC JUMP JUMPDEST POP PUSH1 0x40 MLOAD DUP1 PUSH1 0x80 ADD PUSH1 0x40 MSTORE DUP1 DUP7 DUP2 MSTORE PUSH1 0x20 ADD DUP6 DUP5 DUP2 SLOAD DUP2 LT PUSH2 0x684 JUMPI PUSH2 0x683 PUSH2 0x1C22 JUMP JUMPDEST JUMPDEST SWAP1 PUSH1 0x0 MSTORE PUSH1 0x20 PUSH1 0x0 KECCAK256 SWAP1 PUSH1 0x3 MUL ADD PUSH1 0x0 ADD SLOAD DUP2 MSTORE PUSH1 0x20 ADD DUP6 DUP5 DUP2 SLOAD DUP2 LT PUSH2 0x6AE JUMPI PUSH2 0x6AD PUSH2 0x1C22 JUMP JUMPDEST JUMPDEST SWAP1 PUSH1 0x0 MSTORE PUSH1 0x20 PUSH1 0x0 KECCAK256 SWAP1 PUSH1 0x3 MUL ADD PUSH1 0x1 ADD SLOAD DUP2 MSTORE PUSH1 0x20 ADD DUP5 DUP2 MSTORE POP DUP8 DUP8 DUP2 MLOAD DUP2 LT PUSH2 0x6DC JUMPI PUSH2 0x6DB PUSH2 0x1C22 JUMP JUMPDEST JUMPDEST PUSH1 0x20 MUL PUSH1 0x20 ADD ADD DUP2 SWAP1 MSTORE POP POP POP POP POP POP DUP1 DUP1 PUSH2 0x6F7 SWAP1 PUSH2 0x1C80 JUMP JUMPDEST SWAP2 POP POP PUSH2 0x594 JUMP JUMPDEST POP DUP1 SWAP3 POP POP POP SWAP1 JUMP JUMPDEST PUSH1 0x4 PUSH1 0x14 SWAP1 SLOAD SWAP1 PUSH2 0x100 EXP SWAP1 DIV PUSH1 0xFF AND PUSH2 0x757 JUMPI PUSH1 0x40 MLOAD PUSH32 0x8C379A000000000000000000000000000000000000000000000000000000000 DUP2 MSTORE PUSH1 0x4 ADD PUSH2 0x74E SWAP1 PUSH2 0x1D3A JUMP JUMPDEST PUSH1 0x40 MLOAD DUP1 SWAP2 SUB SWAP1 REVERT JUMPDEST DUP2 MLOAD DUP4 MLOAD EQ PUSH2 0x79B JUMPI PUSH1 0x40 MLOAD PUSH32 0x8C379A000000000000000000000000000000000000000000000000000000000 DUP2 MSTORE PUSH1 0x4 ADD PUSH2 0x792 SWAP1 PUSH2 0x1DA6 JUMP JUMPDEST PUSH1 0x40 MLOAD DUP1 SWAP2 SUB SWAP1 REVERT JUMPDEST PUSH1 0x2 PUSH1 0x0 DUP3 DUP2 MSTORE PUSH1 0x20 ADD SWAP1 DUP2 MSTORE PUSH1 0x20 ADD PUSH1 0x0 KECCAK256 PUSH1 0x0 SWAP1 SLOAD SWAP1 PUSH2 0x100 EXP SWAP1 DIV PUSH1 0xFF AND ISZERO PUSH2 0x7FC JUMPI PUSH1 0x40 MLOAD PUSH32 0x8C379A000000000000000000000000000000000000000000000000000000000 DUP2 MSTORE PUSH1 0x4 ADD PUSH2 0x7F3 SWAP1 PUSH2 0x1E12 JUMP JUMPDEST PUSH1 0x40 MLOAD DUP1 SWAP2 SUB SWAP1 REVERT JUMPDEST PUSH1 0x1 PUSH1 0x2 PUSH1 0x0 DUP4 DUP2 MSTORE PUSH1 0x20 ADD SWAP1 DUP2 MSTORE PUSH1 0x20 ADD PUSH1 0x0 KECCAK256 PUSH1 0x0 PUSH2 0x100 EXP DUP2 SLOAD DUP2 PUSH1 0xFF MUL NOT AND SWAP1 DUP4 ISZERO ISZERO MUL OR SWAP1 SSTORE POP PUSH1 0x0 JUMPDEST DUP4 MLOAD DUP2 LT ISZERO PUSH2 0x9E4 JUMPI PUSH1 0x0 DUP5 DUP3 DUP2 MLOAD DUP2 LT PUSH2 0x849 JUMPI PUSH2 0x848 PUSH2 0x1C22 JUMP JUMPDEST JUMPDEST PUSH1 0x20 MUL PUSH1 0x20 ADD ADD MLOAD SWAP1 POP PUSH1 0x0 DUP5 DUP4 DUP2 MLOAD DUP2 LT PUSH2 0x868 JUMPI PUSH2 0x867 PUSH2 0x1C22 JUMP JUMPDEST JUMPDEST PUSH1 0x20 MUL PUSH1 0x20 ADD ADD MLOAD SWAP1 POP PUSH1 0x0 DUP1 DUP4 DUP2 MSTORE PUSH1 0x20 ADD SWAP1 DUP2 MSTORE PUSH1 0x20 ADD PUSH1 0x0 KECCAK256 DUP1 SLOAD SWAP1 POP DUP2 LT PUSH2 0x8C9 JUMPI PUSH1 0x40 MLOAD PUSH32 0x8C379A000000000000000000000000000000000000000000000000000000000 DUP2 MSTORE PUSH1 0x4 ADD PUSH2 0x8C0 SWAP1 PUSH2 0x1E7E JUMP JUMPDEST PUSH1 0x40 MLOAD DUP1 SWAP2 SUB SWAP1 REVERT JUMPDEST PUSH1 0x0 DUP1 DUP4 DUP2 MSTORE PUSH1 0x20 ADD SWAP1 DUP2 MSTORE PUSH1 0x20 ADD PUSH1 0x0 KECCAK256 DUP2 DUP2 SLOAD DUP2 LT PUSH2 0x8ED JUMPI PUSH2 0x8EC PUSH2 0x1C22 JUMP JUMPDEST JUMPDEST SWAP1 PUSH1 0x0 MSTORE PUSH1 0x20 PUSH1 0x0 KECCAK256 SWAP1 PUSH1 0x3 MUL ADD PUSH1 0x2 ADD PUSH1 0x0 DUP2 SLOAD DUP1 SWAP3 SWAP2 SWAP1 PUSH2 0x90F SWAP1 PUSH2 0x1C80 JUMP JUMPDEST SWAP2 SWAP1 POP SSTORE POP PUSH1 0x1 PUSH1 0x0 DUP4 DUP2 MSTORE PUSH1 0x20 ADD SWAP1 DUP2 MSTORE PUSH1 0x20 ADD PUSH1 0x0 KECCAK256 PUSH1 0x0 DUP3 DUP2 MSTORE PUSH1 0x20 ADD SWAP1 DUP2 MSTORE PUSH1 0x20 ADD PUSH1 0x0 KECCAK256 DUP5 SWAP1 DUP1 PUSH1 0x1 DUP2 SLOAD ADD DUP1 DUP3 SSTORE DUP1 SWAP2 POP POP PUSH1 0x1 SWAP1 SUB SWAP1 PUSH1 0x0 MSTORE PUSH1 0x20 PUSH1 0x0 KECCAK256 ADD PUSH1 0x0 SWAP1 SWAP2 SWAP1 SWAP2 SWAP1 SWAP2 POP SSTORE PUSH32 0x178E76FAA844F1C429CBE43BB805A70530F990EF2ACC87F8F626AC80FF484909 DUP3 PUSH1 0x0 DUP1 DUP6 DUP2 MSTORE PUSH1 0x20 ADD SWAP1 DUP2 MSTORE PUSH1 0x20 ADD PUSH1 0x0 KECCAK256 DUP4 DUP2 SLOAD DUP2 LT PUSH2 0x9A5 JUMPI PUSH2 0x9A4 PUSH2 0x1C22 JUMP JUMPDEST JUMPDEST SWAP1 PUSH1 0x0 MSTORE PUSH1 0x20 PUSH1 0x0 KECCAK256 SWAP1 PUSH1 0x3 MUL ADD PUSH1 0x0 ADD SLOAD DUP7 PUSH1 0x40 MLOAD PUSH2 0x9C7 SWAP4 SWAP3 SWAP2 SWAP1 PUSH2 0x1EAD JUMP JUMPDEST PUSH1 0x40 MLOAD DUP1 SWAP2 SUB SWAP1 LOG1 POP POP DUP1 DUP1 PUSH2 0x9DC SWAP1 PUSH2 0x1C80 JUMP JUMPDEST SWAP2 POP POP PUSH2 0x82B JUMP JUMPDEST POP POP POP POP JUMP JUMPDEST PUSH1 0x4 PUSH1 0x0 SWAP1 SLOAD SWAP1 PUSH2 0x100 EXP SWAP1 DIV PUSH20 0xFFFFFFFFFFFFFFFFFFFFFFFFFFFFFFFFFFFFFFFF AND PUSH20 0xFFFFFFFFFFFFFFFFFFFFFFFFFFFFFFFFFFFFFFFF AND CALLER PUSH20 0xFFFFFFFFFFFFFFFFFFFFFFFFFFFFFFFFFFFFFFFF AND EQ PUSH2 0xA7A JUMPI PUSH1 0x40 MLOAD PUSH32 0x8C379A000000000000000000000000000000000000000000000000000000000 DUP2 MSTORE PUSH1 0x4 ADD PUSH2 0xA71 SWAP1 PUSH2 0x1C02 JUMP JUMPDEST PUSH1 0x40 MLOAD DUP1 SWAP2 SUB SWAP1 REVERT JUMPDEST PUSH1 0x4 PUSH1 0x14 SWAP1 SLOAD SWAP1 PUSH2 0x100 EXP SWAP1 DIV PUSH1 0xFF AND ISZERO PUSH2 0xACA JUMPI PUSH1 0x40 MLOAD PUSH32 0x8C379A000000000000000000000000000000000000000000000000000000000 DUP2 MSTORE PUSH1 0x4 ADD PUSH2 0xAC1 SWAP1 PUSH2 0x1F56 JUMP JUMPDEST PUSH1 0x40 MLOAD DUP1 SWAP2 SUB SWAP1 REVERT JUMPDEST PUSH1 0x3 PUSH1 0x0 PUSH2 0xAD8 SWAP2 SWAP1 PUSH2 0x102F JUMP JUMPDEST PUSH1 0x0 JUMPDEST DUP3 MLOAD DUP2 LT ISZERO PUSH2 0xD2F JUMPI PUSH1 0x0 DUP1 PUSH1 0x0 DUP6 DUP5 DUP2 MLOAD DUP2 LT PUSH2 0xAFC JUMPI PUSH2 0xAFB PUSH2 0x1C22 JUMP JUMPDEST JUMPDEST PUSH1 0x20 MUL PUSH1 0x20 ADD ADD MLOAD DUP2 MSTORE PUSH1 0x20 ADD SWAP1 DUP2 MSTORE PUSH1 0x20 ADD PUSH1 0x0 KECCAK256 DUP1 SLOAD SWAP1 POP SUB PUSH2 0xB5F JUMPI PUSH1 0x3 DUP4 DUP3 DUP2 MLOAD DUP2 LT PUSH2 0xB30 JUMPI PUSH2 0xB2F PUSH2 0x1C22 JUMP JUMPDEST JUMPDEST PUSH1 0x20 MUL PUSH1 0x20 ADD ADD MLOAD SWAP1 DUP1 PUSH1 0x1 DUP2 SLOAD ADD DUP1 DUP3 SSTORE DUP1 SWAP2 POP POP PUSH1 0x1 SWAP1 SUB SWAP1 PUSH1 0x0 MSTORE PUSH1 0x20 PUSH1 0x0 KECCAK256 ADD PUSH1 0x0 SWAP1 SWAP2 SWAP1 SWAP2 SWAP1 SWAP2 POP SSTORE JUMPDEST PUSH1 0x0 DUP1 DUP5 DUP4 DUP2 MLOAD DUP2 LT PUSH2 0xB75 JUMPI PUSH2 0xB74 PUSH2 0x1C22 JUMP JUMPDEST JUMPDEST PUSH1 0x20 MUL PUSH1 0x20 ADD ADD MLOAD DUP2 MSTORE PUSH1 0x20 ADD SWAP1 DUP2 MSTORE PUSH1 0x20 ADD PUSH1 0x0 KECCAK256 PUSH1 0x0 PUSH2 0xB97 SWAP2 SWAP1 PUSH2 0x100B JUMP JUMPDEST PUSH1 0x0 JUMPDEST DUP3 DUP3 DUP2 MLOAD DUP2 LT PUSH2 0xBAD JUMPI PUSH2 0xBAC PUSH2 0x1C22 JUMP JUMPDEST JUMPDEST PUSH1 0x20 MUL PUSH1 0x20 ADD ADD MLOAD MLOAD DUP2 LT ISZERO PUSH2 0xD1B JUMPI PUSH1 0x0 DUP1 DUP6 DUP5 DUP2 MLOAD DUP2 LT PUSH2 0xBD3 JUMPI PUSH2 0xBD2 PUSH2 0x1C22 JUMP JUMPDEST JUMPDEST PUSH1 0x20 MUL PUSH1 0x20 ADD ADD MLOAD DUP2 MSTORE PUSH1 0x20 ADD SWAP1 DUP2 MSTORE PUSH1 0x20 ADD PUSH1 0x0 KECCAK256 PUSH1 0x40 MLOAD DUP1 PUSH1 0x60 ADD PUSH1 0x40 MSTORE DUP1 DUP6 DUP6 DUP2 MLOAD DUP2 LT PUSH2 0xC07 JUMPI PUSH2 0xC06 PUSH2 0x1C22 JUMP JUMPDEST JUMPDEST PUSH1 0x20 MUL PUSH1 0x20 ADD ADD MLOAD DUP5 DUP2 MLOAD DUP2 LT PUSH2 0xC21 JUMPI PUSH2 0xC20 PUSH2 0x1C22 JUMP JUMPDEST JUMPDEST PUSH1 0x20 MUL PUSH1 0x20 ADD ADD MLOAD PUSH1 0x0 ADD MLOAD DUP2 MSTORE PUSH1 0x20 ADD DUP6 DUP6 DUP2 MLOAD DUP2 LT PUSH2 0xC45 JUMPI PUSH2 0xC44 PUSH2 0x1C22 JUMP JUMPDEST JUMPDEST PUSH1 0x20 MUL PUSH1 0x20 ADD ADD MLOAD DUP5 DUP2 MLOAD DUP2 LT PUSH2 0xC5F JUMPI PUSH2 0xC5E PUSH2 0x1C22 JUMP JUMPDEST JUMPDEST PUSH1 0x20 MUL PUSH1 0x20 ADD ADD MLOAD PUSH1 0x20 ADD MLOAD DUP2 MSTORE PUSH1 0x20 ADD PUSH1 0x0 DUP2 MSTORE POP SWAP1 DUP1 PUSH1 0x1 DUP2 SLOAD ADD DUP1 DUP3 SSTORE DUP1 SWAP2 POP POP PUSH1 0x1 SWAP1 SUB SWAP1 PUSH1 0x0 MSTORE PUSH1 0x20 PUSH1 0x0 KECCAK256 SWAP1 PUSH1 0x3 MUL ADD PUSH1 0x0 SWAP1 SWAP2 SWAP1 SWAP2 SWAP1 SWAP2 POP PUSH1 0x0 DUP3 ADD MLOAD DUP2 PUSH1 0x0 ADD SSTORE PUSH1 0x20 DUP3 ADD MLOAD DUP2 PUSH1 0x1 ADD SSTORE PUSH1 0x40 DUP3 ADD MLOAD DUP2 PUSH1 0x2 ADD SSTORE POP POP PUSH1 0x1 PUSH1 0x0 DUP6 DUP5 DUP2 MLOAD DUP2 LT PUSH2 0xCD5 JUMPI PUSH2 0xCD4 PUSH2 0x1C22 JUMP JUMPDEST JUMPDEST PUSH1 0x20 MUL PUSH1 0x20 ADD ADD MLOAD DUP2 MSTORE PUSH1 0x20 ADD SWAP1 DUP2 MSTORE PUSH1 0x20 ADD PUSH1 0x0 KECCAK256 PUSH1 0x0 DUP3 DUP2 MSTORE PUSH1 0x20 ADD SWAP1 DUP2 MSTORE PUSH1 0x20 ADD PUSH1 0x0 KECCAK256 PUSH1 0x0 PUSH2 0xD08 SWAP2 SWAP1 PUSH2 0x102F JUMP JUMPDEST DUP1 DUP1 PUSH2 0xD13 SWAP1 PUSH2 0x1C80 JUMP JUMPDEST SWAP2 POP POP PUSH2 0xB9A JUMP JUMPDEST POP DUP1 DUP1 PUSH2 0xD27 SWAP1 PUSH2 0x1C80 JUMP JUMPDEST SWAP2 POP POP PUSH2 0xADB JUMP JUMPDEST POP PUSH1 0x1 PUSH1 0x4 PUSH1 0x14 PUSH2 0x100 EXP DUP2 SLOAD DUP2 PUSH1 0xFF MUL NOT AND SWAP1 DUP4 ISZERO ISZERO MUL OR SWAP1 SSTORE POP PUSH32 0x86825B43264CA968E676C45C8E05CC56965FF5938ED49DCF636C61ACB7070BD7 PUSH1 0x40 MLOAD PUSH1 0x40 MLOAD DUP1 SWAP2 SUB SWAP1 LOG1 POP POP JUMP JUMPDEST PUSH1 0x4 PUSH1 0x0 SWAP1 SLOAD SWAP1 PUSH2 0x100 EXP SWAP1 DIV PUSH20 0xFFFFFFFFFFFFFFFFFFFFFFFFFFFFFFFFFFFFFFFF AND DUP2 JUMP JUMPDEST PUSH1 0x60 DUP1 PUSH1 0x0 DUP1 PUSH1 0x0 SWAP1 POP JUMPDEST PUSH1 0x3 DUP1 SLOAD SWAP1 POP DUP2 LT ISZERO PUSH2 0xE0D JUMPI PUSH1 0x0 DUP1 PUSH1 0x3 DUP4 DUP2 SLOAD DUP2 LT PUSH2 0xDD0 JUMPI PUSH2 0xDCF PUSH2 0x1C22 JUMP JUMPDEST JUMPDEST SWAP1 PUSH1 0x0 MSTORE PUSH1 0x20 PUSH1 0x0 KECCAK256 ADD SLOAD DUP2 MSTORE PUSH1 0x20 ADD SWAP1 DUP2 MSTORE PUSH1 0x20 ADD PUSH1 0x0 KECCAK256 DUP1 SLOAD SWAP1 POP DUP3 PUSH2 0xDF8 SWAP2 SWAP1 PUSH2 0x1F76 JUMP JUMPDEST SWAP2 POP DUP1 DUP1 PUSH2 0xE05 SWAP1 PUSH2 0x1C80 JUMP JUMPDEST SWAP2 POP POP PUSH2 0xDAC JUMP JUMPDEST POP PUSH1 0x0 DUP2 PUSH8 0xFFFFFFFFFFFFFFFF DUP2 GT ISZERO PUSH2 0xE2A JUMPI PUSH2 0xE29 PUSH2 0x153B JUMP JUMPDEST JUMPDEST PUSH1 0x40 MLOAD SWAP1 DUP1 DUP3 MSTORE DUP1 PUSH1 0x20 MUL PUSH1 0x20 ADD DUP3 ADD PUSH1 0x40 MSTORE DUP1 ISZERO PUSH2 0xE63 JUMPI DUP2 PUSH1 0x20 ADD JUMPDEST PUSH2 0xE50 PUSH2 0x1050 JUMP JUMPDEST DUP2 MSTORE PUSH1 0x20 ADD SWAP1 PUSH1 0x1 SWAP1 SUB SWAP1 DUP2 PUSH2 0xE48 JUMPI SWAP1 POP JUMPDEST POP SWAP1 POP PUSH1 0x0 DUP3 PUSH8 0xFFFFFFFFFFFFFFFF DUP2 GT ISZERO PUSH2 0xE82 JUMPI PUSH2 0xE81 PUSH2 0x153B JUMP JUMPDEST JUMPDEST PUSH1 0x40 MLOAD SWAP1 DUP1 DUP3 MSTORE DUP1 PUSH1 0x20 MUL PUSH1 0x20 ADD DUP3 ADD PUSH1 0x40 MSTORE DUP1 ISZERO PUSH2 0xEB0 JUMPI DUP2 PUSH1 0x20 ADD PUSH1 0x20 DUP3 MUL DUP1 CALLDATASIZE DUP4 CALLDATACOPY DUP1 DUP3 ADD SWAP2 POP POP SWAP1 POP JUMPDEST POP SWAP1 POP PUSH1 0x0 DUP1 JUMPDEST PUSH1 0x3 DUP1 SLOAD SWAP1 POP DUP2 LT ISZERO PUSH2 0xFFC JUMPI PUSH1 0x0 DUP1 PUSH1 0x0 PUSH1 0x3 DUP5 DUP2 SLOAD DUP2 LT PUSH2 0xEDD JUMPI PUSH2 0xEDC PUSH2 0x1C22 JUMP JUMPDEST JUMPDEST SWAP1 PUSH1 0x0 MSTORE PUSH1 0x20 PUSH1 0x0 KECCAK256 ADD SLOAD DUP2 MSTORE PUSH1 0x20 ADD SWAP1 DUP2 MSTORE PUSH1 0x20 ADD PUSH1 0x0 KECCAK256 SWAP1 POP PUSH1 0x0 JUMPDEST DUP2 DUP1 SLOAD SWAP1 POP DUP2 LT ISZERO PUSH2 0xFE7 JUMPI PUSH1 0x40 MLOAD DUP1 PUSH1 0x40 ADD PUSH1 0x40 MSTORE DUP1 DUP4 DUP4 DUP2 SLOAD DUP2 LT PUSH2 0xF25 JUMPI PUSH2 0xF24 PUSH2 0x1C22 JUMP JUMPDEST JUMPDEST SWAP1 PUSH1 0x0 MSTORE PUSH1 0x20 PUSH1 0x0 KECCAK256 SWAP1 PUSH1 0x3 MUL ADD PUSH1 0x0 ADD SLOAD DUP2 MSTORE PUSH1 0x20 ADD DUP4 DUP4 DUP2 SLOAD DUP2 LT PUSH2 0xF4F JUMPI PUSH2 0xF4E PUSH2 0x1C22 JUMP JUMPDEST JUMPDEST SWAP1 PUSH1 0x0 MSTORE PUSH1 0x20 PUSH1 0x0 KECCAK256 SWAP1 PUSH1 0x3 MUL ADD PUSH1 0x1 ADD SLOAD DUP2 MSTORE POP DUP7 DUP6 DUP2 MLOAD DUP2 LT PUSH2 0xF77 JUMPI PUSH2 0xF76 PUSH2 0x1C22 JUMP JUMPDEST JUMPDEST PUSH1 0x20 MUL PUSH1 0x20 ADD ADD DUP2 SWAP1 MSTORE POP DUP2 DUP2 DUP2 SLOAD DUP2 LT PUSH2 0xF95 JUMPI PUSH2 0xF94 PUSH2 0x1C22 JUMP JUMPDEST JUMPDEST SWAP1 PUSH1 0x0 MSTORE PUSH1 0x20 PUSH1 0x0 KECCAK256 SWAP1 PUSH1 0x3 MUL ADD PUSH1 0x2 ADD SLOAD DUP6 DUP6 DUP2 MLOAD DUP2 LT PUSH2 0xFBA JUMPI PUSH2 0xFB9 PUSH2 0x1C22 JUMP JUMPDEST JUMPDEST PUSH1 0x20 MUL PUSH1 0x20 ADD ADD DUP2 DUP2 MSTORE POP POP DUP4 DUP1 PUSH2 0xFD1 SWAP1 PUSH2 0x1C80 JUMP JUMPDEST SWAP5 POP POP DUP1 DUP1 PUSH2 0xFDF SWAP1 PUSH2 0x1C80 JUMP JUMPDEST SWAP2 POP POP PUSH2 0xEFB JUMP JUMPDEST POP POP DUP1 DUP1 PUSH2 0xFF4 SWAP1 PUSH2 0x1C80 JUMP JUMPDEST SWAP2 POP POP PUSH2 0xEB7 JUMP JUMPDEST POP DUP3 DUP3 SWAP6 POP SWAP6 POP POP POP POP POP SWAP1 SWAP2 JUMP JUMPDEST POP DUP1 SLOAD PUSH1 0x0 DUP3 SSTORE PUSH1 0x3 MUL SWAP1 PUSH1 0x0 MSTORE PUSH1 0x20 PUSH1 0x0 KECCAK256 SWAP1 DUP2 ADD SWAP1 PUSH2 0x102C SWAP2 SWAP1 PUSH2 0x10A1 JUMP JUMPDEST POP JUMP JUMPDEST POP DUP1 SLOAD PUSH1 0x0 DUP3 SSTORE SWAP1 PUSH1 0x0 MSTORE PUSH1 0x20 PUSH1 0x0 KECCAK256 SWAP1 DUP2 ADD SWAP1 PUSH2 0x104D SWAP2 SWAP1 PUSH2 0x10D0 JUMP JUMPDEST POP JUMP JUMPDEST PUSH1 0x40 MLOAD DUP1 PUSH1 0x40 ADD PUSH1 0x40 MSTORE DUP1 PUSH1 0x0 DUP1 NOT AND DUP2 MSTORE PUSH1 0x20 ADD PUSH1 0x0 DUP1 NOT AND DUP2 MSTORE POP SWAP1 JUMP JUMPDEST PUSH1 0x40 MLOAD DUP1 PUSH1 0x80 ADD PUSH1 0x40 MSTORE DUP1 PUSH1 0x0 DUP1 NOT AND DUP2 MSTORE PUSH1 0x20 ADD PUSH1 0x0 DUP1 NOT AND DUP2 MSTORE PUSH1 0x20 ADD PUSH1 0x0 DUP1 NOT AND DUP2 MSTORE PUSH1 0x20 ADD PUSH1 0x0 DUP2 MSTORE POP SWAP1 JUMP JUMPDEST JUMPDEST DUP1 DUP3 GT ISZERO PUSH2 0x10CC JUMPI PUSH1 0x0 DUP1 DUP3 ADD PUSH1 0x0 SWAP1 SSTORE PUSH1 0x1 DUP3 ADD PUSH1 0x0 SWAP1 SSTORE PUSH1 0x2 DUP3 ADD PUSH1 0x0 SWAP1 SSTORE POP PUSH1 0x3 ADD PUSH2 0x10A2 JUMP JUMPDEST POP SWAP1 JUMP JUMPDEST JUMPDEST DUP1 DUP3 GT ISZERO PUSH2 0x10E9 JUMPI PUSH1 0x0 DUP2 PUSH1 0x0 SWAP1 SSTORE POP PUSH1 0x1 ADD PUSH2 0x10D1 JUMP JUMPDEST POP SWAP1 JUMP JUMPDEST PUSH1 0x0 PUSH1 0x40 MLOAD SWAP1 POP SWAP1 JUMP JUMPDEST PUSH1 0x0 DUP1 REVERT JUMPDEST PUSH1 0x0 DUP1 REVERT JUMPDEST PUSH1 0x0 DUP2 SWAP1 POP SWAP2 SWAP1 POP JUMP JUMPDEST PUSH2 0x1114 DUP2 PUSH2 0x1101 JUMP JUMPDEST DUP2 EQ PUSH2 0x111F JUMPI PUSH1 0x0 DUP1 REVERT JUMPDEST POP JUMP JUMPDEST PUSH1 0x0 DUP2 CALLDATALOAD SWAP1 POP PUSH2 0x1131 DUP2 PUSH2 0x110B JUMP JUMPDEST SWAP3 SWAP2 POP POP JUMP JUMPDEST PUSH1 0x0 DUP2 SWAP1 POP SWAP2 SWAP1 POP JUMP JUMPDEST PUSH2 0x114A DUP2 PUSH2 0x1137 JUMP JUMPDEST DUP2 EQ PUSH2 0x1155 JUMPI PUSH1 0x0 DUP1 REVERT JUMPDEST POP JUMP JUMPDEST PUSH1 0x0 DUP2 CALLDATALOAD SWAP1 POP PUSH2 0x1167 DUP2 PUSH2 0x1141 JUMP JUMPDEST SWAP3 SWAP2 POP POP JUMP JUMPDEST PUSH1 0x0 DUP1 PUSH1 0x40 DUP4 DUP6 SUB SLT ISZERO PUSH2 0x1184 JUMPI PUSH2 0x1183 PUSH2 0x10F7 JUMP JUMPDEST JUMPDEST PUSH1 0x0 PUSH2 0x1192 DUP6 DUP3 DUP7 ADD PUSH2 0x1122 JUMP JUMPDEST SWAP3 POP POP PUSH1 0x20 PUSH2 0x11A3 DUP6 DUP3 DUP7 ADD PUSH2 0x1158 JUMP JUMPDEST SWAP2 POP POP SWAP3 POP SWAP3 SWAP1 POP JUMP JUMPDEST PUSH1 0x0 DUP2 MLOAD SWAP1 POP SWAP2 SWAP1 POP JUMP JUMPDEST PUSH1 0x0 DUP3 DUP3 MSTORE PUSH1 0x20 DUP3 ADD SWAP1 POP SWAP3 SWAP2 POP POP JUMP JUMPDEST PUSH1 0x0 DUP2 SWAP1 POP PUSH1 0x20 DUP3 ADD SWAP1 POP SWAP2 SWAP1 POP JUMP JUMPDEST PUSH2 0x11E2 DUP2 PUSH2 0x1101 JUMP JUMPDEST DUP3 MSTORE POP POP JUMP JUMPDEST PUSH1 0x0 PUSH2 0x11F4 DUP4 DUP4 PUSH2 0x11D9 JUMP JUMPDEST PUSH1 0x20 DUP4 ADD SWAP1 POP SWAP3 SWAP2 POP POP JUMP JUMPDEST PUSH1 0x0 PUSH1 0x20 DUP3 ADD SWAP1 POP SWAP2 SWAP1 POP JUMP JUMPDEST PUSH1 0x0 PUSH2 0x1218 DUP3 PUSH2 0x11AD JUMP JUMPDEST PUSH2 0x1222 DUP2 DUP6 PUSH2 0x11B8 JUMP JUMPDEST SWAP4 POP PUSH2 0x122D DUP4 PUSH2 0x11C9 JUMP JUMPDEST DUP1 PUSH1 0x0 JUMPDEST DUP4 DUP2 LT ISZERO PUSH2 0x125E JUMPI DUP2 MLOAD PUSH2 0x1245 DUP9 DUP3 PUSH2 0x11E8 JUMP JUMPDEST SWAP8 POP PUSH2 0x1250 DUP4 PUSH2 0x1200 JUMP JUMPDEST SWAP3 POP POP PUSH1 0x1 DUP2 ADD SWAP1 POP PUSH2 0x1231 JUMP JUMPDEST POP DUP6 SWAP4 POP POP POP POP SWAP3 SWAP2 POP POP JUMP JUMPDEST PUSH1 0x0 PUSH1 0x20 DUP3 ADD SWAP1 POP DUP2 DUP2 SUB PUSH1 0x0 DUP4 ADD MSTORE PUSH2 0x1285 DUP2 DUP5 PUSH2 0x120D JUMP JUMPDEST SWAP1 POP SWAP3 SWAP2 POP POP JUMP JUMPDEST PUSH1 0x0 PUSH1 0x20 DUP3 DUP5 SUB SLT ISZERO PUSH2 0x12A3 JUMPI PUSH2 0x12A2 PUSH2 0x10F7 JUMP JUMPDEST JUMPDEST PUSH1 0x0 PUSH2 0x12B1 DUP5 DUP3 DUP6 ADD PUSH2 0x1122 JUMP JUMPDEST SWAP2 POP POP SWAP3 SWAP2 POP POP JUMP JUMPDEST PUSH1 0x0 DUP2 MLOAD SWAP1 POP SWAP2 SWAP1 POP JUMP JUMPDEST PUSH1 0x0 DUP3 DUP3 MSTORE PUSH1 0x20 DUP3 ADD SWAP1 POP SWAP3 SWAP2 POP POP JUMP JUMPDEST PUSH1 0x0 DUP2 SWAP1 POP PUSH1 0x20 DUP3 ADD SWAP1 POP SWAP2 SWAP1 POP JUMP JUMPDEST PUSH1 0x40 DUP3 ADD PUSH1 0x0 DUP3 ADD MLOAD PUSH2 0x12FC PUSH1 0x0 DUP6 ADD DUP3 PUSH2 0x11D9 JUMP JUMPDEST POP PUSH1 0x20 DUP3 ADD MLOAD PUSH2 0x130F PUSH1 0x20 DUP6 ADD DUP3 PUSH2 0x11D9 JUMP JUMPDEST POP POP POP POP JUMP JUMPDEST PUSH1 0x0 PUSH2 0x1321 DUP4 DUP4 PUSH2 0x12E6 JUMP JUMPDEST PUSH1 0x40 DUP4 ADD SWAP1 POP SWAP3 SWAP2 POP POP JUMP JUMPDEST PUSH1 0x0 PUSH1 0x20 DUP3 ADD SWAP1 POP SWAP2 SWAP1 POP JUMP JUMPDEST PUSH1 0x0 PUSH2 0x1345 DUP3 PUSH2 0x12BA JUMP JUMPDEST PUSH2 0x134F DUP2 DUP6 PUSH2 0x12C5 JUMP JUMPDEST SWAP4 POP PUSH2 0x135A DUP4 PUSH2 0x12D6 JUMP JUMPDEST DUP1 PUSH1 0x0 JUMPDEST DUP4 DUP2 LT ISZERO PUSH2 0x138B JUMPI DUP2 MLOAD PUSH2 0x1372 DUP9 DUP3 PUSH2 0x1315 JUMP JUMPDEST SWAP8 POP PUSH2 0x137D DUP4 PUSH2 0x132D JUMP JUMPDEST SWAP3 POP POP PUSH1 0x1 DUP2 ADD SWAP1 POP PUSH2 0x135E JUMP JUMPDEST POP DUP6 SWAP4 POP POP POP POP SWAP3 SWAP2 POP POP JUMP JUMPDEST PUSH1 0x0 PUSH1 0x20 DUP3 ADD SWAP1 POP DUP2 DUP2 SUB PUSH1 0x0 DUP4 ADD MSTORE PUSH2 0x13B2 DUP2 DUP5 PUSH2 0x133A JUMP JUMPDEST SWAP1 POP SWAP3 SWAP2 POP POP JUMP JUMPDEST PUSH1 0x0 DUP2 ISZERO ISZERO SWAP1 POP SWAP2 SWAP1 POP JUMP JUMPDEST PUSH2 0x13CF DUP2 PUSH2 0x13BA JUMP JUMPDEST DUP3 MSTORE POP POP JUMP JUMPDEST PUSH1 0x0 PUSH1 0x20 DUP3 ADD SWAP1 POP PUSH2 0x13EA PUSH1 0x0 DUP4 ADD DUP5 PUSH2 0x13C6 JUMP JUMPDEST SWAP3 SWAP2 POP POP JUMP JUMPDEST PUSH1 0x0 DUP2 MLOAD SWAP1 POP SWAP2 SWAP1 POP JUMP JUMPDEST PUSH1 0x0 DUP3 DUP3 MSTORE PUSH1 0x20 DUP3 ADD SWAP1 POP SWAP3 SWAP2 POP POP JUMP JUMPDEST PUSH1 0x0 DUP2 SWAP1 POP PUSH1 0x20 DUP3 ADD SWAP1 POP SWAP2 SWAP1 POP JUMP JUMPDEST PUSH2 0x1425 DUP2 PUSH2 0x1137 JUMP JUMPDEST DUP3 MSTORE POP POP JUMP JUMPDEST PUSH1 0x80 DUP3 ADD PUSH1 0x0 DUP3 ADD MLOAD PUSH2 0x1441 PUSH1 0x0 DUP6 ADD DUP3 PUSH2 0x11D9 JUMP JUMPDEST POP PUSH1 0x20 DUP3 ADD MLOAD PUSH2 0x1454 PUSH1 0x20 DUP6 ADD DUP3 PUSH2 0x11D9 JUMP JUMPDEST POP PUSH1 0x40 DUP3 ADD MLOAD PUSH2 0x1467 PUSH1 0x40 DUP6 ADD DUP3 PUSH2 0x11D9 JUMP JUMPDEST POP PUSH1 0x60 DUP3 ADD MLOAD PUSH2 0x147A PUSH1 0x60 DUP6 ADD DUP3 PUSH2 0x141C JUMP JUMPDEST POP POP POP POP JUMP JUMPDEST PUSH1 0x0 PUSH2 0x148C DUP4 DUP4 PUSH2 0x142B JUMP JUMPDEST PUSH1 0x80 DUP4 ADD SWAP1 POP SWAP3 SWAP2 POP POP JUMP JUMPDEST PUSH1 0x0 PUSH1 0x20 DUP3 ADD SWAP1 POP SWAP2 SWAP1 POP JUMP JUMPDEST PUSH1 0x0 PUSH2 0x14B0 DUP3 PUSH2 0x13F0 JUMP JUMPDEST PUSH2 0x14BA DUP2 DUP6 PUSH2 0x13FB JUMP JUMPDEST SWAP4 POP PUSH2 0x14C5 DUP4 PUSH2 0x140C JUMP JUMPDEST DUP1 PUSH1 0x0 JUMPDEST DUP4 DUP2 LT ISZERO PUSH2 0x14F6 JUMPI DUP2 MLOAD PUSH2 0x14DD DUP9 DUP3 PUSH2 0x1480 JUMP JUMPDEST SWAP8 POP PUSH2 0x14E8 DUP4 PUSH2 0x1498 JUMP JUMPDEST SWAP3 POP POP PUSH1 0x1 DUP2 ADD SWAP1 POP PUSH2 0x14C9 JUMP JUMPDEST POP DUP6 SWAP4 POP POP POP POP SWAP3 SWAP2 POP POP JUMP JUMPDEST PUSH1 0x0 PUSH1 0x20 DUP3 ADD SWAP1 POP DUP2 DUP2 SUB PUSH1 0x0 DUP4 ADD MSTORE PUSH2 0x151D DUP2 DUP5 PUSH2 0x14A5 JUMP JUMPDEST SWAP1 POP SWAP3 SWAP2 POP POP JUMP JUMPDEST PUSH1 0x0 DUP1 REVERT JUMPDEST PUSH1 0x0 PUSH1 0x1F NOT PUSH1 0x1F DUP4 ADD AND SWAP1 POP SWAP2 SWAP1 POP JUMP JUMPDEST PUSH32 0x4E487B7100000000000000000000000000000000000000000000000000000000 PUSH1 0x0 MSTORE PUSH1 0x41 PUSH1 0x4 MSTORE PUSH1 0x24 PUSH1 0x0 REVERT JUMPDEST PUSH2 0x1573 DUP3 PUSH2 0x152A JUMP JUMPDEST DUP2 ADD DUP2 DUP2 LT PUSH8 0xFFFFFFFFFFFFFFFF DUP3 GT OR ISZERO PUSH2 0x1592 JUMPI PUSH2 0x1591 PUSH2 0x153B JUMP JUMPDEST JUMPDEST DUP1 PUSH1 0x40 MSTORE POP POP POP JUMP JUMPDEST PUSH1 0x0 PUSH2 0x15A5 PUSH2 0x10ED JUMP JUMPDEST SWAP1 POP PUSH2 0x15B1 DUP3 DUP3 PUSH2 0x156A JUMP JUMPDEST SWAP2 SWAP1 POP JUMP JUMPDEST PUSH1 0x0 PUSH8 0xFFFFFFFFFFFFFFFF DUP3 GT ISZERO PUSH2 0x15D1 JUMPI PUSH2 0x15D0 PUSH2 0x153B JUMP JUMPDEST JUMPDEST PUSH1 0x20 DUP3 MUL SWAP1 POP PUSH1 0x20 DUP2 ADD SWAP1 POP SWAP2 SWAP1 POP JUMP JUMPDEST PUSH1 0x0 DUP1 REVERT JUMPDEST PUSH1 0x0 PUSH2 0x15FA PUSH2 0x15F5 DUP5 PUSH2 0x15B6 JUMP JUMPDEST PUSH2 0x159B JUMP JUMPDEST SWAP1 POP DUP1 DUP4 DUP3 MSTORE PUSH1 0x20 DUP3 ADD SWAP1 POP PUSH1 0x20 DUP5 MUL DUP4 ADD DUP6 DUP2 GT ISZERO PUSH2 0x161D JUMPI PUSH2 0x161C PUSH2 0x15E2 JUMP JUMPDEST JUMPDEST DUP4 JUMPDEST DUP2 DUP2 LT ISZERO PUSH2 0x1646 JUMPI DUP1 PUSH2 0x1632 DUP9 DUP3 PUSH2 0x1122 JUMP JUMPDEST DUP5 MSTORE PUSH1 0x20 DUP5 ADD SWAP4 POP POP PUSH1 0x20 DUP2 ADD SWAP1 POP PUSH2 0x161F JUMP JUMPDEST POP POP POP SWAP4 SWAP3 POP POP POP JUMP JUMPDEST PUSH1 0x0 DUP3 PUSH1 0x1F DUP4 ADD SLT PUSH2 0x1665 JUMPI PUSH2 0x1664 PUSH2 0x1525 JUMP JUMPDEST JUMPDEST DUP2 CALLDATALOAD PUSH2 0x1675 DUP5 DUP3 PUSH1 0x20 DUP7 ADD PUSH2 0x15E7 JUMP JUMPDEST SWAP2 POP POP SWAP3 SWAP2 POP POP JUMP JUMPDEST PUSH1 0x0 PUSH8 0xFFFFFFFFFFFFFFFF DUP3 GT ISZERO PUSH2 0x1699 JUMPI PUSH2 0x1698 PUSH2 0x153B JUMP JUMPDEST JUMPDEST PUSH1 0x20 DUP3 MUL SWAP1 POP PUSH1 0x20 DUP2 ADD SWAP1 POP SWAP2 SWAP1 POP JUMP JUMPDEST PUSH1 0x0 PUSH2 0x16BD PUSH2 0x16B8 DUP5 PUSH2 0x167E JUMP JUMPDEST PUSH2 0x159B JUMP JUMPDEST SWAP1 POP DUP1 DUP4 DUP3 MSTORE PUSH1 0x20 DUP3 ADD SWAP1 POP PUSH1 0x20 DUP5 MUL DUP4 ADD DUP6 DUP2 GT ISZERO PUSH2 0x16E0 JUMPI PUSH2 0x16DF PUSH2 0x15E2 JUMP JUMPDEST JUMPDEST DUP4 JUMPDEST DUP2 DUP2 LT ISZERO PUSH2 0x1709 JUMPI DUP1 PUSH2 0x16F5 DUP9 DUP3 PUSH2 0x1158 JUMP JUMPDEST DUP5 MSTORE PUSH1 0x20 DUP5 ADD SWAP4 POP POP PUSH1 0x20 DUP2 ADD SWAP1 POP PUSH2 0x16E2 JUMP JUMPDEST POP POP POP SWAP4 SWAP3 POP POP POP JUMP JUMPDEST PUSH1 0x0 DUP3 PUSH1 0x1F DUP4 ADD SLT PUSH2 0x1728 JUMPI PUSH2 0x1727 PUSH2 0x1525 JUMP JUMPDEST JUMPDEST DUP2 CALLDATALOAD PUSH2 0x1738 DUP5 DUP3 PUSH1 0x20 DUP7 ADD PUSH2 0x16AA JUMP JUMPDEST SWAP2 POP POP SWAP3 SWAP2 POP POP JUMP JUMPDEST PUSH1 0x0 DUP1 PUSH1 0x0 PUSH1 0x60 DUP5 DUP7 SUB SLT ISZERO PUSH2 0x175A JUMPI PUSH2 0x1759 PUSH2 0x10F7 JUMP JUMPDEST JUMPDEST PUSH1 0x0 DUP5 ADD CALLDATALOAD PUSH8 0xFFFFFFFFFFFFFFFF DUP2 GT ISZERO PUSH2 0x1778 JUMPI PUSH2 0x1777 PUSH2 0x10FC JUMP JUMPDEST JUMPDEST PUSH2 0x1784 DUP7 DUP3 DUP8 ADD PUSH2 0x1650 JUMP JUMPDEST SWAP4 POP POP PUSH1 0x20 DUP5 ADD CALLDATALOAD PUSH8 0xFFFFFFFFFFFFFFFF DUP2 GT ISZERO PUSH2 0x17A5 JUMPI PUSH2 0x17A4 PUSH2 0x10FC JUMP JUMPDEST JUMPDEST PUSH2 0x17B1 DUP7 DUP3 DUP8 ADD PUSH2 0x1713 JUMP JUMPDEST SWAP3 POP POP PUSH1 0x40 PUSH2 0x17C2 DUP7 DUP3 DUP8 ADD PUSH2 0x1122 JUMP JUMPDEST SWAP2 POP POP SWAP3 POP SWAP3 POP SWAP3 JUMP JUMPDEST PUSH1 0x0 PUSH8 0xFFFFFFFFFFFFFFFF DUP3 GT ISZERO PUSH2 0x17E7 JUMPI PUSH2 0x17E6 PUSH2 0x153B JUMP JUMPDEST JUMPDEST PUSH1 0x20 DUP3 MUL SWAP1 POP PUSH1 0x20 DUP2 ADD SWAP1 POP SWAP2 SWAP1 POP JUMP JUMPDEST PUSH1 0x0 PUSH8 0xFFFFFFFFFFFFFFFF DUP3 GT ISZERO PUSH2 0x1813 JUMPI PUSH2 0x1812 PUSH2 0x153B JUMP JUMPDEST JUMPDEST PUSH1 0x20 DUP3 MUL SWAP1 POP PUSH1 0x20 DUP2 ADD SWAP1 POP SWAP2 SWAP1 POP JUMP JUMPDEST PUSH1 0x0 DUP1 REVERT JUMPDEST PUSH1 0x0 PUSH1 0x40 DUP3 DUP5 SUB SLT ISZERO PUSH2 0x183F JUMPI PUSH2 0x183E PUSH2 0x1824 JUMP JUMPDEST JUMPDEST PUSH2 0x1849 PUSH1 0x40 PUSH2 0x159B JUMP JUMPDEST SWAP1 POP PUSH1 0x0 PUSH2 0x1859 DUP5 DUP3 DUP6 ADD PUSH2 0x1122 JUMP JUMPDEST PUSH1 0x0 DUP4 ADD MSTORE POP PUSH1 0x20 PUSH2 0x186D DUP5 DUP3 DUP6 ADD PUSH2 0x1122 JUMP JUMPDEST PUSH1 0x20 DUP4 ADD MSTORE POP SWAP3 SWAP2 POP POP JUMP JUMPDEST PUSH1 0x0 PUSH2 0x188C PUSH2 0x1887 DUP5 PUSH2 0x17F8 JUMP JUMPDEST PUSH2 0x159B JUMP JUMPDEST SWAP1 POP DUP1 DUP4 DUP3 MSTORE PUSH1 0x20 DUP3 ADD SWAP1 POP PUSH1 0x40 DUP5 MUL DUP4 ADD DUP6 DUP2 GT ISZERO PUSH2 0x18AF JUMPI PUSH2 0x18AE PUSH2 0x15E2 JUMP JUMPDEST JUMPDEST DUP4 JUMPDEST DUP2 DUP2 LT ISZERO PUSH2 0x18D8 JUMPI DUP1 PUSH2 0x18C4 DUP9 DUP3 PUSH2 0x1829 JUMP JUMPDEST DUP5 MSTORE PUSH1 0x20 DUP5 ADD SWAP4 POP POP PUSH1 0x40 DUP2 ADD SWAP1 POP PUSH2 0x18B1 JUMP JUMPDEST POP POP POP SWAP4 SWAP3 POP POP POP JUMP JUMPDEST PUSH1 0x0 DUP3 PUSH1 0x1F DUP4 ADD SLT PUSH2 0x18F7 JUMPI PUSH2 0x18F6 PUSH2 0x1525 JUMP JUMPDEST JUMPDEST DUP2 CALLDATALOAD PUSH2 0x1907 DUP5 DUP3 PUSH1 0x20 DUP7 ADD PUSH2 0x1879 JUMP JUMPDEST SWAP2 POP POP SWAP3 SWAP2 POP POP JUMP JUMPDEST PUSH1 0x0 PUSH2 0x1923 PUSH2 0x191E DUP5 PUSH2 0x17CC JUMP JUMPDEST PUSH2 0x159B JUMP JUMPDEST SWAP1 POP DUP1 DUP4 DUP3 MSTORE PUSH1 0x20 DUP3 ADD SWAP1 POP PUSH1 0x20 DUP5 MUL DUP4 ADD DUP6 DUP2 GT ISZERO PUSH2 0x1946 JUMPI PUSH2 0x1945 PUSH2 0x15E2 JUMP JUMPDEST JUMPDEST DUP4 JUMPDEST DUP2 DUP2 LT ISZERO PUSH2 0x198D JUMPI DUP1 CALLDATALOAD PUSH8 0xFFFFFFFFFFFFFFFF DUP2 GT ISZERO PUSH2 0x196B JUMPI PUSH2 0x196A PUSH2 0x1525 JUMP JUMPDEST JUMPDEST DUP1 DUP7 ADD PUSH2 0x1978 DUP10 DUP3 PUSH2 0x18E2 JUMP JUMPDEST DUP6 MSTORE PUSH1 0x20 DUP6 ADD SWAP5 POP POP POP PUSH1 0x20 DUP2 ADD SWAP1 POP PUSH2 0x1948 JUMP JUMPDEST POP POP POP SWAP4 SWAP3 POP POP POP JUMP JUMPDEST PUSH1 0x0 DUP3 PUSH1 0x1F DUP4 ADD SLT PUSH2 0x19AC JUMPI PUSH2 0x19AB PUSH2 0x1525 JUMP JUMPDEST JUMPDEST DUP2 CALLDATALOAD PUSH2 0x19BC DUP5 DUP3 PUSH1 0x20 DUP7 ADD PUSH2 0x1910 JUMP JUMPDEST SWAP2 POP POP SWAP3 SWAP2 POP POP JUMP JUMPDEST PUSH1 0x0 DUP1 PUSH1 0x40 DUP4 DUP6 SUB SLT ISZERO PUSH2 0x19DC JUMPI PUSH2 0x19DB PUSH2 0x10F7 JUMP JUMPDEST JUMPDEST PUSH1 0x0 DUP4 ADD CALLDATALOAD PUSH8 0xFFFFFFFFFFFFFFFF DUP2 GT ISZERO PUSH2 0x19FA JUMPI PUSH2 0x19F9 PUSH2 0x10FC JUMP JUMPDEST JUMPDEST PUSH2 0x1A06 DUP6 DUP3 DUP7 ADD PUSH2 0x1650 JUMP JUMPDEST SWAP3 POP POP PUSH1 0x20 DUP4 ADD CALLDATALOAD PUSH8 0xFFFFFFFFFFFFFFFF DUP2 GT ISZERO PUSH2 0x1A27 JUMPI PUSH2 0x1A26 PUSH2 0x10FC JUMP JUMPDEST JUMPDEST PUSH2 0x1A33 DUP6 DUP3 DUP7 ADD PUSH2 0x1997 JUMP JUMPDEST SWAP2 POP POP SWAP3 POP SWAP3 SWAP1 POP JUMP JUMPDEST PUSH1 0x0 PUSH20 0xFFFFFFFFFFFFFFFFFFFFFFFFFFFFFFFFFFFFFFFF DUP3 AND SWAP1 POP SWAP2 SWAP1 POP JUMP JUMPDEST PUSH1 0x0 PUSH2 0x1A68 DUP3 PUSH2 0x1A3D JUMP JUMPDEST SWAP1 POP SWAP2 SWAP1 POP JUMP JUMPDEST PUSH2 0x1A78 DUP2 PUSH2 0x1A5D JUMP JUMPDEST DUP3 MSTORE POP POP JUMP JUMPDEST PUSH1 0x0 PUSH1 0x20 DUP3 ADD SWAP1 POP PUSH2 0x1A93 PUSH1 0x0 DUP4 ADD DUP5 PUSH2 0x1A6F JUMP JUMPDEST SWAP3 SWAP2 POP POP JUMP JUMPDEST PUSH1 0x0 DUP2 MLOAD SWAP1 POP SWAP2 SWAP1 POP JUMP JUMPDEST PUSH1 0x0 DUP3 DUP3 MSTORE PUSH1 0x20 DUP3 ADD SWAP1 POP SWAP3 SWAP2 POP POP JUMP JUMPDEST PUSH1 0x0 DUP2 SWAP1 POP PUSH1 0x20 DUP3 ADD SWAP1 POP SWAP2 SWAP1 POP JUMP JUMPDEST PUSH1 0x0 PUSH2 0x1AD1 DUP4 DUP4 PUSH2 0x141C JUMP JUMPDEST PUSH1 0x20 DUP4 ADD SWAP1 POP SWAP3 SWAP2 POP POP JUMP JUMPDEST PUSH1 0x0 PUSH1 0x20 DUP3 ADD SWAP1 POP SWAP2 SWAP1 POP JUMP JUMPDEST PUSH1 0x0 PUSH2 0x1AF5 DUP3 PUSH2 0x1A99 JUMP JUMPDEST PUSH2 0x1AFF DUP2 DUP6 PUSH2 0x1AA4 JUMP JUMPDEST SWAP4 POP PUSH2 0x1B0A DUP4 PUSH2 0x1AB5 JUMP JUMPDEST DUP1 PUSH1 0x0 JUMPDEST DUP4 DUP2 LT ISZERO PUSH2 0x1B3B JUMPI DUP2 MLOAD PUSH2 0x1B22 DUP9 DUP3 PUSH2 0x1AC5 JUMP JUMPDEST SWAP8 POP PUSH2 0x1B2D DUP4 PUSH2 0x1ADD JUMP JUMPDEST SWAP3 POP POP PUSH1 0x1 DUP2 ADD SWAP1 POP PUSH2 0x1B0E JUMP JUMPDEST POP DUP6 SWAP4 POP POP POP POP SWAP3 SWAP2 POP POP JUMP JUMPDEST PUSH1 0x0 PUSH1 0x40 DUP3 ADD SWAP1 POP DUP2 DUP2 SUB PUSH1 0x0 DUP4 ADD MSTORE PUSH2 0x1B62 DUP2 DUP6 PUSH2 0x133A JUMP JUMPDEST SWAP1 POP DUP2 DUP2 SUB PUSH1 0x20 DUP4 ADD MSTORE PUSH2 0x1B76 DUP2 DUP5 PUSH2 0x1AEA JUMP JUMPDEST SWAP1 POP SWAP4 SWAP3 POP POP POP JUMP JUMPDEST PUSH1 0x0 DUP3 DUP3 MSTORE PUSH1 0x20 DUP3 ADD SWAP1 POP SWAP3 SWAP2 POP POP JUMP JUMPDEST PUSH32 0x4F6E6C792061646D696E2063616E20706572666F726D20746869732061637469 PUSH1 0x0 DUP3 ADD MSTORE PUSH32 0x6F6E000000000000000000000000000000000000000000000000000000000000 PUSH1 0x20 DUP3 ADD MSTORE POP JUMP JUMPDEST PUSH1 0x0 PUSH2 0x1BEC PUSH1 0x22 DUP4 PUSH2 0x1B7F JUMP JUMPDEST SWAP2 POP PUSH2 0x1BF7 DUP3 PUSH2 0x1B90 JUMP JUMPDEST PUSH1 0x40 DUP3 ADD SWAP1 POP SWAP2 SWAP1 POP JUMP JUMPDEST PUSH1 0x0 PUSH1 0x20 DUP3 ADD SWAP1 POP DUP2 DUP2 SUB PUSH1 0x0 DUP4 ADD MSTORE PUSH2 0x1C1B DUP2 PUSH2 0x1BDF JUMP JUMPDEST SWAP1 POP SWAP2 SWAP1 POP JUMP JUMPDEST PUSH32 0x4E487B7100000000000000000000000000000000000000000000000000000000 PUSH1 0x0 MSTORE PUSH1 0x32 PUSH1 0x4 MSTORE PUSH1 0x24 PUSH1 0x0 REVERT JUMPDEST PUSH32 0x4E487B7100000000000000000000000000000000000000000000000000000000 PUSH1 0x0 MSTORE PUSH1 0x11 PUSH1 0x4 MSTORE PUSH1 0x24 PUSH1 0x0 REVERT JUMPDEST PUSH1 0x0 PUSH2 0x1C8B DUP3 PUSH2 0x1137 JUMP JUMPDEST SWAP2 POP PUSH32 0xFFFFFFFFFFFFFFFFFFFFFFFFFFFFFFFFFFFFFFFFFFFFFFFFFFFFFFFFFFFFFFFF DUP3 SUB PUSH2 0x1CBD JUMPI PUSH2 0x1CBC PUSH2 0x1C51 JUMP JUMPDEST JUMPDEST PUSH1 0x1 DUP3 ADD SWAP1 POP SWAP2 SWAP1 POP JUMP JUMPDEST PUSH32 0x566F74696E672063616E6E6F7420737461727420756E74696C2063616E646964 PUSH1 0x0 DUP3 ADD MSTORE PUSH32 0x61746573206172652066696E616C697A65642100000000000000000000000000 PUSH1 0x20 DUP3 ADD MSTORE POP JUMP JUMPDEST PUSH1 0x0 PUSH2 0x1D24 PUSH1 0x33 DUP4 PUSH2 0x1B7F JUMP JUMPDEST SWAP2 POP PUSH2 0x1D2F DUP3 PUSH2 0x1CC8 JUMP JUMPDEST PUSH1 0x40 DUP3 ADD SWAP1 POP SWAP2 SWAP1 POP JUMP JUMPDEST PUSH1 0x0 PUSH1 0x20 DUP3 ADD SWAP1 POP DUP2 DUP2 SUB PUSH1 0x0 DUP4 ADD MSTORE PUSH2 0x1D53 DUP2 PUSH2 0x1D17 JUMP JUMPDEST SWAP1 POP SWAP2 SWAP1 POP JUMP JUMPDEST PUSH32 0x4D69736D61746368656420696E707574206C656E677468730000000000000000 PUSH1 0x0 DUP3 ADD MSTORE POP JUMP JUMPDEST PUSH1 0x0 PUSH2 0x1D90 PUSH1 0x18 DUP4 PUSH2 0x1B7F JUMP JUMPDEST SWAP2 POP PUSH2 0x1D9B DUP3 PUSH2 0x1D5A JUMP JUMPDEST PUSH1 0x20 DUP3 ADD SWAP1 POP SWAP2 SWAP1 POP JUMP JUMPDEST PUSH1 0x0 PUSH1 0x20 DUP3 ADD SWAP1 POP DUP2 DUP2 SUB PUSH1 0x0 DUP4 ADD MSTORE PUSH2 0x1DBF DUP2 PUSH2 0x1D83 JUMP JUMPDEST SWAP1 POP SWAP2 SWAP1 POP JUMP JUMPDEST PUSH32 0x566F7465722068617320616C726561647920766F746564000000000000000000 PUSH1 0x0 DUP3 ADD MSTORE POP JUMP JUMPDEST PUSH1 0x0 PUSH2 0x1DFC PUSH1 0x17 DUP4 PUSH2 0x1B7F JUMP JUMPDEST SWAP2 POP PUSH2 0x1E07 DUP3 PUSH2 0x1DC6 JUMP JUMPDEST PUSH1 0x20 DUP3 ADD SWAP1 POP SWAP2 SWAP1 POP JUMP JUMPDEST PUSH1 0x0 PUSH1 0x20 DUP3 ADD SWAP1 POP DUP2 DUP2 SUB PUSH1 0x0 DUP4 ADD MSTORE PUSH2 0x1E2B DUP2 PUSH2 0x1DEF JUMP JUMPDEST SWAP1 POP SWAP2 SWAP1 POP JUMP JUMPDEST PUSH32 0x496E76616C69642063616E64696461746520696E646578000000000000000000 PUSH1 0x0 DUP3 ADD MSTORE POP JUMP JUMPDEST PUSH1 0x0 PUSH2 0x1E68 PUSH1 0x17 DUP4 PUSH2 0x1B7F JUMP JUMPDEST SWAP2 POP PUSH2 0x1E73 DUP3 PUSH2 0x1E32 JUMP JUMPDEST PUSH1 0x20 DUP3 ADD SWAP1 POP SWAP2 SWAP1 POP JUMP JUMPDEST PUSH1 0x0 PUSH1 0x20 DUP3 ADD SWAP1 POP DUP2 DUP2 SUB PUSH1 0x0 DUP4 ADD MSTORE PUSH2 0x1E97 DUP2 PUSH2 0x1E5B JUMP JUMPDEST SWAP1 POP SWAP2 SWAP1 POP JUMP JUMPDEST PUSH2 0x1EA7 DUP2 PUSH2 0x1101 JUMP JUMPDEST DUP3 MSTORE POP POP JUMP JUMPDEST PUSH1 0x0 PUSH1 0x60 DUP3 ADD SWAP1 POP PUSH2 0x1EC2 PUSH1 0x0 DUP4 ADD DUP7 PUSH2 0x1E9E JUMP JUMPDEST PUSH2 0x1ECF PUSH1 0x20 DUP4 ADD DUP6 PUSH2 0x1E9E JUMP JUMPDEST PUSH2 0x1EDC PUSH1 0x40 DUP4 ADD DUP5 PUSH2 0x1E9E JUMP JUMPDEST SWAP5 SWAP4 POP POP POP POP JUMP JUMPDEST PUSH32 0x43616E646964617465732061726520616C72656164792066696E616C697A6564 PUSH1 0x0 DUP3 ADD MSTORE PUSH32 0x2100000000000000000000000000000000000000000000000000000000000000 PUSH1 0x20 DUP3 ADD MSTORE POP JUMP JUMPDEST PUSH1 0x0 PUSH2 0x1F40 PUSH1 0x21 DUP4 PUSH2 0x1B7F JUMP JUMPDEST SWAP2 POP PUSH2 0x1F4B DUP3 PUSH2 0x1EE4 JUMP JUMPDEST PUSH1 0x40 DUP3 ADD SWAP1 POP SWAP2 SWAP1 POP JUMP JUMPDEST PUSH1 0x0 PUSH1 0x20 DUP3 ADD SWAP1 POP DUP2 DUP2 SUB PUSH1 0x0 DUP4 ADD MSTORE PUSH2 0x1F6F DUP2 PUSH2 0x1F33 JUMP JUMPDEST SWAP1 POP SWAP2 SWAP1 POP JUMP JUMPDEST PUSH1 0x0 PUSH2 0x1F81 DUP3 PUSH2 0x1137 JUMP JUMPDEST SWAP2 POP PUSH2 0x1F8C DUP4 PUSH2 0x1137 JUMP JUMPDEST SWAP3 POP DUP3 DUP3 ADD SWAP1 POP DUP1 DUP3 GT ISZERO PUSH2 0x1FA4 JUMPI PUSH2 0x1FA3 PUSH2 0x1C51 JUMP JUMPDEST JUMPDEST SWAP3 SWAP2 POP POP JUMP INVALID LOG2 PUSH5 0x6970667358 0x22 SLT KECCAK256 0x4C 0xCE 0xC0 PUSH6 0xF7248DCFCF44 0xC8 PUSH22 0x3B388FE109E1BF25E037E718C533F747B286AF6E6473 PUSH16 0x6C634300081500330000000000000000 "},"methodIdentifiers":{"admin()":"f851a440","batchVote(bytes32[],uint256[],bytes32)":"e7d8e8ad","getCandidates(bytes32)":"85b923ca","getPositionList()":"a5d3157e","getVoteCounts()":"ffc97b20","getVoterHashes(bytes32,uint256)":"70918ce3","getWinners()":"df15c37e","isFinalized()":"8d4e4083","resetCandidates()":"7718d9f3","submitCandidates(bytes32[],(bytes32,bytes32)[][])":"ebd7d41f"}}}}}