{"contracts/AdminCandidates.sol":{"AdminCandidates":{"abi":[{"inputs":[],"stateMutability":"nonpayable","type":"constructor"},{"anonymous":false,"inputs":[],"name":"CandidatesReset","type":"event"},{"anonymous":false,"inputs":[],"name":"CandidatesSubmitted","type":"event"},{"anonymous":false,"inputs":[{"indexed":false,"internalType":"string","name":"position","type":"string"},{"indexed":false,"internalType":"bytes32","name":"name","type":"bytes32"},{"indexed":false,"internalType":"string","name":"voterHash","type":"string"}],"name":"VoteSubmitted","type":"event"},{"inputs":[],"name":"admin","outputs":[{"internalType":"address","name":"","type":"address"}],"stateMutability":"view","type":"function"},{"inputs":[{"internalType":"string[]","name":"_positions","type":"string[]"},{"internalType":"uint256[]","name":"_indices","type":"uint256[]"},{"internalType":"string","name":"_voterHash","type":"string"}],"name":"batchVote","outputs":[],"stateMutability":"nonpayable","type":"function"},{"inputs":[{"internalType":"string","name":"_position","type":"string"}],"name":"getCandidates","outputs":[{"components":[{"internalType":"bytes32","name":"name","type":"bytes32"},{"internalType":"bytes32","name":"party","type":"bytes32"},{"internalType":"string","name":"position","type":"string"},{"internalType":"uint256","name":"votes","type":"uint256"}],"internalType":"struct AdminCandidates.Candidate[]","name":"","type":"tuple[]"}],"stateMutability":"view","type":"function"},{"inputs":[],"name":"getVoteCounts","outputs":[{"components":[{"internalType":"bytes32","name":"name","type":"bytes32"},{"internalType":"bytes32","name":"party","type":"bytes32"},{"internalType":"string","name":"position","type":"string"},{"internalType":"uint256","name":"votes","type":"uint256"}],"internalType":"struct AdminCandidates.Candidate[]","name":"","type":"tuple[]"}],"stateMutability":"view","type":"function"},{"inputs":[],"name":"isFinalized","outputs":[{"internalType":"bool","name":"","type":"bool"}],"stateMutability":"view","type":"function"},{"inputs":[],"name":"resetCandidates","outputs":[],"stateMutability":"nonpayable","type":"function"},{"inputs":[{"internalType":"string[]","name":"_positions","type":"string[]"},{"internalType":"bytes32[][]","name":"_names","type":"bytes32[][]"},{"internalType":"bytes32[][]","name":"_parties","type":"bytes32[][]"}],"name":"submitCandidates","outputs":[],"stateMutability":"nonpayable","type":"function"}],"evm":{"bytecode":{"linkReferences":{},"object":"60806040526000600360146101000a81548160ff02191690831515021790555034801561002b57600080fd5b5033600360006101000a81548173ffffffffffffffffffffffffffffffffffffffff021916908373ffffffffffffffffffffffffffffffffffffffff160217905550611e0d8061007c6000396000f3fe608060405234801561001057600080fd5b506004361061007d5760003560e01c80638d4e40831161005b5780638d4e4083146100d8578063b0918e8a146100f6578063f851a44014610112578063ffc97b20146101305761007d565b80634340bcaa14610082578063455347631461009e5780637718d9f3146100ce575b600080fd5b61009c6004803603810190610097919061108b565b61014e565b005b6100b860048036038101906100b39190611132565b61035b565b6040516100c59190611347565b60405180910390f35b6100d6610488565b005b6100e06105da565b6040516100ed9190611384565b60405180910390f35b610110600480360381019061010b919061156f565b6105ed565b005b61011a610992565b6040516101279190611657565b60405180910390f35b6101386109b8565b6040516101459190611347565b60405180910390f35b600360149054906101000a900460ff1661019d576040517f08c379a0000000000000000000000000000000000000000000000000000000008152600401610194906116f5565b60405180910390fd5b81518351146101e1576040517f08c379a00000000000000000000000000000000000000000000000000000000081526004016101d890611761565b60405180910390fd5b60005b835181101561035557600084828151811061020257610201611781565b5b602002602001015160405161021791906117ec565b908152602001604051809103902083828151811061023857610237611781565b5b60200260200101518154811061025157610250611781565b5b9060005260206000209060040201600301600081548092919061027390611832565b91905055507f2bed0f57f913f9b91cf2fce2852d0b5ab63e42fb29d86cb0ddca1a478ff819f08482815181106102ac576102ab611781565b5b602002602001015160008684815181106102c9576102c8611781565b5b60200260200101516040516102de91906117ec565b90815260200160405180910390208584815181106102ff576102fe611781565b5b60200260200101518154811061031857610317611781565b5b9060005260206000209060040201600001548460405161033a939291906118c2565b60405180910390a1808061034d90611832565b9150506101e4565b50505050565b606060008260405161036d91906117ec565b9081526020016040518091039020805480602002602001604051908101604052809291908181526020016000905b8282101561047d578382906000526020600020906004020160405180608001604052908160008201548152602001600182015481526020016002820180546103e290611936565b80601f016020809104026020016040519081016040528092919081815260200182805461040e90611936565b801561045b5780601f106104305761010080835404028352916020019161045b565b820191906000526020600020905b81548152906001019060200180831161043e57829003601f168201915b505050505081526020016003820154815250508152602001906001019061039b565b505050509050919050565b600360009054906101000a900473ffffffffffffffffffffffffffffffffffffffff1673ffffffffffffffffffffffffffffffffffffffff163373ffffffffffffffffffffffffffffffffffffffff1614610518576040517f08c379a000000000000000000000000000000000000000000000000000000000815260040161050f906119d9565b60405180910390fd5b60005b6002805490508110156105825760006002828154811061053e5761053d611781565b5b906000526020600020016040516105559190611a91565b9081526020016040518091039020600061056f9190610c1f565b808061057a90611832565b91505061051b565b50600260006105919190610c43565b6000600360146101000a81548160ff0219169083151502179055507f800bdaa40887ccfd790fdc79f47cf3acbb2a1ecf28b3bccb67e3719009c1bab260405160405180910390a1565b600360149054906101000a900460ff1681565b600360009054906101000a900473ffffffffffffffffffffffffffffffffffffffff1673ffffffffffffffffffffffffffffffffffffffff163373ffffffffffffffffffffffffffffffffffffffff161461067d576040517f08c379a0000000000000000000000000000000000000000000000000000000008152600401610674906119d9565b60405180910390fd5b600360149054906101000a900460ff16156106cd576040517f08c379a00000000000000000000000000000000000000000000000000000000081526004016106c490611b1a565b60405180910390fd5b600260006106db9190610c43565b60005b8351811015610945576000808583815181106106fd576106fc611781565b5b602002602001015160405161071291906117ec565b9081526020016040518091039020805490500361077957600284828151811061073e5761073d611781565b5b60200260200101519080600181540180825580915050600190039060005260206000200160009091909190915090816107779190611cd1565b505b600084828151811061078e5761078d611781565b5b60200260200101516040516107a391906117ec565b908152602001604051809103902060006107bd9190610c1f565b60005b8382815181106107d3576107d2611781565b5b6020026020010151518110156109315760008583815181106107f8576107f7611781565b5b602002602001015160405161080d91906117ec565b9081526020016040518091039020604051806080016040528086858151811061083957610838611781565b5b6020026020010151848151811061085357610852611781565b5b6020026020010151815260200185858151811061087357610872611781565b5b6020026020010151848151811061088d5761088c611781565b5b602002602001015181526020018785815181106108ad576108ac611781565b5b6020026020010151815260200160008152509080600181540180825580915050600190039060005260206000209060040201600090919091909150600082015181600001556020820151816001015560408201518160020190816109119190611cd1565b50606082015181600301555050808061092990611832565b9150506107c0565b50808061093d90611832565b9150506106de565b506001600360146101000a81548160ff0219169083151502179055507f86825b43264ca968e676c45c8e05cc56965ff5938ed49dcf636c61acb7070bd760405160405180910390a1505050565b600360009054906101000a900473ffffffffffffffffffffffffffffffffffffffff1681565b6060600080600090505b600280549050811015610a2e576000600282815481106109e5576109e4611781565b5b906000526020600020016040516109fc9190611a91565b90815260200160405180910390208054905082610a199190611da3565b91508080610a2690611832565b9150506109c2565b5060008167ffffffffffffffff811115610a4b57610a4a610d7c565b5b604051908082528060200260200182016040528015610a8457816020015b610a71610c64565b815260200190600190039081610a695790505b5090506000805b600280549050811015610c155760008060028381548110610aaf57610aae611781565b5b90600052602060002001604051610ac69190611a91565b9081526020016040518091039020905060005b8180549050811015610c0057818181548110610af857610af7611781565b5b90600052602060002090600402016040518060800160405290816000820154815260200160018201548152602001600282018054610b3590611936565b80601f0160208091040260200160405190810160405280929190818152602001828054610b6190611936565b8015610bae5780601f10610b8357610100808354040283529160200191610bae565b820191906000526020600020905b815481529060010190602001808311610b9157829003601f168201915b50505050508152602001600382015481525050858581518110610bd457610bd3611781565b5b60200260200101819052508380610bea90611832565b9450508080610bf890611832565b915050610ad9565b50508080610c0d90611832565b915050610a8b565b5081935050505090565b5080546000825560040290600052602060002090810190610c409190610c92565b50565b5080546000825590600052602060002090810190610c619190610cd1565b50565b6040518060800160405280600080191681526020016000801916815260200160608152602001600081525090565b5b80821115610ccd576000808201600090556001820160009055600282016000610cbc9190610cf5565b600382016000905550600401610c93565b5090565b5b80821115610cf15760008181610ce89190610cf5565b50600101610cd2565b5090565b508054610d0190611936565b6000825580601f10610d135750610d32565b601f016020900490600052602060002090810190610d319190610d35565b5b50565b5b80821115610d4e576000816000905550600101610d36565b5090565b6000604051905090565b600080fd5b600080fd5b600080fd5b6000601f19601f8301169050919050565b7f4e487b7100000000000000000000000000000000000000000000000000000000600052604160045260246000fd5b610db482610d6b565b810181811067ffffffffffffffff82111715610dd357610dd2610d7c565b5b80604052505050565b6000610de6610d52565b9050610df28282610dab565b919050565b600067ffffffffffffffff821115610e1257610e11610d7c565b5b602082029050602081019050919050565b600080fd5b600080fd5b600067ffffffffffffffff821115610e4857610e47610d7c565b5b610e5182610d6b565b9050602081019050919050565b82818337600083830152505050565b6000610e80610e7b84610e2d565b610ddc565b905082815260208101848484011115610e9c57610e9b610e28565b5b610ea7848285610e5e565b509392505050565b600082601f830112610ec457610ec3610d66565b5b8135610ed4848260208601610e6d565b91505092915050565b6000610ef0610eeb84610df7565b610ddc565b90508083825260208201905060208402830185811115610f1357610f12610e23565b5b835b81811015610f5a57803567ffffffffffffffff811115610f3857610f37610d66565b5b808601610f458982610eaf565b85526020850194505050602081019050610f15565b5050509392505050565b600082601f830112610f7957610f78610d66565b5b8135610f89848260208601610edd565b91505092915050565b600067ffffffffffffffff821115610fad57610fac610d7c565b5b602082029050602081019050919050565b6000819050919050565b610fd181610fbe565b8114610fdc57600080fd5b50565b600081359050610fee81610fc8565b92915050565b600061100761100284610f92565b610ddc565b9050808382526020820190506020840283018581111561102a57611029610e23565b5b835b81811015611053578061103f8882610fdf565b84526020840193505060208101905061102c565b5050509392505050565b600082601f83011261107257611071610d66565b5b8135611082848260208601610ff4565b91505092915050565b6000806000606084860312156110a4576110a3610d5c565b5b600084013567ffffffffffffffff8111156110c2576110c1610d61565b5b6110ce86828701610f64565b935050602084013567ffffffffffffffff8111156110ef576110ee610d61565b5b6110fb8682870161105d565b925050604084013567ffffffffffffffff81111561111c5761111b610d61565b5b61112886828701610eaf565b9150509250925092565b60006020828403121561114857611147610d5c565b5b600082013567ffffffffffffffff81111561116657611165610d61565b5b61117284828501610eaf565b91505092915050565b600081519050919050565b600082825260208201905092915050565b6000819050602082019050919050565b6000819050919050565b6111ba816111a7565b82525050565b600081519050919050565b600082825260208201905092915050565b60005b838110156111fa5780820151818401526020810190506111df565b60008484015250505050565b6000611211826111c0565b61121b81856111cb565b935061122b8185602086016111dc565b61123481610d6b565b840191505092915050565b61124881610fbe565b82525050565b600060808301600083015161126660008601826111b1565b50602083015161127960208601826111b1565b50604083015184820360408601526112918282611206565b91505060608301516112a6606086018261123f565b508091505092915050565b60006112bd838361124e565b905092915050565b6000602082019050919050565b60006112dd8261117b565b6112e78185611186565b9350836020820285016112f985611197565b8060005b85811015611335578484038952815161131685826112b1565b9450611321836112c5565b925060208a019950506001810190506112fd565b50829750879550505050505092915050565b6000602082019050818103600083015261136181846112d2565b905092915050565b60008115159050919050565b61137e81611369565b82525050565b60006020820190506113996000830184611375565b92915050565b600067ffffffffffffffff8211156113ba576113b9610d7c565b5b602082029050602081019050919050565b600067ffffffffffffffff8211156113e6576113e5610d7c565b5b602082029050602081019050919050565b611400816111a7565b811461140b57600080fd5b50565b60008135905061141d816113f7565b92915050565b6000611436611431846113cb565b610ddc565b9050808382526020820190506020840283018581111561145957611458610e23565b5b835b81811015611482578061146e888261140e565b84526020840193505060208101905061145b565b5050509392505050565b600082601f8301126114a1576114a0610d66565b5b81356114b1848260208601611423565b91505092915050565b60006114cd6114c88461139f565b610ddc565b905080838252602082019050602084028301858111156114f0576114ef610e23565b5b835b8181101561153757803567ffffffffffffffff81111561151557611514610d66565b5b808601611522898261148c565b855260208501945050506020810190506114f2565b5050509392505050565b600082601f83011261155657611555610d66565b5b81356115668482602086016114ba565b91505092915050565b60008060006060848603121561158857611587610d5c565b5b600084013567ffffffffffffffff8111156115a6576115a5610d61565b5b6115b286828701610f64565b935050602084013567ffffffffffffffff8111156115d3576115d2610d61565b5b6115df86828701611541565b925050604084013567ffffffffffffffff811115611600576115ff610d61565b5b61160c86828701611541565b9150509250925092565b600073ffffffffffffffffffffffffffffffffffffffff82169050919050565b600061164182611616565b9050919050565b61165181611636565b82525050565b600060208201905061166c6000830184611648565b92915050565b600082825260208201905092915050565b7f566f74696e672063616e6e6f7420737461727420756e74696c2063616e64696460008201527f61746573206172652066696e616c697a65642100000000000000000000000000602082015250565b60006116df603383611672565b91506116ea82611683565b604082019050919050565b6000602082019050818103600083015261170e816116d2565b9050919050565b7f4d69736d61746368656420696e707574206c656e677468730000000000000000600082015250565b600061174b601883611672565b915061175682611715565b602082019050919050565b6000602082019050818103600083015261177a8161173e565b9050919050565b7f4e487b7100000000000000000000000000000000000000000000000000000000600052603260045260246000fd5b600081905092915050565b60006117c6826111c0565b6117d081856117b0565b93506117e08185602086016111dc565b80840191505092915050565b60006117f882846117bb565b915081905092915050565b7f4e487b7100000000000000000000000000000000000000000000000000000000600052601160045260246000fd5b600061183d82610fbe565b91507fffffffffffffffffffffffffffffffffffffffffffffffffffffffffffffffff820361186f5761186e611803565b5b600182019050919050565b6000611885826111c0565b61188f8185611672565b935061189f8185602086016111dc565b6118a881610d6b565b840191505092915050565b6118bc816111a7565b82525050565b600060608201905081810360008301526118dc818661187a565b90506118eb60208301856118b3565b81810360408301526118fd818461187a565b9050949350505050565b7f4e487b7100000000000000000000000000000000000000000000000000000000600052602260045260246000fd5b6000600282049050600182168061194e57607f821691505b60208210810361196157611960611907565b5b50919050565b7f4f6e6c792061646d696e2063616e20706572666f726d2074686973206163746960008201527f6f6e000000000000000000000000000000000000000000000000000000000000602082015250565b60006119c3602283611672565b91506119ce82611967565b604082019050919050565b600060208201905081810360008301526119f2816119b6565b9050919050565b60008190508160005260206000209050919050565b60008154611a1b81611936565b611a2581866117b0565b94506001821660008114611a405760018114611a5557611a88565b60ff1983168652811515820286019350611a88565b611a5e856119f9565b60005b83811015611a8057815481890152600182019150602081019050611a61565b838801955050505b50505092915050565b6000611a9d8284611a0e565b915081905092915050565b7f43616e646964617465732061726520616c72656164792066696e616c697a656460008201527f2100000000000000000000000000000000000000000000000000000000000000602082015250565b6000611b04602183611672565b9150611b0f82611aa8565b604082019050919050565b60006020820190508181036000830152611b3381611af7565b9050919050565b60006020601f8301049050919050565b600082821b905092915050565b600060088302611b877fffffffffffffffffffffffffffffffffffffffffffffffffffffffffffffffff82611b4a565b611b918683611b4a565b95508019841693508086168417925050509392505050565b6000819050919050565b6000611bce611bc9611bc484610fbe565b611ba9565b610fbe565b9050919050565b6000819050919050565b611be883611bb3565b611bfc611bf482611bd5565b848454611b57565b825550505050565b600090565b611c11611c04565b611c1c818484611bdf565b505050565b5b81811015611c4057611c35600082611c09565b600181019050611c22565b5050565b601f821115611c8557611c56816119f9565b611c5f84611b3a565b81016020851015611c6e578190505b611c82611c7a85611b3a565b830182611c21565b50505b505050565b600082821c905092915050565b6000611ca860001984600802611c8a565b1980831691505092915050565b6000611cc18383611c97565b9150826002028217905092915050565b611cda826111c0565b67ffffffffffffffff811115611cf357611cf2610d7c565b5b611cfd8254611936565b611d08828285611c44565b600060209050601f831160018114611d3b5760008415611d29578287015190505b611d338582611cb5565b865550611d9b565b601f198416611d49866119f9565b60005b82811015611d7157848901518255600182019150602085019450602081019050611d4c565b86831015611d8e5784890151611d8a601f891682611c97565b8355505b6001600288020188555050505b505050505050565b6000611dae82610fbe565b9150611db983610fbe565b9250828201905080821115611dd157611dd0611803565b5b9291505056fea2646970667358221220149556140297c92b87f455a0053b873a7d7276dd77a4380483d5ddb717c1b4fa64736f6c63430008150033","opcodes":"PUSH1 0x80 PUSH1 0x40 MSTORE PUSH1 0x0 PUSH1 0x3 PUSH1 0x14 PUSH2 0x100 EXP DUP2 SLOAD DUP2 PUSH1 0xFF MUL NOT AND SWAP1 DUP4 ISZERO ISZERO MUL OR SWAP1 SSTORE POP CALLVALUE DUP1 ISZERO PUSH2 0x2B JUMPI PUSH1 0x0 DUP1 REVERT JUMPDEST POP CALLER PUSH1 0x3 PUSH1 0x0 PUSH2 0x100 EXP DUP2 SLOAD DUP2 PUSH20 0xFFFFFFFFFFFFFFFFFFFFFFFFFFFFFFFFFFFFFFFF MUL NOT AND SWAP1 DUP4 PUSH20 0xFFFFFFFFFFFFFFFFFFFFFFFFFFFFFFFFFFFFFFFF AND MUL OR SWAP1 SSTORE POP PUSH2 0x1E0D DUP1 PUSH2 0x7C PUSH1 0x0 CODECOPY PUSH1 0x0 RETURN INVALID PUSH1 0x80 PUSH1 0x40 MSTORE CALLVALUE DUP1 ISZERO PUSH2 0x10 JUMPI PUSH1 0x0 DUP1 REVERT JUMPDEST POP PUSH1 0x4 CALLDATASIZE LT PUSH2 0x7D JUMPI PUSH1 0x0 CALLDATALOAD PUSH1 0xE0 SHR DUP1 PUSH4 0x8D4E4083 GT PUSH2 0x5B JUMPI DUP1 PUSH4 0x8D4E4083 EQ PUSH2 0xD8 JUMPI DUP1 PUSH4 0xB0918E8A EQ PUSH2 0xF6 JUMPI DUP1 PUSH4 0xF851A440 EQ PUSH2 0x112 JUMPI DUP1 PUSH4 0xFFC97B20 EQ PUSH2 0x130 JUMPI PUSH2 0x7D JUMP JUMPDEST DUP1 PUSH4 0x4340BCAA EQ PUSH2 0x82 JUMPI DUP1 PUSH4 0x45534763 EQ PUSH2 0x9E JUMPI DUP1 PUSH4 0x7718D9F3 EQ PUSH2 0xCE JUMPI JUMPDEST PUSH1 0x0 DUP1 REVERT JUMPDEST PUSH2 0x9C PUSH1 0x4 DUP1 CALLDATASIZE SUB DUP2 ADD SWAP1 PUSH2 0x97 SWAP2 SWAP1 PUSH2 0x108B JUMP JUMPDEST PUSH2 0x14E JUMP JUMPDEST STOP JUMPDEST PUSH2 0xB8 PUSH1 0x4 DUP1 CALLDATASIZE SUB DUP2 ADD SWAP1 PUSH2 0xB3 SWAP2 SWAP1 PUSH2 0x1132 JUMP JUMPDEST PUSH2 0x35B JUMP JUMPDEST PUSH1 0x40 MLOAD PUSH2 0xC5 SWAP2 SWAP1 PUSH2 0x1347 JUMP JUMPDEST PUSH1 0x40 MLOAD DUP1 SWAP2 SUB SWAP1 RETURN JUMPDEST PUSH2 0xD6 PUSH2 0x488 JUMP JUMPDEST STOP JUMPDEST PUSH2 0xE0 PUSH2 0x5DA JUMP JUMPDEST PUSH1 0x40 MLOAD PUSH2 0xED SWAP2 SWAP1 PUSH2 0x1384 JUMP JUMPDEST PUSH1 0x40 MLOAD DUP1 SWAP2 SUB SWAP1 RETURN JUMPDEST PUSH2 0x110 PUSH1 0x4 DUP1 CALLDATASIZE SUB DUP2 ADD SWAP1 PUSH2 0x10B SWAP2 SWAP1 PUSH2 0x156F JUMP JUMPDEST PUSH2 0x5ED JUMP JUMPDEST STOP JUMPDEST PUSH2 0x11A PUSH2 0x992 JUMP JUMPDEST PUSH1 0x40 MLOAD PUSH2 0x127 SWAP2 SWAP1 PUSH2 0x1657 JUMP JUMPDEST PUSH1 0x40 MLOAD DUP1 SWAP2 SUB SWAP1 RETURN JUMPDEST PUSH2 0x138 PUSH2 0x9B8 JUMP JUMPDEST PUSH1 0x40 MLOAD PUSH2 0x145 SWAP2 SWAP1 PUSH2 0x1347 JUMP JUMPDEST PUSH1 0x40 MLOAD DUP1 SWAP2 SUB SWAP1 RETURN JUMPDEST PUSH1 0x3 PUSH1 0x14 SWAP1 SLOAD SWAP1 PUSH2 0x100 EXP SWAP1 DIV PUSH1 0xFF AND PUSH2 0x19D JUMPI PUSH1 0x40 MLOAD PUSH32 0x8C379A000000000000000000000000000000000000000000000000000000000 DUP2 MSTORE PUSH1 0x4 ADD PUSH2 0x194 SWAP1 PUSH2 0x16F5 JUMP JUMPDEST PUSH1 0x40 MLOAD DUP1 SWAP2 SUB SWAP1 REVERT JUMPDEST DUP2 MLOAD DUP4 MLOAD EQ PUSH2 0x1E1 JUMPI PUSH1 0x40 MLOAD PUSH32 0x8C379A000000000000000000000000000000000000000000000000000000000 DUP2 MSTORE PUSH1 0x4 ADD PUSH2 0x1D8 SWAP1 PUSH2 0x1761 JUMP JUMPDEST PUSH1 0x40 MLOAD DUP1 SWAP2 SUB SWAP1 REVERT JUMPDEST PUSH1 0x0 JUMPDEST DUP4 MLOAD DUP2 LT ISZERO PUSH2 0x355 JUMPI PUSH1 0x0 DUP5 DUP3 DUP2 MLOAD DUP2 LT PUSH2 0x202 JUMPI PUSH2 0x201 PUSH2 0x1781 JUMP JUMPDEST JUMPDEST PUSH1 0x20 MUL PUSH1 0x20 ADD ADD MLOAD PUSH1 0x40 MLOAD PUSH2 0x217 SWAP2 SWAP1 PUSH2 0x17EC JUMP JUMPDEST SWAP1 DUP2 MSTORE PUSH1 0x20 ADD PUSH1 0x40 MLOAD DUP1 SWAP2 SUB SWAP1 KECCAK256 DUP4 DUP3 DUP2 MLOAD DUP2 LT PUSH2 0x238 JUMPI PUSH2 0x237 PUSH2 0x1781 JUMP JUMPDEST JUMPDEST PUSH1 0x20 MUL PUSH1 0x20 ADD ADD MLOAD DUP2 SLOAD DUP2 LT PUSH2 0x251 JUMPI PUSH2 0x250 PUSH2 0x1781 JUMP JUMPDEST JUMPDEST SWAP1 PUSH1 0x0 MSTORE PUSH1 0x20 PUSH1 0x0 KECCAK256 SWAP1 PUSH1 0x4 MUL ADD PUSH1 0x3 ADD PUSH1 0x0 DUP2 SLOAD DUP1 SWAP3 SWAP2 SWAP1 PUSH2 0x273 SWAP1 PUSH2 0x1832 JUMP JUMPDEST SWAP2 SWAP1 POP SSTORE POP PUSH32 0x2BED0F57F913F9B91CF2FCE2852D0B5AB63E42FB29D86CB0DDCA1A478FF819F0 DUP5 DUP3 DUP2 MLOAD DUP2 LT PUSH2 0x2AC JUMPI PUSH2 0x2AB PUSH2 0x1781 JUMP JUMPDEST JUMPDEST PUSH1 0x20 MUL PUSH1 0x20 ADD ADD MLOAD PUSH1 0x0 DUP7 DUP5 DUP2 MLOAD DUP2 LT PUSH2 0x2C9 JUMPI PUSH2 0x2C8 PUSH2 0x1781 JUMP JUMPDEST JUMPDEST PUSH1 0x20 MUL PUSH1 0x20 ADD ADD MLOAD PUSH1 0x40 MLOAD PUSH2 0x2DE SWAP2 SWAP1 PUSH2 0x17EC JUMP JUMPDEST SWAP1 DUP2 MSTORE PUSH1 0x20 ADD PUSH1 0x40 MLOAD DUP1 SWAP2 SUB SWAP1 KECCAK256 DUP6 DUP5 DUP2 MLOAD DUP2 LT PUSH2 0x2FF JUMPI PUSH2 0x2FE PUSH2 0x1781 JUMP JUMPDEST JUMPDEST PUSH1 0x20 MUL PUSH1 0x20 ADD ADD MLOAD DUP2 SLOAD DUP2 LT PUSH2 0x318 JUMPI PUSH2 0x317 PUSH2 0x1781 JUMP JUMPDEST JUMPDEST SWAP1 PUSH1 0x0 MSTORE PUSH1 0x20 PUSH1 0x0 KECCAK256 SWAP1 PUSH1 0x4 MUL ADD PUSH1 0x0 ADD SLOAD DUP5 PUSH1 0x40 MLOAD PUSH2 0x33A SWAP4 SWAP3 SWAP2 SWAP1 PUSH2 0x18C2 JUMP JUMPDEST PUSH1 0x40 MLOAD DUP1 SWAP2 SUB SWAP1 LOG1 DUP1 DUP1 PUSH2 0x34D SWAP1 PUSH2 0x1832 JUMP JUMPDEST SWAP2 POP POP PUSH2 0x1E4 JUMP JUMPDEST POP POP POP POP JUMP JUMPDEST PUSH1 0x60 PUSH1 0x0 DUP3 PUSH1 0x40 MLOAD PUSH2 0x36D SWAP2 SWAP1 PUSH2 0x17EC JUMP JUMPDEST SWAP1 DUP2 MSTORE PUSH1 0x20 ADD PUSH1 0x40 MLOAD DUP1 SWAP2 SUB SWAP1 KECCAK256 DUP1 SLOAD DUP1 PUSH1 0x20 MUL PUSH1 0x20 ADD PUSH1 0x40 MLOAD SWAP1 DUP2 ADD PUSH1 0x40 MSTORE DUP1 SWAP3 SWAP2 SWAP1 DUP2 DUP2 MSTORE PUSH1 0x20 ADD PUSH1 0x0 SWAP1 JUMPDEST DUP3 DUP3 LT ISZERO PUSH2 0x47D JUMPI DUP4 DUP3 SWAP1 PUSH1 0x0 MSTORE PUSH1 0x20 PUSH1 0x0 KECCAK256 SWAP1 PUSH1 0x4 MUL ADD PUSH1 0x40 MLOAD DUP1 PUSH1 0x80 ADD PUSH1 0x40 MSTORE SWAP1 DUP2 PUSH1 0x0 DUP3 ADD SLOAD DUP2 MSTORE PUSH1 0x20 ADD PUSH1 0x1 DUP3 ADD SLOAD DUP2 MSTORE PUSH1 0x20 ADD PUSH1 0x2 DUP3 ADD DUP1 SLOAD PUSH2 0x3E2 SWAP1 PUSH2 0x1936 JUMP JUMPDEST DUP1 PUSH1 0x1F ADD PUSH1 0x20 DUP1 SWAP2 DIV MUL PUSH1 0x20 ADD PUSH1 0x40 MLOAD SWAP1 DUP2 ADD PUSH1 0x40 MSTORE DUP1 SWAP3 SWAP2 SWAP1 DUP2 DUP2 MSTORE PUSH1 0x20 ADD DUP3 DUP1 SLOAD PUSH2 0x40E SWAP1 PUSH2 0x1936 JUMP JUMPDEST DUP1 ISZERO PUSH2 0x45B JUMPI DUP1 PUSH1 0x1F LT PUSH2 0x430 JUMPI PUSH2 0x100 DUP1 DUP4 SLOAD DIV MUL DUP4 MSTORE SWAP2 PUSH1 0x20 ADD SWAP2 PUSH2 0x45B JUMP JUMPDEST DUP3 ADD SWAP2 SWAP1 PUSH1 0x0 MSTORE PUSH1 0x20 PUSH1 0x0 KECCAK256 SWAP1 JUMPDEST DUP2 SLOAD DUP2 MSTORE SWAP1 PUSH1 0x1 ADD SWAP1 PUSH1 0x20 ADD DUP1 DUP4 GT PUSH2 0x43E JUMPI DUP3 SWAP1 SUB PUSH1 0x1F AND DUP3 ADD SWAP2 JUMPDEST POP POP POP POP POP DUP2 MSTORE PUSH1 0x20 ADD PUSH1 0x3 DUP3 ADD SLOAD DUP2 MSTORE POP POP DUP2 MSTORE PUSH1 0x20 ADD SWAP1 PUSH1 0x1 ADD SWAP1 PUSH2 0x39B JUMP JUMPDEST POP POP POP POP SWAP1 POP SWAP2 SWAP1 POP JUMP JUMPDEST PUSH1 0x3 PUSH1 0x0 SWAP1 SLOAD SWAP1 PUSH2 0x100 EXP SWAP1 DIV PUSH20 0xFFFFFFFFFFFFFFFFFFFFFFFFFFFFFFFFFFFFFFFF AND PUSH20 0xFFFFFFFFFFFFFFFFFFFFFFFFFFFFFFFFFFFFFFFF AND CALLER PUSH20 0xFFFFFFFFFFFFFFFFFFFFFFFFFFFFFFFFFFFFFFFF AND EQ PUSH2 0x518 JUMPI PUSH1 0x40 MLOAD PUSH32 0x8C379A000000000000000000000000000000000000000000000000000000000 DUP2 MSTORE PUSH1 0x4 ADD PUSH2 0x50F SWAP1 PUSH2 0x19D9 JUMP JUMPDEST PUSH1 0x40 MLOAD DUP1 SWAP2 SUB SWAP1 REVERT JUMPDEST PUSH1 0x0 JUMPDEST PUSH1 0x2 DUP1 SLOAD SWAP1 POP DUP2 LT ISZERO PUSH2 0x582 JUMPI PUSH1 0x0 PUSH1 0x2 DUP3 DUP2 SLOAD DUP2 LT PUSH2 0x53E JUMPI PUSH2 0x53D PUSH2 0x1781 JUMP JUMPDEST JUMPDEST SWAP1 PUSH1 0x0 MSTORE PUSH1 0x20 PUSH1 0x0 KECCAK256 ADD PUSH1 0x40 MLOAD PUSH2 0x555 SWAP2 SWAP1 PUSH2 0x1A91 JUMP JUMPDEST SWAP1 DUP2 MSTORE PUSH1 0x20 ADD PUSH1 0x40 MLOAD DUP1 SWAP2 SUB SWAP1 KECCAK256 PUSH1 0x0 PUSH2 0x56F SWAP2 SWAP1 PUSH2 0xC1F JUMP JUMPDEST DUP1 DUP1 PUSH2 0x57A SWAP1 PUSH2 0x1832 JUMP JUMPDEST SWAP2 POP POP PUSH2 0x51B JUMP JUMPDEST POP PUSH1 0x2 PUSH1 0x0 PUSH2 0x591 SWAP2 SWAP1 PUSH2 0xC43 JUMP JUMPDEST PUSH1 0x0 PUSH1 0x3 PUSH1 0x14 PUSH2 0x100 EXP DUP2 SLOAD DUP2 PUSH1 0xFF MUL NOT AND SWAP1 DUP4 ISZERO ISZERO MUL OR SWAP1 SSTORE POP PUSH32 0x800BDAA40887CCFD790FDC79F47CF3ACBB2A1ECF28B3BCCB67E3719009C1BAB2 PUSH1 0x40 MLOAD PUSH1 0x40 MLOAD DUP1 SWAP2 SUB SWAP1 LOG1 JUMP JUMPDEST PUSH1 0x3 PUSH1 0x14 SWAP1 SLOAD SWAP1 PUSH2 0x100 EXP SWAP1 DIV PUSH1 0xFF AND DUP2 JUMP JUMPDEST PUSH1 0x3 PUSH1 0x0 SWAP1 SLOAD SWAP1 PUSH2 0x100 EXP SWAP1 DIV PUSH20 0xFFFFFFFFFFFFFFFFFFFFFFFFFFFFFFFFFFFFFFFF AND PUSH20 0xFFFFFFFFFFFFFFFFFFFFFFFFFFFFFFFFFFFFFFFF AND CALLER PUSH20 0xFFFFFFFFFFFFFFFFFFFFFFFFFFFFFFFFFFFFFFFF AND EQ PUSH2 0x67D JUMPI PUSH1 0x40 MLOAD PUSH32 0x8C379A000000000000000000000000000000000000000000000000000000000 DUP2 MSTORE PUSH1 0x4 ADD PUSH2 0x674 SWAP1 PUSH2 0x19D9 JUMP JUMPDEST PUSH1 0x40 MLOAD DUP1 SWAP2 SUB SWAP1 REVERT JUMPDEST PUSH1 0x3 PUSH1 0x14 SWAP1 SLOAD SWAP1 PUSH2 0x100 EXP SWAP1 DIV PUSH1 0xFF AND ISZERO PUSH2 0x6CD JUMPI PUSH1 0x40 MLOAD PUSH32 0x8C379A000000000000000000000000000000000000000000000000000000000 DUP2 MSTORE PUSH1 0x4 ADD PUSH2 0x6C4 SWAP1 PUSH2 0x1B1A JUMP JUMPDEST PUSH1 0x40 MLOAD DUP1 SWAP2 SUB SWAP1 REVERT JUMPDEST PUSH1 0x2 PUSH1 0x0 PUSH2 0x6DB SWAP2 SWAP1 PUSH2 0xC43 JUMP JUMPDEST PUSH1 0x0 JUMPDEST DUP4 MLOAD DUP2 LT ISZERO PUSH2 0x945 JUMPI PUSH1 0x0 DUP1 DUP6 DUP4 DUP2 MLOAD DUP2 LT PUSH2 0x6FD JUMPI PUSH2 0x6FC PUSH2 0x1781 JUMP JUMPDEST JUMPDEST PUSH1 0x20 MUL PUSH1 0x20 ADD ADD MLOAD PUSH1 0x40 MLOAD PUSH2 0x712 SWAP2 SWAP1 PUSH2 0x17EC JUMP JUMPDEST SWAP1 DUP2 MSTORE PUSH1 0x20 ADD PUSH1 0x40 MLOAD DUP1 SWAP2 SUB SWAP1 KECCAK256 DUP1 SLOAD SWAP1 POP SUB PUSH2 0x779 JUMPI PUSH1 0x2 DUP5 DUP3 DUP2 MLOAD DUP2 LT PUSH2 0x73E JUMPI PUSH2 0x73D PUSH2 0x1781 JUMP JUMPDEST JUMPDEST PUSH1 0x20 MUL PUSH1 0x20 ADD ADD MLOAD SWAP1 DUP1 PUSH1 0x1 DUP2 SLOAD ADD DUP1 DUP3 SSTORE DUP1 SWAP2 POP POP PUSH1 0x1 SWAP1 SUB SWAP1 PUSH1 0x0 MSTORE PUSH1 0x20 PUSH1 0x0 KECCAK256 ADD PUSH1 0x0 SWAP1 SWAP2 SWAP1 SWAP2 SWAP1 SWAP2 POP SWAP1 DUP2 PUSH2 0x777 SWAP2 SWAP1 PUSH2 0x1CD1 JUMP JUMPDEST POP JUMPDEST PUSH1 0x0 DUP5 DUP3 DUP2 MLOAD DUP2 LT PUSH2 0x78E JUMPI PUSH2 0x78D PUSH2 0x1781 JUMP JUMPDEST JUMPDEST PUSH1 0x20 MUL PUSH1 0x20 ADD ADD MLOAD PUSH1 0x40 MLOAD PUSH2 0x7A3 SWAP2 SWAP1 PUSH2 0x17EC JUMP JUMPDEST SWAP1 DUP2 MSTORE PUSH1 0x20 ADD PUSH1 0x40 MLOAD DUP1 SWAP2 SUB SWAP1 KECCAK256 PUSH1 0x0 PUSH2 0x7BD SWAP2 SWAP1 PUSH2 0xC1F JUMP JUMPDEST PUSH1 0x0 JUMPDEST DUP4 DUP3 DUP2 MLOAD DUP2 LT PUSH2 0x7D3 JUMPI PUSH2 0x7D2 PUSH2 0x1781 JUMP JUMPDEST JUMPDEST PUSH1 0x20 MUL PUSH1 0x20 ADD ADD MLOAD MLOAD DUP2 LT ISZERO PUSH2 0x931 JUMPI PUSH1 0x0 DUP6 DUP4 DUP2 MLOAD DUP2 LT PUSH2 0x7F8 JUMPI PUSH2 0x7F7 PUSH2 0x1781 JUMP JUMPDEST JUMPDEST PUSH1 0x20 MUL PUSH1 0x20 ADD ADD MLOAD PUSH1 0x40 MLOAD PUSH2 0x80D SWAP2 SWAP1 PUSH2 0x17EC JUMP JUMPDEST SWAP1 DUP2 MSTORE PUSH1 0x20 ADD PUSH1 0x40 MLOAD DUP1 SWAP2 SUB SWAP1 KECCAK256 PUSH1 0x40 MLOAD DUP1 PUSH1 0x80 ADD PUSH1 0x40 MSTORE DUP1 DUP7 DUP6 DUP2 MLOAD DUP2 LT PUSH2 0x839 JUMPI PUSH2 0x838 PUSH2 0x1781 JUMP JUMPDEST JUMPDEST PUSH1 0x20 MUL PUSH1 0x20 ADD ADD MLOAD DUP5 DUP2 MLOAD DUP2 LT PUSH2 0x853 JUMPI PUSH2 0x852 PUSH2 0x1781 JUMP JUMPDEST JUMPDEST PUSH1 0x20 MUL PUSH1 0x20 ADD ADD MLOAD DUP2 MSTORE PUSH1 0x20 ADD DUP6 DUP6 DUP2 MLOAD DUP2 LT PUSH2 0x873 JUMPI PUSH2 0x872 PUSH2 0x1781 JUMP JUMPDEST JUMPDEST PUSH1 0x20 MUL PUSH1 0x20 ADD ADD MLOAD DUP5 DUP2 MLOAD DUP2 LT PUSH2 0x88D JUMPI PUSH2 0x88C PUSH2 0x1781 JUMP JUMPDEST JUMPDEST PUSH1 0x20 MUL PUSH1 0x20 ADD ADD MLOAD DUP2 MSTORE PUSH1 0x20 ADD DUP8 DUP6 DUP2 MLOAD DUP2 LT PUSH2 0x8AD JUMPI PUSH2 0x8AC PUSH2 0x1781 JUMP JUMPDEST JUMPDEST PUSH1 0x20 MUL PUSH1 0x20 ADD ADD MLOAD DUP2 MSTORE PUSH1 0x20 ADD PUSH1 0x0 DUP2 MSTORE POP SWAP1 DUP1 PUSH1 0x1 DUP2 SLOAD ADD DUP1 DUP3 SSTORE DUP1 SWAP2 POP POP PUSH1 0x1 SWAP1 SUB SWAP1 PUSH1 0x0 MSTORE PUSH1 0x20 PUSH1 0x0 KECCAK256 SWAP1 PUSH1 0x4 MUL ADD PUSH1 0x0 SWAP1 SWAP2 SWAP1 SWAP2 SWAP1 SWAP2 POP PUSH1 0x0 DUP3 ADD MLOAD DUP2 PUSH1 0x0 ADD SSTORE PUSH1 0x20 DUP3 ADD MLOAD DUP2 PUSH1 0x1 ADD SSTORE PUSH1 0x40 DUP3 ADD MLOAD DUP2 PUSH1 0x2 ADD SWAP1 DUP2 PUSH2 0x911 SWAP2 SWAP1 PUSH2 0x1CD1 JUMP JUMPDEST POP PUSH1 0x60 DUP3 ADD MLOAD DUP2 PUSH1 0x3 ADD SSTORE POP POP DUP1 DUP1 PUSH2 0x929 SWAP1 PUSH2 0x1832 JUMP JUMPDEST SWAP2 POP POP PUSH2 0x7C0 JUMP JUMPDEST POP DUP1 DUP1 PUSH2 0x93D SWAP1 PUSH2 0x1832 JUMP JUMPDEST SWAP2 POP POP PUSH2 0x6DE JUMP JUMPDEST POP PUSH1 0x1 PUSH1 0x3 PUSH1 0x14 PUSH2 0x100 EXP DUP2 SLOAD DUP2 PUSH1 0xFF MUL NOT AND SWAP1 DUP4 ISZERO ISZERO MUL OR SWAP1 SSTORE POP PUSH32 0x86825B43264CA968E676C45C8E05CC56965FF5938ED49DCF636C61ACB7070BD7 PUSH1 0x40 MLOAD PUSH1 0x40 MLOAD DUP1 SWAP2 SUB SWAP1 LOG1 POP POP POP JUMP JUMPDEST PUSH1 0x3 PUSH1 0x0 SWAP1 SLOAD SWAP1 PUSH2 0x100 EXP SWAP1 DIV PUSH20 0xFFFFFFFFFFFFFFFFFFFFFFFFFFFFFFFFFFFFFFFF AND DUP2 JUMP JUMPDEST PUSH1 0x60 PUSH1 0x0 DUP1 PUSH1 0x0 SWAP1 POP JUMPDEST PUSH1 0x2 DUP1 SLOAD SWAP1 POP DUP2 LT ISZERO PUSH2 0xA2E JUMPI PUSH1 0x0 PUSH1 0x2 DUP3 DUP2 SLOAD DUP2 LT PUSH2 0x9E5 JUMPI PUSH2 0x9E4 PUSH2 0x1781 JUMP JUMPDEST JUMPDEST SWAP1 PUSH1 0x0 MSTORE PUSH1 0x20 PUSH1 0x0 KECCAK256 ADD PUSH1 0x40 MLOAD PUSH2 0x9FC SWAP2 SWAP1 PUSH2 0x1A91 JUMP JUMPDEST SWAP1 DUP2 MSTORE PUSH1 0x20 ADD PUSH1 0x40 MLOAD DUP1 SWAP2 SUB SWAP1 KECCAK256 DUP1 SLOAD SWAP1 POP DUP3 PUSH2 0xA19 SWAP2 SWAP1 PUSH2 0x1DA3 JUMP JUMPDEST SWAP2 POP DUP1 DUP1 PUSH2 0xA26 SWAP1 PUSH2 0x1832 JUMP JUMPDEST SWAP2 POP POP PUSH2 0x9C2 JUMP JUMPDEST POP PUSH1 0x0 DUP2 PUSH8 0xFFFFFFFFFFFFFFFF DUP2 GT ISZERO PUSH2 0xA4B JUMPI PUSH2 0xA4A PUSH2 0xD7C JUMP JUMPDEST JUMPDEST PUSH1 0x40 MLOAD SWAP1 DUP1 DUP3 MSTORE DUP1 PUSH1 0x20 MUL PUSH1 0x20 ADD DUP3 ADD PUSH1 0x40 MSTORE DUP1 ISZERO PUSH2 0xA84 JUMPI DUP2 PUSH1 0x20 ADD JUMPDEST PUSH2 0xA71 PUSH2 0xC64 JUMP JUMPDEST DUP2 MSTORE PUSH1 0x20 ADD SWAP1 PUSH1 0x1 SWAP1 SUB SWAP1 DUP2 PUSH2 0xA69 JUMPI SWAP1 POP JUMPDEST POP SWAP1 POP PUSH1 0x0 DUP1 JUMPDEST PUSH1 0x2 DUP1 SLOAD SWAP1 POP DUP2 LT ISZERO PUSH2 0xC15 JUMPI PUSH1 0x0 DUP1 PUSH1 0x2 DUP4 DUP2 SLOAD DUP2 LT PUSH2 0xAAF JUMPI PUSH2 0xAAE PUSH2 0x1781 JUMP JUMPDEST JUMPDEST SWAP1 PUSH1 0x0 MSTORE PUSH1 0x20 PUSH1 0x0 KECCAK256 ADD PUSH1 0x40 MLOAD PUSH2 0xAC6 SWAP2 SWAP1 PUSH2 0x1A91 JUMP JUMPDEST SWAP1 DUP2 MSTORE PUSH1 0x20 ADD PUSH1 0x40 MLOAD DUP1 SWAP2 SUB SWAP1 KECCAK256 SWAP1 POP PUSH1 0x0 JUMPDEST DUP2 DUP1 SLOAD SWAP1 POP DUP2 LT ISZERO PUSH2 0xC00 JUMPI DUP2 DUP2 DUP2 SLOAD DUP2 LT PUSH2 0xAF8 JUMPI PUSH2 0xAF7 PUSH2 0x1781 JUMP JUMPDEST JUMPDEST SWAP1 PUSH1 0x0 MSTORE PUSH1 0x20 PUSH1 0x0 KECCAK256 SWAP1 PUSH1 0x4 MUL ADD PUSH1 0x40 MLOAD DUP1 PUSH1 0x80 ADD PUSH1 0x40 MSTORE SWAP1 DUP2 PUSH1 0x0 DUP3 ADD SLOAD DUP2 MSTORE PUSH1 0x20 ADD PUSH1 0x1 DUP3 ADD SLOAD DUP2 MSTORE PUSH1 0x20 ADD PUSH1 0x2 DUP3 ADD DUP1 SLOAD PUSH2 0xB35 SWAP1 PUSH2 0x1936 JUMP JUMPDEST DUP1 PUSH1 0x1F ADD PUSH1 0x20 DUP1 SWAP2 DIV MUL PUSH1 0x20 ADD PUSH1 0x40 MLOAD SWAP1 DUP2 ADD PUSH1 0x40 MSTORE DUP1 SWAP3 SWAP2 SWAP1 DUP2 DUP2 MSTORE PUSH1 0x20 ADD DUP3 DUP1 SLOAD PUSH2 0xB61 SWAP1 PUSH2 0x1936 JUMP JUMPDEST DUP1 ISZERO PUSH2 0xBAE JUMPI DUP1 PUSH1 0x1F LT PUSH2 0xB83 JUMPI PUSH2 0x100 DUP1 DUP4 SLOAD DIV MUL DUP4 MSTORE SWAP2 PUSH1 0x20 ADD SWAP2 PUSH2 0xBAE JUMP JUMPDEST DUP3 ADD SWAP2 SWAP1 PUSH1 0x0 MSTORE PUSH1 0x20 PUSH1 0x0 KECCAK256 SWAP1 JUMPDEST DUP2 SLOAD DUP2 MSTORE SWAP1 PUSH1 0x1 ADD SWAP1 PUSH1 0x20 ADD DUP1 DUP4 GT PUSH2 0xB91 JUMPI DUP3 SWAP1 SUB PUSH1 0x1F AND DUP3 ADD SWAP2 JUMPDEST POP POP POP POP POP DUP2 MSTORE PUSH1 0x20 ADD PUSH1 0x3 DUP3 ADD SLOAD DUP2 MSTORE POP POP DUP6 DUP6 DUP2 MLOAD DUP2 LT PUSH2 0xBD4 JUMPI PUSH2 0xBD3 PUSH2 0x1781 JUMP JUMPDEST JUMPDEST PUSH1 0x20 MUL PUSH1 0x20 ADD ADD DUP2 SWAP1 MSTORE POP DUP4 DUP1 PUSH2 0xBEA SWAP1 PUSH2 0x1832 JUMP JUMPDEST SWAP5 POP POP DUP1 DUP1 PUSH2 0xBF8 SWAP1 PUSH2 0x1832 JUMP JUMPDEST SWAP2 POP POP PUSH2 0xAD9 JUMP JUMPDEST POP POP DUP1 DUP1 PUSH2 0xC0D SWAP1 PUSH2 0x1832 JUMP JUMPDEST SWAP2 POP POP PUSH2 0xA8B JUMP JUMPDEST POP DUP2 SWAP4 POP POP POP POP SWAP1 JUMP JUMPDEST POP DUP1 SLOAD PUSH1 0x0 DUP3 SSTORE PUSH1 0x4 MUL SWAP1 PUSH1 0x0 MSTORE PUSH1 0x20 PUSH1 0x0 KECCAK256 SWAP1 DUP2 ADD SWAP1 PUSH2 0xC40 SWAP2 SWAP1 PUSH2 0xC92 JUMP JUMPDEST POP JUMP JUMPDEST POP DUP1 SLOAD PUSH1 0x0 DUP3 SSTORE SWAP1 PUSH1 0x0 MSTORE PUSH1 0x20 PUSH1 0x0 KECCAK256 SWAP1 DUP2 ADD SWAP1 PUSH2 0xC61 SWAP2 SWAP1 PUSH2 0xCD1 JUMP JUMPDEST POP JUMP JUMPDEST PUSH1 0x40 MLOAD DUP1 PUSH1 0x80 ADD PUSH1 0x40 MSTORE DUP1 PUSH1 0x0 DUP1 NOT AND DUP2 MSTORE PUSH1 0x20 ADD PUSH1 0x0 DUP1 NOT AND DUP2 MSTORE PUSH1 0x20 ADD PUSH1 0x60 DUP2 MSTORE PUSH1 0x20 ADD PUSH1 0x0 DUP2 MSTORE POP SWAP1 JUMP JUMPDEST JUMPDEST DUP1 DUP3 GT ISZERO PUSH2 0xCCD JUMPI PUSH1 0x0 DUP1 DUP3 ADD PUSH1 0x0 SWAP1 SSTORE PUSH1 0x1 DUP3 ADD PUSH1 0x0 SWAP1 SSTORE PUSH1 0x2 DUP3 ADD PUSH1 0x0 PUSH2 0xCBC SWAP2 SWAP1 PUSH2 0xCF5 JUMP JUMPDEST PUSH1 0x3 DUP3 ADD PUSH1 0x0 SWAP1 SSTORE POP PUSH1 0x4 ADD PUSH2 0xC93 JUMP JUMPDEST POP SWAP1 JUMP JUMPDEST JUMPDEST DUP1 DUP3 GT ISZERO PUSH2 0xCF1 JUMPI PUSH1 0x0 DUP2 DUP2 PUSH2 0xCE8 SWAP2 SWAP1 PUSH2 0xCF5 JUMP JUMPDEST POP PUSH1 0x1 ADD PUSH2 0xCD2 JUMP JUMPDEST POP SWAP1 JUMP JUMPDEST POP DUP1 SLOAD PUSH2 0xD01 SWAP1 PUSH2 0x1936 JUMP JUMPDEST PUSH1 0x0 DUP3 SSTORE DUP1 PUSH1 0x1F LT PUSH2 0xD13 JUMPI POP PUSH2 0xD32 JUMP JUMPDEST PUSH1 0x1F ADD PUSH1 0x20 SWAP1 DIV SWAP1 PUSH1 0x0 MSTORE PUSH1 0x20 PUSH1 0x0 KECCAK256 SWAP1 DUP2 ADD SWAP1 PUSH2 0xD31 SWAP2 SWAP1 PUSH2 0xD35 JUMP JUMPDEST JUMPDEST POP JUMP JUMPDEST JUMPDEST DUP1 DUP3 GT ISZERO PUSH2 0xD4E JUMPI PUSH1 0x0 DUP2 PUSH1 0x0 SWAP1 SSTORE POP PUSH1 0x1 ADD PUSH2 0xD36 JUMP JUMPDEST POP SWAP1 JUMP JUMPDEST PUSH1 0x0 PUSH1 0x40 MLOAD SWAP1 POP SWAP1 JUMP JUMPDEST PUSH1 0x0 DUP1 REVERT JUMPDEST PUSH1 0x0 DUP1 REVERT JUMPDEST PUSH1 0x0 DUP1 REVERT JUMPDEST PUSH1 0x0 PUSH1 0x1F NOT PUSH1 0x1F DUP4 ADD AND SWAP1 POP SWAP2 SWAP1 POP JUMP JUMPDEST PUSH32 0x4E487B7100000000000000000000000000000000000000000000000000000000 PUSH1 0x0 MSTORE PUSH1 0x41 PUSH1 0x4 MSTORE PUSH1 0x24 PUSH1 0x0 REVERT JUMPDEST PUSH2 0xDB4 DUP3 PUSH2 0xD6B JUMP JUMPDEST DUP2 ADD DUP2 DUP2 LT PUSH8 0xFFFFFFFFFFFFFFFF DUP3 GT OR ISZERO PUSH2 0xDD3 JUMPI PUSH2 0xDD2 PUSH2 0xD7C JUMP JUMPDEST JUMPDEST DUP1 PUSH1 0x40 MSTORE POP POP POP JUMP JUMPDEST PUSH1 0x0 PUSH2 0xDE6 PUSH2 0xD52 JUMP JUMPDEST SWAP1 POP PUSH2 0xDF2 DUP3 DUP3 PUSH2 0xDAB JUMP JUMPDEST SWAP2 SWAP1 POP JUMP JUMPDEST PUSH1 0x0 PUSH8 0xFFFFFFFFFFFFFFFF DUP3 GT ISZERO PUSH2 0xE12 JUMPI PUSH2 0xE11 PUSH2 0xD7C JUMP JUMPDEST JUMPDEST PUSH1 0x20 DUP3 MUL SWAP1 POP PUSH1 0x20 DUP2 ADD SWAP1 POP SWAP2 SWAP1 POP JUMP JUMPDEST PUSH1 0x0 DUP1 REVERT JUMPDEST PUSH1 0x0 DUP1 REVERT JUMPDEST PUSH1 0x0 PUSH8 0xFFFFFFFFFFFFFFFF DUP3 GT ISZERO PUSH2 0xE48 JUMPI PUSH2 0xE47 PUSH2 0xD7C JUMP JUMPDEST JUMPDEST PUSH2 0xE51 DUP3 PUSH2 0xD6B JUMP JUMPDEST SWAP1 POP PUSH1 0x20 DUP2 ADD SWAP1 POP SWAP2 SWAP1 POP JUMP JUMPDEST DUP3 DUP2 DUP4 CALLDATACOPY PUSH1 0x0 DUP4 DUP4 ADD MSTORE POP POP POP JUMP JUMPDEST PUSH1 0x0 PUSH2 0xE80 PUSH2 0xE7B DUP5 PUSH2 0xE2D JUMP JUMPDEST PUSH2 0xDDC JUMP JUMPDEST SWAP1 POP DUP3 DUP2 MSTORE PUSH1 0x20 DUP2 ADD DUP5 DUP5 DUP5 ADD GT ISZERO PUSH2 0xE9C JUMPI PUSH2 0xE9B PUSH2 0xE28 JUMP JUMPDEST JUMPDEST PUSH2 0xEA7 DUP5 DUP3 DUP6 PUSH2 0xE5E JUMP JUMPDEST POP SWAP4 SWAP3 POP POP POP JUMP JUMPDEST PUSH1 0x0 DUP3 PUSH1 0x1F DUP4 ADD SLT PUSH2 0xEC4 JUMPI PUSH2 0xEC3 PUSH2 0xD66 JUMP JUMPDEST JUMPDEST DUP2 CALLDATALOAD PUSH2 0xED4 DUP5 DUP3 PUSH1 0x20 DUP7 ADD PUSH2 0xE6D JUMP JUMPDEST SWAP2 POP POP SWAP3 SWAP2 POP POP JUMP JUMPDEST PUSH1 0x0 PUSH2 0xEF0 PUSH2 0xEEB DUP5 PUSH2 0xDF7 JUMP JUMPDEST PUSH2 0xDDC JUMP JUMPDEST SWAP1 POP DUP1 DUP4 DUP3 MSTORE PUSH1 0x20 DUP3 ADD SWAP1 POP PUSH1 0x20 DUP5 MUL DUP4 ADD DUP6 DUP2 GT ISZERO PUSH2 0xF13 JUMPI PUSH2 0xF12 PUSH2 0xE23 JUMP JUMPDEST JUMPDEST DUP4 JUMPDEST DUP2 DUP2 LT ISZERO PUSH2 0xF5A JUMPI DUP1 CALLDATALOAD PUSH8 0xFFFFFFFFFFFFFFFF DUP2 GT ISZERO PUSH2 0xF38 JUMPI PUSH2 0xF37 PUSH2 0xD66 JUMP JUMPDEST JUMPDEST DUP1 DUP7 ADD PUSH2 0xF45 DUP10 DUP3 PUSH2 0xEAF JUMP JUMPDEST DUP6 MSTORE PUSH1 0x20 DUP6 ADD SWAP5 POP POP POP PUSH1 0x20 DUP2 ADD SWAP1 POP PUSH2 0xF15 JUMP JUMPDEST POP POP POP SWAP4 SWAP3 POP POP POP JUMP JUMPDEST PUSH1 0x0 DUP3 PUSH1 0x1F DUP4 ADD SLT PUSH2 0xF79 JUMPI PUSH2 0xF78 PUSH2 0xD66 JUMP JUMPDEST JUMPDEST DUP2 CALLDATALOAD PUSH2 0xF89 DUP5 DUP3 PUSH1 0x20 DUP7 ADD PUSH2 0xEDD JUMP JUMPDEST SWAP2 POP POP SWAP3 SWAP2 POP POP JUMP JUMPDEST PUSH1 0x0 PUSH8 0xFFFFFFFFFFFFFFFF DUP3 GT ISZERO PUSH2 0xFAD JUMPI PUSH2 0xFAC PUSH2 0xD7C JUMP JUMPDEST JUMPDEST PUSH1 0x20 DUP3 MUL SWAP1 POP PUSH1 0x20 DUP2 ADD SWAP1 POP SWAP2 SWAP1 POP JUMP JUMPDEST PUSH1 0x0 DUP2 SWAP1 POP SWAP2 SWAP1 POP JUMP JUMPDEST PUSH2 0xFD1 DUP2 PUSH2 0xFBE JUMP JUMPDEST DUP2 EQ PUSH2 0xFDC JUMPI PUSH1 0x0 DUP1 REVERT JUMPDEST POP JUMP JUMPDEST PUSH1 0x0 DUP2 CALLDATALOAD SWAP1 POP PUSH2 0xFEE DUP2 PUSH2 0xFC8 JUMP JUMPDEST SWAP3 SWAP2 POP POP JUMP JUMPDEST PUSH1 0x0 PUSH2 0x1007 PUSH2 0x1002 DUP5 PUSH2 0xF92 JUMP JUMPDEST PUSH2 0xDDC JUMP JUMPDEST SWAP1 POP DUP1 DUP4 DUP3 MSTORE PUSH1 0x20 DUP3 ADD SWAP1 POP PUSH1 0x20 DUP5 MUL DUP4 ADD DUP6 DUP2 GT ISZERO PUSH2 0x102A JUMPI PUSH2 0x1029 PUSH2 0xE23 JUMP JUMPDEST JUMPDEST DUP4 JUMPDEST DUP2 DUP2 LT ISZERO PUSH2 0x1053 JUMPI DUP1 PUSH2 0x103F DUP9 DUP3 PUSH2 0xFDF JUMP JUMPDEST DUP5 MSTORE PUSH1 0x20 DUP5 ADD SWAP4 POP POP PUSH1 0x20 DUP2 ADD SWAP1 POP PUSH2 0x102C JUMP JUMPDEST POP POP POP SWAP4 SWAP3 POP POP POP JUMP JUMPDEST PUSH1 0x0 DUP3 PUSH1 0x1F DUP4 ADD SLT PUSH2 0x1072 JUMPI PUSH2 0x1071 PUSH2 0xD66 JUMP JUMPDEST JUMPDEST DUP2 CALLDATALOAD PUSH2 0x1082 DUP5 DUP3 PUSH1 0x20 DUP7 ADD PUSH2 0xFF4 JUMP JUMPDEST SWAP2 POP POP SWAP3 SWAP2 POP POP JUMP JUMPDEST PUSH1 0x0 DUP1 PUSH1 0x0 PUSH1 0x60 DUP5 DUP7 SUB SLT ISZERO PUSH2 0x10A4 JUMPI PUSH2 0x10A3 PUSH2 0xD5C JUMP JUMPDEST JUMPDEST PUSH1 0x0 DUP5 ADD CALLDATALOAD PUSH8 0xFFFFFFFFFFFFFFFF DUP2 GT ISZERO PUSH2 0x10C2 JUMPI PUSH2 0x10C1 PUSH2 0xD61 JUMP JUMPDEST JUMPDEST PUSH2 0x10CE DUP7 DUP3 DUP8 ADD PUSH2 0xF64 JUMP JUMPDEST SWAP4 POP POP PUSH1 0x20 DUP5 ADD CALLDATALOAD PUSH8 0xFFFFFFFFFFFFFFFF DUP2 GT ISZERO PUSH2 0x10EF JUMPI PUSH2 0x10EE PUSH2 0xD61 JUMP JUMPDEST JUMPDEST PUSH2 0x10FB DUP7 DUP3 DUP8 ADD PUSH2 0x105D JUMP JUMPDEST SWAP3 POP POP PUSH1 0x40 DUP5 ADD CALLDATALOAD PUSH8 0xFFFFFFFFFFFFFFFF DUP2 GT ISZERO PUSH2 0x111C JUMPI PUSH2 0x111B PUSH2 0xD61 JUMP JUMPDEST JUMPDEST PUSH2 0x1128 DUP7 DUP3 DUP8 ADD PUSH2 0xEAF JUMP JUMPDEST SWAP2 POP POP SWAP3 POP SWAP3 POP SWAP3 JUMP JUMPDEST PUSH1 0x0 PUSH1 0x20 DUP3 DUP5 SUB SLT ISZERO PUSH2 0x1148 JUMPI PUSH2 0x1147 PUSH2 0xD5C JUMP JUMPDEST JUMPDEST PUSH1 0x0 DUP3 ADD CALLDATALOAD PUSH8 0xFFFFFFFFFFFFFFFF DUP2 GT ISZERO PUSH2 0x1166 JUMPI PUSH2 0x1165 PUSH2 0xD61 JUMP JUMPDEST JUMPDEST PUSH2 0x1172 DUP5 DUP3 DUP6 ADD PUSH2 0xEAF JUMP JUMPDEST SWAP2 POP POP SWAP3 SWAP2 POP POP JUMP JUMPDEST PUSH1 0x0 DUP2 MLOAD SWAP1 POP SWAP2 SWAP1 POP JUMP JUMPDEST PUSH1 0x0 DUP3 DUP3 MSTORE PUSH1 0x20 DUP3 ADD SWAP1 POP SWAP3 SWAP2 POP POP JUMP JUMPDEST PUSH1 0x0 DUP2 SWAP1 POP PUSH1 0x20 DUP3 ADD SWAP1 POP SWAP2 SWAP1 POP JUMP JUMPDEST PUSH1 0x0 DUP2 SWAP1 POP SWAP2 SWAP1 POP JUMP JUMPDEST PUSH2 0x11BA DUP2 PUSH2 0x11A7 JUMP JUMPDEST DUP3 MSTORE POP POP JUMP JUMPDEST PUSH1 0x0 DUP2 MLOAD SWAP1 POP SWAP2 SWAP1 POP JUMP JUMPDEST PUSH1 0x0 DUP3 DUP3 MSTORE PUSH1 0x20 DUP3 ADD SWAP1 POP SWAP3 SWAP2 POP POP JUMP JUMPDEST PUSH1 0x0 JUMPDEST DUP4 DUP2 LT ISZERO PUSH2 0x11FA JUMPI DUP1 DUP3 ADD MLOAD DUP2 DUP5 ADD MSTORE PUSH1 0x20 DUP2 ADD SWAP1 POP PUSH2 0x11DF JUMP JUMPDEST PUSH1 0x0 DUP5 DUP5 ADD MSTORE POP POP POP POP JUMP JUMPDEST PUSH1 0x0 PUSH2 0x1211 DUP3 PUSH2 0x11C0 JUMP JUMPDEST PUSH2 0x121B DUP2 DUP6 PUSH2 0x11CB JUMP JUMPDEST SWAP4 POP PUSH2 0x122B DUP2 DUP6 PUSH1 0x20 DUP7 ADD PUSH2 0x11DC JUMP JUMPDEST PUSH2 0x1234 DUP2 PUSH2 0xD6B JUMP JUMPDEST DUP5 ADD SWAP2 POP POP SWAP3 SWAP2 POP POP JUMP JUMPDEST PUSH2 0x1248 DUP2 PUSH2 0xFBE JUMP JUMPDEST DUP3 MSTORE POP POP JUMP JUMPDEST PUSH1 0x0 PUSH1 0x80 DUP4 ADD PUSH1 0x0 DUP4 ADD MLOAD PUSH2 0x1266 PUSH1 0x0 DUP7 ADD DUP3 PUSH2 0x11B1 JUMP JUMPDEST POP PUSH1 0x20 DUP4 ADD MLOAD PUSH2 0x1279 PUSH1 0x20 DUP7 ADD DUP3 PUSH2 0x11B1 JUMP JUMPDEST POP PUSH1 0x40 DUP4 ADD MLOAD DUP5 DUP3 SUB PUSH1 0x40 DUP7 ADD MSTORE PUSH2 0x1291 DUP3 DUP3 PUSH2 0x1206 JUMP JUMPDEST SWAP2 POP POP PUSH1 0x60 DUP4 ADD MLOAD PUSH2 0x12A6 PUSH1 0x60 DUP7 ADD DUP3 PUSH2 0x123F JUMP JUMPDEST POP DUP1 SWAP2 POP POP SWAP3 SWAP2 POP POP JUMP JUMPDEST PUSH1 0x0 PUSH2 0x12BD DUP4 DUP4 PUSH2 0x124E JUMP JUMPDEST SWAP1 POP SWAP3 SWAP2 POP POP JUMP JUMPDEST PUSH1 0x0 PUSH1 0x20 DUP3 ADD SWAP1 POP SWAP2 SWAP1 POP JUMP JUMPDEST PUSH1 0x0 PUSH2 0x12DD DUP3 PUSH2 0x117B JUMP JUMPDEST PUSH2 0x12E7 DUP2 DUP6 PUSH2 0x1186 JUMP JUMPDEST SWAP4 POP DUP4 PUSH1 0x20 DUP3 MUL DUP6 ADD PUSH2 0x12F9 DUP6 PUSH2 0x1197 JUMP JUMPDEST DUP1 PUSH1 0x0 JUMPDEST DUP6 DUP2 LT ISZERO PUSH2 0x1335 JUMPI DUP5 DUP5 SUB DUP10 MSTORE DUP2 MLOAD PUSH2 0x1316 DUP6 DUP3 PUSH2 0x12B1 JUMP JUMPDEST SWAP5 POP PUSH2 0x1321 DUP4 PUSH2 0x12C5 JUMP JUMPDEST SWAP3 POP PUSH1 0x20 DUP11 ADD SWAP10 POP POP PUSH1 0x1 DUP2 ADD SWAP1 POP PUSH2 0x12FD JUMP JUMPDEST POP DUP3 SWAP8 POP DUP8 SWAP6 POP POP POP POP POP POP SWAP3 SWAP2 POP POP JUMP JUMPDEST PUSH1 0x0 PUSH1 0x20 DUP3 ADD SWAP1 POP DUP2 DUP2 SUB PUSH1 0x0 DUP4 ADD MSTORE PUSH2 0x1361 DUP2 DUP5 PUSH2 0x12D2 JUMP JUMPDEST SWAP1 POP SWAP3 SWAP2 POP POP JUMP JUMPDEST PUSH1 0x0 DUP2 ISZERO ISZERO SWAP1 POP SWAP2 SWAP1 POP JUMP JUMPDEST PUSH2 0x137E DUP2 PUSH2 0x1369 JUMP JUMPDEST DUP3 MSTORE POP POP JUMP JUMPDEST PUSH1 0x0 PUSH1 0x20 DUP3 ADD SWAP1 POP PUSH2 0x1399 PUSH1 0x0 DUP4 ADD DUP5 PUSH2 0x1375 JUMP JUMPDEST SWAP3 SWAP2 POP POP JUMP JUMPDEST PUSH1 0x0 PUSH8 0xFFFFFFFFFFFFFFFF DUP3 GT ISZERO PUSH2 0x13BA JUMPI PUSH2 0x13B9 PUSH2 0xD7C JUMP JUMPDEST JUMPDEST PUSH1 0x20 DUP3 MUL SWAP1 POP PUSH1 0x20 DUP2 ADD SWAP1 POP SWAP2 SWAP1 POP JUMP JUMPDEST PUSH1 0x0 PUSH8 0xFFFFFFFFFFFFFFFF DUP3 GT ISZERO PUSH2 0x13E6 JUMPI PUSH2 0x13E5 PUSH2 0xD7C JUMP JUMPDEST JUMPDEST PUSH1 0x20 DUP3 MUL SWAP1 POP PUSH1 0x20 DUP2 ADD SWAP1 POP SWAP2 SWAP1 POP JUMP JUMPDEST PUSH2 0x1400 DUP2 PUSH2 0x11A7 JUMP JUMPDEST DUP2 EQ PUSH2 0x140B JUMPI PUSH1 0x0 DUP1 REVERT JUMPDEST POP JUMP JUMPDEST PUSH1 0x0 DUP2 CALLDATALOAD SWAP1 POP PUSH2 0x141D DUP2 PUSH2 0x13F7 JUMP JUMPDEST SWAP3 SWAP2 POP POP JUMP JUMPDEST PUSH1 0x0 PUSH2 0x1436 PUSH2 0x1431 DUP5 PUSH2 0x13CB JUMP JUMPDEST PUSH2 0xDDC JUMP JUMPDEST SWAP1 POP DUP1 DUP4 DUP3 MSTORE PUSH1 0x20 DUP3 ADD SWAP1 POP PUSH1 0x20 DUP5 MUL DUP4 ADD DUP6 DUP2 GT ISZERO PUSH2 0x1459 JUMPI PUSH2 0x1458 PUSH2 0xE23 JUMP JUMPDEST JUMPDEST DUP4 JUMPDEST DUP2 DUP2 LT ISZERO PUSH2 0x1482 JUMPI DUP1 PUSH2 0x146E DUP9 DUP3 PUSH2 0x140E JUMP JUMPDEST DUP5 MSTORE PUSH1 0x20 DUP5 ADD SWAP4 POP POP PUSH1 0x20 DUP2 ADD SWAP1 POP PUSH2 0x145B JUMP JUMPDEST POP POP POP SWAP4 SWAP3 POP POP POP JUMP JUMPDEST PUSH1 0x0 DUP3 PUSH1 0x1F DUP4 ADD SLT PUSH2 0x14A1 JUMPI PUSH2 0x14A0 PUSH2 0xD66 JUMP JUMPDEST JUMPDEST DUP2 CALLDATALOAD PUSH2 0x14B1 DUP5 DUP3 PUSH1 0x20 DUP7 ADD PUSH2 0x1423 JUMP JUMPDEST SWAP2 POP POP SWAP3 SWAP2 POP POP JUMP JUMPDEST PUSH1 0x0 PUSH2 0x14CD PUSH2 0x14C8 DUP5 PUSH2 0x139F JUMP JUMPDEST PUSH2 0xDDC JUMP JUMPDEST SWAP1 POP DUP1 DUP4 DUP3 MSTORE PUSH1 0x20 DUP3 ADD SWAP1 POP PUSH1 0x20 DUP5 MUL DUP4 ADD DUP6 DUP2 GT ISZERO PUSH2 0x14F0 JUMPI PUSH2 0x14EF PUSH2 0xE23 JUMP JUMPDEST JUMPDEST DUP4 JUMPDEST DUP2 DUP2 LT ISZERO PUSH2 0x1537 JUMPI DUP1 CALLDATALOAD PUSH8 0xFFFFFFFFFFFFFFFF DUP2 GT ISZERO PUSH2 0x1515 JUMPI PUSH2 0x1514 PUSH2 0xD66 JUMP JUMPDEST JUMPDEST DUP1 DUP7 ADD PUSH2 0x1522 DUP10 DUP3 PUSH2 0x148C JUMP JUMPDEST DUP6 MSTORE PUSH1 0x20 DUP6 ADD SWAP5 POP POP POP PUSH1 0x20 DUP2 ADD SWAP1 POP PUSH2 0x14F2 JUMP JUMPDEST POP POP POP SWAP4 SWAP3 POP POP POP JUMP JUMPDEST PUSH1 0x0 DUP3 PUSH1 0x1F DUP4 ADD SLT PUSH2 0x1556 JUMPI PUSH2 0x1555 PUSH2 0xD66 JUMP JUMPDEST JUMPDEST DUP2 CALLDATALOAD PUSH2 0x1566 DUP5 DUP3 PUSH1 0x20 DUP7 ADD PUSH2 0x14BA JUMP JUMPDEST SWAP2 POP POP SWAP3 SWAP2 POP POP JUMP JUMPDEST PUSH1 0x0 DUP1 PUSH1 0x0 PUSH1 0x60 DUP5 DUP7 SUB SLT ISZERO PUSH2 0x1588 JUMPI PUSH2 0x1587 PUSH2 0xD5C JUMP JUMPDEST JUMPDEST PUSH1 0x0 DUP5 ADD CALLDATALOAD PUSH8 0xFFFFFFFFFFFFFFFF DUP2 GT ISZERO PUSH2 0x15A6 JUMPI PUSH2 0x15A5 PUSH2 0xD61 JUMP JUMPDEST JUMPDEST PUSH2 0x15B2 DUP7 DUP3 DUP8 ADD PUSH2 0xF64 JUMP JUMPDEST SWAP4 POP POP PUSH1 0x20 DUP5 ADD CALLDATALOAD PUSH8 0xFFFFFFFFFFFFFFFF DUP2 GT ISZERO PUSH2 0x15D3 JUMPI PUSH2 0x15D2 PUSH2 0xD61 JUMP JUMPDEST JUMPDEST PUSH2 0x15DF DUP7 DUP3 DUP8 ADD PUSH2 0x1541 JUMP JUMPDEST SWAP3 POP POP PUSH1 0x40 DUP5 ADD CALLDATALOAD PUSH8 0xFFFFFFFFFFFFFFFF DUP2 GT ISZERO PUSH2 0x1600 JUMPI PUSH2 0x15FF PUSH2 0xD61 JUMP JUMPDEST JUMPDEST PUSH2 0x160C DUP7 DUP3 DUP8 ADD PUSH2 0x1541 JUMP JUMPDEST SWAP2 POP POP SWAP3 POP SWAP3 POP SWAP3 JUMP JUMPDEST PUSH1 0x0 PUSH20 0xFFFFFFFFFFFFFFFFFFFFFFFFFFFFFFFFFFFFFFFF DUP3 AND SWAP1 POP SWAP2 SWAP1 POP JUMP JUMPDEST PUSH1 0x0 PUSH2 0x1641 DUP3 PUSH2 0x1616 JUMP JUMPDEST SWAP1 POP SWAP2 SWAP1 POP JUMP JUMPDEST PUSH2 0x1651 DUP2 PUSH2 0x1636 JUMP JUMPDEST DUP3 MSTORE POP POP JUMP JUMPDEST PUSH1 0x0 PUSH1 0x20 DUP3 ADD SWAP1 POP PUSH2 0x166C PUSH1 0x0 DUP4 ADD DUP5 PUSH2 0x1648 JUMP JUMPDEST SWAP3 SWAP2 POP POP JUMP JUMPDEST PUSH1 0x0 DUP3 DUP3 MSTORE PUSH1 0x20 DUP3 ADD SWAP1 POP SWAP3 SWAP2 POP POP JUMP JUMPDEST PUSH32 0x566F74696E672063616E6E6F7420737461727420756E74696C2063616E646964 PUSH1 0x0 DUP3 ADD MSTORE PUSH32 0x61746573206172652066696E616C697A65642100000000000000000000000000 PUSH1 0x20 DUP3 ADD MSTORE POP JUMP JUMPDEST PUSH1 0x0 PUSH2 0x16DF PUSH1 0x33 DUP4 PUSH2 0x1672 JUMP JUMPDEST SWAP2 POP PUSH2 0x16EA DUP3 PUSH2 0x1683 JUMP JUMPDEST PUSH1 0x40 DUP3 ADD SWAP1 POP SWAP2 SWAP1 POP JUMP JUMPDEST PUSH1 0x0 PUSH1 0x20 DUP3 ADD SWAP1 POP DUP2 DUP2 SUB PUSH1 0x0 DUP4 ADD MSTORE PUSH2 0x170E DUP2 PUSH2 0x16D2 JUMP JUMPDEST SWAP1 POP SWAP2 SWAP1 POP JUMP JUMPDEST PUSH32 0x4D69736D61746368656420696E707574206C656E677468730000000000000000 PUSH1 0x0 DUP3 ADD MSTORE POP JUMP JUMPDEST PUSH1 0x0 PUSH2 0x174B PUSH1 0x18 DUP4 PUSH2 0x1672 JUMP JUMPDEST SWAP2 POP PUSH2 0x1756 DUP3 PUSH2 0x1715 JUMP JUMPDEST PUSH1 0x20 DUP3 ADD SWAP1 POP SWAP2 SWAP1 POP JUMP JUMPDEST PUSH1 0x0 PUSH1 0x20 DUP3 ADD SWAP1 POP DUP2 DUP2 SUB PUSH1 0x0 DUP4 ADD MSTORE PUSH2 0x177A DUP2 PUSH2 0x173E JUMP JUMPDEST SWAP1 POP SWAP2 SWAP1 POP JUMP JUMPDEST PUSH32 0x4E487B7100000000000000000000000000000000000000000000000000000000 PUSH1 0x0 MSTORE PUSH1 0x32 PUSH1 0x4 MSTORE PUSH1 0x24 PUSH1 0x0 REVERT JUMPDEST PUSH1 0x0 DUP2 SWAP1 POP SWAP3 SWAP2 POP POP JUMP JUMPDEST PUSH1 0x0 PUSH2 0x17C6 DUP3 PUSH2 0x11C0 JUMP JUMPDEST PUSH2 0x17D0 DUP2 DUP6 PUSH2 0x17B0 JUMP JUMPDEST SWAP4 POP PUSH2 0x17E0 DUP2 DUP6 PUSH1 0x20 DUP7 ADD PUSH2 0x11DC JUMP JUMPDEST DUP1 DUP5 ADD SWAP2 POP POP SWAP3 SWAP2 POP POP JUMP JUMPDEST PUSH1 0x0 PUSH2 0x17F8 DUP3 DUP5 PUSH2 0x17BB JUMP JUMPDEST SWAP2 POP DUP2 SWAP1 POP SWAP3 SWAP2 POP POP JUMP JUMPDEST PUSH32 0x4E487B7100000000000000000000000000000000000000000000000000000000 PUSH1 0x0 MSTORE PUSH1 0x11 PUSH1 0x4 MSTORE PUSH1 0x24 PUSH1 0x0 REVERT JUMPDEST PUSH1 0x0 PUSH2 0x183D DUP3 PUSH2 0xFBE JUMP JUMPDEST SWAP2 POP PUSH32 0xFFFFFFFFFFFFFFFFFFFFFFFFFFFFFFFFFFFFFFFFFFFFFFFFFFFFFFFFFFFFFFFF DUP3 SUB PUSH2 0x186F JUMPI PUSH2 0x186E PUSH2 0x1803 JUMP JUMPDEST JUMPDEST PUSH1 0x1 DUP3 ADD SWAP1 POP SWAP2 SWAP1 POP JUMP JUMPDEST PUSH1 0x0 PUSH2 0x1885 DUP3 PUSH2 0x11C0 JUMP JUMPDEST PUSH2 0x188F DUP2 DUP6 PUSH2 0x1672 JUMP JUMPDEST SWAP4 POP PUSH2 0x189F DUP2 DUP6 PUSH1 0x20 DUP7 ADD PUSH2 0x11DC JUMP JUMPDEST PUSH2 0x18A8 DUP2 PUSH2 0xD6B JUMP JUMPDEST DUP5 ADD SWAP2 POP POP SWAP3 SWAP2 POP POP JUMP JUMPDEST PUSH2 0x18BC DUP2 PUSH2 0x11A7 JUMP JUMPDEST DUP3 MSTORE POP POP JUMP JUMPDEST PUSH1 0x0 PUSH1 0x60 DUP3 ADD SWAP1 POP DUP2 DUP2 SUB PUSH1 0x0 DUP4 ADD MSTORE PUSH2 0x18DC DUP2 DUP7 PUSH2 0x187A JUMP JUMPDEST SWAP1 POP PUSH2 0x18EB PUSH1 0x20 DUP4 ADD DUP6 PUSH2 0x18B3 JUMP JUMPDEST DUP2 DUP2 SUB PUSH1 0x40 DUP4 ADD MSTORE PUSH2 0x18FD DUP2 DUP5 PUSH2 0x187A JUMP JUMPDEST SWAP1 POP SWAP5 SWAP4 POP POP POP POP JUMP JUMPDEST PUSH32 0x4E487B7100000000000000000000000000000000000000000000000000000000 PUSH1 0x0 MSTORE PUSH1 0x22 PUSH1 0x4 MSTORE PUSH1 0x24 PUSH1 0x0 REVERT JUMPDEST PUSH1 0x0 PUSH1 0x2 DUP3 DIV SWAP1 POP PUSH1 0x1 DUP3 AND DUP1 PUSH2 0x194E JUMPI PUSH1 0x7F DUP3 AND SWAP2 POP JUMPDEST PUSH1 0x20 DUP3 LT DUP2 SUB PUSH2 0x1961 JUMPI PUSH2 0x1960 PUSH2 0x1907 JUMP JUMPDEST JUMPDEST POP SWAP2 SWAP1 POP JUMP JUMPDEST PUSH32 0x4F6E6C792061646D696E2063616E20706572666F726D20746869732061637469 PUSH1 0x0 DUP3 ADD MSTORE PUSH32 0x6F6E000000000000000000000000000000000000000000000000000000000000 PUSH1 0x20 DUP3 ADD MSTORE POP JUMP JUMPDEST PUSH1 0x0 PUSH2 0x19C3 PUSH1 0x22 DUP4 PUSH2 0x1672 JUMP JUMPDEST SWAP2 POP PUSH2 0x19CE DUP3 PUSH2 0x1967 JUMP JUMPDEST PUSH1 0x40 DUP3 ADD SWAP1 POP SWAP2 SWAP1 POP JUMP JUMPDEST PUSH1 0x0 PUSH1 0x20 DUP3 ADD SWAP1 POP DUP2 DUP2 SUB PUSH1 0x0 DUP4 ADD MSTORE PUSH2 0x19F2 DUP2 PUSH2 0x19B6 JUMP JUMPDEST SWAP1 POP SWAP2 SWAP1 POP JUMP JUMPDEST PUSH1 0x0 DUP2 SWAP1 POP DUP2 PUSH1 0x0 MSTORE PUSH1 0x20 PUSH1 0x0 KECCAK256 SWAP1 POP SWAP2 SWAP1 POP JUMP JUMPDEST PUSH1 0x0 DUP2 SLOAD PUSH2 0x1A1B DUP2 PUSH2 0x1936 JUMP JUMPDEST PUSH2 0x1A25 DUP2 DUP7 PUSH2 0x17B0 JUMP JUMPDEST SWAP5 POP PUSH1 0x1 DUP3 AND PUSH1 0x0 DUP2 EQ PUSH2 0x1A40 JUMPI PUSH1 0x1 DUP2 EQ PUSH2 0x1A55 JUMPI PUSH2 0x1A88 JUMP JUMPDEST PUSH1 0xFF NOT DUP4 AND DUP7 MSTORE DUP2 ISZERO ISZERO DUP3 MUL DUP7 ADD SWAP4 POP PUSH2 0x1A88 JUMP JUMPDEST PUSH2 0x1A5E DUP6 PUSH2 0x19F9 JUMP JUMPDEST PUSH1 0x0 JUMPDEST DUP4 DUP2 LT ISZERO PUSH2 0x1A80 JUMPI DUP2 SLOAD DUP2 DUP10 ADD MSTORE PUSH1 0x1 DUP3 ADD SWAP2 POP PUSH1 0x20 DUP2 ADD SWAP1 POP PUSH2 0x1A61 JUMP JUMPDEST DUP4 DUP9 ADD SWAP6 POP POP POP JUMPDEST POP POP POP SWAP3 SWAP2 POP POP JUMP JUMPDEST PUSH1 0x0 PUSH2 0x1A9D DUP3 DUP5 PUSH2 0x1A0E JUMP JUMPDEST SWAP2 POP DUP2 SWAP1 POP SWAP3 SWAP2 POP POP JUMP JUMPDEST PUSH32 0x43616E646964617465732061726520616C72656164792066696E616C697A6564 PUSH1 0x0 DUP3 ADD MSTORE PUSH32 0x2100000000000000000000000000000000000000000000000000000000000000 PUSH1 0x20 DUP3 ADD MSTORE POP JUMP JUMPDEST PUSH1 0x0 PUSH2 0x1B04 PUSH1 0x21 DUP4 PUSH2 0x1672 JUMP JUMPDEST SWAP2 POP PUSH2 0x1B0F DUP3 PUSH2 0x1AA8 JUMP JUMPDEST PUSH1 0x40 DUP3 ADD SWAP1 POP SWAP2 SWAP1 POP JUMP JUMPDEST PUSH1 0x0 PUSH1 0x20 DUP3 ADD SWAP1 POP DUP2 DUP2 SUB PUSH1 0x0 DUP4 ADD MSTORE PUSH2 0x1B33 DUP2 PUSH2 0x1AF7 JUMP JUMPDEST SWAP1 POP SWAP2 SWAP1 POP JUMP JUMPDEST PUSH1 0x0 PUSH1 0x20 PUSH1 0x1F DUP4 ADD DIV SWAP1 POP SWAP2 SWAP1 POP JUMP JUMPDEST PUSH1 0x0 DUP3 DUP3 SHL SWAP1 POP SWAP3 SWAP2 POP POP JUMP JUMPDEST PUSH1 0x0 PUSH1 0x8 DUP4 MUL PUSH2 0x1B87 PUSH32 0xFFFFFFFFFFFFFFFFFFFFFFFFFFFFFFFFFFFFFFFFFFFFFFFFFFFFFFFFFFFFFFFF DUP3 PUSH2 0x1B4A JUMP JUMPDEST PUSH2 0x1B91 DUP7 DUP4 PUSH2 0x1B4A JUMP JUMPDEST SWAP6 POP DUP1 NOT DUP5 AND SWAP4 POP DUP1 DUP7 AND DUP5 OR SWAP3 POP POP POP SWAP4 SWAP3 POP POP POP JUMP JUMPDEST PUSH1 0x0 DUP2 SWAP1 POP SWAP2 SWAP1 POP JUMP JUMPDEST PUSH1 0x0 PUSH2 0x1BCE PUSH2 0x1BC9 PUSH2 0x1BC4 DUP5 PUSH2 0xFBE JUMP JUMPDEST PUSH2 0x1BA9 JUMP JUMPDEST PUSH2 0xFBE JUMP JUMPDEST SWAP1 POP SWAP2 SWAP1 POP JUMP JUMPDEST PUSH1 0x0 DUP2 SWAP1 POP SWAP2 SWAP1 POP JUMP JUMPDEST PUSH2 0x1BE8 DUP4 PUSH2 0x1BB3 JUMP JUMPDEST PUSH2 0x1BFC PUSH2 0x1BF4 DUP3 PUSH2 0x1BD5 JUMP JUMPDEST DUP5 DUP5 SLOAD PUSH2 0x1B57 JUMP JUMPDEST DUP3 SSTORE POP POP POP POP JUMP JUMPDEST PUSH1 0x0 SWAP1 JUMP JUMPDEST PUSH2 0x1C11 PUSH2 0x1C04 JUMP JUMPDEST PUSH2 0x1C1C DUP2 DUP5 DUP5 PUSH2 0x1BDF JUMP JUMPDEST POP POP POP JUMP JUMPDEST JUMPDEST DUP2 DUP2 LT ISZERO PUSH2 0x1C40 JUMPI PUSH2 0x1C35 PUSH1 0x0 DUP3 PUSH2 0x1C09 JUMP JUMPDEST PUSH1 0x1 DUP2 ADD SWAP1 POP PUSH2 0x1C22 JUMP JUMPDEST POP POP JUMP JUMPDEST PUSH1 0x1F DUP3 GT ISZERO PUSH2 0x1C85 JUMPI PUSH2 0x1C56 DUP2 PUSH2 0x19F9 JUMP JUMPDEST PUSH2 0x1C5F DUP5 PUSH2 0x1B3A JUMP JUMPDEST DUP2 ADD PUSH1 0x20 DUP6 LT ISZERO PUSH2 0x1C6E JUMPI DUP2 SWAP1 POP JUMPDEST PUSH2 0x1C82 PUSH2 0x1C7A DUP6 PUSH2 0x1B3A JUMP JUMPDEST DUP4 ADD DUP3 PUSH2 0x1C21 JUMP JUMPDEST POP POP JUMPDEST POP POP POP JUMP JUMPDEST PUSH1 0x0 DUP3 DUP3 SHR SWAP1 POP SWAP3 SWAP2 POP POP JUMP JUMPDEST PUSH1 0x0 PUSH2 0x1CA8 PUSH1 0x0 NOT DUP5 PUSH1 0x8 MUL PUSH2 0x1C8A JUMP JUMPDEST NOT DUP1 DUP4 AND SWAP2 POP POP SWAP3 SWAP2 POP POP JUMP JUMPDEST PUSH1 0x0 PUSH2 0x1CC1 DUP4 DUP4 PUSH2 0x1C97 JUMP JUMPDEST SWAP2 POP DUP3 PUSH1 0x2 MUL DUP3 OR SWAP1 POP SWAP3 SWAP2 POP POP JUMP JUMPDEST PUSH2 0x1CDA DUP3 PUSH2 0x11C0 JUMP JUMPDEST PUSH8 0xFFFFFFFFFFFFFFFF DUP2 GT ISZERO PUSH2 0x1CF3 JUMPI PUSH2 0x1CF2 PUSH2 0xD7C JUMP JUMPDEST JUMPDEST PUSH2 0x1CFD DUP3 SLOAD PUSH2 0x1936 JUMP JUMPDEST PUSH2 0x1D08 DUP3 DUP3 DUP6 PUSH2 0x1C44 JUMP JUMPDEST PUSH1 0x0 PUSH1 0x20 SWAP1 POP PUSH1 0x1F DUP4 GT PUSH1 0x1 DUP2 EQ PUSH2 0x1D3B JUMPI PUSH1 0x0 DUP5 ISZERO PUSH2 0x1D29 JUMPI DUP3 DUP8 ADD MLOAD SWAP1 POP JUMPDEST PUSH2 0x1D33 DUP6 DUP3 PUSH2 0x1CB5 JUMP JUMPDEST DUP7 SSTORE POP PUSH2 0x1D9B JUMP JUMPDEST PUSH1 0x1F NOT DUP5 AND PUSH2 0x1D49 DUP7 PUSH2 0x19F9 JUMP JUMPDEST PUSH1 0x0 JUMPDEST DUP3 DUP2 LT ISZERO PUSH2 0x1D71 JUMPI DUP5 DUP10 ADD MLOAD DUP3 SSTORE PUSH1 0x1 DUP3 ADD SWAP2 POP PUSH1 0x20 DUP6 ADD SWAP5 POP PUSH1 0x20 DUP2 ADD SWAP1 POP PUSH2 0x1D4C JUMP JUMPDEST DUP7 DUP4 LT ISZERO PUSH2 0x1D8E JUMPI DUP5 DUP10 ADD MLOAD PUSH2 0x1D8A PUSH1 0x1F DUP10 AND DUP3 PUSH2 0x1C97 JUMP JUMPDEST DUP4 SSTORE POP JUMPDEST PUSH1 0x1 PUSH1 0x2 DUP9 MUL ADD DUP9 SSTORE POP POP POP JUMPDEST POP POP POP POP POP POP JUMP JUMPDEST PUSH1 0x0 PUSH2 0x1DAE DUP3 PUSH2 0xFBE JUMP JUMPDEST SWAP2 POP PUSH2 0x1DB9 DUP4 PUSH2 0xFBE JUMP JUMPDEST SWAP3 POP DUP3 DUP3 ADD SWAP1 POP DUP1 DUP3 GT ISZERO PUSH2 0x1DD1 JUMPI PUSH2 0x1DD0 PUSH2 0x1803 JUMP JUMPDEST JUMPDEST SWAP3 SWAP2 POP POP JUMP INVALID LOG2 PUSH5 0x6970667358 0x22 SLT KECCAK256 EQ SWAP6 JUMP EQ MUL SWAP8 0xC9 0x2B DUP8 DELEGATECALL SSTORE LOG0 SDIV EXTCODESIZE DUP8 GASPRICE PUSH30 0x7276DD77A4380483D5DDB717C1B4FA64736F6C6343000815003300000000 "},"methodIdentifiers":{"admin()":"f851a440","batchVote(string[],uint256[],string)":"4340bcaa","getCandidates(string)":"45534763","getVoteCounts()":"ffc97b20","isFinalized()":"8d4e4083","resetCandidates()":"7718d9f3","submitCandidates(string[],bytes32[][],bytes32[][])":"b0918e8a"}}}}}