{"contracts/AdminCandidates.sol":{"AdminCandidates":{"abi":[{"inputs":[],"stateMutability":"nonpayable","type":"constructor"},{"anonymous":false,"inputs":[],"name":"CandidatesReset","type":"event"},{"anonymous":false,"inputs":[],"name":"CandidatesSubmitted","type":"event"},{"anonymous":false,"inputs":[{"indexed":false,"internalType":"bytes32","name":"position","type":"bytes32"},{"indexed":false,"internalType":"bytes32","name":"name","type":"bytes32"},{"indexed":false,"internalType":"bytes32","name":"voterHash","type":"bytes32"}],"name":"VoteSubmitted","type":"event"},{"inputs":[],"name":"admin","outputs":[{"internalType":"address","name":"","type":"address"}],"stateMutability":"view","type":"function"},{"inputs":[{"internalType":"bytes32[]","name":"_positions","type":"bytes32[]"},{"internalType":"uint256[]","name":"_indices","type":"uint256[]"},{"internalType":"bytes32","name":"_voterHash","type":"bytes32"}],"name":"batchVote","outputs":[],"stateMutability":"nonpayable","type":"function"},{"inputs":[{"internalType":"bytes32","name":"","type":"bytes32"}],"name":"boardMemberInfo","outputs":[{"internalType":"bytes32","name":"programPart1","type":"bytes32"},{"internalType":"bytes32","name":"programPart2","type":"bytes32"},{"internalType":"bytes32","name":"programPart3","type":"bytes32"}],"stateMutability":"view","type":"function"},{"inputs":[{"internalType":"bytes32","name":"_position","type":"bytes32"}],"name":"getCandidates","outputs":[{"components":[{"internalType":"bytes32","name":"name","type":"bytes32"},{"internalType":"bytes32","name":"party","type":"bytes32"}],"internalType":"struct AdminCandidates.CandidateEntry[]","name":"","type":"tuple[]"}],"stateMutability":"view","type":"function"},{"inputs":[],"name":"getPositionList","outputs":[{"internalType":"bytes32[]","name":"","type":"bytes32[]"}],"stateMutability":"view","type":"function"},{"inputs":[],"name":"getVoteCounts","outputs":[{"components":[{"internalType":"bytes32","name":"name","type":"bytes32"},{"internalType":"bytes32","name":"party","type":"bytes32"}],"internalType":"struct AdminCandidates.CandidateEntry[]","name":"","type":"tuple[]"},{"internalType":"uint256[]","name":"","type":"uint256[]"}],"stateMutability":"view","type":"function"},{"inputs":[{"internalType":"bytes32","name":"_position","type":"bytes32"},{"internalType":"uint256","name":"_index","type":"uint256"}],"name":"getVoterHashes","outputs":[{"internalType":"bytes32[]","name":"","type":"bytes32[]"}],"stateMutability":"view","type":"function"},{"inputs":[],"name":"getWinners","outputs":[{"components":[{"internalType":"bytes32","name":"position","type":"bytes32"},{"internalType":"bytes32","name":"name","type":"bytes32"},{"internalType":"bytes32","name":"party","type":"bytes32"},{"internalType":"uint256","name":"votes","type":"uint256"}],"internalType":"struct AdminCandidates.Winner[]","name":"","type":"tuple[]"}],"stateMutability":"view","type":"function"},{"inputs":[],"name":"isFinalized","outputs":[{"internalType":"bool","name":"","type":"bool"}],"stateMutability":"view","type":"function"},{"inputs":[],"name":"resetCandidates","outputs":[],"stateMutability":"nonpayable","type":"function"},{"inputs":[{"internalType":"bytes32[]","name":"_positions","type":"bytes32[]"},{"components":[{"internalType":"bytes32","name":"name","type":"bytes32"},{"internalType":"bytes32","name":"party","type":"bytes32"}],"internalType":"struct AdminCandidates.CandidateEntry[][]","name":"_candidates","type":"tuple[][]"},{"internalType":"bytes32[]","name":"_boardMemberProgramsPart1","type":"bytes32[]"},{"internalType":"bytes32[]","name":"_boardMemberProgramsPart2","type":"bytes32[]"},{"internalType":"bytes32[]","name":"_boardMemberProgramsPart3","type":"bytes32[]"}],"name":"submitCandidates","outputs":[],"stateMutability":"nonpayable","type":"function"}],"evm":{"bytecode":{"linkReferences":{},"object":"60806040526000600560146101000a81548160ff02191690831515021790555034801561002b57600080fd5b5033600560006101000a81548173ffffffffffffffffffffffffffffffffffffffff021916908373ffffffffffffffffffffffffffffffffffffffff1602179055506124538061007c6000396000f3fe608060405234801561001057600080fd5b50600436106100a95760003560e01c8063a5d3157e11610071578063a5d3157e14610152578063df15c37e14610170578063e64e84831461018e578063e7d8e8ad146101c0578063f851a440146101dc578063ffc97b20146101fa576100a9565b806370918ce3146100ae5780637718d9f3146100de57806385b923ca146100e85780638d4e4083146101185780639b51c62e14610136575b600080fd5b6100c860048036038101906100c3919061151d565b610219565b6040516100d5919061161b565b60405180910390f35b6100e6610296565b005b61010260048036038101906100fd919061163d565b6103e3565b60405161010f9190611748565b60405180910390f35b6101206104ff565b60405161012d9190611785565b60405180910390f35b610150600480360381019061014b9190611af2565b610512565b005b61015a610986565b604051610167919061161b565b60405180910390f35b6101786109de565b6040516101859190611d0c565b60405180910390f35b6101a860048036038101906101a3919061163d565b610bb9565b6040516101b793929190611d3d565b60405180910390f35b6101da60048036038101906101d59190611e37565b610be3565b005b6101e4610ec5565b6040516101f19190611f03565b60405180910390f35b610202610eeb565b604051610210929190611fcd565b60405180910390f35b606060016000848152602001908152602001600020600083815260200190815260200160002080548060200260200160405190810160405280929190818152602001828054801561028957602002820191906000526020600020905b815481526020019060010190808311610275575b5050505050905092915050565b600560009054906101000a900473ffffffffffffffffffffffffffffffffffffffff1673ffffffffffffffffffffffffffffffffffffffff163373ffffffffffffffffffffffffffffffffffffffff1614610326576040517f08c379a000000000000000000000000000000000000000000000000000000000815260040161031d90612087565b60405180910390fd5b60005b60038054905081101561038b5760006003828154811061034c5761034b6120a7565b5b90600052602060002001549050600080828152602001908152602001600020600061037791906113bb565b50808061038390612105565b915050610329565b506003600061039a91906113df565b6000600560146101000a81548160ff0219169083151502179055507f800bdaa40887ccfd790fdc79f47cf3acbb2a1ecf28b3bccb67e3719009c1bab260405160405180910390a1565b6060600080600084815260200190815260200160002090506000818054905067ffffffffffffffff81111561041b5761041a6117b6565b5b60405190808252806020026020018201604052801561045457816020015b610441611400565b8152602001906001900390816104395790505b50905060005b82805490508110156104f4576040518060400160405280848381548110610484576104836120a7565b5b90600052602060002090600302016000015481526020018483815481106104ae576104ad6120a7565b5b9060005260206000209060030201600101548152508282815181106104d6576104d56120a7565b5b602002602001018190525080806104ec90612105565b91505061045a565b508092505050919050565b600560149054906101000a900460ff1681565b600560009054906101000a900473ffffffffffffffffffffffffffffffffffffffff1673ffffffffffffffffffffffffffffffffffffffff163373ffffffffffffffffffffffffffffffffffffffff16146105a2576040517f08c379a000000000000000000000000000000000000000000000000000000000815260040161059990612087565b60405180910390fd5b600560149054906101000a900460ff16156105f2576040517f08c379a00000000000000000000000000000000000000000000000000000000081526004016105e9906121bf565b60405180910390fd5b6003600061060091906113df565b60005b8551811015610937576000806000888481518110610624576106236120a7565b5b602002602001015181526020019081526020016000208054905003610687576003868281518110610658576106576120a7565b5b602002602001015190806001815401808255809150506001900390600052602060002001600090919091909150555b60008087838151811061069d5761069c6120a7565b5b6020026020010151815260200190815260200160002060006106bf91906113bb565b60005b8582815181106106d5576106d46120a7565b5b602002602001015151811015610843576000808884815181106106fb576106fa6120a7565b5b60200260200101518152602001908152602001600020604051806060016040528088858151811061072f5761072e6120a7565b5b60200260200101518481518110610749576107486120a7565b5b602002602001015160000151815260200188858151811061076d5761076c6120a7565b5b60200260200101518481518110610787576107866120a7565b5b6020026020010151602001518152602001600081525090806001815401808255809150506001900390600052602060002090600302016000909190919091506000820151816000015560208201518160010155604082015181600201555050600160008884815181106107fd576107fc6120a7565b5b602002602001015181526020019081526020016000206000828152602001908152602001600020600061083091906113df565b808061083b90612105565b9150506106c2565b5061086786828151811061085a576108596120a7565b5b602002602001015161114b565b1561092457604051806060016040528085838151811061088a576108896120a7565b5b602002602001015181526020018483815181106108aa576108a96120a7565b5b602002602001015181526020018383815181106108ca576108c96120a7565b5b6020026020010151815250600460008884815181106108ec576108eb6120a7565b5b602002602001015181526020019081526020016000206000820151816000015560208201518160010155604082015181600201559050505b808061092f90612105565b915050610603565b506001600560146101000a81548160ff0219169083151502179055507f86825b43264ca968e676c45c8e05cc56965ff5938ed49dcf636c61acb7070bd760405160405180910390a15050505050565b606060038054806020026020016040519081016040528092919081815260200182805480156109d457602002820191906000526020600020905b8154815260200190600101908083116109c0575b5050505050905090565b60606000600380549050905060008167ffffffffffffffff811115610a0657610a056117b6565b5b604051908082528060200260200182016040528015610a3f57816020015b610a2c611420565b815260200190600190039081610a245790505b50905060005b82811015610bb057600060038281548110610a6357610a626120a7565b5b90600052602060002001549050600080600083815260200190815260200160002090506000806000805b8480549050811015610b1057811580610ac9575083858281548110610ab557610ab46120a7565b5b906000526020600020906003020160020154115b15610afd57848181548110610ae157610ae06120a7565b5b9060005260206000209060030201600201549350809250600191505b8080610b0890612105565b915050610a8d565b506040518060800160405280868152602001858481548110610b3557610b346120a7565b5b9060005260206000209060030201600001548152602001858481548110610b5f57610b5e6120a7565b5b906000526020600020906003020160010154815260200184815250878781518110610b8d57610b8c6120a7565b5b602002602001018190525050505050508080610ba890612105565b915050610a45565b50809250505090565b60046020528060005260406000206000915090508060000154908060010154908060020154905083565b600560149054906101000a900460ff16610c32576040517f08c379a0000000000000000000000000000000000000000000000000000000008152600401610c2990612251565b60405180910390fd5b8151835114610c76576040517f08c379a0000000000000000000000000000000000000000000000000000000008152600401610c6d906122bd565b60405180910390fd5b6002600082815260200190815260200160002060009054906101000a900460ff1615610cd7576040517f08c379a0000000000000000000000000000000000000000000000000000000008152600401610cce90612329565b60405180910390fd5b60016002600083815260200190815260200160002060006101000a81548160ff02191690831515021790555060005b8351811015610ebf576000848281518110610d2457610d236120a7565b5b602002602001015190506000848381518110610d4357610d426120a7565b5b60200260200101519050600080838152602001908152602001600020805490508110610da4576040517f08c379a0000000000000000000000000000000000000000000000000000000008152600401610d9b90612395565b60405180910390fd5b6000808381526020019081526020016000208181548110610dc857610dc76120a7565b5b90600052602060002090600302016002016000815480929190610dea90612105565b91905055506001600083815260200190815260200160002060008281526020019081526020016000208490806001815401808255809150506001900390600052602060002001600090919091909150557f178e76faa844f1c429cbe43bb805a70530f990ef2acc87f8f626ac80ff484909826000808581526020019081526020016000208381548110610e8057610e7f6120a7565b5b90600052602060002090600302016000015486604051610ea293929190611d3d565b60405180910390a150508080610eb790612105565b915050610d06565b50505050565b600560009054906101000a900473ffffffffffffffffffffffffffffffffffffffff1681565b6060806000805b600380549050811015610f535760008060038381548110610f1657610f156120a7565b5b906000526020600020015481526020019081526020016000208054905082610f3e91906123b5565b91508080610f4b90612105565b915050610ef2565b5060008167ffffffffffffffff811115610f7057610f6f6117b6565b5b604051908082528060200260200182016040528015610fa957816020015b610f96611400565b815260200190600190039081610f8e5790505b50905060008267ffffffffffffffff811115610fc857610fc76117b6565b5b604051908082528060200260200182016040528015610ff65781602001602082028036833780820191505090505b5090506000805b60038054905081101561113c57600080600060038481548110611023576110226120a7565b5b90600052602060002001548152602001908152602001600020905060005b818054905081101561112757604051806040016040528083838154811061106b5761106a6120a7565b5b9060005260206000209060030201600001548152602001838381548110611095576110946120a7565b5b9060005260206000209060030201600101548152508685815181106110bd576110bc6120a7565b5b60200260200101819052508181815481106110db576110da6120a7565b5b906000526020600020906003020160020154858581518110611100576110ff6120a7565b5b6020026020010181815250508380600101945050808061111f90612105565b915050611041565b5050808061113490612105565b915050610ffd565b50828295509550505050509091565b60008061115783611285565b9050600081905060006040518060400160405280600f81526020017f202d20426f617264204d656d626572000000000000000000000000000000000081525090508051825110156111ae5760009350505050611280565b60005b8151811015611277578181815181106111cd576111cc6120a7565b5b602001015160f81c60f81b7effffffffffffffffffffffffffffffffffffffffffffffffffffffffffffff191683828451865161120a91906123e9565b61121491906123b5565b81518110611225576112246120a7565b5b602001015160f81c60f81b7effffffffffffffffffffffffffffffffffffffffffffffffffffffffffffff191614611264576000945050505050611280565b808061126f90612105565b9150506111b1565b50600193505050505b919050565b606060005b6020811080156112d65750600060f81b8382602081106112ad576112ac6120a7565b5b1a60f81b7effffffffffffffffffffffffffffffffffffffffffffffffffffffffffffff191614155b156112e857808060010191505061128a565b60008167ffffffffffffffff811115611304576113036117b6565b5b6040519080825280601f01601f1916602001820160405280156113365781602001600182028036833780820191505090505b50905060005b828110156113b057848160208110611357576113566120a7565b5b1a60f81b82828151811061136e5761136d6120a7565b5b60200101907effffffffffffffffffffffffffffffffffffffffffffffffffffffffffffff1916908160001a90535080806113a890612105565b91505061133c565b508092505050919050565b50805460008255600302906000526020600020908101906113dc9190611451565b50565b50805460008255906000526020600020908101906113fd9190611480565b50565b604051806040016040528060008019168152602001600080191681525090565b6040518060800160405280600080191681526020016000801916815260200160008019168152602001600081525090565b5b8082111561147c576000808201600090556001820160009055600282016000905550600301611452565b5090565b5b80821115611499576000816000905550600101611481565b5090565b6000604051905090565b600080fd5b600080fd5b6000819050919050565b6114c4816114b1565b81146114cf57600080fd5b50565b6000813590506114e1816114bb565b92915050565b6000819050919050565b6114fa816114e7565b811461150557600080fd5b50565b600081359050611517816114f1565b92915050565b60008060408385031215611534576115336114a7565b5b6000611542858286016114d2565b925050602061155385828601611508565b9150509250929050565b600081519050919050565b600082825260208201905092915050565b6000819050602082019050919050565b611592816114b1565b82525050565b60006115a48383611589565b60208301905092915050565b6000602082019050919050565b60006115c88261155d565b6115d28185611568565b93506115dd83611579565b8060005b8381101561160e5781516115f58882611598565b9750611600836115b0565b9250506001810190506115e1565b5085935050505092915050565b6000602082019050818103600083015261163581846115bd565b905092915050565b600060208284031215611653576116526114a7565b5b6000611661848285016114d2565b91505092915050565b600081519050919050565b600082825260208201905092915050565b6000819050602082019050919050565b6040820160008201516116ac6000850182611589565b5060208201516116bf6020850182611589565b50505050565b60006116d18383611696565b60408301905092915050565b6000602082019050919050565b60006116f58261166a565b6116ff8185611675565b935061170a83611686565b8060005b8381101561173b57815161172288826116c5565b975061172d836116dd565b92505060018101905061170e565b5085935050505092915050565b6000602082019050818103600083015261176281846116ea565b905092915050565b60008115159050919050565b61177f8161176a565b82525050565b600060208201905061179a6000830184611776565b92915050565b600080fd5b6000601f19601f8301169050919050565b7f4e487b7100000000000000000000000000000000000000000000000000000000600052604160045260246000fd5b6117ee826117a5565b810181811067ffffffffffffffff8211171561180d5761180c6117b6565b5b80604052505050565b600061182061149d565b905061182c82826117e5565b919050565b600067ffffffffffffffff82111561184c5761184b6117b6565b5b602082029050602081019050919050565b600080fd5b600061187561187084611831565b611816565b905080838252602082019050602084028301858111156118985761189761185d565b5b835b818110156118c157806118ad88826114d2565b84526020840193505060208101905061189a565b5050509392505050565b600082601f8301126118e0576118df6117a0565b5b81356118f0848260208601611862565b91505092915050565b600067ffffffffffffffff821115611914576119136117b6565b5b602082029050602081019050919050565b600067ffffffffffffffff8211156119405761193f6117b6565b5b602082029050602081019050919050565b600080fd5b60006040828403121561196c5761196b611951565b5b6119766040611816565b90506000611986848285016114d2565b600083015250602061199a848285016114d2565b60208301525092915050565b60006119b96119b484611925565b611816565b905080838252602082019050604084028301858111156119dc576119db61185d565b5b835b81811015611a0557806119f18882611956565b8452602084019350506040810190506119de565b5050509392505050565b600082601f830112611a2457611a236117a0565b5b8135611a348482602086016119a6565b91505092915050565b6000611a50611a4b846118f9565b611816565b90508083825260208201905060208402830185811115611a7357611a7261185d565b5b835b81811015611aba57803567ffffffffffffffff811115611a9857611a976117a0565b5b808601611aa58982611a0f565b85526020850194505050602081019050611a75565b5050509392505050565b600082601f830112611ad957611ad86117a0565b5b8135611ae9848260208601611a3d565b91505092915050565b600080600080600060a08688031215611b0e57611b0d6114a7565b5b600086013567ffffffffffffffff811115611b2c57611b2b6114ac565b5b611b38888289016118cb565b955050602086013567ffffffffffffffff811115611b5957611b586114ac565b5b611b6588828901611ac4565b945050604086013567ffffffffffffffff811115611b8657611b856114ac565b5b611b92888289016118cb565b935050606086013567ffffffffffffffff811115611bb357611bb26114ac565b5b611bbf888289016118cb565b925050608086013567ffffffffffffffff811115611be057611bdf6114ac565b5b611bec888289016118cb565b9150509295509295909350565b600081519050919050565b600082825260208201905092915050565b6000819050602082019050919050565b611c2e816114e7565b82525050565b608082016000820151611c4a6000850182611589565b506020820151611c5d6020850182611589565b506040820151611c706040850182611589565b506060820151611c836060850182611c25565b50505050565b6000611c958383611c34565b60808301905092915050565b6000602082019050919050565b6000611cb982611bf9565b611cc38185611c04565b9350611cce83611c15565b8060005b83811015611cff578151611ce68882611c89565b9750611cf183611ca1565b925050600181019050611cd2565b5085935050505092915050565b60006020820190508181036000830152611d268184611cae565b905092915050565b611d37816114b1565b82525050565b6000606082019050611d526000830186611d2e565b611d5f6020830185611d2e565b611d6c6040830184611d2e565b949350505050565b600067ffffffffffffffff821115611d8f57611d8e6117b6565b5b602082029050602081019050919050565b6000611db3611dae84611d74565b611816565b90508083825260208201905060208402830185811115611dd657611dd561185d565b5b835b81811015611dff5780611deb8882611508565b845260208401935050602081019050611dd8565b5050509392505050565b600082601f830112611e1e57611e1d6117a0565b5b8135611e2e848260208601611da0565b91505092915050565b600080600060608486031215611e5057611e4f6114a7565b5b600084013567ffffffffffffffff811115611e6e57611e6d6114ac565b5b611e7a868287016118cb565b935050602084013567ffffffffffffffff811115611e9b57611e9a6114ac565b5b611ea786828701611e09565b9250506040611eb8868287016114d2565b9150509250925092565b600073ffffffffffffffffffffffffffffffffffffffff82169050919050565b6000611eed82611ec2565b9050919050565b611efd81611ee2565b82525050565b6000602082019050611f186000830184611ef4565b92915050565b600081519050919050565b600082825260208201905092915050565b6000819050602082019050919050565b6000611f568383611c25565b60208301905092915050565b6000602082019050919050565b6000611f7a82611f1e565b611f848185611f29565b9350611f8f83611f3a565b8060005b83811015611fc0578151611fa78882611f4a565b9750611fb283611f62565b925050600181019050611f93565b5085935050505092915050565b60006040820190508181036000830152611fe781856116ea565b90508181036020830152611ffb8184611f6f565b90509392505050565b600082825260208201905092915050565b7f4f6e6c792061646d696e2063616e20706572666f726d2074686973206163746960008201527f6f6e000000000000000000000000000000000000000000000000000000000000602082015250565b6000612071602283612004565b915061207c82612015565b604082019050919050565b600060208201905081810360008301526120a081612064565b9050919050565b7f4e487b7100000000000000000000000000000000000000000000000000000000600052603260045260246000fd5b7f4e487b7100000000000000000000000000000000000000000000000000000000600052601160045260246000fd5b6000612110826114e7565b91507fffffffffffffffffffffffffffffffffffffffffffffffffffffffffffffffff8203612142576121416120d6565b5b600182019050919050565b7f43616e646964617465732061726520616c72656164792066696e616c697a656460008201527f2100000000000000000000000000000000000000000000000000000000000000602082015250565b60006121a9602183612004565b91506121b48261214d565b604082019050919050565b600060208201905081810360008301526121d88161219c565b9050919050565b7f566f74696e672063616e6e6f7420737461727420756e74696c2063616e64696460008201527f61746573206172652066696e616c697a65642100000000000000000000000000602082015250565b600061223b603383612004565b9150612246826121df565b604082019050919050565b6000602082019050818103600083015261226a8161222e565b9050919050565b7f4d69736d61746368656420696e707574206c656e677468730000000000000000600082015250565b60006122a7601883612004565b91506122b282612271565b602082019050919050565b600060208201905081810360008301526122d68161229a565b9050919050565b7f566f7465722068617320616c726561647920766f746564000000000000000000600082015250565b6000612313601783612004565b915061231e826122dd565b602082019050919050565b6000602082019050818103600083015261234281612306565b9050919050565b7f496e76616c69642063616e64696461746520696e646578000000000000000000600082015250565b600061237f601783612004565b915061238a82612349565b602082019050919050565b600060208201905081810360008301526123ae81612372565b9050919050565b60006123c0826114e7565b91506123cb836114e7565b92508282019050808211156123e3576123e26120d6565b5b92915050565b60006123f4826114e7565b91506123ff836114e7565b9250828203905081811115612417576124166120d6565b5b9291505056fea2646970667358221220d0fb814116e627fe5042e150eaacccad256a9209768139066e737db79b021c8264736f6c63430008150033","opcodes":"PUSH1 0x80 PUSH1 0x40 MSTORE PUSH1 0x0 PUSH1 0x5 PUSH1 0x14 PUSH2 0x100 EXP DUP2 SLOAD DUP2 PUSH1 0xFF MUL NOT AND SWAP1 DUP4 ISZERO ISZERO MUL OR SWAP1 SSTORE POP CALLVALUE DUP1 ISZERO PUSH2 0x2B JUMPI PUSH1 0x0 DUP1 REVERT JUMPDEST POP CALLER PUSH1 0x5 PUSH1 0x0 PUSH2 0x100 EXP DUP2 SLOAD DUP2 PUSH20 0xFFFFFFFFFFFFFFFFFFFFFFFFFFFFFFFFFFFFFFFF MUL NOT AND SWAP1 DUP4 PUSH20 0xFFFFFFFFFFFFFFFFFFFFFFFFFFFFFFFFFFFFFFFF AND MUL OR SWAP1 SSTORE POP PUSH2 0x2453 DUP1 PUSH2 0x7C PUSH1 0x0 CODECOPY PUSH1 0x0 RETURN INVALID PUSH1 0x80 PUSH1 0x40 MSTORE CALLVALUE DUP1 ISZERO PUSH2 0x10 JUMPI PUSH1 0x0 DUP1 REVERT JUMPDEST POP PUSH1 0x4 CALLDATASIZE LT PUSH2 0xA9 JUMPI PUSH1 0x0 CALLDATALOAD PUSH1 0xE0 SHR DUP1 PUSH4 0xA5D3157E GT PUSH2 0x71 JUMPI DUP1 PUSH4 0xA5D3157E EQ PUSH2 0x152 JUMPI DUP1 PUSH4 0xDF15C37E EQ PUSH2 0x170 JUMPI DUP1 PUSH4 0xE64E8483 EQ PUSH2 0x18E JUMPI DUP1 PUSH4 0xE7D8E8AD EQ PUSH2 0x1C0 JUMPI DUP1 PUSH4 0xF851A440 EQ PUSH2 0x1DC JUMPI DUP1 PUSH4 0xFFC97B20 EQ PUSH2 0x1FA JUMPI PUSH2 0xA9 JUMP JUMPDEST DUP1 PUSH4 0x70918CE3 EQ PUSH2 0xAE JUMPI DUP1 PUSH4 0x7718D9F3 EQ PUSH2 0xDE JUMPI DUP1 PUSH4 0x85B923CA EQ PUSH2 0xE8 JUMPI DUP1 PUSH4 0x8D4E4083 EQ PUSH2 0x118 JUMPI DUP1 PUSH4 0x9B51C62E EQ PUSH2 0x136 JUMPI JUMPDEST PUSH1 0x0 DUP1 REVERT JUMPDEST PUSH2 0xC8 PUSH1 0x4 DUP1 CALLDATASIZE SUB DUP2 ADD SWAP1 PUSH2 0xC3 SWAP2 SWAP1 PUSH2 0x151D JUMP JUMPDEST PUSH2 0x219 JUMP JUMPDEST PUSH1 0x40 MLOAD PUSH2 0xD5 SWAP2 SWAP1 PUSH2 0x161B JUMP JUMPDEST PUSH1 0x40 MLOAD DUP1 SWAP2 SUB SWAP1 RETURN JUMPDEST PUSH2 0xE6 PUSH2 0x296 JUMP JUMPDEST STOP JUMPDEST PUSH2 0x102 PUSH1 0x4 DUP1 CALLDATASIZE SUB DUP2 ADD SWAP1 PUSH2 0xFD SWAP2 SWAP1 PUSH2 0x163D JUMP JUMPDEST PUSH2 0x3E3 JUMP JUMPDEST PUSH1 0x40 MLOAD PUSH2 0x10F SWAP2 SWAP1 PUSH2 0x1748 JUMP JUMPDEST PUSH1 0x40 MLOAD DUP1 SWAP2 SUB SWAP1 RETURN JUMPDEST PUSH2 0x120 PUSH2 0x4FF JUMP JUMPDEST PUSH1 0x40 MLOAD PUSH2 0x12D SWAP2 SWAP1 PUSH2 0x1785 JUMP JUMPDEST PUSH1 0x40 MLOAD DUP1 SWAP2 SUB SWAP1 RETURN JUMPDEST PUSH2 0x150 PUSH1 0x4 DUP1 CALLDATASIZE SUB DUP2 ADD SWAP1 PUSH2 0x14B SWAP2 SWAP1 PUSH2 0x1AF2 JUMP JUMPDEST PUSH2 0x512 JUMP JUMPDEST STOP JUMPDEST PUSH2 0x15A PUSH2 0x986 JUMP JUMPDEST PUSH1 0x40 MLOAD PUSH2 0x167 SWAP2 SWAP1 PUSH2 0x161B JUMP JUMPDEST PUSH1 0x40 MLOAD DUP1 SWAP2 SUB SWAP1 RETURN JUMPDEST PUSH2 0x178 PUSH2 0x9DE JUMP JUMPDEST PUSH1 0x40 MLOAD PUSH2 0x185 SWAP2 SWAP1 PUSH2 0x1D0C JUMP JUMPDEST PUSH1 0x40 MLOAD DUP1 SWAP2 SUB SWAP1 RETURN JUMPDEST PUSH2 0x1A8 PUSH1 0x4 DUP1 CALLDATASIZE SUB DUP2 ADD SWAP1 PUSH2 0x1A3 SWAP2 SWAP1 PUSH2 0x163D JUMP JUMPDEST PUSH2 0xBB9 JUMP JUMPDEST PUSH1 0x40 MLOAD PUSH2 0x1B7 SWAP4 SWAP3 SWAP2 SWAP1 PUSH2 0x1D3D JUMP JUMPDEST PUSH1 0x40 MLOAD DUP1 SWAP2 SUB SWAP1 RETURN JUMPDEST PUSH2 0x1DA PUSH1 0x4 DUP1 CALLDATASIZE SUB DUP2 ADD SWAP1 PUSH2 0x1D5 SWAP2 SWAP1 PUSH2 0x1E37 JUMP JUMPDEST PUSH2 0xBE3 JUMP JUMPDEST STOP JUMPDEST PUSH2 0x1E4 PUSH2 0xEC5 JUMP JUMPDEST PUSH1 0x40 MLOAD PUSH2 0x1F1 SWAP2 SWAP1 PUSH2 0x1F03 JUMP JUMPDEST PUSH1 0x40 MLOAD DUP1 SWAP2 SUB SWAP1 RETURN JUMPDEST PUSH2 0x202 PUSH2 0xEEB JUMP JUMPDEST PUSH1 0x40 MLOAD PUSH2 0x210 SWAP3 SWAP2 SWAP1 PUSH2 0x1FCD JUMP JUMPDEST PUSH1 0x40 MLOAD DUP1 SWAP2 SUB SWAP1 RETURN JUMPDEST PUSH1 0x60 PUSH1 0x1 PUSH1 0x0 DUP5 DUP2 MSTORE PUSH1 0x20 ADD SWAP1 DUP2 MSTORE PUSH1 0x20 ADD PUSH1 0x0 KECCAK256 PUSH1 0x0 DUP4 DUP2 MSTORE PUSH1 0x20 ADD SWAP1 DUP2 MSTORE PUSH1 0x20 ADD PUSH1 0x0 KECCAK256 DUP1 SLOAD DUP1 PUSH1 0x20 MUL PUSH1 0x20 ADD PUSH1 0x40 MLOAD SWAP1 DUP2 ADD PUSH1 0x40 MSTORE DUP1 SWAP3 SWAP2 SWAP1 DUP2 DUP2 MSTORE PUSH1 0x20 ADD DUP3 DUP1 SLOAD DUP1 ISZERO PUSH2 0x289 JUMPI PUSH1 0x20 MUL DUP3 ADD SWAP2 SWAP1 PUSH1 0x0 MSTORE PUSH1 0x20 PUSH1 0x0 KECCAK256 SWAP1 JUMPDEST DUP2 SLOAD DUP2 MSTORE PUSH1 0x20 ADD SWAP1 PUSH1 0x1 ADD SWAP1 DUP1 DUP4 GT PUSH2 0x275 JUMPI JUMPDEST POP POP POP POP POP SWAP1 POP SWAP3 SWAP2 POP POP JUMP JUMPDEST PUSH1 0x5 PUSH1 0x0 SWAP1 SLOAD SWAP1 PUSH2 0x100 EXP SWAP1 DIV PUSH20 0xFFFFFFFFFFFFFFFFFFFFFFFFFFFFFFFFFFFFFFFF AND PUSH20 0xFFFFFFFFFFFFFFFFFFFFFFFFFFFFFFFFFFFFFFFF AND CALLER PUSH20 0xFFFFFFFFFFFFFFFFFFFFFFFFFFFFFFFFFFFFFFFF AND EQ PUSH2 0x326 JUMPI PUSH1 0x40 MLOAD PUSH32 0x8C379A000000000000000000000000000000000000000000000000000000000 DUP2 MSTORE PUSH1 0x4 ADD PUSH2 0x31D SWAP1 PUSH2 0x2087 JUMP JUMPDEST PUSH1 0x40 MLOAD DUP1 SWAP2 SUB SWAP1 REVERT JUMPDEST PUSH1 0x0 JUMPDEST PUSH1 0x3 DUP1 SLOAD SWAP1 POP DUP2 LT ISZERO PUSH2 0x38B JUMPI PUSH1 0x0 PUSH1 0x3 DUP3 DUP2 SLOAD DUP2 LT PUSH2 0x34C JUMPI PUSH2 0x34B PUSH2 0x20A7 JUMP JUMPDEST JUMPDEST SWAP1 PUSH1 0x0 MSTORE PUSH1 0x20 PUSH1 0x0 KECCAK256 ADD SLOAD SWAP1 POP PUSH1 0x0 DUP1 DUP3 DUP2 MSTORE PUSH1 0x20 ADD SWAP1 DUP2 MSTORE PUSH1 0x20 ADD PUSH1 0x0 KECCAK256 PUSH1 0x0 PUSH2 0x377 SWAP2 SWAP1 PUSH2 0x13BB JUMP JUMPDEST POP DUP1 DUP1 PUSH2 0x383 SWAP1 PUSH2 0x2105 JUMP JUMPDEST SWAP2 POP POP PUSH2 0x329 JUMP JUMPDEST POP PUSH1 0x3 PUSH1 0x0 PUSH2 0x39A SWAP2 SWAP1 PUSH2 0x13DF JUMP JUMPDEST PUSH1 0x0 PUSH1 0x5 PUSH1 0x14 PUSH2 0x100 EXP DUP2 SLOAD DUP2 PUSH1 0xFF MUL NOT AND SWAP1 DUP4 ISZERO ISZERO MUL OR SWAP1 SSTORE POP PUSH32 0x800BDAA40887CCFD790FDC79F47CF3ACBB2A1ECF28B3BCCB67E3719009C1BAB2 PUSH1 0x40 MLOAD PUSH1 0x40 MLOAD DUP1 SWAP2 SUB SWAP1 LOG1 JUMP JUMPDEST PUSH1 0x60 PUSH1 0x0 DUP1 PUSH1 0x0 DUP5 DUP2 MSTORE PUSH1 0x20 ADD SWAP1 DUP2 MSTORE PUSH1 0x20 ADD PUSH1 0x0 KECCAK256 SWAP1 POP PUSH1 0x0 DUP2 DUP1 SLOAD SWAP1 POP PUSH8 0xFFFFFFFFFFFFFFFF DUP2 GT ISZERO PUSH2 0x41B JUMPI PUSH2 0x41A PUSH2 0x17B6 JUMP JUMPDEST JUMPDEST PUSH1 0x40 MLOAD SWAP1 DUP1 DUP3 MSTORE DUP1 PUSH1 0x20 MUL PUSH1 0x20 ADD DUP3 ADD PUSH1 0x40 MSTORE DUP1 ISZERO PUSH2 0x454 JUMPI DUP2 PUSH1 0x20 ADD JUMPDEST PUSH2 0x441 PUSH2 0x1400 JUMP JUMPDEST DUP2 MSTORE PUSH1 0x20 ADD SWAP1 PUSH1 0x1 SWAP1 SUB SWAP1 DUP2 PUSH2 0x439 JUMPI SWAP1 POP JUMPDEST POP SWAP1 POP PUSH1 0x0 JUMPDEST DUP3 DUP1 SLOAD SWAP1 POP DUP2 LT ISZERO PUSH2 0x4F4 JUMPI PUSH1 0x40 MLOAD DUP1 PUSH1 0x40 ADD PUSH1 0x40 MSTORE DUP1 DUP5 DUP4 DUP2 SLOAD DUP2 LT PUSH2 0x484 JUMPI PUSH2 0x483 PUSH2 0x20A7 JUMP JUMPDEST JUMPDEST SWAP1 PUSH1 0x0 MSTORE PUSH1 0x20 PUSH1 0x0 KECCAK256 SWAP1 PUSH1 0x3 MUL ADD PUSH1 0x0 ADD SLOAD DUP2 MSTORE PUSH1 0x20 ADD DUP5 DUP4 DUP2 SLOAD DUP2 LT PUSH2 0x4AE JUMPI PUSH2 0x4AD PUSH2 0x20A7 JUMP JUMPDEST JUMPDEST SWAP1 PUSH1 0x0 MSTORE PUSH1 0x20 PUSH1 0x0 KECCAK256 SWAP1 PUSH1 0x3 MUL ADD PUSH1 0x1 ADD SLOAD DUP2 MSTORE POP DUP3 DUP3 DUP2 MLOAD DUP2 LT PUSH2 0x4D6 JUMPI PUSH2 0x4D5 PUSH2 0x20A7 JUMP JUMPDEST JUMPDEST PUSH1 0x20 MUL PUSH1 0x20 ADD ADD DUP2 SWAP1 MSTORE POP DUP1 DUP1 PUSH2 0x4EC SWAP1 PUSH2 0x2105 JUMP JUMPDEST SWAP2 POP POP PUSH2 0x45A JUMP JUMPDEST POP DUP1 SWAP3 POP POP POP SWAP2 SWAP1 POP JUMP JUMPDEST PUSH1 0x5 PUSH1 0x14 SWAP1 SLOAD SWAP1 PUSH2 0x100 EXP SWAP1 DIV PUSH1 0xFF AND DUP2 JUMP JUMPDEST PUSH1 0x5 PUSH1 0x0 SWAP1 SLOAD SWAP1 PUSH2 0x100 EXP SWAP1 DIV PUSH20 0xFFFFFFFFFFFFFFFFFFFFFFFFFFFFFFFFFFFFFFFF AND PUSH20 0xFFFFFFFFFFFFFFFFFFFFFFFFFFFFFFFFFFFFFFFF AND CALLER PUSH20 0xFFFFFFFFFFFFFFFFFFFFFFFFFFFFFFFFFFFFFFFF AND EQ PUSH2 0x5A2 JUMPI PUSH1 0x40 MLOAD PUSH32 0x8C379A000000000000000000000000000000000000000000000000000000000 DUP2 MSTORE PUSH1 0x4 ADD PUSH2 0x599 SWAP1 PUSH2 0x2087 JUMP JUMPDEST PUSH1 0x40 MLOAD DUP1 SWAP2 SUB SWAP1 REVERT JUMPDEST PUSH1 0x5 PUSH1 0x14 SWAP1 SLOAD SWAP1 PUSH2 0x100 EXP SWAP1 DIV PUSH1 0xFF AND ISZERO PUSH2 0x5F2 JUMPI PUSH1 0x40 MLOAD PUSH32 0x8C379A000000000000000000000000000000000000000000000000000000000 DUP2 MSTORE PUSH1 0x4 ADD PUSH2 0x5E9 SWAP1 PUSH2 0x21BF JUMP JUMPDEST PUSH1 0x40 MLOAD DUP1 SWAP2 SUB SWAP1 REVERT JUMPDEST PUSH1 0x3 PUSH1 0x0 PUSH2 0x600 SWAP2 SWAP1 PUSH2 0x13DF JUMP JUMPDEST PUSH1 0x0 JUMPDEST DUP6 MLOAD DUP2 LT ISZERO PUSH2 0x937 JUMPI PUSH1 0x0 DUP1 PUSH1 0x0 DUP9 DUP5 DUP2 MLOAD DUP2 LT PUSH2 0x624 JUMPI PUSH2 0x623 PUSH2 0x20A7 JUMP JUMPDEST JUMPDEST PUSH1 0x20 MUL PUSH1 0x20 ADD ADD MLOAD DUP2 MSTORE PUSH1 0x20 ADD SWAP1 DUP2 MSTORE PUSH1 0x20 ADD PUSH1 0x0 KECCAK256 DUP1 SLOAD SWAP1 POP SUB PUSH2 0x687 JUMPI PUSH1 0x3 DUP7 DUP3 DUP2 MLOAD DUP2 LT PUSH2 0x658 JUMPI PUSH2 0x657 PUSH2 0x20A7 JUMP JUMPDEST JUMPDEST PUSH1 0x20 MUL PUSH1 0x20 ADD ADD MLOAD SWAP1 DUP1 PUSH1 0x1 DUP2 SLOAD ADD DUP1 DUP3 SSTORE DUP1 SWAP2 POP POP PUSH1 0x1 SWAP1 SUB SWAP1 PUSH1 0x0 MSTORE PUSH1 0x20 PUSH1 0x0 KECCAK256 ADD PUSH1 0x0 SWAP1 SWAP2 SWAP1 SWAP2 SWAP1 SWAP2 POP SSTORE JUMPDEST PUSH1 0x0 DUP1 DUP8 DUP4 DUP2 MLOAD DUP2 LT PUSH2 0x69D JUMPI PUSH2 0x69C PUSH2 0x20A7 JUMP JUMPDEST JUMPDEST PUSH1 0x20 MUL PUSH1 0x20 ADD ADD MLOAD DUP2 MSTORE PUSH1 0x20 ADD SWAP1 DUP2 MSTORE PUSH1 0x20 ADD PUSH1 0x0 KECCAK256 PUSH1 0x0 PUSH2 0x6BF SWAP2 SWAP1 PUSH2 0x13BB JUMP JUMPDEST PUSH1 0x0 JUMPDEST DUP6 DUP3 DUP2 MLOAD DUP2 LT PUSH2 0x6D5 JUMPI PUSH2 0x6D4 PUSH2 0x20A7 JUMP JUMPDEST JUMPDEST PUSH1 0x20 MUL PUSH1 0x20 ADD ADD MLOAD MLOAD DUP2 LT ISZERO PUSH2 0x843 JUMPI PUSH1 0x0 DUP1 DUP9 DUP5 DUP2 MLOAD DUP2 LT PUSH2 0x6FB JUMPI PUSH2 0x6FA PUSH2 0x20A7 JUMP JUMPDEST JUMPDEST PUSH1 0x20 MUL PUSH1 0x20 ADD ADD MLOAD DUP2 MSTORE PUSH1 0x20 ADD SWAP1 DUP2 MSTORE PUSH1 0x20 ADD PUSH1 0x0 KECCAK256 PUSH1 0x40 MLOAD DUP1 PUSH1 0x60 ADD PUSH1 0x40 MSTORE DUP1 DUP9 DUP6 DUP2 MLOAD DUP2 LT PUSH2 0x72F JUMPI PUSH2 0x72E PUSH2 0x20A7 JUMP JUMPDEST JUMPDEST PUSH1 0x20 MUL PUSH1 0x20 ADD ADD MLOAD DUP5 DUP2 MLOAD DUP2 LT PUSH2 0x749 JUMPI PUSH2 0x748 PUSH2 0x20A7 JUMP JUMPDEST JUMPDEST PUSH1 0x20 MUL PUSH1 0x20 ADD ADD MLOAD PUSH1 0x0 ADD MLOAD DUP2 MSTORE PUSH1 0x20 ADD DUP9 DUP6 DUP2 MLOAD DUP2 LT PUSH2 0x76D JUMPI PUSH2 0x76C PUSH2 0x20A7 JUMP JUMPDEST JUMPDEST PUSH1 0x20 MUL PUSH1 0x20 ADD ADD MLOAD DUP5 DUP2 MLOAD DUP2 LT PUSH2 0x787 JUMPI PUSH2 0x786 PUSH2 0x20A7 JUMP JUMPDEST JUMPDEST PUSH1 0x20 MUL PUSH1 0x20 ADD ADD MLOAD PUSH1 0x20 ADD MLOAD DUP2 MSTORE PUSH1 0x20 ADD PUSH1 0x0 DUP2 MSTORE POP SWAP1 DUP1 PUSH1 0x1 DUP2 SLOAD ADD DUP1 DUP3 SSTORE DUP1 SWAP2 POP POP PUSH1 0x1 SWAP1 SUB SWAP1 PUSH1 0x0 MSTORE PUSH1 0x20 PUSH1 0x0 KECCAK256 SWAP1 PUSH1 0x3 MUL ADD PUSH1 0x0 SWAP1 SWAP2 SWAP1 SWAP2 SWAP1 SWAP2 POP PUSH1 0x0 DUP3 ADD MLOAD DUP2 PUSH1 0x0 ADD SSTORE PUSH1 0x20 DUP3 ADD MLOAD DUP2 PUSH1 0x1 ADD SSTORE PUSH1 0x40 DUP3 ADD MLOAD DUP2 PUSH1 0x2 ADD SSTORE POP POP PUSH1 0x1 PUSH1 0x0 DUP9 DUP5 DUP2 MLOAD DUP2 LT PUSH2 0x7FD JUMPI PUSH2 0x7FC PUSH2 0x20A7 JUMP JUMPDEST JUMPDEST PUSH1 0x20 MUL PUSH1 0x20 ADD ADD MLOAD DUP2 MSTORE PUSH1 0x20 ADD SWAP1 DUP2 MSTORE PUSH1 0x20 ADD PUSH1 0x0 KECCAK256 PUSH1 0x0 DUP3 DUP2 MSTORE PUSH1 0x20 ADD SWAP1 DUP2 MSTORE PUSH1 0x20 ADD PUSH1 0x0 KECCAK256 PUSH1 0x0 PUSH2 0x830 SWAP2 SWAP1 PUSH2 0x13DF JUMP JUMPDEST DUP1 DUP1 PUSH2 0x83B SWAP1 PUSH2 0x2105 JUMP JUMPDEST SWAP2 POP POP PUSH2 0x6C2 JUMP JUMPDEST POP PUSH2 0x867 DUP7 DUP3 DUP2 MLOAD DUP2 LT PUSH2 0x85A JUMPI PUSH2 0x859 PUSH2 0x20A7 JUMP JUMPDEST JUMPDEST PUSH1 0x20 MUL PUSH1 0x20 ADD ADD MLOAD PUSH2 0x114B JUMP JUMPDEST ISZERO PUSH2 0x924 JUMPI PUSH1 0x40 MLOAD DUP1 PUSH1 0x60 ADD PUSH1 0x40 MSTORE DUP1 DUP6 DUP4 DUP2 MLOAD DUP2 LT PUSH2 0x88A JUMPI PUSH2 0x889 PUSH2 0x20A7 JUMP JUMPDEST JUMPDEST PUSH1 0x20 MUL PUSH1 0x20 ADD ADD MLOAD DUP2 MSTORE PUSH1 0x20 ADD DUP5 DUP4 DUP2 MLOAD DUP2 LT PUSH2 0x8AA JUMPI PUSH2 0x8A9 PUSH2 0x20A7 JUMP JUMPDEST JUMPDEST PUSH1 0x20 MUL PUSH1 0x20 ADD ADD MLOAD DUP2 MSTORE PUSH1 0x20 ADD DUP4 DUP4 DUP2 MLOAD DUP2 LT PUSH2 0x8CA JUMPI PUSH2 0x8C9 PUSH2 0x20A7 JUMP JUMPDEST JUMPDEST PUSH1 0x20 MUL PUSH1 0x20 ADD ADD MLOAD DUP2 MSTORE POP PUSH1 0x4 PUSH1 0x0 DUP9 DUP5 DUP2 MLOAD DUP2 LT PUSH2 0x8EC JUMPI PUSH2 0x8EB PUSH2 0x20A7 JUMP JUMPDEST JUMPDEST PUSH1 0x20 MUL PUSH1 0x20 ADD ADD MLOAD DUP2 MSTORE PUSH1 0x20 ADD SWAP1 DUP2 MSTORE PUSH1 0x20 ADD PUSH1 0x0 KECCAK256 PUSH1 0x0 DUP3 ADD MLOAD DUP2 PUSH1 0x0 ADD SSTORE PUSH1 0x20 DUP3 ADD MLOAD DUP2 PUSH1 0x1 ADD SSTORE PUSH1 0x40 DUP3 ADD MLOAD DUP2 PUSH1 0x2 ADD SSTORE SWAP1 POP POP JUMPDEST DUP1 DUP1 PUSH2 0x92F SWAP1 PUSH2 0x2105 JUMP JUMPDEST SWAP2 POP POP PUSH2 0x603 JUMP JUMPDEST POP PUSH1 0x1 PUSH1 0x5 PUSH1 0x14 PUSH2 0x100 EXP DUP2 SLOAD DUP2 PUSH1 0xFF MUL NOT AND SWAP1 DUP4 ISZERO ISZERO MUL OR SWAP1 SSTORE POP PUSH32 0x86825B43264CA968E676C45C8E05CC56965FF5938ED49DCF636C61ACB7070BD7 PUSH1 0x40 MLOAD PUSH1 0x40 MLOAD DUP1 SWAP2 SUB SWAP1 LOG1 POP POP POP POP POP JUMP JUMPDEST PUSH1 0x60 PUSH1 0x3 DUP1 SLOAD DUP1 PUSH1 0x20 MUL PUSH1 0x20 ADD PUSH1 0x40 MLOAD SWAP1 DUP2 ADD PUSH1 0x40 MSTORE DUP1 SWAP3 SWAP2 SWAP1 DUP2 DUP2 MSTORE PUSH1 0x20 ADD DUP3 DUP1 SLOAD DUP1 ISZERO PUSH2 0x9D4 JUMPI PUSH1 0x20 MUL DUP3 ADD SWAP2 SWAP1 PUSH1 0x0 MSTORE PUSH1 0x20 PUSH1 0x0 KECCAK256 SWAP1 JUMPDEST DUP2 SLOAD DUP2 MSTORE PUSH1 0x20 ADD SWAP1 PUSH1 0x1 ADD SWAP1 DUP1 DUP4 GT PUSH2 0x9C0 JUMPI JUMPDEST POP POP POP POP POP SWAP1 POP SWAP1 JUMP JUMPDEST PUSH1 0x60 PUSH1 0x0 PUSH1 0x3 DUP1 SLOAD SWAP1 POP SWAP1 POP PUSH1 0x0 DUP2 PUSH8 0xFFFFFFFFFFFFFFFF DUP2 GT ISZERO PUSH2 0xA06 JUMPI PUSH2 0xA05 PUSH2 0x17B6 JUMP JUMPDEST JUMPDEST PUSH1 0x40 MLOAD SWAP1 DUP1 DUP3 MSTORE DUP1 PUSH1 0x20 MUL PUSH1 0x20 ADD DUP3 ADD PUSH1 0x40 MSTORE DUP1 ISZERO PUSH2 0xA3F JUMPI DUP2 PUSH1 0x20 ADD JUMPDEST PUSH2 0xA2C PUSH2 0x1420 JUMP JUMPDEST DUP2 MSTORE PUSH1 0x20 ADD SWAP1 PUSH1 0x1 SWAP1 SUB SWAP1 DUP2 PUSH2 0xA24 JUMPI SWAP1 POP JUMPDEST POP SWAP1 POP PUSH1 0x0 JUMPDEST DUP3 DUP2 LT ISZERO PUSH2 0xBB0 JUMPI PUSH1 0x0 PUSH1 0x3 DUP3 DUP2 SLOAD DUP2 LT PUSH2 0xA63 JUMPI PUSH2 0xA62 PUSH2 0x20A7 JUMP JUMPDEST JUMPDEST SWAP1 PUSH1 0x0 MSTORE PUSH1 0x20 PUSH1 0x0 KECCAK256 ADD SLOAD SWAP1 POP PUSH1 0x0 DUP1 PUSH1 0x0 DUP4 DUP2 MSTORE PUSH1 0x20 ADD SWAP1 DUP2 MSTORE PUSH1 0x20 ADD PUSH1 0x0 KECCAK256 SWAP1 POP PUSH1 0x0 DUP1 PUSH1 0x0 DUP1 JUMPDEST DUP5 DUP1 SLOAD SWAP1 POP DUP2 LT ISZERO PUSH2 0xB10 JUMPI DUP2 ISZERO DUP1 PUSH2 0xAC9 JUMPI POP DUP4 DUP6 DUP3 DUP2 SLOAD DUP2 LT PUSH2 0xAB5 JUMPI PUSH2 0xAB4 PUSH2 0x20A7 JUMP JUMPDEST JUMPDEST SWAP1 PUSH1 0x0 MSTORE PUSH1 0x20 PUSH1 0x0 KECCAK256 SWAP1 PUSH1 0x3 MUL ADD PUSH1 0x2 ADD SLOAD GT JUMPDEST ISZERO PUSH2 0xAFD JUMPI DUP5 DUP2 DUP2 SLOAD DUP2 LT PUSH2 0xAE1 JUMPI PUSH2 0xAE0 PUSH2 0x20A7 JUMP JUMPDEST JUMPDEST SWAP1 PUSH1 0x0 MSTORE PUSH1 0x20 PUSH1 0x0 KECCAK256 SWAP1 PUSH1 0x3 MUL ADD PUSH1 0x2 ADD SLOAD SWAP4 POP DUP1 SWAP3 POP PUSH1 0x1 SWAP2 POP JUMPDEST DUP1 DUP1 PUSH2 0xB08 SWAP1 PUSH2 0x2105 JUMP JUMPDEST SWAP2 POP POP PUSH2 0xA8D JUMP JUMPDEST POP PUSH1 0x40 MLOAD DUP1 PUSH1 0x80 ADD PUSH1 0x40 MSTORE DUP1 DUP7 DUP2 MSTORE PUSH1 0x20 ADD DUP6 DUP5 DUP2 SLOAD DUP2 LT PUSH2 0xB35 JUMPI PUSH2 0xB34 PUSH2 0x20A7 JUMP JUMPDEST JUMPDEST SWAP1 PUSH1 0x0 MSTORE PUSH1 0x20 PUSH1 0x0 KECCAK256 SWAP1 PUSH1 0x3 MUL ADD PUSH1 0x0 ADD SLOAD DUP2 MSTORE PUSH1 0x20 ADD DUP6 DUP5 DUP2 SLOAD DUP2 LT PUSH2 0xB5F JUMPI PUSH2 0xB5E PUSH2 0x20A7 JUMP JUMPDEST JUMPDEST SWAP1 PUSH1 0x0 MSTORE PUSH1 0x20 PUSH1 0x0 KECCAK256 SWAP1 PUSH1 0x3 MUL ADD PUSH1 0x1 ADD SLOAD DUP2 MSTORE PUSH1 0x20 ADD DUP5 DUP2 MSTORE POP DUP8 DUP8 DUP2 MLOAD DUP2 LT PUSH2 0xB8D JUMPI PUSH2 0xB8C PUSH2 0x20A7 JUMP JUMPDEST JUMPDEST PUSH1 0x20 MUL PUSH1 0x20 ADD ADD DUP2 SWAP1 MSTORE POP POP POP POP POP POP DUP1 DUP1 PUSH2 0xBA8 SWAP1 PUSH2 0x2105 JUMP JUMPDEST SWAP2 POP POP PUSH2 0xA45 JUMP JUMPDEST POP DUP1 SWAP3 POP POP POP SWAP1 JUMP JUMPDEST PUSH1 0x4 PUSH1 0x20 MSTORE DUP1 PUSH1 0x0 MSTORE PUSH1 0x40 PUSH1 0x0 KECCAK256 PUSH1 0x0 SWAP2 POP SWAP1 POP DUP1 PUSH1 0x0 ADD SLOAD SWAP1 DUP1 PUSH1 0x1 ADD SLOAD SWAP1 DUP1 PUSH1 0x2 ADD SLOAD SWAP1 POP DUP4 JUMP JUMPDEST PUSH1 0x5 PUSH1 0x14 SWAP1 SLOAD SWAP1 PUSH2 0x100 EXP SWAP1 DIV PUSH1 0xFF AND PUSH2 0xC32 JUMPI PUSH1 0x40 MLOAD PUSH32 0x8C379A000000000000000000000000000000000000000000000000000000000 DUP2 MSTORE PUSH1 0x4 ADD PUSH2 0xC29 SWAP1 PUSH2 0x2251 JUMP JUMPDEST PUSH1 0x40 MLOAD DUP1 SWAP2 SUB SWAP1 REVERT JUMPDEST DUP2 MLOAD DUP4 MLOAD EQ PUSH2 0xC76 JUMPI PUSH1 0x40 MLOAD PUSH32 0x8C379A000000000000000000000000000000000000000000000000000000000 DUP2 MSTORE PUSH1 0x4 ADD PUSH2 0xC6D SWAP1 PUSH2 0x22BD JUMP JUMPDEST PUSH1 0x40 MLOAD DUP1 SWAP2 SUB SWAP1 REVERT JUMPDEST PUSH1 0x2 PUSH1 0x0 DUP3 DUP2 MSTORE PUSH1 0x20 ADD SWAP1 DUP2 MSTORE PUSH1 0x20 ADD PUSH1 0x0 KECCAK256 PUSH1 0x0 SWAP1 SLOAD SWAP1 PUSH2 0x100 EXP SWAP1 DIV PUSH1 0xFF AND ISZERO PUSH2 0xCD7 JUMPI PUSH1 0x40 MLOAD PUSH32 0x8C379A000000000000000000000000000000000000000000000000000000000 DUP2 MSTORE PUSH1 0x4 ADD PUSH2 0xCCE SWAP1 PUSH2 0x2329 JUMP JUMPDEST PUSH1 0x40 MLOAD DUP1 SWAP2 SUB SWAP1 REVERT JUMPDEST PUSH1 0x1 PUSH1 0x2 PUSH1 0x0 DUP4 DUP2 MSTORE PUSH1 0x20 ADD SWAP1 DUP2 MSTORE PUSH1 0x20 ADD PUSH1 0x0 KECCAK256 PUSH1 0x0 PUSH2 0x100 EXP DUP2 SLOAD DUP2 PUSH1 0xFF MUL NOT AND SWAP1 DUP4 ISZERO ISZERO MUL OR SWAP1 SSTORE POP PUSH1 0x0 JUMPDEST DUP4 MLOAD DUP2 LT ISZERO PUSH2 0xEBF JUMPI PUSH1 0x0 DUP5 DUP3 DUP2 MLOAD DUP2 LT PUSH2 0xD24 JUMPI PUSH2 0xD23 PUSH2 0x20A7 JUMP JUMPDEST JUMPDEST PUSH1 0x20 MUL PUSH1 0x20 ADD ADD MLOAD SWAP1 POP PUSH1 0x0 DUP5 DUP4 DUP2 MLOAD DUP2 LT PUSH2 0xD43 JUMPI PUSH2 0xD42 PUSH2 0x20A7 JUMP JUMPDEST JUMPDEST PUSH1 0x20 MUL PUSH1 0x20 ADD ADD MLOAD SWAP1 POP PUSH1 0x0 DUP1 DUP4 DUP2 MSTORE PUSH1 0x20 ADD SWAP1 DUP2 MSTORE PUSH1 0x20 ADD PUSH1 0x0 KECCAK256 DUP1 SLOAD SWAP1 POP DUP2 LT PUSH2 0xDA4 JUMPI PUSH1 0x40 MLOAD PUSH32 0x8C379A000000000000000000000000000000000000000000000000000000000 DUP2 MSTORE PUSH1 0x4 ADD PUSH2 0xD9B SWAP1 PUSH2 0x2395 JUMP JUMPDEST PUSH1 0x40 MLOAD DUP1 SWAP2 SUB SWAP1 REVERT JUMPDEST PUSH1 0x0 DUP1 DUP4 DUP2 MSTORE PUSH1 0x20 ADD SWAP1 DUP2 MSTORE PUSH1 0x20 ADD PUSH1 0x0 KECCAK256 DUP2 DUP2 SLOAD DUP2 LT PUSH2 0xDC8 JUMPI PUSH2 0xDC7 PUSH2 0x20A7 JUMP JUMPDEST JUMPDEST SWAP1 PUSH1 0x0 MSTORE PUSH1 0x20 PUSH1 0x0 KECCAK256 SWAP1 PUSH1 0x3 MUL ADD PUSH1 0x2 ADD PUSH1 0x0 DUP2 SLOAD DUP1 SWAP3 SWAP2 SWAP1 PUSH2 0xDEA SWAP1 PUSH2 0x2105 JUMP JUMPDEST SWAP2 SWAP1 POP SSTORE POP PUSH1 0x1 PUSH1 0x0 DUP4 DUP2 MSTORE PUSH1 0x20 ADD SWAP1 DUP2 MSTORE PUSH1 0x20 ADD PUSH1 0x0 KECCAK256 PUSH1 0x0 DUP3 DUP2 MSTORE PUSH1 0x20 ADD SWAP1 DUP2 MSTORE PUSH1 0x20 ADD PUSH1 0x0 KECCAK256 DUP5 SWAP1 DUP1 PUSH1 0x1 DUP2 SLOAD ADD DUP1 DUP3 SSTORE DUP1 SWAP2 POP POP PUSH1 0x1 SWAP1 SUB SWAP1 PUSH1 0x0 MSTORE PUSH1 0x20 PUSH1 0x0 KECCAK256 ADD PUSH1 0x0 SWAP1 SWAP2 SWAP1 SWAP2 SWAP1 SWAP2 POP SSTORE PUSH32 0x178E76FAA844F1C429CBE43BB805A70530F990EF2ACC87F8F626AC80FF484909 DUP3 PUSH1 0x0 DUP1 DUP6 DUP2 MSTORE PUSH1 0x20 ADD SWAP1 DUP2 MSTORE PUSH1 0x20 ADD PUSH1 0x0 KECCAK256 DUP4 DUP2 SLOAD DUP2 LT PUSH2 0xE80 JUMPI PUSH2 0xE7F PUSH2 0x20A7 JUMP JUMPDEST JUMPDEST SWAP1 PUSH1 0x0 MSTORE PUSH1 0x20 PUSH1 0x0 KECCAK256 SWAP1 PUSH1 0x3 MUL ADD PUSH1 0x0 ADD SLOAD DUP7 PUSH1 0x40 MLOAD PUSH2 0xEA2 SWAP4 SWAP3 SWAP2 SWAP1 PUSH2 0x1D3D JUMP JUMPDEST PUSH1 0x40 MLOAD DUP1 SWAP2 SUB SWAP1 LOG1 POP POP DUP1 DUP1 PUSH2 0xEB7 SWAP1 PUSH2 0x2105 JUMP JUMPDEST SWAP2 POP POP PUSH2 0xD06 JUMP JUMPDEST POP POP POP POP JUMP JUMPDEST PUSH1 0x5 PUSH1 0x0 SWAP1 SLOAD SWAP1 PUSH2 0x100 EXP SWAP1 DIV PUSH20 0xFFFFFFFFFFFFFFFFFFFFFFFFFFFFFFFFFFFFFFFF AND DUP2 JUMP JUMPDEST PUSH1 0x60 DUP1 PUSH1 0x0 DUP1 JUMPDEST PUSH1 0x3 DUP1 SLOAD SWAP1 POP DUP2 LT ISZERO PUSH2 0xF53 JUMPI PUSH1 0x0 DUP1 PUSH1 0x3 DUP4 DUP2 SLOAD DUP2 LT PUSH2 0xF16 JUMPI PUSH2 0xF15 PUSH2 0x20A7 JUMP JUMPDEST JUMPDEST SWAP1 PUSH1 0x0 MSTORE PUSH1 0x20 PUSH1 0x0 KECCAK256 ADD SLOAD DUP2 MSTORE PUSH1 0x20 ADD SWAP1 DUP2 MSTORE PUSH1 0x20 ADD PUSH1 0x0 KECCAK256 DUP1 SLOAD SWAP1 POP DUP3 PUSH2 0xF3E SWAP2 SWAP1 PUSH2 0x23B5 JUMP JUMPDEST SWAP2 POP DUP1 DUP1 PUSH2 0xF4B SWAP1 PUSH2 0x2105 JUMP JUMPDEST SWAP2 POP POP PUSH2 0xEF2 JUMP JUMPDEST POP PUSH1 0x0 DUP2 PUSH8 0xFFFFFFFFFFFFFFFF DUP2 GT ISZERO PUSH2 0xF70 JUMPI PUSH2 0xF6F PUSH2 0x17B6 JUMP JUMPDEST JUMPDEST PUSH1 0x40 MLOAD SWAP1 DUP1 DUP3 MSTORE DUP1 PUSH1 0x20 MUL PUSH1 0x20 ADD DUP3 ADD PUSH1 0x40 MSTORE DUP1 ISZERO PUSH2 0xFA9 JUMPI DUP2 PUSH1 0x20 ADD JUMPDEST PUSH2 0xF96 PUSH2 0x1400 JUMP JUMPDEST DUP2 MSTORE PUSH1 0x20 ADD SWAP1 PUSH1 0x1 SWAP1 SUB SWAP1 DUP2 PUSH2 0xF8E JUMPI SWAP1 POP JUMPDEST POP SWAP1 POP PUSH1 0x0 DUP3 PUSH8 0xFFFFFFFFFFFFFFFF DUP2 GT ISZERO PUSH2 0xFC8 JUMPI PUSH2 0xFC7 PUSH2 0x17B6 JUMP JUMPDEST JUMPDEST PUSH1 0x40 MLOAD SWAP1 DUP1 DUP3 MSTORE DUP1 PUSH1 0x20 MUL PUSH1 0x20 ADD DUP3 ADD PUSH1 0x40 MSTORE DUP1 ISZERO PUSH2 0xFF6 JUMPI DUP2 PUSH1 0x20 ADD PUSH1 0x20 DUP3 MUL DUP1 CALLDATASIZE DUP4 CALLDATACOPY DUP1 DUP3 ADD SWAP2 POP POP SWAP1 POP JUMPDEST POP SWAP1 POP PUSH1 0x0 DUP1 JUMPDEST PUSH1 0x3 DUP1 SLOAD SWAP1 POP DUP2 LT ISZERO PUSH2 0x113C JUMPI PUSH1 0x0 DUP1 PUSH1 0x0 PUSH1 0x3 DUP5 DUP2 SLOAD DUP2 LT PUSH2 0x1023 JUMPI PUSH2 0x1022 PUSH2 0x20A7 JUMP JUMPDEST JUMPDEST SWAP1 PUSH1 0x0 MSTORE PUSH1 0x20 PUSH1 0x0 KECCAK256 ADD SLOAD DUP2 MSTORE PUSH1 0x20 ADD SWAP1 DUP2 MSTORE PUSH1 0x20 ADD PUSH1 0x0 KECCAK256 SWAP1 POP PUSH1 0x0 JUMPDEST DUP2 DUP1 SLOAD SWAP1 POP DUP2 LT ISZERO PUSH2 0x1127 JUMPI PUSH1 0x40 MLOAD DUP1 PUSH1 0x40 ADD PUSH1 0x40 MSTORE DUP1 DUP4 DUP4 DUP2 SLOAD DUP2 LT PUSH2 0x106B JUMPI PUSH2 0x106A PUSH2 0x20A7 JUMP JUMPDEST JUMPDEST SWAP1 PUSH1 0x0 MSTORE PUSH1 0x20 PUSH1 0x0 KECCAK256 SWAP1 PUSH1 0x3 MUL ADD PUSH1 0x0 ADD SLOAD DUP2 MSTORE PUSH1 0x20 ADD DUP4 DUP4 DUP2 SLOAD DUP2 LT PUSH2 0x1095 JUMPI PUSH2 0x1094 PUSH2 0x20A7 JUMP JUMPDEST JUMPDEST SWAP1 PUSH1 0x0 MSTORE PUSH1 0x20 PUSH1 0x0 KECCAK256 SWAP1 PUSH1 0x3 MUL ADD PUSH1 0x1 ADD SLOAD DUP2 MSTORE POP DUP7 DUP6 DUP2 MLOAD DUP2 LT PUSH2 0x10BD JUMPI PUSH2 0x10BC PUSH2 0x20A7 JUMP JUMPDEST JUMPDEST PUSH1 0x20 MUL PUSH1 0x20 ADD ADD DUP2 SWAP1 MSTORE POP DUP2 DUP2 DUP2 SLOAD DUP2 LT PUSH2 0x10DB JUMPI PUSH2 0x10DA PUSH2 0x20A7 JUMP JUMPDEST JUMPDEST SWAP1 PUSH1 0x0 MSTORE PUSH1 0x20 PUSH1 0x0 KECCAK256 SWAP1 PUSH1 0x3 MUL ADD PUSH1 0x2 ADD SLOAD DUP6 DUP6 DUP2 MLOAD DUP2 LT PUSH2 0x1100 JUMPI PUSH2 0x10FF PUSH2 0x20A7 JUMP JUMPDEST JUMPDEST PUSH1 0x20 MUL PUSH1 0x20 ADD ADD DUP2 DUP2 MSTORE POP POP DUP4 DUP1 PUSH1 0x1 ADD SWAP5 POP POP DUP1 DUP1 PUSH2 0x111F SWAP1 PUSH2 0x2105 JUMP JUMPDEST SWAP2 POP POP PUSH2 0x1041 JUMP JUMPDEST POP POP DUP1 DUP1 PUSH2 0x1134 SWAP1 PUSH2 0x2105 JUMP JUMPDEST SWAP2 POP POP PUSH2 0xFFD JUMP JUMPDEST POP DUP3 DUP3 SWAP6 POP SWAP6 POP POP POP POP POP SWAP1 SWAP2 JUMP JUMPDEST PUSH1 0x0 DUP1 PUSH2 0x1157 DUP4 PUSH2 0x1285 JUMP JUMPDEST SWAP1 POP PUSH1 0x0 DUP2 SWAP1 POP PUSH1 0x0 PUSH1 0x40 MLOAD DUP1 PUSH1 0x40 ADD PUSH1 0x40 MSTORE DUP1 PUSH1 0xF DUP2 MSTORE PUSH1 0x20 ADD PUSH32 0x202D20426F617264204D656D6265720000000000000000000000000000000000 DUP2 MSTORE POP SWAP1 POP DUP1 MLOAD DUP3 MLOAD LT ISZERO PUSH2 0x11AE JUMPI PUSH1 0x0 SWAP4 POP POP POP POP PUSH2 0x1280 JUMP JUMPDEST PUSH1 0x0 JUMPDEST DUP2 MLOAD DUP2 LT ISZERO PUSH2 0x1277 JUMPI DUP2 DUP2 DUP2 MLOAD DUP2 LT PUSH2 0x11CD JUMPI PUSH2 0x11CC PUSH2 0x20A7 JUMP JUMPDEST JUMPDEST PUSH1 0x20 ADD ADD MLOAD PUSH1 0xF8 SHR PUSH1 0xF8 SHL PUSH31 0xFFFFFFFFFFFFFFFFFFFFFFFFFFFFFFFFFFFFFFFFFFFFFFFFFFFFFFFFFFFFFF NOT AND DUP4 DUP3 DUP5 MLOAD DUP7 MLOAD PUSH2 0x120A SWAP2 SWAP1 PUSH2 0x23E9 JUMP JUMPDEST PUSH2 0x1214 SWAP2 SWAP1 PUSH2 0x23B5 JUMP JUMPDEST DUP2 MLOAD DUP2 LT PUSH2 0x1225 JUMPI PUSH2 0x1224 PUSH2 0x20A7 JUMP JUMPDEST JUMPDEST PUSH1 0x20 ADD ADD MLOAD PUSH1 0xF8 SHR PUSH1 0xF8 SHL PUSH31 0xFFFFFFFFFFFFFFFFFFFFFFFFFFFFFFFFFFFFFFFFFFFFFFFFFFFFFFFFFFFFFF NOT AND EQ PUSH2 0x1264 JUMPI PUSH1 0x0 SWAP5 POP POP POP POP POP PUSH2 0x1280 JUMP JUMPDEST DUP1 DUP1 PUSH2 0x126F SWAP1 PUSH2 0x2105 JUMP JUMPDEST SWAP2 POP POP PUSH2 0x11B1 JUMP JUMPDEST POP PUSH1 0x1 SWAP4 POP POP POP POP JUMPDEST SWAP2 SWAP1 POP JUMP JUMPDEST PUSH1 0x60 PUSH1 0x0 JUMPDEST PUSH1 0x20 DUP2 LT DUP1 ISZERO PUSH2 0x12D6 JUMPI POP PUSH1 0x0 PUSH1 0xF8 SHL DUP4 DUP3 PUSH1 0x20 DUP2 LT PUSH2 0x12AD JUMPI PUSH2 0x12AC PUSH2 0x20A7 JUMP JUMPDEST JUMPDEST BYTE PUSH1 0xF8 SHL PUSH31 0xFFFFFFFFFFFFFFFFFFFFFFFFFFFFFFFFFFFFFFFFFFFFFFFFFFFFFFFFFFFFFF NOT AND EQ ISZERO JUMPDEST ISZERO PUSH2 0x12E8 JUMPI DUP1 DUP1 PUSH1 0x1 ADD SWAP2 POP POP PUSH2 0x128A JUMP JUMPDEST PUSH1 0x0 DUP2 PUSH8 0xFFFFFFFFFFFFFFFF DUP2 GT ISZERO PUSH2 0x1304 JUMPI PUSH2 0x1303 PUSH2 0x17B6 JUMP JUMPDEST JUMPDEST PUSH1 0x40 MLOAD SWAP1 DUP1 DUP3 MSTORE DUP1 PUSH1 0x1F ADD PUSH1 0x1F NOT AND PUSH1 0x20 ADD DUP3 ADD PUSH1 0x40 MSTORE DUP1 ISZERO PUSH2 0x1336 JUMPI DUP2 PUSH1 0x20 ADD PUSH1 0x1 DUP3 MUL DUP1 CALLDATASIZE DUP4 CALLDATACOPY DUP1 DUP3 ADD SWAP2 POP POP SWAP1 POP JUMPDEST POP SWAP1 POP PUSH1 0x0 JUMPDEST DUP3 DUP2 LT ISZERO PUSH2 0x13B0 JUMPI DUP5 DUP2 PUSH1 0x20 DUP2 LT PUSH2 0x1357 JUMPI PUSH2 0x1356 PUSH2 0x20A7 JUMP JUMPDEST JUMPDEST BYTE PUSH1 0xF8 SHL DUP3 DUP3 DUP2 MLOAD DUP2 LT PUSH2 0x136E JUMPI PUSH2 0x136D PUSH2 0x20A7 JUMP JUMPDEST JUMPDEST PUSH1 0x20 ADD ADD SWAP1 PUSH31 0xFFFFFFFFFFFFFFFFFFFFFFFFFFFFFFFFFFFFFFFFFFFFFFFFFFFFFFFFFFFFFF NOT AND SWAP1 DUP2 PUSH1 0x0 BYTE SWAP1 MSTORE8 POP DUP1 DUP1 PUSH2 0x13A8 SWAP1 PUSH2 0x2105 JUMP JUMPDEST SWAP2 POP POP PUSH2 0x133C JUMP JUMPDEST POP DUP1 SWAP3 POP POP POP SWAP2 SWAP1 POP JUMP JUMPDEST POP DUP1 SLOAD PUSH1 0x0 DUP3 SSTORE PUSH1 0x3 MUL SWAP1 PUSH1 0x0 MSTORE PUSH1 0x20 PUSH1 0x0 KECCAK256 SWAP1 DUP2 ADD SWAP1 PUSH2 0x13DC SWAP2 SWAP1 PUSH2 0x1451 JUMP JUMPDEST POP JUMP JUMPDEST POP DUP1 SLOAD PUSH1 0x0 DUP3 SSTORE SWAP1 PUSH1 0x0 MSTORE PUSH1 0x20 PUSH1 0x0 KECCAK256 SWAP1 DUP2 ADD SWAP1 PUSH2 0x13FD SWAP2 SWAP1 PUSH2 0x1480 JUMP JUMPDEST POP JUMP JUMPDEST PUSH1 0x40 MLOAD DUP1 PUSH1 0x40 ADD PUSH1 0x40 MSTORE DUP1 PUSH1 0x0 DUP1 NOT AND DUP2 MSTORE PUSH1 0x20 ADD PUSH1 0x0 DUP1 NOT AND DUP2 MSTORE POP SWAP1 JUMP JUMPDEST PUSH1 0x40 MLOAD DUP1 PUSH1 0x80 ADD PUSH1 0x40 MSTORE DUP1 PUSH1 0x0 DUP1 NOT AND DUP2 MSTORE PUSH1 0x20 ADD PUSH1 0x0 DUP1 NOT AND DUP2 MSTORE PUSH1 0x20 ADD PUSH1 0x0 DUP1 NOT AND DUP2 MSTORE PUSH1 0x20 ADD PUSH1 0x0 DUP2 MSTORE POP SWAP1 JUMP JUMPDEST JUMPDEST DUP1 DUP3 GT ISZERO PUSH2 0x147C JUMPI PUSH1 0x0 DUP1 DUP3 ADD PUSH1 0x0 SWAP1 SSTORE PUSH1 0x1 DUP3 ADD PUSH1 0x0 SWAP1 SSTORE PUSH1 0x2 DUP3 ADD PUSH1 0x0 SWAP1 SSTORE POP PUSH1 0x3 ADD PUSH2 0x1452 JUMP JUMPDEST POP SWAP1 JUMP JUMPDEST JUMPDEST DUP1 DUP3 GT ISZERO PUSH2 0x1499 JUMPI PUSH1 0x0 DUP2 PUSH1 0x0 SWAP1 SSTORE POP PUSH1 0x1 ADD PUSH2 0x1481 JUMP JUMPDEST POP SWAP1 JUMP JUMPDEST PUSH1 0x0 PUSH1 0x40 MLOAD SWAP1 POP SWAP1 JUMP JUMPDEST PUSH1 0x0 DUP1 REVERT JUMPDEST PUSH1 0x0 DUP1 REVERT JUMPDEST PUSH1 0x0 DUP2 SWAP1 POP SWAP2 SWAP1 POP JUMP JUMPDEST PUSH2 0x14C4 DUP2 PUSH2 0x14B1 JUMP JUMPDEST DUP2 EQ PUSH2 0x14CF JUMPI PUSH1 0x0 DUP1 REVERT JUMPDEST POP JUMP JUMPDEST PUSH1 0x0 DUP2 CALLDATALOAD SWAP1 POP PUSH2 0x14E1 DUP2 PUSH2 0x14BB JUMP JUMPDEST SWAP3 SWAP2 POP POP JUMP JUMPDEST PUSH1 0x0 DUP2 SWAP1 POP SWAP2 SWAP1 POP JUMP JUMPDEST PUSH2 0x14FA DUP2 PUSH2 0x14E7 JUMP JUMPDEST DUP2 EQ PUSH2 0x1505 JUMPI PUSH1 0x0 DUP1 REVERT JUMPDEST POP JUMP JUMPDEST PUSH1 0x0 DUP2 CALLDATALOAD SWAP1 POP PUSH2 0x1517 DUP2 PUSH2 0x14F1 JUMP JUMPDEST SWAP3 SWAP2 POP POP JUMP JUMPDEST PUSH1 0x0 DUP1 PUSH1 0x40 DUP4 DUP6 SUB SLT ISZERO PUSH2 0x1534 JUMPI PUSH2 0x1533 PUSH2 0x14A7 JUMP JUMPDEST JUMPDEST PUSH1 0x0 PUSH2 0x1542 DUP6 DUP3 DUP7 ADD PUSH2 0x14D2 JUMP JUMPDEST SWAP3 POP POP PUSH1 0x20 PUSH2 0x1553 DUP6 DUP3 DUP7 ADD PUSH2 0x1508 JUMP JUMPDEST SWAP2 POP POP SWAP3 POP SWAP3 SWAP1 POP JUMP JUMPDEST PUSH1 0x0 DUP2 MLOAD SWAP1 POP SWAP2 SWAP1 POP JUMP JUMPDEST PUSH1 0x0 DUP3 DUP3 MSTORE PUSH1 0x20 DUP3 ADD SWAP1 POP SWAP3 SWAP2 POP POP JUMP JUMPDEST PUSH1 0x0 DUP2 SWAP1 POP PUSH1 0x20 DUP3 ADD SWAP1 POP SWAP2 SWAP1 POP JUMP JUMPDEST PUSH2 0x1592 DUP2 PUSH2 0x14B1 JUMP JUMPDEST DUP3 MSTORE POP POP JUMP JUMPDEST PUSH1 0x0 PUSH2 0x15A4 DUP4 DUP4 PUSH2 0x1589 JUMP JUMPDEST PUSH1 0x20 DUP4 ADD SWAP1 POP SWAP3 SWAP2 POP POP JUMP JUMPDEST PUSH1 0x0 PUSH1 0x20 DUP3 ADD SWAP1 POP SWAP2 SWAP1 POP JUMP JUMPDEST PUSH1 0x0 PUSH2 0x15C8 DUP3 PUSH2 0x155D JUMP JUMPDEST PUSH2 0x15D2 DUP2 DUP6 PUSH2 0x1568 JUMP JUMPDEST SWAP4 POP PUSH2 0x15DD DUP4 PUSH2 0x1579 JUMP JUMPDEST DUP1 PUSH1 0x0 JUMPDEST DUP4 DUP2 LT ISZERO PUSH2 0x160E JUMPI DUP2 MLOAD PUSH2 0x15F5 DUP9 DUP3 PUSH2 0x1598 JUMP JUMPDEST SWAP8 POP PUSH2 0x1600 DUP4 PUSH2 0x15B0 JUMP JUMPDEST SWAP3 POP POP PUSH1 0x1 DUP2 ADD SWAP1 POP PUSH2 0x15E1 JUMP JUMPDEST POP DUP6 SWAP4 POP POP POP POP SWAP3 SWAP2 POP POP JUMP JUMPDEST PUSH1 0x0 PUSH1 0x20 DUP3 ADD SWAP1 POP DUP2 DUP2 SUB PUSH1 0x0 DUP4 ADD MSTORE PUSH2 0x1635 DUP2 DUP5 PUSH2 0x15BD JUMP JUMPDEST SWAP1 POP SWAP3 SWAP2 POP POP JUMP JUMPDEST PUSH1 0x0 PUSH1 0x20 DUP3 DUP5 SUB SLT ISZERO PUSH2 0x1653 JUMPI PUSH2 0x1652 PUSH2 0x14A7 JUMP JUMPDEST JUMPDEST PUSH1 0x0 PUSH2 0x1661 DUP5 DUP3 DUP6 ADD PUSH2 0x14D2 JUMP JUMPDEST SWAP2 POP POP SWAP3 SWAP2 POP POP JUMP JUMPDEST PUSH1 0x0 DUP2 MLOAD SWAP1 POP SWAP2 SWAP1 POP JUMP JUMPDEST PUSH1 0x0 DUP3 DUP3 MSTORE PUSH1 0x20 DUP3 ADD SWAP1 POP SWAP3 SWAP2 POP POP JUMP JUMPDEST PUSH1 0x0 DUP2 SWAP1 POP PUSH1 0x20 DUP3 ADD SWAP1 POP SWAP2 SWAP1 POP JUMP JUMPDEST PUSH1 0x40 DUP3 ADD PUSH1 0x0 DUP3 ADD MLOAD PUSH2 0x16AC PUSH1 0x0 DUP6 ADD DUP3 PUSH2 0x1589 JUMP JUMPDEST POP PUSH1 0x20 DUP3 ADD MLOAD PUSH2 0x16BF PUSH1 0x20 DUP6 ADD DUP3 PUSH2 0x1589 JUMP JUMPDEST POP POP POP POP JUMP JUMPDEST PUSH1 0x0 PUSH2 0x16D1 DUP4 DUP4 PUSH2 0x1696 JUMP JUMPDEST PUSH1 0x40 DUP4 ADD SWAP1 POP SWAP3 SWAP2 POP POP JUMP JUMPDEST PUSH1 0x0 PUSH1 0x20 DUP3 ADD SWAP1 POP SWAP2 SWAP1 POP JUMP JUMPDEST PUSH1 0x0 PUSH2 0x16F5 DUP3 PUSH2 0x166A JUMP JUMPDEST PUSH2 0x16FF DUP2 DUP6 PUSH2 0x1675 JUMP JUMPDEST SWAP4 POP PUSH2 0x170A DUP4 PUSH2 0x1686 JUMP JUMPDEST DUP1 PUSH1 0x0 JUMPDEST DUP4 DUP2 LT ISZERO PUSH2 0x173B JUMPI DUP2 MLOAD PUSH2 0x1722 DUP9 DUP3 PUSH2 0x16C5 JUMP JUMPDEST SWAP8 POP PUSH2 0x172D DUP4 PUSH2 0x16DD JUMP JUMPDEST SWAP3 POP POP PUSH1 0x1 DUP2 ADD SWAP1 POP PUSH2 0x170E JUMP JUMPDEST POP DUP6 SWAP4 POP POP POP POP SWAP3 SWAP2 POP POP JUMP JUMPDEST PUSH1 0x0 PUSH1 0x20 DUP3 ADD SWAP1 POP DUP2 DUP2 SUB PUSH1 0x0 DUP4 ADD MSTORE PUSH2 0x1762 DUP2 DUP5 PUSH2 0x16EA JUMP JUMPDEST SWAP1 POP SWAP3 SWAP2 POP POP JUMP JUMPDEST PUSH1 0x0 DUP2 ISZERO ISZERO SWAP1 POP SWAP2 SWAP1 POP JUMP JUMPDEST PUSH2 0x177F DUP2 PUSH2 0x176A JUMP JUMPDEST DUP3 MSTORE POP POP JUMP JUMPDEST PUSH1 0x0 PUSH1 0x20 DUP3 ADD SWAP1 POP PUSH2 0x179A PUSH1 0x0 DUP4 ADD DUP5 PUSH2 0x1776 JUMP JUMPDEST SWAP3 SWAP2 POP POP JUMP JUMPDEST PUSH1 0x0 DUP1 REVERT JUMPDEST PUSH1 0x0 PUSH1 0x1F NOT PUSH1 0x1F DUP4 ADD AND SWAP1 POP SWAP2 SWAP1 POP JUMP JUMPDEST PUSH32 0x4E487B7100000000000000000000000000000000000000000000000000000000 PUSH1 0x0 MSTORE PUSH1 0x41 PUSH1 0x4 MSTORE PUSH1 0x24 PUSH1 0x0 REVERT JUMPDEST PUSH2 0x17EE DUP3 PUSH2 0x17A5 JUMP JUMPDEST DUP2 ADD DUP2 DUP2 LT PUSH8 0xFFFFFFFFFFFFFFFF DUP3 GT OR ISZERO PUSH2 0x180D JUMPI PUSH2 0x180C PUSH2 0x17B6 JUMP JUMPDEST JUMPDEST DUP1 PUSH1 0x40 MSTORE POP POP POP JUMP JUMPDEST PUSH1 0x0 PUSH2 0x1820 PUSH2 0x149D JUMP JUMPDEST SWAP1 POP PUSH2 0x182C DUP3 DUP3 PUSH2 0x17E5 JUMP JUMPDEST SWAP2 SWAP1 POP JUMP JUMPDEST PUSH1 0x0 PUSH8 0xFFFFFFFFFFFFFFFF DUP3 GT ISZERO PUSH2 0x184C JUMPI PUSH2 0x184B PUSH2 0x17B6 JUMP JUMPDEST JUMPDEST PUSH1 0x20 DUP3 MUL SWAP1 POP PUSH1 0x20 DUP2 ADD SWAP1 POP SWAP2 SWAP1 POP JUMP JUMPDEST PUSH1 0x0 DUP1 REVERT JUMPDEST PUSH1 0x0 PUSH2 0x1875 PUSH2 0x1870 DUP5 PUSH2 0x1831 JUMP JUMPDEST PUSH2 0x1816 JUMP JUMPDEST SWAP1 POP DUP1 DUP4 DUP3 MSTORE PUSH1 0x20 DUP3 ADD SWAP1 POP PUSH1 0x20 DUP5 MUL DUP4 ADD DUP6 DUP2 GT ISZERO PUSH2 0x1898 JUMPI PUSH2 0x1897 PUSH2 0x185D JUMP JUMPDEST JUMPDEST DUP4 JUMPDEST DUP2 DUP2 LT ISZERO PUSH2 0x18C1 JUMPI DUP1 PUSH2 0x18AD DUP9 DUP3 PUSH2 0x14D2 JUMP JUMPDEST DUP5 MSTORE PUSH1 0x20 DUP5 ADD SWAP4 POP POP PUSH1 0x20 DUP2 ADD SWAP1 POP PUSH2 0x189A JUMP JUMPDEST POP POP POP SWAP4 SWAP3 POP POP POP JUMP JUMPDEST PUSH1 0x0 DUP3 PUSH1 0x1F DUP4 ADD SLT PUSH2 0x18E0 JUMPI PUSH2 0x18DF PUSH2 0x17A0 JUMP JUMPDEST JUMPDEST DUP2 CALLDATALOAD PUSH2 0x18F0 DUP5 DUP3 PUSH1 0x20 DUP7 ADD PUSH2 0x1862 JUMP JUMPDEST SWAP2 POP POP SWAP3 SWAP2 POP POP JUMP JUMPDEST PUSH1 0x0 PUSH8 0xFFFFFFFFFFFFFFFF DUP3 GT ISZERO PUSH2 0x1914 JUMPI PUSH2 0x1913 PUSH2 0x17B6 JUMP JUMPDEST JUMPDEST PUSH1 0x20 DUP3 MUL SWAP1 POP PUSH1 0x20 DUP2 ADD SWAP1 POP SWAP2 SWAP1 POP JUMP JUMPDEST PUSH1 0x0 PUSH8 0xFFFFFFFFFFFFFFFF DUP3 GT ISZERO PUSH2 0x1940 JUMPI PUSH2 0x193F PUSH2 0x17B6 JUMP JUMPDEST JUMPDEST PUSH1 0x20 DUP3 MUL SWAP1 POP PUSH1 0x20 DUP2 ADD SWAP1 POP SWAP2 SWAP1 POP JUMP JUMPDEST PUSH1 0x0 DUP1 REVERT JUMPDEST PUSH1 0x0 PUSH1 0x40 DUP3 DUP5 SUB SLT ISZERO PUSH2 0x196C JUMPI PUSH2 0x196B PUSH2 0x1951 JUMP JUMPDEST JUMPDEST PUSH2 0x1976 PUSH1 0x40 PUSH2 0x1816 JUMP JUMPDEST SWAP1 POP PUSH1 0x0 PUSH2 0x1986 DUP5 DUP3 DUP6 ADD PUSH2 0x14D2 JUMP JUMPDEST PUSH1 0x0 DUP4 ADD MSTORE POP PUSH1 0x20 PUSH2 0x199A DUP5 DUP3 DUP6 ADD PUSH2 0x14D2 JUMP JUMPDEST PUSH1 0x20 DUP4 ADD MSTORE POP SWAP3 SWAP2 POP POP JUMP JUMPDEST PUSH1 0x0 PUSH2 0x19B9 PUSH2 0x19B4 DUP5 PUSH2 0x1925 JUMP JUMPDEST PUSH2 0x1816 JUMP JUMPDEST SWAP1 POP DUP1 DUP4 DUP3 MSTORE PUSH1 0x20 DUP3 ADD SWAP1 POP PUSH1 0x40 DUP5 MUL DUP4 ADD DUP6 DUP2 GT ISZERO PUSH2 0x19DC JUMPI PUSH2 0x19DB PUSH2 0x185D JUMP JUMPDEST JUMPDEST DUP4 JUMPDEST DUP2 DUP2 LT ISZERO PUSH2 0x1A05 JUMPI DUP1 PUSH2 0x19F1 DUP9 DUP3 PUSH2 0x1956 JUMP JUMPDEST DUP5 MSTORE PUSH1 0x20 DUP5 ADD SWAP4 POP POP PUSH1 0x40 DUP2 ADD SWAP1 POP PUSH2 0x19DE JUMP JUMPDEST POP POP POP SWAP4 SWAP3 POP POP POP JUMP JUMPDEST PUSH1 0x0 DUP3 PUSH1 0x1F DUP4 ADD SLT PUSH2 0x1A24 JUMPI PUSH2 0x1A23 PUSH2 0x17A0 JUMP JUMPDEST JUMPDEST DUP2 CALLDATALOAD PUSH2 0x1A34 DUP5 DUP3 PUSH1 0x20 DUP7 ADD PUSH2 0x19A6 JUMP JUMPDEST SWAP2 POP POP SWAP3 SWAP2 POP POP JUMP JUMPDEST PUSH1 0x0 PUSH2 0x1A50 PUSH2 0x1A4B DUP5 PUSH2 0x18F9 JUMP JUMPDEST PUSH2 0x1816 JUMP JUMPDEST SWAP1 POP DUP1 DUP4 DUP3 MSTORE PUSH1 0x20 DUP3 ADD SWAP1 POP PUSH1 0x20 DUP5 MUL DUP4 ADD DUP6 DUP2 GT ISZERO PUSH2 0x1A73 JUMPI PUSH2 0x1A72 PUSH2 0x185D JUMP JUMPDEST JUMPDEST DUP4 JUMPDEST DUP2 DUP2 LT ISZERO PUSH2 0x1ABA JUMPI DUP1 CALLDATALOAD PUSH8 0xFFFFFFFFFFFFFFFF DUP2 GT ISZERO PUSH2 0x1A98 JUMPI PUSH2 0x1A97 PUSH2 0x17A0 JUMP JUMPDEST JUMPDEST DUP1 DUP7 ADD PUSH2 0x1AA5 DUP10 DUP3 PUSH2 0x1A0F JUMP JUMPDEST DUP6 MSTORE PUSH1 0x20 DUP6 ADD SWAP5 POP POP POP PUSH1 0x20 DUP2 ADD SWAP1 POP PUSH2 0x1A75 JUMP JUMPDEST POP POP POP SWAP4 SWAP3 POP POP POP JUMP JUMPDEST PUSH1 0x0 DUP3 PUSH1 0x1F DUP4 ADD SLT PUSH2 0x1AD9 JUMPI PUSH2 0x1AD8 PUSH2 0x17A0 JUMP JUMPDEST JUMPDEST DUP2 CALLDATALOAD PUSH2 0x1AE9 DUP5 DUP3 PUSH1 0x20 DUP7 ADD PUSH2 0x1A3D JUMP JUMPDEST SWAP2 POP POP SWAP3 SWAP2 POP POP JUMP JUMPDEST PUSH1 0x0 DUP1 PUSH1 0x0 DUP1 PUSH1 0x0 PUSH1 0xA0 DUP7 DUP9 SUB SLT ISZERO PUSH2 0x1B0E JUMPI PUSH2 0x1B0D PUSH2 0x14A7 JUMP JUMPDEST JUMPDEST PUSH1 0x0 DUP7 ADD CALLDATALOAD PUSH8 0xFFFFFFFFFFFFFFFF DUP2 GT ISZERO PUSH2 0x1B2C JUMPI PUSH2 0x1B2B PUSH2 0x14AC JUMP JUMPDEST JUMPDEST PUSH2 0x1B38 DUP9 DUP3 DUP10 ADD PUSH2 0x18CB JUMP JUMPDEST SWAP6 POP POP PUSH1 0x20 DUP7 ADD CALLDATALOAD PUSH8 0xFFFFFFFFFFFFFFFF DUP2 GT ISZERO PUSH2 0x1B59 JUMPI PUSH2 0x1B58 PUSH2 0x14AC JUMP JUMPDEST JUMPDEST PUSH2 0x1B65 DUP9 DUP3 DUP10 ADD PUSH2 0x1AC4 JUMP JUMPDEST SWAP5 POP POP PUSH1 0x40 DUP7 ADD CALLDATALOAD PUSH8 0xFFFFFFFFFFFFFFFF DUP2 GT ISZERO PUSH2 0x1B86 JUMPI PUSH2 0x1B85 PUSH2 0x14AC JUMP JUMPDEST JUMPDEST PUSH2 0x1B92 DUP9 DUP3 DUP10 ADD PUSH2 0x18CB JUMP JUMPDEST SWAP4 POP POP PUSH1 0x60 DUP7 ADD CALLDATALOAD PUSH8 0xFFFFFFFFFFFFFFFF DUP2 GT ISZERO PUSH2 0x1BB3 JUMPI PUSH2 0x1BB2 PUSH2 0x14AC JUMP JUMPDEST JUMPDEST PUSH2 0x1BBF DUP9 DUP3 DUP10 ADD PUSH2 0x18CB JUMP JUMPDEST SWAP3 POP POP PUSH1 0x80 DUP7 ADD CALLDATALOAD PUSH8 0xFFFFFFFFFFFFFFFF DUP2 GT ISZERO PUSH2 0x1BE0 JUMPI PUSH2 0x1BDF PUSH2 0x14AC JUMP JUMPDEST JUMPDEST PUSH2 0x1BEC DUP9 DUP3 DUP10 ADD PUSH2 0x18CB JUMP JUMPDEST SWAP2 POP POP SWAP3 SWAP6 POP SWAP3 SWAP6 SWAP1 SWAP4 POP JUMP JUMPDEST PUSH1 0x0 DUP2 MLOAD SWAP1 POP SWAP2 SWAP1 POP JUMP JUMPDEST PUSH1 0x0 DUP3 DUP3 MSTORE PUSH1 0x20 DUP3 ADD SWAP1 POP SWAP3 SWAP2 POP POP JUMP JUMPDEST PUSH1 0x0 DUP2 SWAP1 POP PUSH1 0x20 DUP3 ADD SWAP1 POP SWAP2 SWAP1 POP JUMP JUMPDEST PUSH2 0x1C2E DUP2 PUSH2 0x14E7 JUMP JUMPDEST DUP3 MSTORE POP POP JUMP JUMPDEST PUSH1 0x80 DUP3 ADD PUSH1 0x0 DUP3 ADD MLOAD PUSH2 0x1C4A PUSH1 0x0 DUP6 ADD DUP3 PUSH2 0x1589 JUMP JUMPDEST POP PUSH1 0x20 DUP3 ADD MLOAD PUSH2 0x1C5D PUSH1 0x20 DUP6 ADD DUP3 PUSH2 0x1589 JUMP JUMPDEST POP PUSH1 0x40 DUP3 ADD MLOAD PUSH2 0x1C70 PUSH1 0x40 DUP6 ADD DUP3 PUSH2 0x1589 JUMP JUMPDEST POP PUSH1 0x60 DUP3 ADD MLOAD PUSH2 0x1C83 PUSH1 0x60 DUP6 ADD DUP3 PUSH2 0x1C25 JUMP JUMPDEST POP POP POP POP JUMP JUMPDEST PUSH1 0x0 PUSH2 0x1C95 DUP4 DUP4 PUSH2 0x1C34 JUMP JUMPDEST PUSH1 0x80 DUP4 ADD SWAP1 POP SWAP3 SWAP2 POP POP JUMP JUMPDEST PUSH1 0x0 PUSH1 0x20 DUP3 ADD SWAP1 POP SWAP2 SWAP1 POP JUMP JUMPDEST PUSH1 0x0 PUSH2 0x1CB9 DUP3 PUSH2 0x1BF9 JUMP JUMPDEST PUSH2 0x1CC3 DUP2 DUP6 PUSH2 0x1C04 JUMP JUMPDEST SWAP4 POP PUSH2 0x1CCE DUP4 PUSH2 0x1C15 JUMP JUMPDEST DUP1 PUSH1 0x0 JUMPDEST DUP4 DUP2 LT ISZERO PUSH2 0x1CFF JUMPI DUP2 MLOAD PUSH2 0x1CE6 DUP9 DUP3 PUSH2 0x1C89 JUMP JUMPDEST SWAP8 POP PUSH2 0x1CF1 DUP4 PUSH2 0x1CA1 JUMP JUMPDEST SWAP3 POP POP PUSH1 0x1 DUP2 ADD SWAP1 POP PUSH2 0x1CD2 JUMP JUMPDEST POP DUP6 SWAP4 POP POP POP POP SWAP3 SWAP2 POP POP JUMP JUMPDEST PUSH1 0x0 PUSH1 0x20 DUP3 ADD SWAP1 POP DUP2 DUP2 SUB PUSH1 0x0 DUP4 ADD MSTORE PUSH2 0x1D26 DUP2 DUP5 PUSH2 0x1CAE JUMP JUMPDEST SWAP1 POP SWAP3 SWAP2 POP POP JUMP JUMPDEST PUSH2 0x1D37 DUP2 PUSH2 0x14B1 JUMP JUMPDEST DUP3 MSTORE POP POP JUMP JUMPDEST PUSH1 0x0 PUSH1 0x60 DUP3 ADD SWAP1 POP PUSH2 0x1D52 PUSH1 0x0 DUP4 ADD DUP7 PUSH2 0x1D2E JUMP JUMPDEST PUSH2 0x1D5F PUSH1 0x20 DUP4 ADD DUP6 PUSH2 0x1D2E JUMP JUMPDEST PUSH2 0x1D6C PUSH1 0x40 DUP4 ADD DUP5 PUSH2 0x1D2E JUMP JUMPDEST SWAP5 SWAP4 POP POP POP POP JUMP JUMPDEST PUSH1 0x0 PUSH8 0xFFFFFFFFFFFFFFFF DUP3 GT ISZERO PUSH2 0x1D8F JUMPI PUSH2 0x1D8E PUSH2 0x17B6 JUMP JUMPDEST JUMPDEST PUSH1 0x20 DUP3 MUL SWAP1 POP PUSH1 0x20 DUP2 ADD SWAP1 POP SWAP2 SWAP1 POP JUMP JUMPDEST PUSH1 0x0 PUSH2 0x1DB3 PUSH2 0x1DAE DUP5 PUSH2 0x1D74 JUMP JUMPDEST PUSH2 0x1816 JUMP JUMPDEST SWAP1 POP DUP1 DUP4 DUP3 MSTORE PUSH1 0x20 DUP3 ADD SWAP1 POP PUSH1 0x20 DUP5 MUL DUP4 ADD DUP6 DUP2 GT ISZERO PUSH2 0x1DD6 JUMPI PUSH2 0x1DD5 PUSH2 0x185D JUMP JUMPDEST JUMPDEST DUP4 JUMPDEST DUP2 DUP2 LT ISZERO PUSH2 0x1DFF JUMPI DUP1 PUSH2 0x1DEB DUP9 DUP3 PUSH2 0x1508 JUMP JUMPDEST DUP5 MSTORE PUSH1 0x20 DUP5 ADD SWAP4 POP POP PUSH1 0x20 DUP2 ADD SWAP1 POP PUSH2 0x1DD8 JUMP JUMPDEST POP POP POP SWAP4 SWAP3 POP POP POP JUMP JUMPDEST PUSH1 0x0 DUP3 PUSH1 0x1F DUP4 ADD SLT PUSH2 0x1E1E JUMPI PUSH2 0x1E1D PUSH2 0x17A0 JUMP JUMPDEST JUMPDEST DUP2 CALLDATALOAD PUSH2 0x1E2E DUP5 DUP3 PUSH1 0x20 DUP7 ADD PUSH2 0x1DA0 JUMP JUMPDEST SWAP2 POP POP SWAP3 SWAP2 POP POP JUMP JUMPDEST PUSH1 0x0 DUP1 PUSH1 0x0 PUSH1 0x60 DUP5 DUP7 SUB SLT ISZERO PUSH2 0x1E50 JUMPI PUSH2 0x1E4F PUSH2 0x14A7 JUMP JUMPDEST JUMPDEST PUSH1 0x0 DUP5 ADD CALLDATALOAD PUSH8 0xFFFFFFFFFFFFFFFF DUP2 GT ISZERO PUSH2 0x1E6E JUMPI PUSH2 0x1E6D PUSH2 0x14AC JUMP JUMPDEST JUMPDEST PUSH2 0x1E7A DUP7 DUP3 DUP8 ADD PUSH2 0x18CB JUMP JUMPDEST SWAP4 POP POP PUSH1 0x20 DUP5 ADD CALLDATALOAD PUSH8 0xFFFFFFFFFFFFFFFF DUP2 GT ISZERO PUSH2 0x1E9B JUMPI PUSH2 0x1E9A PUSH2 0x14AC JUMP JUMPDEST JUMPDEST PUSH2 0x1EA7 DUP7 DUP3 DUP8 ADD PUSH2 0x1E09 JUMP JUMPDEST SWAP3 POP POP PUSH1 0x40 PUSH2 0x1EB8 DUP7 DUP3 DUP8 ADD PUSH2 0x14D2 JUMP JUMPDEST SWAP2 POP POP SWAP3 POP SWAP3 POP SWAP3 JUMP JUMPDEST PUSH1 0x0 PUSH20 0xFFFFFFFFFFFFFFFFFFFFFFFFFFFFFFFFFFFFFFFF DUP3 AND SWAP1 POP SWAP2 SWAP1 POP JUMP JUMPDEST PUSH1 0x0 PUSH2 0x1EED DUP3 PUSH2 0x1EC2 JUMP JUMPDEST SWAP1 POP SWAP2 SWAP1 POP JUMP JUMPDEST PUSH2 0x1EFD DUP2 PUSH2 0x1EE2 JUMP JUMPDEST DUP3 MSTORE POP POP JUMP JUMPDEST PUSH1 0x0 PUSH1 0x20 DUP3 ADD SWAP1 POP PUSH2 0x1F18 PUSH1 0x0 DUP4 ADD DUP5 PUSH2 0x1EF4 JUMP JUMPDEST SWAP3 SWAP2 POP POP JUMP JUMPDEST PUSH1 0x0 DUP2 MLOAD SWAP1 POP SWAP2 SWAP1 POP JUMP JUMPDEST PUSH1 0x0 DUP3 DUP3 MSTORE PUSH1 0x20 DUP3 ADD SWAP1 POP SWAP3 SWAP2 POP POP JUMP JUMPDEST PUSH1 0x0 DUP2 SWAP1 POP PUSH1 0x20 DUP3 ADD SWAP1 POP SWAP2 SWAP1 POP JUMP JUMPDEST PUSH1 0x0 PUSH2 0x1F56 DUP4 DUP4 PUSH2 0x1C25 JUMP JUMPDEST PUSH1 0x20 DUP4 ADD SWAP1 POP SWAP3 SWAP2 POP POP JUMP JUMPDEST PUSH1 0x0 PUSH1 0x20 DUP3 ADD SWAP1 POP SWAP2 SWAP1 POP JUMP JUMPDEST PUSH1 0x0 PUSH2 0x1F7A DUP3 PUSH2 0x1F1E JUMP JUMPDEST PUSH2 0x1F84 DUP2 DUP6 PUSH2 0x1F29 JUMP JUMPDEST SWAP4 POP PUSH2 0x1F8F DUP4 PUSH2 0x1F3A JUMP JUMPDEST DUP1 PUSH1 0x0 JUMPDEST DUP4 DUP2 LT ISZERO PUSH2 0x1FC0 JUMPI DUP2 MLOAD PUSH2 0x1FA7 DUP9 DUP3 PUSH2 0x1F4A JUMP JUMPDEST SWAP8 POP PUSH2 0x1FB2 DUP4 PUSH2 0x1F62 JUMP JUMPDEST SWAP3 POP POP PUSH1 0x1 DUP2 ADD SWAP1 POP PUSH2 0x1F93 JUMP JUMPDEST POP DUP6 SWAP4 POP POP POP POP SWAP3 SWAP2 POP POP JUMP JUMPDEST PUSH1 0x0 PUSH1 0x40 DUP3 ADD SWAP1 POP DUP2 DUP2 SUB PUSH1 0x0 DUP4 ADD MSTORE PUSH2 0x1FE7 DUP2 DUP6 PUSH2 0x16EA JUMP JUMPDEST SWAP1 POP DUP2 DUP2 SUB PUSH1 0x20 DUP4 ADD MSTORE PUSH2 0x1FFB DUP2 DUP5 PUSH2 0x1F6F JUMP JUMPDEST SWAP1 POP SWAP4 SWAP3 POP POP POP JUMP JUMPDEST PUSH1 0x0 DUP3 DUP3 MSTORE PUSH1 0x20 DUP3 ADD SWAP1 POP SWAP3 SWAP2 POP POP JUMP JUMPDEST PUSH32 0x4F6E6C792061646D696E2063616E20706572666F726D20746869732061637469 PUSH1 0x0 DUP3 ADD MSTORE PUSH32 0x6F6E000000000000000000000000000000000000000000000000000000000000 PUSH1 0x20 DUP3 ADD MSTORE POP JUMP JUMPDEST PUSH1 0x0 PUSH2 0x2071 PUSH1 0x22 DUP4 PUSH2 0x2004 JUMP JUMPDEST SWAP2 POP PUSH2 0x207C DUP3 PUSH2 0x2015 JUMP JUMPDEST PUSH1 0x40 DUP3 ADD SWAP1 POP SWAP2 SWAP1 POP JUMP JUMPDEST PUSH1 0x0 PUSH1 0x20 DUP3 ADD SWAP1 POP DUP2 DUP2 SUB PUSH1 0x0 DUP4 ADD MSTORE PUSH2 0x20A0 DUP2 PUSH2 0x2064 JUMP JUMPDEST SWAP1 POP SWAP2 SWAP1 POP JUMP JUMPDEST PUSH32 0x4E487B7100000000000000000000000000000000000000000000000000000000 PUSH1 0x0 MSTORE PUSH1 0x32 PUSH1 0x4 MSTORE PUSH1 0x24 PUSH1 0x0 REVERT JUMPDEST PUSH32 0x4E487B7100000000000000000000000000000000000000000000000000000000 PUSH1 0x0 MSTORE PUSH1 0x11 PUSH1 0x4 MSTORE PUSH1 0x24 PUSH1 0x0 REVERT JUMPDEST PUSH1 0x0 PUSH2 0x2110 DUP3 PUSH2 0x14E7 JUMP JUMPDEST SWAP2 POP PUSH32 0xFFFFFFFFFFFFFFFFFFFFFFFFFFFFFFFFFFFFFFFFFFFFFFFFFFFFFFFFFFFFFFFF DUP3 SUB PUSH2 0x2142 JUMPI PUSH2 0x2141 PUSH2 0x20D6 JUMP JUMPDEST JUMPDEST PUSH1 0x1 DUP3 ADD SWAP1 POP SWAP2 SWAP1 POP JUMP JUMPDEST PUSH32 0x43616E646964617465732061726520616C72656164792066696E616C697A6564 PUSH1 0x0 DUP3 ADD MSTORE PUSH32 0x2100000000000000000000000000000000000000000000000000000000000000 PUSH1 0x20 DUP3 ADD MSTORE POP JUMP JUMPDEST PUSH1 0x0 PUSH2 0x21A9 PUSH1 0x21 DUP4 PUSH2 0x2004 JUMP JUMPDEST SWAP2 POP PUSH2 0x21B4 DUP3 PUSH2 0x214D JUMP JUMPDEST PUSH1 0x40 DUP3 ADD SWAP1 POP SWAP2 SWAP1 POP JUMP JUMPDEST PUSH1 0x0 PUSH1 0x20 DUP3 ADD SWAP1 POP DUP2 DUP2 SUB PUSH1 0x0 DUP4 ADD MSTORE PUSH2 0x21D8 DUP2 PUSH2 0x219C JUMP JUMPDEST SWAP1 POP SWAP2 SWAP1 POP JUMP JUMPDEST PUSH32 0x566F74696E672063616E6E6F7420737461727420756E74696C2063616E646964 PUSH1 0x0 DUP3 ADD MSTORE PUSH32 0x61746573206172652066696E616C697A65642100000000000000000000000000 PUSH1 0x20 DUP3 ADD MSTORE POP JUMP JUMPDEST PUSH1 0x0 PUSH2 0x223B PUSH1 0x33 DUP4 PUSH2 0x2004 JUMP JUMPDEST SWAP2 POP PUSH2 0x2246 DUP3 PUSH2 0x21DF JUMP JUMPDEST PUSH1 0x40 DUP3 ADD SWAP1 POP SWAP2 SWAP1 POP JUMP JUMPDEST PUSH1 0x0 PUSH1 0x20 DUP3 ADD SWAP1 POP DUP2 DUP2 SUB PUSH1 0x0 DUP4 ADD MSTORE PUSH2 0x226A DUP2 PUSH2 0x222E JUMP JUMPDEST SWAP1 POP SWAP2 SWAP1 POP JUMP JUMPDEST PUSH32 0x4D69736D61746368656420696E707574206C656E677468730000000000000000 PUSH1 0x0 DUP3 ADD MSTORE POP JUMP JUMPDEST PUSH1 0x0 PUSH2 0x22A7 PUSH1 0x18 DUP4 PUSH2 0x2004 JUMP JUMPDEST SWAP2 POP PUSH2 0x22B2 DUP3 PUSH2 0x2271 JUMP JUMPDEST PUSH1 0x20 DUP3 ADD SWAP1 POP SWAP2 SWAP1 POP JUMP JUMPDEST PUSH1 0x0 PUSH1 0x20 DUP3 ADD SWAP1 POP DUP2 DUP2 SUB PUSH1 0x0 DUP4 ADD MSTORE PUSH2 0x22D6 DUP2 PUSH2 0x229A JUMP JUMPDEST SWAP1 POP SWAP2 SWAP1 POP JUMP JUMPDEST PUSH32 0x566F7465722068617320616C726561647920766F746564000000000000000000 PUSH1 0x0 DUP3 ADD MSTORE POP JUMP JUMPDEST PUSH1 0x0 PUSH2 0x2313 PUSH1 0x17 DUP4 PUSH2 0x2004 JUMP JUMPDEST SWAP2 POP PUSH2 0x231E DUP3 PUSH2 0x22DD JUMP JUMPDEST PUSH1 0x20 DUP3 ADD SWAP1 POP SWAP2 SWAP1 POP JUMP JUMPDEST PUSH1 0x0 PUSH1 0x20 DUP3 ADD SWAP1 POP DUP2 DUP2 SUB PUSH1 0x0 DUP4 ADD MSTORE PUSH2 0x2342 DUP2 PUSH2 0x2306 JUMP JUMPDEST SWAP1 POP SWAP2 SWAP1 POP JUMP JUMPDEST PUSH32 0x496E76616C69642063616E64696461746520696E646578000000000000000000 PUSH1 0x0 DUP3 ADD MSTORE POP JUMP JUMPDEST PUSH1 0x0 PUSH2 0x237F PUSH1 0x17 DUP4 PUSH2 0x2004 JUMP JUMPDEST SWAP2 POP PUSH2 0x238A DUP3 PUSH2 0x2349 JUMP JUMPDEST PUSH1 0x20 DUP3 ADD SWAP1 POP SWAP2 SWAP1 POP JUMP JUMPDEST PUSH1 0x0 PUSH1 0x20 DUP3 ADD SWAP1 POP DUP2 DUP2 SUB PUSH1 0x0 DUP4 ADD MSTORE PUSH2 0x23AE DUP2 PUSH2 0x2372 JUMP JUMPDEST SWAP1 POP SWAP2 SWAP1 POP JUMP JUMPDEST PUSH1 0x0 PUSH2 0x23C0 DUP3 PUSH2 0x14E7 JUMP JUMPDEST SWAP2 POP PUSH2 0x23CB DUP4 PUSH2 0x14E7 JUMP JUMPDEST SWAP3 POP DUP3 DUP3 ADD SWAP1 POP DUP1 DUP3 GT ISZERO PUSH2 0x23E3 JUMPI PUSH2 0x23E2 PUSH2 0x20D6 JUMP JUMPDEST JUMPDEST SWAP3 SWAP2 POP POP JUMP JUMPDEST PUSH1 0x0 PUSH2 0x23F4 DUP3 PUSH2 0x14E7 JUMP JUMPDEST SWAP2 POP PUSH2 0x23FF DUP4 PUSH2 0x14E7 JUMP JUMPDEST SWAP3 POP DUP3 DUP3 SUB SWAP1 POP DUP2 DUP2 GT ISZERO PUSH2 0x2417 JUMPI PUSH2 0x2416 PUSH2 0x20D6 JUMP JUMPDEST JUMPDEST SWAP3 SWAP2 POP POP JUMP INVALID LOG2 PUSH5 0x6970667358 0x22 SLT KECCAK256 0xD0 0xFB DUP2 COINBASE AND 0xE6 0x27 INVALID POP TIMESTAMP 0xE1 POP 0xEA 0xAC 0xCC 0xAD 0x25 PUSH11 0x9209768139066E737DB79B MUL SHR DUP3 PUSH5 0x736F6C6343 STOP ADDMOD ISZERO STOP CALLER "},"methodIdentifiers":{"admin()":"f851a440","batchVote(bytes32[],uint256[],bytes32)":"e7d8e8ad","boardMemberInfo(bytes32)":"e64e8483","getCandidates(bytes32)":"85b923ca","getPositionList()":"a5d3157e","getVoteCounts()":"ffc97b20","getVoterHashes(bytes32,uint256)":"70918ce3","getWinners()":"df15c37e","isFinalized()":"8d4e4083","resetCandidates()":"7718d9f3","submitCandidates(bytes32[],(bytes32,bytes32)[][],bytes32[],bytes32[],bytes32[])":"9b51c62e"}}}}}