{"contracts/AdminCandidates.sol":{"AdminCandidates":{"abi":[{"inputs":[],"stateMutability":"nonpayable","type":"constructor"},{"anonymous":false,"inputs":[],"name":"CandidatesReset","type":"event"},{"anonymous":false,"inputs":[],"name":"CandidatesSubmitted","type":"event"},{"anonymous":false,"inputs":[{"indexed":false,"internalType":"bytes32","name":"position","type":"bytes32"},{"indexed":false,"internalType":"bytes32","name":"name","type":"bytes32"},{"indexed":false,"internalType":"bytes32","name":"voterHash","type":"bytes32"}],"name":"VoteSubmitted","type":"event"},{"inputs":[],"name":"admin","outputs":[{"internalType":"address","name":"","type":"address"}],"stateMutability":"view","type":"function"},{"inputs":[{"internalType":"bytes32[]","name":"_positions","type":"bytes32[]"},{"internalType":"uint256[]","name":"_indices","type":"uint256[]"},{"internalType":"bytes32","name":"_voterHash","type":"bytes32"}],"name":"batchVote","outputs":[],"stateMutability":"nonpayable","type":"function"},{"inputs":[{"internalType":"bytes32","name":"","type":"bytes32"}],"name":"boardMemberProgramIDs","outputs":[{"internalType":"bytes32","name":"","type":"bytes32"}],"stateMutability":"view","type":"function"},{"inputs":[{"internalType":"bytes32","name":"_position","type":"bytes32"}],"name":"getCandidates","outputs":[{"components":[{"internalType":"bytes32","name":"name","type":"bytes32"},{"internalType":"bytes32","name":"party","type":"bytes32"}],"internalType":"struct AdminCandidates.CandidateEntry[]","name":"","type":"tuple[]"}],"stateMutability":"view","type":"function"},{"inputs":[],"name":"getPositionList","outputs":[{"internalType":"bytes32[]","name":"","type":"bytes32[]"}],"stateMutability":"view","type":"function"},{"inputs":[],"name":"getVoteCounts","outputs":[{"components":[{"internalType":"bytes32","name":"name","type":"bytes32"},{"internalType":"bytes32","name":"party","type":"bytes32"}],"internalType":"struct AdminCandidates.CandidateEntry[]","name":"","type":"tuple[]"},{"internalType":"uint256[]","name":"","type":"uint256[]"}],"stateMutability":"view","type":"function"},{"inputs":[{"internalType":"bytes32","name":"_position","type":"bytes32"},{"internalType":"uint256","name":"_index","type":"uint256"}],"name":"getVoterHashes","outputs":[{"internalType":"bytes32[]","name":"","type":"bytes32[]"}],"stateMutability":"view","type":"function"},{"inputs":[],"name":"getWinners","outputs":[{"components":[{"internalType":"bytes32","name":"position","type":"bytes32"},{"internalType":"bytes32","name":"name","type":"bytes32"},{"internalType":"bytes32","name":"party","type":"bytes32"},{"internalType":"uint256","name":"votes","type":"uint256"}],"internalType":"struct AdminCandidates.Winner[]","name":"","type":"tuple[]"}],"stateMutability":"view","type":"function"},{"inputs":[],"name":"isFinalized","outputs":[{"internalType":"bool","name":"","type":"bool"}],"stateMutability":"view","type":"function"},{"inputs":[],"name":"resetCandidates","outputs":[],"stateMutability":"nonpayable","type":"function"},{"inputs":[{"internalType":"bytes32[]","name":"_positions","type":"bytes32[]"},{"components":[{"internalType":"bytes32","name":"name","type":"bytes32"},{"internalType":"bytes32","name":"party","type":"bytes32"}],"internalType":"struct AdminCandidates.CandidateEntry[][]","name":"_candidates","type":"tuple[][]"},{"internalType":"bytes32[]","name":"_boardMemberProgramIDs","type":"bytes32[]"}],"name":"submitCandidates","outputs":[],"stateMutability":"nonpayable","type":"function"}],"evm":{"bytecode":{"linkReferences":{},"object":"60806040526000600560146101000a81548160ff02191690831515021790555034801561002b57600080fd5b5033600560006101000a81548173ffffffffffffffffffffffffffffffffffffffff021916908373ffffffffffffffffffffffffffffffffffffffff1602179055506123c28061007c6000396000f3fe608060405234801561001057600080fd5b50600436106100a95760003560e01c8063a5d3157e11610071578063a5d3157e14610166578063adf55ada14610184578063df15c37e146101a0578063e7d8e8ad146101be578063f851a440146101da578063ffc97b20146101f8576100a9565b806356fc64f8146100ae57806370918ce3146100de5780637718d9f31461010e57806385b923ca146101185780638d4e408314610148575b600080fd5b6100c860048036038101906100c3919061149b565b610217565b6040516100d591906114d7565b60405180910390f35b6100f860048036038101906100f39190611528565b61022f565b6040516101059190611626565b60405180910390f35b6101166102ac565b005b610132600480360381019061012d919061149b565b6103f9565b60405161013f9190611726565b60405180910390f35b610150610515565b60405161015d9190611763565b60405180910390f35b61016e610528565b60405161017b9190611626565b60405180910390f35b61019e60048036038101906101999190611ad0565b610580565b005b6101a8610987565b6040516101b59190611c8a565b60405180910390f35b6101d860048036038101906101d39190611d6f565b610b62565b005b6101e2610e44565b6040516101ef9190611e3b565b60405180910390f35b610200610e6a565b60405161020e929190611f05565b60405180910390f35b60046020528060005260406000206000915090505481565b606060016000848152602001908152602001600020600083815260200190815260200160002080548060200260200160405190810160405280929190818152602001828054801561029f57602002820191906000526020600020905b81548152602001906001019080831161028b575b5050505050905092915050565b600560009054906101000a900473ffffffffffffffffffffffffffffffffffffffff1673ffffffffffffffffffffffffffffffffffffffff163373ffffffffffffffffffffffffffffffffffffffff161461033c576040517f08c379a000000000000000000000000000000000000000000000000000000000815260040161033390611fbf565b60405180910390fd5b60005b6003805490508110156103a15760006003828154811061036257610361611fdf565b5b90600052602060002001549050600080828152602001908152602001600020600061038d919061136f565b5080806103999061203d565b91505061033f565b50600360006103b09190611393565b6000600560146101000a81548160ff0219169083151502179055507f800bdaa40887ccfd790fdc79f47cf3acbb2a1ecf28b3bccb67e3719009c1bab260405160405180910390a1565b6060600080600084815260200190815260200160002090506000818054905067ffffffffffffffff81111561043157610430611794565b5b60405190808252806020026020018201604052801561046a57816020015b6104576113b4565b81526020019060019003908161044f5790505b50905060005b828054905081101561050a57604051806040016040528084838154811061049a57610499611fdf565b5b90600052602060002090600302016000015481526020018483815481106104c4576104c3611fdf565b5b9060005260206000209060030201600101548152508282815181106104ec576104eb611fdf565b5b602002602001018190525080806105029061203d565b915050610470565b508092505050919050565b600560149054906101000a900460ff1681565b6060600380548060200260200160405190810160405280929190818152602001828054801561057657602002820191906000526020600020905b815481526020019060010190808311610562575b5050505050905090565b600560009054906101000a900473ffffffffffffffffffffffffffffffffffffffff1673ffffffffffffffffffffffffffffffffffffffff163373ffffffffffffffffffffffffffffffffffffffff1614610610576040517f08c379a000000000000000000000000000000000000000000000000000000000815260040161060790611fbf565b60405180910390fd5b600560149054906101000a900460ff1615610660576040517f08c379a0000000000000000000000000000000000000000000000000000000008152600401610657906120f7565b60405180910390fd5b6003600061066e9190611393565b60005b835181101561093a57600080600086848151811061069257610691611fdf565b5b6020026020010151815260200190815260200160002080549050036106f55760038482815181106106c6576106c5611fdf565b5b602002602001015190806001815401808255809150506001900390600052602060002001600090919091909150555b60008085838151811061070b5761070a611fdf565b5b60200260200101518152602001908152602001600020600061072d919061136f565b60005b83828151811061074357610742611fdf565b5b6020026020010151518110156108b15760008086848151811061076957610768611fdf565b5b60200260200101518152602001908152602001600020604051806060016040528086858151811061079d5761079c611fdf565b5b602002602001015184815181106107b7576107b6611fdf565b5b60200260200101516000015181526020018685815181106107db576107da611fdf565b5b602002602001015184815181106107f5576107f4611fdf565b5b60200260200101516020015181526020016000815250908060018154018082558091505060019003906000526020600020906003020160009091909190915060008201518160000155602082015181600101556040820151816002015550506001600086848151811061086b5761086a611fdf565b5b602002602001015181526020019081526020016000206000828152602001908152602001600020600061089e9190611393565b80806108a99061203d565b915050610730565b506108d58482815181106108c8576108c7611fdf565b5b60200260200101516110ca565b15610927578181815181106108ed576108ec611fdf565b5b60200260200101516004600086848151811061090c5761090b611fdf565b5b60200260200101518152602001908152602001600020819055505b80806109329061203d565b915050610671565b506001600560146101000a81548160ff0219169083151502179055507f86825b43264ca968e676c45c8e05cc56965ff5938ed49dcf636c61acb7070bd760405160405180910390a1505050565b60606000600380549050905060008167ffffffffffffffff8111156109af576109ae611794565b5b6040519080825280602002602001820160405280156109e857816020015b6109d56113d4565b8152602001906001900390816109cd5790505b50905060005b82811015610b5957600060038281548110610a0c57610a0b611fdf565b5b90600052602060002001549050600080600083815260200190815260200160002090506000806000805b8480549050811015610ab957811580610a72575083858281548110610a5e57610a5d611fdf565b5b906000526020600020906003020160020154115b15610aa657848181548110610a8a57610a89611fdf565b5b9060005260206000209060030201600201549350809250600191505b8080610ab19061203d565b915050610a36565b506040518060800160405280868152602001858481548110610ade57610add611fdf565b5b9060005260206000209060030201600001548152602001858481548110610b0857610b07611fdf565b5b906000526020600020906003020160010154815260200184815250878781518110610b3657610b35611fdf565b5b602002602001018190525050505050508080610b519061203d565b9150506109ee565b50809250505090565b600560149054906101000a900460ff16610bb1576040517f08c379a0000000000000000000000000000000000000000000000000000000008152600401610ba890612189565b60405180910390fd5b8151835114610bf5576040517f08c379a0000000000000000000000000000000000000000000000000000000008152600401610bec906121f5565b60405180910390fd5b6002600082815260200190815260200160002060009054906101000a900460ff1615610c56576040517f08c379a0000000000000000000000000000000000000000000000000000000008152600401610c4d90612261565b60405180910390fd5b60016002600083815260200190815260200160002060006101000a81548160ff02191690831515021790555060005b8351811015610e3e576000848281518110610ca357610ca2611fdf565b5b602002602001015190506000848381518110610cc257610cc1611fdf565b5b60200260200101519050600080838152602001908152602001600020805490508110610d23576040517f08c379a0000000000000000000000000000000000000000000000000000000008152600401610d1a906122cd565b60405180910390fd5b6000808381526020019081526020016000208181548110610d4757610d46611fdf565b5b90600052602060002090600302016002016000815480929190610d699061203d565b91905055506001600083815260200190815260200160002060008281526020019081526020016000208490806001815401808255809150506001900390600052602060002001600090919091909150557f178e76faa844f1c429cbe43bb805a70530f990ef2acc87f8f626ac80ff484909826000808581526020019081526020016000208381548110610dff57610dfe611fdf565b5b90600052602060002090600302016000015486604051610e21939291906122ed565b60405180910390a150508080610e369061203d565b915050610c85565b50505050565b600560009054906101000a900473ffffffffffffffffffffffffffffffffffffffff1681565b6060806000805b600380549050811015610ed25760008060038381548110610e9557610e94611fdf565b5b906000526020600020015481526020019081526020016000208054905082610ebd9190612324565b91508080610eca9061203d565b915050610e71565b5060008167ffffffffffffffff811115610eef57610eee611794565b5b604051908082528060200260200182016040528015610f2857816020015b610f156113b4565b815260200190600190039081610f0d5790505b50905060008267ffffffffffffffff811115610f4757610f46611794565b5b604051908082528060200260200182016040528015610f755781602001602082028036833780820191505090505b5090506000805b6003805490508110156110bb57600080600060038481548110610fa257610fa1611fdf565b5b90600052602060002001548152602001908152602001600020905060005b81805490508110156110a6576040518060400160405280838381548110610fea57610fe9611fdf565b5b906000526020600020906003020160000154815260200183838154811061101457611013611fdf565b5b90600052602060002090600302016001015481525086858151811061103c5761103b611fdf565b5b602002602001018190525081818154811061105a57611059611fdf565b5b90600052602060002090600302016002015485858151811061107f5761107e611fdf565b5b6020026020010181815250508380600101945050808061109e9061203d565b915050610fc0565b505080806110b39061203d565b915050610f7c565b50828295509550505050509091565b6000806110d683611239565b9050600081905060006040518060400160405280600c81526020017f426f617264204d656d6265720000000000000000000000000000000000000000815250905080518251101561112d5760009350505050611234565b60005b8151835161113e9190612358565b811161122b5760006001905060005b83518110156112025783818151811061116957611168611fdf565b5b602001015160f81c60f81b7effffffffffffffffffffffffffffffffffffffffffffffffffffffffffffff19168582856111a39190612324565b815181106111b4576111b3611fdf565b5b602001015160f81c60f81b7effffffffffffffffffffffffffffffffffffffffffffffffffffffffffffff1916146111ef5760009150611202565b80806111fa9061203d565b91505061114d565b50801561121757600195505050505050611234565b5080806112239061203d565b915050611130565b50600093505050505b919050565b606060005b60208110801561128a5750600060f81b83826020811061126157611260611fdf565b5b1a60f81b7effffffffffffffffffffffffffffffffffffffffffffffffffffffffffffff191614155b1561129c57808060010191505061123e565b60008167ffffffffffffffff8111156112b8576112b7611794565b5b6040519080825280601f01601f1916602001820160405280156112ea5781602001600182028036833780820191505090505b50905060005b828110156113645784816020811061130b5761130a611fdf565b5b1a60f81b82828151811061132257611321611fdf565b5b60200101907effffffffffffffffffffffffffffffffffffffffffffffffffffffffffffff1916908160001a905350808061135c9061203d565b9150506112f0565b508092505050919050565b50805460008255600302906000526020600020908101906113909190611405565b50565b50805460008255906000526020600020908101906113b19190611434565b50565b604051806040016040528060008019168152602001600080191681525090565b6040518060800160405280600080191681526020016000801916815260200160008019168152602001600081525090565b5b80821115611430576000808201600090556001820160009055600282016000905550600301611406565b5090565b5b8082111561144d576000816000905550600101611435565b5090565b6000604051905090565b600080fd5b600080fd5b6000819050919050565b61147881611465565b811461148357600080fd5b50565b6000813590506114958161146f565b92915050565b6000602082840312156114b1576114b061145b565b5b60006114bf84828501611486565b91505092915050565b6114d181611465565b82525050565b60006020820190506114ec60008301846114c8565b92915050565b6000819050919050565b611505816114f2565b811461151057600080fd5b50565b600081359050611522816114fc565b92915050565b6000806040838503121561153f5761153e61145b565b5b600061154d85828601611486565b925050602061155e85828601611513565b9150509250929050565b600081519050919050565b600082825260208201905092915050565b6000819050602082019050919050565b61159d81611465565b82525050565b60006115af8383611594565b60208301905092915050565b6000602082019050919050565b60006115d382611568565b6115dd8185611573565b93506115e883611584565b8060005b8381101561161957815161160088826115a3565b975061160b836115bb565b9250506001810190506115ec565b5085935050505092915050565b6000602082019050818103600083015261164081846115c8565b905092915050565b600081519050919050565b600082825260208201905092915050565b6000819050602082019050919050565b60408201600082015161168a6000850182611594565b50602082015161169d6020850182611594565b50505050565b60006116af8383611674565b60408301905092915050565b6000602082019050919050565b60006116d382611648565b6116dd8185611653565b93506116e883611664565b8060005b8381101561171957815161170088826116a3565b975061170b836116bb565b9250506001810190506116ec565b5085935050505092915050565b6000602082019050818103600083015261174081846116c8565b905092915050565b60008115159050919050565b61175d81611748565b82525050565b60006020820190506117786000830184611754565b92915050565b600080fd5b6000601f19601f8301169050919050565b7f4e487b7100000000000000000000000000000000000000000000000000000000600052604160045260246000fd5b6117cc82611783565b810181811067ffffffffffffffff821117156117eb576117ea611794565b5b80604052505050565b60006117fe611451565b905061180a82826117c3565b919050565b600067ffffffffffffffff82111561182a57611829611794565b5b602082029050602081019050919050565b600080fd5b600061185361184e8461180f565b6117f4565b905080838252602082019050602084028301858111156118765761187561183b565b5b835b8181101561189f578061188b8882611486565b845260208401935050602081019050611878565b5050509392505050565b600082601f8301126118be576118bd61177e565b5b81356118ce848260208601611840565b91505092915050565b600067ffffffffffffffff8211156118f2576118f1611794565b5b602082029050602081019050919050565b600067ffffffffffffffff82111561191e5761191d611794565b5b602082029050602081019050919050565b600080fd5b60006040828403121561194a5761194961192f565b5b61195460406117f4565b9050600061196484828501611486565b600083015250602061197884828501611486565b60208301525092915050565b600061199761199284611903565b6117f4565b905080838252602082019050604084028301858111156119ba576119b961183b565b5b835b818110156119e357806119cf8882611934565b8452602084019350506040810190506119bc565b5050509392505050565b600082601f830112611a0257611a0161177e565b5b8135611a12848260208601611984565b91505092915050565b6000611a2e611a29846118d7565b6117f4565b90508083825260208201905060208402830185811115611a5157611a5061183b565b5b835b81811015611a9857803567ffffffffffffffff811115611a7657611a7561177e565b5b808601611a8389826119ed565b85526020850194505050602081019050611a53565b5050509392505050565b600082601f830112611ab757611ab661177e565b5b8135611ac7848260208601611a1b565b91505092915050565b600080600060608486031215611ae957611ae861145b565b5b600084013567ffffffffffffffff811115611b0757611b06611460565b5b611b13868287016118a9565b935050602084013567ffffffffffffffff811115611b3457611b33611460565b5b611b4086828701611aa2565b925050604084013567ffffffffffffffff811115611b6157611b60611460565b5b611b6d868287016118a9565b9150509250925092565b600081519050919050565b600082825260208201905092915050565b6000819050602082019050919050565b611bac816114f2565b82525050565b608082016000820151611bc86000850182611594565b506020820151611bdb6020850182611594565b506040820151611bee6040850182611594565b506060820151611c016060850182611ba3565b50505050565b6000611c138383611bb2565b60808301905092915050565b6000602082019050919050565b6000611c3782611b77565b611c418185611b82565b9350611c4c83611b93565b8060005b83811015611c7d578151611c648882611c07565b9750611c6f83611c1f565b925050600181019050611c50565b5085935050505092915050565b60006020820190508181036000830152611ca48184611c2c565b905092915050565b600067ffffffffffffffff821115611cc757611cc6611794565b5b602082029050602081019050919050565b6000611ceb611ce684611cac565b6117f4565b90508083825260208201905060208402830185811115611d0e57611d0d61183b565b5b835b81811015611d375780611d238882611513565b845260208401935050602081019050611d10565b5050509392505050565b600082601f830112611d5657611d5561177e565b5b8135611d66848260208601611cd8565b91505092915050565b600080600060608486031215611d8857611d8761145b565b5b600084013567ffffffffffffffff811115611da657611da5611460565b5b611db2868287016118a9565b935050602084013567ffffffffffffffff811115611dd357611dd2611460565b5b611ddf86828701611d41565b9250506040611df086828701611486565b9150509250925092565b600073ffffffffffffffffffffffffffffffffffffffff82169050919050565b6000611e2582611dfa565b9050919050565b611e3581611e1a565b82525050565b6000602082019050611e506000830184611e2c565b92915050565b600081519050919050565b600082825260208201905092915050565b6000819050602082019050919050565b6000611e8e8383611ba3565b60208301905092915050565b6000602082019050919050565b6000611eb282611e56565b611ebc8185611e61565b9350611ec783611e72565b8060005b83811015611ef8578151611edf8882611e82565b9750611eea83611e9a565b925050600181019050611ecb565b5085935050505092915050565b60006040820190508181036000830152611f1f81856116c8565b90508181036020830152611f338184611ea7565b90509392505050565b600082825260208201905092915050565b7f4f6e6c792061646d696e2063616e20706572666f726d2074686973206163746960008201527f6f6e000000000000000000000000000000000000000000000000000000000000602082015250565b6000611fa9602283611f3c565b9150611fb482611f4d565b604082019050919050565b60006020820190508181036000830152611fd881611f9c565b9050919050565b7f4e487b7100000000000000000000000000000000000000000000000000000000600052603260045260246000fd5b7f4e487b7100000000000000000000000000000000000000000000000000000000600052601160045260246000fd5b6000612048826114f2565b91507fffffffffffffffffffffffffffffffffffffffffffffffffffffffffffffffff820361207a5761207961200e565b5b600182019050919050565b7f43616e646964617465732061726520616c72656164792066696e616c697a656460008201527f2100000000000000000000000000000000000000000000000000000000000000602082015250565b60006120e1602183611f3c565b91506120ec82612085565b604082019050919050565b60006020820190508181036000830152612110816120d4565b9050919050565b7f566f74696e672063616e6e6f7420737461727420756e74696c2063616e64696460008201527f61746573206172652066696e616c697a65642100000000000000000000000000602082015250565b6000612173603383611f3c565b915061217e82612117565b604082019050919050565b600060208201905081810360008301526121a281612166565b9050919050565b7f4d69736d61746368656420696e707574206c656e677468730000000000000000600082015250565b60006121df601883611f3c565b91506121ea826121a9565b602082019050919050565b6000602082019050818103600083015261220e816121d2565b9050919050565b7f566f7465722068617320616c726561647920766f746564000000000000000000600082015250565b600061224b601783611f3c565b915061225682612215565b602082019050919050565b6000602082019050818103600083015261227a8161223e565b9050919050565b7f496e76616c69642063616e64696461746520696e646578000000000000000000600082015250565b60006122b7601783611f3c565b91506122c282612281565b602082019050919050565b600060208201905081810360008301526122e6816122aa565b9050919050565b600060608201905061230260008301866114c8565b61230f60208301856114c8565b61231c60408301846114c8565b949350505050565b600061232f826114f2565b915061233a836114f2565b92508282019050808211156123525761235161200e565b5b92915050565b6000612363826114f2565b915061236e836114f2565b92508282039050818111156123865761238561200e565b5b9291505056fea2646970667358221220cc70cd7695f8110176330ff12d710cf21390e1eda63dcc09b11ee0852b6765b664736f6c63430008150033","opcodes":"PUSH1 0x80 PUSH1 0x40 MSTORE PUSH1 0x0 PUSH1 0x5 PUSH1 0x14 PUSH2 0x100 EXP DUP2 SLOAD DUP2 PUSH1 0xFF MUL NOT AND SWAP1 DUP4 ISZERO ISZERO MUL OR SWAP1 SSTORE POP CALLVALUE DUP1 ISZERO PUSH2 0x2B JUMPI PUSH1 0x0 DUP1 REVERT JUMPDEST POP CALLER PUSH1 0x5 PUSH1 0x0 PUSH2 0x100 EXP DUP2 SLOAD DUP2 PUSH20 0xFFFFFFFFFFFFFFFFFFFFFFFFFFFFFFFFFFFFFFFF MUL NOT AND SWAP1 DUP4 PUSH20 0xFFFFFFFFFFFFFFFFFFFFFFFFFFFFFFFFFFFFFFFF AND MUL OR SWAP1 SSTORE POP PUSH2 0x23C2 DUP1 PUSH2 0x7C PUSH1 0x0 CODECOPY PUSH1 0x0 RETURN INVALID PUSH1 0x80 PUSH1 0x40 MSTORE CALLVALUE DUP1 ISZERO PUSH2 0x10 JUMPI PUSH1 0x0 DUP1 REVERT JUMPDEST POP PUSH1 0x4 CALLDATASIZE LT PUSH2 0xA9 JUMPI PUSH1 0x0 CALLDATALOAD PUSH1 0xE0 SHR DUP1 PUSH4 0xA5D3157E GT PUSH2 0x71 JUMPI DUP1 PUSH4 0xA5D3157E EQ PUSH2 0x166 JUMPI DUP1 PUSH4 0xADF55ADA EQ PUSH2 0x184 JUMPI DUP1 PUSH4 0xDF15C37E EQ PUSH2 0x1A0 JUMPI DUP1 PUSH4 0xE7D8E8AD EQ PUSH2 0x1BE JUMPI DUP1 PUSH4 0xF851A440 EQ PUSH2 0x1DA JUMPI DUP1 PUSH4 0xFFC97B20 EQ PUSH2 0x1F8 JUMPI PUSH2 0xA9 JUMP JUMPDEST DUP1 PUSH4 0x56FC64F8 EQ PUSH2 0xAE JUMPI DUP1 PUSH4 0x70918CE3 EQ PUSH2 0xDE JUMPI DUP1 PUSH4 0x7718D9F3 EQ PUSH2 0x10E JUMPI DUP1 PUSH4 0x85B923CA EQ PUSH2 0x118 JUMPI DUP1 PUSH4 0x8D4E4083 EQ PUSH2 0x148 JUMPI JUMPDEST PUSH1 0x0 DUP1 REVERT JUMPDEST PUSH2 0xC8 PUSH1 0x4 DUP1 CALLDATASIZE SUB DUP2 ADD SWAP1 PUSH2 0xC3 SWAP2 SWAP1 PUSH2 0x149B JUMP JUMPDEST PUSH2 0x217 JUMP JUMPDEST PUSH1 0x40 MLOAD PUSH2 0xD5 SWAP2 SWAP1 PUSH2 0x14D7 JUMP JUMPDEST PUSH1 0x40 MLOAD DUP1 SWAP2 SUB SWAP1 RETURN JUMPDEST PUSH2 0xF8 PUSH1 0x4 DUP1 CALLDATASIZE SUB DUP2 ADD SWAP1 PUSH2 0xF3 SWAP2 SWAP1 PUSH2 0x1528 JUMP JUMPDEST PUSH2 0x22F JUMP JUMPDEST PUSH1 0x40 MLOAD PUSH2 0x105 SWAP2 SWAP1 PUSH2 0x1626 JUMP JUMPDEST PUSH1 0x40 MLOAD DUP1 SWAP2 SUB SWAP1 RETURN JUMPDEST PUSH2 0x116 PUSH2 0x2AC JUMP JUMPDEST STOP JUMPDEST PUSH2 0x132 PUSH1 0x4 DUP1 CALLDATASIZE SUB DUP2 ADD SWAP1 PUSH2 0x12D SWAP2 SWAP1 PUSH2 0x149B JUMP JUMPDEST PUSH2 0x3F9 JUMP JUMPDEST PUSH1 0x40 MLOAD PUSH2 0x13F SWAP2 SWAP1 PUSH2 0x1726 JUMP JUMPDEST PUSH1 0x40 MLOAD DUP1 SWAP2 SUB SWAP1 RETURN JUMPDEST PUSH2 0x150 PUSH2 0x515 JUMP JUMPDEST PUSH1 0x40 MLOAD PUSH2 0x15D SWAP2 SWAP1 PUSH2 0x1763 JUMP JUMPDEST PUSH1 0x40 MLOAD DUP1 SWAP2 SUB SWAP1 RETURN JUMPDEST PUSH2 0x16E PUSH2 0x528 JUMP JUMPDEST PUSH1 0x40 MLOAD PUSH2 0x17B SWAP2 SWAP1 PUSH2 0x1626 JUMP JUMPDEST PUSH1 0x40 MLOAD DUP1 SWAP2 SUB SWAP1 RETURN JUMPDEST PUSH2 0x19E PUSH1 0x4 DUP1 CALLDATASIZE SUB DUP2 ADD SWAP1 PUSH2 0x199 SWAP2 SWAP1 PUSH2 0x1AD0 JUMP JUMPDEST PUSH2 0x580 JUMP JUMPDEST STOP JUMPDEST PUSH2 0x1A8 PUSH2 0x987 JUMP JUMPDEST PUSH1 0x40 MLOAD PUSH2 0x1B5 SWAP2 SWAP1 PUSH2 0x1C8A JUMP JUMPDEST PUSH1 0x40 MLOAD DUP1 SWAP2 SUB SWAP1 RETURN JUMPDEST PUSH2 0x1D8 PUSH1 0x4 DUP1 CALLDATASIZE SUB DUP2 ADD SWAP1 PUSH2 0x1D3 SWAP2 SWAP1 PUSH2 0x1D6F JUMP JUMPDEST PUSH2 0xB62 JUMP JUMPDEST STOP JUMPDEST PUSH2 0x1E2 PUSH2 0xE44 JUMP JUMPDEST PUSH1 0x40 MLOAD PUSH2 0x1EF SWAP2 SWAP1 PUSH2 0x1E3B JUMP JUMPDEST PUSH1 0x40 MLOAD DUP1 SWAP2 SUB SWAP1 RETURN JUMPDEST PUSH2 0x200 PUSH2 0xE6A JUMP JUMPDEST PUSH1 0x40 MLOAD PUSH2 0x20E SWAP3 SWAP2 SWAP1 PUSH2 0x1F05 JUMP JUMPDEST PUSH1 0x40 MLOAD DUP1 SWAP2 SUB SWAP1 RETURN JUMPDEST PUSH1 0x4 PUSH1 0x20 MSTORE DUP1 PUSH1 0x0 MSTORE PUSH1 0x40 PUSH1 0x0 KECCAK256 PUSH1 0x0 SWAP2 POP SWAP1 POP SLOAD DUP2 JUMP JUMPDEST PUSH1 0x60 PUSH1 0x1 PUSH1 0x0 DUP5 DUP2 MSTORE PUSH1 0x20 ADD SWAP1 DUP2 MSTORE PUSH1 0x20 ADD PUSH1 0x0 KECCAK256 PUSH1 0x0 DUP4 DUP2 MSTORE PUSH1 0x20 ADD SWAP1 DUP2 MSTORE PUSH1 0x20 ADD PUSH1 0x0 KECCAK256 DUP1 SLOAD DUP1 PUSH1 0x20 MUL PUSH1 0x20 ADD PUSH1 0x40 MLOAD SWAP1 DUP2 ADD PUSH1 0x40 MSTORE DUP1 SWAP3 SWAP2 SWAP1 DUP2 DUP2 MSTORE PUSH1 0x20 ADD DUP3 DUP1 SLOAD DUP1 ISZERO PUSH2 0x29F JUMPI PUSH1 0x20 MUL DUP3 ADD SWAP2 SWAP1 PUSH1 0x0 MSTORE PUSH1 0x20 PUSH1 0x0 KECCAK256 SWAP1 JUMPDEST DUP2 SLOAD DUP2 MSTORE PUSH1 0x20 ADD SWAP1 PUSH1 0x1 ADD SWAP1 DUP1 DUP4 GT PUSH2 0x28B JUMPI JUMPDEST POP POP POP POP POP SWAP1 POP SWAP3 SWAP2 POP POP JUMP JUMPDEST PUSH1 0x5 PUSH1 0x0 SWAP1 SLOAD SWAP1 PUSH2 0x100 EXP SWAP1 DIV PUSH20 0xFFFFFFFFFFFFFFFFFFFFFFFFFFFFFFFFFFFFFFFF AND PUSH20 0xFFFFFFFFFFFFFFFFFFFFFFFFFFFFFFFFFFFFFFFF AND CALLER PUSH20 0xFFFFFFFFFFFFFFFFFFFFFFFFFFFFFFFFFFFFFFFF AND EQ PUSH2 0x33C JUMPI PUSH1 0x40 MLOAD PUSH32 0x8C379A000000000000000000000000000000000000000000000000000000000 DUP2 MSTORE PUSH1 0x4 ADD PUSH2 0x333 SWAP1 PUSH2 0x1FBF JUMP JUMPDEST PUSH1 0x40 MLOAD DUP1 SWAP2 SUB SWAP1 REVERT JUMPDEST PUSH1 0x0 JUMPDEST PUSH1 0x3 DUP1 SLOAD SWAP1 POP DUP2 LT ISZERO PUSH2 0x3A1 JUMPI PUSH1 0x0 PUSH1 0x3 DUP3 DUP2 SLOAD DUP2 LT PUSH2 0x362 JUMPI PUSH2 0x361 PUSH2 0x1FDF JUMP JUMPDEST JUMPDEST SWAP1 PUSH1 0x0 MSTORE PUSH1 0x20 PUSH1 0x0 KECCAK256 ADD SLOAD SWAP1 POP PUSH1 0x0 DUP1 DUP3 DUP2 MSTORE PUSH1 0x20 ADD SWAP1 DUP2 MSTORE PUSH1 0x20 ADD PUSH1 0x0 KECCAK256 PUSH1 0x0 PUSH2 0x38D SWAP2 SWAP1 PUSH2 0x136F JUMP JUMPDEST POP DUP1 DUP1 PUSH2 0x399 SWAP1 PUSH2 0x203D JUMP JUMPDEST SWAP2 POP POP PUSH2 0x33F JUMP JUMPDEST POP PUSH1 0x3 PUSH1 0x0 PUSH2 0x3B0 SWAP2 SWAP1 PUSH2 0x1393 JUMP JUMPDEST PUSH1 0x0 PUSH1 0x5 PUSH1 0x14 PUSH2 0x100 EXP DUP2 SLOAD DUP2 PUSH1 0xFF MUL NOT AND SWAP1 DUP4 ISZERO ISZERO MUL OR SWAP1 SSTORE POP PUSH32 0x800BDAA40887CCFD790FDC79F47CF3ACBB2A1ECF28B3BCCB67E3719009C1BAB2 PUSH1 0x40 MLOAD PUSH1 0x40 MLOAD DUP1 SWAP2 SUB SWAP1 LOG1 JUMP JUMPDEST PUSH1 0x60 PUSH1 0x0 DUP1 PUSH1 0x0 DUP5 DUP2 MSTORE PUSH1 0x20 ADD SWAP1 DUP2 MSTORE PUSH1 0x20 ADD PUSH1 0x0 KECCAK256 SWAP1 POP PUSH1 0x0 DUP2 DUP1 SLOAD SWAP1 POP PUSH8 0xFFFFFFFFFFFFFFFF DUP2 GT ISZERO PUSH2 0x431 JUMPI PUSH2 0x430 PUSH2 0x1794 JUMP JUMPDEST JUMPDEST PUSH1 0x40 MLOAD SWAP1 DUP1 DUP3 MSTORE DUP1 PUSH1 0x20 MUL PUSH1 0x20 ADD DUP3 ADD PUSH1 0x40 MSTORE DUP1 ISZERO PUSH2 0x46A JUMPI DUP2 PUSH1 0x20 ADD JUMPDEST PUSH2 0x457 PUSH2 0x13B4 JUMP JUMPDEST DUP2 MSTORE PUSH1 0x20 ADD SWAP1 PUSH1 0x1 SWAP1 SUB SWAP1 DUP2 PUSH2 0x44F JUMPI SWAP1 POP JUMPDEST POP SWAP1 POP PUSH1 0x0 JUMPDEST DUP3 DUP1 SLOAD SWAP1 POP DUP2 LT ISZERO PUSH2 0x50A JUMPI PUSH1 0x40 MLOAD DUP1 PUSH1 0x40 ADD PUSH1 0x40 MSTORE DUP1 DUP5 DUP4 DUP2 SLOAD DUP2 LT PUSH2 0x49A JUMPI PUSH2 0x499 PUSH2 0x1FDF JUMP JUMPDEST JUMPDEST SWAP1 PUSH1 0x0 MSTORE PUSH1 0x20 PUSH1 0x0 KECCAK256 SWAP1 PUSH1 0x3 MUL ADD PUSH1 0x0 ADD SLOAD DUP2 MSTORE PUSH1 0x20 ADD DUP5 DUP4 DUP2 SLOAD DUP2 LT PUSH2 0x4C4 JUMPI PUSH2 0x4C3 PUSH2 0x1FDF JUMP JUMPDEST JUMPDEST SWAP1 PUSH1 0x0 MSTORE PUSH1 0x20 PUSH1 0x0 KECCAK256 SWAP1 PUSH1 0x3 MUL ADD PUSH1 0x1 ADD SLOAD DUP2 MSTORE POP DUP3 DUP3 DUP2 MLOAD DUP2 LT PUSH2 0x4EC JUMPI PUSH2 0x4EB PUSH2 0x1FDF JUMP JUMPDEST JUMPDEST PUSH1 0x20 MUL PUSH1 0x20 ADD ADD DUP2 SWAP1 MSTORE POP DUP1 DUP1 PUSH2 0x502 SWAP1 PUSH2 0x203D JUMP JUMPDEST SWAP2 POP POP PUSH2 0x470 JUMP JUMPDEST POP DUP1 SWAP3 POP POP POP SWAP2 SWAP1 POP JUMP JUMPDEST PUSH1 0x5 PUSH1 0x14 SWAP1 SLOAD SWAP1 PUSH2 0x100 EXP SWAP1 DIV PUSH1 0xFF AND DUP2 JUMP JUMPDEST PUSH1 0x60 PUSH1 0x3 DUP1 SLOAD DUP1 PUSH1 0x20 MUL PUSH1 0x20 ADD PUSH1 0x40 MLOAD SWAP1 DUP2 ADD PUSH1 0x40 MSTORE DUP1 SWAP3 SWAP2 SWAP1 DUP2 DUP2 MSTORE PUSH1 0x20 ADD DUP3 DUP1 SLOAD DUP1 ISZERO PUSH2 0x576 JUMPI PUSH1 0x20 MUL DUP3 ADD SWAP2 SWAP1 PUSH1 0x0 MSTORE PUSH1 0x20 PUSH1 0x0 KECCAK256 SWAP1 JUMPDEST DUP2 SLOAD DUP2 MSTORE PUSH1 0x20 ADD SWAP1 PUSH1 0x1 ADD SWAP1 DUP1 DUP4 GT PUSH2 0x562 JUMPI JUMPDEST POP POP POP POP POP SWAP1 POP SWAP1 JUMP JUMPDEST PUSH1 0x5 PUSH1 0x0 SWAP1 SLOAD SWAP1 PUSH2 0x100 EXP SWAP1 DIV PUSH20 0xFFFFFFFFFFFFFFFFFFFFFFFFFFFFFFFFFFFFFFFF AND PUSH20 0xFFFFFFFFFFFFFFFFFFFFFFFFFFFFFFFFFFFFFFFF AND CALLER PUSH20 0xFFFFFFFFFFFFFFFFFFFFFFFFFFFFFFFFFFFFFFFF AND EQ PUSH2 0x610 JUMPI PUSH1 0x40 MLOAD PUSH32 0x8C379A000000000000000000000000000000000000000000000000000000000 DUP2 MSTORE PUSH1 0x4 ADD PUSH2 0x607 SWAP1 PUSH2 0x1FBF JUMP JUMPDEST PUSH1 0x40 MLOAD DUP1 SWAP2 SUB SWAP1 REVERT JUMPDEST PUSH1 0x5 PUSH1 0x14 SWAP1 SLOAD SWAP1 PUSH2 0x100 EXP SWAP1 DIV PUSH1 0xFF AND ISZERO PUSH2 0x660 JUMPI PUSH1 0x40 MLOAD PUSH32 0x8C379A000000000000000000000000000000000000000000000000000000000 DUP2 MSTORE PUSH1 0x4 ADD PUSH2 0x657 SWAP1 PUSH2 0x20F7 JUMP JUMPDEST PUSH1 0x40 MLOAD DUP1 SWAP2 SUB SWAP1 REVERT JUMPDEST PUSH1 0x3 PUSH1 0x0 PUSH2 0x66E SWAP2 SWAP1 PUSH2 0x1393 JUMP JUMPDEST PUSH1 0x0 JUMPDEST DUP4 MLOAD DUP2 LT ISZERO PUSH2 0x93A JUMPI PUSH1 0x0 DUP1 PUSH1 0x0 DUP7 DUP5 DUP2 MLOAD DUP2 LT PUSH2 0x692 JUMPI PUSH2 0x691 PUSH2 0x1FDF JUMP JUMPDEST JUMPDEST PUSH1 0x20 MUL PUSH1 0x20 ADD ADD MLOAD DUP2 MSTORE PUSH1 0x20 ADD SWAP1 DUP2 MSTORE PUSH1 0x20 ADD PUSH1 0x0 KECCAK256 DUP1 SLOAD SWAP1 POP SUB PUSH2 0x6F5 JUMPI PUSH1 0x3 DUP5 DUP3 DUP2 MLOAD DUP2 LT PUSH2 0x6C6 JUMPI PUSH2 0x6C5 PUSH2 0x1FDF JUMP JUMPDEST JUMPDEST PUSH1 0x20 MUL PUSH1 0x20 ADD ADD MLOAD SWAP1 DUP1 PUSH1 0x1 DUP2 SLOAD ADD DUP1 DUP3 SSTORE DUP1 SWAP2 POP POP PUSH1 0x1 SWAP1 SUB SWAP1 PUSH1 0x0 MSTORE PUSH1 0x20 PUSH1 0x0 KECCAK256 ADD PUSH1 0x0 SWAP1 SWAP2 SWAP1 SWAP2 SWAP1 SWAP2 POP SSTORE JUMPDEST PUSH1 0x0 DUP1 DUP6 DUP4 DUP2 MLOAD DUP2 LT PUSH2 0x70B JUMPI PUSH2 0x70A PUSH2 0x1FDF JUMP JUMPDEST JUMPDEST PUSH1 0x20 MUL PUSH1 0x20 ADD ADD MLOAD DUP2 MSTORE PUSH1 0x20 ADD SWAP1 DUP2 MSTORE PUSH1 0x20 ADD PUSH1 0x0 KECCAK256 PUSH1 0x0 PUSH2 0x72D SWAP2 SWAP1 PUSH2 0x136F JUMP JUMPDEST PUSH1 0x0 JUMPDEST DUP4 DUP3 DUP2 MLOAD DUP2 LT PUSH2 0x743 JUMPI PUSH2 0x742 PUSH2 0x1FDF JUMP JUMPDEST JUMPDEST PUSH1 0x20 MUL PUSH1 0x20 ADD ADD MLOAD MLOAD DUP2 LT ISZERO PUSH2 0x8B1 JUMPI PUSH1 0x0 DUP1 DUP7 DUP5 DUP2 MLOAD DUP2 LT PUSH2 0x769 JUMPI PUSH2 0x768 PUSH2 0x1FDF JUMP JUMPDEST JUMPDEST PUSH1 0x20 MUL PUSH1 0x20 ADD ADD MLOAD DUP2 MSTORE PUSH1 0x20 ADD SWAP1 DUP2 MSTORE PUSH1 0x20 ADD PUSH1 0x0 KECCAK256 PUSH1 0x40 MLOAD DUP1 PUSH1 0x60 ADD PUSH1 0x40 MSTORE DUP1 DUP7 DUP6 DUP2 MLOAD DUP2 LT PUSH2 0x79D JUMPI PUSH2 0x79C PUSH2 0x1FDF JUMP JUMPDEST JUMPDEST PUSH1 0x20 MUL PUSH1 0x20 ADD ADD MLOAD DUP5 DUP2 MLOAD DUP2 LT PUSH2 0x7B7 JUMPI PUSH2 0x7B6 PUSH2 0x1FDF JUMP JUMPDEST JUMPDEST PUSH1 0x20 MUL PUSH1 0x20 ADD ADD MLOAD PUSH1 0x0 ADD MLOAD DUP2 MSTORE PUSH1 0x20 ADD DUP7 DUP6 DUP2 MLOAD DUP2 LT PUSH2 0x7DB JUMPI PUSH2 0x7DA PUSH2 0x1FDF JUMP JUMPDEST JUMPDEST PUSH1 0x20 MUL PUSH1 0x20 ADD ADD MLOAD DUP5 DUP2 MLOAD DUP2 LT PUSH2 0x7F5 JUMPI PUSH2 0x7F4 PUSH2 0x1FDF JUMP JUMPDEST JUMPDEST PUSH1 0x20 MUL PUSH1 0x20 ADD ADD MLOAD PUSH1 0x20 ADD MLOAD DUP2 MSTORE PUSH1 0x20 ADD PUSH1 0x0 DUP2 MSTORE POP SWAP1 DUP1 PUSH1 0x1 DUP2 SLOAD ADD DUP1 DUP3 SSTORE DUP1 SWAP2 POP POP PUSH1 0x1 SWAP1 SUB SWAP1 PUSH1 0x0 MSTORE PUSH1 0x20 PUSH1 0x0 KECCAK256 SWAP1 PUSH1 0x3 MUL ADD PUSH1 0x0 SWAP1 SWAP2 SWAP1 SWAP2 SWAP1 SWAP2 POP PUSH1 0x0 DUP3 ADD MLOAD DUP2 PUSH1 0x0 ADD SSTORE PUSH1 0x20 DUP3 ADD MLOAD DUP2 PUSH1 0x1 ADD SSTORE PUSH1 0x40 DUP3 ADD MLOAD DUP2 PUSH1 0x2 ADD SSTORE POP POP PUSH1 0x1 PUSH1 0x0 DUP7 DUP5 DUP2 MLOAD DUP2 LT PUSH2 0x86B JUMPI PUSH2 0x86A PUSH2 0x1FDF JUMP JUMPDEST JUMPDEST PUSH1 0x20 MUL PUSH1 0x20 ADD ADD MLOAD DUP2 MSTORE PUSH1 0x20 ADD SWAP1 DUP2 MSTORE PUSH1 0x20 ADD PUSH1 0x0 KECCAK256 PUSH1 0x0 DUP3 DUP2 MSTORE PUSH1 0x20 ADD SWAP1 DUP2 MSTORE PUSH1 0x20 ADD PUSH1 0x0 KECCAK256 PUSH1 0x0 PUSH2 0x89E SWAP2 SWAP1 PUSH2 0x1393 JUMP JUMPDEST DUP1 DUP1 PUSH2 0x8A9 SWAP1 PUSH2 0x203D JUMP JUMPDEST SWAP2 POP POP PUSH2 0x730 JUMP JUMPDEST POP PUSH2 0x8D5 DUP5 DUP3 DUP2 MLOAD DUP2 LT PUSH2 0x8C8 JUMPI PUSH2 0x8C7 PUSH2 0x1FDF JUMP JUMPDEST JUMPDEST PUSH1 0x20 MUL PUSH1 0x20 ADD ADD MLOAD PUSH2 0x10CA JUMP JUMPDEST ISZERO PUSH2 0x927 JUMPI DUP2 DUP2 DUP2 MLOAD DUP2 LT PUSH2 0x8ED JUMPI PUSH2 0x8EC PUSH2 0x1FDF JUMP JUMPDEST JUMPDEST PUSH1 0x20 MUL PUSH1 0x20 ADD ADD MLOAD PUSH1 0x4 PUSH1 0x0 DUP7 DUP5 DUP2 MLOAD DUP2 LT PUSH2 0x90C JUMPI PUSH2 0x90B PUSH2 0x1FDF JUMP JUMPDEST JUMPDEST PUSH1 0x20 MUL PUSH1 0x20 ADD ADD MLOAD DUP2 MSTORE PUSH1 0x20 ADD SWAP1 DUP2 MSTORE PUSH1 0x20 ADD PUSH1 0x0 KECCAK256 DUP2 SWAP1 SSTORE POP JUMPDEST DUP1 DUP1 PUSH2 0x932 SWAP1 PUSH2 0x203D JUMP JUMPDEST SWAP2 POP POP PUSH2 0x671 JUMP JUMPDEST POP PUSH1 0x1 PUSH1 0x5 PUSH1 0x14 PUSH2 0x100 EXP DUP2 SLOAD DUP2 PUSH1 0xFF MUL NOT AND SWAP1 DUP4 ISZERO ISZERO MUL OR SWAP1 SSTORE POP PUSH32 0x86825B43264CA968E676C45C8E05CC56965FF5938ED49DCF636C61ACB7070BD7 PUSH1 0x40 MLOAD PUSH1 0x40 MLOAD DUP1 SWAP2 SUB SWAP1 LOG1 POP POP POP JUMP JUMPDEST PUSH1 0x60 PUSH1 0x0 PUSH1 0x3 DUP1 SLOAD SWAP1 POP SWAP1 POP PUSH1 0x0 DUP2 PUSH8 0xFFFFFFFFFFFFFFFF DUP2 GT ISZERO PUSH2 0x9AF JUMPI PUSH2 0x9AE PUSH2 0x1794 JUMP JUMPDEST JUMPDEST PUSH1 0x40 MLOAD SWAP1 DUP1 DUP3 MSTORE DUP1 PUSH1 0x20 MUL PUSH1 0x20 ADD DUP3 ADD PUSH1 0x40 MSTORE DUP1 ISZERO PUSH2 0x9E8 JUMPI DUP2 PUSH1 0x20 ADD JUMPDEST PUSH2 0x9D5 PUSH2 0x13D4 JUMP JUMPDEST DUP2 MSTORE PUSH1 0x20 ADD SWAP1 PUSH1 0x1 SWAP1 SUB SWAP1 DUP2 PUSH2 0x9CD JUMPI SWAP1 POP JUMPDEST POP SWAP1 POP PUSH1 0x0 JUMPDEST DUP3 DUP2 LT ISZERO PUSH2 0xB59 JUMPI PUSH1 0x0 PUSH1 0x3 DUP3 DUP2 SLOAD DUP2 LT PUSH2 0xA0C JUMPI PUSH2 0xA0B PUSH2 0x1FDF JUMP JUMPDEST JUMPDEST SWAP1 PUSH1 0x0 MSTORE PUSH1 0x20 PUSH1 0x0 KECCAK256 ADD SLOAD SWAP1 POP PUSH1 0x0 DUP1 PUSH1 0x0 DUP4 DUP2 MSTORE PUSH1 0x20 ADD SWAP1 DUP2 MSTORE PUSH1 0x20 ADD PUSH1 0x0 KECCAK256 SWAP1 POP PUSH1 0x0 DUP1 PUSH1 0x0 DUP1 JUMPDEST DUP5 DUP1 SLOAD SWAP1 POP DUP2 LT ISZERO PUSH2 0xAB9 JUMPI DUP2 ISZERO DUP1 PUSH2 0xA72 JUMPI POP DUP4 DUP6 DUP3 DUP2 SLOAD DUP2 LT PUSH2 0xA5E JUMPI PUSH2 0xA5D PUSH2 0x1FDF JUMP JUMPDEST JUMPDEST SWAP1 PUSH1 0x0 MSTORE PUSH1 0x20 PUSH1 0x0 KECCAK256 SWAP1 PUSH1 0x3 MUL ADD PUSH1 0x2 ADD SLOAD GT JUMPDEST ISZERO PUSH2 0xAA6 JUMPI DUP5 DUP2 DUP2 SLOAD DUP2 LT PUSH2 0xA8A JUMPI PUSH2 0xA89 PUSH2 0x1FDF JUMP JUMPDEST JUMPDEST SWAP1 PUSH1 0x0 MSTORE PUSH1 0x20 PUSH1 0x0 KECCAK256 SWAP1 PUSH1 0x3 MUL ADD PUSH1 0x2 ADD SLOAD SWAP4 POP DUP1 SWAP3 POP PUSH1 0x1 SWAP2 POP JUMPDEST DUP1 DUP1 PUSH2 0xAB1 SWAP1 PUSH2 0x203D JUMP JUMPDEST SWAP2 POP POP PUSH2 0xA36 JUMP JUMPDEST POP PUSH1 0x40 MLOAD DUP1 PUSH1 0x80 ADD PUSH1 0x40 MSTORE DUP1 DUP7 DUP2 MSTORE PUSH1 0x20 ADD DUP6 DUP5 DUP2 SLOAD DUP2 LT PUSH2 0xADE JUMPI PUSH2 0xADD PUSH2 0x1FDF JUMP JUMPDEST JUMPDEST SWAP1 PUSH1 0x0 MSTORE PUSH1 0x20 PUSH1 0x0 KECCAK256 SWAP1 PUSH1 0x3 MUL ADD PUSH1 0x0 ADD SLOAD DUP2 MSTORE PUSH1 0x20 ADD DUP6 DUP5 DUP2 SLOAD DUP2 LT PUSH2 0xB08 JUMPI PUSH2 0xB07 PUSH2 0x1FDF JUMP JUMPDEST JUMPDEST SWAP1 PUSH1 0x0 MSTORE PUSH1 0x20 PUSH1 0x0 KECCAK256 SWAP1 PUSH1 0x3 MUL ADD PUSH1 0x1 ADD SLOAD DUP2 MSTORE PUSH1 0x20 ADD DUP5 DUP2 MSTORE POP DUP8 DUP8 DUP2 MLOAD DUP2 LT PUSH2 0xB36 JUMPI PUSH2 0xB35 PUSH2 0x1FDF JUMP JUMPDEST JUMPDEST PUSH1 0x20 MUL PUSH1 0x20 ADD ADD DUP2 SWAP1 MSTORE POP POP POP POP POP POP DUP1 DUP1 PUSH2 0xB51 SWAP1 PUSH2 0x203D JUMP JUMPDEST SWAP2 POP POP PUSH2 0x9EE JUMP JUMPDEST POP DUP1 SWAP3 POP POP POP SWAP1 JUMP JUMPDEST PUSH1 0x5 PUSH1 0x14 SWAP1 SLOAD SWAP1 PUSH2 0x100 EXP SWAP1 DIV PUSH1 0xFF AND PUSH2 0xBB1 JUMPI PUSH1 0x40 MLOAD PUSH32 0x8C379A000000000000000000000000000000000000000000000000000000000 DUP2 MSTORE PUSH1 0x4 ADD PUSH2 0xBA8 SWAP1 PUSH2 0x2189 JUMP JUMPDEST PUSH1 0x40 MLOAD DUP1 SWAP2 SUB SWAP1 REVERT JUMPDEST DUP2 MLOAD DUP4 MLOAD EQ PUSH2 0xBF5 JUMPI PUSH1 0x40 MLOAD PUSH32 0x8C379A000000000000000000000000000000000000000000000000000000000 DUP2 MSTORE PUSH1 0x4 ADD PUSH2 0xBEC SWAP1 PUSH2 0x21F5 JUMP JUMPDEST PUSH1 0x40 MLOAD DUP1 SWAP2 SUB SWAP1 REVERT JUMPDEST PUSH1 0x2 PUSH1 0x0 DUP3 DUP2 MSTORE PUSH1 0x20 ADD SWAP1 DUP2 MSTORE PUSH1 0x20 ADD PUSH1 0x0 KECCAK256 PUSH1 0x0 SWAP1 SLOAD SWAP1 PUSH2 0x100 EXP SWAP1 DIV PUSH1 0xFF AND ISZERO PUSH2 0xC56 JUMPI PUSH1 0x40 MLOAD PUSH32 0x8C379A000000000000000000000000000000000000000000000000000000000 DUP2 MSTORE PUSH1 0x4 ADD PUSH2 0xC4D SWAP1 PUSH2 0x2261 JUMP JUMPDEST PUSH1 0x40 MLOAD DUP1 SWAP2 SUB SWAP1 REVERT JUMPDEST PUSH1 0x1 PUSH1 0x2 PUSH1 0x0 DUP4 DUP2 MSTORE PUSH1 0x20 ADD SWAP1 DUP2 MSTORE PUSH1 0x20 ADD PUSH1 0x0 KECCAK256 PUSH1 0x0 PUSH2 0x100 EXP DUP2 SLOAD DUP2 PUSH1 0xFF MUL NOT AND SWAP1 DUP4 ISZERO ISZERO MUL OR SWAP1 SSTORE POP PUSH1 0x0 JUMPDEST DUP4 MLOAD DUP2 LT ISZERO PUSH2 0xE3E JUMPI PUSH1 0x0 DUP5 DUP3 DUP2 MLOAD DUP2 LT PUSH2 0xCA3 JUMPI PUSH2 0xCA2 PUSH2 0x1FDF JUMP JUMPDEST JUMPDEST PUSH1 0x20 MUL PUSH1 0x20 ADD ADD MLOAD SWAP1 POP PUSH1 0x0 DUP5 DUP4 DUP2 MLOAD DUP2 LT PUSH2 0xCC2 JUMPI PUSH2 0xCC1 PUSH2 0x1FDF JUMP JUMPDEST JUMPDEST PUSH1 0x20 MUL PUSH1 0x20 ADD ADD MLOAD SWAP1 POP PUSH1 0x0 DUP1 DUP4 DUP2 MSTORE PUSH1 0x20 ADD SWAP1 DUP2 MSTORE PUSH1 0x20 ADD PUSH1 0x0 KECCAK256 DUP1 SLOAD SWAP1 POP DUP2 LT PUSH2 0xD23 JUMPI PUSH1 0x40 MLOAD PUSH32 0x8C379A000000000000000000000000000000000000000000000000000000000 DUP2 MSTORE PUSH1 0x4 ADD PUSH2 0xD1A SWAP1 PUSH2 0x22CD JUMP JUMPDEST PUSH1 0x40 MLOAD DUP1 SWAP2 SUB SWAP1 REVERT JUMPDEST PUSH1 0x0 DUP1 DUP4 DUP2 MSTORE PUSH1 0x20 ADD SWAP1 DUP2 MSTORE PUSH1 0x20 ADD PUSH1 0x0 KECCAK256 DUP2 DUP2 SLOAD DUP2 LT PUSH2 0xD47 JUMPI PUSH2 0xD46 PUSH2 0x1FDF JUMP JUMPDEST JUMPDEST SWAP1 PUSH1 0x0 MSTORE PUSH1 0x20 PUSH1 0x0 KECCAK256 SWAP1 PUSH1 0x3 MUL ADD PUSH1 0x2 ADD PUSH1 0x0 DUP2 SLOAD DUP1 SWAP3 SWAP2 SWAP1 PUSH2 0xD69 SWAP1 PUSH2 0x203D JUMP JUMPDEST SWAP2 SWAP1 POP SSTORE POP PUSH1 0x1 PUSH1 0x0 DUP4 DUP2 MSTORE PUSH1 0x20 ADD SWAP1 DUP2 MSTORE PUSH1 0x20 ADD PUSH1 0x0 KECCAK256 PUSH1 0x0 DUP3 DUP2 MSTORE PUSH1 0x20 ADD SWAP1 DUP2 MSTORE PUSH1 0x20 ADD PUSH1 0x0 KECCAK256 DUP5 SWAP1 DUP1 PUSH1 0x1 DUP2 SLOAD ADD DUP1 DUP3 SSTORE DUP1 SWAP2 POP POP PUSH1 0x1 SWAP1 SUB SWAP1 PUSH1 0x0 MSTORE PUSH1 0x20 PUSH1 0x0 KECCAK256 ADD PUSH1 0x0 SWAP1 SWAP2 SWAP1 SWAP2 SWAP1 SWAP2 POP SSTORE PUSH32 0x178E76FAA844F1C429CBE43BB805A70530F990EF2ACC87F8F626AC80FF484909 DUP3 PUSH1 0x0 DUP1 DUP6 DUP2 MSTORE PUSH1 0x20 ADD SWAP1 DUP2 MSTORE PUSH1 0x20 ADD PUSH1 0x0 KECCAK256 DUP4 DUP2 SLOAD DUP2 LT PUSH2 0xDFF JUMPI PUSH2 0xDFE PUSH2 0x1FDF JUMP JUMPDEST JUMPDEST SWAP1 PUSH1 0x0 MSTORE PUSH1 0x20 PUSH1 0x0 KECCAK256 SWAP1 PUSH1 0x3 MUL ADD PUSH1 0x0 ADD SLOAD DUP7 PUSH1 0x40 MLOAD PUSH2 0xE21 SWAP4 SWAP3 SWAP2 SWAP1 PUSH2 0x22ED JUMP JUMPDEST PUSH1 0x40 MLOAD DUP1 SWAP2 SUB SWAP1 LOG1 POP POP DUP1 DUP1 PUSH2 0xE36 SWAP1 PUSH2 0x203D JUMP JUMPDEST SWAP2 POP POP PUSH2 0xC85 JUMP JUMPDEST POP POP POP POP JUMP JUMPDEST PUSH1 0x5 PUSH1 0x0 SWAP1 SLOAD SWAP1 PUSH2 0x100 EXP SWAP1 DIV PUSH20 0xFFFFFFFFFFFFFFFFFFFFFFFFFFFFFFFFFFFFFFFF AND DUP2 JUMP JUMPDEST PUSH1 0x60 DUP1 PUSH1 0x0 DUP1 JUMPDEST PUSH1 0x3 DUP1 SLOAD SWAP1 POP DUP2 LT ISZERO PUSH2 0xED2 JUMPI PUSH1 0x0 DUP1 PUSH1 0x3 DUP4 DUP2 SLOAD DUP2 LT PUSH2 0xE95 JUMPI PUSH2 0xE94 PUSH2 0x1FDF JUMP JUMPDEST JUMPDEST SWAP1 PUSH1 0x0 MSTORE PUSH1 0x20 PUSH1 0x0 KECCAK256 ADD SLOAD DUP2 MSTORE PUSH1 0x20 ADD SWAP1 DUP2 MSTORE PUSH1 0x20 ADD PUSH1 0x0 KECCAK256 DUP1 SLOAD SWAP1 POP DUP3 PUSH2 0xEBD SWAP2 SWAP1 PUSH2 0x2324 JUMP JUMPDEST SWAP2 POP DUP1 DUP1 PUSH2 0xECA SWAP1 PUSH2 0x203D JUMP JUMPDEST SWAP2 POP POP PUSH2 0xE71 JUMP JUMPDEST POP PUSH1 0x0 DUP2 PUSH8 0xFFFFFFFFFFFFFFFF DUP2 GT ISZERO PUSH2 0xEEF JUMPI PUSH2 0xEEE PUSH2 0x1794 JUMP JUMPDEST JUMPDEST PUSH1 0x40 MLOAD SWAP1 DUP1 DUP3 MSTORE DUP1 PUSH1 0x20 MUL PUSH1 0x20 ADD DUP3 ADD PUSH1 0x40 MSTORE DUP1 ISZERO PUSH2 0xF28 JUMPI DUP2 PUSH1 0x20 ADD JUMPDEST PUSH2 0xF15 PUSH2 0x13B4 JUMP JUMPDEST DUP2 MSTORE PUSH1 0x20 ADD SWAP1 PUSH1 0x1 SWAP1 SUB SWAP1 DUP2 PUSH2 0xF0D JUMPI SWAP1 POP JUMPDEST POP SWAP1 POP PUSH1 0x0 DUP3 PUSH8 0xFFFFFFFFFFFFFFFF DUP2 GT ISZERO PUSH2 0xF47 JUMPI PUSH2 0xF46 PUSH2 0x1794 JUMP JUMPDEST JUMPDEST PUSH1 0x40 MLOAD SWAP1 DUP1 DUP3 MSTORE DUP1 PUSH1 0x20 MUL PUSH1 0x20 ADD DUP3 ADD PUSH1 0x40 MSTORE DUP1 ISZERO PUSH2 0xF75 JUMPI DUP2 PUSH1 0x20 ADD PUSH1 0x20 DUP3 MUL DUP1 CALLDATASIZE DUP4 CALLDATACOPY DUP1 DUP3 ADD SWAP2 POP POP SWAP1 POP JUMPDEST POP SWAP1 POP PUSH1 0x0 DUP1 JUMPDEST PUSH1 0x3 DUP1 SLOAD SWAP1 POP DUP2 LT ISZERO PUSH2 0x10BB JUMPI PUSH1 0x0 DUP1 PUSH1 0x0 PUSH1 0x3 DUP5 DUP2 SLOAD DUP2 LT PUSH2 0xFA2 JUMPI PUSH2 0xFA1 PUSH2 0x1FDF JUMP JUMPDEST JUMPDEST SWAP1 PUSH1 0x0 MSTORE PUSH1 0x20 PUSH1 0x0 KECCAK256 ADD SLOAD DUP2 MSTORE PUSH1 0x20 ADD SWAP1 DUP2 MSTORE PUSH1 0x20 ADD PUSH1 0x0 KECCAK256 SWAP1 POP PUSH1 0x0 JUMPDEST DUP2 DUP1 SLOAD SWAP1 POP DUP2 LT ISZERO PUSH2 0x10A6 JUMPI PUSH1 0x40 MLOAD DUP1 PUSH1 0x40 ADD PUSH1 0x40 MSTORE DUP1 DUP4 DUP4 DUP2 SLOAD DUP2 LT PUSH2 0xFEA JUMPI PUSH2 0xFE9 PUSH2 0x1FDF JUMP JUMPDEST JUMPDEST SWAP1 PUSH1 0x0 MSTORE PUSH1 0x20 PUSH1 0x0 KECCAK256 SWAP1 PUSH1 0x3 MUL ADD PUSH1 0x0 ADD SLOAD DUP2 MSTORE PUSH1 0x20 ADD DUP4 DUP4 DUP2 SLOAD DUP2 LT PUSH2 0x1014 JUMPI PUSH2 0x1013 PUSH2 0x1FDF JUMP JUMPDEST JUMPDEST SWAP1 PUSH1 0x0 MSTORE PUSH1 0x20 PUSH1 0x0 KECCAK256 SWAP1 PUSH1 0x3 MUL ADD PUSH1 0x1 ADD SLOAD DUP2 MSTORE POP DUP7 DUP6 DUP2 MLOAD DUP2 LT PUSH2 0x103C JUMPI PUSH2 0x103B PUSH2 0x1FDF JUMP JUMPDEST JUMPDEST PUSH1 0x20 MUL PUSH1 0x20 ADD ADD DUP2 SWAP1 MSTORE POP DUP2 DUP2 DUP2 SLOAD DUP2 LT PUSH2 0x105A JUMPI PUSH2 0x1059 PUSH2 0x1FDF JUMP JUMPDEST JUMPDEST SWAP1 PUSH1 0x0 MSTORE PUSH1 0x20 PUSH1 0x0 KECCAK256 SWAP1 PUSH1 0x3 MUL ADD PUSH1 0x2 ADD SLOAD DUP6 DUP6 DUP2 MLOAD DUP2 LT PUSH2 0x107F JUMPI PUSH2 0x107E PUSH2 0x1FDF JUMP JUMPDEST JUMPDEST PUSH1 0x20 MUL PUSH1 0x20 ADD ADD DUP2 DUP2 MSTORE POP POP DUP4 DUP1 PUSH1 0x1 ADD SWAP5 POP POP DUP1 DUP1 PUSH2 0x109E SWAP1 PUSH2 0x203D JUMP JUMPDEST SWAP2 POP POP PUSH2 0xFC0 JUMP JUMPDEST POP POP DUP1 DUP1 PUSH2 0x10B3 SWAP1 PUSH2 0x203D JUMP JUMPDEST SWAP2 POP POP PUSH2 0xF7C JUMP JUMPDEST POP DUP3 DUP3 SWAP6 POP SWAP6 POP POP POP POP POP SWAP1 SWAP2 JUMP JUMPDEST PUSH1 0x0 DUP1 PUSH2 0x10D6 DUP4 PUSH2 0x1239 JUMP JUMPDEST SWAP1 POP PUSH1 0x0 DUP2 SWAP1 POP PUSH1 0x0 PUSH1 0x40 MLOAD DUP1 PUSH1 0x40 ADD PUSH1 0x40 MSTORE DUP1 PUSH1 0xC DUP2 MSTORE PUSH1 0x20 ADD PUSH32 0x426F617264204D656D6265720000000000000000000000000000000000000000 DUP2 MSTORE POP SWAP1 POP DUP1 MLOAD DUP3 MLOAD LT ISZERO PUSH2 0x112D JUMPI PUSH1 0x0 SWAP4 POP POP POP POP PUSH2 0x1234 JUMP JUMPDEST PUSH1 0x0 JUMPDEST DUP2 MLOAD DUP4 MLOAD PUSH2 0x113E SWAP2 SWAP1 PUSH2 0x2358 JUMP JUMPDEST DUP2 GT PUSH2 0x122B JUMPI PUSH1 0x0 PUSH1 0x1 SWAP1 POP PUSH1 0x0 JUMPDEST DUP4 MLOAD DUP2 LT ISZERO PUSH2 0x1202 JUMPI DUP4 DUP2 DUP2 MLOAD DUP2 LT PUSH2 0x1169 JUMPI PUSH2 0x1168 PUSH2 0x1FDF JUMP JUMPDEST JUMPDEST PUSH1 0x20 ADD ADD MLOAD PUSH1 0xF8 SHR PUSH1 0xF8 SHL PUSH31 0xFFFFFFFFFFFFFFFFFFFFFFFFFFFFFFFFFFFFFFFFFFFFFFFFFFFFFFFFFFFFFF NOT AND DUP6 DUP3 DUP6 PUSH2 0x11A3 SWAP2 SWAP1 PUSH2 0x2324 JUMP JUMPDEST DUP2 MLOAD DUP2 LT PUSH2 0x11B4 JUMPI PUSH2 0x11B3 PUSH2 0x1FDF JUMP JUMPDEST JUMPDEST PUSH1 0x20 ADD ADD MLOAD PUSH1 0xF8 SHR PUSH1 0xF8 SHL PUSH31 0xFFFFFFFFFFFFFFFFFFFFFFFFFFFFFFFFFFFFFFFFFFFFFFFFFFFFFFFFFFFFFF NOT AND EQ PUSH2 0x11EF JUMPI PUSH1 0x0 SWAP2 POP PUSH2 0x1202 JUMP JUMPDEST DUP1 DUP1 PUSH2 0x11FA SWAP1 PUSH2 0x203D JUMP JUMPDEST SWAP2 POP POP PUSH2 0x114D JUMP JUMPDEST POP DUP1 ISZERO PUSH2 0x1217 JUMPI PUSH1 0x1 SWAP6 POP POP POP POP POP POP PUSH2 0x1234 JUMP JUMPDEST POP DUP1 DUP1 PUSH2 0x1223 SWAP1 PUSH2 0x203D JUMP JUMPDEST SWAP2 POP POP PUSH2 0x1130 JUMP JUMPDEST POP PUSH1 0x0 SWAP4 POP POP POP POP JUMPDEST SWAP2 SWAP1 POP JUMP JUMPDEST PUSH1 0x60 PUSH1 0x0 JUMPDEST PUSH1 0x20 DUP2 LT DUP1 ISZERO PUSH2 0x128A JUMPI POP PUSH1 0x0 PUSH1 0xF8 SHL DUP4 DUP3 PUSH1 0x20 DUP2 LT PUSH2 0x1261 JUMPI PUSH2 0x1260 PUSH2 0x1FDF JUMP JUMPDEST JUMPDEST BYTE PUSH1 0xF8 SHL PUSH31 0xFFFFFFFFFFFFFFFFFFFFFFFFFFFFFFFFFFFFFFFFFFFFFFFFFFFFFFFFFFFFFF NOT AND EQ ISZERO JUMPDEST ISZERO PUSH2 0x129C JUMPI DUP1 DUP1 PUSH1 0x1 ADD SWAP2 POP POP PUSH2 0x123E JUMP JUMPDEST PUSH1 0x0 DUP2 PUSH8 0xFFFFFFFFFFFFFFFF DUP2 GT ISZERO PUSH2 0x12B8 JUMPI PUSH2 0x12B7 PUSH2 0x1794 JUMP JUMPDEST JUMPDEST PUSH1 0x40 MLOAD SWAP1 DUP1 DUP3 MSTORE DUP1 PUSH1 0x1F ADD PUSH1 0x1F NOT AND PUSH1 0x20 ADD DUP3 ADD PUSH1 0x40 MSTORE DUP1 ISZERO PUSH2 0x12EA JUMPI DUP2 PUSH1 0x20 ADD PUSH1 0x1 DUP3 MUL DUP1 CALLDATASIZE DUP4 CALLDATACOPY DUP1 DUP3 ADD SWAP2 POP POP SWAP1 POP JUMPDEST POP SWAP1 POP PUSH1 0x0 JUMPDEST DUP3 DUP2 LT ISZERO PUSH2 0x1364 JUMPI DUP5 DUP2 PUSH1 0x20 DUP2 LT PUSH2 0x130B JUMPI PUSH2 0x130A PUSH2 0x1FDF JUMP JUMPDEST JUMPDEST BYTE PUSH1 0xF8 SHL DUP3 DUP3 DUP2 MLOAD DUP2 LT PUSH2 0x1322 JUMPI PUSH2 0x1321 PUSH2 0x1FDF JUMP JUMPDEST JUMPDEST PUSH1 0x20 ADD ADD SWAP1 PUSH31 0xFFFFFFFFFFFFFFFFFFFFFFFFFFFFFFFFFFFFFFFFFFFFFFFFFFFFFFFFFFFFFF NOT AND SWAP1 DUP2 PUSH1 0x0 BYTE SWAP1 MSTORE8 POP DUP1 DUP1 PUSH2 0x135C SWAP1 PUSH2 0x203D JUMP JUMPDEST SWAP2 POP POP PUSH2 0x12F0 JUMP JUMPDEST POP DUP1 SWAP3 POP POP POP SWAP2 SWAP1 POP JUMP JUMPDEST POP DUP1 SLOAD PUSH1 0x0 DUP3 SSTORE PUSH1 0x3 MUL SWAP1 PUSH1 0x0 MSTORE PUSH1 0x20 PUSH1 0x0 KECCAK256 SWAP1 DUP2 ADD SWAP1 PUSH2 0x1390 SWAP2 SWAP1 PUSH2 0x1405 JUMP JUMPDEST POP JUMP JUMPDEST POP DUP1 SLOAD PUSH1 0x0 DUP3 SSTORE SWAP1 PUSH1 0x0 MSTORE PUSH1 0x20 PUSH1 0x0 KECCAK256 SWAP1 DUP2 ADD SWAP1 PUSH2 0x13B1 SWAP2 SWAP1 PUSH2 0x1434 JUMP JUMPDEST POP JUMP JUMPDEST PUSH1 0x40 MLOAD DUP1 PUSH1 0x40 ADD PUSH1 0x40 MSTORE DUP1 PUSH1 0x0 DUP1 NOT AND DUP2 MSTORE PUSH1 0x20 ADD PUSH1 0x0 DUP1 NOT AND DUP2 MSTORE POP SWAP1 JUMP JUMPDEST PUSH1 0x40 MLOAD DUP1 PUSH1 0x80 ADD PUSH1 0x40 MSTORE DUP1 PUSH1 0x0 DUP1 NOT AND DUP2 MSTORE PUSH1 0x20 ADD PUSH1 0x0 DUP1 NOT AND DUP2 MSTORE PUSH1 0x20 ADD PUSH1 0x0 DUP1 NOT AND DUP2 MSTORE PUSH1 0x20 ADD PUSH1 0x0 DUP2 MSTORE POP SWAP1 JUMP JUMPDEST JUMPDEST DUP1 DUP3 GT ISZERO PUSH2 0x1430 JUMPI PUSH1 0x0 DUP1 DUP3 ADD PUSH1 0x0 SWAP1 SSTORE PUSH1 0x1 DUP3 ADD PUSH1 0x0 SWAP1 SSTORE PUSH1 0x2 DUP3 ADD PUSH1 0x0 SWAP1 SSTORE POP PUSH1 0x3 ADD PUSH2 0x1406 JUMP JUMPDEST POP SWAP1 JUMP JUMPDEST JUMPDEST DUP1 DUP3 GT ISZERO PUSH2 0x144D JUMPI PUSH1 0x0 DUP2 PUSH1 0x0 SWAP1 SSTORE POP PUSH1 0x1 ADD PUSH2 0x1435 JUMP JUMPDEST POP SWAP1 JUMP JUMPDEST PUSH1 0x0 PUSH1 0x40 MLOAD SWAP1 POP SWAP1 JUMP JUMPDEST PUSH1 0x0 DUP1 REVERT JUMPDEST PUSH1 0x0 DUP1 REVERT JUMPDEST PUSH1 0x0 DUP2 SWAP1 POP SWAP2 SWAP1 POP JUMP JUMPDEST PUSH2 0x1478 DUP2 PUSH2 0x1465 JUMP JUMPDEST DUP2 EQ PUSH2 0x1483 JUMPI PUSH1 0x0 DUP1 REVERT JUMPDEST POP JUMP JUMPDEST PUSH1 0x0 DUP2 CALLDATALOAD SWAP1 POP PUSH2 0x1495 DUP2 PUSH2 0x146F JUMP JUMPDEST SWAP3 SWAP2 POP POP JUMP JUMPDEST PUSH1 0x0 PUSH1 0x20 DUP3 DUP5 SUB SLT ISZERO PUSH2 0x14B1 JUMPI PUSH2 0x14B0 PUSH2 0x145B JUMP JUMPDEST JUMPDEST PUSH1 0x0 PUSH2 0x14BF DUP5 DUP3 DUP6 ADD PUSH2 0x1486 JUMP JUMPDEST SWAP2 POP POP SWAP3 SWAP2 POP POP JUMP JUMPDEST PUSH2 0x14D1 DUP2 PUSH2 0x1465 JUMP JUMPDEST DUP3 MSTORE POP POP JUMP JUMPDEST PUSH1 0x0 PUSH1 0x20 DUP3 ADD SWAP1 POP PUSH2 0x14EC PUSH1 0x0 DUP4 ADD DUP5 PUSH2 0x14C8 JUMP JUMPDEST SWAP3 SWAP2 POP POP JUMP JUMPDEST PUSH1 0x0 DUP2 SWAP1 POP SWAP2 SWAP1 POP JUMP JUMPDEST PUSH2 0x1505 DUP2 PUSH2 0x14F2 JUMP JUMPDEST DUP2 EQ PUSH2 0x1510 JUMPI PUSH1 0x0 DUP1 REVERT JUMPDEST POP JUMP JUMPDEST PUSH1 0x0 DUP2 CALLDATALOAD SWAP1 POP PUSH2 0x1522 DUP2 PUSH2 0x14FC JUMP JUMPDEST SWAP3 SWAP2 POP POP JUMP JUMPDEST PUSH1 0x0 DUP1 PUSH1 0x40 DUP4 DUP6 SUB SLT ISZERO PUSH2 0x153F JUMPI PUSH2 0x153E PUSH2 0x145B JUMP JUMPDEST JUMPDEST PUSH1 0x0 PUSH2 0x154D DUP6 DUP3 DUP7 ADD PUSH2 0x1486 JUMP JUMPDEST SWAP3 POP POP PUSH1 0x20 PUSH2 0x155E DUP6 DUP3 DUP7 ADD PUSH2 0x1513 JUMP JUMPDEST SWAP2 POP POP SWAP3 POP SWAP3 SWAP1 POP JUMP JUMPDEST PUSH1 0x0 DUP2 MLOAD SWAP1 POP SWAP2 SWAP1 POP JUMP JUMPDEST PUSH1 0x0 DUP3 DUP3 MSTORE PUSH1 0x20 DUP3 ADD SWAP1 POP SWAP3 SWAP2 POP POP JUMP JUMPDEST PUSH1 0x0 DUP2 SWAP1 POP PUSH1 0x20 DUP3 ADD SWAP1 POP SWAP2 SWAP1 POP JUMP JUMPDEST PUSH2 0x159D DUP2 PUSH2 0x1465 JUMP JUMPDEST DUP3 MSTORE POP POP JUMP JUMPDEST PUSH1 0x0 PUSH2 0x15AF DUP4 DUP4 PUSH2 0x1594 JUMP JUMPDEST PUSH1 0x20 DUP4 ADD SWAP1 POP SWAP3 SWAP2 POP POP JUMP JUMPDEST PUSH1 0x0 PUSH1 0x20 DUP3 ADD SWAP1 POP SWAP2 SWAP1 POP JUMP JUMPDEST PUSH1 0x0 PUSH2 0x15D3 DUP3 PUSH2 0x1568 JUMP JUMPDEST PUSH2 0x15DD DUP2 DUP6 PUSH2 0x1573 JUMP JUMPDEST SWAP4 POP PUSH2 0x15E8 DUP4 PUSH2 0x1584 JUMP JUMPDEST DUP1 PUSH1 0x0 JUMPDEST DUP4 DUP2 LT ISZERO PUSH2 0x1619 JUMPI DUP2 MLOAD PUSH2 0x1600 DUP9 DUP3 PUSH2 0x15A3 JUMP JUMPDEST SWAP8 POP PUSH2 0x160B DUP4 PUSH2 0x15BB JUMP JUMPDEST SWAP3 POP POP PUSH1 0x1 DUP2 ADD SWAP1 POP PUSH2 0x15EC JUMP JUMPDEST POP DUP6 SWAP4 POP POP POP POP SWAP3 SWAP2 POP POP JUMP JUMPDEST PUSH1 0x0 PUSH1 0x20 DUP3 ADD SWAP1 POP DUP2 DUP2 SUB PUSH1 0x0 DUP4 ADD MSTORE PUSH2 0x1640 DUP2 DUP5 PUSH2 0x15C8 JUMP JUMPDEST SWAP1 POP SWAP3 SWAP2 POP POP JUMP JUMPDEST PUSH1 0x0 DUP2 MLOAD SWAP1 POP SWAP2 SWAP1 POP JUMP JUMPDEST PUSH1 0x0 DUP3 DUP3 MSTORE PUSH1 0x20 DUP3 ADD SWAP1 POP SWAP3 SWAP2 POP POP JUMP JUMPDEST PUSH1 0x0 DUP2 SWAP1 POP PUSH1 0x20 DUP3 ADD SWAP1 POP SWAP2 SWAP1 POP JUMP JUMPDEST PUSH1 0x40 DUP3 ADD PUSH1 0x0 DUP3 ADD MLOAD PUSH2 0x168A PUSH1 0x0 DUP6 ADD DUP3 PUSH2 0x1594 JUMP JUMPDEST POP PUSH1 0x20 DUP3 ADD MLOAD PUSH2 0x169D PUSH1 0x20 DUP6 ADD DUP3 PUSH2 0x1594 JUMP JUMPDEST POP POP POP POP JUMP JUMPDEST PUSH1 0x0 PUSH2 0x16AF DUP4 DUP4 PUSH2 0x1674 JUMP JUMPDEST PUSH1 0x40 DUP4 ADD SWAP1 POP SWAP3 SWAP2 POP POP JUMP JUMPDEST PUSH1 0x0 PUSH1 0x20 DUP3 ADD SWAP1 POP SWAP2 SWAP1 POP JUMP JUMPDEST PUSH1 0x0 PUSH2 0x16D3 DUP3 PUSH2 0x1648 JUMP JUMPDEST PUSH2 0x16DD DUP2 DUP6 PUSH2 0x1653 JUMP JUMPDEST SWAP4 POP PUSH2 0x16E8 DUP4 PUSH2 0x1664 JUMP JUMPDEST DUP1 PUSH1 0x0 JUMPDEST DUP4 DUP2 LT ISZERO PUSH2 0x1719 JUMPI DUP2 MLOAD PUSH2 0x1700 DUP9 DUP3 PUSH2 0x16A3 JUMP JUMPDEST SWAP8 POP PUSH2 0x170B DUP4 PUSH2 0x16BB JUMP JUMPDEST SWAP3 POP POP PUSH1 0x1 DUP2 ADD SWAP1 POP PUSH2 0x16EC JUMP JUMPDEST POP DUP6 SWAP4 POP POP POP POP SWAP3 SWAP2 POP POP JUMP JUMPDEST PUSH1 0x0 PUSH1 0x20 DUP3 ADD SWAP1 POP DUP2 DUP2 SUB PUSH1 0x0 DUP4 ADD MSTORE PUSH2 0x1740 DUP2 DUP5 PUSH2 0x16C8 JUMP JUMPDEST SWAP1 POP SWAP3 SWAP2 POP POP JUMP JUMPDEST PUSH1 0x0 DUP2 ISZERO ISZERO SWAP1 POP SWAP2 SWAP1 POP JUMP JUMPDEST PUSH2 0x175D DUP2 PUSH2 0x1748 JUMP JUMPDEST DUP3 MSTORE POP POP JUMP JUMPDEST PUSH1 0x0 PUSH1 0x20 DUP3 ADD SWAP1 POP PUSH2 0x1778 PUSH1 0x0 DUP4 ADD DUP5 PUSH2 0x1754 JUMP JUMPDEST SWAP3 SWAP2 POP POP JUMP JUMPDEST PUSH1 0x0 DUP1 REVERT JUMPDEST PUSH1 0x0 PUSH1 0x1F NOT PUSH1 0x1F DUP4 ADD AND SWAP1 POP SWAP2 SWAP1 POP JUMP JUMPDEST PUSH32 0x4E487B7100000000000000000000000000000000000000000000000000000000 PUSH1 0x0 MSTORE PUSH1 0x41 PUSH1 0x4 MSTORE PUSH1 0x24 PUSH1 0x0 REVERT JUMPDEST PUSH2 0x17CC DUP3 PUSH2 0x1783 JUMP JUMPDEST DUP2 ADD DUP2 DUP2 LT PUSH8 0xFFFFFFFFFFFFFFFF DUP3 GT OR ISZERO PUSH2 0x17EB JUMPI PUSH2 0x17EA PUSH2 0x1794 JUMP JUMPDEST JUMPDEST DUP1 PUSH1 0x40 MSTORE POP POP POP JUMP JUMPDEST PUSH1 0x0 PUSH2 0x17FE PUSH2 0x1451 JUMP JUMPDEST SWAP1 POP PUSH2 0x180A DUP3 DUP3 PUSH2 0x17C3 JUMP JUMPDEST SWAP2 SWAP1 POP JUMP JUMPDEST PUSH1 0x0 PUSH8 0xFFFFFFFFFFFFFFFF DUP3 GT ISZERO PUSH2 0x182A JUMPI PUSH2 0x1829 PUSH2 0x1794 JUMP JUMPDEST JUMPDEST PUSH1 0x20 DUP3 MUL SWAP1 POP PUSH1 0x20 DUP2 ADD SWAP1 POP SWAP2 SWAP1 POP JUMP JUMPDEST PUSH1 0x0 DUP1 REVERT JUMPDEST PUSH1 0x0 PUSH2 0x1853 PUSH2 0x184E DUP5 PUSH2 0x180F JUMP JUMPDEST PUSH2 0x17F4 JUMP JUMPDEST SWAP1 POP DUP1 DUP4 DUP3 MSTORE PUSH1 0x20 DUP3 ADD SWAP1 POP PUSH1 0x20 DUP5 MUL DUP4 ADD DUP6 DUP2 GT ISZERO PUSH2 0x1876 JUMPI PUSH2 0x1875 PUSH2 0x183B JUMP JUMPDEST JUMPDEST DUP4 JUMPDEST DUP2 DUP2 LT ISZERO PUSH2 0x189F JUMPI DUP1 PUSH2 0x188B DUP9 DUP3 PUSH2 0x1486 JUMP JUMPDEST DUP5 MSTORE PUSH1 0x20 DUP5 ADD SWAP4 POP POP PUSH1 0x20 DUP2 ADD SWAP1 POP PUSH2 0x1878 JUMP JUMPDEST POP POP POP SWAP4 SWAP3 POP POP POP JUMP JUMPDEST PUSH1 0x0 DUP3 PUSH1 0x1F DUP4 ADD SLT PUSH2 0x18BE JUMPI PUSH2 0x18BD PUSH2 0x177E JUMP JUMPDEST JUMPDEST DUP2 CALLDATALOAD PUSH2 0x18CE DUP5 DUP3 PUSH1 0x20 DUP7 ADD PUSH2 0x1840 JUMP JUMPDEST SWAP2 POP POP SWAP3 SWAP2 POP POP JUMP JUMPDEST PUSH1 0x0 PUSH8 0xFFFFFFFFFFFFFFFF DUP3 GT ISZERO PUSH2 0x18F2 JUMPI PUSH2 0x18F1 PUSH2 0x1794 JUMP JUMPDEST JUMPDEST PUSH1 0x20 DUP3 MUL SWAP1 POP PUSH1 0x20 DUP2 ADD SWAP1 POP SWAP2 SWAP1 POP JUMP JUMPDEST PUSH1 0x0 PUSH8 0xFFFFFFFFFFFFFFFF DUP3 GT ISZERO PUSH2 0x191E JUMPI PUSH2 0x191D PUSH2 0x1794 JUMP JUMPDEST JUMPDEST PUSH1 0x20 DUP3 MUL SWAP1 POP PUSH1 0x20 DUP2 ADD SWAP1 POP SWAP2 SWAP1 POP JUMP JUMPDEST PUSH1 0x0 DUP1 REVERT JUMPDEST PUSH1 0x0 PUSH1 0x40 DUP3 DUP5 SUB SLT ISZERO PUSH2 0x194A JUMPI PUSH2 0x1949 PUSH2 0x192F JUMP JUMPDEST JUMPDEST PUSH2 0x1954 PUSH1 0x40 PUSH2 0x17F4 JUMP JUMPDEST SWAP1 POP PUSH1 0x0 PUSH2 0x1964 DUP5 DUP3 DUP6 ADD PUSH2 0x1486 JUMP JUMPDEST PUSH1 0x0 DUP4 ADD MSTORE POP PUSH1 0x20 PUSH2 0x1978 DUP5 DUP3 DUP6 ADD PUSH2 0x1486 JUMP JUMPDEST PUSH1 0x20 DUP4 ADD MSTORE POP SWAP3 SWAP2 POP POP JUMP JUMPDEST PUSH1 0x0 PUSH2 0x1997 PUSH2 0x1992 DUP5 PUSH2 0x1903 JUMP JUMPDEST PUSH2 0x17F4 JUMP JUMPDEST SWAP1 POP DUP1 DUP4 DUP3 MSTORE PUSH1 0x20 DUP3 ADD SWAP1 POP PUSH1 0x40 DUP5 MUL DUP4 ADD DUP6 DUP2 GT ISZERO PUSH2 0x19BA JUMPI PUSH2 0x19B9 PUSH2 0x183B JUMP JUMPDEST JUMPDEST DUP4 JUMPDEST DUP2 DUP2 LT ISZERO PUSH2 0x19E3 JUMPI DUP1 PUSH2 0x19CF DUP9 DUP3 PUSH2 0x1934 JUMP JUMPDEST DUP5 MSTORE PUSH1 0x20 DUP5 ADD SWAP4 POP POP PUSH1 0x40 DUP2 ADD SWAP1 POP PUSH2 0x19BC JUMP JUMPDEST POP POP POP SWAP4 SWAP3 POP POP POP JUMP JUMPDEST PUSH1 0x0 DUP3 PUSH1 0x1F DUP4 ADD SLT PUSH2 0x1A02 JUMPI PUSH2 0x1A01 PUSH2 0x177E JUMP JUMPDEST JUMPDEST DUP2 CALLDATALOAD PUSH2 0x1A12 DUP5 DUP3 PUSH1 0x20 DUP7 ADD PUSH2 0x1984 JUMP JUMPDEST SWAP2 POP POP SWAP3 SWAP2 POP POP JUMP JUMPDEST PUSH1 0x0 PUSH2 0x1A2E PUSH2 0x1A29 DUP5 PUSH2 0x18D7 JUMP JUMPDEST PUSH2 0x17F4 JUMP JUMPDEST SWAP1 POP DUP1 DUP4 DUP3 MSTORE PUSH1 0x20 DUP3 ADD SWAP1 POP PUSH1 0x20 DUP5 MUL DUP4 ADD DUP6 DUP2 GT ISZERO PUSH2 0x1A51 JUMPI PUSH2 0x1A50 PUSH2 0x183B JUMP JUMPDEST JUMPDEST DUP4 JUMPDEST DUP2 DUP2 LT ISZERO PUSH2 0x1A98 JUMPI DUP1 CALLDATALOAD PUSH8 0xFFFFFFFFFFFFFFFF DUP2 GT ISZERO PUSH2 0x1A76 JUMPI PUSH2 0x1A75 PUSH2 0x177E JUMP JUMPDEST JUMPDEST DUP1 DUP7 ADD PUSH2 0x1A83 DUP10 DUP3 PUSH2 0x19ED JUMP JUMPDEST DUP6 MSTORE PUSH1 0x20 DUP6 ADD SWAP5 POP POP POP PUSH1 0x20 DUP2 ADD SWAP1 POP PUSH2 0x1A53 JUMP JUMPDEST POP POP POP SWAP4 SWAP3 POP POP POP JUMP JUMPDEST PUSH1 0x0 DUP3 PUSH1 0x1F DUP4 ADD SLT PUSH2 0x1AB7 JUMPI PUSH2 0x1AB6 PUSH2 0x177E JUMP JUMPDEST JUMPDEST DUP2 CALLDATALOAD PUSH2 0x1AC7 DUP5 DUP3 PUSH1 0x20 DUP7 ADD PUSH2 0x1A1B JUMP JUMPDEST SWAP2 POP POP SWAP3 SWAP2 POP POP JUMP JUMPDEST PUSH1 0x0 DUP1 PUSH1 0x0 PUSH1 0x60 DUP5 DUP7 SUB SLT ISZERO PUSH2 0x1AE9 JUMPI PUSH2 0x1AE8 PUSH2 0x145B JUMP JUMPDEST JUMPDEST PUSH1 0x0 DUP5 ADD CALLDATALOAD PUSH8 0xFFFFFFFFFFFFFFFF DUP2 GT ISZERO PUSH2 0x1B07 JUMPI PUSH2 0x1B06 PUSH2 0x1460 JUMP JUMPDEST JUMPDEST PUSH2 0x1B13 DUP7 DUP3 DUP8 ADD PUSH2 0x18A9 JUMP JUMPDEST SWAP4 POP POP PUSH1 0x20 DUP5 ADD CALLDATALOAD PUSH8 0xFFFFFFFFFFFFFFFF DUP2 GT ISZERO PUSH2 0x1B34 JUMPI PUSH2 0x1B33 PUSH2 0x1460 JUMP JUMPDEST JUMPDEST PUSH2 0x1B40 DUP7 DUP3 DUP8 ADD PUSH2 0x1AA2 JUMP JUMPDEST SWAP3 POP POP PUSH1 0x40 DUP5 ADD CALLDATALOAD PUSH8 0xFFFFFFFFFFFFFFFF DUP2 GT ISZERO PUSH2 0x1B61 JUMPI PUSH2 0x1B60 PUSH2 0x1460 JUMP JUMPDEST JUMPDEST PUSH2 0x1B6D DUP7 DUP3 DUP8 ADD PUSH2 0x18A9 JUMP JUMPDEST SWAP2 POP POP SWAP3 POP SWAP3 POP SWAP3 JUMP JUMPDEST PUSH1 0x0 DUP2 MLOAD SWAP1 POP SWAP2 SWAP1 POP JUMP JUMPDEST PUSH1 0x0 DUP3 DUP3 MSTORE PUSH1 0x20 DUP3 ADD SWAP1 POP SWAP3 SWAP2 POP POP JUMP JUMPDEST PUSH1 0x0 DUP2 SWAP1 POP PUSH1 0x20 DUP3 ADD SWAP1 POP SWAP2 SWAP1 POP JUMP JUMPDEST PUSH2 0x1BAC DUP2 PUSH2 0x14F2 JUMP JUMPDEST DUP3 MSTORE POP POP JUMP JUMPDEST PUSH1 0x80 DUP3 ADD PUSH1 0x0 DUP3 ADD MLOAD PUSH2 0x1BC8 PUSH1 0x0 DUP6 ADD DUP3 PUSH2 0x1594 JUMP JUMPDEST POP PUSH1 0x20 DUP3 ADD MLOAD PUSH2 0x1BDB PUSH1 0x20 DUP6 ADD DUP3 PUSH2 0x1594 JUMP JUMPDEST POP PUSH1 0x40 DUP3 ADD MLOAD PUSH2 0x1BEE PUSH1 0x40 DUP6 ADD DUP3 PUSH2 0x1594 JUMP JUMPDEST POP PUSH1 0x60 DUP3 ADD MLOAD PUSH2 0x1C01 PUSH1 0x60 DUP6 ADD DUP3 PUSH2 0x1BA3 JUMP JUMPDEST POP POP POP POP JUMP JUMPDEST PUSH1 0x0 PUSH2 0x1C13 DUP4 DUP4 PUSH2 0x1BB2 JUMP JUMPDEST PUSH1 0x80 DUP4 ADD SWAP1 POP SWAP3 SWAP2 POP POP JUMP JUMPDEST PUSH1 0x0 PUSH1 0x20 DUP3 ADD SWAP1 POP SWAP2 SWAP1 POP JUMP JUMPDEST PUSH1 0x0 PUSH2 0x1C37 DUP3 PUSH2 0x1B77 JUMP JUMPDEST PUSH2 0x1C41 DUP2 DUP6 PUSH2 0x1B82 JUMP JUMPDEST SWAP4 POP PUSH2 0x1C4C DUP4 PUSH2 0x1B93 JUMP JUMPDEST DUP1 PUSH1 0x0 JUMPDEST DUP4 DUP2 LT ISZERO PUSH2 0x1C7D JUMPI DUP2 MLOAD PUSH2 0x1C64 DUP9 DUP3 PUSH2 0x1C07 JUMP JUMPDEST SWAP8 POP PUSH2 0x1C6F DUP4 PUSH2 0x1C1F JUMP JUMPDEST SWAP3 POP POP PUSH1 0x1 DUP2 ADD SWAP1 POP PUSH2 0x1C50 JUMP JUMPDEST POP DUP6 SWAP4 POP POP POP POP SWAP3 SWAP2 POP POP JUMP JUMPDEST PUSH1 0x0 PUSH1 0x20 DUP3 ADD SWAP1 POP DUP2 DUP2 SUB PUSH1 0x0 DUP4 ADD MSTORE PUSH2 0x1CA4 DUP2 DUP5 PUSH2 0x1C2C JUMP JUMPDEST SWAP1 POP SWAP3 SWAP2 POP POP JUMP JUMPDEST PUSH1 0x0 PUSH8 0xFFFFFFFFFFFFFFFF DUP3 GT ISZERO PUSH2 0x1CC7 JUMPI PUSH2 0x1CC6 PUSH2 0x1794 JUMP JUMPDEST JUMPDEST PUSH1 0x20 DUP3 MUL SWAP1 POP PUSH1 0x20 DUP2 ADD SWAP1 POP SWAP2 SWAP1 POP JUMP JUMPDEST PUSH1 0x0 PUSH2 0x1CEB PUSH2 0x1CE6 DUP5 PUSH2 0x1CAC JUMP JUMPDEST PUSH2 0x17F4 JUMP JUMPDEST SWAP1 POP DUP1 DUP4 DUP3 MSTORE PUSH1 0x20 DUP3 ADD SWAP1 POP PUSH1 0x20 DUP5 MUL DUP4 ADD DUP6 DUP2 GT ISZERO PUSH2 0x1D0E JUMPI PUSH2 0x1D0D PUSH2 0x183B JUMP JUMPDEST JUMPDEST DUP4 JUMPDEST DUP2 DUP2 LT ISZERO PUSH2 0x1D37 JUMPI DUP1 PUSH2 0x1D23 DUP9 DUP3 PUSH2 0x1513 JUMP JUMPDEST DUP5 MSTORE PUSH1 0x20 DUP5 ADD SWAP4 POP POP PUSH1 0x20 DUP2 ADD SWAP1 POP PUSH2 0x1D10 JUMP JUMPDEST POP POP POP SWAP4 SWAP3 POP POP POP JUMP JUMPDEST PUSH1 0x0 DUP3 PUSH1 0x1F DUP4 ADD SLT PUSH2 0x1D56 JUMPI PUSH2 0x1D55 PUSH2 0x177E JUMP JUMPDEST JUMPDEST DUP2 CALLDATALOAD PUSH2 0x1D66 DUP5 DUP3 PUSH1 0x20 DUP7 ADD PUSH2 0x1CD8 JUMP JUMPDEST SWAP2 POP POP SWAP3 SWAP2 POP POP JUMP JUMPDEST PUSH1 0x0 DUP1 PUSH1 0x0 PUSH1 0x60 DUP5 DUP7 SUB SLT ISZERO PUSH2 0x1D88 JUMPI PUSH2 0x1D87 PUSH2 0x145B JUMP JUMPDEST JUMPDEST PUSH1 0x0 DUP5 ADD CALLDATALOAD PUSH8 0xFFFFFFFFFFFFFFFF DUP2 GT ISZERO PUSH2 0x1DA6 JUMPI PUSH2 0x1DA5 PUSH2 0x1460 JUMP JUMPDEST JUMPDEST PUSH2 0x1DB2 DUP7 DUP3 DUP8 ADD PUSH2 0x18A9 JUMP JUMPDEST SWAP4 POP POP PUSH1 0x20 DUP5 ADD CALLDATALOAD PUSH8 0xFFFFFFFFFFFFFFFF DUP2 GT ISZERO PUSH2 0x1DD3 JUMPI PUSH2 0x1DD2 PUSH2 0x1460 JUMP JUMPDEST JUMPDEST PUSH2 0x1DDF DUP7 DUP3 DUP8 ADD PUSH2 0x1D41 JUMP JUMPDEST SWAP3 POP POP PUSH1 0x40 PUSH2 0x1DF0 DUP7 DUP3 DUP8 ADD PUSH2 0x1486 JUMP JUMPDEST SWAP2 POP POP SWAP3 POP SWAP3 POP SWAP3 JUMP JUMPDEST PUSH1 0x0 PUSH20 0xFFFFFFFFFFFFFFFFFFFFFFFFFFFFFFFFFFFFFFFF DUP3 AND SWAP1 POP SWAP2 SWAP1 POP JUMP JUMPDEST PUSH1 0x0 PUSH2 0x1E25 DUP3 PUSH2 0x1DFA JUMP JUMPDEST SWAP1 POP SWAP2 SWAP1 POP JUMP JUMPDEST PUSH2 0x1E35 DUP2 PUSH2 0x1E1A JUMP JUMPDEST DUP3 MSTORE POP POP JUMP JUMPDEST PUSH1 0x0 PUSH1 0x20 DUP3 ADD SWAP1 POP PUSH2 0x1E50 PUSH1 0x0 DUP4 ADD DUP5 PUSH2 0x1E2C JUMP JUMPDEST SWAP3 SWAP2 POP POP JUMP JUMPDEST PUSH1 0x0 DUP2 MLOAD SWAP1 POP SWAP2 SWAP1 POP JUMP JUMPDEST PUSH1 0x0 DUP3 DUP3 MSTORE PUSH1 0x20 DUP3 ADD SWAP1 POP SWAP3 SWAP2 POP POP JUMP JUMPDEST PUSH1 0x0 DUP2 SWAP1 POP PUSH1 0x20 DUP3 ADD SWAP1 POP SWAP2 SWAP1 POP JUMP JUMPDEST PUSH1 0x0 PUSH2 0x1E8E DUP4 DUP4 PUSH2 0x1BA3 JUMP JUMPDEST PUSH1 0x20 DUP4 ADD SWAP1 POP SWAP3 SWAP2 POP POP JUMP JUMPDEST PUSH1 0x0 PUSH1 0x20 DUP3 ADD SWAP1 POP SWAP2 SWAP1 POP JUMP JUMPDEST PUSH1 0x0 PUSH2 0x1EB2 DUP3 PUSH2 0x1E56 JUMP JUMPDEST PUSH2 0x1EBC DUP2 DUP6 PUSH2 0x1E61 JUMP JUMPDEST SWAP4 POP PUSH2 0x1EC7 DUP4 PUSH2 0x1E72 JUMP JUMPDEST DUP1 PUSH1 0x0 JUMPDEST DUP4 DUP2 LT ISZERO PUSH2 0x1EF8 JUMPI DUP2 MLOAD PUSH2 0x1EDF DUP9 DUP3 PUSH2 0x1E82 JUMP JUMPDEST SWAP8 POP PUSH2 0x1EEA DUP4 PUSH2 0x1E9A JUMP JUMPDEST SWAP3 POP POP PUSH1 0x1 DUP2 ADD SWAP1 POP PUSH2 0x1ECB JUMP JUMPDEST POP DUP6 SWAP4 POP POP POP POP SWAP3 SWAP2 POP POP JUMP JUMPDEST PUSH1 0x0 PUSH1 0x40 DUP3 ADD SWAP1 POP DUP2 DUP2 SUB PUSH1 0x0 DUP4 ADD MSTORE PUSH2 0x1F1F DUP2 DUP6 PUSH2 0x16C8 JUMP JUMPDEST SWAP1 POP DUP2 DUP2 SUB PUSH1 0x20 DUP4 ADD MSTORE PUSH2 0x1F33 DUP2 DUP5 PUSH2 0x1EA7 JUMP JUMPDEST SWAP1 POP SWAP4 SWAP3 POP POP POP JUMP JUMPDEST PUSH1 0x0 DUP3 DUP3 MSTORE PUSH1 0x20 DUP3 ADD SWAP1 POP SWAP3 SWAP2 POP POP JUMP JUMPDEST PUSH32 0x4F6E6C792061646D696E2063616E20706572666F726D20746869732061637469 PUSH1 0x0 DUP3 ADD MSTORE PUSH32 0x6F6E000000000000000000000000000000000000000000000000000000000000 PUSH1 0x20 DUP3 ADD MSTORE POP JUMP JUMPDEST PUSH1 0x0 PUSH2 0x1FA9 PUSH1 0x22 DUP4 PUSH2 0x1F3C JUMP JUMPDEST SWAP2 POP PUSH2 0x1FB4 DUP3 PUSH2 0x1F4D JUMP JUMPDEST PUSH1 0x40 DUP3 ADD SWAP1 POP SWAP2 SWAP1 POP JUMP JUMPDEST PUSH1 0x0 PUSH1 0x20 DUP3 ADD SWAP1 POP DUP2 DUP2 SUB PUSH1 0x0 DUP4 ADD MSTORE PUSH2 0x1FD8 DUP2 PUSH2 0x1F9C JUMP JUMPDEST SWAP1 POP SWAP2 SWAP1 POP JUMP JUMPDEST PUSH32 0x4E487B7100000000000000000000000000000000000000000000000000000000 PUSH1 0x0 MSTORE PUSH1 0x32 PUSH1 0x4 MSTORE PUSH1 0x24 PUSH1 0x0 REVERT JUMPDEST PUSH32 0x4E487B7100000000000000000000000000000000000000000000000000000000 PUSH1 0x0 MSTORE PUSH1 0x11 PUSH1 0x4 MSTORE PUSH1 0x24 PUSH1 0x0 REVERT JUMPDEST PUSH1 0x0 PUSH2 0x2048 DUP3 PUSH2 0x14F2 JUMP JUMPDEST SWAP2 POP PUSH32 0xFFFFFFFFFFFFFFFFFFFFFFFFFFFFFFFFFFFFFFFFFFFFFFFFFFFFFFFFFFFFFFFF DUP3 SUB PUSH2 0x207A JUMPI PUSH2 0x2079 PUSH2 0x200E JUMP JUMPDEST JUMPDEST PUSH1 0x1 DUP3 ADD SWAP1 POP SWAP2 SWAP1 POP JUMP JUMPDEST PUSH32 0x43616E646964617465732061726520616C72656164792066696E616C697A6564 PUSH1 0x0 DUP3 ADD MSTORE PUSH32 0x2100000000000000000000000000000000000000000000000000000000000000 PUSH1 0x20 DUP3 ADD MSTORE POP JUMP JUMPDEST PUSH1 0x0 PUSH2 0x20E1 PUSH1 0x21 DUP4 PUSH2 0x1F3C JUMP JUMPDEST SWAP2 POP PUSH2 0x20EC DUP3 PUSH2 0x2085 JUMP JUMPDEST PUSH1 0x40 DUP3 ADD SWAP1 POP SWAP2 SWAP1 POP JUMP JUMPDEST PUSH1 0x0 PUSH1 0x20 DUP3 ADD SWAP1 POP DUP2 DUP2 SUB PUSH1 0x0 DUP4 ADD MSTORE PUSH2 0x2110 DUP2 PUSH2 0x20D4 JUMP JUMPDEST SWAP1 POP SWAP2 SWAP1 POP JUMP JUMPDEST PUSH32 0x566F74696E672063616E6E6F7420737461727420756E74696C2063616E646964 PUSH1 0x0 DUP3 ADD MSTORE PUSH32 0x61746573206172652066696E616C697A65642100000000000000000000000000 PUSH1 0x20 DUP3 ADD MSTORE POP JUMP JUMPDEST PUSH1 0x0 PUSH2 0x2173 PUSH1 0x33 DUP4 PUSH2 0x1F3C JUMP JUMPDEST SWAP2 POP PUSH2 0x217E DUP3 PUSH2 0x2117 JUMP JUMPDEST PUSH1 0x40 DUP3 ADD SWAP1 POP SWAP2 SWAP1 POP JUMP JUMPDEST PUSH1 0x0 PUSH1 0x20 DUP3 ADD SWAP1 POP DUP2 DUP2 SUB PUSH1 0x0 DUP4 ADD MSTORE PUSH2 0x21A2 DUP2 PUSH2 0x2166 JUMP JUMPDEST SWAP1 POP SWAP2 SWAP1 POP JUMP JUMPDEST PUSH32 0x4D69736D61746368656420696E707574206C656E677468730000000000000000 PUSH1 0x0 DUP3 ADD MSTORE POP JUMP JUMPDEST PUSH1 0x0 PUSH2 0x21DF PUSH1 0x18 DUP4 PUSH2 0x1F3C JUMP JUMPDEST SWAP2 POP PUSH2 0x21EA DUP3 PUSH2 0x21A9 JUMP JUMPDEST PUSH1 0x20 DUP3 ADD SWAP1 POP SWAP2 SWAP1 POP JUMP JUMPDEST PUSH1 0x0 PUSH1 0x20 DUP3 ADD SWAP1 POP DUP2 DUP2 SUB PUSH1 0x0 DUP4 ADD MSTORE PUSH2 0x220E DUP2 PUSH2 0x21D2 JUMP JUMPDEST SWAP1 POP SWAP2 SWAP1 POP JUMP JUMPDEST PUSH32 0x566F7465722068617320616C726561647920766F746564000000000000000000 PUSH1 0x0 DUP3 ADD MSTORE POP JUMP JUMPDEST PUSH1 0x0 PUSH2 0x224B PUSH1 0x17 DUP4 PUSH2 0x1F3C JUMP JUMPDEST SWAP2 POP PUSH2 0x2256 DUP3 PUSH2 0x2215 JUMP JUMPDEST PUSH1 0x20 DUP3 ADD SWAP1 POP SWAP2 SWAP1 POP JUMP JUMPDEST PUSH1 0x0 PUSH1 0x20 DUP3 ADD SWAP1 POP DUP2 DUP2 SUB PUSH1 0x0 DUP4 ADD MSTORE PUSH2 0x227A DUP2 PUSH2 0x223E JUMP JUMPDEST SWAP1 POP SWAP2 SWAP1 POP JUMP JUMPDEST PUSH32 0x496E76616C69642063616E64696461746520696E646578000000000000000000 PUSH1 0x0 DUP3 ADD MSTORE POP JUMP JUMPDEST PUSH1 0x0 PUSH2 0x22B7 PUSH1 0x17 DUP4 PUSH2 0x1F3C JUMP JUMPDEST SWAP2 POP PUSH2 0x22C2 DUP3 PUSH2 0x2281 JUMP JUMPDEST PUSH1 0x20 DUP3 ADD SWAP1 POP SWAP2 SWAP1 POP JUMP JUMPDEST PUSH1 0x0 PUSH1 0x20 DUP3 ADD SWAP1 POP DUP2 DUP2 SUB PUSH1 0x0 DUP4 ADD MSTORE PUSH2 0x22E6 DUP2 PUSH2 0x22AA JUMP JUMPDEST SWAP1 POP SWAP2 SWAP1 POP JUMP JUMPDEST PUSH1 0x0 PUSH1 0x60 DUP3 ADD SWAP1 POP PUSH2 0x2302 PUSH1 0x0 DUP4 ADD DUP7 PUSH2 0x14C8 JUMP JUMPDEST PUSH2 0x230F PUSH1 0x20 DUP4 ADD DUP6 PUSH2 0x14C8 JUMP JUMPDEST PUSH2 0x231C PUSH1 0x40 DUP4 ADD DUP5 PUSH2 0x14C8 JUMP JUMPDEST SWAP5 SWAP4 POP POP POP POP JUMP JUMPDEST PUSH1 0x0 PUSH2 0x232F DUP3 PUSH2 0x14F2 JUMP JUMPDEST SWAP2 POP PUSH2 0x233A DUP4 PUSH2 0x14F2 JUMP JUMPDEST SWAP3 POP DUP3 DUP3 ADD SWAP1 POP DUP1 DUP3 GT ISZERO PUSH2 0x2352 JUMPI PUSH2 0x2351 PUSH2 0x200E JUMP JUMPDEST JUMPDEST SWAP3 SWAP2 POP POP JUMP JUMPDEST PUSH1 0x0 PUSH2 0x2363 DUP3 PUSH2 0x14F2 JUMP JUMPDEST SWAP2 POP PUSH2 0x236E DUP4 PUSH2 0x14F2 JUMP JUMPDEST SWAP3 POP DUP3 DUP3 SUB SWAP1 POP DUP2 DUP2 GT ISZERO PUSH2 0x2386 JUMPI PUSH2 0x2385 PUSH2 0x200E JUMP JUMPDEST JUMPDEST SWAP3 SWAP2 POP POP JUMP INVALID LOG2 PUSH5 0x6970667358 0x22 SLT KECCAK256 0xCC PUSH17 0xCD7695F8110176330FF12D710CF21390E1 0xED 0xA6 RETURNDATASIZE 0xCC MULMOD 0xB1 0x1E 0xE0 DUP6 0x2B PUSH8 0x65B664736F6C6343 STOP ADDMOD ISZERO STOP CALLER "},"methodIdentifiers":{"admin()":"f851a440","batchVote(bytes32[],uint256[],bytes32)":"e7d8e8ad","boardMemberProgramIDs(bytes32)":"56fc64f8","getCandidates(bytes32)":"85b923ca","getPositionList()":"a5d3157e","getVoteCounts()":"ffc97b20","getVoterHashes(bytes32,uint256)":"70918ce3","getWinners()":"df15c37e","isFinalized()":"8d4e4083","resetCandidates()":"7718d9f3","submitCandidates(bytes32[],(bytes32,bytes32)[][],bytes32[])":"adf55ada"}}}}}