{
  "_format": "hh-sol-artifact-1",
  "contractName": "AdminCandidates",
  "sourceName": "contracts/AdminCandidates.sol",
  "abi": [
    {
      "inputs": [],
      "stateMutability": "nonpayable",
      "type": "constructor"
    },
    {
      "anonymous": false,
      "inputs": [],
      "name": "CandidatesSubmitted",
      "type": "event"
    },
    {
      "anonymous": false,
      "inputs": [
        {
          "indexed": false,
          "internalType": "string",
          "name": "position",
          "type": "string"
        },
        {
          "indexed": false,
          "internalType": "string",
          "name": "name",
          "type": "string"
        },
        {
          "indexed": false,
          "internalType": "address",
          "name": "voter",
          "type": "address"
        }
      ],
      "name": "VoteSubmitted",
      "type": "event"
    },
    {
      "inputs": [],
      "name": "admin",
      "outputs": [
        {
          "internalType": "address",
          "name": "",
          "type": "address"
        }
      ],
      "stateMutability": "view",
      "type": "function"
    },
    {
      "inputs": [
        {
          "internalType": "string",
          "name": "_position",
          "type": "string"
        }
      ],
      "name": "getCandidates",
      "outputs": [
        {
          "components": [
            {
              "internalType": "string",
              "name": "name",
              "type": "string"
            },
            {
              "internalType": "string",
              "name": "party",
              "type": "string"
            },
            {
              "internalType": "string",
              "name": "position",
              "type": "string"
            },
            {
              "internalType": "uint256",
              "name": "votes",
              "type": "uint256"
            }
          ],
          "internalType": "struct AdminCandidates.Candidate[]",
          "name": "",
          "type": "tuple[]"
        }
      ],
      "stateMutability": "view",
      "type": "function"
    },
    {
      "inputs": [],
      "name": "getVoteCounts",
      "outputs": [
        {
          "components": [
            {
              "internalType": "string",
              "name": "name",
              "type": "string"
            },
            {
              "internalType": "string",
              "name": "party",
              "type": "string"
            },
            {
              "internalType": "string",
              "name": "position",
              "type": "string"
            },
            {
              "internalType": "uint256",
              "name": "votes",
              "type": "uint256"
            }
          ],
          "internalType": "struct AdminCandidates.Candidate[]",
          "name": "",
          "type": "tuple[]"
        }
      ],
      "stateMutability": "view",
      "type": "function"
    },
    {
      "inputs": [],
      "name": "isFinalized",
      "outputs": [
        {
          "internalType": "bool",
          "name": "",
          "type": "bool"
        }
      ],
      "stateMutability": "view",
      "type": "function"
    },
    {
      "inputs": [
        {
          "internalType": "string[]",
          "name": "_positions",
          "type": "string[]"
        },
        {
          "internalType": "string[][]",
          "name": "_names",
          "type": "string[][]"
        },
        {
          "internalType": "string[][]",
          "name": "_parties",
          "type": "string[][]"
        }
      ],
      "name": "submitCandidates",
      "outputs": [],
      "stateMutability": "nonpayable",
      "type": "function"
    },
    {
      "inputs": [
        {
          "internalType": "string",
          "name": "_position",
          "type": "string"
        },
        {
          "internalType": "uint256",
          "name": "_index",
          "type": "uint256"
        }
      ],
      "name": "vote",
      "outputs": [],
      "stateMutability": "nonpayable",
      "type": "function"
    }
  ],
  "bytecode": "0x60806040526000600360146101000a81548160ff02191690831515021790555034801561002b57600080fd5b5033600360006101000a81548173ffffffffffffffffffffffffffffffffffffffff021916908373ffffffffffffffffffffffffffffffffffffffff160217905550611bf18061007c6000396000f3fe608060405234801561001057600080fd5b50600436106100625760003560e01c806345534763146100675780638d4e40831461009757806395dbea06146100b5578063a6385803146100d1578063f851a440146100ed578063ffc97b201461010b575b600080fd5b610081600480360381019061007c9190610e8f565b610129565b60405161008e91906110a3565b60405180910390f35b61009f610366565b6040516100ac91906110e0565b60405180910390f35b6100cf60048036038101906100ca91906112c2565b610379565b005b6100eb60048036038101906100e69190611395565b610736565b005b6100f561085b565b6040516101029190611432565b60405180910390f35b610113610881565b60405161012091906110a3565b60405180910390f35b606060008260405161013b9190611489565b9081526020016040518091039020805480602002602001604051908101604052809291908181526020016000905b8282101561035b578382906000526020600020906004020160405180608001604052908160008201805461019c906114cf565b80601f01602080910402602001604051908101604052809291908181526020018280546101c8906114cf565b80156102155780601f106101ea57610100808354040283529160200191610215565b820191906000526020600020905b8154815290600101906020018083116101f857829003601f168201915b5050505050815260200160018201805461022e906114cf565b80601f016020809104026020016040519081016040528092919081815260200182805461025a906114cf565b80156102a75780601f1061027c576101008083540402835291602001916102a7565b820191906000526020600020905b81548152906001019060200180831161028a57829003601f168201915b505050505081526020016002820180546102c0906114cf565b80601f01602080910402602001604051908101604052809291908181526020018280546102ec906114cf565b80156103395780601f1061030e57610100808354040283529160200191610339565b820191906000526020600020905b81548152906001019060200180831161031c57829003601f168201915b5050505050815260200160038201548152505081526020019060010190610169565b505050509050919050565b600360149054906101000a900460ff1681565b600360009054906101000a900473ffffffffffffffffffffffffffffffffffffffff1673ffffffffffffffffffffffffffffffffffffffff163373ffffffffffffffffffffffffffffffffffffffff1614610409576040517f08c379a000000000000000000000000000000000000000000000000000000000815260040161040090611583565b60405180910390fd5b600360149054906101000a900460ff1615610459576040517f08c379a000000000000000000000000000000000000000000000000000000000815260040161045090611615565b60405180910390fd5b600260006104679190610bf8565b60005b83518110156106e95760008085838151811061048957610488611635565b5b602002602001015160405161049e9190611489565b908152602001604051809103902080549050036105055760028482815181106104ca576104c9611635565b5b60200260200101519080600181540180825580915050600190039060005260206000200160009091909190915090816105039190611810565b505b600084828151811061051a57610519611635565b5b602002602001015160405161052f9190611489565b908152602001604051809103902060006105499190610c19565b60005b83828151811061055f5761055e611635565b5b6020026020010151518110156106d557600085838151811061058457610583611635565b5b60200260200101516040516105999190611489565b908152602001604051809103902060405180608001604052808685815181106105c5576105c4611635565b5b602002602001015184815181106105df576105de611635565b5b602002602001015181526020018585815181106105ff576105fe611635565b5b6020026020010151848151811061061957610618611635565b5b6020026020010151815260200187858151811061063957610638611635565b5b602002602001015181526020016000815250908060018154018082558091505060019003906000526020600020906004020160009091909190915060008201518160000190816106899190611810565b50602082015181600101908161069f9190611810565b5060408201518160020190816106b59190611810565b5060608201518160030155505080806106cd90611911565b91505061054c565b5080806106e190611911565b91505061046a565b506001600360146101000a81548160ff0219169083151502179055507f86825b43264ca968e676c45c8e05cc56965ff5938ed49dcf636c61acb7070bd760405160405180910390a1505050565b600360149054906101000a900460ff16610785576040517f08c379a000000000000000000000000000000000000000000000000000000000815260040161077c906119cb565b60405180910390fd5b6000826040516107959190611489565b908152602001604051809103902081815481106107b5576107b4611635565b5b906000526020600020906004020160030160008154809291906107d790611911565b91905055507f1b381b38c380bfb906cc626e80fedde86905216a4d956a279df2e37802d3316e8260008460405161080e9190611489565b9081526020016040518091039020838154811061082e5761082d611635565b5b90600052602060002090600402016000013360405161084f93929190611aa8565b60405180910390a15050565b600360009054906101000a900473ffffffffffffffffffffffffffffffffffffffff1681565b6060600080600090505b6002805490508110156108f7576000600282815481106108ae576108ad611635565b5b906000526020600020016040516108c59190611b70565b908152602001604051809103902080549050826108e29190611b87565b915080806108ef90611911565b91505061088b565b5060008167ffffffffffffffff81111561091457610913610d64565b5b60405190808252806020026020018201604052801561094d57816020015b61093a610c3d565b8152602001906001900390816109325790505b5090506000805b600280549050811015610bee576000806002838154811061097857610977611635565b5b9060005260206000200160405161098f9190611b70565b9081526020016040518091039020905060005b8180549050811015610bd9578181815481106109c1576109c0611635565b5b90600052602060002090600402016040518060800160405290816000820180546109ea906114cf565b80601f0160208091040260200160405190810160405280929190818152602001828054610a16906114cf565b8015610a635780601f10610a3857610100808354040283529160200191610a63565b820191906000526020600020905b815481529060010190602001808311610a4657829003601f168201915b50505050508152602001600182018054610a7c906114cf565b80601f0160208091040260200160405190810160405280929190818152602001828054610aa8906114cf565b8015610af55780601f10610aca57610100808354040283529160200191610af5565b820191906000526020600020905b815481529060010190602001808311610ad857829003601f168201915b50505050508152602001600282018054610b0e906114cf565b80601f0160208091040260200160405190810160405280929190818152602001828054610b3a906114cf565b8015610b875780601f10610b5c57610100808354040283529160200191610b87565b820191906000526020600020905b815481529060010190602001808311610b6a57829003601f168201915b50505050508152602001600382015481525050858581518110610bad57610bac611635565b5b60200260200101819052508380610bc390611911565b9450508080610bd190611911565b9150506109a2565b50508080610be690611911565b915050610954565b5081935050505090565b5080546000825590600052602060002090810190610c169190610c65565b50565b5080546000825560040290600052602060002090810190610c3a9190610c89565b50565b6040518060800160405280606081526020016060815260200160608152602001600081525090565b5b80821115610c855760008181610c7c9190610cd8565b50600101610c66565b5090565b5b80821115610cd45760008082016000610ca39190610cd8565b600182016000610cb39190610cd8565b600282016000610cc39190610cd8565b600382016000905550600401610c8a565b5090565b508054610ce4906114cf565b6000825580601f10610cf65750610d15565b601f016020900490600052602060002090810190610d149190610d18565b5b50565b5b80821115610d31576000816000905550600101610d19565b5090565b6000604051905090565b600080fd5b600080fd5b600080fd5b600080fd5b6000601f19601f8301169050919050565b7f4e487b7100000000000000000000000000000000000000000000000000000000600052604160045260246000fd5b610d9c82610d53565b810181811067ffffffffffffffff82111715610dbb57610dba610d64565b5b80604052505050565b6000610dce610d35565b9050610dda8282610d93565b919050565b600067ffffffffffffffff821115610dfa57610df9610d64565b5b610e0382610d53565b9050602081019050919050565b82818337600083830152505050565b6000610e32610e2d84610ddf565b610dc4565b905082815260208101848484011115610e4e57610e4d610d4e565b5b610e59848285610e10565b509392505050565b600082601f830112610e7657610e75610d49565b5b8135610e86848260208601610e1f565b91505092915050565b600060208284031215610ea557610ea4610d3f565b5b600082013567ffffffffffffffff811115610ec357610ec2610d44565b5b610ecf84828501610e61565b91505092915050565b600081519050919050565b600082825260208201905092915050565b6000819050602082019050919050565b600081519050919050565b600082825260208201905092915050565b60005b83811015610f3e578082015181840152602081019050610f23565b60008484015250505050565b6000610f5582610f04565b610f5f8185610f0f565b9350610f6f818560208601610f20565b610f7881610d53565b840191505092915050565b6000819050919050565b610f9681610f83565b82525050565b60006080830160008301518482036000860152610fb98282610f4a565b91505060208301518482036020860152610fd38282610f4a565b91505060408301518482036040860152610fed8282610f4a565b91505060608301516110026060860182610f8d565b508091505092915050565b60006110198383610f9c565b905092915050565b6000602082019050919050565b600061103982610ed8565b6110438185610ee3565b93508360208202850161105585610ef4565b8060005b858110156110915784840389528151611072858261100d565b945061107d83611021565b925060208a01995050600181019050611059565b50829750879550505050505092915050565b600060208201905081810360008301526110bd818461102e565b905092915050565b60008115159050919050565b6110da816110c5565b82525050565b60006020820190506110f560008301846110d1565b92915050565b600067ffffffffffffffff82111561111657611115610d64565b5b602082029050602081019050919050565b600080fd5b600061113f61113a846110fb565b610dc4565b9050808382526020820190506020840283018581111561116257611161611127565b5b835b818110156111a957803567ffffffffffffffff81111561118757611186610d49565b5b8086016111948982610e61565b85526020850194505050602081019050611164565b5050509392505050565b600082601f8301126111c8576111c7610d49565b5b81356111d884826020860161112c565b91505092915050565b600067ffffffffffffffff8211156111fc576111fb610d64565b5b602082029050602081019050919050565b600061122061121b846111e1565b610dc4565b9050808382526020820190506020840283018581111561124357611242611127565b5b835b8181101561128a57803567ffffffffffffffff81111561126857611267610d49565b5b80860161127589826111b3565b85526020850194505050602081019050611245565b5050509392505050565b600082601f8301126112a9576112a8610d49565b5b81356112b984826020860161120d565b91505092915050565b6000806000606084860312156112db576112da610d3f565b5b600084013567ffffffffffffffff8111156112f9576112f8610d44565b5b611305868287016111b3565b935050602084013567ffffffffffffffff81111561132657611325610d44565b5b61133286828701611294565b925050604084013567ffffffffffffffff81111561135357611352610d44565b5b61135f86828701611294565b9150509250925092565b61137281610f83565b811461137d57600080fd5b50565b60008135905061138f81611369565b92915050565b600080604083850312156113ac576113ab610d3f565b5b600083013567ffffffffffffffff8111156113ca576113c9610d44565b5b6113d685828601610e61565b92505060206113e785828601611380565b9150509250929050565b600073ffffffffffffffffffffffffffffffffffffffff82169050919050565b600061141c826113f1565b9050919050565b61142c81611411565b82525050565b60006020820190506114476000830184611423565b92915050565b600081905092915050565b600061146382610f04565b61146d818561144d565b935061147d818560208601610f20565b80840191505092915050565b60006114958284611458565b915081905092915050565b7f4e487b7100000000000000000000000000000000000000000000000000000000600052602260045260246000fd5b600060028204905060018216806114e757607f821691505b6020821081036114fa576114f96114a0565b5b50919050565b600082825260208201905092915050565b7f4f6e6c792061646d696e2063616e20706572666f726d2074686973206163746960008201527f6f6e000000000000000000000000000000000000000000000000000000000000602082015250565b600061156d602283611500565b915061157882611511565b604082019050919050565b6000602082019050818103600083015261159c81611560565b9050919050565b7f43616e646964617465732061726520616c72656164792066696e616c697a656460008201527f2100000000000000000000000000000000000000000000000000000000000000602082015250565b60006115ff602183611500565b915061160a826115a3565b604082019050919050565b6000602082019050818103600083015261162e816115f2565b9050919050565b7f4e487b7100000000000000000000000000000000000000000000000000000000600052603260045260246000fd5b60008190508160005260206000209050919050565b60006020601f8301049050919050565b600082821b905092915050565b6000600883026116c67fffffffffffffffffffffffffffffffffffffffffffffffffffffffffffffffff82611689565b6116d08683611689565b95508019841693508086168417925050509392505050565b6000819050919050565b600061170d61170861170384610f83565b6116e8565b610f83565b9050919050565b6000819050919050565b611727836116f2565b61173b61173382611714565b848454611696565b825550505050565b600090565b611750611743565b61175b81848461171e565b505050565b5b8181101561177f57611774600082611748565b600181019050611761565b5050565b601f8211156117c45761179581611664565b61179e84611679565b810160208510156117ad578190505b6117c16117b985611679565b830182611760565b50505b505050565b600082821c905092915050565b60006117e7600019846008026117c9565b1980831691505092915050565b600061180083836117d6565b9150826002028217905092915050565b61181982610f04565b67ffffffffffffffff81111561183257611831610d64565b5b61183c82546114cf565b611847828285611783565b600060209050601f83116001811461187a5760008415611868578287015190505b61187285826117f4565b8655506118da565b601f19841661188886611664565b60005b828110156118b05784890151825560018201915060208501945060208101905061188b565b868310156118cd57848901516118c9601f8916826117d6565b8355505b6001600288020188555050505b505050505050565b7f4e487b7100000000000000000000000000000000000000000000000000000000600052601160045260246000fd5b600061191c82610f83565b91507fffffffffffffffffffffffffffffffffffffffffffffffffffffffffffffffff820361194e5761194d6118e2565b5b600182019050919050565b7f566f74696e672063616e6e6f7420737461727420756e74696c2063616e64696460008201527f61746573206172652066696e616c697a65642100000000000000000000000000602082015250565b60006119b5603383611500565b91506119c082611959565b604082019050919050565b600060208201905081810360008301526119e4816119a8565b9050919050565b60006119f682610f04565b611a008185611500565b9350611a10818560208601610f20565b611a1981610d53565b840191505092915050565b60008154611a31816114cf565b611a3b8186611500565b94506001821660008114611a565760018114611a6c57611a9f565b60ff198316865281151560200286019350611a9f565b611a7585611664565b60005b83811015611a9757815481890152600182019150602081019050611a78565b808801955050505b50505092915050565b60006060820190508181036000830152611ac281866119eb565b90508181036020830152611ad68185611a24565b9050611ae56040830184611423565b949350505050565b60008154611afa816114cf565b611b04818661144d565b94506001821660008114611b1f5760018114611b3457611b67565b60ff1983168652811515820286019350611b67565b611b3d85611664565b60005b83811015611b5f57815481890152600182019150602081019050611b40565b838801955050505b50505092915050565b6000611b7c8284611aed565b915081905092915050565b6000611b9282610f83565b9150611b9d83610f83565b9250828201905080821115611bb557611bb46118e2565b5b9291505056fea2646970667358221220b2fab77f29aace6622e81f2a049ae65b36c7ee33d9b9b263a82a4854ee4cf61364736f6c63430008150033",
  "linkReferences": {},
  "deployedLinkReferences": {}
}