{
  "_format": "hh-sol-artifact-1",
  "contractName": "AdminCandidates",
  "sourceName": "contracts/AdminCandidates.sol",
  "abi": [
    {
      "inputs": [],
      "stateMutability": "nonpayable",
      "type": "constructor"
    },
    {
      "anonymous": false,
      "inputs": [],
      "name": "CandidatesReset",
      "type": "event"
    },
    {
      "anonymous": false,
      "inputs": [],
      "name": "CandidatesSubmitted",
      "type": "event"
    },
    {
      "anonymous": false,
      "inputs": [
        {
          "indexed": false,
          "internalType": "bytes32",
          "name": "position",
          "type": "bytes32"
        },
        {
          "indexed": false,
          "internalType": "bytes32",
          "name": "name",
          "type": "bytes32"
        },
        {
          "indexed": false,
          "internalType": "bytes32",
          "name": "voterHash",
          "type": "bytes32"
        }
      ],
      "name": "VoteSubmitted",
      "type": "event"
    },
    {
      "inputs": [],
      "name": "admin",
      "outputs": [
        {
          "internalType": "address",
          "name": "",
          "type": "address"
        }
      ],
      "stateMutability": "view",
      "type": "function"
    },
    {
      "inputs": [
        {
          "internalType": "bytes32[]",
          "name": "_positions",
          "type": "bytes32[]"
        },
        {
          "internalType": "uint256[]",
          "name": "_indices",
          "type": "uint256[]"
        },
        {
          "internalType": "bytes32",
          "name": "_voterHash",
          "type": "bytes32"
        }
      ],
      "name": "batchVote",
      "outputs": [],
      "stateMutability": "nonpayable",
      "type": "function"
    },
    {
      "inputs": [
        {
          "internalType": "bytes32",
          "name": "",
          "type": "bytes32"
        }
      ],
      "name": "boardMemberInfo",
      "outputs": [
        {
          "internalType": "bytes32",
          "name": "programPart1",
          "type": "bytes32"
        },
        {
          "internalType": "bytes32",
          "name": "programPart2",
          "type": "bytes32"
        },
        {
          "internalType": "bytes32",
          "name": "programPart3",
          "type": "bytes32"
        }
      ],
      "stateMutability": "view",
      "type": "function"
    },
    {
      "inputs": [
        {
          "internalType": "bytes32",
          "name": "_position",
          "type": "bytes32"
        }
      ],
      "name": "getCandidates",
      "outputs": [
        {
          "components": [
            {
              "internalType": "bytes32",
              "name": "name",
              "type": "bytes32"
            },
            {
              "internalType": "bytes32",
              "name": "party",
              "type": "bytes32"
            }
          ],
          "internalType": "struct AdminCandidates.CandidateEntry[]",
          "name": "",
          "type": "tuple[]"
        }
      ],
      "stateMutability": "view",
      "type": "function"
    },
    {
      "inputs": [],
      "name": "getPositionList",
      "outputs": [
        {
          "internalType": "bytes32[]",
          "name": "",
          "type": "bytes32[]"
        }
      ],
      "stateMutability": "view",
      "type": "function"
    },
    {
      "inputs": [],
      "name": "getVoteCounts",
      "outputs": [
        {
          "components": [
            {
              "internalType": "bytes32",
              "name": "name",
              "type": "bytes32"
            },
            {
              "internalType": "bytes32",
              "name": "party",
              "type": "bytes32"
            }
          ],
          "internalType": "struct AdminCandidates.CandidateEntry[]",
          "name": "",
          "type": "tuple[]"
        },
        {
          "internalType": "uint256[]",
          "name": "",
          "type": "uint256[]"
        }
      ],
      "stateMutability": "view",
      "type": "function"
    },
    {
      "inputs": [
        {
          "internalType": "bytes32",
          "name": "_position",
          "type": "bytes32"
        },
        {
          "internalType": "uint256",
          "name": "_index",
          "type": "uint256"
        }
      ],
      "name": "getVoterHashes",
      "outputs": [
        {
          "internalType": "bytes32[]",
          "name": "",
          "type": "bytes32[]"
        }
      ],
      "stateMutability": "view",
      "type": "function"
    },
    {
      "inputs": [],
      "name": "getWinners",
      "outputs": [
        {
          "components": [
            {
              "internalType": "bytes32",
              "name": "position",
              "type": "bytes32"
            },
            {
              "internalType": "bytes32",
              "name": "name",
              "type": "bytes32"
            },
            {
              "internalType": "bytes32",
              "name": "party",
              "type": "bytes32"
            },
            {
              "internalType": "uint256",
              "name": "votes",
              "type": "uint256"
            }
          ],
          "internalType": "struct AdminCandidates.Winner[]",
          "name": "",
          "type": "tuple[]"
        }
      ],
      "stateMutability": "view",
      "type": "function"
    },
    {
      "inputs": [],
      "name": "isFinalized",
      "outputs": [
        {
          "internalType": "bool",
          "name": "",
          "type": "bool"
        }
      ],
      "stateMutability": "view",
      "type": "function"
    },
    {
      "inputs": [],
      "name": "resetCandidates",
      "outputs": [],
      "stateMutability": "nonpayable",
      "type": "function"
    },
    {
      "inputs": [
        {
          "internalType": "bytes32[]",
          "name": "_positions",
          "type": "bytes32[]"
        },
        {
          "components": [
            {
              "internalType": "bytes32",
              "name": "name",
              "type": "bytes32"
            },
            {
              "internalType": "bytes32",
              "name": "party",
              "type": "bytes32"
            }
          ],
          "internalType": "struct AdminCandidates.CandidateEntry[][]",
          "name": "_candidates",
          "type": "tuple[][]"
        },
        {
          "internalType": "bytes32[]",
          "name": "_boardMemberProgramsPart1",
          "type": "bytes32[]"
        },
        {
          "internalType": "bytes32[]",
          "name": "_boardMemberProgramsPart2",
          "type": "bytes32[]"
        },
        {
          "internalType": "bytes32[]",
          "name": "_boardMemberProgramsPart3",
          "type": "bytes32[]"
        }
      ],
      "name": "submitCandidates",
      "outputs": [],
      "stateMutability": "nonpayable",
      "type": "function"
    }
  ],
  "bytecode": "0x60806040526000600560146101000a81548160ff02191690831515021790555034801561002b57600080fd5b5033600560006101000a81548173ffffffffffffffffffffffffffffffffffffffff021916908373ffffffffffffffffffffffffffffffffffffffff1602179055506124538061007c6000396000f3fe608060405234801561001057600080fd5b50600436106100a95760003560e01c8063a5d3157e11610071578063a5d3157e14610152578063df15c37e14610170578063e64e84831461018e578063e7d8e8ad146101c0578063f851a440146101dc578063ffc97b20146101fa576100a9565b806370918ce3146100ae5780637718d9f3146100de57806385b923ca146100e85780638d4e4083146101185780639b51c62e14610136575b600080fd5b6100c860048036038101906100c3919061151d565b610219565b6040516100d5919061161b565b60405180910390f35b6100e6610296565b005b61010260048036038101906100fd919061163d565b6103e3565b60405161010f9190611748565b60405180910390f35b6101206104ff565b60405161012d9190611785565b60405180910390f35b610150600480360381019061014b9190611af2565b610512565b005b61015a610986565b604051610167919061161b565b60405180910390f35b6101786109de565b6040516101859190611d0c565b60405180910390f35b6101a860048036038101906101a3919061163d565b610bb9565b6040516101b793929190611d3d565b60405180910390f35b6101da60048036038101906101d59190611e37565b610be3565b005b6101e4610ec5565b6040516101f19190611f03565b60405180910390f35b610202610eeb565b604051610210929190611fcd565b60405180910390f35b606060016000848152602001908152602001600020600083815260200190815260200160002080548060200260200160405190810160405280929190818152602001828054801561028957602002820191906000526020600020905b815481526020019060010190808311610275575b5050505050905092915050565b600560009054906101000a900473ffffffffffffffffffffffffffffffffffffffff1673ffffffffffffffffffffffffffffffffffffffff163373ffffffffffffffffffffffffffffffffffffffff1614610326576040517f08c379a000000000000000000000000000000000000000000000000000000000815260040161031d90612087565b60405180910390fd5b60005b60038054905081101561038b5760006003828154811061034c5761034b6120a7565b5b90600052602060002001549050600080828152602001908152602001600020600061037791906113bb565b50808061038390612105565b915050610329565b506003600061039a91906113df565b6000600560146101000a81548160ff0219169083151502179055507f800bdaa40887ccfd790fdc79f47cf3acbb2a1ecf28b3bccb67e3719009c1bab260405160405180910390a1565b6060600080600084815260200190815260200160002090506000818054905067ffffffffffffffff81111561041b5761041a6117b6565b5b60405190808252806020026020018201604052801561045457816020015b610441611400565b8152602001906001900390816104395790505b50905060005b82805490508110156104f4576040518060400160405280848381548110610484576104836120a7565b5b90600052602060002090600302016000015481526020018483815481106104ae576104ad6120a7565b5b9060005260206000209060030201600101548152508282815181106104d6576104d56120a7565b5b602002602001018190525080806104ec90612105565b91505061045a565b508092505050919050565b600560149054906101000a900460ff1681565b600560009054906101000a900473ffffffffffffffffffffffffffffffffffffffff1673ffffffffffffffffffffffffffffffffffffffff163373ffffffffffffffffffffffffffffffffffffffff16146105a2576040517f08c379a000000000000000000000000000000000000000000000000000000000815260040161059990612087565b60405180910390fd5b600560149054906101000a900460ff16156105f2576040517f08c379a00000000000000000000000000000000000000000000000000000000081526004016105e9906121bf565b60405180910390fd5b6003600061060091906113df565b60005b8551811015610937576000806000888481518110610624576106236120a7565b5b602002602001015181526020019081526020016000208054905003610687576003868281518110610658576106576120a7565b5b602002602001015190806001815401808255809150506001900390600052602060002001600090919091909150555b60008087838151811061069d5761069c6120a7565b5b6020026020010151815260200190815260200160002060006106bf91906113bb565b60005b8582815181106106d5576106d46120a7565b5b602002602001015151811015610843576000808884815181106106fb576106fa6120a7565b5b60200260200101518152602001908152602001600020604051806060016040528088858151811061072f5761072e6120a7565b5b60200260200101518481518110610749576107486120a7565b5b602002602001015160000151815260200188858151811061076d5761076c6120a7565b5b60200260200101518481518110610787576107866120a7565b5b6020026020010151602001518152602001600081525090806001815401808255809150506001900390600052602060002090600302016000909190919091506000820151816000015560208201518160010155604082015181600201555050600160008884815181106107fd576107fc6120a7565b5b602002602001015181526020019081526020016000206000828152602001908152602001600020600061083091906113df565b808061083b90612105565b9150506106c2565b5061086786828151811061085a576108596120a7565b5b602002602001015161114b565b1561092457604051806060016040528085838151811061088a576108896120a7565b5b602002602001015181526020018483815181106108aa576108a96120a7565b5b602002602001015181526020018383815181106108ca576108c96120a7565b5b6020026020010151815250600460008884815181106108ec576108eb6120a7565b5b602002602001015181526020019081526020016000206000820151816000015560208201518160010155604082015181600201559050505b808061092f90612105565b915050610603565b506001600560146101000a81548160ff0219169083151502179055507f86825b43264ca968e676c45c8e05cc56965ff5938ed49dcf636c61acb7070bd760405160405180910390a15050505050565b606060038054806020026020016040519081016040528092919081815260200182805480156109d457602002820191906000526020600020905b8154815260200190600101908083116109c0575b5050505050905090565b60606000600380549050905060008167ffffffffffffffff811115610a0657610a056117b6565b5b604051908082528060200260200182016040528015610a3f57816020015b610a2c611420565b815260200190600190039081610a245790505b50905060005b82811015610bb057600060038281548110610a6357610a626120a7565b5b90600052602060002001549050600080600083815260200190815260200160002090506000806000805b8480549050811015610b1057811580610ac9575083858281548110610ab557610ab46120a7565b5b906000526020600020906003020160020154115b15610afd57848181548110610ae157610ae06120a7565b5b9060005260206000209060030201600201549350809250600191505b8080610b0890612105565b915050610a8d565b506040518060800160405280868152602001858481548110610b3557610b346120a7565b5b9060005260206000209060030201600001548152602001858481548110610b5f57610b5e6120a7565b5b906000526020600020906003020160010154815260200184815250878781518110610b8d57610b8c6120a7565b5b602002602001018190525050505050508080610ba890612105565b915050610a45565b50809250505090565b60046020528060005260406000206000915090508060000154908060010154908060020154905083565b600560149054906101000a900460ff16610c32576040517f08c379a0000000000000000000000000000000000000000000000000000000008152600401610c2990612251565b60405180910390fd5b8151835114610c76576040517f08c379a0000000000000000000000000000000000000000000000000000000008152600401610c6d906122bd565b60405180910390fd5b6002600082815260200190815260200160002060009054906101000a900460ff1615610cd7576040517f08c379a0000000000000000000000000000000000000000000000000000000008152600401610cce90612329565b60405180910390fd5b60016002600083815260200190815260200160002060006101000a81548160ff02191690831515021790555060005b8351811015610ebf576000848281518110610d2457610d236120a7565b5b602002602001015190506000848381518110610d4357610d426120a7565b5b60200260200101519050600080838152602001908152602001600020805490508110610da4576040517f08c379a0000000000000000000000000000000000000000000000000000000008152600401610d9b90612395565b60405180910390fd5b6000808381526020019081526020016000208181548110610dc857610dc76120a7565b5b90600052602060002090600302016002016000815480929190610dea90612105565b91905055506001600083815260200190815260200160002060008281526020019081526020016000208490806001815401808255809150506001900390600052602060002001600090919091909150557f178e76faa844f1c429cbe43bb805a70530f990ef2acc87f8f626ac80ff484909826000808581526020019081526020016000208381548110610e8057610e7f6120a7565b5b90600052602060002090600302016000015486604051610ea293929190611d3d565b60405180910390a150508080610eb790612105565b915050610d06565b50505050565b600560009054906101000a900473ffffffffffffffffffffffffffffffffffffffff1681565b6060806000805b600380549050811015610f535760008060038381548110610f1657610f156120a7565b5b906000526020600020015481526020019081526020016000208054905082610f3e91906123b5565b91508080610f4b90612105565b915050610ef2565b5060008167ffffffffffffffff811115610f7057610f6f6117b6565b5b604051908082528060200260200182016040528015610fa957816020015b610f96611400565b815260200190600190039081610f8e5790505b50905060008267ffffffffffffffff811115610fc857610fc76117b6565b5b604051908082528060200260200182016040528015610ff65781602001602082028036833780820191505090505b5090506000805b60038054905081101561113c57600080600060038481548110611023576110226120a7565b5b90600052602060002001548152602001908152602001600020905060005b818054905081101561112757604051806040016040528083838154811061106b5761106a6120a7565b5b9060005260206000209060030201600001548152602001838381548110611095576110946120a7565b5b9060005260206000209060030201600101548152508685815181106110bd576110bc6120a7565b5b60200260200101819052508181815481106110db576110da6120a7565b5b906000526020600020906003020160020154858581518110611100576110ff6120a7565b5b6020026020010181815250508380600101945050808061111f90612105565b915050611041565b5050808061113490612105565b915050610ffd565b50828295509550505050509091565b60008061115783611285565b9050600081905060006040518060400160405280600f81526020017f202d20426f617264204d656d626572000000000000000000000000000000000081525090508051825110156111ae5760009350505050611280565b60005b8151811015611277578181815181106111cd576111cc6120a7565b5b602001015160f81c60f81b7effffffffffffffffffffffffffffffffffffffffffffffffffffffffffffff191683828451865161120a91906123e9565b61121491906123b5565b81518110611225576112246120a7565b5b602001015160f81c60f81b7effffffffffffffffffffffffffffffffffffffffffffffffffffffffffffff191614611264576000945050505050611280565b808061126f90612105565b9150506111b1565b50600193505050505b919050565b606060005b6020811080156112d65750600060f81b8382602081106112ad576112ac6120a7565b5b1a60f81b7effffffffffffffffffffffffffffffffffffffffffffffffffffffffffffff191614155b156112e857808060010191505061128a565b60008167ffffffffffffffff811115611304576113036117b6565b5b6040519080825280601f01601f1916602001820160405280156113365781602001600182028036833780820191505090505b50905060005b828110156113b057848160208110611357576113566120a7565b5b1a60f81b82828151811061136e5761136d6120a7565b5b60200101907effffffffffffffffffffffffffffffffffffffffffffffffffffffffffffff1916908160001a90535080806113a890612105565b91505061133c565b508092505050919050565b50805460008255600302906000526020600020908101906113dc9190611451565b50565b50805460008255906000526020600020908101906113fd9190611480565b50565b604051806040016040528060008019168152602001600080191681525090565b6040518060800160405280600080191681526020016000801916815260200160008019168152602001600081525090565b5b8082111561147c576000808201600090556001820160009055600282016000905550600301611452565b5090565b5b80821115611499576000816000905550600101611481565b5090565b6000604051905090565b600080fd5b600080fd5b6000819050919050565b6114c4816114b1565b81146114cf57600080fd5b50565b6000813590506114e1816114bb565b92915050565b6000819050919050565b6114fa816114e7565b811461150557600080fd5b50565b600081359050611517816114f1565b92915050565b60008060408385031215611534576115336114a7565b5b6000611542858286016114d2565b925050602061155385828601611508565b9150509250929050565b600081519050919050565b600082825260208201905092915050565b6000819050602082019050919050565b611592816114b1565b82525050565b60006115a48383611589565b60208301905092915050565b6000602082019050919050565b60006115c88261155d565b6115d28185611568565b93506115dd83611579565b8060005b8381101561160e5781516115f58882611598565b9750611600836115b0565b9250506001810190506115e1565b5085935050505092915050565b6000602082019050818103600083015261163581846115bd565b905092915050565b600060208284031215611653576116526114a7565b5b6000611661848285016114d2565b91505092915050565b600081519050919050565b600082825260208201905092915050565b6000819050602082019050919050565b6040820160008201516116ac6000850182611589565b5060208201516116bf6020850182611589565b50505050565b60006116d18383611696565b60408301905092915050565b6000602082019050919050565b60006116f58261166a565b6116ff8185611675565b935061170a83611686565b8060005b8381101561173b57815161172288826116c5565b975061172d836116dd565b92505060018101905061170e565b5085935050505092915050565b6000602082019050818103600083015261176281846116ea565b905092915050565b60008115159050919050565b61177f8161176a565b82525050565b600060208201905061179a6000830184611776565b92915050565b600080fd5b6000601f19601f8301169050919050565b7f4e487b7100000000000000000000000000000000000000000000000000000000600052604160045260246000fd5b6117ee826117a5565b810181811067ffffffffffffffff8211171561180d5761180c6117b6565b5b80604052505050565b600061182061149d565b905061182c82826117e5565b919050565b600067ffffffffffffffff82111561184c5761184b6117b6565b5b602082029050602081019050919050565b600080fd5b600061187561187084611831565b611816565b905080838252602082019050602084028301858111156118985761189761185d565b5b835b818110156118c157806118ad88826114d2565b84526020840193505060208101905061189a565b5050509392505050565b600082601f8301126118e0576118df6117a0565b5b81356118f0848260208601611862565b91505092915050565b600067ffffffffffffffff821115611914576119136117b6565b5b602082029050602081019050919050565b600067ffffffffffffffff8211156119405761193f6117b6565b5b602082029050602081019050919050565b600080fd5b60006040828403121561196c5761196b611951565b5b6119766040611816565b90506000611986848285016114d2565b600083015250602061199a848285016114d2565b60208301525092915050565b60006119b96119b484611925565b611816565b905080838252602082019050604084028301858111156119dc576119db61185d565b5b835b81811015611a0557806119f18882611956565b8452602084019350506040810190506119de565b5050509392505050565b600082601f830112611a2457611a236117a0565b5b8135611a348482602086016119a6565b91505092915050565b6000611a50611a4b846118f9565b611816565b90508083825260208201905060208402830185811115611a7357611a7261185d565b5b835b81811015611aba57803567ffffffffffffffff811115611a9857611a976117a0565b5b808601611aa58982611a0f565b85526020850194505050602081019050611a75565b5050509392505050565b600082601f830112611ad957611ad86117a0565b5b8135611ae9848260208601611a3d565b91505092915050565b600080600080600060a08688031215611b0e57611b0d6114a7565b5b600086013567ffffffffffffffff811115611b2c57611b2b6114ac565b5b611b38888289016118cb565b955050602086013567ffffffffffffffff811115611b5957611b586114ac565b5b611b6588828901611ac4565b945050604086013567ffffffffffffffff811115611b8657611b856114ac565b5b611b92888289016118cb565b935050606086013567ffffffffffffffff811115611bb357611bb26114ac565b5b611bbf888289016118cb565b925050608086013567ffffffffffffffff811115611be057611bdf6114ac565b5b611bec888289016118cb565b9150509295509295909350565b600081519050919050565b600082825260208201905092915050565b6000819050602082019050919050565b611c2e816114e7565b82525050565b608082016000820151611c4a6000850182611589565b506020820151611c5d6020850182611589565b506040820151611c706040850182611589565b506060820151611c836060850182611c25565b50505050565b6000611c958383611c34565b60808301905092915050565b6000602082019050919050565b6000611cb982611bf9565b611cc38185611c04565b9350611cce83611c15565b8060005b83811015611cff578151611ce68882611c89565b9750611cf183611ca1565b925050600181019050611cd2565b5085935050505092915050565b60006020820190508181036000830152611d268184611cae565b905092915050565b611d37816114b1565b82525050565b6000606082019050611d526000830186611d2e565b611d5f6020830185611d2e565b611d6c6040830184611d2e565b949350505050565b600067ffffffffffffffff821115611d8f57611d8e6117b6565b5b602082029050602081019050919050565b6000611db3611dae84611d74565b611816565b90508083825260208201905060208402830185811115611dd657611dd561185d565b5b835b81811015611dff5780611deb8882611508565b845260208401935050602081019050611dd8565b5050509392505050565b600082601f830112611e1e57611e1d6117a0565b5b8135611e2e848260208601611da0565b91505092915050565b600080600060608486031215611e5057611e4f6114a7565b5b600084013567ffffffffffffffff811115611e6e57611e6d6114ac565b5b611e7a868287016118cb565b935050602084013567ffffffffffffffff811115611e9b57611e9a6114ac565b5b611ea786828701611e09565b9250506040611eb8868287016114d2565b9150509250925092565b600073ffffffffffffffffffffffffffffffffffffffff82169050919050565b6000611eed82611ec2565b9050919050565b611efd81611ee2565b82525050565b6000602082019050611f186000830184611ef4565b92915050565b600081519050919050565b600082825260208201905092915050565b6000819050602082019050919050565b6000611f568383611c25565b60208301905092915050565b6000602082019050919050565b6000611f7a82611f1e565b611f848185611f29565b9350611f8f83611f3a565b8060005b83811015611fc0578151611fa78882611f4a565b9750611fb283611f62565b925050600181019050611f93565b5085935050505092915050565b60006040820190508181036000830152611fe781856116ea565b90508181036020830152611ffb8184611f6f565b90509392505050565b600082825260208201905092915050565b7f4f6e6c792061646d696e2063616e20706572666f726d2074686973206163746960008201527f6f6e000000000000000000000000000000000000000000000000000000000000602082015250565b6000612071602283612004565b915061207c82612015565b604082019050919050565b600060208201905081810360008301526120a081612064565b9050919050565b7f4e487b7100000000000000000000000000000000000000000000000000000000600052603260045260246000fd5b7f4e487b7100000000000000000000000000000000000000000000000000000000600052601160045260246000fd5b6000612110826114e7565b91507fffffffffffffffffffffffffffffffffffffffffffffffffffffffffffffffff8203612142576121416120d6565b5b600182019050919050565b7f43616e646964617465732061726520616c72656164792066696e616c697a656460008201527f2100000000000000000000000000000000000000000000000000000000000000602082015250565b60006121a9602183612004565b91506121b48261214d565b604082019050919050565b600060208201905081810360008301526121d88161219c565b9050919050565b7f566f74696e672063616e6e6f7420737461727420756e74696c2063616e64696460008201527f61746573206172652066696e616c697a65642100000000000000000000000000602082015250565b600061223b603383612004565b9150612246826121df565b604082019050919050565b6000602082019050818103600083015261226a8161222e565b9050919050565b7f4d69736d61746368656420696e707574206c656e677468730000000000000000600082015250565b60006122a7601883612004565b91506122b282612271565b602082019050919050565b600060208201905081810360008301526122d68161229a565b9050919050565b7f566f7465722068617320616c726561647920766f746564000000000000000000600082015250565b6000612313601783612004565b915061231e826122dd565b602082019050919050565b6000602082019050818103600083015261234281612306565b9050919050565b7f496e76616c69642063616e64696461746520696e646578000000000000000000600082015250565b600061237f601783612004565b915061238a82612349565b602082019050919050565b600060208201905081810360008301526123ae81612372565b9050919050565b60006123c0826114e7565b91506123cb836114e7565b92508282019050808211156123e3576123e26120d6565b5b92915050565b60006123f4826114e7565b91506123ff836114e7565b9250828203905081811115612417576124166120d6565b5b9291505056fea2646970667358221220d0fb814116e627fe5042e150eaacccad256a9209768139066e737db79b021c8264736f6c63430008150033",
  "linkReferences": {},
  "deployedLinkReferences": {}
}