{
  "_format": "hh-sol-artifact-1",
  "contractName": "AdminCandidates",
  "sourceName": "contracts/AdminCandidates.sol",
  "abi": [
    {
      "inputs": [],
      "stateMutability": "nonpayable",
      "type": "constructor"
    },
    {
      "anonymous": false,
      "inputs": [],
      "name": "CandidatesReset",
      "type": "event"
    },
    {
      "anonymous": false,
      "inputs": [],
      "name": "CandidatesSubmitted",
      "type": "event"
    },
    {
      "anonymous": false,
      "inputs": [
        {
          "indexed": false,
          "internalType": "string",
          "name": "position",
          "type": "string"
        },
        {
          "indexed": false,
          "internalType": "bytes32",
          "name": "name",
          "type": "bytes32"
        },
        {
          "indexed": false,
          "internalType": "string",
          "name": "voterHash",
          "type": "string"
        }
      ],
      "name": "VoteSubmitted",
      "type": "event"
    },
    {
      "inputs": [],
      "name": "admin",
      "outputs": [
        {
          "internalType": "address",
          "name": "",
          "type": "address"
        }
      ],
      "stateMutability": "view",
      "type": "function"
    },
    {
      "inputs": [
        {
          "internalType": "string[]",
          "name": "_positions",
          "type": "string[]"
        },
        {
          "internalType": "uint256[]",
          "name": "_indices",
          "type": "uint256[]"
        },
        {
          "internalType": "string",
          "name": "_voterHash",
          "type": "string"
        }
      ],
      "name": "batchVote",
      "outputs": [],
      "stateMutability": "nonpayable",
      "type": "function"
    },
    {
      "inputs": [
        {
          "internalType": "string",
          "name": "_position",
          "type": "string"
        }
      ],
      "name": "getCandidates",
      "outputs": [
        {
          "components": [
            {
              "internalType": "bytes32",
              "name": "name",
              "type": "bytes32"
            },
            {
              "internalType": "bytes32",
              "name": "party",
              "type": "bytes32"
            },
            {
              "internalType": "string",
              "name": "position",
              "type": "string"
            },
            {
              "internalType": "uint256",
              "name": "votes",
              "type": "uint256"
            }
          ],
          "internalType": "struct AdminCandidates.Candidate[]",
          "name": "",
          "type": "tuple[]"
        }
      ],
      "stateMutability": "view",
      "type": "function"
    },
    {
      "inputs": [],
      "name": "getVoteCounts",
      "outputs": [
        {
          "components": [
            {
              "internalType": "bytes32",
              "name": "name",
              "type": "bytes32"
            },
            {
              "internalType": "bytes32",
              "name": "party",
              "type": "bytes32"
            },
            {
              "internalType": "string",
              "name": "position",
              "type": "string"
            },
            {
              "internalType": "uint256",
              "name": "votes",
              "type": "uint256"
            }
          ],
          "internalType": "struct AdminCandidates.Candidate[]",
          "name": "",
          "type": "tuple[]"
        }
      ],
      "stateMutability": "view",
      "type": "function"
    },
    {
      "inputs": [],
      "name": "isFinalized",
      "outputs": [
        {
          "internalType": "bool",
          "name": "",
          "type": "bool"
        }
      ],
      "stateMutability": "view",
      "type": "function"
    },
    {
      "inputs": [],
      "name": "resetCandidates",
      "outputs": [],
      "stateMutability": "nonpayable",
      "type": "function"
    },
    {
      "inputs": [
        {
          "internalType": "string[]",
          "name": "_positions",
          "type": "string[]"
        },
        {
          "internalType": "bytes32[][]",
          "name": "_names",
          "type": "bytes32[][]"
        },
        {
          "internalType": "bytes32[][]",
          "name": "_parties",
          "type": "bytes32[][]"
        }
      ],
      "name": "submitCandidates",
      "outputs": [],
      "stateMutability": "nonpayable",
      "type": "function"
    }
  ],
  "bytecode": "0x60806040526000600360146101000a81548160ff02191690831515021790555034801561002b57600080fd5b5033600360006101000a81548173ffffffffffffffffffffffffffffffffffffffff021916908373ffffffffffffffffffffffffffffffffffffffff160217905550611e0d8061007c6000396000f3fe608060405234801561001057600080fd5b506004361061007d5760003560e01c80638d4e40831161005b5780638d4e4083146100d8578063b0918e8a146100f6578063f851a44014610112578063ffc97b20146101305761007d565b80634340bcaa14610082578063455347631461009e5780637718d9f3146100ce575b600080fd5b61009c6004803603810190610097919061108b565b61014e565b005b6100b860048036038101906100b39190611132565b61035b565b6040516100c59190611347565b60405180910390f35b6100d6610488565b005b6100e06105da565b6040516100ed9190611384565b60405180910390f35b610110600480360381019061010b919061156f565b6105ed565b005b61011a610992565b6040516101279190611657565b60405180910390f35b6101386109b8565b6040516101459190611347565b60405180910390f35b600360149054906101000a900460ff1661019d576040517f08c379a0000000000000000000000000000000000000000000000000000000008152600401610194906116f5565b60405180910390fd5b81518351146101e1576040517f08c379a00000000000000000000000000000000000000000000000000000000081526004016101d890611761565b60405180910390fd5b60005b835181101561035557600084828151811061020257610201611781565b5b602002602001015160405161021791906117ec565b908152602001604051809103902083828151811061023857610237611781565b5b60200260200101518154811061025157610250611781565b5b9060005260206000209060040201600301600081548092919061027390611832565b91905055507f2bed0f57f913f9b91cf2fce2852d0b5ab63e42fb29d86cb0ddca1a478ff819f08482815181106102ac576102ab611781565b5b602002602001015160008684815181106102c9576102c8611781565b5b60200260200101516040516102de91906117ec565b90815260200160405180910390208584815181106102ff576102fe611781565b5b60200260200101518154811061031857610317611781565b5b9060005260206000209060040201600001548460405161033a939291906118c2565b60405180910390a1808061034d90611832565b9150506101e4565b50505050565b606060008260405161036d91906117ec565b9081526020016040518091039020805480602002602001604051908101604052809291908181526020016000905b8282101561047d578382906000526020600020906004020160405180608001604052908160008201548152602001600182015481526020016002820180546103e290611936565b80601f016020809104026020016040519081016040528092919081815260200182805461040e90611936565b801561045b5780601f106104305761010080835404028352916020019161045b565b820191906000526020600020905b81548152906001019060200180831161043e57829003601f168201915b505050505081526020016003820154815250508152602001906001019061039b565b505050509050919050565b600360009054906101000a900473ffffffffffffffffffffffffffffffffffffffff1673ffffffffffffffffffffffffffffffffffffffff163373ffffffffffffffffffffffffffffffffffffffff1614610518576040517f08c379a000000000000000000000000000000000000000000000000000000000815260040161050f906119d9565b60405180910390fd5b60005b6002805490508110156105825760006002828154811061053e5761053d611781565b5b906000526020600020016040516105559190611a91565b9081526020016040518091039020600061056f9190610c1f565b808061057a90611832565b91505061051b565b50600260006105919190610c43565b6000600360146101000a81548160ff0219169083151502179055507f800bdaa40887ccfd790fdc79f47cf3acbb2a1ecf28b3bccb67e3719009c1bab260405160405180910390a1565b600360149054906101000a900460ff1681565b600360009054906101000a900473ffffffffffffffffffffffffffffffffffffffff1673ffffffffffffffffffffffffffffffffffffffff163373ffffffffffffffffffffffffffffffffffffffff161461067d576040517f08c379a0000000000000000000000000000000000000000000000000000000008152600401610674906119d9565b60405180910390fd5b600360149054906101000a900460ff16156106cd576040517f08c379a00000000000000000000000000000000000000000000000000000000081526004016106c490611b1a565b60405180910390fd5b600260006106db9190610c43565b60005b8351811015610945576000808583815181106106fd576106fc611781565b5b602002602001015160405161071291906117ec565b9081526020016040518091039020805490500361077957600284828151811061073e5761073d611781565b5b60200260200101519080600181540180825580915050600190039060005260206000200160009091909190915090816107779190611cd1565b505b600084828151811061078e5761078d611781565b5b60200260200101516040516107a391906117ec565b908152602001604051809103902060006107bd9190610c1f565b60005b8382815181106107d3576107d2611781565b5b6020026020010151518110156109315760008583815181106107f8576107f7611781565b5b602002602001015160405161080d91906117ec565b9081526020016040518091039020604051806080016040528086858151811061083957610838611781565b5b6020026020010151848151811061085357610852611781565b5b6020026020010151815260200185858151811061087357610872611781565b5b6020026020010151848151811061088d5761088c611781565b5b602002602001015181526020018785815181106108ad576108ac611781565b5b6020026020010151815260200160008152509080600181540180825580915050600190039060005260206000209060040201600090919091909150600082015181600001556020820151816001015560408201518160020190816109119190611cd1565b50606082015181600301555050808061092990611832565b9150506107c0565b50808061093d90611832565b9150506106de565b506001600360146101000a81548160ff0219169083151502179055507f86825b43264ca968e676c45c8e05cc56965ff5938ed49dcf636c61acb7070bd760405160405180910390a1505050565b600360009054906101000a900473ffffffffffffffffffffffffffffffffffffffff1681565b6060600080600090505b600280549050811015610a2e576000600282815481106109e5576109e4611781565b5b906000526020600020016040516109fc9190611a91565b90815260200160405180910390208054905082610a199190611da3565b91508080610a2690611832565b9150506109c2565b5060008167ffffffffffffffff811115610a4b57610a4a610d7c565b5b604051908082528060200260200182016040528015610a8457816020015b610a71610c64565b815260200190600190039081610a695790505b5090506000805b600280549050811015610c155760008060028381548110610aaf57610aae611781565b5b90600052602060002001604051610ac69190611a91565b9081526020016040518091039020905060005b8180549050811015610c0057818181548110610af857610af7611781565b5b90600052602060002090600402016040518060800160405290816000820154815260200160018201548152602001600282018054610b3590611936565b80601f0160208091040260200160405190810160405280929190818152602001828054610b6190611936565b8015610bae5780601f10610b8357610100808354040283529160200191610bae565b820191906000526020600020905b815481529060010190602001808311610b9157829003601f168201915b50505050508152602001600382015481525050858581518110610bd457610bd3611781565b5b60200260200101819052508380610bea90611832565b9450508080610bf890611832565b915050610ad9565b50508080610c0d90611832565b915050610a8b565b5081935050505090565b5080546000825560040290600052602060002090810190610c409190610c92565b50565b5080546000825590600052602060002090810190610c619190610cd1565b50565b6040518060800160405280600080191681526020016000801916815260200160608152602001600081525090565b5b80821115610ccd576000808201600090556001820160009055600282016000610cbc9190610cf5565b600382016000905550600401610c93565b5090565b5b80821115610cf15760008181610ce89190610cf5565b50600101610cd2565b5090565b508054610d0190611936565b6000825580601f10610d135750610d32565b601f016020900490600052602060002090810190610d319190610d35565b5b50565b5b80821115610d4e576000816000905550600101610d36565b5090565b6000604051905090565b600080fd5b600080fd5b600080fd5b6000601f19601f8301169050919050565b7f4e487b7100000000000000000000000000000000000000000000000000000000600052604160045260246000fd5b610db482610d6b565b810181811067ffffffffffffffff82111715610dd357610dd2610d7c565b5b80604052505050565b6000610de6610d52565b9050610df28282610dab565b919050565b600067ffffffffffffffff821115610e1257610e11610d7c565b5b602082029050602081019050919050565b600080fd5b600080fd5b600067ffffffffffffffff821115610e4857610e47610d7c565b5b610e5182610d6b565b9050602081019050919050565b82818337600083830152505050565b6000610e80610e7b84610e2d565b610ddc565b905082815260208101848484011115610e9c57610e9b610e28565b5b610ea7848285610e5e565b509392505050565b600082601f830112610ec457610ec3610d66565b5b8135610ed4848260208601610e6d565b91505092915050565b6000610ef0610eeb84610df7565b610ddc565b90508083825260208201905060208402830185811115610f1357610f12610e23565b5b835b81811015610f5a57803567ffffffffffffffff811115610f3857610f37610d66565b5b808601610f458982610eaf565b85526020850194505050602081019050610f15565b5050509392505050565b600082601f830112610f7957610f78610d66565b5b8135610f89848260208601610edd565b91505092915050565b600067ffffffffffffffff821115610fad57610fac610d7c565b5b602082029050602081019050919050565b6000819050919050565b610fd181610fbe565b8114610fdc57600080fd5b50565b600081359050610fee81610fc8565b92915050565b600061100761100284610f92565b610ddc565b9050808382526020820190506020840283018581111561102a57611029610e23565b5b835b81811015611053578061103f8882610fdf565b84526020840193505060208101905061102c565b5050509392505050565b600082601f83011261107257611071610d66565b5b8135611082848260208601610ff4565b91505092915050565b6000806000606084860312156110a4576110a3610d5c565b5b600084013567ffffffffffffffff8111156110c2576110c1610d61565b5b6110ce86828701610f64565b935050602084013567ffffffffffffffff8111156110ef576110ee610d61565b5b6110fb8682870161105d565b925050604084013567ffffffffffffffff81111561111c5761111b610d61565b5b61112886828701610eaf565b9150509250925092565b60006020828403121561114857611147610d5c565b5b600082013567ffffffffffffffff81111561116657611165610d61565b5b61117284828501610eaf565b91505092915050565b600081519050919050565b600082825260208201905092915050565b6000819050602082019050919050565b6000819050919050565b6111ba816111a7565b82525050565b600081519050919050565b600082825260208201905092915050565b60005b838110156111fa5780820151818401526020810190506111df565b60008484015250505050565b6000611211826111c0565b61121b81856111cb565b935061122b8185602086016111dc565b61123481610d6b565b840191505092915050565b61124881610fbe565b82525050565b600060808301600083015161126660008601826111b1565b50602083015161127960208601826111b1565b50604083015184820360408601526112918282611206565b91505060608301516112a6606086018261123f565b508091505092915050565b60006112bd838361124e565b905092915050565b6000602082019050919050565b60006112dd8261117b565b6112e78185611186565b9350836020820285016112f985611197565b8060005b85811015611335578484038952815161131685826112b1565b9450611321836112c5565b925060208a019950506001810190506112fd565b50829750879550505050505092915050565b6000602082019050818103600083015261136181846112d2565b905092915050565b60008115159050919050565b61137e81611369565b82525050565b60006020820190506113996000830184611375565b92915050565b600067ffffffffffffffff8211156113ba576113b9610d7c565b5b602082029050602081019050919050565b600067ffffffffffffffff8211156113e6576113e5610d7c565b5b602082029050602081019050919050565b611400816111a7565b811461140b57600080fd5b50565b60008135905061141d816113f7565b92915050565b6000611436611431846113cb565b610ddc565b9050808382526020820190506020840283018581111561145957611458610e23565b5b835b81811015611482578061146e888261140e565b84526020840193505060208101905061145b565b5050509392505050565b600082601f8301126114a1576114a0610d66565b5b81356114b1848260208601611423565b91505092915050565b60006114cd6114c88461139f565b610ddc565b905080838252602082019050602084028301858111156114f0576114ef610e23565b5b835b8181101561153757803567ffffffffffffffff81111561151557611514610d66565b5b808601611522898261148c565b855260208501945050506020810190506114f2565b5050509392505050565b600082601f83011261155657611555610d66565b5b81356115668482602086016114ba565b91505092915050565b60008060006060848603121561158857611587610d5c565b5b600084013567ffffffffffffffff8111156115a6576115a5610d61565b5b6115b286828701610f64565b935050602084013567ffffffffffffffff8111156115d3576115d2610d61565b5b6115df86828701611541565b925050604084013567ffffffffffffffff811115611600576115ff610d61565b5b61160c86828701611541565b9150509250925092565b600073ffffffffffffffffffffffffffffffffffffffff82169050919050565b600061164182611616565b9050919050565b61165181611636565b82525050565b600060208201905061166c6000830184611648565b92915050565b600082825260208201905092915050565b7f566f74696e672063616e6e6f7420737461727420756e74696c2063616e64696460008201527f61746573206172652066696e616c697a65642100000000000000000000000000602082015250565b60006116df603383611672565b91506116ea82611683565b604082019050919050565b6000602082019050818103600083015261170e816116d2565b9050919050565b7f4d69736d61746368656420696e707574206c656e677468730000000000000000600082015250565b600061174b601883611672565b915061175682611715565b602082019050919050565b6000602082019050818103600083015261177a8161173e565b9050919050565b7f4e487b7100000000000000000000000000000000000000000000000000000000600052603260045260246000fd5b600081905092915050565b60006117c6826111c0565b6117d081856117b0565b93506117e08185602086016111dc565b80840191505092915050565b60006117f882846117bb565b915081905092915050565b7f4e487b7100000000000000000000000000000000000000000000000000000000600052601160045260246000fd5b600061183d82610fbe565b91507fffffffffffffffffffffffffffffffffffffffffffffffffffffffffffffffff820361186f5761186e611803565b5b600182019050919050565b6000611885826111c0565b61188f8185611672565b935061189f8185602086016111dc565b6118a881610d6b565b840191505092915050565b6118bc816111a7565b82525050565b600060608201905081810360008301526118dc818661187a565b90506118eb60208301856118b3565b81810360408301526118fd818461187a565b9050949350505050565b7f4e487b7100000000000000000000000000000000000000000000000000000000600052602260045260246000fd5b6000600282049050600182168061194e57607f821691505b60208210810361196157611960611907565b5b50919050565b7f4f6e6c792061646d696e2063616e20706572666f726d2074686973206163746960008201527f6f6e000000000000000000000000000000000000000000000000000000000000602082015250565b60006119c3602283611672565b91506119ce82611967565b604082019050919050565b600060208201905081810360008301526119f2816119b6565b9050919050565b60008190508160005260206000209050919050565b60008154611a1b81611936565b611a2581866117b0565b94506001821660008114611a405760018114611a5557611a88565b60ff1983168652811515820286019350611a88565b611a5e856119f9565b60005b83811015611a8057815481890152600182019150602081019050611a61565b838801955050505b50505092915050565b6000611a9d8284611a0e565b915081905092915050565b7f43616e646964617465732061726520616c72656164792066696e616c697a656460008201527f2100000000000000000000000000000000000000000000000000000000000000602082015250565b6000611b04602183611672565b9150611b0f82611aa8565b604082019050919050565b60006020820190508181036000830152611b3381611af7565b9050919050565b60006020601f8301049050919050565b600082821b905092915050565b600060088302611b877fffffffffffffffffffffffffffffffffffffffffffffffffffffffffffffffff82611b4a565b611b918683611b4a565b95508019841693508086168417925050509392505050565b6000819050919050565b6000611bce611bc9611bc484610fbe565b611ba9565b610fbe565b9050919050565b6000819050919050565b611be883611bb3565b611bfc611bf482611bd5565b848454611b57565b825550505050565b600090565b611c11611c04565b611c1c818484611bdf565b505050565b5b81811015611c4057611c35600082611c09565b600181019050611c22565b5050565b601f821115611c8557611c56816119f9565b611c5f84611b3a565b81016020851015611c6e578190505b611c82611c7a85611b3a565b830182611c21565b50505b505050565b600082821c905092915050565b6000611ca860001984600802611c8a565b1980831691505092915050565b6000611cc18383611c97565b9150826002028217905092915050565b611cda826111c0565b67ffffffffffffffff811115611cf357611cf2610d7c565b5b611cfd8254611936565b611d08828285611c44565b600060209050601f831160018114611d3b5760008415611d29578287015190505b611d338582611cb5565b865550611d9b565b601f198416611d49866119f9565b60005b82811015611d7157848901518255600182019150602085019450602081019050611d4c565b86831015611d8e5784890151611d8a601f891682611c97565b8355505b6001600288020188555050505b505050505050565b6000611dae82610fbe565b9150611db983610fbe565b9250828201905080821115611dd157611dd0611803565b5b9291505056fea2646970667358221220149556140297c92b87f455a0053b873a7d7276dd77a4380483d5ddb717c1b4fa64736f6c63430008150033",
  "linkReferences": {},
  "deployedLinkReferences": {}
}