{
  "_format": "hh-sol-artifact-1",
  "contractName": "AdminCandidates",
  "sourceName": "contracts/AdminCandidates.sol",
  "abi": [
    {
      "inputs": [],
      "stateMutability": "nonpayable",
      "type": "constructor"
    },
    {
      "anonymous": false,
      "inputs": [],
      "name": "CandidatesReset",
      "type": "event"
    },
    {
      "anonymous": false,
      "inputs": [],
      "name": "CandidatesSubmitted",
      "type": "event"
    },
    {
      "anonymous": false,
      "inputs": [
        {
          "indexed": false,
          "internalType": "bytes32",
          "name": "position",
          "type": "bytes32"
        },
        {
          "indexed": false,
          "internalType": "bytes32",
          "name": "name",
          "type": "bytes32"
        },
        {
          "indexed": false,
          "internalType": "bytes32",
          "name": "voterHash",
          "type": "bytes32"
        }
      ],
      "name": "VoteSubmitted",
      "type": "event"
    },
    {
      "inputs": [],
      "name": "admin",
      "outputs": [
        {
          "internalType": "address",
          "name": "",
          "type": "address"
        }
      ],
      "stateMutability": "view",
      "type": "function"
    },
    {
      "inputs": [
        {
          "internalType": "bytes32[]",
          "name": "_positions",
          "type": "bytes32[]"
        },
        {
          "internalType": "uint256[]",
          "name": "_indices",
          "type": "uint256[]"
        },
        {
          "internalType": "bytes32",
          "name": "_voterHash",
          "type": "bytes32"
        }
      ],
      "name": "batchVote",
      "outputs": [],
      "stateMutability": "nonpayable",
      "type": "function"
    },
    {
      "inputs": [
        {
          "internalType": "bytes32",
          "name": "_position",
          "type": "bytes32"
        }
      ],
      "name": "getCandidates",
      "outputs": [
        {
          "components": [
            {
              "internalType": "bytes32",
              "name": "name",
              "type": "bytes32"
            },
            {
              "internalType": "bytes32",
              "name": "party",
              "type": "bytes32"
            }
          ],
          "internalType": "struct AdminCandidates.CandidateEntry[]",
          "name": "",
          "type": "tuple[]"
        }
      ],
      "stateMutability": "view",
      "type": "function"
    },
    {
      "inputs": [],
      "name": "getPositionList",
      "outputs": [
        {
          "internalType": "bytes32[]",
          "name": "",
          "type": "bytes32[]"
        }
      ],
      "stateMutability": "view",
      "type": "function"
    },
    {
      "inputs": [],
      "name": "getVoteCounts",
      "outputs": [
        {
          "components": [
            {
              "internalType": "bytes32",
              "name": "name",
              "type": "bytes32"
            },
            {
              "internalType": "bytes32",
              "name": "party",
              "type": "bytes32"
            }
          ],
          "internalType": "struct AdminCandidates.CandidateEntry[]",
          "name": "",
          "type": "tuple[]"
        },
        {
          "internalType": "uint256[]",
          "name": "",
          "type": "uint256[]"
        }
      ],
      "stateMutability": "view",
      "type": "function"
    },
    {
      "inputs": [
        {
          "internalType": "bytes32",
          "name": "_position",
          "type": "bytes32"
        },
        {
          "internalType": "uint256",
          "name": "_index",
          "type": "uint256"
        }
      ],
      "name": "getVoterHashes",
      "outputs": [
        {
          "internalType": "bytes32[]",
          "name": "",
          "type": "bytes32[]"
        }
      ],
      "stateMutability": "view",
      "type": "function"
    },
    {
      "inputs": [],
      "name": "getWinners",
      "outputs": [
        {
          "components": [
            {
              "internalType": "bytes32",
              "name": "position",
              "type": "bytes32"
            },
            {
              "internalType": "bytes32",
              "name": "name",
              "type": "bytes32"
            },
            {
              "internalType": "bytes32",
              "name": "party",
              "type": "bytes32"
            },
            {
              "internalType": "uint256",
              "name": "votes",
              "type": "uint256"
            }
          ],
          "internalType": "struct AdminCandidates.Winner[]",
          "name": "",
          "type": "tuple[]"
        }
      ],
      "stateMutability": "view",
      "type": "function"
    },
    {
      "inputs": [],
      "name": "isFinalized",
      "outputs": [
        {
          "internalType": "bool",
          "name": "",
          "type": "bool"
        }
      ],
      "stateMutability": "view",
      "type": "function"
    },
    {
      "inputs": [],
      "name": "resetCandidates",
      "outputs": [],
      "stateMutability": "nonpayable",
      "type": "function"
    },
    {
      "inputs": [
        {
          "internalType": "bytes32[]",
          "name": "_positions",
          "type": "bytes32[]"
        },
        {
          "components": [
            {
              "internalType": "bytes32",
              "name": "name",
              "type": "bytes32"
            },
            {
              "internalType": "bytes32",
              "name": "party",
              "type": "bytes32"
            }
          ],
          "internalType": "struct AdminCandidates.CandidateEntry[][]",
          "name": "_candidates",
          "type": "tuple[][]"
        }
      ],
      "name": "submitCandidates",
      "outputs": [],
      "stateMutability": "nonpayable",
      "type": "function"
    }
  ],
  "bytecode": "0x60806040526000600460146101000a81548160ff02191690831515021790555034801561002b57600080fd5b5033600460006101000a81548173ffffffffffffffffffffffffffffffffffffffff021916908373ffffffffffffffffffffffffffffffffffffffff160217905550611fe08061007c6000396000f3fe608060405234801561001057600080fd5b506004361061009e5760003560e01c8063df15c37e11610066578063df15c37e14610149578063e7d8e8ad14610167578063ebd7d41f14610183578063f851a4401461019f578063ffc97b20146101bd5761009e565b806370918ce3146100a35780637718d9f3146100d357806385b923ca146100dd5780638d4e40831461010d578063a5d3157e1461012b575b600080fd5b6100bd60048036038101906100b8919061116d565b6101dc565b6040516100ca919061126b565b60405180910390f35b6100db610259565b005b6100f760048036038101906100f2919061128d565b6103a6565b6040516101049190611398565b60405180910390f35b6101156104c2565b60405161012291906113d5565b60405180910390f35b6101336104d5565b604051610140919061126b565b60405180910390f35b61015161052d565b60405161015e9190611503565b60405180910390f35b610181600480360381019061017c9190611741565b610708565b005b61019d600480360381019061019891906119c5565b6109ea565b005b6101a7610d7b565b6040516101b49190611a7e565b60405180910390f35b6101c5610da1565b6040516101d3929190611b48565b60405180910390f35b606060016000848152602001908152602001600020600083815260200190815260200160002080548060200260200160405190810160405280929190818152602001828054801561024c57602002820191906000526020600020905b815481526020019060010190808311610238575b5050505050905092915050565b600460009054906101000a900473ffffffffffffffffffffffffffffffffffffffff1673ffffffffffffffffffffffffffffffffffffffff163373ffffffffffffffffffffffffffffffffffffffff16146102e9576040517f08c379a00000000000000000000000000000000000000000000000000000000081526004016102e090611c02565b60405180910390fd5b60005b60038054905081101561034e5760006003828154811061030f5761030e611c22565b5b90600052602060002001549050600080828152602001908152602001600020600061033a919061100b565b50808061034690611c80565b9150506102ec565b506003600061035d919061102f565b6000600460146101000a81548160ff0219169083151502179055507f800bdaa40887ccfd790fdc79f47cf3acbb2a1ecf28b3bccb67e3719009c1bab260405160405180910390a1565b6060600080600084815260200190815260200160002090506000818054905067ffffffffffffffff8111156103de576103dd61153b565b5b60405190808252806020026020018201604052801561041757816020015b610404611050565b8152602001906001900390816103fc5790505b50905060005b82805490508110156104b757604051806040016040528084838154811061044757610446611c22565b5b906000526020600020906003020160000154815260200184838154811061047157610470611c22565b5b90600052602060002090600302016001015481525082828151811061049957610498611c22565b5b602002602001018190525080806104af90611c80565b91505061041d565b508092505050919050565b600460149054906101000a900460ff1681565b6060600380548060200260200160405190810160405280929190818152602001828054801561052357602002820191906000526020600020905b81548152602001906001019080831161050f575b5050505050905090565b60606000600380549050905060008167ffffffffffffffff8111156105555761055461153b565b5b60405190808252806020026020018201604052801561058e57816020015b61057b611070565b8152602001906001900390816105735790505b50905060005b828110156106ff576000600382815481106105b2576105b1611c22565b5b90600052602060002001549050600080600083815260200190815260200160002090506000806000805b848054905081101561065f5781158061061857508385828154811061060457610603611c22565b5b906000526020600020906003020160020154115b1561064c578481815481106106305761062f611c22565b5b9060005260206000209060030201600201549350809250600191505b808061065790611c80565b9150506105dc565b50604051806080016040528086815260200185848154811061068457610683611c22565b5b90600052602060002090600302016000015481526020018584815481106106ae576106ad611c22565b5b9060005260206000209060030201600101548152602001848152508787815181106106dc576106db611c22565b5b6020026020010181905250505050505080806106f790611c80565b915050610594565b50809250505090565b600460149054906101000a900460ff16610757576040517f08c379a000000000000000000000000000000000000000000000000000000000815260040161074e90611d3a565b60405180910390fd5b815183511461079b576040517f08c379a000000000000000000000000000000000000000000000000000000000815260040161079290611da6565b60405180910390fd5b6002600082815260200190815260200160002060009054906101000a900460ff16156107fc576040517f08c379a00000000000000000000000000000000000000000000000000000000081526004016107f390611e12565b60405180910390fd5b60016002600083815260200190815260200160002060006101000a81548160ff02191690831515021790555060005b83518110156109e457600084828151811061084957610848611c22565b5b60200260200101519050600084838151811061086857610867611c22565b5b602002602001015190506000808381526020019081526020016000208054905081106108c9576040517f08c379a00000000000000000000000000000000000000000000000000000000081526004016108c090611e7e565b60405180910390fd5b60008083815260200190815260200160002081815481106108ed576108ec611c22565b5b9060005260206000209060030201600201600081548092919061090f90611c80565b91905055506001600083815260200190815260200160002060008281526020019081526020016000208490806001815401808255809150506001900390600052602060002001600090919091909150557f178e76faa844f1c429cbe43bb805a70530f990ef2acc87f8f626ac80ff4849098260008085815260200190815260200160002083815481106109a5576109a4611c22565b5b906000526020600020906003020160000154866040516109c793929190611ead565b60405180910390a1505080806109dc90611c80565b91505061082b565b50505050565b600460009054906101000a900473ffffffffffffffffffffffffffffffffffffffff1673ffffffffffffffffffffffffffffffffffffffff163373ffffffffffffffffffffffffffffffffffffffff1614610a7a576040517f08c379a0000000000000000000000000000000000000000000000000000000008152600401610a7190611c02565b60405180910390fd5b600460149054906101000a900460ff1615610aca576040517f08c379a0000000000000000000000000000000000000000000000000000000008152600401610ac190611f56565b60405180910390fd5b60036000610ad8919061102f565b60005b8251811015610d2f576000806000858481518110610afc57610afb611c22565b5b602002602001015181526020019081526020016000208054905003610b5f576003838281518110610b3057610b2f611c22565b5b602002602001015190806001815401808255809150506001900390600052602060002001600090919091909150555b600080848381518110610b7557610b74611c22565b5b602002602001015181526020019081526020016000206000610b97919061100b565b60005b828281518110610bad57610bac611c22565b5b602002602001015151811015610d1b57600080858481518110610bd357610bd2611c22565b5b602002602001015181526020019081526020016000206040518060600160405280858581518110610c0757610c06611c22565b5b60200260200101518481518110610c2157610c20611c22565b5b6020026020010151600001518152602001858581518110610c4557610c44611c22565b5b60200260200101518481518110610c5f57610c5e611c22565b5b602002602001015160200151815260200160008152509080600181540180825580915050600190039060005260206000209060030201600090919091909150600082015181600001556020820151816001015560408201518160020155505060016000858481518110610cd557610cd4611c22565b5b6020026020010151815260200190815260200160002060008281526020019081526020016000206000610d08919061102f565b8080610d1390611c80565b915050610b9a565b508080610d2790611c80565b915050610adb565b506001600460146101000a81548160ff0219169083151502179055507f86825b43264ca968e676c45c8e05cc56965ff5938ed49dcf636c61acb7070bd760405160405180910390a15050565b600460009054906101000a900473ffffffffffffffffffffffffffffffffffffffff1681565b606080600080600090505b600380549050811015610e0d5760008060038381548110610dd057610dcf611c22565b5b906000526020600020015481526020019081526020016000208054905082610df89190611f76565b91508080610e0590611c80565b915050610dac565b5060008167ffffffffffffffff811115610e2a57610e2961153b565b5b604051908082528060200260200182016040528015610e6357816020015b610e50611050565b815260200190600190039081610e485790505b50905060008267ffffffffffffffff811115610e8257610e8161153b565b5b604051908082528060200260200182016040528015610eb05781602001602082028036833780820191505090505b5090506000805b600380549050811015610ffc57600080600060038481548110610edd57610edc611c22565b5b90600052602060002001548152602001908152602001600020905060005b8180549050811015610fe7576040518060400160405280838381548110610f2557610f24611c22565b5b9060005260206000209060030201600001548152602001838381548110610f4f57610f4e611c22565b5b906000526020600020906003020160010154815250868581518110610f7757610f76611c22565b5b6020026020010181905250818181548110610f9557610f94611c22565b5b906000526020600020906003020160020154858581518110610fba57610fb9611c22565b5b6020026020010181815250508380610fd190611c80565b9450508080610fdf90611c80565b915050610efb565b50508080610ff490611c80565b915050610eb7565b50828295509550505050509091565b508054600082556003029060005260206000209081019061102c91906110a1565b50565b508054600082559060005260206000209081019061104d91906110d0565b50565b604051806040016040528060008019168152602001600080191681525090565b6040518060800160405280600080191681526020016000801916815260200160008019168152602001600081525090565b5b808211156110cc5760008082016000905560018201600090556002820160009055506003016110a2565b5090565b5b808211156110e95760008160009055506001016110d1565b5090565b6000604051905090565b600080fd5b600080fd5b6000819050919050565b61111481611101565b811461111f57600080fd5b50565b6000813590506111318161110b565b92915050565b6000819050919050565b61114a81611137565b811461115557600080fd5b50565b60008135905061116781611141565b92915050565b60008060408385031215611184576111836110f7565b5b600061119285828601611122565b92505060206111a385828601611158565b9150509250929050565b600081519050919050565b600082825260208201905092915050565b6000819050602082019050919050565b6111e281611101565b82525050565b60006111f483836111d9565b60208301905092915050565b6000602082019050919050565b6000611218826111ad565b61122281856111b8565b935061122d836111c9565b8060005b8381101561125e57815161124588826111e8565b975061125083611200565b925050600181019050611231565b5085935050505092915050565b60006020820190508181036000830152611285818461120d565b905092915050565b6000602082840312156112a3576112a26110f7565b5b60006112b184828501611122565b91505092915050565b600081519050919050565b600082825260208201905092915050565b6000819050602082019050919050565b6040820160008201516112fc60008501826111d9565b50602082015161130f60208501826111d9565b50505050565b600061132183836112e6565b60408301905092915050565b6000602082019050919050565b6000611345826112ba565b61134f81856112c5565b935061135a836112d6565b8060005b8381101561138b5781516113728882611315565b975061137d8361132d565b92505060018101905061135e565b5085935050505092915050565b600060208201905081810360008301526113b2818461133a565b905092915050565b60008115159050919050565b6113cf816113ba565b82525050565b60006020820190506113ea60008301846113c6565b92915050565b600081519050919050565b600082825260208201905092915050565b6000819050602082019050919050565b61142581611137565b82525050565b60808201600082015161144160008501826111d9565b50602082015161145460208501826111d9565b50604082015161146760408501826111d9565b50606082015161147a606085018261141c565b50505050565b600061148c838361142b565b60808301905092915050565b6000602082019050919050565b60006114b0826113f0565b6114ba81856113fb565b93506114c58361140c565b8060005b838110156114f65781516114dd8882611480565b97506114e883611498565b9250506001810190506114c9565b5085935050505092915050565b6000602082019050818103600083015261151d81846114a5565b905092915050565b600080fd5b6000601f19601f8301169050919050565b7f4e487b7100000000000000000000000000000000000000000000000000000000600052604160045260246000fd5b6115738261152a565b810181811067ffffffffffffffff821117156115925761159161153b565b5b80604052505050565b60006115a56110ed565b90506115b1828261156a565b919050565b600067ffffffffffffffff8211156115d1576115d061153b565b5b602082029050602081019050919050565b600080fd5b60006115fa6115f5846115b6565b61159b565b9050808382526020820190506020840283018581111561161d5761161c6115e2565b5b835b8181101561164657806116328882611122565b84526020840193505060208101905061161f565b5050509392505050565b600082601f83011261166557611664611525565b5b81356116758482602086016115e7565b91505092915050565b600067ffffffffffffffff8211156116995761169861153b565b5b602082029050602081019050919050565b60006116bd6116b88461167e565b61159b565b905080838252602082019050602084028301858111156116e0576116df6115e2565b5b835b8181101561170957806116f58882611158565b8452602084019350506020810190506116e2565b5050509392505050565b600082601f83011261172857611727611525565b5b81356117388482602086016116aa565b91505092915050565b60008060006060848603121561175a576117596110f7565b5b600084013567ffffffffffffffff811115611778576117776110fc565b5b61178486828701611650565b935050602084013567ffffffffffffffff8111156117a5576117a46110fc565b5b6117b186828701611713565b92505060406117c286828701611122565b9150509250925092565b600067ffffffffffffffff8211156117e7576117e661153b565b5b602082029050602081019050919050565b600067ffffffffffffffff8211156118135761181261153b565b5b602082029050602081019050919050565b600080fd5b60006040828403121561183f5761183e611824565b5b611849604061159b565b9050600061185984828501611122565b600083015250602061186d84828501611122565b60208301525092915050565b600061188c611887846117f8565b61159b565b905080838252602082019050604084028301858111156118af576118ae6115e2565b5b835b818110156118d857806118c48882611829565b8452602084019350506040810190506118b1565b5050509392505050565b600082601f8301126118f7576118f6611525565b5b8135611907848260208601611879565b91505092915050565b600061192361191e846117cc565b61159b565b90508083825260208201905060208402830185811115611946576119456115e2565b5b835b8181101561198d57803567ffffffffffffffff81111561196b5761196a611525565b5b80860161197889826118e2565b85526020850194505050602081019050611948565b5050509392505050565b600082601f8301126119ac576119ab611525565b5b81356119bc848260208601611910565b91505092915050565b600080604083850312156119dc576119db6110f7565b5b600083013567ffffffffffffffff8111156119fa576119f96110fc565b5b611a0685828601611650565b925050602083013567ffffffffffffffff811115611a2757611a266110fc565b5b611a3385828601611997565b9150509250929050565b600073ffffffffffffffffffffffffffffffffffffffff82169050919050565b6000611a6882611a3d565b9050919050565b611a7881611a5d565b82525050565b6000602082019050611a936000830184611a6f565b92915050565b600081519050919050565b600082825260208201905092915050565b6000819050602082019050919050565b6000611ad1838361141c565b60208301905092915050565b6000602082019050919050565b6000611af582611a99565b611aff8185611aa4565b9350611b0a83611ab5565b8060005b83811015611b3b578151611b228882611ac5565b9750611b2d83611add565b925050600181019050611b0e565b5085935050505092915050565b60006040820190508181036000830152611b62818561133a565b90508181036020830152611b768184611aea565b90509392505050565b600082825260208201905092915050565b7f4f6e6c792061646d696e2063616e20706572666f726d2074686973206163746960008201527f6f6e000000000000000000000000000000000000000000000000000000000000602082015250565b6000611bec602283611b7f565b9150611bf782611b90565b604082019050919050565b60006020820190508181036000830152611c1b81611bdf565b9050919050565b7f4e487b7100000000000000000000000000000000000000000000000000000000600052603260045260246000fd5b7f4e487b7100000000000000000000000000000000000000000000000000000000600052601160045260246000fd5b6000611c8b82611137565b91507fffffffffffffffffffffffffffffffffffffffffffffffffffffffffffffffff8203611cbd57611cbc611c51565b5b600182019050919050565b7f566f74696e672063616e6e6f7420737461727420756e74696c2063616e64696460008201527f61746573206172652066696e616c697a65642100000000000000000000000000602082015250565b6000611d24603383611b7f565b9150611d2f82611cc8565b604082019050919050565b60006020820190508181036000830152611d5381611d17565b9050919050565b7f4d69736d61746368656420696e707574206c656e677468730000000000000000600082015250565b6000611d90601883611b7f565b9150611d9b82611d5a565b602082019050919050565b60006020820190508181036000830152611dbf81611d83565b9050919050565b7f566f7465722068617320616c726561647920766f746564000000000000000000600082015250565b6000611dfc601783611b7f565b9150611e0782611dc6565b602082019050919050565b60006020820190508181036000830152611e2b81611def565b9050919050565b7f496e76616c69642063616e64696461746520696e646578000000000000000000600082015250565b6000611e68601783611b7f565b9150611e7382611e32565b602082019050919050565b60006020820190508181036000830152611e9781611e5b565b9050919050565b611ea781611101565b82525050565b6000606082019050611ec26000830186611e9e565b611ecf6020830185611e9e565b611edc6040830184611e9e565b949350505050565b7f43616e646964617465732061726520616c72656164792066696e616c697a656460008201527f2100000000000000000000000000000000000000000000000000000000000000602082015250565b6000611f40602183611b7f565b9150611f4b82611ee4565b604082019050919050565b60006020820190508181036000830152611f6f81611f33565b9050919050565b6000611f8182611137565b9150611f8c83611137565b9250828201905080821115611fa457611fa3611c51565b5b9291505056fea26469706673582212204ccec065f7248dcfcf44c8753b388fe109e1bf25e037e718c533f747b286af6e64736f6c63430008150033",
  "linkReferences": {},
  "deployedLinkReferences": {}
}