{
  "_format": "hh-sol-artifact-1",
  "contractName": "AdminCandidates",
  "sourceName": "contracts/AdminCandidates.sol",
  "abi": [
    {
      "anonymous": false,
      "inputs": [
        {
          "indexed": false,
          "internalType": "bytes32",
          "name": "candidateId",
          "type": "bytes32"
        }
      ],
      "name": "CandidateRegistered",
      "type": "event"
    },
    {
      "anonymous": false,
      "inputs": [
        {
          "indexed": false,
          "internalType": "bytes32",
          "name": "candidateId",
          "type": "bytes32"
        },
        {
          "indexed": false,
          "internalType": "uint256",
          "name": "newVoteCount",
          "type": "uint256"
        }
      ],
      "name": "VoteCasted",
      "type": "event"
    },
    {
      "inputs": [
        {
          "internalType": "uint256",
          "name": "",
          "type": "uint256"
        }
      ],
      "name": "candidateList",
      "outputs": [
        {
          "internalType": "bytes32",
          "name": "",
          "type": "bytes32"
        }
      ],
      "stateMutability": "view",
      "type": "function"
    },
    {
      "inputs": [
        {
          "internalType": "bytes32",
          "name": "",
          "type": "bytes32"
        }
      ],
      "name": "candidateVotes",
      "outputs": [
        {
          "internalType": "uint256",
          "name": "",
          "type": "uint256"
        }
      ],
      "stateMutability": "view",
      "type": "function"
    },
    {
      "inputs": [],
      "name": "getCandidateCount",
      "outputs": [
        {
          "internalType": "uint256",
          "name": "",
          "type": "uint256"
        }
      ],
      "stateMutability": "view",
      "type": "function"
    },
    {
      "inputs": [
        {
          "internalType": "bytes32",
          "name": "",
          "type": "bytes32"
        }
      ],
      "name": "isRegistered",
      "outputs": [
        {
          "internalType": "bool",
          "name": "",
          "type": "bool"
        }
      ],
      "stateMutability": "view",
      "type": "function"
    },
    {
      "inputs": [
        {
          "internalType": "bytes32[]",
          "name": "candidateIds",
          "type": "bytes32[]"
        }
      ],
      "name": "registerCandidates",
      "outputs": [],
      "stateMutability": "nonpayable",
      "type": "function"
    },
    {
      "inputs": [
        {
          "internalType": "bytes32",
          "name": "candidateId",
          "type": "bytes32"
        }
      ],
      "name": "voteForCandidate",
      "outputs": [],
      "stateMutability": "nonpayable",
      "type": "function"
    }
  ],
  "bytecode": "0x608060405234801561001057600080fd5b50610729806100206000396000f3fe608060405234801561001057600080fd5b50600436106100625760003560e01c806327258b22146100675780632f1fdc2a1461009757806330a56347146100c7578063af6cb755146100e5578063b13c744b14610101578063cc9ab26714610131575b600080fd5b610081600480360381019061007c91906103db565b61014d565b60405161008e9190610423565b60405180910390f35b6100b160048036038101906100ac91906103db565b61016d565b6040516100be9190610457565b60405180910390f35b6100cf610185565b6040516100dc9190610457565b60405180910390f35b6100ff60048036038101906100fa91906104d7565b610192565b005b61011b60048036038101906101169190610550565b6102a0565b604051610128919061058c565b60405180910390f35b61014b600480360381019061014691906103db565b6102c4565b005b60006020528060005260406000206000915054906101000a900460ff1681565b60016020528060005260406000206000915090505481565b6000600280549050905090565b60005b8282905081101561029b5760008383838181106101b5576101b46105a7565b5b90506020020135905060008082815260200190815260200160002060009054906101000a900460ff1661028757600160008083815260200190815260200160002060006101000a81548160ff0219169083151502179055506000600160008381526020019081526020016000208190555060028190806001815401808255809150506001900390600052602060002001600090919091909150557ff6a6be64dd96964e37d70b178d6036e4cdbb7959eeab696bf22f270225145db28160405161027e919061058c565b60405180910390a15b50808061029390610605565b915050610195565b505050565b600281815481106102b057600080fd5b906000526020600020016000915090505481565b60008082815260200190815260200160002060009054906101000a900460ff16610323576040517f08c379a000000000000000000000000000000000000000000000000000000000815260040161031a906106aa565b60405180910390fd5b60016000828152602001908152602001600020600081548092919061034790610605565b91905055507fbf8e3be76511fbc133be248f8ea28794eaaec7574547d2ce1a374f36a1674aa28160016000848152602001908152602001600020546040516103909291906106ca565b60405180910390a150565b600080fd5b600080fd5b6000819050919050565b6103b8816103a5565b81146103c357600080fd5b50565b6000813590506103d5816103af565b92915050565b6000602082840312156103f1576103f061039b565b5b60006103ff848285016103c6565b91505092915050565b60008115159050919050565b61041d81610408565b82525050565b60006020820190506104386000830184610414565b92915050565b6000819050919050565b6104518161043e565b82525050565b600060208201905061046c6000830184610448565b92915050565b600080fd5b600080fd5b600080fd5b60008083601f84011261049757610496610472565b5b8235905067ffffffffffffffff8111156104b4576104b3610477565b5b6020830191508360208202830111156104d0576104cf61047c565b5b9250929050565b600080602083850312156104ee576104ed61039b565b5b600083013567ffffffffffffffff81111561050c5761050b6103a0565b5b61051885828601610481565b92509250509250929050565b61052d8161043e565b811461053857600080fd5b50565b60008135905061054a81610524565b92915050565b6000602082840312156105665761056561039b565b5b60006105748482850161053b565b91505092915050565b610586816103a5565b82525050565b60006020820190506105a1600083018461057d565b92915050565b7f4e487b7100000000000000000000000000000000000000000000000000000000600052603260045260246000fd5b7f4e487b7100000000000000000000000000000000000000000000000000000000600052601160045260246000fd5b60006106108261043e565b91507fffffffffffffffffffffffffffffffffffffffffffffffffffffffffffffffff8203610642576106416105d6565b5b600182019050919050565b600082825260208201905092915050565b7f43616e646964617465206e6f7420726567697374657265640000000000000000600082015250565b600061069460188361064d565b915061069f8261065e565b602082019050919050565b600060208201905081810360008301526106c381610687565b9050919050565b60006040820190506106df600083018561057d565b6106ec6020830184610448565b939250505056fea2646970667358221220b0793b984eb316a77cf309ab2a432eaec864d95627af8b1323f6270e5ac7e24464736f6c63430008150033",
  "linkReferences": {},
  "deployedLinkReferences": {}
}