{
  "_format": "hh-sol-artifact-1",
  "contractName": "AdminCandidates",
  "sourceName": "contracts/AdminCandidates.sol",
  "abi": [
    {
      "inputs": [],
      "stateMutability": "nonpayable",
      "type": "constructor"
    },
    {
      "anonymous": false,
      "inputs": [],
      "name": "CandidatesReset",
      "type": "event"
    },
    {
      "anonymous": false,
      "inputs": [],
      "name": "CandidatesSubmitted",
      "type": "event"
    },
    {
      "anonymous": false,
      "inputs": [
        {
          "indexed": false,
          "internalType": "string",
          "name": "position",
          "type": "string"
        },
        {
          "indexed": false,
          "internalType": "string",
          "name": "name",
          "type": "string"
        },
        {
          "indexed": false,
          "internalType": "string",
          "name": "voterHash",
          "type": "string"
        }
      ],
      "name": "VoteSubmitted",
      "type": "event"
    },
    {
      "inputs": [],
      "name": "admin",
      "outputs": [
        {
          "internalType": "address",
          "name": "",
          "type": "address"
        }
      ],
      "stateMutability": "view",
      "type": "function"
    },
    {
      "inputs": [
        {
          "internalType": "string[]",
          "name": "_positions",
          "type": "string[]"
        },
        {
          "internalType": "uint256[]",
          "name": "_indices",
          "type": "uint256[]"
        },
        {
          "internalType": "string",
          "name": "_voterHash",
          "type": "string"
        }
      ],
      "name": "batchVote",
      "outputs": [],
      "stateMutability": "nonpayable",
      "type": "function"
    },
    {
      "inputs": [
        {
          "internalType": "string",
          "name": "_position",
          "type": "string"
        }
      ],
      "name": "getCandidates",
      "outputs": [
        {
          "components": [
            {
              "internalType": "string",
              "name": "name",
              "type": "string"
            },
            {
              "internalType": "string",
              "name": "party",
              "type": "string"
            },
            {
              "internalType": "string",
              "name": "position",
              "type": "string"
            },
            {
              "internalType": "uint256",
              "name": "votes",
              "type": "uint256"
            },
            {
              "internalType": "string[]",
              "name": "voterHashes",
              "type": "string[]"
            }
          ],
          "internalType": "struct AdminCandidates.Candidate[]",
          "name": "",
          "type": "tuple[]"
        }
      ],
      "stateMutability": "view",
      "type": "function"
    },
    {
      "inputs": [],
      "name": "getVoteCounts",
      "outputs": [
        {
          "components": [
            {
              "internalType": "string",
              "name": "name",
              "type": "string"
            },
            {
              "internalType": "string",
              "name": "party",
              "type": "string"
            },
            {
              "internalType": "string",
              "name": "position",
              "type": "string"
            },
            {
              "internalType": "uint256",
              "name": "votes",
              "type": "uint256"
            },
            {
              "internalType": "string[]",
              "name": "voterHashes",
              "type": "string[]"
            }
          ],
          "internalType": "struct AdminCandidates.Candidate[]",
          "name": "",
          "type": "tuple[]"
        }
      ],
      "stateMutability": "view",
      "type": "function"
    },
    {
      "inputs": [],
      "name": "isFinalized",
      "outputs": [
        {
          "internalType": "bool",
          "name": "",
          "type": "bool"
        }
      ],
      "stateMutability": "view",
      "type": "function"
    },
    {
      "inputs": [],
      "name": "resetCandidates",
      "outputs": [],
      "stateMutability": "nonpayable",
      "type": "function"
    },
    {
      "inputs": [
        {
          "internalType": "string[]",
          "name": "_positions",
          "type": "string[]"
        },
        {
          "internalType": "string[][]",
          "name": "_names",
          "type": "string[][]"
        },
        {
          "internalType": "string[][]",
          "name": "_parties",
          "type": "string[][]"
        }
      ],
      "name": "submitCandidates",
      "outputs": [],
      "stateMutability": "nonpayable",
      "type": "function"
    }
  ],
  "bytecode": "0x60806040526000600360146101000a81548160ff02191690831515021790555034801561002b57600080fd5b5033600360006101000a81548173ffffffffffffffffffffffffffffffffffffffff021916908373ffffffffffffffffffffffffffffffffffffffff1602179055506123e78061007c6000396000f3fe608060405234801561001057600080fd5b506004361061007d5760003560e01c80638d4e40831161005b5780638d4e4083146100d857806395dbea06146100f6578063f851a44014610112578063ffc97b20146101305761007d565b80634340bcaa14610082578063455347631461009e5780637718d9f3146100ce575b600080fd5b61009c60048036038101906100979190611607565b61014e565b005b6100b860048036038101906100b391906116ae565b610402565b6040516100c59190611994565b60405180910390f35b6100d6610718565b005b6100e061086a565b6040516100ed91906119d1565b60405180910390f35b610110600480360381019061010b9190611acd565b61087d565b005b61011a610cab565b6040516101279190611bb5565b60405180910390f35b610138610cd1565b6040516101459190611994565b60405180910390f35b600360149054906101000a900460ff1661019d576040517f08c379a000000000000000000000000000000000000000000000000000000000815260040161019490611c53565b60405180910390fd5b81518351146101e1576040517f08c379a00000000000000000000000000000000000000000000000000000000081526004016101d890611cbf565b60405180910390fd5b60005b83518110156103fc57600084828151811061020257610201611cdf565b5b60200260200101516040516102179190611d4a565b908152602001604051809103902083828151811061023857610237611cdf565b5b60200260200101518154811061025157610250611cdf565b5b9060005260206000209060050201600301600081548092919061027390611d90565b9190505550600084828151811061028d5761028c611cdf565b5b60200260200101516040516102a29190611d4a565b90815260200160405180910390208382815181106102c3576102c2611cdf565b5b6020026020010151815481106102dc576102db611cdf565b5b90600052602060002090600502016004018290806001815401808255809150506001900390600052602060002001600090919091909150908161031f9190611fe4565b507f1f7f8725181cda830ea2a022bbcb3eb478be4b2cd519ed2288edcdd16484d9cc84828151811061035457610353611cdf565b5b6020026020010151600086848151811061037157610370611cdf565b5b60200260200101516040516103869190611d4a565b90815260200160405180910390208584815181106103a7576103a6611cdf565b5b6020026020010151815481106103c0576103bf611cdf565b5b9060005260206000209060050201600001846040516103e193929190612173565b60405180910390a180806103f490611d90565b9150506101e4565b50505050565b60606000826040516104149190611d4a565b9081526020016040518091039020805480602002602001604051908101604052809291908181526020016000905b8282101561070d57838290600052602060002090600502016040518060a001604052908160008201805461047590611e07565b80601f01602080910402602001604051908101604052809291908181526020018280546104a190611e07565b80156104ee5780601f106104c3576101008083540402835291602001916104ee565b820191906000526020600020905b8154815290600101906020018083116104d157829003601f168201915b5050505050815260200160018201805461050790611e07565b80601f016020809104026020016040519081016040528092919081815260200182805461053390611e07565b80156105805780601f1061055557610100808354040283529160200191610580565b820191906000526020600020905b81548152906001019060200180831161056357829003601f168201915b5050505050815260200160028201805461059990611e07565b80601f01602080910402602001604051908101604052809291908181526020018280546105c590611e07565b80156106125780601f106105e757610100808354040283529160200191610612565b820191906000526020600020905b8154815290600101906020018083116105f557829003601f168201915b505050505081526020016003820154815260200160048201805480602002602001604051908101604052809291908181526020016000905b828210156106f657838290600052602060002001805461066990611e07565b80601f016020809104026020016040519081016040528092919081815260200182805461069590611e07565b80156106e25780601f106106b7576101008083540402835291602001916106e2565b820191906000526020600020905b8154815290600101906020018083116106c557829003601f168201915b50505050508152602001906001019061064a565b505050508152505081526020019060010190610442565b505050509050919050565b600360009054906101000a900473ffffffffffffffffffffffffffffffffffffffff1673ffffffffffffffffffffffffffffffffffffffff163373ffffffffffffffffffffffffffffffffffffffff16146107a8576040517f08c379a000000000000000000000000000000000000000000000000000000000815260040161079f90612231565b60405180910390fd5b60005b600280549050811015610812576000600282815481106107ce576107cd611cdf565b5b906000526020600020016040516107e591906122d4565b908152602001604051809103902060006107ff9190611121565b808061080a90611d90565b9150506107ab565b50600260006108219190611145565b6000600360146101000a81548160ff0219169083151502179055507f800bdaa40887ccfd790fdc79f47cf3acbb2a1ecf28b3bccb67e3719009c1bab260405160405180910390a1565b600360149054906101000a900460ff1681565b600360009054906101000a900473ffffffffffffffffffffffffffffffffffffffff1673ffffffffffffffffffffffffffffffffffffffff163373ffffffffffffffffffffffffffffffffffffffff161461090d576040517f08c379a000000000000000000000000000000000000000000000000000000000815260040161090490612231565b60405180910390fd5b600360149054906101000a900460ff161561095d576040517f08c379a00000000000000000000000000000000000000000000000000000000081526004016109549061235d565b60405180910390fd5b6002600061096b9190611145565b60005b8351811015610c5e5760008085838151811061098d5761098c611cdf565b5b60200260200101516040516109a29190611d4a565b90815260200160405180910390208054905003610a095760028482815181106109ce576109cd611cdf565b5b6020026020010151908060018154018082558091505060019003906000526020600020016000909190919091509081610a079190611fe4565b505b6000848281518110610a1e57610a1d611cdf565b5b6020026020010151604051610a339190611d4a565b90815260200160405180910390206000610a4d9190611121565b60005b838281518110610a6357610a62611cdf565b5b602002602001015151811015610c4a576000858381518110610a8857610a87611cdf565b5b6020026020010151604051610a9d9190611d4a565b90815260200160405180910390206040518060a00160405280868581518110610ac957610ac8611cdf565b5b60200260200101518481518110610ae357610ae2611cdf565b5b60200260200101518152602001858581518110610b0357610b02611cdf565b5b60200260200101518481518110610b1d57610b1c611cdf565b5b60200260200101518152602001878581518110610b3d57610b3c611cdf565b5b6020026020010151815260200160008152602001600067ffffffffffffffff811115610b6c57610b6b6112f8565b5b604051908082528060200260200182016040528015610b9f57816020015b6060815260200190600190039081610b8a5790505b5081525090806001815401808255809150506001900390600052602060002090600502016000909190919091506000820151816000019081610be19190611fe4565b506020820151816001019081610bf79190611fe4565b506040820151816002019081610c0d9190611fe4565b50606082015181600301556080820151816004019080519060200190610c34929190611166565b5050508080610c4290611d90565b915050610a50565b508080610c5690611d90565b91505061096e565b506001600360146101000a81548160ff0219169083151502179055507f86825b43264ca968e676c45c8e05cc56965ff5938ed49dcf636c61acb7070bd760405160405180910390a1505050565b600360009054906101000a900473ffffffffffffffffffffffffffffffffffffffff1681565b6060600080600090505b600280549050811015610d4757600060028281548110610cfe57610cfd611cdf565b5b90600052602060002001604051610d1591906122d4565b90815260200160405180910390208054905082610d32919061237d565b91508080610d3f90611d90565b915050610cdb565b5060008167ffffffffffffffff811115610d6457610d636112f8565b5b604051908082528060200260200182016040528015610d9d57816020015b610d8a6111bf565b815260200190600190039081610d825790505b5090506000805b6002805490508110156111175760008060028381548110610dc857610dc7611cdf565b5b90600052602060002001604051610ddf91906122d4565b9081526020016040518091039020905060005b818054905081101561110257818181548110610e1157610e10611cdf565b5b90600052602060002090600502016040518060a0016040529081600082018054610e3a90611e07565b80601f0160208091040260200160405190810160405280929190818152602001828054610e6690611e07565b8015610eb35780601f10610e8857610100808354040283529160200191610eb3565b820191906000526020600020905b815481529060010190602001808311610e9657829003601f168201915b50505050508152602001600182018054610ecc90611e07565b80601f0160208091040260200160405190810160405280929190818152602001828054610ef890611e07565b8015610f455780601f10610f1a57610100808354040283529160200191610f45565b820191906000526020600020905b815481529060010190602001808311610f2857829003601f168201915b50505050508152602001600282018054610f5e90611e07565b80601f0160208091040260200160405190810160405280929190818152602001828054610f8a90611e07565b8015610fd75780601f10610fac57610100808354040283529160200191610fd7565b820191906000526020600020905b815481529060010190602001808311610fba57829003601f168201915b505050505081526020016003820154815260200160048201805480602002602001604051908101604052809291908181526020016000905b828210156110bb57838290600052602060002001805461102e90611e07565b80601f016020809104026020016040519081016040528092919081815260200182805461105a90611e07565b80156110a75780601f1061107c576101008083540402835291602001916110a7565b820191906000526020600020905b81548152906001019060200180831161108a57829003601f168201915b50505050508152602001906001019061100f565b50505050815250508585815181106110d6576110d5611cdf565b5b602002602001018190525083806110ec90611d90565b94505080806110fa90611d90565b915050610df2565b5050808061110f90611d90565b915050610da4565b5081935050505090565b508054600082556005029060005260206000209081019061114291906111ee565b50565b5080546000825590600052602060002090810190611163919061124d565b50565b8280548282559060005260206000209081019282156111ae579160200282015b828111156111ad57825182908161119d9190611fe4565b5091602001919060010190611186565b5b5090506111bb919061124d565b5090565b6040518060a0016040528060608152602001606081526020016060815260200160008152602001606081525090565b5b8082111561124957600080820160006112089190611271565b6001820160006112189190611271565b6002820160006112289190611271565b60038201600090556004820160006112409190611145565b506005016111ef565b5090565b5b8082111561126d57600081816112649190611271565b5060010161124e565b5090565b50805461127d90611e07565b6000825580601f1061128f57506112ae565b601f0160209004906000526020600020908101906112ad91906112b1565b5b50565b5b808211156112ca5760008160009055506001016112b2565b5090565b6000604051905090565b600080fd5b600080fd5b600080fd5b6000601f19601f8301169050919050565b7f4e487b7100000000000000000000000000000000000000000000000000000000600052604160045260246000fd5b611330826112e7565b810181811067ffffffffffffffff8211171561134f5761134e6112f8565b5b80604052505050565b60006113626112ce565b905061136e8282611327565b919050565b600067ffffffffffffffff82111561138e5761138d6112f8565b5b602082029050602081019050919050565b600080fd5b600080fd5b600067ffffffffffffffff8211156113c4576113c36112f8565b5b6113cd826112e7565b9050602081019050919050565b82818337600083830152505050565b60006113fc6113f7846113a9565b611358565b905082815260208101848484011115611418576114176113a4565b5b6114238482856113da565b509392505050565b600082601f8301126114405761143f6112e2565b5b81356114508482602086016113e9565b91505092915050565b600061146c61146784611373565b611358565b9050808382526020820190506020840283018581111561148f5761148e61139f565b5b835b818110156114d657803567ffffffffffffffff8111156114b4576114b36112e2565b5b8086016114c1898261142b565b85526020850194505050602081019050611491565b5050509392505050565b600082601f8301126114f5576114f46112e2565b5b8135611505848260208601611459565b91505092915050565b600067ffffffffffffffff821115611529576115286112f8565b5b602082029050602081019050919050565b6000819050919050565b61154d8161153a565b811461155857600080fd5b50565b60008135905061156a81611544565b92915050565b600061158361157e8461150e565b611358565b905080838252602082019050602084028301858111156115a6576115a561139f565b5b835b818110156115cf57806115bb888261155b565b8452602084019350506020810190506115a8565b5050509392505050565b600082601f8301126115ee576115ed6112e2565b5b81356115fe848260208601611570565b91505092915050565b6000806000606084860312156116205761161f6112d8565b5b600084013567ffffffffffffffff81111561163e5761163d6112dd565b5b61164a868287016114e0565b935050602084013567ffffffffffffffff81111561166b5761166a6112dd565b5b611677868287016115d9565b925050604084013567ffffffffffffffff811115611698576116976112dd565b5b6116a48682870161142b565b9150509250925092565b6000602082840312156116c4576116c36112d8565b5b600082013567ffffffffffffffff8111156116e2576116e16112dd565b5b6116ee8482850161142b565b91505092915050565b600081519050919050565b600082825260208201905092915050565b6000819050602082019050919050565b600081519050919050565b600082825260208201905092915050565b60005b8381101561175d578082015181840152602081019050611742565b60008484015250505050565b600061177482611723565b61177e818561172e565b935061178e81856020860161173f565b611797816112e7565b840191505092915050565b6117ab8161153a565b82525050565b600081519050919050565b600082825260208201905092915050565b6000819050602082019050919050565b60006117e98383611769565b905092915050565b6000602082019050919050565b6000611809826117b1565b61181381856117bc565b935083602082028501611825856117cd565b8060005b85811015611861578484038952815161184285826117dd565b945061184d836117f1565b925060208a01995050600181019050611829565b50829750879550505050505092915050565b600060a08301600083015184820360008601526118908282611769565b915050602083015184820360208601526118aa8282611769565b915050604083015184820360408601526118c48282611769565b91505060608301516118d960608601826117a2565b50608083015184820360808601526118f182826117fe565b9150508091505092915050565b600061190a8383611873565b905092915050565b6000602082019050919050565b600061192a826116f7565b6119348185611702565b93508360208202850161194685611713565b8060005b85811015611982578484038952815161196385826118fe565b945061196e83611912565b925060208a0199505060018101905061194a565b50829750879550505050505092915050565b600060208201905081810360008301526119ae818461191f565b905092915050565b60008115159050919050565b6119cb816119b6565b82525050565b60006020820190506119e660008301846119c2565b92915050565b600067ffffffffffffffff821115611a0757611a066112f8565b5b602082029050602081019050919050565b6000611a2b611a26846119ec565b611358565b90508083825260208201905060208402830185811115611a4e57611a4d61139f565b5b835b81811015611a9557803567ffffffffffffffff811115611a7357611a726112e2565b5b808601611a8089826114e0565b85526020850194505050602081019050611a50565b5050509392505050565b600082601f830112611ab457611ab36112e2565b5b8135611ac4848260208601611a18565b91505092915050565b600080600060608486031215611ae657611ae56112d8565b5b600084013567ffffffffffffffff811115611b0457611b036112dd565b5b611b10868287016114e0565b935050602084013567ffffffffffffffff811115611b3157611b306112dd565b5b611b3d86828701611a9f565b925050604084013567ffffffffffffffff811115611b5e57611b5d6112dd565b5b611b6a86828701611a9f565b9150509250925092565b600073ffffffffffffffffffffffffffffffffffffffff82169050919050565b6000611b9f82611b74565b9050919050565b611baf81611b94565b82525050565b6000602082019050611bca6000830184611ba6565b92915050565b600082825260208201905092915050565b7f566f74696e672063616e6e6f7420737461727420756e74696c2063616e64696460008201527f61746573206172652066696e616c697a65642100000000000000000000000000602082015250565b6000611c3d603383611bd0565b9150611c4882611be1565b604082019050919050565b60006020820190508181036000830152611c6c81611c30565b9050919050565b7f4d69736d61746368656420696e707574206c656e677468730000000000000000600082015250565b6000611ca9601883611bd0565b9150611cb482611c73565b602082019050919050565b60006020820190508181036000830152611cd881611c9c565b9050919050565b7f4e487b7100000000000000000000000000000000000000000000000000000000600052603260045260246000fd5b600081905092915050565b6000611d2482611723565b611d2e8185611d0e565b9350611d3e81856020860161173f565b80840191505092915050565b6000611d568284611d19565b915081905092915050565b7f4e487b7100000000000000000000000000000000000000000000000000000000600052601160045260246000fd5b6000611d9b8261153a565b91507fffffffffffffffffffffffffffffffffffffffffffffffffffffffffffffffff8203611dcd57611dcc611d61565b5b600182019050919050565b7f4e487b7100000000000000000000000000000000000000000000000000000000600052602260045260246000fd5b60006002820490506001821680611e1f57607f821691505b602082108103611e3257611e31611dd8565b5b50919050565b60008190508160005260206000209050919050565b60006020601f8301049050919050565b600082821b905092915050565b600060088302611e9a7fffffffffffffffffffffffffffffffffffffffffffffffffffffffffffffffff82611e5d565b611ea48683611e5d565b95508019841693508086168417925050509392505050565b6000819050919050565b6000611ee1611edc611ed78461153a565b611ebc565b61153a565b9050919050565b6000819050919050565b611efb83611ec6565b611f0f611f0782611ee8565b848454611e6a565b825550505050565b600090565b611f24611f17565b611f2f818484611ef2565b505050565b5b81811015611f5357611f48600082611f1c565b600181019050611f35565b5050565b601f821115611f9857611f6981611e38565b611f7284611e4d565b81016020851015611f81578190505b611f95611f8d85611e4d565b830182611f34565b50505b505050565b600082821c905092915050565b6000611fbb60001984600802611f9d565b1980831691505092915050565b6000611fd48383611faa565b9150826002028217905092915050565b611fed82611723565b67ffffffffffffffff811115612006576120056112f8565b5b6120108254611e07565b61201b828285611f57565b600060209050601f83116001811461204e576000841561203c578287015190505b6120468582611fc8565b8655506120ae565b601f19841661205c86611e38565b60005b828110156120845784890151825560018201915060208501945060208101905061205f565b868310156120a1578489015161209d601f891682611faa565b8355505b6001600288020188555050505b505050505050565b60006120c182611723565b6120cb8185611bd0565b93506120db81856020860161173f565b6120e4816112e7565b840191505092915050565b600081546120fc81611e07565b6121068186611bd0565b9450600182166000811461212157600181146121375761216a565b60ff19831686528115156020028601935061216a565b61214085611e38565b60005b8381101561216257815481890152600182019150602081019050612143565b808801955050505b50505092915050565b6000606082019050818103600083015261218d81866120b6565b905081810360208301526121a181856120ef565b905081810360408301526121b581846120b6565b9050949350505050565b7f4f6e6c792061646d696e2063616e20706572666f726d2074686973206163746960008201527f6f6e000000000000000000000000000000000000000000000000000000000000602082015250565b600061221b602283611bd0565b9150612226826121bf565b604082019050919050565b6000602082019050818103600083015261224a8161220e565b9050919050565b6000815461225e81611e07565b6122688186611d0e565b945060018216600081146122835760018114612298576122cb565b60ff19831686528115158202860193506122cb565b6122a185611e38565b60005b838110156122c3578154818901526001820191506020810190506122a4565b838801955050505b50505092915050565b60006122e08284612251565b915081905092915050565b7f43616e646964617465732061726520616c72656164792066696e616c697a656460008201527f2100000000000000000000000000000000000000000000000000000000000000602082015250565b6000612347602183611bd0565b9150612352826122eb565b604082019050919050565b600060208201905081810360008301526123768161233a565b9050919050565b60006123888261153a565b91506123938361153a565b92508282019050808211156123ab576123aa611d61565b5b9291505056fea26469706673582212208c641526c84a67789d55eaad1249b53341f6c0ed8a9e95f6adac46fc8ac99c3b64736f6c63430008150033",
  "linkReferences": {},
  "deployedLinkReferences": {}
}