{
  "_format": "hh-sol-artifact-1",
  "contractName": "AdminCandidates",
  "sourceName": "contracts/AdminCandidates.sol",
  "abi": [
    {
      "inputs": [],
      "stateMutability": "nonpayable",
      "type": "constructor"
    },
    {
      "anonymous": false,
      "inputs": [],
      "name": "CandidatesReset",
      "type": "event"
    },
    {
      "anonymous": false,
      "inputs": [],
      "name": "CandidatesSubmitted",
      "type": "event"
    },
    {
      "anonymous": false,
      "inputs": [
        {
          "indexed": false,
          "internalType": "bytes32",
          "name": "position",
          "type": "bytes32"
        },
        {
          "indexed": false,
          "internalType": "bytes32",
          "name": "name",
          "type": "bytes32"
        },
        {
          "indexed": false,
          "internalType": "bytes32",
          "name": "voterHash",
          "type": "bytes32"
        }
      ],
      "name": "VoteSubmitted",
      "type": "event"
    },
    {
      "inputs": [],
      "name": "admin",
      "outputs": [
        {
          "internalType": "address",
          "name": "",
          "type": "address"
        }
      ],
      "stateMutability": "view",
      "type": "function"
    },
    {
      "inputs": [
        {
          "internalType": "bytes32[]",
          "name": "_positions",
          "type": "bytes32[]"
        },
        {
          "internalType": "uint256[]",
          "name": "_indices",
          "type": "uint256[]"
        },
        {
          "internalType": "bytes32",
          "name": "_voterHash",
          "type": "bytes32"
        }
      ],
      "name": "batchVote",
      "outputs": [],
      "stateMutability": "nonpayable",
      "type": "function"
    },
    {
      "inputs": [
        {
          "internalType": "bytes32",
          "name": "",
          "type": "bytes32"
        }
      ],
      "name": "boardMemberProgramIDs",
      "outputs": [
        {
          "internalType": "bytes32",
          "name": "",
          "type": "bytes32"
        }
      ],
      "stateMutability": "view",
      "type": "function"
    },
    {
      "inputs": [
        {
          "internalType": "bytes32",
          "name": "_position",
          "type": "bytes32"
        }
      ],
      "name": "getCandidates",
      "outputs": [
        {
          "components": [
            {
              "internalType": "bytes32",
              "name": "name",
              "type": "bytes32"
            },
            {
              "internalType": "bytes32",
              "name": "party",
              "type": "bytes32"
            }
          ],
          "internalType": "struct AdminCandidates.CandidateEntry[]",
          "name": "",
          "type": "tuple[]"
        }
      ],
      "stateMutability": "view",
      "type": "function"
    },
    {
      "inputs": [],
      "name": "getPositionList",
      "outputs": [
        {
          "internalType": "bytes32[]",
          "name": "",
          "type": "bytes32[]"
        }
      ],
      "stateMutability": "view",
      "type": "function"
    },
    {
      "inputs": [],
      "name": "getVoteCounts",
      "outputs": [
        {
          "components": [
            {
              "internalType": "bytes32",
              "name": "name",
              "type": "bytes32"
            },
            {
              "internalType": "bytes32",
              "name": "party",
              "type": "bytes32"
            }
          ],
          "internalType": "struct AdminCandidates.CandidateEntry[]",
          "name": "",
          "type": "tuple[]"
        },
        {
          "internalType": "uint256[]",
          "name": "",
          "type": "uint256[]"
        }
      ],
      "stateMutability": "view",
      "type": "function"
    },
    {
      "inputs": [
        {
          "internalType": "bytes32",
          "name": "_position",
          "type": "bytes32"
        },
        {
          "internalType": "uint256",
          "name": "_index",
          "type": "uint256"
        }
      ],
      "name": "getVoterHashes",
      "outputs": [
        {
          "internalType": "bytes32[]",
          "name": "",
          "type": "bytes32[]"
        }
      ],
      "stateMutability": "view",
      "type": "function"
    },
    {
      "inputs": [],
      "name": "getWinners",
      "outputs": [
        {
          "components": [
            {
              "internalType": "bytes32",
              "name": "position",
              "type": "bytes32"
            },
            {
              "internalType": "bytes32",
              "name": "name",
              "type": "bytes32"
            },
            {
              "internalType": "bytes32",
              "name": "party",
              "type": "bytes32"
            },
            {
              "internalType": "uint256",
              "name": "votes",
              "type": "uint256"
            }
          ],
          "internalType": "struct AdminCandidates.Winner[]",
          "name": "",
          "type": "tuple[]"
        }
      ],
      "stateMutability": "view",
      "type": "function"
    },
    {
      "inputs": [],
      "name": "isFinalized",
      "outputs": [
        {
          "internalType": "bool",
          "name": "",
          "type": "bool"
        }
      ],
      "stateMutability": "view",
      "type": "function"
    },
    {
      "inputs": [],
      "name": "resetCandidates",
      "outputs": [],
      "stateMutability": "nonpayable",
      "type": "function"
    },
    {
      "inputs": [
        {
          "internalType": "bytes32[]",
          "name": "_positions",
          "type": "bytes32[]"
        },
        {
          "components": [
            {
              "internalType": "bytes32",
              "name": "name",
              "type": "bytes32"
            },
            {
              "internalType": "bytes32",
              "name": "party",
              "type": "bytes32"
            }
          ],
          "internalType": "struct AdminCandidates.CandidateEntry[][]",
          "name": "_candidates",
          "type": "tuple[][]"
        },
        {
          "internalType": "bytes32[]",
          "name": "_boardMemberProgramIDs",
          "type": "bytes32[]"
        }
      ],
      "name": "submitCandidates",
      "outputs": [],
      "stateMutability": "nonpayable",
      "type": "function"
    }
  ],
  "bytecode": "0x60806040526000600460146101000a81548160ff02191690831515021790555034801561002b57600080fd5b5033600460006101000a81548173ffffffffffffffffffffffffffffffffffffffff021916908373ffffffffffffffffffffffffffffffffffffffff1602179055506122c98061007c6000396000f3fe608060405234801561001057600080fd5b50600436106100a95760003560e01c8063a5d3157e11610071578063a5d3157e14610166578063adf55ada14610184578063df15c37e146101a0578063e7d8e8ad146101be578063f851a440146101da578063ffc97b20146101f8576100a9565b806356fc64f8146100ae57806370918ce3146100de5780637718d9f31461010e57806385b923ca146101185780638d4e408314610148575b600080fd5b6100c860048036038101906100c3919061140e565b610217565b6040516100d5919061144a565b60405180910390f35b6100f860048036038101906100f3919061149b565b61022f565b6040516101059190611599565b60405180910390f35b6101166102ac565b005b610132600480360381019061012d919061140e565b6103f9565b60405161013f9190611699565b60405180910390f35b610150610515565b60405161015d91906116d6565b60405180910390f35b61016e610528565b60405161017b9190611599565b60405180910390f35b61019e60048036038101906101999190611a43565b610580565b005b6101a8610987565b6040516101b59190611bfd565b60405180910390f35b6101d860048036038101906101d39190611ce2565b610b62565b005b6101e2610db7565b6040516101ef9190611dae565b60405180910390f35b610200610ddd565b60405161020e929190611e78565b60405180910390f35b60036020528060005260406000206000915090505481565b606060016000848152602001908152602001600020600083815260200190815260200160002080548060200260200160405190810160405280929190818152602001828054801561029f57602002820191906000526020600020905b81548152602001906001019080831161028b575b5050505050905092915050565b600460009054906101000a900473ffffffffffffffffffffffffffffffffffffffff1673ffffffffffffffffffffffffffffffffffffffff163373ffffffffffffffffffffffffffffffffffffffff161461033c576040517f08c379a000000000000000000000000000000000000000000000000000000000815260040161033390611f32565b60405180910390fd5b60005b6002805490508110156103a15760006002828154811061036257610361611f52565b5b90600052602060002001549050600080828152602001908152602001600020600061038d91906112e2565b50808061039990611fb0565b91505061033f565b50600260006103b09190611306565b6000600460146101000a81548160ff0219169083151502179055507f800bdaa40887ccfd790fdc79f47cf3acbb2a1ecf28b3bccb67e3719009c1bab260405160405180910390a1565b6060600080600084815260200190815260200160002090506000818054905067ffffffffffffffff81111561043157610430611707565b5b60405190808252806020026020018201604052801561046a57816020015b610457611327565b81526020019060019003908161044f5790505b50905060005b828054905081101561050a57604051806040016040528084838154811061049a57610499611f52565b5b90600052602060002090600302016000015481526020018483815481106104c4576104c3611f52565b5b9060005260206000209060030201600101548152508282815181106104ec576104eb611f52565b5b6020026020010181905250808061050290611fb0565b915050610470565b508092505050919050565b600460149054906101000a900460ff1681565b6060600280548060200260200160405190810160405280929190818152602001828054801561057657602002820191906000526020600020905b815481526020019060010190808311610562575b5050505050905090565b600460009054906101000a900473ffffffffffffffffffffffffffffffffffffffff1673ffffffffffffffffffffffffffffffffffffffff163373ffffffffffffffffffffffffffffffffffffffff1614610610576040517f08c379a000000000000000000000000000000000000000000000000000000000815260040161060790611f32565b60405180910390fd5b600460149054906101000a900460ff1615610660576040517f08c379a00000000000000000000000000000000000000000000000000000000081526004016106579061206a565b60405180910390fd5b6002600061066e9190611306565b60005b835181101561093a57600080600086848151811061069257610691611f52565b5b6020026020010151815260200190815260200160002080549050036106f55760028482815181106106c6576106c5611f52565b5b602002602001015190806001815401808255809150506001900390600052602060002001600090919091909150555b60008085838151811061070b5761070a611f52565b5b60200260200101518152602001908152602001600020600061072d91906112e2565b60005b83828151811061074357610742611f52565b5b6020026020010151518110156108b15760008086848151811061076957610768611f52565b5b60200260200101518152602001908152602001600020604051806060016040528086858151811061079d5761079c611f52565b5b602002602001015184815181106107b7576107b6611f52565b5b60200260200101516000015181526020018685815181106107db576107da611f52565b5b602002602001015184815181106107f5576107f4611f52565b5b60200260200101516020015181526020016000815250908060018154018082558091505060019003906000526020600020906003020160009091909190915060008201518160000155602082015181600101556040820151816002015550506001600086848151811061086b5761086a611f52565b5b602002602001015181526020019081526020016000206000828152602001908152602001600020600061089e9190611306565b80806108a990611fb0565b915050610730565b506108d58482815181106108c8576108c7611f52565b5b602002602001015161103d565b15610927578181815181106108ed576108ec611f52565b5b60200260200101516003600086848151811061090c5761090b611f52565b5b60200260200101518152602001908152602001600020819055505b808061093290611fb0565b915050610671565b506001600460146101000a81548160ff0219169083151502179055507f86825b43264ca968e676c45c8e05cc56965ff5938ed49dcf636c61acb7070bd760405160405180910390a1505050565b60606000600280549050905060008167ffffffffffffffff8111156109af576109ae611707565b5b6040519080825280602002602001820160405280156109e857816020015b6109d5611347565b8152602001906001900390816109cd5790505b50905060005b82811015610b5957600060028281548110610a0c57610a0b611f52565b5b90600052602060002001549050600080600083815260200190815260200160002090506000806000805b8480549050811015610ab957811580610a72575083858281548110610a5e57610a5d611f52565b5b906000526020600020906003020160020154115b15610aa657848181548110610a8a57610a89611f52565b5b9060005260206000209060030201600201549350809250600191505b8080610ab190611fb0565b915050610a36565b506040518060800160405280868152602001858481548110610ade57610add611f52565b5b9060005260206000209060030201600001548152602001858481548110610b0857610b07611f52565b5b906000526020600020906003020160010154815260200184815250878781518110610b3657610b35611f52565b5b602002602001018190525050505050508080610b5190611fb0565b9150506109ee565b50809250505090565b600460149054906101000a900460ff16610bb1576040517f08c379a0000000000000000000000000000000000000000000000000000000008152600401610ba8906120fc565b60405180910390fd5b8151835114610bf5576040517f08c379a0000000000000000000000000000000000000000000000000000000008152600401610bec90612168565b60405180910390fd5b60005b8351811015610db1576000848281518110610c1657610c15611f52565b5b602002602001015190506000848381518110610c3557610c34611f52565b5b60200260200101519050600080838152602001908152602001600020805490508110610c96576040517f08c379a0000000000000000000000000000000000000000000000000000000008152600401610c8d906121d4565b60405180910390fd5b6000808381526020019081526020016000208181548110610cba57610cb9611f52565b5b90600052602060002090600302016002016000815480929190610cdc90611fb0565b91905055506001600083815260200190815260200160002060008281526020019081526020016000208490806001815401808255809150506001900390600052602060002001600090919091909150557f178e76faa844f1c429cbe43bb805a70530f990ef2acc87f8f626ac80ff484909826000808581526020019081526020016000208381548110610d7257610d71611f52565b5b90600052602060002090600302016000015486604051610d94939291906121f4565b60405180910390a150508080610da990611fb0565b915050610bf8565b50505050565b600460009054906101000a900473ffffffffffffffffffffffffffffffffffffffff1681565b6060806000805b600280549050811015610e455760008060028381548110610e0857610e07611f52565b5b906000526020600020015481526020019081526020016000208054905082610e30919061222b565b91508080610e3d90611fb0565b915050610de4565b5060008167ffffffffffffffff811115610e6257610e61611707565b5b604051908082528060200260200182016040528015610e9b57816020015b610e88611327565b815260200190600190039081610e805790505b50905060008267ffffffffffffffff811115610eba57610eb9611707565b5b604051908082528060200260200182016040528015610ee85781602001602082028036833780820191505090505b5090506000805b60028054905081101561102e57600080600060028481548110610f1557610f14611f52565b5b90600052602060002001548152602001908152602001600020905060005b8180549050811015611019576040518060400160405280838381548110610f5d57610f5c611f52565b5b9060005260206000209060030201600001548152602001838381548110610f8757610f86611f52565b5b906000526020600020906003020160010154815250868581518110610faf57610fae611f52565b5b6020026020010181905250818181548110610fcd57610fcc611f52565b5b906000526020600020906003020160020154858581518110610ff257610ff1611f52565b5b6020026020010181815250508380600101945050808061101190611fb0565b915050610f33565b5050808061102690611fb0565b915050610eef565b50828295509550505050509091565b600080611049836111ac565b9050600081905060006040518060400160405280600c81526020017f426f617264204d656d626572000000000000000000000000000000000000000081525090508051825110156110a057600093505050506111a7565b60005b815183516110b1919061225f565b811161119e5760006001905060005b8351811015611175578381815181106110dc576110db611f52565b5b602001015160f81c60f81b7effffffffffffffffffffffffffffffffffffffffffffffffffffffffffffff1916858285611116919061222b565b8151811061112757611126611f52565b5b602001015160f81c60f81b7effffffffffffffffffffffffffffffffffffffffffffffffffffffffffffff1916146111625760009150611175565b808061116d90611fb0565b9150506110c0565b50801561118a576001955050505050506111a7565b50808061119690611fb0565b9150506110a3565b50600093505050505b919050565b606060005b6020811080156111fd5750600060f81b8382602081106111d4576111d3611f52565b5b1a60f81b7effffffffffffffffffffffffffffffffffffffffffffffffffffffffffffff191614155b1561120f5780806001019150506111b1565b60008167ffffffffffffffff81111561122b5761122a611707565b5b6040519080825280601f01601f19166020018201604052801561125d5781602001600182028036833780820191505090505b50905060005b828110156112d75784816020811061127e5761127d611f52565b5b1a60f81b82828151811061129557611294611f52565b5b60200101907effffffffffffffffffffffffffffffffffffffffffffffffffffffffffffff1916908160001a90535080806112cf90611fb0565b915050611263565b508092505050919050565b50805460008255600302906000526020600020908101906113039190611378565b50565b508054600082559060005260206000209081019061132491906113a7565b50565b604051806040016040528060008019168152602001600080191681525090565b6040518060800160405280600080191681526020016000801916815260200160008019168152602001600081525090565b5b808211156113a3576000808201600090556001820160009055600282016000905550600301611379565b5090565b5b808211156113c05760008160009055506001016113a8565b5090565b6000604051905090565b600080fd5b600080fd5b6000819050919050565b6113eb816113d8565b81146113f657600080fd5b50565b600081359050611408816113e2565b92915050565b600060208284031215611424576114236113ce565b5b6000611432848285016113f9565b91505092915050565b611444816113d8565b82525050565b600060208201905061145f600083018461143b565b92915050565b6000819050919050565b61147881611465565b811461148357600080fd5b50565b6000813590506114958161146f565b92915050565b600080604083850312156114b2576114b16113ce565b5b60006114c0858286016113f9565b92505060206114d185828601611486565b9150509250929050565b600081519050919050565b600082825260208201905092915050565b6000819050602082019050919050565b611510816113d8565b82525050565b60006115228383611507565b60208301905092915050565b6000602082019050919050565b6000611546826114db565b61155081856114e6565b935061155b836114f7565b8060005b8381101561158c5781516115738882611516565b975061157e8361152e565b92505060018101905061155f565b5085935050505092915050565b600060208201905081810360008301526115b3818461153b565b905092915050565b600081519050919050565b600082825260208201905092915050565b6000819050602082019050919050565b6040820160008201516115fd6000850182611507565b5060208201516116106020850182611507565b50505050565b600061162283836115e7565b60408301905092915050565b6000602082019050919050565b6000611646826115bb565b61165081856115c6565b935061165b836115d7565b8060005b8381101561168c5781516116738882611616565b975061167e8361162e565b92505060018101905061165f565b5085935050505092915050565b600060208201905081810360008301526116b3818461163b565b905092915050565b60008115159050919050565b6116d0816116bb565b82525050565b60006020820190506116eb60008301846116c7565b92915050565b600080fd5b6000601f19601f8301169050919050565b7f4e487b7100000000000000000000000000000000000000000000000000000000600052604160045260246000fd5b61173f826116f6565b810181811067ffffffffffffffff8211171561175e5761175d611707565b5b80604052505050565b60006117716113c4565b905061177d8282611736565b919050565b600067ffffffffffffffff82111561179d5761179c611707565b5b602082029050602081019050919050565b600080fd5b60006117c66117c184611782565b611767565b905080838252602082019050602084028301858111156117e9576117e86117ae565b5b835b8181101561181257806117fe88826113f9565b8452602084019350506020810190506117eb565b5050509392505050565b600082601f830112611831576118306116f1565b5b81356118418482602086016117b3565b91505092915050565b600067ffffffffffffffff82111561186557611864611707565b5b602082029050602081019050919050565b600067ffffffffffffffff82111561189157611890611707565b5b602082029050602081019050919050565b600080fd5b6000604082840312156118bd576118bc6118a2565b5b6118c76040611767565b905060006118d7848285016113f9565b60008301525060206118eb848285016113f9565b60208301525092915050565b600061190a61190584611876565b611767565b9050808382526020820190506040840283018581111561192d5761192c6117ae565b5b835b81811015611956578061194288826118a7565b84526020840193505060408101905061192f565b5050509392505050565b600082601f830112611975576119746116f1565b5b81356119858482602086016118f7565b91505092915050565b60006119a161199c8461184a565b611767565b905080838252602082019050602084028301858111156119c4576119c36117ae565b5b835b81811015611a0b57803567ffffffffffffffff8111156119e9576119e86116f1565b5b8086016119f68982611960565b855260208501945050506020810190506119c6565b5050509392505050565b600082601f830112611a2a57611a296116f1565b5b8135611a3a84826020860161198e565b91505092915050565b600080600060608486031215611a5c57611a5b6113ce565b5b600084013567ffffffffffffffff811115611a7a57611a796113d3565b5b611a868682870161181c565b935050602084013567ffffffffffffffff811115611aa757611aa66113d3565b5b611ab386828701611a15565b925050604084013567ffffffffffffffff811115611ad457611ad36113d3565b5b611ae08682870161181c565b9150509250925092565b600081519050919050565b600082825260208201905092915050565b6000819050602082019050919050565b611b1f81611465565b82525050565b608082016000820151611b3b6000850182611507565b506020820151611b4e6020850182611507565b506040820151611b616040850182611507565b506060820151611b746060850182611b16565b50505050565b6000611b868383611b25565b60808301905092915050565b6000602082019050919050565b6000611baa82611aea565b611bb48185611af5565b9350611bbf83611b06565b8060005b83811015611bf0578151611bd78882611b7a565b9750611be283611b92565b925050600181019050611bc3565b5085935050505092915050565b60006020820190508181036000830152611c178184611b9f565b905092915050565b600067ffffffffffffffff821115611c3a57611c39611707565b5b602082029050602081019050919050565b6000611c5e611c5984611c1f565b611767565b90508083825260208201905060208402830185811115611c8157611c806117ae565b5b835b81811015611caa5780611c968882611486565b845260208401935050602081019050611c83565b5050509392505050565b600082601f830112611cc957611cc86116f1565b5b8135611cd9848260208601611c4b565b91505092915050565b600080600060608486031215611cfb57611cfa6113ce565b5b600084013567ffffffffffffffff811115611d1957611d186113d3565b5b611d258682870161181c565b935050602084013567ffffffffffffffff811115611d4657611d456113d3565b5b611d5286828701611cb4565b9250506040611d63868287016113f9565b9150509250925092565b600073ffffffffffffffffffffffffffffffffffffffff82169050919050565b6000611d9882611d6d565b9050919050565b611da881611d8d565b82525050565b6000602082019050611dc36000830184611d9f565b92915050565b600081519050919050565b600082825260208201905092915050565b6000819050602082019050919050565b6000611e018383611b16565b60208301905092915050565b6000602082019050919050565b6000611e2582611dc9565b611e2f8185611dd4565b9350611e3a83611de5565b8060005b83811015611e6b578151611e528882611df5565b9750611e5d83611e0d565b925050600181019050611e3e565b5085935050505092915050565b60006040820190508181036000830152611e92818561163b565b90508181036020830152611ea68184611e1a565b90509392505050565b600082825260208201905092915050565b7f4f6e6c792061646d696e2063616e20706572666f726d2074686973206163746960008201527f6f6e000000000000000000000000000000000000000000000000000000000000602082015250565b6000611f1c602283611eaf565b9150611f2782611ec0565b604082019050919050565b60006020820190508181036000830152611f4b81611f0f565b9050919050565b7f4e487b7100000000000000000000000000000000000000000000000000000000600052603260045260246000fd5b7f4e487b7100000000000000000000000000000000000000000000000000000000600052601160045260246000fd5b6000611fbb82611465565b91507fffffffffffffffffffffffffffffffffffffffffffffffffffffffffffffffff8203611fed57611fec611f81565b5b600182019050919050565b7f43616e646964617465732061726520616c72656164792066696e616c697a656460008201527f2100000000000000000000000000000000000000000000000000000000000000602082015250565b6000612054602183611eaf565b915061205f82611ff8565b604082019050919050565b6000602082019050818103600083015261208381612047565b9050919050565b7f566f74696e672063616e6e6f7420737461727420756e74696c2063616e64696460008201527f61746573206172652066696e616c697a65642100000000000000000000000000602082015250565b60006120e6603383611eaf565b91506120f18261208a565b604082019050919050565b60006020820190508181036000830152612115816120d9565b9050919050565b7f4d69736d61746368656420696e707574206c656e677468730000000000000000600082015250565b6000612152601883611eaf565b915061215d8261211c565b602082019050919050565b6000602082019050818103600083015261218181612145565b9050919050565b7f496e76616c69642063616e64696461746520696e646578000000000000000000600082015250565b60006121be601783611eaf565b91506121c982612188565b602082019050919050565b600060208201905081810360008301526121ed816121b1565b9050919050565b6000606082019050612209600083018661143b565b612216602083018561143b565b612223604083018461143b565b949350505050565b600061223682611465565b915061224183611465565b925082820190508082111561225957612258611f81565b5b92915050565b600061226a82611465565b915061227583611465565b925082820390508181111561228d5761228c611f81565b5b9291505056fea26469706673582212205216aec8ed3aadae6d8c81114a5a8839803aa86ca5fe398f7d43fbdd77d40c1a64736f6c63430008150033",
  "linkReferences": {},
  "deployedLinkReferences": {}
}