{
  "_format": "hh-sol-artifact-1",
  "contractName": "AdminCandidates",
  "sourceName": "contracts/AdminCandidates.sol",
  "abi": [
    {
      "inputs": [],
      "stateMutability": "nonpayable",
      "type": "constructor"
    },
    {
      "anonymous": false,
      "inputs": [],
      "name": "CandidatesReset",
      "type": "event"
    },
    {
      "anonymous": false,
      "inputs": [],
      "name": "CandidatesSubmitted",
      "type": "event"
    },
    {
      "anonymous": false,
      "inputs": [
        {
          "indexed": false,
          "internalType": "string",
          "name": "position",
          "type": "string"
        },
        {
          "indexed": false,
          "internalType": "string",
          "name": "name",
          "type": "string"
        },
        {
          "indexed": false,
          "internalType": "address",
          "name": "voter",
          "type": "address"
        }
      ],
      "name": "VoteSubmitted",
      "type": "event"
    },
    {
      "inputs": [],
      "name": "admin",
      "outputs": [
        {
          "internalType": "address",
          "name": "",
          "type": "address"
        }
      ],
      "stateMutability": "view",
      "type": "function"
    },
    {
      "inputs": [
        {
          "internalType": "string",
          "name": "_position",
          "type": "string"
        }
      ],
      "name": "getCandidates",
      "outputs": [
        {
          "components": [
            {
              "internalType": "string",
              "name": "name",
              "type": "string"
            },
            {
              "internalType": "string",
              "name": "party",
              "type": "string"
            },
            {
              "internalType": "string",
              "name": "position",
              "type": "string"
            },
            {
              "internalType": "uint256",
              "name": "votes",
              "type": "uint256"
            }
          ],
          "internalType": "struct AdminCandidates.Candidate[]",
          "name": "",
          "type": "tuple[]"
        }
      ],
      "stateMutability": "view",
      "type": "function"
    },
    {
      "inputs": [],
      "name": "getVoteCounts",
      "outputs": [
        {
          "components": [
            {
              "internalType": "string",
              "name": "name",
              "type": "string"
            },
            {
              "internalType": "string",
              "name": "party",
              "type": "string"
            },
            {
              "internalType": "string",
              "name": "position",
              "type": "string"
            },
            {
              "internalType": "uint256",
              "name": "votes",
              "type": "uint256"
            }
          ],
          "internalType": "struct AdminCandidates.Candidate[]",
          "name": "",
          "type": "tuple[]"
        }
      ],
      "stateMutability": "view",
      "type": "function"
    },
    {
      "inputs": [],
      "name": "isFinalized",
      "outputs": [
        {
          "internalType": "bool",
          "name": "",
          "type": "bool"
        }
      ],
      "stateMutability": "view",
      "type": "function"
    },
    {
      "inputs": [],
      "name": "resetCandidates",
      "outputs": [],
      "stateMutability": "nonpayable",
      "type": "function"
    },
    {
      "inputs": [
        {
          "internalType": "string[]",
          "name": "_positions",
          "type": "string[]"
        },
        {
          "internalType": "string[][]",
          "name": "_names",
          "type": "string[][]"
        },
        {
          "internalType": "string[][]",
          "name": "_parties",
          "type": "string[][]"
        }
      ],
      "name": "submitCandidates",
      "outputs": [],
      "stateMutability": "nonpayable",
      "type": "function"
    },
    {
      "inputs": [
        {
          "internalType": "string",
          "name": "_position",
          "type": "string"
        },
        {
          "internalType": "uint256",
          "name": "_index",
          "type": "uint256"
        }
      ],
      "name": "vote",
      "outputs": [],
      "stateMutability": "nonpayable",
      "type": "function"
    }
  ],
  "bytecode": "0x60806040526000600360146101000a81548160ff02191690831515021790555034801561002b57600080fd5b5033600360006101000a81548173ffffffffffffffffffffffffffffffffffffffff021916908373ffffffffffffffffffffffffffffffffffffffff160217905550611d688061007c6000396000f3fe608060405234801561001057600080fd5b506004361061007d5760003560e01c806395dbea061161005b57806395dbea06146100da578063a6385803146100f6578063f851a44014610112578063ffc97b20146101305761007d565b806345534763146100825780637718d9f3146100b25780638d4e4083146100bc575b600080fd5b61009c60048036038101906100979190611006565b61014e565b6040516100a9919061121a565b60405180910390f35b6100ba61038b565b005b6100c46104dd565b6040516100d19190611257565b60405180910390f35b6100f460048036038101906100ef9190611439565b6104f0565b005b610110600480360381019061010b919061150c565b6108ad565b005b61011a6109d2565b60405161012791906115a9565b60405180910390f35b6101386109f8565b604051610145919061121a565b60405180910390f35b60606000826040516101609190611600565b9081526020016040518091039020805480602002602001604051908101604052809291908181526020016000905b8282101561038057838290600052602060002090600402016040518060800160405290816000820180546101c190611646565b80601f01602080910402602001604051908101604052809291908181526020018280546101ed90611646565b801561023a5780601f1061020f5761010080835404028352916020019161023a565b820191906000526020600020905b81548152906001019060200180831161021d57829003601f168201915b5050505050815260200160018201805461025390611646565b80601f016020809104026020016040519081016040528092919081815260200182805461027f90611646565b80156102cc5780601f106102a1576101008083540402835291602001916102cc565b820191906000526020600020905b8154815290600101906020018083116102af57829003601f168201915b505050505081526020016002820180546102e590611646565b80601f016020809104026020016040519081016040528092919081815260200182805461031190611646565b801561035e5780601f106103335761010080835404028352916020019161035e565b820191906000526020600020905b81548152906001019060200180831161034157829003601f168201915b505050505081526020016003820154815250508152602001906001019061018e565b505050509050919050565b600360009054906101000a900473ffffffffffffffffffffffffffffffffffffffff1673ffffffffffffffffffffffffffffffffffffffff163373ffffffffffffffffffffffffffffffffffffffff161461041b576040517f08c379a0000000000000000000000000000000000000000000000000000000008152600401610412906116fa565b60405180910390fd5b60005b600280549050811015610485576000600282815481106104415761044061171a565b5b9060005260206000200160405161045891906117e1565b908152602001604051809103902060006104729190610d6f565b808061047d90611827565b91505061041e565b50600260006104949190610d93565b6000600360146101000a81548160ff0219169083151502179055507f800bdaa40887ccfd790fdc79f47cf3acbb2a1ecf28b3bccb67e3719009c1bab260405160405180910390a1565b600360149054906101000a900460ff1681565b600360009054906101000a900473ffffffffffffffffffffffffffffffffffffffff1673ffffffffffffffffffffffffffffffffffffffff163373ffffffffffffffffffffffffffffffffffffffff1614610580576040517f08c379a0000000000000000000000000000000000000000000000000000000008152600401610577906116fa565b60405180910390fd5b600360149054906101000a900460ff16156105d0576040517f08c379a00000000000000000000000000000000000000000000000000000000081526004016105c7906118e1565b60405180910390fd5b600260006105de9190610d93565b60005b835181101561086057600080858381518110610600576105ff61171a565b5b60200260200101516040516106159190611600565b9081526020016040518091039020805490500361067c5760028482815181106106415761064061171a565b5b602002602001015190806001815401808255809150506001900390600052602060002001600090919091909150908161067a9190611a98565b505b60008482815181106106915761069061171a565b5b60200260200101516040516106a69190611600565b908152602001604051809103902060006106c09190610d6f565b60005b8382815181106106d6576106d561171a565b5b60200260200101515181101561084c5760008583815181106106fb576106fa61171a565b5b60200260200101516040516107109190611600565b9081526020016040518091039020604051806080016040528086858151811061073c5761073b61171a565b5b602002602001015184815181106107565761075561171a565b5b602002602001015181526020018585815181106107765761077561171a565b5b602002602001015184815181106107905761078f61171a565b5b602002602001015181526020018785815181106107b0576107af61171a565b5b602002602001015181526020016000815250908060018154018082558091505060019003906000526020600020906004020160009091909190915060008201518160000190816108009190611a98565b5060208201518160010190816108169190611a98565b50604082015181600201908161082c9190611a98565b50606082015181600301555050808061084490611827565b9150506106c3565b50808061085890611827565b9150506105e1565b506001600360146101000a81548160ff0219169083151502179055507f86825b43264ca968e676c45c8e05cc56965ff5938ed49dcf636c61acb7070bd760405160405180910390a1505050565b600360149054906101000a900460ff166108fc576040517f08c379a00000000000000000000000000000000000000000000000000000000081526004016108f390611bdc565b60405180910390fd5b60008260405161090c9190611600565b9081526020016040518091039020818154811061092c5761092b61171a565b5b9060005260206000209060040201600301600081548092919061094e90611827565b91905055507f1b381b38c380bfb906cc626e80fedde86905216a4d956a279df2e37802d3316e826000846040516109859190611600565b908152602001604051809103902083815481106109a5576109a461171a565b5b9060005260206000209060040201600001336040516109c693929190611cb9565b60405180910390a15050565b600360009054906101000a900473ffffffffffffffffffffffffffffffffffffffff1681565b6060600080600090505b600280549050811015610a6e57600060028281548110610a2557610a2461171a565b5b90600052602060002001604051610a3c91906117e1565b90815260200160405180910390208054905082610a599190611cfe565b91508080610a6690611827565b915050610a02565b5060008167ffffffffffffffff811115610a8b57610a8a610edb565b5b604051908082528060200260200182016040528015610ac457816020015b610ab1610db4565b815260200190600190039081610aa95790505b5090506000805b600280549050811015610d655760008060028381548110610aef57610aee61171a565b5b90600052602060002001604051610b0691906117e1565b9081526020016040518091039020905060005b8180549050811015610d5057818181548110610b3857610b3761171a565b5b9060005260206000209060040201604051806080016040529081600082018054610b6190611646565b80601f0160208091040260200160405190810160405280929190818152602001828054610b8d90611646565b8015610bda5780601f10610baf57610100808354040283529160200191610bda565b820191906000526020600020905b815481529060010190602001808311610bbd57829003601f168201915b50505050508152602001600182018054610bf390611646565b80601f0160208091040260200160405190810160405280929190818152602001828054610c1f90611646565b8015610c6c5780601f10610c4157610100808354040283529160200191610c6c565b820191906000526020600020905b815481529060010190602001808311610c4f57829003601f168201915b50505050508152602001600282018054610c8590611646565b80601f0160208091040260200160405190810160405280929190818152602001828054610cb190611646565b8015610cfe5780601f10610cd357610100808354040283529160200191610cfe565b820191906000526020600020905b815481529060010190602001808311610ce157829003601f168201915b50505050508152602001600382015481525050858581518110610d2457610d2361171a565b5b60200260200101819052508380610d3a90611827565b9450508080610d4890611827565b915050610b19565b50508080610d5d90611827565b915050610acb565b5081935050505090565b5080546000825560040290600052602060002090810190610d909190610ddc565b50565b5080546000825590600052602060002090810190610db19190610e2b565b50565b6040518060800160405280606081526020016060815260200160608152602001600081525090565b5b80821115610e275760008082016000610df69190610e4f565b600182016000610e069190610e4f565b600282016000610e169190610e4f565b600382016000905550600401610ddd565b5090565b5b80821115610e4b5760008181610e429190610e4f565b50600101610e2c565b5090565b508054610e5b90611646565b6000825580601f10610e6d5750610e8c565b601f016020900490600052602060002090810190610e8b9190610e8f565b5b50565b5b80821115610ea8576000816000905550600101610e90565b5090565b6000604051905090565b600080fd5b600080fd5b600080fd5b600080fd5b6000601f19601f8301169050919050565b7f4e487b7100000000000000000000000000000000000000000000000000000000600052604160045260246000fd5b610f1382610eca565b810181811067ffffffffffffffff82111715610f3257610f31610edb565b5b80604052505050565b6000610f45610eac565b9050610f518282610f0a565b919050565b600067ffffffffffffffff821115610f7157610f70610edb565b5b610f7a82610eca565b9050602081019050919050565b82818337600083830152505050565b6000610fa9610fa484610f56565b610f3b565b905082815260208101848484011115610fc557610fc4610ec5565b5b610fd0848285610f87565b509392505050565b600082601f830112610fed57610fec610ec0565b5b8135610ffd848260208601610f96565b91505092915050565b60006020828403121561101c5761101b610eb6565b5b600082013567ffffffffffffffff81111561103a57611039610ebb565b5b61104684828501610fd8565b91505092915050565b600081519050919050565b600082825260208201905092915050565b6000819050602082019050919050565b600081519050919050565b600082825260208201905092915050565b60005b838110156110b557808201518184015260208101905061109a565b60008484015250505050565b60006110cc8261107b565b6110d68185611086565b93506110e6818560208601611097565b6110ef81610eca565b840191505092915050565b6000819050919050565b61110d816110fa565b82525050565b6000608083016000830151848203600086015261113082826110c1565b9150506020830151848203602086015261114a82826110c1565b9150506040830151848203604086015261116482826110c1565b91505060608301516111796060860182611104565b508091505092915050565b60006111908383611113565b905092915050565b6000602082019050919050565b60006111b08261104f565b6111ba818561105a565b9350836020820285016111cc8561106b565b8060005b8581101561120857848403895281516111e98582611184565b94506111f483611198565b925060208a019950506001810190506111d0565b50829750879550505050505092915050565b6000602082019050818103600083015261123481846111a5565b905092915050565b60008115159050919050565b6112518161123c565b82525050565b600060208201905061126c6000830184611248565b92915050565b600067ffffffffffffffff82111561128d5761128c610edb565b5b602082029050602081019050919050565b600080fd5b60006112b66112b184611272565b610f3b565b905080838252602082019050602084028301858111156112d9576112d861129e565b5b835b8181101561132057803567ffffffffffffffff8111156112fe576112fd610ec0565b5b80860161130b8982610fd8565b855260208501945050506020810190506112db565b5050509392505050565b600082601f83011261133f5761133e610ec0565b5b813561134f8482602086016112a3565b91505092915050565b600067ffffffffffffffff82111561137357611372610edb565b5b602082029050602081019050919050565b600061139761139284611358565b610f3b565b905080838252602082019050602084028301858111156113ba576113b961129e565b5b835b8181101561140157803567ffffffffffffffff8111156113df576113de610ec0565b5b8086016113ec898261132a565b855260208501945050506020810190506113bc565b5050509392505050565b600082601f8301126114205761141f610ec0565b5b8135611430848260208601611384565b91505092915050565b60008060006060848603121561145257611451610eb6565b5b600084013567ffffffffffffffff8111156114705761146f610ebb565b5b61147c8682870161132a565b935050602084013567ffffffffffffffff81111561149d5761149c610ebb565b5b6114a98682870161140b565b925050604084013567ffffffffffffffff8111156114ca576114c9610ebb565b5b6114d68682870161140b565b9150509250925092565b6114e9816110fa565b81146114f457600080fd5b50565b600081359050611506816114e0565b92915050565b6000806040838503121561152357611522610eb6565b5b600083013567ffffffffffffffff81111561154157611540610ebb565b5b61154d85828601610fd8565b925050602061155e858286016114f7565b9150509250929050565b600073ffffffffffffffffffffffffffffffffffffffff82169050919050565b600061159382611568565b9050919050565b6115a381611588565b82525050565b60006020820190506115be600083018461159a565b92915050565b600081905092915050565b60006115da8261107b565b6115e481856115c4565b93506115f4818560208601611097565b80840191505092915050565b600061160c82846115cf565b915081905092915050565b7f4e487b7100000000000000000000000000000000000000000000000000000000600052602260045260246000fd5b6000600282049050600182168061165e57607f821691505b60208210810361167157611670611617565b5b50919050565b600082825260208201905092915050565b7f4f6e6c792061646d696e2063616e20706572666f726d2074686973206163746960008201527f6f6e000000000000000000000000000000000000000000000000000000000000602082015250565b60006116e4602283611677565b91506116ef82611688565b604082019050919050565b60006020820190508181036000830152611713816116d7565b9050919050565b7f4e487b7100000000000000000000000000000000000000000000000000000000600052603260045260246000fd5b60008190508160005260206000209050919050565b6000815461176b81611646565b61177581866115c4565b9450600182166000811461179057600181146117a5576117d8565b60ff19831686528115158202860193506117d8565b6117ae85611749565b60005b838110156117d0578154818901526001820191506020810190506117b1565b838801955050505b50505092915050565b60006117ed828461175e565b915081905092915050565b7f4e487b7100000000000000000000000000000000000000000000000000000000600052601160045260246000fd5b6000611832826110fa565b91507fffffffffffffffffffffffffffffffffffffffffffffffffffffffffffffffff8203611864576118636117f8565b5b600182019050919050565b7f43616e646964617465732061726520616c72656164792066696e616c697a656460008201527f2100000000000000000000000000000000000000000000000000000000000000602082015250565b60006118cb602183611677565b91506118d68261186f565b604082019050919050565b600060208201905081810360008301526118fa816118be565b9050919050565b60006020601f8301049050919050565b600082821b905092915050565b60006008830261194e7fffffffffffffffffffffffffffffffffffffffffffffffffffffffffffffffff82611911565b6119588683611911565b95508019841693508086168417925050509392505050565b6000819050919050565b600061199561199061198b846110fa565b611970565b6110fa565b9050919050565b6000819050919050565b6119af8361197a565b6119c36119bb8261199c565b84845461191e565b825550505050565b600090565b6119d86119cb565b6119e38184846119a6565b505050565b5b81811015611a07576119fc6000826119d0565b6001810190506119e9565b5050565b601f821115611a4c57611a1d81611749565b611a2684611901565b81016020851015611a35578190505b611a49611a4185611901565b8301826119e8565b50505b505050565b600082821c905092915050565b6000611a6f60001984600802611a51565b1980831691505092915050565b6000611a888383611a5e565b9150826002028217905092915050565b611aa18261107b565b67ffffffffffffffff811115611aba57611ab9610edb565b5b611ac48254611646565b611acf828285611a0b565b600060209050601f831160018114611b025760008415611af0578287015190505b611afa8582611a7c565b865550611b62565b601f198416611b1086611749565b60005b82811015611b3857848901518255600182019150602085019450602081019050611b13565b86831015611b555784890151611b51601f891682611a5e565b8355505b6001600288020188555050505b505050505050565b7f566f74696e672063616e6e6f7420737461727420756e74696c2063616e64696460008201527f61746573206172652066696e616c697a65642100000000000000000000000000602082015250565b6000611bc6603383611677565b9150611bd182611b6a565b604082019050919050565b60006020820190508181036000830152611bf581611bb9565b9050919050565b6000611c078261107b565b611c118185611677565b9350611c21818560208601611097565b611c2a81610eca565b840191505092915050565b60008154611c4281611646565b611c4c8186611677565b94506001821660008114611c675760018114611c7d57611cb0565b60ff198316865281151560200286019350611cb0565b611c8685611749565b60005b83811015611ca857815481890152600182019150602081019050611c89565b808801955050505b50505092915050565b60006060820190508181036000830152611cd38186611bfc565b90508181036020830152611ce78185611c35565b9050611cf6604083018461159a565b949350505050565b6000611d09826110fa565b9150611d14836110fa565b9250828201905080821115611d2c57611d2b6117f8565b5b9291505056fea26469706673582212202bd585f9b3361fd57e5f70e9c24938c770cd42a81a8477e4263fb25e0aafa2df64736f6c63430008150033",
  "linkReferences": {},
  "deployedLinkReferences": {}
}