{
  "_format": "hh-sol-artifact-1",
  "contractName": "AdminCandidates",
  "sourceName": "contracts/AdminCandidates.sol",
  "abi": [
    {
      "anonymous": false,
      "inputs": [
        {
          "indexed": false,
          "internalType": "bytes32",
          "name": "candidateId",
          "type": "bytes32"
        }
      ],
      "name": "CandidateRegistered",
      "type": "event"
    },
    {
      "anonymous": false,
      "inputs": [
        {
          "indexed": false,
          "internalType": "bytes32",
          "name": "candidateId",
          "type": "bytes32"
        },
        {
          "indexed": false,
          "internalType": "uint256",
          "name": "newVoteCount",
          "type": "uint256"
        }
      ],
      "name": "VoteCasted",
      "type": "event"
    },
    {
      "inputs": [
        {
          "internalType": "uint256",
          "name": "",
          "type": "uint256"
        }
      ],
      "name": "candidateList",
      "outputs": [
        {
          "internalType": "bytes32",
          "name": "",
          "type": "bytes32"
        }
      ],
      "stateMutability": "view",
      "type": "function"
    },
    {
      "inputs": [
        {
          "internalType": "bytes32",
          "name": "",
          "type": "bytes32"
        }
      ],
      "name": "candidateVotes",
      "outputs": [
        {
          "internalType": "uint256",
          "name": "",
          "type": "uint256"
        }
      ],
      "stateMutability": "view",
      "type": "function"
    },
    {
      "inputs": [],
      "name": "getCandidateCount",
      "outputs": [
        {
          "internalType": "uint256",
          "name": "",
          "type": "uint256"
        }
      ],
      "stateMutability": "view",
      "type": "function"
    },
    {
      "inputs": [],
      "name": "getCandidateDetails",
      "outputs": [
        {
          "internalType": "bytes32[]",
          "name": "",
          "type": "bytes32[]"
        },
        {
          "internalType": "uint256[]",
          "name": "",
          "type": "uint256[]"
        }
      ],
      "stateMutability": "view",
      "type": "function"
    },
    {
      "inputs": [
        {
          "internalType": "bytes32",
          "name": "",
          "type": "bytes32"
        }
      ],
      "name": "isRegistered",
      "outputs": [
        {
          "internalType": "bool",
          "name": "",
          "type": "bool"
        }
      ],
      "stateMutability": "view",
      "type": "function"
    },
    {
      "inputs": [
        {
          "internalType": "bytes32[]",
          "name": "candidateIds",
          "type": "bytes32[]"
        }
      ],
      "name": "registerCandidates",
      "outputs": [],
      "stateMutability": "nonpayable",
      "type": "function"
    },
    {
      "inputs": [],
      "name": "resetCandidates",
      "outputs": [],
      "stateMutability": "nonpayable",
      "type": "function"
    },
    {
      "inputs": [
        {
          "internalType": "bytes32[]",
          "name": "candidateIds",
          "type": "bytes32[]"
        }
      ],
      "name": "voteForCandidates",
      "outputs": [],
      "stateMutability": "nonpayable",
      "type": "function"
    }
  ],
  "bytecode": "0x608060405234801561001057600080fd5b50610b9f806100206000396000f3fe608060405234801561001057600080fd5b50600436106100885760003560e01c80637718d9f31161005b5780637718d9f31461012a578063af6cb75514610134578063b13c744b14610150578063e17b240a1461018057610088565b806327258b221461008d5780632f1fdc2a146100bd57806330a56347146100ed5780635a2608761461010b575b600080fd5b6100a760048036038101906100a2919061066f565b61019c565b6040516100b491906106b7565b60405180910390f35b6100d760048036038101906100d2919061066f565b6101bc565b6040516100e491906106eb565b60405180910390f35b6100f56101d4565b60405161010291906106eb565b60405180910390f35b6101136101e1565b604051610121929190610882565b60405180910390f35b61013261030a565b005b61014e6004803603810190610149919061091e565b6103a6565b005b61016a60048036038101906101659190610997565b6104b4565b60405161017791906109d3565b60405180910390f35b61019a6004803603810190610195919061091e565b6104d8565b005b60006020528060005260406000206000915054906101000a900460ff1681565b60016020528060005260406000206000915090505481565b6000600280549050905090565b6060806000600280549050905060008167ffffffffffffffff81111561020a576102096109ee565b5b6040519080825280602002602001820160405280156102385781602001602082028036833780820191505090505b50905060005b828110156102aa57600160006002838154811061025e5761025d610a1d565b5b906000526020600020015481526020019081526020016000205482828151811061028b5761028a610a1d565b5b60200260200101818152505080806102a290610a7b565b91505061023e565b50600281818054806020026020016040519081016040528092919081815260200182805480156102f957602002820191906000526020600020905b8154815260200190600101908083116102e5575b505050505091509350935050509091565b60005b600280549050811015610395576000600282815481106103305761032f610a1d565b5b90600052602060002001549050600080600083815260200190815260200160002060006101000a81548160ff0219169083151502179055506000600160008381526020019081526020016000208190555050808061038d90610a7b565b91505061030d565b50600260006103a491906105f1565b565b60005b828290508110156104af5760008383838181106103c9576103c8610a1d565b5b90506020020135905060008082815260200190815260200160002060009054906101000a900460ff1661049b57600160008083815260200190815260200160002060006101000a81548160ff0219169083151502179055506000600160008381526020019081526020016000208190555060028190806001815401808255809150506001900390600052602060002001600090919091909150557ff6a6be64dd96964e37d70b178d6036e4cdbb7959eeab696bf22f270225145db28160405161049291906109d3565b60405180910390a15b5080806104a790610a7b565b9150506103a9565b505050565b600281815481106104c457600080fd5b906000526020600020016000915090505481565b60005b828290508110156105ec5760008383838181106104fb576104fa610a1d565b5b90506020020135905060008082815260200190815260200160002060009054906101000a900460ff16610563576040517f08c379a000000000000000000000000000000000000000000000000000000000815260040161055a90610b20565b60405180910390fd5b60016000828152602001908152602001600020600081548092919061058790610a7b565b91905055507fbf8e3be76511fbc133be248f8ea28794eaaec7574547d2ce1a374f36a1674aa28160016000848152602001908152602001600020546040516105d0929190610b40565b60405180910390a15080806105e490610a7b565b9150506104db565b505050565b508054600082559060005260206000209081019061060f9190610612565b50565b5b8082111561062b576000816000905550600101610613565b5090565b600080fd5b600080fd5b6000819050919050565b61064c81610639565b811461065757600080fd5b50565b60008135905061066981610643565b92915050565b6000602082840312156106855761068461062f565b5b60006106938482850161065a565b91505092915050565b60008115159050919050565b6106b18161069c565b82525050565b60006020820190506106cc60008301846106a8565b92915050565b6000819050919050565b6106e5816106d2565b82525050565b600060208201905061070060008301846106dc565b92915050565b600081519050919050565b600082825260208201905092915050565b6000819050602082019050919050565b61073b81610639565b82525050565b600061074d8383610732565b60208301905092915050565b6000602082019050919050565b600061077182610706565b61077b8185610711565b935061078683610722565b8060005b838110156107b757815161079e8882610741565b97506107a983610759565b92505060018101905061078a565b5085935050505092915050565b600081519050919050565b600082825260208201905092915050565b6000819050602082019050919050565b6107f9816106d2565b82525050565b600061080b83836107f0565b60208301905092915050565b6000602082019050919050565b600061082f826107c4565b61083981856107cf565b9350610844836107e0565b8060005b8381101561087557815161085c88826107ff565b975061086783610817565b925050600181019050610848565b5085935050505092915050565b6000604082019050818103600083015261089c8185610766565b905081810360208301526108b08184610824565b90509392505050565b600080fd5b600080fd5b600080fd5b60008083601f8401126108de576108dd6108b9565b5b8235905067ffffffffffffffff8111156108fb576108fa6108be565b5b602083019150836020820283011115610917576109166108c3565b5b9250929050565b600080602083850312156109355761093461062f565b5b600083013567ffffffffffffffff81111561095357610952610634565b5b61095f858286016108c8565b92509250509250929050565b610974816106d2565b811461097f57600080fd5b50565b6000813590506109918161096b565b92915050565b6000602082840312156109ad576109ac61062f565b5b60006109bb84828501610982565b91505092915050565b6109cd81610639565b82525050565b60006020820190506109e860008301846109c4565b92915050565b7f4e487b7100000000000000000000000000000000000000000000000000000000600052604160045260246000fd5b7f4e487b7100000000000000000000000000000000000000000000000000000000600052603260045260246000fd5b7f4e487b7100000000000000000000000000000000000000000000000000000000600052601160045260246000fd5b6000610a86826106d2565b91507fffffffffffffffffffffffffffffffffffffffffffffffffffffffffffffffff8203610ab857610ab7610a4c565b5b600182019050919050565b600082825260208201905092915050565b7f43616e646964617465206e6f7420726567697374657265640000000000000000600082015250565b6000610b0a601883610ac3565b9150610b1582610ad4565b602082019050919050565b60006020820190508181036000830152610b3981610afd565b9050919050565b6000604082019050610b5560008301856109c4565b610b6260208301846106dc565b939250505056fea26469706673582212201383390a6a90780a636d6e080a28c7acc34d64655a64c5c77c7f24936de240d864736f6c63430008150033",
  "linkReferences": {},
  "deployedLinkReferences": {}
}