{
  "_format": "hh-sol-artifact-1",
  "contractName": "AdminCandidates",
  "sourceName": "contracts/AdminCandidates.sol",
  "abi": [
    {
      "anonymous": false,
      "inputs": [
        {
          "indexed": false,
          "internalType": "bytes32",
          "name": "candidateId",
          "type": "bytes32"
        }
      ],
      "name": "CandidateRegistered",
      "type": "event"
    },
    {
      "anonymous": false,
      "inputs": [
        {
          "indexed": false,
          "internalType": "bytes32",
          "name": "candidateId",
          "type": "bytes32"
        },
        {
          "indexed": false,
          "internalType": "uint256",
          "name": "newVoteCount",
          "type": "uint256"
        }
      ],
      "name": "VoteCasted",
      "type": "event"
    },
    {
      "inputs": [
        {
          "internalType": "uint256",
          "name": "",
          "type": "uint256"
        }
      ],
      "name": "candidateList",
      "outputs": [
        {
          "internalType": "bytes32",
          "name": "",
          "type": "bytes32"
        }
      ],
      "stateMutability": "view",
      "type": "function"
    },
    {
      "inputs": [
        {
          "internalType": "bytes32",
          "name": "",
          "type": "bytes32"
        }
      ],
      "name": "candidateVotes",
      "outputs": [
        {
          "internalType": "uint256",
          "name": "",
          "type": "uint256"
        }
      ],
      "stateMutability": "view",
      "type": "function"
    },
    {
      "inputs": [],
      "name": "getCandidateCount",
      "outputs": [
        {
          "internalType": "uint256",
          "name": "",
          "type": "uint256"
        }
      ],
      "stateMutability": "view",
      "type": "function"
    },
    {
      "inputs": [],
      "name": "getCandidateDetails",
      "outputs": [
        {
          "internalType": "bytes32[]",
          "name": "",
          "type": "bytes32[]"
        },
        {
          "internalType": "uint256[]",
          "name": "",
          "type": "uint256[]"
        }
      ],
      "stateMutability": "view",
      "type": "function"
    },
    {
      "inputs": [
        {
          "internalType": "bytes32",
          "name": "",
          "type": "bytes32"
        }
      ],
      "name": "isRegistered",
      "outputs": [
        {
          "internalType": "bool",
          "name": "",
          "type": "bool"
        }
      ],
      "stateMutability": "view",
      "type": "function"
    },
    {
      "inputs": [
        {
          "internalType": "bytes32[]",
          "name": "candidateIds",
          "type": "bytes32[]"
        }
      ],
      "name": "registerCandidates",
      "outputs": [],
      "stateMutability": "nonpayable",
      "type": "function"
    },
    {
      "inputs": [
        {
          "internalType": "bytes32",
          "name": "candidateId",
          "type": "bytes32"
        }
      ],
      "name": "voteForCandidate",
      "outputs": [],
      "stateMutability": "nonpayable",
      "type": "function"
    }
  ],
  "bytecode": "0x608060405234801561001057600080fd5b50610a6e806100206000396000f3fe608060405234801561001057600080fd5b506004361061007d5760003560e01c80635a2608761161005b5780635a26087614610100578063af6cb7551461011f578063b13c744b1461013b578063cc9ab2671461016b5761007d565b806327258b22146100825780632f1fdc2a146100b257806330a56347146100e2575b600080fd5b61009c6004803603810190610097919061053e565b610187565b6040516100a99190610586565b60405180910390f35b6100cc60048036038101906100c7919061053e565b6101a7565b6040516100d991906105ba565b60405180910390f35b6100ea6101bf565b6040516100f791906105ba565b60405180910390f35b6101086101cc565b604051610116929190610751565b60405180910390f35b610139600480360381019061013491906107ed565b6102f5565b005b61015560048036038101906101509190610866565b610403565b60405161016291906108a2565b60405180910390f35b6101856004803603810190610180919061053e565b610427565b005b60006020528060005260406000206000915054906101000a900460ff1681565b60016020528060005260406000206000915090505481565b6000600280549050905090565b6060806000600280549050905060008167ffffffffffffffff8111156101f5576101f46108bd565b5b6040519080825280602002602001820160405280156102235781602001602082028036833780820191505090505b50905060005b82811015610295576001600060028381548110610249576102486108ec565b5b9060005260206000200154815260200190815260200160002054828281518110610276576102756108ec565b5b602002602001018181525050808061028d9061094a565b915050610229565b50600281818054806020026020016040519081016040528092919081815260200182805480156102e457602002820191906000526020600020905b8154815260200190600101908083116102d0575b505050505091509350935050509091565b60005b828290508110156103fe576000838383818110610318576103176108ec565b5b90506020020135905060008082815260200190815260200160002060009054906101000a900460ff166103ea57600160008083815260200190815260200160002060006101000a81548160ff0219169083151502179055506000600160008381526020019081526020016000208190555060028190806001815401808255809150506001900390600052602060002001600090919091909150557ff6a6be64dd96964e37d70b178d6036e4cdbb7959eeab696bf22f270225145db2816040516103e191906108a2565b60405180910390a15b5080806103f69061094a565b9150506102f8565b505050565b6002818154811061041357600080fd5b906000526020600020016000915090505481565b60008082815260200190815260200160002060009054906101000a900460ff16610486576040517f08c379a000000000000000000000000000000000000000000000000000000000815260040161047d906109ef565b60405180910390fd5b6001600082815260200190815260200160002060008154809291906104aa9061094a565b91905055507fbf8e3be76511fbc133be248f8ea28794eaaec7574547d2ce1a374f36a1674aa28160016000848152602001908152602001600020546040516104f3929190610a0f565b60405180910390a150565b600080fd5b600080fd5b6000819050919050565b61051b81610508565b811461052657600080fd5b50565b60008135905061053881610512565b92915050565b600060208284031215610554576105536104fe565b5b600061056284828501610529565b91505092915050565b60008115159050919050565b6105808161056b565b82525050565b600060208201905061059b6000830184610577565b92915050565b6000819050919050565b6105b4816105a1565b82525050565b60006020820190506105cf60008301846105ab565b92915050565b600081519050919050565b600082825260208201905092915050565b6000819050602082019050919050565b61060a81610508565b82525050565b600061061c8383610601565b60208301905092915050565b6000602082019050919050565b6000610640826105d5565b61064a81856105e0565b9350610655836105f1565b8060005b8381101561068657815161066d8882610610565b975061067883610628565b925050600181019050610659565b5085935050505092915050565b600081519050919050565b600082825260208201905092915050565b6000819050602082019050919050565b6106c8816105a1565b82525050565b60006106da83836106bf565b60208301905092915050565b6000602082019050919050565b60006106fe82610693565b610708818561069e565b9350610713836106af565b8060005b8381101561074457815161072b88826106ce565b9750610736836106e6565b925050600181019050610717565b5085935050505092915050565b6000604082019050818103600083015261076b8185610635565b9050818103602083015261077f81846106f3565b90509392505050565b600080fd5b600080fd5b600080fd5b60008083601f8401126107ad576107ac610788565b5b8235905067ffffffffffffffff8111156107ca576107c961078d565b5b6020830191508360208202830111156107e6576107e5610792565b5b9250929050565b60008060208385031215610804576108036104fe565b5b600083013567ffffffffffffffff81111561082257610821610503565b5b61082e85828601610797565b92509250509250929050565b610843816105a1565b811461084e57600080fd5b50565b6000813590506108608161083a565b92915050565b60006020828403121561087c5761087b6104fe565b5b600061088a84828501610851565b91505092915050565b61089c81610508565b82525050565b60006020820190506108b76000830184610893565b92915050565b7f4e487b7100000000000000000000000000000000000000000000000000000000600052604160045260246000fd5b7f4e487b7100000000000000000000000000000000000000000000000000000000600052603260045260246000fd5b7f4e487b7100000000000000000000000000000000000000000000000000000000600052601160045260246000fd5b6000610955826105a1565b91507fffffffffffffffffffffffffffffffffffffffffffffffffffffffffffffffff82036109875761098661091b565b5b600182019050919050565b600082825260208201905092915050565b7f43616e646964617465206e6f7420726567697374657265640000000000000000600082015250565b60006109d9601883610992565b91506109e4826109a3565b602082019050919050565b60006020820190508181036000830152610a08816109cc565b9050919050565b6000604082019050610a246000830185610893565b610a3160208301846105ab565b939250505056fea26469706673582212204278dd1429269420a8ae6f364cb10d0944e4d4b49f170f849b568f12c9965d6464736f6c63430008150033",
  "linkReferences": {},
  "deployedLinkReferences": {}
}