{
  "_format": "hh-sol-artifact-1",
  "contractName": "AdminCandidates",
  "sourceName": "contracts/AdminCandidates.sol",
  "abi": [
    {
      "inputs": [],
      "stateMutability": "nonpayable",
      "type": "constructor"
    },
    {
      "anonymous": false,
      "inputs": [],
      "name": "CandidatesReset",
      "type": "event"
    },
    {
      "anonymous": false,
      "inputs": [],
      "name": "CandidatesSubmitted",
      "type": "event"
    },
    {
      "anonymous": false,
      "inputs": [
        {
          "indexed": false,
          "internalType": "bytes32",
          "name": "position",
          "type": "bytes32"
        },
        {
          "indexed": false,
          "internalType": "bytes32",
          "name": "name",
          "type": "bytes32"
        },
        {
          "indexed": false,
          "internalType": "bytes32",
          "name": "voterHash",
          "type": "bytes32"
        }
      ],
      "name": "VoteSubmitted",
      "type": "event"
    },
    {
      "inputs": [],
      "name": "admin",
      "outputs": [
        {
          "internalType": "address",
          "name": "",
          "type": "address"
        }
      ],
      "stateMutability": "view",
      "type": "function"
    },
    {
      "inputs": [
        {
          "internalType": "bytes32[]",
          "name": "_positions",
          "type": "bytes32[]"
        },
        {
          "internalType": "uint256[]",
          "name": "_indices",
          "type": "uint256[]"
        },
        {
          "internalType": "bytes32",
          "name": "_voterHash",
          "type": "bytes32"
        }
      ],
      "name": "batchVote",
      "outputs": [],
      "stateMutability": "nonpayable",
      "type": "function"
    },
    {
      "inputs": [
        {
          "internalType": "bytes32",
          "name": "",
          "type": "bytes32"
        }
      ],
      "name": "boardMemberProgramIDs",
      "outputs": [
        {
          "internalType": "bytes32",
          "name": "",
          "type": "bytes32"
        }
      ],
      "stateMutability": "view",
      "type": "function"
    },
    {
      "inputs": [
        {
          "internalType": "bytes32",
          "name": "_position",
          "type": "bytes32"
        }
      ],
      "name": "getCandidates",
      "outputs": [
        {
          "components": [
            {
              "internalType": "bytes32",
              "name": "name",
              "type": "bytes32"
            },
            {
              "internalType": "bytes32",
              "name": "party",
              "type": "bytes32"
            }
          ],
          "internalType": "struct AdminCandidates.CandidateEntry[]",
          "name": "",
          "type": "tuple[]"
        }
      ],
      "stateMutability": "view",
      "type": "function"
    },
    {
      "inputs": [],
      "name": "getPositionList",
      "outputs": [
        {
          "internalType": "bytes32[]",
          "name": "",
          "type": "bytes32[]"
        }
      ],
      "stateMutability": "view",
      "type": "function"
    },
    {
      "inputs": [],
      "name": "getVoteCounts",
      "outputs": [
        {
          "components": [
            {
              "internalType": "bytes32",
              "name": "name",
              "type": "bytes32"
            },
            {
              "internalType": "bytes32",
              "name": "party",
              "type": "bytes32"
            }
          ],
          "internalType": "struct AdminCandidates.CandidateEntry[]",
          "name": "",
          "type": "tuple[]"
        },
        {
          "internalType": "uint256[]",
          "name": "",
          "type": "uint256[]"
        }
      ],
      "stateMutability": "view",
      "type": "function"
    },
    {
      "inputs": [
        {
          "internalType": "bytes32",
          "name": "_position",
          "type": "bytes32"
        },
        {
          "internalType": "uint256",
          "name": "_index",
          "type": "uint256"
        }
      ],
      "name": "getVoterHashes",
      "outputs": [
        {
          "internalType": "bytes32[]",
          "name": "",
          "type": "bytes32[]"
        }
      ],
      "stateMutability": "view",
      "type": "function"
    },
    {
      "inputs": [],
      "name": "getWinners",
      "outputs": [
        {
          "components": [
            {
              "internalType": "bytes32",
              "name": "position",
              "type": "bytes32"
            },
            {
              "internalType": "bytes32",
              "name": "name",
              "type": "bytes32"
            },
            {
              "internalType": "bytes32",
              "name": "party",
              "type": "bytes32"
            },
            {
              "internalType": "uint256",
              "name": "votes",
              "type": "uint256"
            }
          ],
          "internalType": "struct AdminCandidates.Winner[]",
          "name": "",
          "type": "tuple[]"
        }
      ],
      "stateMutability": "view",
      "type": "function"
    },
    {
      "inputs": [],
      "name": "isFinalized",
      "outputs": [
        {
          "internalType": "bool",
          "name": "",
          "type": "bool"
        }
      ],
      "stateMutability": "view",
      "type": "function"
    },
    {
      "inputs": [],
      "name": "resetCandidates",
      "outputs": [],
      "stateMutability": "nonpayable",
      "type": "function"
    },
    {
      "inputs": [
        {
          "internalType": "bytes32[]",
          "name": "_positions",
          "type": "bytes32[]"
        },
        {
          "components": [
            {
              "internalType": "bytes32",
              "name": "name",
              "type": "bytes32"
            },
            {
              "internalType": "bytes32",
              "name": "party",
              "type": "bytes32"
            }
          ],
          "internalType": "struct AdminCandidates.CandidateEntry[][]",
          "name": "_candidates",
          "type": "tuple[][]"
        },
        {
          "internalType": "bytes32[]",
          "name": "_boardMemberProgramIDs",
          "type": "bytes32[]"
        }
      ],
      "name": "submitCandidates",
      "outputs": [],
      "stateMutability": "nonpayable",
      "type": "function"
    }
  ],
  "bytecode": "0x60806040526000600560146101000a81548160ff02191690831515021790555034801561002b57600080fd5b5033600560006101000a81548173ffffffffffffffffffffffffffffffffffffffff021916908373ffffffffffffffffffffffffffffffffffffffff1602179055506123c28061007c6000396000f3fe608060405234801561001057600080fd5b50600436106100a95760003560e01c8063a5d3157e11610071578063a5d3157e14610166578063adf55ada14610184578063df15c37e146101a0578063e7d8e8ad146101be578063f851a440146101da578063ffc97b20146101f8576100a9565b806356fc64f8146100ae57806370918ce3146100de5780637718d9f31461010e57806385b923ca146101185780638d4e408314610148575b600080fd5b6100c860048036038101906100c3919061149b565b610217565b6040516100d591906114d7565b60405180910390f35b6100f860048036038101906100f39190611528565b61022f565b6040516101059190611626565b60405180910390f35b6101166102ac565b005b610132600480360381019061012d919061149b565b6103f9565b60405161013f9190611726565b60405180910390f35b610150610515565b60405161015d9190611763565b60405180910390f35b61016e610528565b60405161017b9190611626565b60405180910390f35b61019e60048036038101906101999190611ad0565b610580565b005b6101a8610987565b6040516101b59190611c8a565b60405180910390f35b6101d860048036038101906101d39190611d6f565b610b62565b005b6101e2610e44565b6040516101ef9190611e3b565b60405180910390f35b610200610e6a565b60405161020e929190611f05565b60405180910390f35b60046020528060005260406000206000915090505481565b606060016000848152602001908152602001600020600083815260200190815260200160002080548060200260200160405190810160405280929190818152602001828054801561029f57602002820191906000526020600020905b81548152602001906001019080831161028b575b5050505050905092915050565b600560009054906101000a900473ffffffffffffffffffffffffffffffffffffffff1673ffffffffffffffffffffffffffffffffffffffff163373ffffffffffffffffffffffffffffffffffffffff161461033c576040517f08c379a000000000000000000000000000000000000000000000000000000000815260040161033390611fbf565b60405180910390fd5b60005b6003805490508110156103a15760006003828154811061036257610361611fdf565b5b90600052602060002001549050600080828152602001908152602001600020600061038d919061136f565b5080806103999061203d565b91505061033f565b50600360006103b09190611393565b6000600560146101000a81548160ff0219169083151502179055507f800bdaa40887ccfd790fdc79f47cf3acbb2a1ecf28b3bccb67e3719009c1bab260405160405180910390a1565b6060600080600084815260200190815260200160002090506000818054905067ffffffffffffffff81111561043157610430611794565b5b60405190808252806020026020018201604052801561046a57816020015b6104576113b4565b81526020019060019003908161044f5790505b50905060005b828054905081101561050a57604051806040016040528084838154811061049a57610499611fdf565b5b90600052602060002090600302016000015481526020018483815481106104c4576104c3611fdf565b5b9060005260206000209060030201600101548152508282815181106104ec576104eb611fdf565b5b602002602001018190525080806105029061203d565b915050610470565b508092505050919050565b600560149054906101000a900460ff1681565b6060600380548060200260200160405190810160405280929190818152602001828054801561057657602002820191906000526020600020905b815481526020019060010190808311610562575b5050505050905090565b600560009054906101000a900473ffffffffffffffffffffffffffffffffffffffff1673ffffffffffffffffffffffffffffffffffffffff163373ffffffffffffffffffffffffffffffffffffffff1614610610576040517f08c379a000000000000000000000000000000000000000000000000000000000815260040161060790611fbf565b60405180910390fd5b600560149054906101000a900460ff1615610660576040517f08c379a0000000000000000000000000000000000000000000000000000000008152600401610657906120f7565b60405180910390fd5b6003600061066e9190611393565b60005b835181101561093a57600080600086848151811061069257610691611fdf565b5b6020026020010151815260200190815260200160002080549050036106f55760038482815181106106c6576106c5611fdf565b5b602002602001015190806001815401808255809150506001900390600052602060002001600090919091909150555b60008085838151811061070b5761070a611fdf565b5b60200260200101518152602001908152602001600020600061072d919061136f565b60005b83828151811061074357610742611fdf565b5b6020026020010151518110156108b15760008086848151811061076957610768611fdf565b5b60200260200101518152602001908152602001600020604051806060016040528086858151811061079d5761079c611fdf565b5b602002602001015184815181106107b7576107b6611fdf565b5b60200260200101516000015181526020018685815181106107db576107da611fdf565b5b602002602001015184815181106107f5576107f4611fdf565b5b60200260200101516020015181526020016000815250908060018154018082558091505060019003906000526020600020906003020160009091909190915060008201518160000155602082015181600101556040820151816002015550506001600086848151811061086b5761086a611fdf565b5b602002602001015181526020019081526020016000206000828152602001908152602001600020600061089e9190611393565b80806108a99061203d565b915050610730565b506108d58482815181106108c8576108c7611fdf565b5b60200260200101516110ca565b15610927578181815181106108ed576108ec611fdf565b5b60200260200101516004600086848151811061090c5761090b611fdf565b5b60200260200101518152602001908152602001600020819055505b80806109329061203d565b915050610671565b506001600560146101000a81548160ff0219169083151502179055507f86825b43264ca968e676c45c8e05cc56965ff5938ed49dcf636c61acb7070bd760405160405180910390a1505050565b60606000600380549050905060008167ffffffffffffffff8111156109af576109ae611794565b5b6040519080825280602002602001820160405280156109e857816020015b6109d56113d4565b8152602001906001900390816109cd5790505b50905060005b82811015610b5957600060038281548110610a0c57610a0b611fdf565b5b90600052602060002001549050600080600083815260200190815260200160002090506000806000805b8480549050811015610ab957811580610a72575083858281548110610a5e57610a5d611fdf565b5b906000526020600020906003020160020154115b15610aa657848181548110610a8a57610a89611fdf565b5b9060005260206000209060030201600201549350809250600191505b8080610ab19061203d565b915050610a36565b506040518060800160405280868152602001858481548110610ade57610add611fdf565b5b9060005260206000209060030201600001548152602001858481548110610b0857610b07611fdf565b5b906000526020600020906003020160010154815260200184815250878781518110610b3657610b35611fdf565b5b602002602001018190525050505050508080610b519061203d565b9150506109ee565b50809250505090565b600560149054906101000a900460ff16610bb1576040517f08c379a0000000000000000000000000000000000000000000000000000000008152600401610ba890612189565b60405180910390fd5b8151835114610bf5576040517f08c379a0000000000000000000000000000000000000000000000000000000008152600401610bec906121f5565b60405180910390fd5b6002600082815260200190815260200160002060009054906101000a900460ff1615610c56576040517f08c379a0000000000000000000000000000000000000000000000000000000008152600401610c4d90612261565b60405180910390fd5b60016002600083815260200190815260200160002060006101000a81548160ff02191690831515021790555060005b8351811015610e3e576000848281518110610ca357610ca2611fdf565b5b602002602001015190506000848381518110610cc257610cc1611fdf565b5b60200260200101519050600080838152602001908152602001600020805490508110610d23576040517f08c379a0000000000000000000000000000000000000000000000000000000008152600401610d1a906122cd565b60405180910390fd5b6000808381526020019081526020016000208181548110610d4757610d46611fdf565b5b90600052602060002090600302016002016000815480929190610d699061203d565b91905055506001600083815260200190815260200160002060008281526020019081526020016000208490806001815401808255809150506001900390600052602060002001600090919091909150557f178e76faa844f1c429cbe43bb805a70530f990ef2acc87f8f626ac80ff484909826000808581526020019081526020016000208381548110610dff57610dfe611fdf565b5b90600052602060002090600302016000015486604051610e21939291906122ed565b60405180910390a150508080610e369061203d565b915050610c85565b50505050565b600560009054906101000a900473ffffffffffffffffffffffffffffffffffffffff1681565b6060806000805b600380549050811015610ed25760008060038381548110610e9557610e94611fdf565b5b906000526020600020015481526020019081526020016000208054905082610ebd9190612324565b91508080610eca9061203d565b915050610e71565b5060008167ffffffffffffffff811115610eef57610eee611794565b5b604051908082528060200260200182016040528015610f2857816020015b610f156113b4565b815260200190600190039081610f0d5790505b50905060008267ffffffffffffffff811115610f4757610f46611794565b5b604051908082528060200260200182016040528015610f755781602001602082028036833780820191505090505b5090506000805b6003805490508110156110bb57600080600060038481548110610fa257610fa1611fdf565b5b90600052602060002001548152602001908152602001600020905060005b81805490508110156110a6576040518060400160405280838381548110610fea57610fe9611fdf565b5b906000526020600020906003020160000154815260200183838154811061101457611013611fdf565b5b90600052602060002090600302016001015481525086858151811061103c5761103b611fdf565b5b602002602001018190525081818154811061105a57611059611fdf565b5b90600052602060002090600302016002015485858151811061107f5761107e611fdf565b5b6020026020010181815250508380600101945050808061109e9061203d565b915050610fc0565b505080806110b39061203d565b915050610f7c565b50828295509550505050509091565b6000806110d683611239565b9050600081905060006040518060400160405280600c81526020017f426f617264204d656d6265720000000000000000000000000000000000000000815250905080518251101561112d5760009350505050611234565b60005b8151835161113e9190612358565b811161122b5760006001905060005b83518110156112025783818151811061116957611168611fdf565b5b602001015160f81c60f81b7effffffffffffffffffffffffffffffffffffffffffffffffffffffffffffff19168582856111a39190612324565b815181106111b4576111b3611fdf565b5b602001015160f81c60f81b7effffffffffffffffffffffffffffffffffffffffffffffffffffffffffffff1916146111ef5760009150611202565b80806111fa9061203d565b91505061114d565b50801561121757600195505050505050611234565b5080806112239061203d565b915050611130565b50600093505050505b919050565b606060005b60208110801561128a5750600060f81b83826020811061126157611260611fdf565b5b1a60f81b7effffffffffffffffffffffffffffffffffffffffffffffffffffffffffffff191614155b1561129c57808060010191505061123e565b60008167ffffffffffffffff8111156112b8576112b7611794565b5b6040519080825280601f01601f1916602001820160405280156112ea5781602001600182028036833780820191505090505b50905060005b828110156113645784816020811061130b5761130a611fdf565b5b1a60f81b82828151811061132257611321611fdf565b5b60200101907effffffffffffffffffffffffffffffffffffffffffffffffffffffffffffff1916908160001a905350808061135c9061203d565b9150506112f0565b508092505050919050565b50805460008255600302906000526020600020908101906113909190611405565b50565b50805460008255906000526020600020908101906113b19190611434565b50565b604051806040016040528060008019168152602001600080191681525090565b6040518060800160405280600080191681526020016000801916815260200160008019168152602001600081525090565b5b80821115611430576000808201600090556001820160009055600282016000905550600301611406565b5090565b5b8082111561144d576000816000905550600101611435565b5090565b6000604051905090565b600080fd5b600080fd5b6000819050919050565b61147881611465565b811461148357600080fd5b50565b6000813590506114958161146f565b92915050565b6000602082840312156114b1576114b061145b565b5b60006114bf84828501611486565b91505092915050565b6114d181611465565b82525050565b60006020820190506114ec60008301846114c8565b92915050565b6000819050919050565b611505816114f2565b811461151057600080fd5b50565b600081359050611522816114fc565b92915050565b6000806040838503121561153f5761153e61145b565b5b600061154d85828601611486565b925050602061155e85828601611513565b9150509250929050565b600081519050919050565b600082825260208201905092915050565b6000819050602082019050919050565b61159d81611465565b82525050565b60006115af8383611594565b60208301905092915050565b6000602082019050919050565b60006115d382611568565b6115dd8185611573565b93506115e883611584565b8060005b8381101561161957815161160088826115a3565b975061160b836115bb565b9250506001810190506115ec565b5085935050505092915050565b6000602082019050818103600083015261164081846115c8565b905092915050565b600081519050919050565b600082825260208201905092915050565b6000819050602082019050919050565b60408201600082015161168a6000850182611594565b50602082015161169d6020850182611594565b50505050565b60006116af8383611674565b60408301905092915050565b6000602082019050919050565b60006116d382611648565b6116dd8185611653565b93506116e883611664565b8060005b8381101561171957815161170088826116a3565b975061170b836116bb565b9250506001810190506116ec565b5085935050505092915050565b6000602082019050818103600083015261174081846116c8565b905092915050565b60008115159050919050565b61175d81611748565b82525050565b60006020820190506117786000830184611754565b92915050565b600080fd5b6000601f19601f8301169050919050565b7f4e487b7100000000000000000000000000000000000000000000000000000000600052604160045260246000fd5b6117cc82611783565b810181811067ffffffffffffffff821117156117eb576117ea611794565b5b80604052505050565b60006117fe611451565b905061180a82826117c3565b919050565b600067ffffffffffffffff82111561182a57611829611794565b5b602082029050602081019050919050565b600080fd5b600061185361184e8461180f565b6117f4565b905080838252602082019050602084028301858111156118765761187561183b565b5b835b8181101561189f578061188b8882611486565b845260208401935050602081019050611878565b5050509392505050565b600082601f8301126118be576118bd61177e565b5b81356118ce848260208601611840565b91505092915050565b600067ffffffffffffffff8211156118f2576118f1611794565b5b602082029050602081019050919050565b600067ffffffffffffffff82111561191e5761191d611794565b5b602082029050602081019050919050565b600080fd5b60006040828403121561194a5761194961192f565b5b61195460406117f4565b9050600061196484828501611486565b600083015250602061197884828501611486565b60208301525092915050565b600061199761199284611903565b6117f4565b905080838252602082019050604084028301858111156119ba576119b961183b565b5b835b818110156119e357806119cf8882611934565b8452602084019350506040810190506119bc565b5050509392505050565b600082601f830112611a0257611a0161177e565b5b8135611a12848260208601611984565b91505092915050565b6000611a2e611a29846118d7565b6117f4565b90508083825260208201905060208402830185811115611a5157611a5061183b565b5b835b81811015611a9857803567ffffffffffffffff811115611a7657611a7561177e565b5b808601611a8389826119ed565b85526020850194505050602081019050611a53565b5050509392505050565b600082601f830112611ab757611ab661177e565b5b8135611ac7848260208601611a1b565b91505092915050565b600080600060608486031215611ae957611ae861145b565b5b600084013567ffffffffffffffff811115611b0757611b06611460565b5b611b13868287016118a9565b935050602084013567ffffffffffffffff811115611b3457611b33611460565b5b611b4086828701611aa2565b925050604084013567ffffffffffffffff811115611b6157611b60611460565b5b611b6d868287016118a9565b9150509250925092565b600081519050919050565b600082825260208201905092915050565b6000819050602082019050919050565b611bac816114f2565b82525050565b608082016000820151611bc86000850182611594565b506020820151611bdb6020850182611594565b506040820151611bee6040850182611594565b506060820151611c016060850182611ba3565b50505050565b6000611c138383611bb2565b60808301905092915050565b6000602082019050919050565b6000611c3782611b77565b611c418185611b82565b9350611c4c83611b93565b8060005b83811015611c7d578151611c648882611c07565b9750611c6f83611c1f565b925050600181019050611c50565b5085935050505092915050565b60006020820190508181036000830152611ca48184611c2c565b905092915050565b600067ffffffffffffffff821115611cc757611cc6611794565b5b602082029050602081019050919050565b6000611ceb611ce684611cac565b6117f4565b90508083825260208201905060208402830185811115611d0e57611d0d61183b565b5b835b81811015611d375780611d238882611513565b845260208401935050602081019050611d10565b5050509392505050565b600082601f830112611d5657611d5561177e565b5b8135611d66848260208601611cd8565b91505092915050565b600080600060608486031215611d8857611d8761145b565b5b600084013567ffffffffffffffff811115611da657611da5611460565b5b611db2868287016118a9565b935050602084013567ffffffffffffffff811115611dd357611dd2611460565b5b611ddf86828701611d41565b9250506040611df086828701611486565b9150509250925092565b600073ffffffffffffffffffffffffffffffffffffffff82169050919050565b6000611e2582611dfa565b9050919050565b611e3581611e1a565b82525050565b6000602082019050611e506000830184611e2c565b92915050565b600081519050919050565b600082825260208201905092915050565b6000819050602082019050919050565b6000611e8e8383611ba3565b60208301905092915050565b6000602082019050919050565b6000611eb282611e56565b611ebc8185611e61565b9350611ec783611e72565b8060005b83811015611ef8578151611edf8882611e82565b9750611eea83611e9a565b925050600181019050611ecb565b5085935050505092915050565b60006040820190508181036000830152611f1f81856116c8565b90508181036020830152611f338184611ea7565b90509392505050565b600082825260208201905092915050565b7f4f6e6c792061646d696e2063616e20706572666f726d2074686973206163746960008201527f6f6e000000000000000000000000000000000000000000000000000000000000602082015250565b6000611fa9602283611f3c565b9150611fb482611f4d565b604082019050919050565b60006020820190508181036000830152611fd881611f9c565b9050919050565b7f4e487b7100000000000000000000000000000000000000000000000000000000600052603260045260246000fd5b7f4e487b7100000000000000000000000000000000000000000000000000000000600052601160045260246000fd5b6000612048826114f2565b91507fffffffffffffffffffffffffffffffffffffffffffffffffffffffffffffffff820361207a5761207961200e565b5b600182019050919050565b7f43616e646964617465732061726520616c72656164792066696e616c697a656460008201527f2100000000000000000000000000000000000000000000000000000000000000602082015250565b60006120e1602183611f3c565b91506120ec82612085565b604082019050919050565b60006020820190508181036000830152612110816120d4565b9050919050565b7f566f74696e672063616e6e6f7420737461727420756e74696c2063616e64696460008201527f61746573206172652066696e616c697a65642100000000000000000000000000602082015250565b6000612173603383611f3c565b915061217e82612117565b604082019050919050565b600060208201905081810360008301526121a281612166565b9050919050565b7f4d69736d61746368656420696e707574206c656e677468730000000000000000600082015250565b60006121df601883611f3c565b91506121ea826121a9565b602082019050919050565b6000602082019050818103600083015261220e816121d2565b9050919050565b7f566f7465722068617320616c726561647920766f746564000000000000000000600082015250565b600061224b601783611f3c565b915061225682612215565b602082019050919050565b6000602082019050818103600083015261227a8161223e565b9050919050565b7f496e76616c69642063616e64696461746520696e646578000000000000000000600082015250565b60006122b7601783611f3c565b91506122c282612281565b602082019050919050565b600060208201905081810360008301526122e6816122aa565b9050919050565b600060608201905061230260008301866114c8565b61230f60208301856114c8565b61231c60408301846114c8565b949350505050565b600061232f826114f2565b915061233a836114f2565b92508282019050808211156123525761235161200e565b5b92915050565b6000612363826114f2565b915061236e836114f2565b92508282039050818111156123865761238561200e565b5b9291505056fea2646970667358221220cc70cd7695f8110176330ff12d710cf21390e1eda63dcc09b11ee0852b6765b664736f6c63430008150033",
  "linkReferences": {},
  "deployedLinkReferences": {}
}