{
  "_format": "hh-sol-artifact-1",
  "contractName": "AdminCandidates",
  "sourceName": "contracts/AdminCandidates.sol",
  "abi": [
    {
      "inputs": [],
      "stateMutability": "nonpayable",
      "type": "constructor"
    },
    {
      "anonymous": false,
      "inputs": [],
      "name": "CandidatesSubmitted",
      "type": "event"
    },
    {
      "inputs": [],
      "name": "admin",
      "outputs": [
        {
          "internalType": "address",
          "name": "",
          "type": "address"
        }
      ],
      "stateMutability": "view",
      "type": "function"
    },
    {
      "inputs": [
        {
          "internalType": "string",
          "name": "_position",
          "type": "string"
        }
      ],
      "name": "getCandidates",
      "outputs": [
        {
          "components": [
            {
              "internalType": "string",
              "name": "name",
              "type": "string"
            },
            {
              "internalType": "string",
              "name": "party",
              "type": "string"
            },
            {
              "internalType": "string",
              "name": "position",
              "type": "string"
            }
          ],
          "internalType": "struct AdminCandidates.Candidate[]",
          "name": "",
          "type": "tuple[]"
        }
      ],
      "stateMutability": "view",
      "type": "function"
    },
    {
      "inputs": [],
      "name": "isFinalized",
      "outputs": [
        {
          "internalType": "bool",
          "name": "",
          "type": "bool"
        }
      ],
      "stateMutability": "view",
      "type": "function"
    },
    {
      "inputs": [],
      "name": "resetCandidates",
      "outputs": [],
      "stateMutability": "nonpayable",
      "type": "function"
    },
    {
      "inputs": [
        {
          "internalType": "string[]",
          "name": "_positions",
          "type": "string[]"
        },
        {
          "internalType": "string[][]",
          "name": "_names",
          "type": "string[][]"
        },
        {
          "internalType": "string[][]",
          "name": "_parties",
          "type": "string[][]"
        }
      ],
      "name": "submitCandidates",
      "outputs": [],
      "stateMutability": "nonpayable",
      "type": "function"
    }
  ],
  "bytecode": "0x60806040526000600160146101000a81548160ff02191690831515021790555034801561002b57600080fd5b5033600160006101000a81548173ffffffffffffffffffffffffffffffffffffffff021916908373ffffffffffffffffffffffffffffffffffffffff16021790555061138a8061007c6000396000f3fe608060405234801561001057600080fd5b50600436106100575760003560e01c8063455347631461005c5780637718d9f31461008c5780638d4e40831461009657806395dbea06146100b4578063f851a440146100d0575b600080fd5b61007660048036038101906100719190610934565b6100ee565b6040516100839190610b1c565b60405180910390f35b610094610321565b005b61009e6103ce565b6040516100ab9190610b59565b60405180910390f35b6100ce60048036038101906100c99190610d3b565b6103e1565b005b6100d86106ec565b6040516100e59190610e23565b60405180910390f35b60606000826040516101009190610e7a565b9081526020016040518091039020805480602002602001604051908101604052809291908181526020016000905b82821015610316578382906000526020600020906003020160405180606001604052908160008201805461016190610ec0565b80601f016020809104026020016040519081016040528092919081815260200182805461018d90610ec0565b80156101da5780601f106101af576101008083540402835291602001916101da565b820191906000526020600020905b8154815290600101906020018083116101bd57829003601f168201915b505050505081526020016001820180546101f390610ec0565b80601f016020809104026020016040519081016040528092919081815260200182805461021f90610ec0565b801561026c5780601f106102415761010080835404028352916020019161026c565b820191906000526020600020905b81548152906001019060200180831161024f57829003601f168201915b5050505050815260200160028201805461028590610ec0565b80601f01602080910402602001604051908101604052809291908181526020018280546102b190610ec0565b80156102fe5780601f106102d3576101008083540402835291602001916102fe565b820191906000526020600020905b8154815290600101906020018083116102e157829003601f168201915b5050505050815250508152602001906001019061012e565b505050509050919050565b600160009054906101000a900473ffffffffffffffffffffffffffffffffffffffff1673ffffffffffffffffffffffffffffffffffffffff163373ffffffffffffffffffffffffffffffffffffffff16146103b1576040517f08c379a00000000000000000000000000000000000000000000000000000000081526004016103a890610f74565b60405180910390fd5b6000600160146101000a81548160ff021916908315150217905550565b600160149054906101000a900460ff1681565b600160009054906101000a900473ffffffffffffffffffffffffffffffffffffffff1673ffffffffffffffffffffffffffffffffffffffff163373ffffffffffffffffffffffffffffffffffffffff1614610471576040517f08c379a000000000000000000000000000000000000000000000000000000000815260040161046890610f74565b60405180910390fd5b600160149054906101000a900460ff16156104c1576040517f08c379a00000000000000000000000000000000000000000000000000000000081526004016104b890611006565b60405180910390fd5b60005b83518110156106a05760008482815181106104e2576104e1611026565b5b60200260200101516040516104f79190610e7a565b908152602001604051809103902060006105119190610712565b60005b83828151811061052757610526611026565b5b60200260200101515181101561068c57600085838151811061054c5761054b611026565b5b60200260200101516040516105619190610e7a565b9081526020016040518091039020604051806060016040528086858151811061058d5761058c611026565b5b602002602001015184815181106105a7576105a6611026565b5b602002602001015181526020018585815181106105c7576105c6611026565b5b602002602001015184815181106105e1576105e0611026565b5b6020026020010151815260200187858151811061060157610600611026565b5b60200260200101518152509080600181540180825580915050600190039060005260206000209060030201600090919091909150600082015181600001908161064a919061120b565b506020820151816001019081610660919061120b565b506040820151816002019081610676919061120b565b50505080806106849061130c565b915050610514565b5080806106989061130c565b9150506104c4565b5060018060146101000a81548160ff0219169083151502179055507f86825b43264ca968e676c45c8e05cc56965ff5938ed49dcf636c61acb7070bd760405160405180910390a1505050565b600160009054906101000a900473ffffffffffffffffffffffffffffffffffffffff1681565b50805460008255600302906000526020600020908101906107339190610736565b50565b5b808211156107795760008082016000610750919061077d565b600182016000610760919061077d565b600282016000610770919061077d565b50600301610737565b5090565b50805461078990610ec0565b6000825580601f1061079b57506107ba565b601f0160209004906000526020600020908101906107b991906107bd565b5b50565b5b808211156107d65760008160009055506001016107be565b5090565b6000604051905090565b600080fd5b600080fd5b600080fd5b600080fd5b6000601f19601f8301169050919050565b7f4e487b7100000000000000000000000000000000000000000000000000000000600052604160045260246000fd5b610841826107f8565b810181811067ffffffffffffffff821117156108605761085f610809565b5b80604052505050565b60006108736107da565b905061087f8282610838565b919050565b600067ffffffffffffffff82111561089f5761089e610809565b5b6108a8826107f8565b9050602081019050919050565b82818337600083830152505050565b60006108d76108d284610884565b610869565b9050828152602081018484840111156108f3576108f26107f3565b5b6108fe8482856108b5565b509392505050565b600082601f83011261091b5761091a6107ee565b5b813561092b8482602086016108c4565b91505092915050565b60006020828403121561094a576109496107e4565b5b600082013567ffffffffffffffff811115610968576109676107e9565b5b61097484828501610906565b91505092915050565b600081519050919050565b600082825260208201905092915050565b6000819050602082019050919050565b600081519050919050565b600082825260208201905092915050565b60005b838110156109e35780820151818401526020810190506109c8565b60008484015250505050565b60006109fa826109a9565b610a0481856109b4565b9350610a148185602086016109c5565b610a1d816107f8565b840191505092915050565b60006060830160008301518482036000860152610a4582826109ef565b91505060208301518482036020860152610a5f82826109ef565b91505060408301518482036040860152610a7982826109ef565b9150508091505092915050565b6000610a928383610a28565b905092915050565b6000602082019050919050565b6000610ab28261097d565b610abc8185610988565b935083602082028501610ace85610999565b8060005b85811015610b0a5784840389528151610aeb8582610a86565b9450610af683610a9a565b925060208a01995050600181019050610ad2565b50829750879550505050505092915050565b60006020820190508181036000830152610b368184610aa7565b905092915050565b60008115159050919050565b610b5381610b3e565b82525050565b6000602082019050610b6e6000830184610b4a565b92915050565b600067ffffffffffffffff821115610b8f57610b8e610809565b5b602082029050602081019050919050565b600080fd5b6000610bb8610bb384610b74565b610869565b90508083825260208201905060208402830185811115610bdb57610bda610ba0565b5b835b81811015610c2257803567ffffffffffffffff811115610c0057610bff6107ee565b5b808601610c0d8982610906565b85526020850194505050602081019050610bdd565b5050509392505050565b600082601f830112610c4157610c406107ee565b5b8135610c51848260208601610ba5565b91505092915050565b600067ffffffffffffffff821115610c7557610c74610809565b5b602082029050602081019050919050565b6000610c99610c9484610c5a565b610869565b90508083825260208201905060208402830185811115610cbc57610cbb610ba0565b5b835b81811015610d0357803567ffffffffffffffff811115610ce157610ce06107ee565b5b808601610cee8982610c2c565b85526020850194505050602081019050610cbe565b5050509392505050565b600082601f830112610d2257610d216107ee565b5b8135610d32848260208601610c86565b91505092915050565b600080600060608486031215610d5457610d536107e4565b5b600084013567ffffffffffffffff811115610d7257610d716107e9565b5b610d7e86828701610c2c565b935050602084013567ffffffffffffffff811115610d9f57610d9e6107e9565b5b610dab86828701610d0d565b925050604084013567ffffffffffffffff811115610dcc57610dcb6107e9565b5b610dd886828701610d0d565b9150509250925092565b600073ffffffffffffffffffffffffffffffffffffffff82169050919050565b6000610e0d82610de2565b9050919050565b610e1d81610e02565b82525050565b6000602082019050610e386000830184610e14565b92915050565b600081905092915050565b6000610e54826109a9565b610e5e8185610e3e565b9350610e6e8185602086016109c5565b80840191505092915050565b6000610e868284610e49565b915081905092915050565b7f4e487b7100000000000000000000000000000000000000000000000000000000600052602260045260246000fd5b60006002820490506001821680610ed857607f821691505b602082108103610eeb57610eea610e91565b5b50919050565b600082825260208201905092915050565b7f4f6e6c792061646d696e2063616e20706572666f726d2074686973206163746960008201527f6f6e000000000000000000000000000000000000000000000000000000000000602082015250565b6000610f5e602283610ef1565b9150610f6982610f02565b604082019050919050565b60006020820190508181036000830152610f8d81610f51565b9050919050565b7f43616e646964617465732061726520616c72656164792066696e616c697a656460008201527f2100000000000000000000000000000000000000000000000000000000000000602082015250565b6000610ff0602183610ef1565b9150610ffb82610f94565b604082019050919050565b6000602082019050818103600083015261101f81610fe3565b9050919050565b7f4e487b7100000000000000000000000000000000000000000000000000000000600052603260045260246000fd5b60008190508160005260206000209050919050565b60006020601f8301049050919050565b600082821b905092915050565b6000600883026110b77fffffffffffffffffffffffffffffffffffffffffffffffffffffffffffffffff8261107a565b6110c1868361107a565b95508019841693508086168417925050509392505050565b6000819050919050565b6000819050919050565b60006111086111036110fe846110d9565b6110e3565b6110d9565b9050919050565b6000819050919050565b611122836110ed565b61113661112e8261110f565b848454611087565b825550505050565b600090565b61114b61113e565b611156818484611119565b505050565b5b8181101561117a5761116f600082611143565b60018101905061115c565b5050565b601f8211156111bf5761119081611055565b6111998461106a565b810160208510156111a8578190505b6111bc6111b48561106a565b83018261115b565b50505b505050565b600082821c905092915050565b60006111e2600019846008026111c4565b1980831691505092915050565b60006111fb83836111d1565b9150826002028217905092915050565b611214826109a9565b67ffffffffffffffff81111561122d5761122c610809565b5b6112378254610ec0565b61124282828561117e565b600060209050601f8311600181146112755760008415611263578287015190505b61126d85826111ef565b8655506112d5565b601f19841661128386611055565b60005b828110156112ab57848901518255600182019150602085019450602081019050611286565b868310156112c857848901516112c4601f8916826111d1565b8355505b6001600288020188555050505b505050505050565b7f4e487b7100000000000000000000000000000000000000000000000000000000600052601160045260246000fd5b6000611317826110d9565b91507fffffffffffffffffffffffffffffffffffffffffffffffffffffffffffffffff8203611349576113486112dd565b5b60018201905091905056fea2646970667358221220ba02837e6fc49495895507fb73283d0e60183033fc6a206fe1e4d327ba8826cd64736f6c63430008150033",
  "linkReferences": {},
  "deployedLinkReferences": {}
}