{
  "_format": "hh-sol-artifact-1",
  "contractName": "AdminCandidates",
  "sourceName": "contracts/AdminCandidates.sol",
  "abi": [
    {
      "anonymous": false,
      "inputs": [
        {
          "indexed": false,
          "internalType": "bytes32",
          "name": "candidateId",
          "type": "bytes32"
        }
      ],
      "name": "CandidateRegistered",
      "type": "event"
    },
    {
      "anonymous": false,
      "inputs": [
        {
          "indexed": false,
          "internalType": "bytes32",
          "name": "candidateId",
          "type": "bytes32"
        },
        {
          "indexed": false,
          "internalType": "uint256",
          "name": "newVoteCount",
          "type": "uint256"
        }
      ],
      "name": "VoteCasted",
      "type": "event"
    },
    {
      "inputs": [
        {
          "internalType": "uint256",
          "name": "",
          "type": "uint256"
        }
      ],
      "name": "candidateList",
      "outputs": [
        {
          "internalType": "bytes32",
          "name": "",
          "type": "bytes32"
        }
      ],
      "stateMutability": "view",
      "type": "function"
    },
    {
      "inputs": [
        {
          "internalType": "bytes32",
          "name": "",
          "type": "bytes32"
        }
      ],
      "name": "candidateVotes",
      "outputs": [
        {
          "internalType": "uint256",
          "name": "",
          "type": "uint256"
        }
      ],
      "stateMutability": "view",
      "type": "function"
    },
    {
      "inputs": [],
      "name": "getCandidateCount",
      "outputs": [
        {
          "internalType": "uint256",
          "name": "",
          "type": "uint256"
        }
      ],
      "stateMutability": "view",
      "type": "function"
    },
    {
      "inputs": [],
      "name": "getCandidateDetails",
      "outputs": [
        {
          "internalType": "bytes32[]",
          "name": "",
          "type": "bytes32[]"
        },
        {
          "internalType": "uint256[]",
          "name": "",
          "type": "uint256[]"
        }
      ],
      "stateMutability": "view",
      "type": "function"
    },
    {
      "inputs": [
        {
          "internalType": "bytes32",
          "name": "",
          "type": "bytes32"
        }
      ],
      "name": "isRegistered",
      "outputs": [
        {
          "internalType": "bool",
          "name": "",
          "type": "bool"
        }
      ],
      "stateMutability": "view",
      "type": "function"
    },
    {
      "inputs": [
        {
          "internalType": "bytes32[]",
          "name": "candidateIds",
          "type": "bytes32[]"
        }
      ],
      "name": "registerCandidates",
      "outputs": [],
      "stateMutability": "nonpayable",
      "type": "function"
    },
    {
      "inputs": [],
      "name": "resetCandidates",
      "outputs": [],
      "stateMutability": "nonpayable",
      "type": "function"
    },
    {
      "inputs": [
        {
          "internalType": "bytes32[]",
          "name": "candidateIds",
          "type": "bytes32[]"
        }
      ],
      "name": "voteForCandidates",
      "outputs": [],
      "stateMutability": "nonpayable",
      "type": "function"
    }
  ],
  "bytecode": "0x608060405234801561001057600080fd5b50610b87806100206000396000f3fe608060405234801561001057600080fd5b50600436106100885760003560e01c80637718d9f31161005b5780637718d9f31461012a578063af6cb75514610134578063b13c744b14610150578063e17b240a1461018057610088565b806327258b221461008d5780632f1fdc2a146100bd57806330a56347146100ed5780635a2608761461010b575b600080fd5b6100a760048036038101906100a29190610657565b61019c565b6040516100b4919061069f565b60405180910390f35b6100d760048036038101906100d29190610657565b6101bc565b6040516100e491906106d3565b60405180910390f35b6100f56101d4565b60405161010291906106d3565b60405180910390f35b6101136101e1565b60405161012192919061086a565b60405180910390f35b610132610304565b005b61014e60048036038101906101499190610906565b61039a565b005b61016a6004803603810190610165919061097f565b6104a2565b60405161017791906109bb565b60405180910390f35b61019a60048036038101906101959190610906565b6104c6565b005b60006020528060005260406000206000915054906101000a900460ff1681565b60016020528060005260406000206000915090505481565b6000600280549050905090565b6060806000600280549050905060008167ffffffffffffffff81111561020a576102096109d6565b5b6040519080825280602002602001820160405280156102385781602001602082028036833780820191505090505b50905060005b828110156102a457600160006002838154811061025e5761025d610a05565b5b906000526020600020015481526020019081526020016000205482828151811061028b5761028a610a05565b5b602002602001018181525050808060010191505061023e565b50600281818054806020026020016040519081016040528092919081815260200182805480156102f357602002820191906000526020600020905b8154815260200190600101908083116102df575b505050505091509350935050509091565b60005b6002805490508110156103895760006002828154811061032a57610329610a05565b5b90600052602060002001549050600080600083815260200190815260200160002060006101000a81548160ff02191690831515021790555060006001600083815260200190815260200160002081905550818060010192505050610307565b506002600061039891906105d9565b565b60005b8282905081101561049d5760008383838181106103bd576103bc610a05565b5b90506020020135905060008082815260200190815260200160002060009054906101000a900460ff1661048f57600160008083815260200190815260200160002060006101000a81548160ff0219169083151502179055506000600160008381526020019081526020016000208190555060028190806001815401808255809150506001900390600052602060002001600090919091909150557ff6a6be64dd96964e37d70b178d6036e4cdbb7959eeab696bf22f270225145db28160405161048691906109bb565b60405180910390a15b81806001019250505061039d565b505050565b600281815481106104b257600080fd5b906000526020600020016000915090505481565b60005b828290508110156105d45760008383838181106104e9576104e8610a05565b5b90506020020135905060008082815260200190815260200160002060009054906101000a900460ff16610551576040517f08c379a000000000000000000000000000000000000000000000000000000000815260040161054890610a91565b60405180910390fd5b60016000828152602001908152602001600020600081548092919061057590610ae0565b91905055507fbf8e3be76511fbc133be248f8ea28794eaaec7574547d2ce1a374f36a1674aa28160016000848152602001908152602001600020546040516105be929190610b28565b60405180910390a18180600101925050506104c9565b505050565b50805460008255906000526020600020908101906105f791906105fa565b50565b5b808211156106135760008160009055506001016105fb565b5090565b600080fd5b600080fd5b6000819050919050565b61063481610621565b811461063f57600080fd5b50565b6000813590506106518161062b565b92915050565b60006020828403121561066d5761066c610617565b5b600061067b84828501610642565b91505092915050565b60008115159050919050565b61069981610684565b82525050565b60006020820190506106b46000830184610690565b92915050565b6000819050919050565b6106cd816106ba565b82525050565b60006020820190506106e860008301846106c4565b92915050565b600081519050919050565b600082825260208201905092915050565b6000819050602082019050919050565b61072381610621565b82525050565b6000610735838361071a565b60208301905092915050565b6000602082019050919050565b6000610759826106ee565b61076381856106f9565b935061076e8361070a565b8060005b8381101561079f5781516107868882610729565b975061079183610741565b925050600181019050610772565b5085935050505092915050565b600081519050919050565b600082825260208201905092915050565b6000819050602082019050919050565b6107e1816106ba565b82525050565b60006107f383836107d8565b60208301905092915050565b6000602082019050919050565b6000610817826107ac565b61082181856107b7565b935061082c836107c8565b8060005b8381101561085d57815161084488826107e7565b975061084f836107ff565b925050600181019050610830565b5085935050505092915050565b60006040820190508181036000830152610884818561074e565b90508181036020830152610898818461080c565b90509392505050565b600080fd5b600080fd5b600080fd5b60008083601f8401126108c6576108c56108a1565b5b8235905067ffffffffffffffff8111156108e3576108e26108a6565b5b6020830191508360208202830111156108ff576108fe6108ab565b5b9250929050565b6000806020838503121561091d5761091c610617565b5b600083013567ffffffffffffffff81111561093b5761093a61061c565b5b610947858286016108b0565b92509250509250929050565b61095c816106ba565b811461096757600080fd5b50565b60008135905061097981610953565b92915050565b60006020828403121561099557610994610617565b5b60006109a38482850161096a565b91505092915050565b6109b581610621565b82525050565b60006020820190506109d060008301846109ac565b92915050565b7f4e487b7100000000000000000000000000000000000000000000000000000000600052604160045260246000fd5b7f4e487b7100000000000000000000000000000000000000000000000000000000600052603260045260246000fd5b600082825260208201905092915050565b7f43616e646964617465206e6f7420726567697374657265640000000000000000600082015250565b6000610a7b601883610a34565b9150610a8682610a45565b602082019050919050565b60006020820190508181036000830152610aaa81610a6e565b9050919050565b7f4e487b7100000000000000000000000000000000000000000000000000000000600052601160045260246000fd5b6000610aeb826106ba565b91507fffffffffffffffffffffffffffffffffffffffffffffffffffffffffffffffff8203610b1d57610b1c610ab1565b5b600182019050919050565b6000604082019050610b3d60008301856109ac565b610b4a60208301846106c4565b939250505056fea264697066735822122086dfea89bc5c8923f34b73cc91bc4d1e8640a6a20b84f366d7aa9db6024ef8b164736f6c63430008150033",
  "linkReferences": {},
  "deployedLinkReferences": {}
}