{
  "_format": "hh-sol-artifact-1",
  "contractName": "AdminCandidates",
  "sourceName": "contracts/AdminCandidates.sol",
  "abi": [
    {
      "inputs": [],
      "stateMutability": "nonpayable",
      "type": "constructor"
    },
    {
      "anonymous": false,
      "inputs": [],
      "name": "CandidatesReset",
      "type": "event"
    },
    {
      "anonymous": false,
      "inputs": [],
      "name": "CandidatesSubmitted",
      "type": "event"
    },
    {
      "anonymous": false,
      "inputs": [
        {
          "indexed": false,
          "internalType": "bytes32",
          "name": "position",
          "type": "bytes32"
        },
        {
          "indexed": false,
          "internalType": "bytes32",
          "name": "candidateId",
          "type": "bytes32"
        },
        {
          "indexed": false,
          "internalType": "bytes32",
          "name": "voterHash",
          "type": "bytes32"
        }
      ],
      "name": "VoteSubmitted",
      "type": "event"
    },
    {
      "inputs": [],
      "name": "admin",
      "outputs": [
        {
          "internalType": "address",
          "name": "",
          "type": "address"
        }
      ],
      "stateMutability": "view",
      "type": "function"
    },
    {
      "inputs": [
        {
          "internalType": "bytes32[]",
          "name": "_positions",
          "type": "bytes32[]"
        },
        {
          "internalType": "bytes32[]",
          "name": "_candidateIds",
          "type": "bytes32[]"
        },
        {
          "internalType": "bytes32",
          "name": "_voterHash",
          "type": "bytes32"
        }
      ],
      "name": "batchVote",
      "outputs": [],
      "stateMutability": "nonpayable",
      "type": "function"
    },
    {
      "inputs": [
        {
          "internalType": "bytes32",
          "name": "",
          "type": "bytes32"
        }
      ],
      "name": "boardMemberProgramIDs",
      "outputs": [
        {
          "internalType": "bytes32",
          "name": "",
          "type": "bytes32"
        }
      ],
      "stateMutability": "view",
      "type": "function"
    },
    {
      "inputs": [
        {
          "internalType": "bytes32",
          "name": "_position",
          "type": "bytes32"
        }
      ],
      "name": "getCandidates",
      "outputs": [
        {
          "components": [
            {
              "internalType": "bytes32",
              "name": "candidateId",
              "type": "bytes32"
            },
            {
              "internalType": "bytes32",
              "name": "name",
              "type": "bytes32"
            },
            {
              "internalType": "bytes32",
              "name": "party",
              "type": "bytes32"
            }
          ],
          "internalType": "struct AdminCandidates.CandidateEntry[]",
          "name": "",
          "type": "tuple[]"
        }
      ],
      "stateMutability": "view",
      "type": "function"
    },
    {
      "inputs": [],
      "name": "getPositionList",
      "outputs": [
        {
          "internalType": "bytes32[]",
          "name": "",
          "type": "bytes32[]"
        }
      ],
      "stateMutability": "view",
      "type": "function"
    },
    {
      "inputs": [],
      "name": "getVoteCounts",
      "outputs": [
        {
          "components": [
            {
              "internalType": "bytes32",
              "name": "candidateId",
              "type": "bytes32"
            },
            {
              "internalType": "bytes32",
              "name": "name",
              "type": "bytes32"
            },
            {
              "internalType": "bytes32",
              "name": "party",
              "type": "bytes32"
            }
          ],
          "internalType": "struct AdminCandidates.CandidateEntry[]",
          "name": "",
          "type": "tuple[]"
        },
        {
          "internalType": "uint256[]",
          "name": "",
          "type": "uint256[]"
        }
      ],
      "stateMutability": "view",
      "type": "function"
    },
    {
      "inputs": [
        {
          "internalType": "bytes32",
          "name": "_position",
          "type": "bytes32"
        },
        {
          "internalType": "uint256",
          "name": "_index",
          "type": "uint256"
        }
      ],
      "name": "getVoterHashes",
      "outputs": [
        {
          "internalType": "bytes32[]",
          "name": "",
          "type": "bytes32[]"
        }
      ],
      "stateMutability": "view",
      "type": "function"
    },
    {
      "inputs": [],
      "name": "getWinners",
      "outputs": [
        {
          "components": [
            {
              "internalType": "bytes32",
              "name": "position",
              "type": "bytes32"
            },
            {
              "internalType": "bytes32",
              "name": "name",
              "type": "bytes32"
            },
            {
              "internalType": "bytes32",
              "name": "party",
              "type": "bytes32"
            },
            {
              "internalType": "uint256",
              "name": "votes",
              "type": "uint256"
            }
          ],
          "internalType": "struct AdminCandidates.Winner[]",
          "name": "",
          "type": "tuple[]"
        }
      ],
      "stateMutability": "view",
      "type": "function"
    },
    {
      "inputs": [],
      "name": "isFinalized",
      "outputs": [
        {
          "internalType": "bool",
          "name": "",
          "type": "bool"
        }
      ],
      "stateMutability": "view",
      "type": "function"
    },
    {
      "inputs": [],
      "name": "resetCandidates",
      "outputs": [],
      "stateMutability": "nonpayable",
      "type": "function"
    },
    {
      "inputs": [
        {
          "internalType": "bytes32[]",
          "name": "_positions",
          "type": "bytes32[]"
        },
        {
          "components": [
            {
              "internalType": "bytes32",
              "name": "candidateId",
              "type": "bytes32"
            },
            {
              "internalType": "bytes32",
              "name": "name",
              "type": "bytes32"
            },
            {
              "internalType": "bytes32",
              "name": "party",
              "type": "bytes32"
            }
          ],
          "internalType": "struct AdminCandidates.CandidateEntry[][]",
          "name": "_candidates",
          "type": "tuple[][]"
        },
        {
          "internalType": "bytes32[]",
          "name": "_boardMemberProgramIDs",
          "type": "bytes32[]"
        }
      ],
      "name": "submitCandidates",
      "outputs": [],
      "stateMutability": "nonpayable",
      "type": "function"
    }
  ],
  "bytecode": "0x60806040526000600560146101000a81548160ff02191690831515021790555034801561002b57600080fd5b5033600560006101000a81548173ffffffffffffffffffffffffffffffffffffffff021916908373ffffffffffffffffffffffffffffffffffffffff16021790555061240c8061007c6000396000f3fe608060405234801561001057600080fd5b50600436106100a95760003560e01c806385b923ca1161007157806385b923ca146101505780638d4e408314610180578063a5d3157e1461019e578063df15c37e146101bc578063f851a440146101da578063ffc97b20146101f8576100a9565b806307f1db5b146100ae5780633b06843b146100ca57806356fc64f8146100e657806370918ce3146101165780637718d9f314610146575b600080fd5b6100c860048036038101906100c391906118e7565b610217565b005b6100e460048036038101906100df919061198e565b610666565b005b61010060048036038101906100fb9190611a19565b610980565b60405161010d9190611a55565b60405180910390f35b610130600480360381019061012b9190611aa6565b610998565b60405161013d9190611ba4565b60405180910390f35b61014e610a15565b005b61016a60048036038101906101659190611a19565b610b62565b6040516101779190611cb7565b60405180910390f35b610188610ca8565b6040516101959190611cf4565b60405180910390f35b6101a6610cbb565b6040516101b39190611ba4565b60405180910390f35b6101c4610d13565b6040516101d19190611e22565b60405180910390f35b6101e2610eee565b6040516101ef9190611e85565b60405180910390f35b610200610f14565b60405161020e929190611f4f565b60405180910390f35b600560009054906101000a900473ffffffffffffffffffffffffffffffffffffffff1673ffffffffffffffffffffffffffffffffffffffff163373ffffffffffffffffffffffffffffffffffffffff16146102a7576040517f08c379a000000000000000000000000000000000000000000000000000000000815260040161029e90612009565b60405180910390fd5b600560149054906101000a900460ff16156102f7576040517f08c379a00000000000000000000000000000000000000000000000000000000081526004016102ee9061209b565b60405180910390fd5b600360006103059190611443565b60005b8351811015610619576000806000868481518110610329576103286120bb565b5b60200260200101518152602001908152602001600020805490500361038c57600384828151811061035d5761035c6120bb565b5b602002602001015190806001815401808255809150506001900390600052602060002001600090919091909150555b6000808583815181106103a2576103a16120bb565b5b6020026020010151815260200190815260200160002060006103c49190611464565b60005b8382815181106103da576103d96120bb565b5b60200260200101515181101561059057600080868481518110610400576103ff6120bb565b5b602002602001015181526020019081526020016000206040518060800160405280868581518110610434576104336120bb565b5b6020026020010151848151811061044e5761044d6120bb565b5b6020026020010151600001518152602001868581518110610472576104716120bb565b5b6020026020010151848151811061048c5761048b6120bb565b5b60200260200101516020015181526020018685815181106104b0576104af6120bb565b5b602002602001015184815181106104ca576104c96120bb565b5b6020026020010151604001518152602001600081525090806001815401808255809150506001900390600052602060002090600402016000909190919091506000820151816000015560208201518160010155604082015181600201556060820151816003015550506001600086848151811061054a576105496120bb565b5b602002602001015181526020019081526020016000206000828152602001908152602001600020600061057d9190611443565b808061058890612119565b9150506103c7565b506105b48482815181106105a7576105a66120bb565b5b602002602001015161119e565b15610606578181815181106105cc576105cb6120bb565b5b6020026020010151600460008684815181106105eb576105ea6120bb565b5b60200260200101518152602001908152602001600020819055505b808061061190612119565b915050610308565b506001600560146101000a81548160ff0219169083151502179055507f86825b43264ca968e676c45c8e05cc56965ff5938ed49dcf636c61acb7070bd760405160405180910390a1505050565b600560149054906101000a900460ff166106b5576040517f08c379a00000000000000000000000000000000000000000000000000000000081526004016106ac906121d3565b60405180910390fd5b81518351146106f9576040517f08c379a00000000000000000000000000000000000000000000000000000000081526004016106f09061223f565b60405180910390fd5b6002600082815260200190815260200160002060009054906101000a900460ff161561075a576040517f08c379a0000000000000000000000000000000000000000000000000000000008152600401610751906122ab565b60405180910390fd5b60016002600083815260200190815260200160002060006101000a81548160ff02191690831515021790555060005b835181101561097a5760008482815181106107a7576107a66120bb565b5b6020026020010151905060008483815181106107c6576107c56120bb565b5b6020026020010151905060008080600090505b600080868152602001908152602001600020805490508110156108515783600080878152602001908152602001600020828154811061081b5761081a6120bb565b5b9060005260206000209060040201600001540361083e5760019250809150610851565b808061084990612119565b9150506107d9565b5081610892576040517f08c379a000000000000000000000000000000000000000000000000000000000815260040161088990612317565b60405180910390fd5b60008085815260200190815260200160002081815481106108b6576108b56120bb565b5b906000526020600020906004020160030160008154809291906108d890612119565b91905055506001600085815260200190815260200160002060008281526020019081526020016000208690806001815401808255809150506001900390600052602060002001600090919091909150557f178e76faa844f1c429cbe43bb805a70530f990ef2acc87f8f626ac80ff48490984848860405161095b93929190612337565b60405180910390a150505050808061097290612119565b915050610789565b50505050565b60046020528060005260406000206000915090505481565b6060600160008481526020019081526020016000206000838152602001908152602001600020805480602002602001604051908101604052809291908181526020018280548015610a0857602002820191906000526020600020905b8154815260200190600101908083116109f4575b5050505050905092915050565b600560009054906101000a900473ffffffffffffffffffffffffffffffffffffffff1673ffffffffffffffffffffffffffffffffffffffff163373ffffffffffffffffffffffffffffffffffffffff1614610aa5576040517f08c379a0000000000000000000000000000000000000000000000000000000008152600401610a9c90612009565b60405180910390fd5b60005b600380549050811015610b0a57600060038281548110610acb57610aca6120bb565b5b906000526020600020015490506000808281526020019081526020016000206000610af69190611464565b508080610b0290612119565b915050610aa8565b5060036000610b199190611443565b6000600560146101000a81548160ff0219169083151502179055507f800bdaa40887ccfd790fdc79f47cf3acbb2a1ecf28b3bccb67e3719009c1bab260405160405180910390a1565b6060600080600084815260200190815260200160002090506000818054905067ffffffffffffffff811115610b9a57610b99611561565b5b604051908082528060200260200182016040528015610bd357816020015b610bc0611488565b815260200190600190039081610bb85790505b50905060005b8280549050811015610c9d576040518060600160405280848381548110610c0357610c026120bb565b5b9060005260206000209060040201600001548152602001848381548110610c2d57610c2c6120bb565b5b9060005260206000209060040201600101548152602001848381548110610c5757610c566120bb565b5b906000526020600020906004020160020154815250828281518110610c7f57610c7e6120bb565b5b60200260200101819052508080610c9590612119565b915050610bd9565b508092505050919050565b600560149054906101000a900460ff1681565b60606003805480602002602001604051908101604052809291908181526020018280548015610d0957602002820191906000526020600020905b815481526020019060010190808311610cf5575b5050505050905090565b60606000600380549050905060008167ffffffffffffffff811115610d3b57610d3a611561565b5b604051908082528060200260200182016040528015610d7457816020015b610d616114b2565b815260200190600190039081610d595790505b50905060005b82811015610ee557600060038281548110610d9857610d976120bb565b5b90600052602060002001549050600080600083815260200190815260200160002090506000806000805b8480549050811015610e4557811580610dfe575083858281548110610dea57610de96120bb565b5b906000526020600020906004020160030154115b15610e3257848181548110610e1657610e156120bb565b5b9060005260206000209060040201600301549350809250600191505b8080610e3d90612119565b915050610dc2565b506040518060800160405280868152602001858481548110610e6a57610e696120bb565b5b9060005260206000209060040201600101548152602001858481548110610e9457610e936120bb565b5b906000526020600020906004020160020154815260200184815250878781518110610ec257610ec16120bb565b5b602002602001018190525050505050508080610edd90612119565b915050610d7a565b50809250505090565b600560009054906101000a900473ffffffffffffffffffffffffffffffffffffffff1681565b6060806000805b600380549050811015610f7c5760008060038381548110610f3f57610f3e6120bb565b5b906000526020600020015481526020019081526020016000208054905082610f67919061236e565b91508080610f7490612119565b915050610f1b565b5060008167ffffffffffffffff811115610f9957610f98611561565b5b604051908082528060200260200182016040528015610fd257816020015b610fbf611488565b815260200190600190039081610fb75790505b50905060008267ffffffffffffffff811115610ff157610ff0611561565b5b60405190808252806020026020018201604052801561101f5781602001602082028036833780820191505090505b5090506000805b60038054905081101561118f5760008060006003848154811061104c5761104b6120bb565b5b90600052602060002001548152602001908152602001600020905060005b818054905081101561117a576040518060600160405280838381548110611094576110936120bb565b5b90600052602060002090600402016000015481526020018383815481106110be576110bd6120bb565b5b90600052602060002090600402016001015481526020018383815481106110e8576110e76120bb565b5b9060005260206000209060040201600201548152508685815181106111105761110f6120bb565b5b602002602001018190525081818154811061112e5761112d6120bb565b5b906000526020600020906004020160030154858581518110611153576111526120bb565b5b6020026020010181815250508380600101945050808061117290612119565b91505061106a565b5050808061118790612119565b915050611026565b50828295509550505050509091565b6000806111aa8361130d565b9050600081905060006040518060400160405280600c81526020017f426f617264204d656d626572000000000000000000000000000000000000000081525090508051825110156112015760009350505050611308565b60005b8151835161121291906123a2565b81116112ff5760006001905060005b83518110156112d65783818151811061123d5761123c6120bb565b5b602001015160f81c60f81b7effffffffffffffffffffffffffffffffffffffffffffffffffffffffffffff1916858285611277919061236e565b81518110611288576112876120bb565b5b602001015160f81c60f81b7effffffffffffffffffffffffffffffffffffffffffffffffffffffffffffff1916146112c357600091506112d6565b80806112ce90612119565b915050611221565b5080156112eb57600195505050505050611308565b5080806112f790612119565b915050611204565b50600093505050505b919050565b606060005b60208110801561135e5750600060f81b838260208110611335576113346120bb565b5b1a60f81b7effffffffffffffffffffffffffffffffffffffffffffffffffffffffffffff191614155b15611370578080600101915050611312565b60008167ffffffffffffffff81111561138c5761138b611561565b5b6040519080825280601f01601f1916602001820160405280156113be5781602001600182028036833780820191505090505b50905060005b82811015611438578481602081106113df576113de6120bb565b5b1a60f81b8282815181106113f6576113f56120bb565b5b60200101907effffffffffffffffffffffffffffffffffffffffffffffffffffffffffffff1916908160001a905350808061143090612119565b9150506113c4565b508092505050919050565b508054600082559060005260206000209081019061146191906114e3565b50565b50805460008255600402906000526020600020908101906114859190611500565b50565b60405180606001604052806000801916815260200160008019168152602001600080191681525090565b6040518060800160405280600080191681526020016000801916815260200160008019168152602001600081525090565b5b808211156114fc5760008160009055506001016114e4565b5090565b5b808211156115335760008082016000905560018201600090556002820160009055600382016000905550600401611501565b5090565b6000604051905090565b600080fd5b600080fd5b600080fd5b6000601f19601f8301169050919050565b7f4e487b7100000000000000000000000000000000000000000000000000000000600052604160045260246000fd5b61159982611550565b810181811067ffffffffffffffff821117156115b8576115b7611561565b5b80604052505050565b60006115cb611537565b90506115d78282611590565b919050565b600067ffffffffffffffff8211156115f7576115f6611561565b5b602082029050602081019050919050565b600080fd5b6000819050919050565b6116208161160d565b811461162b57600080fd5b50565b60008135905061163d81611617565b92915050565b6000611656611651846115dc565b6115c1565b9050808382526020820190506020840283018581111561167957611678611608565b5b835b818110156116a2578061168e888261162e565b84526020840193505060208101905061167b565b5050509392505050565b600082601f8301126116c1576116c061154b565b5b81356116d1848260208601611643565b91505092915050565b600067ffffffffffffffff8211156116f5576116f4611561565b5b602082029050602081019050919050565b600067ffffffffffffffff82111561172157611720611561565b5b602082029050602081019050919050565b600080fd5b60006060828403121561174d5761174c611732565b5b61175760606115c1565b905060006117678482850161162e565b600083015250602061177b8482850161162e565b602083015250604061178f8482850161162e565b60408301525092915050565b60006117ae6117a984611706565b6115c1565b905080838252602082019050606084028301858111156117d1576117d0611608565b5b835b818110156117fa57806117e68882611737565b8452602084019350506060810190506117d3565b5050509392505050565b600082601f8301126118195761181861154b565b5b813561182984826020860161179b565b91505092915050565b6000611845611840846116da565b6115c1565b9050808382526020820190506020840283018581111561186857611867611608565b5b835b818110156118af57803567ffffffffffffffff81111561188d5761188c61154b565b5b80860161189a8982611804565b8552602085019450505060208101905061186a565b5050509392505050565b600082601f8301126118ce576118cd61154b565b5b81356118de848260208601611832565b91505092915050565b600080600060608486031215611900576118ff611541565b5b600084013567ffffffffffffffff81111561191e5761191d611546565b5b61192a868287016116ac565b935050602084013567ffffffffffffffff81111561194b5761194a611546565b5b611957868287016118b9565b925050604084013567ffffffffffffffff81111561197857611977611546565b5b611984868287016116ac565b9150509250925092565b6000806000606084860312156119a7576119a6611541565b5b600084013567ffffffffffffffff8111156119c5576119c4611546565b5b6119d1868287016116ac565b935050602084013567ffffffffffffffff8111156119f2576119f1611546565b5b6119fe868287016116ac565b9250506040611a0f8682870161162e565b9150509250925092565b600060208284031215611a2f57611a2e611541565b5b6000611a3d8482850161162e565b91505092915050565b611a4f8161160d565b82525050565b6000602082019050611a6a6000830184611a46565b92915050565b6000819050919050565b611a8381611a70565b8114611a8e57600080fd5b50565b600081359050611aa081611a7a565b92915050565b60008060408385031215611abd57611abc611541565b5b6000611acb8582860161162e565b9250506020611adc85828601611a91565b9150509250929050565b600081519050919050565b600082825260208201905092915050565b6000819050602082019050919050565b611b1b8161160d565b82525050565b6000611b2d8383611b12565b60208301905092915050565b6000602082019050919050565b6000611b5182611ae6565b611b5b8185611af1565b9350611b6683611b02565b8060005b83811015611b97578151611b7e8882611b21565b9750611b8983611b39565b925050600181019050611b6a565b5085935050505092915050565b60006020820190508181036000830152611bbe8184611b46565b905092915050565b600081519050919050565b600082825260208201905092915050565b6000819050602082019050919050565b606082016000820151611c086000850182611b12565b506020820151611c1b6020850182611b12565b506040820151611c2e6040850182611b12565b50505050565b6000611c408383611bf2565b60608301905092915050565b6000602082019050919050565b6000611c6482611bc6565b611c6e8185611bd1565b9350611c7983611be2565b8060005b83811015611caa578151611c918882611c34565b9750611c9c83611c4c565b925050600181019050611c7d565b5085935050505092915050565b60006020820190508181036000830152611cd18184611c59565b905092915050565b60008115159050919050565b611cee81611cd9565b82525050565b6000602082019050611d096000830184611ce5565b92915050565b600081519050919050565b600082825260208201905092915050565b6000819050602082019050919050565b611d4481611a70565b82525050565b608082016000820151611d606000850182611b12565b506020820151611d736020850182611b12565b506040820151611d866040850182611b12565b506060820151611d996060850182611d3b565b50505050565b6000611dab8383611d4a565b60808301905092915050565b6000602082019050919050565b6000611dcf82611d0f565b611dd98185611d1a565b9350611de483611d2b565b8060005b83811015611e15578151611dfc8882611d9f565b9750611e0783611db7565b925050600181019050611de8565b5085935050505092915050565b60006020820190508181036000830152611e3c8184611dc4565b905092915050565b600073ffffffffffffffffffffffffffffffffffffffff82169050919050565b6000611e6f82611e44565b9050919050565b611e7f81611e64565b82525050565b6000602082019050611e9a6000830184611e76565b92915050565b600081519050919050565b600082825260208201905092915050565b6000819050602082019050919050565b6000611ed88383611d3b565b60208301905092915050565b6000602082019050919050565b6000611efc82611ea0565b611f068185611eab565b9350611f1183611ebc565b8060005b83811015611f42578151611f298882611ecc565b9750611f3483611ee4565b925050600181019050611f15565b5085935050505092915050565b60006040820190508181036000830152611f698185611c59565b90508181036020830152611f7d8184611ef1565b90509392505050565b600082825260208201905092915050565b7f4f6e6c792061646d696e2063616e20706572666f726d2074686973206163746960008201527f6f6e000000000000000000000000000000000000000000000000000000000000602082015250565b6000611ff3602283611f86565b9150611ffe82611f97565b604082019050919050565b6000602082019050818103600083015261202281611fe6565b9050919050565b7f43616e646964617465732061726520616c72656164792066696e616c697a656460008201527f2100000000000000000000000000000000000000000000000000000000000000602082015250565b6000612085602183611f86565b915061209082612029565b604082019050919050565b600060208201905081810360008301526120b481612078565b9050919050565b7f4e487b7100000000000000000000000000000000000000000000000000000000600052603260045260246000fd5b7f4e487b7100000000000000000000000000000000000000000000000000000000600052601160045260246000fd5b600061212482611a70565b91507fffffffffffffffffffffffffffffffffffffffffffffffffffffffffffffffff8203612156576121556120ea565b5b600182019050919050565b7f566f74696e672063616e6e6f7420737461727420756e74696c2063616e64696460008201527f61746573206172652066696e616c697a65642100000000000000000000000000602082015250565b60006121bd603383611f86565b91506121c882612161565b604082019050919050565b600060208201905081810360008301526121ec816121b0565b9050919050565b7f4d69736d61746368656420696e707574206c656e677468730000000000000000600082015250565b6000612229601883611f86565b9150612234826121f3565b602082019050919050565b600060208201905081810360008301526122588161221c565b9050919050565b7f566f7465722068617320616c726561647920766f746564000000000000000000600082015250565b6000612295601783611f86565b91506122a08261225f565b602082019050919050565b600060208201905081810360008301526122c481612288565b9050919050565b7f496e76616c69642063616e646964617465206964000000000000000000000000600082015250565b6000612301601483611f86565b915061230c826122cb565b602082019050919050565b60006020820190508181036000830152612330816122f4565b9050919050565b600060608201905061234c6000830186611a46565b6123596020830185611a46565b6123666040830184611a46565b949350505050565b600061237982611a70565b915061238483611a70565b925082820190508082111561239c5761239b6120ea565b5b92915050565b60006123ad82611a70565b91506123b883611a70565b92508282039050818111156123d0576123cf6120ea565b5b9291505056fea2646970667358221220f96ff35815f2b52226f87cb7045f845995d88778e09cb600c146ffd7c3f2342b64736f6c63430008150033",
  "linkReferences": {},
  "deployedLinkReferences": {}
}