{
  "_format": "hh-sol-artifact-1",
  "contractName": "AdminCandidates",
  "sourceName": "contracts/AdminCandidates.sol",
  "abi": [
    {
      "inputs": [],
      "stateMutability": "nonpayable",
      "type": "constructor"
    },
    {
      "anonymous": false,
      "inputs": [],
      "name": "CandidatesSubmitted",
      "type": "event"
    },
    {
      "inputs": [],
      "name": "admin",
      "outputs": [
        {
          "internalType": "address",
          "name": "",
          "type": "address"
        }
      ],
      "stateMutability": "view",
      "type": "function"
    },
    {
      "inputs": [
        {
          "internalType": "string",
          "name": "_position",
          "type": "string"
        }
      ],
      "name": "getCandidates",
      "outputs": [
        {
          "components": [
            {
              "internalType": "string",
              "name": "name",
              "type": "string"
            },
            {
              "internalType": "string",
              "name": "party",
              "type": "string"
            },
            {
              "internalType": "string",
              "name": "position",
              "type": "string"
            }
          ],
          "internalType": "struct AdminCandidates.Candidate[]",
          "name": "",
          "type": "tuple[]"
        }
      ],
      "stateMutability": "view",
      "type": "function"
    },
    {
      "inputs": [],
      "name": "isFinalized",
      "outputs": [
        {
          "internalType": "bool",
          "name": "",
          "type": "bool"
        }
      ],
      "stateMutability": "view",
      "type": "function"
    },
    {
      "inputs": [],
      "name": "resetCandidates",
      "outputs": [],
      "stateMutability": "nonpayable",
      "type": "function"
    },
    {
      "inputs": [
        {
          "internalType": "string[]",
          "name": "_positions",
          "type": "string[]"
        },
        {
          "internalType": "string[][]",
          "name": "_names",
          "type": "string[][]"
        },
        {
          "internalType": "string[][]",
          "name": "_parties",
          "type": "string[][]"
        }
      ],
      "name": "submitCandidates",
      "outputs": [],
      "stateMutability": "nonpayable",
      "type": "function"
    }
  ],
  "bytecode": "0x60806040526000600260146101000a81548160ff02191690831515021790555034801561002b57600080fd5b5033600260006101000a81548173ffffffffffffffffffffffffffffffffffffffff021916908373ffffffffffffffffffffffffffffffffffffffff1602179055506115838061007c6000396000f3fe608060405234801561001057600080fd5b50600436106100575760003560e01c8063455347631461005c5780637718d9f31461008c5780638d4e40831461009657806395dbea06146100b4578063f851a440146100d0575b600080fd5b61007660048036038101906100719190610a93565b6100ee565b6040516100839190610c7b565b60405180910390f35b610094610321565b005b61009e610447565b6040516100ab9190610cb8565b60405180910390f35b6100ce60048036038101906100c99190610e9a565b61045a565b005b6100d8610806565b6040516100e59190610f82565b60405180910390f35b60606000826040516101009190610fd9565b9081526020016040518091039020805480602002602001604051908101604052809291908181526020016000905b8282101561031657838290600052602060002090600302016040518060600160405290816000820180546101619061101f565b80601f016020809104026020016040519081016040528092919081815260200182805461018d9061101f565b80156101da5780601f106101af576101008083540402835291602001916101da565b820191906000526020600020905b8154815290600101906020018083116101bd57829003601f168201915b505050505081526020016001820180546101f39061101f565b80601f016020809104026020016040519081016040528092919081815260200182805461021f9061101f565b801561026c5780601f106102415761010080835404028352916020019161026c565b820191906000526020600020905b81548152906001019060200180831161024f57829003601f168201915b505050505081526020016002820180546102859061101f565b80601f01602080910402602001604051908101604052809291908181526020018280546102b19061101f565b80156102fe5780601f106102d3576101008083540402835291602001916102fe565b820191906000526020600020905b8154815290600101906020018083116102e157829003601f168201915b5050505050815250508152602001906001019061012e565b505050509050919050565b600260009054906101000a900473ffffffffffffffffffffffffffffffffffffffff1673ffffffffffffffffffffffffffffffffffffffff163373ffffffffffffffffffffffffffffffffffffffff16146103b1576040517f08c379a00000000000000000000000000000000000000000000000000000000081526004016103a8906110d3565b60405180910390fd5b60005b60018054905081101561041b576000600182815481106103d7576103d66110f3565b5b906000526020600020016040516103ee91906111ba565b90815260200160405180910390206000610408919061082c565b80806104139061120a565b9150506103b4565b506001600061042a9190610850565b6000600260146101000a81548160ff021916908315150217905550565b600260149054906101000a900460ff1681565b600260009054906101000a900473ffffffffffffffffffffffffffffffffffffffff1673ffffffffffffffffffffffffffffffffffffffff163373ffffffffffffffffffffffffffffffffffffffff16146104ea576040517f08c379a00000000000000000000000000000000000000000000000000000000081526004016104e1906110d3565b60405180910390fd5b600260149054906101000a900460ff161561053a576040517f08c379a0000000000000000000000000000000000000000000000000000000008152600401610531906112c4565b60405180910390fd5b600160006105489190610850565b60005b83518110156107b95760008085838151811061056a576105696110f3565b5b602002602001015160405161057f9190610fd9565b908152602001604051809103902080549050036105e65760018482815181106105ab576105aa6110f3565b5b60200260200101519080600181540180825580915050600190039060005260206000200160009091909190915090816105e4919061147b565b505b60008482815181106105fb576105fa6110f3565b5b60200260200101516040516106109190610fd9565b9081526020016040518091039020600061062a919061082c565b60005b8382815181106106405761063f6110f3565b5b6020026020010151518110156107a5576000858381518110610665576106646110f3565b5b602002602001015160405161067a9190610fd9565b908152602001604051809103902060405180606001604052808685815181106106a6576106a56110f3565b5b602002602001015184815181106106c0576106bf6110f3565b5b602002602001015181526020018585815181106106e0576106df6110f3565b5b602002602001015184815181106106fa576106f96110f3565b5b6020026020010151815260200187858151811061071a576107196110f3565b5b602002602001015181525090806001815401808255809150506001900390600052602060002090600302016000909190919091506000820151816000019081610763919061147b565b506020820151816001019081610779919061147b565b50604082015181600201908161078f919061147b565b505050808061079d9061120a565b91505061062d565b5080806107b19061120a565b91505061054b565b506001600260146101000a81548160ff0219169083151502179055507f86825b43264ca968e676c45c8e05cc56965ff5938ed49dcf636c61acb7070bd760405160405180910390a1505050565b600260009054906101000a900473ffffffffffffffffffffffffffffffffffffffff1681565b508054600082556003029060005260206000209081019061084d9190610871565b50565b508054600082559060005260206000209081019061086e91906108b8565b50565b5b808211156108b4576000808201600061088b91906108dc565b60018201600061089b91906108dc565b6002820160006108ab91906108dc565b50600301610872565b5090565b5b808211156108d857600081816108cf91906108dc565b506001016108b9565b5090565b5080546108e89061101f565b6000825580601f106108fa5750610919565b601f016020900490600052602060002090810190610918919061091c565b5b50565b5b8082111561093557600081600090555060010161091d565b5090565b6000604051905090565b600080fd5b600080fd5b600080fd5b600080fd5b6000601f19601f8301169050919050565b7f4e487b7100000000000000000000000000000000000000000000000000000000600052604160045260246000fd5b6109a082610957565b810181811067ffffffffffffffff821117156109bf576109be610968565b5b80604052505050565b60006109d2610939565b90506109de8282610997565b919050565b600067ffffffffffffffff8211156109fe576109fd610968565b5b610a0782610957565b9050602081019050919050565b82818337600083830152505050565b6000610a36610a31846109e3565b6109c8565b905082815260208101848484011115610a5257610a51610952565b5b610a5d848285610a14565b509392505050565b600082601f830112610a7a57610a7961094d565b5b8135610a8a848260208601610a23565b91505092915050565b600060208284031215610aa957610aa8610943565b5b600082013567ffffffffffffffff811115610ac757610ac6610948565b5b610ad384828501610a65565b91505092915050565b600081519050919050565b600082825260208201905092915050565b6000819050602082019050919050565b600081519050919050565b600082825260208201905092915050565b60005b83811015610b42578082015181840152602081019050610b27565b60008484015250505050565b6000610b5982610b08565b610b638185610b13565b9350610b73818560208601610b24565b610b7c81610957565b840191505092915050565b60006060830160008301518482036000860152610ba48282610b4e565b91505060208301518482036020860152610bbe8282610b4e565b91505060408301518482036040860152610bd88282610b4e565b9150508091505092915050565b6000610bf18383610b87565b905092915050565b6000602082019050919050565b6000610c1182610adc565b610c1b8185610ae7565b935083602082028501610c2d85610af8565b8060005b85811015610c695784840389528151610c4a8582610be5565b9450610c5583610bf9565b925060208a01995050600181019050610c31565b50829750879550505050505092915050565b60006020820190508181036000830152610c958184610c06565b905092915050565b60008115159050919050565b610cb281610c9d565b82525050565b6000602082019050610ccd6000830184610ca9565b92915050565b600067ffffffffffffffff821115610cee57610ced610968565b5b602082029050602081019050919050565b600080fd5b6000610d17610d1284610cd3565b6109c8565b90508083825260208201905060208402830185811115610d3a57610d39610cff565b5b835b81811015610d8157803567ffffffffffffffff811115610d5f57610d5e61094d565b5b808601610d6c8982610a65565b85526020850194505050602081019050610d3c565b5050509392505050565b600082601f830112610da057610d9f61094d565b5b8135610db0848260208601610d04565b91505092915050565b600067ffffffffffffffff821115610dd457610dd3610968565b5b602082029050602081019050919050565b6000610df8610df384610db9565b6109c8565b90508083825260208201905060208402830185811115610e1b57610e1a610cff565b5b835b81811015610e6257803567ffffffffffffffff811115610e4057610e3f61094d565b5b808601610e4d8982610d8b565b85526020850194505050602081019050610e1d565b5050509392505050565b600082601f830112610e8157610e8061094d565b5b8135610e91848260208601610de5565b91505092915050565b600080600060608486031215610eb357610eb2610943565b5b600084013567ffffffffffffffff811115610ed157610ed0610948565b5b610edd86828701610d8b565b935050602084013567ffffffffffffffff811115610efe57610efd610948565b5b610f0a86828701610e6c565b925050604084013567ffffffffffffffff811115610f2b57610f2a610948565b5b610f3786828701610e6c565b9150509250925092565b600073ffffffffffffffffffffffffffffffffffffffff82169050919050565b6000610f6c82610f41565b9050919050565b610f7c81610f61565b82525050565b6000602082019050610f976000830184610f73565b92915050565b600081905092915050565b6000610fb382610b08565b610fbd8185610f9d565b9350610fcd818560208601610b24565b80840191505092915050565b6000610fe58284610fa8565b915081905092915050565b7f4e487b7100000000000000000000000000000000000000000000000000000000600052602260045260246000fd5b6000600282049050600182168061103757607f821691505b60208210810361104a57611049610ff0565b5b50919050565b600082825260208201905092915050565b7f4f6e6c792061646d696e2063616e20706572666f726d2074686973206163746960008201527f6f6e000000000000000000000000000000000000000000000000000000000000602082015250565b60006110bd602283611050565b91506110c882611061565b604082019050919050565b600060208201905081810360008301526110ec816110b0565b9050919050565b7f4e487b7100000000000000000000000000000000000000000000000000000000600052603260045260246000fd5b60008190508160005260206000209050919050565b600081546111448161101f565b61114e8186610f9d565b94506001821660008114611169576001811461117e576111b1565b60ff19831686528115158202860193506111b1565b61118785611122565b60005b838110156111a95781548189015260018201915060208101905061118a565b838801955050505b50505092915050565b60006111c68284611137565b915081905092915050565b7f4e487b7100000000000000000000000000000000000000000000000000000000600052601160045260246000fd5b6000819050919050565b600061121582611200565b91507fffffffffffffffffffffffffffffffffffffffffffffffffffffffffffffffff8203611247576112466111d1565b5b600182019050919050565b7f43616e646964617465732061726520616c72656164792066696e616c697a656460008201527f2100000000000000000000000000000000000000000000000000000000000000602082015250565b60006112ae602183611050565b91506112b982611252565b604082019050919050565b600060208201905081810360008301526112dd816112a1565b9050919050565b60006020601f8301049050919050565b600082821b905092915050565b6000600883026113317fffffffffffffffffffffffffffffffffffffffffffffffffffffffffffffffff826112f4565b61133b86836112f4565b95508019841693508086168417925050509392505050565b6000819050919050565b600061137861137361136e84611200565b611353565b611200565b9050919050565b6000819050919050565b6113928361135d565b6113a661139e8261137f565b848454611301565b825550505050565b600090565b6113bb6113ae565b6113c6818484611389565b505050565b5b818110156113ea576113df6000826113b3565b6001810190506113cc565b5050565b601f82111561142f5761140081611122565b611409846112e4565b81016020851015611418578190505b61142c611424856112e4565b8301826113cb565b50505b505050565b600082821c905092915050565b600061145260001984600802611434565b1980831691505092915050565b600061146b8383611441565b9150826002028217905092915050565b61148482610b08565b67ffffffffffffffff81111561149d5761149c610968565b5b6114a7825461101f565b6114b28282856113ee565b600060209050601f8311600181146114e557600084156114d3578287015190505b6114dd858261145f565b865550611545565b601f1984166114f386611122565b60005b8281101561151b578489015182556001820191506020850194506020810190506114f6565b868310156115385784890151611534601f891682611441565b8355505b6001600288020188555050505b50505050505056fea26469706673582212207772a7b7dc05efd6cf5e5d759aaf0d55e2aea74593a6a02cec024ce52d5ab73164736f6c63430008150033",
  "linkReferences": {},
  "deployedLinkReferences": {}
}