{
  "_format": "hh-sol-artifact-1",
  "contractName": "AdminCandidates",
  "sourceName": "contracts/AdminCandidates.sol",
  "abi": [
    {
      "anonymous": false,
      "inputs": [
        {
          "indexed": false,
          "internalType": "bytes32",
          "name": "candidateId",
          "type": "bytes32"
        }
      ],
      "name": "CandidateRegistered",
      "type": "event"
    },
    {
      "anonymous": false,
      "inputs": [
        {
          "indexed": false,
          "internalType": "bytes32",
          "name": "candidateId",
          "type": "bytes32"
        },
        {
          "indexed": false,
          "internalType": "uint256",
          "name": "newVoteCount",
          "type": "uint256"
        }
      ],
      "name": "VoteCasted",
      "type": "event"
    },
    {
      "inputs": [
        {
          "internalType": "uint256",
          "name": "",
          "type": "uint256"
        }
      ],
      "name": "candidateList",
      "outputs": [
        {
          "internalType": "bytes32",
          "name": "",
          "type": "bytes32"
        }
      ],
      "stateMutability": "view",
      "type": "function"
    },
    {
      "inputs": [
        {
          "internalType": "bytes32",
          "name": "",
          "type": "bytes32"
        }
      ],
      "name": "candidateVotes",
      "outputs": [
        {
          "internalType": "uint256",
          "name": "",
          "type": "uint256"
        }
      ],
      "stateMutability": "view",
      "type": "function"
    },
    {
      "inputs": [],
      "name": "getCandidateCount",
      "outputs": [
        {
          "internalType": "uint256",
          "name": "",
          "type": "uint256"
        }
      ],
      "stateMutability": "view",
      "type": "function"
    },
    {
      "inputs": [],
      "name": "getCandidateDetails",
      "outputs": [
        {
          "internalType": "bytes32[]",
          "name": "",
          "type": "bytes32[]"
        },
        {
          "internalType": "uint256[]",
          "name": "",
          "type": "uint256[]"
        }
      ],
      "stateMutability": "view",
      "type": "function"
    },
    {
      "inputs": [
        {
          "internalType": "bytes32",
          "name": "",
          "type": "bytes32"
        }
      ],
      "name": "isRegistered",
      "outputs": [
        {
          "internalType": "bool",
          "name": "",
          "type": "bool"
        }
      ],
      "stateMutability": "view",
      "type": "function"
    },
    {
      "inputs": [
        {
          "internalType": "bytes32[]",
          "name": "candidateIds",
          "type": "bytes32[]"
        }
      ],
      "name": "registerCandidates",
      "outputs": [],
      "stateMutability": "nonpayable",
      "type": "function"
    },
    {
      "inputs": [
        {
          "internalType": "bytes32[]",
          "name": "candidateIds",
          "type": "bytes32[]"
        }
      ],
      "name": "voteForCandidates",
      "outputs": [],
      "stateMutability": "nonpayable",
      "type": "function"
    }
  ],
  "bytecode": "0x608060405234801561001057600080fd5b50610ab0806100206000396000f3fe608060405234801561001057600080fd5b506004361061007d5760003560e01c80635a2608761161005b5780635a26087614610100578063af6cb7551461011f578063b13c744b1461013b578063e17b240a1461016b5761007d565b806327258b22146100825780632f1fdc2a146100b257806330a56347146100e2575b600080fd5b61009c60048036038101906100979190610580565b610187565b6040516100a991906105c8565b60405180910390f35b6100cc60048036038101906100c79190610580565b6101a7565b6040516100d991906105fc565b60405180910390f35b6100ea6101bf565b6040516100f791906105fc565b60405180910390f35b6101086101cc565b604051610116929190610793565b60405180910390f35b6101396004803603810190610134919061082f565b6102f5565b005b610155600480360381019061015091906108a8565b610403565b60405161016291906108e4565b60405180910390f35b6101856004803603810190610180919061082f565b610427565b005b60006020528060005260406000206000915054906101000a900460ff1681565b60016020528060005260406000206000915090505481565b6000600280549050905090565b6060806000600280549050905060008167ffffffffffffffff8111156101f5576101f46108ff565b5b6040519080825280602002602001820160405280156102235781602001602082028036833780820191505090505b50905060005b828110156102955760016000600283815481106102495761024861092e565b5b90600052602060002001548152602001908152602001600020548282815181106102765761027561092e565b5b602002602001018181525050808061028d9061098c565b915050610229565b50600281818054806020026020016040519081016040528092919081815260200182805480156102e457602002820191906000526020600020905b8154815260200190600101908083116102d0575b505050505091509350935050509091565b60005b828290508110156103fe5760008383838181106103185761031761092e565b5b90506020020135905060008082815260200190815260200160002060009054906101000a900460ff166103ea57600160008083815260200190815260200160002060006101000a81548160ff0219169083151502179055506000600160008381526020019081526020016000208190555060028190806001815401808255809150506001900390600052602060002001600090919091909150557ff6a6be64dd96964e37d70b178d6036e4cdbb7959eeab696bf22f270225145db2816040516103e191906108e4565b60405180910390a15b5080806103f69061098c565b9150506102f8565b505050565b6002818154811061041357600080fd5b906000526020600020016000915090505481565b60005b8282905081101561053b57600083838381811061044a5761044961092e565b5b90506020020135905060008082815260200190815260200160002060009054906101000a900460ff166104b2576040517f08c379a00000000000000000000000000000000000000000000000000000000081526004016104a990610a31565b60405180910390fd5b6001600082815260200190815260200160002060008154809291906104d69061098c565b91905055507fbf8e3be76511fbc133be248f8ea28794eaaec7574547d2ce1a374f36a1674aa281600160008481526020019081526020016000205460405161051f929190610a51565b60405180910390a15080806105339061098c565b91505061042a565b505050565b600080fd5b600080fd5b6000819050919050565b61055d8161054a565b811461056857600080fd5b50565b60008135905061057a81610554565b92915050565b60006020828403121561059657610595610540565b5b60006105a48482850161056b565b91505092915050565b60008115159050919050565b6105c2816105ad565b82525050565b60006020820190506105dd60008301846105b9565b92915050565b6000819050919050565b6105f6816105e3565b82525050565b600060208201905061061160008301846105ed565b92915050565b600081519050919050565b600082825260208201905092915050565b6000819050602082019050919050565b61064c8161054a565b82525050565b600061065e8383610643565b60208301905092915050565b6000602082019050919050565b600061068282610617565b61068c8185610622565b935061069783610633565b8060005b838110156106c85781516106af8882610652565b97506106ba8361066a565b92505060018101905061069b565b5085935050505092915050565b600081519050919050565b600082825260208201905092915050565b6000819050602082019050919050565b61070a816105e3565b82525050565b600061071c8383610701565b60208301905092915050565b6000602082019050919050565b6000610740826106d5565b61074a81856106e0565b9350610755836106f1565b8060005b8381101561078657815161076d8882610710565b975061077883610728565b925050600181019050610759565b5085935050505092915050565b600060408201905081810360008301526107ad8185610677565b905081810360208301526107c18184610735565b90509392505050565b600080fd5b600080fd5b600080fd5b60008083601f8401126107ef576107ee6107ca565b5b8235905067ffffffffffffffff81111561080c5761080b6107cf565b5b602083019150836020820283011115610828576108276107d4565b5b9250929050565b6000806020838503121561084657610845610540565b5b600083013567ffffffffffffffff81111561086457610863610545565b5b610870858286016107d9565b92509250509250929050565b610885816105e3565b811461089057600080fd5b50565b6000813590506108a28161087c565b92915050565b6000602082840312156108be576108bd610540565b5b60006108cc84828501610893565b91505092915050565b6108de8161054a565b82525050565b60006020820190506108f960008301846108d5565b92915050565b7f4e487b7100000000000000000000000000000000000000000000000000000000600052604160045260246000fd5b7f4e487b7100000000000000000000000000000000000000000000000000000000600052603260045260246000fd5b7f4e487b7100000000000000000000000000000000000000000000000000000000600052601160045260246000fd5b6000610997826105e3565b91507fffffffffffffffffffffffffffffffffffffffffffffffffffffffffffffffff82036109c9576109c861095d565b5b600182019050919050565b600082825260208201905092915050565b7f43616e646964617465206e6f7420726567697374657265640000000000000000600082015250565b6000610a1b6018836109d4565b9150610a26826109e5565b602082019050919050565b60006020820190508181036000830152610a4a81610a0e565b9050919050565b6000604082019050610a6660008301856108d5565b610a7360208301846105ed565b939250505056fea2646970667358221220c5089c1b89e63276aa830c633400f5068e8c14100285f842785a44ae400ec6b564736f6c63430008150033",
  "linkReferences": {},
  "deployedLinkReferences": {}
}