{
  "_format": "hh-sol-artifact-1",
  "contractName": "AdminCandidates",
  "sourceName": "contracts/AdminCandidates.sol",
  "abi": [
    {
      "inputs": [],
      "stateMutability": "nonpayable",
      "type": "constructor"
    },
    {
      "anonymous": false,
      "inputs": [],
      "name": "CandidatesReset",
      "type": "event"
    },
    {
      "anonymous": false,
      "inputs": [],
      "name": "CandidatesSubmitted",
      "type": "event"
    },
    {
      "anonymous": false,
      "inputs": [
        {
          "indexed": false,
          "internalType": "bytes32",
          "name": "position",
          "type": "bytes32"
        },
        {
          "indexed": false,
          "internalType": "bytes32",
          "name": "name",
          "type": "bytes32"
        },
        {
          "indexed": false,
          "internalType": "bytes32",
          "name": "voterHash",
          "type": "bytes32"
        }
      ],
      "name": "VoteSubmitted",
      "type": "event"
    },
    {
      "inputs": [],
      "name": "admin",
      "outputs": [
        {
          "internalType": "address",
          "name": "",
          "type": "address"
        }
      ],
      "stateMutability": "view",
      "type": "function"
    },
    {
      "inputs": [
        {
          "internalType": "bytes32[]",
          "name": "_positions",
          "type": "bytes32[]"
        },
        {
          "internalType": "uint256[]",
          "name": "_indices",
          "type": "uint256[]"
        },
        {
          "internalType": "bytes32",
          "name": "_voterHash",
          "type": "bytes32"
        }
      ],
      "name": "batchVote",
      "outputs": [],
      "stateMutability": "nonpayable",
      "type": "function"
    },
    {
      "inputs": [
        {
          "internalType": "bytes32",
          "name": "",
          "type": "bytes32"
        }
      ],
      "name": "boardMemberInfo",
      "outputs": [
        {
          "internalType": "bytes32",
          "name": "programPart1",
          "type": "bytes32"
        },
        {
          "internalType": "bytes32",
          "name": "programPart2",
          "type": "bytes32"
        }
      ],
      "stateMutability": "view",
      "type": "function"
    },
    {
      "inputs": [
        {
          "internalType": "bytes32",
          "name": "_position",
          "type": "bytes32"
        }
      ],
      "name": "getCandidates",
      "outputs": [
        {
          "components": [
            {
              "internalType": "bytes32",
              "name": "name",
              "type": "bytes32"
            },
            {
              "internalType": "bytes32",
              "name": "party",
              "type": "bytes32"
            }
          ],
          "internalType": "struct AdminCandidates.CandidateEntry[]",
          "name": "",
          "type": "tuple[]"
        }
      ],
      "stateMutability": "view",
      "type": "function"
    },
    {
      "inputs": [],
      "name": "getPositionList",
      "outputs": [
        {
          "internalType": "bytes32[]",
          "name": "",
          "type": "bytes32[]"
        }
      ],
      "stateMutability": "view",
      "type": "function"
    },
    {
      "inputs": [],
      "name": "getVoteCounts",
      "outputs": [
        {
          "components": [
            {
              "internalType": "bytes32",
              "name": "name",
              "type": "bytes32"
            },
            {
              "internalType": "bytes32",
              "name": "party",
              "type": "bytes32"
            }
          ],
          "internalType": "struct AdminCandidates.CandidateEntry[]",
          "name": "",
          "type": "tuple[]"
        },
        {
          "internalType": "uint256[]",
          "name": "",
          "type": "uint256[]"
        }
      ],
      "stateMutability": "view",
      "type": "function"
    },
    {
      "inputs": [
        {
          "internalType": "bytes32",
          "name": "_position",
          "type": "bytes32"
        },
        {
          "internalType": "uint256",
          "name": "_index",
          "type": "uint256"
        }
      ],
      "name": "getVoterHashes",
      "outputs": [
        {
          "internalType": "bytes32[]",
          "name": "",
          "type": "bytes32[]"
        }
      ],
      "stateMutability": "view",
      "type": "function"
    },
    {
      "inputs": [],
      "name": "getWinners",
      "outputs": [
        {
          "components": [
            {
              "internalType": "bytes32",
              "name": "position",
              "type": "bytes32"
            },
            {
              "internalType": "bytes32",
              "name": "name",
              "type": "bytes32"
            },
            {
              "internalType": "bytes32",
              "name": "party",
              "type": "bytes32"
            },
            {
              "internalType": "uint256",
              "name": "votes",
              "type": "uint256"
            }
          ],
          "internalType": "struct AdminCandidates.Winner[]",
          "name": "",
          "type": "tuple[]"
        }
      ],
      "stateMutability": "view",
      "type": "function"
    },
    {
      "inputs": [],
      "name": "isFinalized",
      "outputs": [
        {
          "internalType": "bool",
          "name": "",
          "type": "bool"
        }
      ],
      "stateMutability": "view",
      "type": "function"
    },
    {
      "inputs": [],
      "name": "resetCandidates",
      "outputs": [],
      "stateMutability": "nonpayable",
      "type": "function"
    },
    {
      "inputs": [
        {
          "internalType": "bytes32[]",
          "name": "_positions",
          "type": "bytes32[]"
        },
        {
          "components": [
            {
              "internalType": "bytes32",
              "name": "name",
              "type": "bytes32"
            },
            {
              "internalType": "bytes32",
              "name": "party",
              "type": "bytes32"
            }
          ],
          "internalType": "struct AdminCandidates.CandidateEntry[][]",
          "name": "_candidates",
          "type": "tuple[][]"
        },
        {
          "internalType": "bytes32[]",
          "name": "_boardMemberProgramsPart1",
          "type": "bytes32[]"
        },
        {
          "internalType": "bytes32[]",
          "name": "_boardMemberProgramsPart2",
          "type": "bytes32[]"
        }
      ],
      "name": "submitCandidates",
      "outputs": [],
      "stateMutability": "nonpayable",
      "type": "function"
    }
  ],
  "bytecode": "0x60806040526000600560146101000a81548160ff02191690831515021790555034801561002b57600080fd5b5033600560006101000a81548173ffffffffffffffffffffffffffffffffffffffff021916908373ffffffffffffffffffffffffffffffffffffffff16021790555061242a8061007c6000396000f3fe608060405234801561001057600080fd5b50600436106100a95760003560e01c8063aaad92ac11610071578063aaad92ac14610154578063df15c37e14610170578063e64e84831461018e578063e7d8e8ad146101bf578063f851a440146101db578063ffc97b20146101f9576100a9565b806370918ce3146100ae5780637718d9f3146100de57806385b923ca146100e85780638d4e408314610118578063a5d3157e14610136575b600080fd5b6100c860048036038101906100c391906114fb565b610218565b6040516100d591906115f9565b60405180910390f35b6100e6610295565b005b61010260048036038101906100fd919061161b565b6103e2565b60405161010f9190611726565b60405180910390f35b6101206104fe565b60405161012d9190611763565b60405180910390f35b61013e610511565b60405161014b91906115f9565b60405180910390f35b61016e60048036038101906101699190611ad0565b610569565b005b6101786109b2565b6040516101859190611cba565b60405180910390f35b6101a860048036038101906101a3919061161b565b610b8d565b6040516101b6929190611ceb565b60405180910390f35b6101d960048036038101906101d49190611dd7565b610bb1565b005b6101e3610e93565b6040516101f09190611ea3565b60405180910390f35b610201610eb9565b60405161020f929190611f6d565b60405180910390f35b606060016000848152602001908152602001600020600083815260200190815260200160002080548060200260200160405190810160405280929190818152602001828054801561028857602002820191906000526020600020905b815481526020019060010190808311610274575b5050505050905092915050565b600560009054906101000a900473ffffffffffffffffffffffffffffffffffffffff1673ffffffffffffffffffffffffffffffffffffffff163373ffffffffffffffffffffffffffffffffffffffff1614610325576040517f08c379a000000000000000000000000000000000000000000000000000000000815260040161031c90612027565b60405180910390fd5b60005b60038054905081101561038a5760006003828154811061034b5761034a612047565b5b9060005260206000200154905060008082815260200190815260200160002060006103769190611399565b508080610382906120a5565b915050610328565b506003600061039991906113bd565b6000600560146101000a81548160ff0219169083151502179055507f800bdaa40887ccfd790fdc79f47cf3acbb2a1ecf28b3bccb67e3719009c1bab260405160405180910390a1565b6060600080600084815260200190815260200160002090506000818054905067ffffffffffffffff81111561041a57610419611794565b5b60405190808252806020026020018201604052801561045357816020015b6104406113de565b8152602001906001900390816104385790505b50905060005b82805490508110156104f357604051806040016040528084838154811061048357610482612047565b5b90600052602060002090600302016000015481526020018483815481106104ad576104ac612047565b5b9060005260206000209060030201600101548152508282815181106104d5576104d4612047565b5b602002602001018190525080806104eb906120a5565b915050610459565b508092505050919050565b600560149054906101000a900460ff1681565b6060600380548060200260200160405190810160405280929190818152602001828054801561055f57602002820191906000526020600020905b81548152602001906001019080831161054b575b5050505050905090565b600560009054906101000a900473ffffffffffffffffffffffffffffffffffffffff1673ffffffffffffffffffffffffffffffffffffffff163373ffffffffffffffffffffffffffffffffffffffff16146105f9576040517f08c379a00000000000000000000000000000000000000000000000000000000081526004016105f090612027565b60405180910390fd5b600560149054906101000a900460ff1615610649576040517f08c379a00000000000000000000000000000000000000000000000000000000081526004016106409061215f565b60405180910390fd5b6003600061065791906113bd565b60005b845181101561096457600080600087848151811061067b5761067a612047565b5b6020026020010151815260200190815260200160002080549050036106de5760038582815181106106af576106ae612047565b5b602002602001015190806001815401808255809150506001900390600052602060002001600090919091909150555b6000808683815181106106f4576106f3612047565b5b6020026020010151815260200190815260200160002060006107169190611399565b60005b84828151811061072c5761072b612047565b5b60200260200101515181101561089a5760008087848151811061075257610751612047565b5b60200260200101518152602001908152602001600020604051806060016040528087858151811061078657610785612047565b5b602002602001015184815181106107a05761079f612047565b5b60200260200101516000015181526020018785815181106107c4576107c3612047565b5b602002602001015184815181106107de576107dd612047565b5b60200260200101516020015181526020016000815250908060018154018082558091505060019003906000526020600020906003020160009091909190915060008201518160000155602082015181600101556040820151816002015550506001600087848151811061085457610853612047565b5b602002602001015181526020019081526020016000206000828152602001908152602001600020600061088791906113bd565b8080610892906120a5565b915050610719565b506108be8582815181106108b1576108b0612047565b5b6020026020010151611123565b156109515760405180604001604052808483815181106108e1576108e0612047565b5b6020026020010151815260200183838151811061090157610900612047565b5b60200260200101518152506004600087848151811061092357610922612047565b5b6020026020010151815260200190815260200160002060008201518160000155602082015181600101559050505b808061095c906120a5565b91505061065a565b506001600560146101000a81548160ff0219169083151502179055507f86825b43264ca968e676c45c8e05cc56965ff5938ed49dcf636c61acb7070bd760405160405180910390a150505050565b60606000600380549050905060008167ffffffffffffffff8111156109da576109d9611794565b5b604051908082528060200260200182016040528015610a1357816020015b610a006113fe565b8152602001906001900390816109f85790505b50905060005b82811015610b8457600060038281548110610a3757610a36612047565b5b90600052602060002001549050600080600083815260200190815260200160002090506000806000805b8480549050811015610ae457811580610a9d575083858281548110610a8957610a88612047565b5b906000526020600020906003020160020154115b15610ad157848181548110610ab557610ab4612047565b5b9060005260206000209060030201600201549350809250600191505b8080610adc906120a5565b915050610a61565b506040518060800160405280868152602001858481548110610b0957610b08612047565b5b9060005260206000209060030201600001548152602001858481548110610b3357610b32612047565b5b906000526020600020906003020160010154815260200184815250878781518110610b6157610b60612047565b5b602002602001018190525050505050508080610b7c906120a5565b915050610a19565b50809250505090565b60046020528060005260406000206000915090508060000154908060010154905082565b600560149054906101000a900460ff16610c00576040517f08c379a0000000000000000000000000000000000000000000000000000000008152600401610bf7906121f1565b60405180910390fd5b8151835114610c44576040517f08c379a0000000000000000000000000000000000000000000000000000000008152600401610c3b9061225d565b60405180910390fd5b6002600082815260200190815260200160002060009054906101000a900460ff1615610ca5576040517f08c379a0000000000000000000000000000000000000000000000000000000008152600401610c9c906122c9565b60405180910390fd5b60016002600083815260200190815260200160002060006101000a81548160ff02191690831515021790555060005b8351811015610e8d576000848281518110610cf257610cf1612047565b5b602002602001015190506000848381518110610d1157610d10612047565b5b60200260200101519050600080838152602001908152602001600020805490508110610d72576040517f08c379a0000000000000000000000000000000000000000000000000000000008152600401610d6990612335565b60405180910390fd5b6000808381526020019081526020016000208181548110610d9657610d95612047565b5b90600052602060002090600302016002016000815480929190610db8906120a5565b91905055506001600083815260200190815260200160002060008281526020019081526020016000208490806001815401808255809150506001900390600052602060002001600090919091909150557f178e76faa844f1c429cbe43bb805a70530f990ef2acc87f8f626ac80ff484909826000808581526020019081526020016000208381548110610e4e57610e4d612047565b5b90600052602060002090600302016000015486604051610e7093929190612355565b60405180910390a150508080610e85906120a5565b915050610cd4565b50505050565b600560009054906101000a900473ffffffffffffffffffffffffffffffffffffffff1681565b606080600080600090505b600380549050811015610f255760008060038381548110610ee857610ee7612047565b5b906000526020600020015481526020019081526020016000208054905082610f10919061238c565b91508080610f1d906120a5565b915050610ec4565b5060008167ffffffffffffffff811115610f4257610f41611794565b5b604051908082528060200260200182016040528015610f7b57816020015b610f686113de565b815260200190600190039081610f605790505b50905060008267ffffffffffffffff811115610f9a57610f99611794565b5b604051908082528060200260200182016040528015610fc85781602001602082028036833780820191505090505b5090506000805b60038054905081101561111457600080600060038481548110610ff557610ff4612047565b5b90600052602060002001548152602001908152602001600020905060005b81805490508110156110ff57604051806040016040528083838154811061103d5761103c612047565b5b906000526020600020906003020160000154815260200183838154811061106757611066612047565b5b90600052602060002090600302016001015481525086858151811061108f5761108e612047565b5b60200260200101819052508181815481106110ad576110ac612047565b5b9060005260206000209060030201600201548585815181106110d2576110d1612047565b5b60200260200101818152505083806110e9906120a5565b94505080806110f7906120a5565b915050611013565b5050808061110c906120a5565b915050610fcf565b50828295509550505050509091565b60008061112f8361125d565b9050600081905060006040518060400160405280600f81526020017f202d20426f617264204d656d626572000000000000000000000000000000000081525090508051825110156111865760009350505050611258565b60005b815181101561124f578181815181106111a5576111a4612047565b5b602001015160f81c60f81b7effffffffffffffffffffffffffffffffffffffffffffffffffffffffffffff19168382845186516111e291906123c0565b6111ec919061238c565b815181106111fd576111fc612047565b5b602001015160f81c60f81b7effffffffffffffffffffffffffffffffffffffffffffffffffffffffffffff19161461123c576000945050505050611258565b8080611247906120a5565b915050611189565b50600193505050505b919050565b606060005b6020811080156112ae5750600060f81b83826020811061128557611284612047565b5b1a60f81b7effffffffffffffffffffffffffffffffffffffffffffffffffffffffffffff191614155b156112c65780806112be906120a5565b915050611262565b60008167ffffffffffffffff8111156112e2576112e1611794565b5b6040519080825280601f01601f1916602001820160405280156113145781602001600182028036833780820191505090505b50905060005b8281101561138e5784816020811061133557611334612047565b5b1a60f81b82828151811061134c5761134b612047565b5b60200101907effffffffffffffffffffffffffffffffffffffffffffffffffffffffffffff1916908160001a9053508080611386906120a5565b91505061131a565b508092505050919050565b50805460008255600302906000526020600020908101906113ba919061142f565b50565b50805460008255906000526020600020908101906113db919061145e565b50565b604051806040016040528060008019168152602001600080191681525090565b6040518060800160405280600080191681526020016000801916815260200160008019168152602001600081525090565b5b8082111561145a576000808201600090556001820160009055600282016000905550600301611430565b5090565b5b8082111561147757600081600090555060010161145f565b5090565b6000604051905090565b600080fd5b600080fd5b6000819050919050565b6114a28161148f565b81146114ad57600080fd5b50565b6000813590506114bf81611499565b92915050565b6000819050919050565b6114d8816114c5565b81146114e357600080fd5b50565b6000813590506114f5816114cf565b92915050565b6000806040838503121561151257611511611485565b5b6000611520858286016114b0565b9250506020611531858286016114e6565b9150509250929050565b600081519050919050565b600082825260208201905092915050565b6000819050602082019050919050565b6115708161148f565b82525050565b60006115828383611567565b60208301905092915050565b6000602082019050919050565b60006115a68261153b565b6115b08185611546565b93506115bb83611557565b8060005b838110156115ec5781516115d38882611576565b97506115de8361158e565b9250506001810190506115bf565b5085935050505092915050565b60006020820190508181036000830152611613818461159b565b905092915050565b60006020828403121561163157611630611485565b5b600061163f848285016114b0565b91505092915050565b600081519050919050565b600082825260208201905092915050565b6000819050602082019050919050565b60408201600082015161168a6000850182611567565b50602082015161169d6020850182611567565b50505050565b60006116af8383611674565b60408301905092915050565b6000602082019050919050565b60006116d382611648565b6116dd8185611653565b93506116e883611664565b8060005b8381101561171957815161170088826116a3565b975061170b836116bb565b9250506001810190506116ec565b5085935050505092915050565b6000602082019050818103600083015261174081846116c8565b905092915050565b60008115159050919050565b61175d81611748565b82525050565b60006020820190506117786000830184611754565b92915050565b600080fd5b6000601f19601f8301169050919050565b7f4e487b7100000000000000000000000000000000000000000000000000000000600052604160045260246000fd5b6117cc82611783565b810181811067ffffffffffffffff821117156117eb576117ea611794565b5b80604052505050565b60006117fe61147b565b905061180a82826117c3565b919050565b600067ffffffffffffffff82111561182a57611829611794565b5b602082029050602081019050919050565b600080fd5b600061185361184e8461180f565b6117f4565b905080838252602082019050602084028301858111156118765761187561183b565b5b835b8181101561189f578061188b88826114b0565b845260208401935050602081019050611878565b5050509392505050565b600082601f8301126118be576118bd61177e565b5b81356118ce848260208601611840565b91505092915050565b600067ffffffffffffffff8211156118f2576118f1611794565b5b602082029050602081019050919050565b600067ffffffffffffffff82111561191e5761191d611794565b5b602082029050602081019050919050565b600080fd5b60006040828403121561194a5761194961192f565b5b61195460406117f4565b90506000611964848285016114b0565b6000830152506020611978848285016114b0565b60208301525092915050565b600061199761199284611903565b6117f4565b905080838252602082019050604084028301858111156119ba576119b961183b565b5b835b818110156119e357806119cf8882611934565b8452602084019350506040810190506119bc565b5050509392505050565b600082601f830112611a0257611a0161177e565b5b8135611a12848260208601611984565b91505092915050565b6000611a2e611a29846118d7565b6117f4565b90508083825260208201905060208402830185811115611a5157611a5061183b565b5b835b81811015611a9857803567ffffffffffffffff811115611a7657611a7561177e565b5b808601611a8389826119ed565b85526020850194505050602081019050611a53565b5050509392505050565b600082601f830112611ab757611ab661177e565b5b8135611ac7848260208601611a1b565b91505092915050565b60008060008060808587031215611aea57611ae9611485565b5b600085013567ffffffffffffffff811115611b0857611b0761148a565b5b611b14878288016118a9565b945050602085013567ffffffffffffffff811115611b3557611b3461148a565b5b611b4187828801611aa2565b935050604085013567ffffffffffffffff811115611b6257611b6161148a565b5b611b6e878288016118a9565b925050606085013567ffffffffffffffff811115611b8f57611b8e61148a565b5b611b9b878288016118a9565b91505092959194509250565b600081519050919050565b600082825260208201905092915050565b6000819050602082019050919050565b611bdc816114c5565b82525050565b608082016000820151611bf86000850182611567565b506020820151611c0b6020850182611567565b506040820151611c1e6040850182611567565b506060820151611c316060850182611bd3565b50505050565b6000611c438383611be2565b60808301905092915050565b6000602082019050919050565b6000611c6782611ba7565b611c718185611bb2565b9350611c7c83611bc3565b8060005b83811015611cad578151611c948882611c37565b9750611c9f83611c4f565b925050600181019050611c80565b5085935050505092915050565b60006020820190508181036000830152611cd48184611c5c565b905092915050565b611ce58161148f565b82525050565b6000604082019050611d006000830185611cdc565b611d0d6020830184611cdc565b9392505050565b600067ffffffffffffffff821115611d2f57611d2e611794565b5b602082029050602081019050919050565b6000611d53611d4e84611d14565b6117f4565b90508083825260208201905060208402830185811115611d7657611d7561183b565b5b835b81811015611d9f5780611d8b88826114e6565b845260208401935050602081019050611d78565b5050509392505050565b600082601f830112611dbe57611dbd61177e565b5b8135611dce848260208601611d40565b91505092915050565b600080600060608486031215611df057611def611485565b5b600084013567ffffffffffffffff811115611e0e57611e0d61148a565b5b611e1a868287016118a9565b935050602084013567ffffffffffffffff811115611e3b57611e3a61148a565b5b611e4786828701611da9565b9250506040611e58868287016114b0565b9150509250925092565b600073ffffffffffffffffffffffffffffffffffffffff82169050919050565b6000611e8d82611e62565b9050919050565b611e9d81611e82565b82525050565b6000602082019050611eb86000830184611e94565b92915050565b600081519050919050565b600082825260208201905092915050565b6000819050602082019050919050565b6000611ef68383611bd3565b60208301905092915050565b6000602082019050919050565b6000611f1a82611ebe565b611f248185611ec9565b9350611f2f83611eda565b8060005b83811015611f60578151611f478882611eea565b9750611f5283611f02565b925050600181019050611f33565b5085935050505092915050565b60006040820190508181036000830152611f8781856116c8565b90508181036020830152611f9b8184611f0f565b90509392505050565b600082825260208201905092915050565b7f4f6e6c792061646d696e2063616e20706572666f726d2074686973206163746960008201527f6f6e000000000000000000000000000000000000000000000000000000000000602082015250565b6000612011602283611fa4565b915061201c82611fb5565b604082019050919050565b6000602082019050818103600083015261204081612004565b9050919050565b7f4e487b7100000000000000000000000000000000000000000000000000000000600052603260045260246000fd5b7f4e487b7100000000000000000000000000000000000000000000000000000000600052601160045260246000fd5b60006120b0826114c5565b91507fffffffffffffffffffffffffffffffffffffffffffffffffffffffffffffffff82036120e2576120e1612076565b5b600182019050919050565b7f43616e646964617465732061726520616c72656164792066696e616c697a656460008201527f2100000000000000000000000000000000000000000000000000000000000000602082015250565b6000612149602183611fa4565b9150612154826120ed565b604082019050919050565b600060208201905081810360008301526121788161213c565b9050919050565b7f566f74696e672063616e6e6f7420737461727420756e74696c2063616e64696460008201527f61746573206172652066696e616c697a65642100000000000000000000000000602082015250565b60006121db603383611fa4565b91506121e68261217f565b604082019050919050565b6000602082019050818103600083015261220a816121ce565b9050919050565b7f4d69736d61746368656420696e707574206c656e677468730000000000000000600082015250565b6000612247601883611fa4565b915061225282612211565b602082019050919050565b600060208201905081810360008301526122768161223a565b9050919050565b7f566f7465722068617320616c726561647920766f746564000000000000000000600082015250565b60006122b3601783611fa4565b91506122be8261227d565b602082019050919050565b600060208201905081810360008301526122e2816122a6565b9050919050565b7f496e76616c69642063616e64696461746520696e646578000000000000000000600082015250565b600061231f601783611fa4565b915061232a826122e9565b602082019050919050565b6000602082019050818103600083015261234e81612312565b9050919050565b600060608201905061236a6000830186611cdc565b6123776020830185611cdc565b6123846040830184611cdc565b949350505050565b6000612397826114c5565b91506123a2836114c5565b92508282019050808211156123ba576123b9612076565b5b92915050565b60006123cb826114c5565b91506123d6836114c5565b92508282039050818111156123ee576123ed612076565b5b9291505056fea2646970667358221220e647da61568b32594c15ce8945cf3aca6c3b8a87d2778221e046f6ad5500c10a64736f6c63430008150033",
  "linkReferences": {},
  "deployedLinkReferences": {}
}